{"contracts/stakeNFT721.sol":{"StakeNFT721":{"abi":[{"inputs":[{"internalType":"uint8","name":"maxWeeks","type":"uint8"},{"internalType":"uint256","name":"maxScale","type":"uint256"},{"internalType":"uint8","name":"lockWeeks","type":"uint8"},{"internalType":"uint256","name":"beginTime","type":"uint256"},{"internalType":"uint256","name":"endTime","type":"uint256"},{"internalType":"address","name":"_rewardToken","type":"address"},{"internalType":"address","name":"tokenA","type":"address"},{"internalType":"address","name":"tokenB","type":"address"},{"internalType":"address","name":"nft","type":"address"}],"stateMutability":"nonpayable","type":"constructor"},{"anonymous":false,"inputs":[{"indexed":true,"internalType":"address","name":"user","type":"address"},{"indexed":false,"internalType":"uint256","name":"tokenId","type":"uint256"},{"indexed":false,"internalType":"uint256","name":"amount","type":"uint256"}],"name":"ClaimReward","type":"event"},{"anonymous":false,"inputs":[{"indexed":true,"internalType":"address","name":"user","type":"address"},{"indexed":false,"internalType":"uint256","name":"amount","type":"uint256"}],"name":"ClaimReward","type":"event"},{"anonymous":false,"inputs":[{"indexed":true,"internalType":"address","name":"user","type":"address"},{"indexed":false,"internalType":"uint256","name":"no","type":"uint256"},{"indexed":false,"internalType":"uint256","name":"amount","type":"uint256"}],"name":"SetReward","type":"event"},{"anonymous":false,"inputs":[{"indexed":true,"internalType":"address","name":"user","type":"address"},{"indexed":false,"internalType":"uint256","name":"tokenId","type":"uint256"},{"indexed":false,"internalType":"uint256","name":"amount","type":"uint256"},{"indexed":false,"internalType":"uint8","name":"k","type":"uint8"}],"name":"Stake","type":"event"},{"anonymous":false,"inputs":[{"indexed":true,"internalType":"address","name":"user","type":"address"},{"indexed":false,"internalType":"uint256","name":"tokenId","type":"uint256"}],"name":"Withdraw","type":"event"},{"inputs":[],"name":"BEGIN_TIME","outputs":[{"internalType":"uint256","name":"","type":"uint256"}],"stateMutability":"view","type":"function"},{"inputs":[],"name":"END_TIME","outputs":[{"internalType":"uint256","name":"","type":"uint256"}],"stateMutability":"view","type":"function"},{"inputs":[],"name":"LOCK_WEEKNUM","outputs":[{"internalType":"uint8","name":"","type":"uint8"}],"stateMutability":"view","type":"function"},{"inputs":[],"name":"MAX_SCALE","outputs":[{"internalType":"uint256","name":"","type":"uint256"}],"stateMutability":"view","type":"function"},{"inputs":[],"name":"MAX_WEEKS","outputs":[{"internalType":"uint8","name":"","type":"uint8"}],"stateMutability":"view","type":"function"},{"inputs":[],"name":"WEEK_SECONDS","outputs":[{"internalType":"uint24","name":"","type":"uint24"}],"stateMutability":"view","type":"function"},{"inputs":[],"name":"acceptSetter","outputs":[],"stateMutability":"nonpayable","type":"function"},{"inputs":[],"name":"canClaimAmount","outputs":[{"internalType":"uint256","name":"","type":"uint256"}],"stateMutability":"view","type":"function"},{"inputs":[],"name":"claimReward","outputs":[],"stateMutability":"nonpayable","type":"function"},{"inputs":[{"internalType":"uint256","name":"amount","type":"uint256"},{"internalType":"uint8","name":"k","type":"uint8"}],"name":"getScore","outputs":[{"internalType":"uint256","name":"score","type":"uint256"}],"stateMutability":"view","type":"function"},{"inputs":[],"name":"getUserNFTs","outputs":[{"internalType":"uint256[]","name":"","type":"uint256[]"},{"internalType":"uint256","name":"","type":"uint256"}],"stateMutability":"view","type":"function"},{"inputs":[],"name":"latestNo","outputs":[{"internalType":"uint256","name":"","type":"uint256"}],"stateMutability":"view","type":"function"},{"inputs":[],"name":"nftToken","outputs":[{"internalType":"contract IIotabeeSwapNFT","name":"","type":"address"}],"stateMutability":"view","type":"function"},{"inputs":[],"name":"owner","outputs":[{"internalType":"address","name":"","type":"address"}],"stateMutability":"view","type":"function"},{"inputs":[],"name":"rewardToken","outputs":[{"internalType":"address","name":"","type":"address"}],"stateMutability":"view","type":"function"},{"inputs":[{"internalType":"uint256","name":"","type":"uint256"}],"name":"rewardsOf","outputs":[{"internalType":"uint256","name":"","type":"uint256"}],"stateMutability":"view","type":"function"},{"inputs":[{"internalType":"uint256","name":"no","type":"uint256"},{"internalType":"uint256","name":"amount","type":"uint256"}],"name":"setReward","outputs":[],"stateMutability":"nonpayable","type":"function"},{"inputs":[{"internalType":"uint256[]","name":"nos","type":"uint256[]"},{"internalType":"uint256[]","name":"amounts","type":"uint256[]"}],"name":"setRewards","outputs":[{"internalType":"uint256","name":"total","type":"uint256"}],"stateMutability":"nonpayable","type":"function"},{"inputs":[{"internalType":"uint256","name":"tokenId","type":"uint256"},{"internalType":"uint8","name":"k","type":"uint8"}],"name":"stake","outputs":[],"stateMutability":"nonpayable","type":"function"},{"inputs":[{"internalType":"uint256","name":"","type":"uint256"}],"name":"stakingNFTs","outputs":[{"internalType":"address","name":"owner","type":"address"},{"internalType":"uint256","name":"score","type":"uint256"},{"internalType":"uint256","name":"beginNo","type":"uint256"},{"internalType":"uint256","name":"endNo","type":"uint256"}],"stateMutability":"view","type":"function"},{"inputs":[],"name":"token0","outputs":[{"internalType":"address","name":"","type":"address"}],"stateMutability":"view","type":"function"},{"inputs":[],"name":"token1","outputs":[{"internalType":"address","name":"","type":"address"}],"stateMutability":"view","type":"function"},{"inputs":[{"internalType":"uint256","name":"","type":"uint256"}],"name":"totalScores","outputs":[{"internalType":"uint256","name":"","type":"uint256"}],"stateMutability":"view","type":"function"},{"inputs":[{"internalType":"address","name":"_owner","type":"address"}],"name":"transferOwner","outputs":[],"stateMutability":"nonpayable","type":"function"},{"inputs":[{"internalType":"address","name":"","type":"address"},{"internalType":"uint256","name":"","type":"uint256"}],"name":"userCanClaimWeeks","outputs":[{"internalType":"uint256","name":"","type":"uint256"}],"stateMutability":"view","type":"function"},{"inputs":[{"internalType":"address","name":"","type":"address"},{"internalType":"uint256","name":"","type":"uint256"}],"name":"userNFTs","outputs":[{"internalType":"uint256","name":"","type":"uint256"}],"stateMutability":"view","type":"function"},{"inputs":[{"internalType":"address","name":"","type":"address"},{"internalType":"uint256","name":"","type":"uint256"}],"name":"userScores","outputs":[{"internalType":"uint256","name":"","type":"uint256"}],"stateMutability":"view","type":"function"},{"inputs":[{"internalType":"uint256","name":"tokenId","type":"uint256"}],"name":"withdraw","outputs":[],"stateMutability":"nonpayable","type":"function"},{"inputs":[{"internalType":"uint256[]","name":"tokenIds","type":"uint256[]"}],"name":"withdraw","outputs":[],"stateMutability":"nonpayable","type":"function"},{"inputs":[{"internalType":"uint256","name":"amount","type":"uint256"}],"name":"withdrawRewards","outputs":[],"stateMutability":"nonpayable","type":"function"}],"evm":{"bytecode":{"linkReferences":{},"object":"6101a06040523480156200001257600080fd5b5060405162001ff038038062001ff08339810160408190526200003591620000e3565b6001600160a01b0380851660805260ff808b1660a05260c08a9052881660e052610100879052610120869052600080546001600160a01b0319163317905582811690841610620000875781836200008a565b82825b6001600160a01b039081166101805290811661016052166101405250620001839650505050505050565b805160ff81168114620000c657600080fd5b919050565b80516001600160a01b0381168114620000c657600080fd5b60008060008060008060008060006101208a8c0312156200010357600080fd5b6200010e8a620000b4565b985060208a015197506200012560408b01620000b4565b965060608a0151955060808a015194506200014360a08b01620000cb565b93506200015360c08b01620000cb565b92506200016360e08b01620000cb565b9150620001746101008b01620000cb565b90509295985092959850929598565b60805160a05160c05160e0516101005161012051610140516101605161018051611d8c62000264600039600081816104b60152611396015260008181610250015261135a01526000818161048f015281816109dc015281816112b90152818161148d015261155e0152600061035c0152600061044b01526000818161021701528181610b2e0152610f1c01526000818161051701526110f30152600081816104dd015281816105860152818161108f01526110ba01526000818161053e01528181610c2f01528181610da001528181610e7c01526110090152611d8c6000f3fe608060405234801561001057600080fd5b50600436106101da5760003560e01c80639342c8f411610104578063cd671a58116100a2578063ee3453ed11610071578063ee3453ed146104ff578063f6def7cf14610512578063f7c618c114610539578063fdc5ab8e1461056057600080fd5b8063cd671a581461046d578063d06fcba81461048a578063d21220a7146104b1578063e11400bb146104d857600080fd5b8063a47bd496116100de578063a47bd49614610418578063b88a802f1461042b578063bb57852d14610433578063c75363b61461044657600080fd5b80639342c8f4146103df578063979db1c4146103f2578063983d95ce1461040557600080fd5b806329ed1cfd1161017c5780635b680a451161014b5780635b680a45146103915780635f8e422f146103bc5780638431165e146103c45780638da5cb5b146103cc57600080fd5b806329ed1cfd1461033b5780632e1a7d4d1461034457806337ba682d146103575780634fb2e45d1461037e57600080fd5b806310087fb1116101b857806310087fb11461028a57806310c6c1c21461029f578063157775df14610308578063291c73c31461032857600080fd5b80630bce1284146101df5780630d437d40146102125780630dfe16811461024b575b600080fd5b6101ff6101ed3660046117fe565b60056020526000908152604090205481565b6040519081526020015b60405180910390f35b6102397f000000000000000000000000000000000000000000000000000000000000000081565b60405160ff9091168152602001610209565b6102727f000000000000000000000000000000000000000000000000000000000000000081565b6040516001600160a01b039091168152602001610209565b61029d610298366004611817565b610576565b005b6102de6102ad3660046117fe565b60076020526000908152604090208054600182015460028301546003909301546001600160a01b0390921692909184565b604080516001600160a01b0390951685526020850193909352918301526060820152608001610209565b6101ff6103163660046117fe565b60046020526000908152604090205481565b6101ff610336366004611862565b610819565b6101ff60065481565b61029d6103523660046117fe565b61084a565b6101ff7f000000000000000000000000000000000000000000000000000000000000000081565b61029d61038c36600461188e565b610a8a565b6101ff61039f366004611862565b600260209081526000928352604080842090915290825290205481565b61029d610ad6565b6101ff610b27565b600054610272906001600160a01b031681565b61029d6103ed3660046117fe565b610c00565b6101ff61040036600461195c565b610c58565b61029d6104133660046119c0565b610e09565b61029d6104263660046119fd565b610e4d565b61029d610f16565b6101ff610441366004611862565b611061565b6101ff7f000000000000000000000000000000000000000000000000000000000000000081565b61047661025881565b60405162ffffff9091168152602001610209565b6102727f000000000000000000000000000000000000000000000000000000000000000081565b6102727f000000000000000000000000000000000000000000000000000000000000000081565b6102397f000000000000000000000000000000000000000000000000000000000000000081565b6101ff61050d366004611817565b611086565b6101ff7f000000000000000000000000000000000000000000000000000000000000000081565b6102727f000000000000000000000000000000000000000000000000000000000000000081565b610568611150565b604051610209929190611a1f565b60008160ff161180156105af57507f000000000000000000000000000000000000000000000000000000000000000060ff168160ff1611155b6105f45760405162461bcd60e51b815260206004820152601160248201527039ba30b5b2903bb2b2b5b99032b93937b960791b60448201526064015b60405180910390fd5b60006105ff836112ae565b9050600061060f61025842611a7d565b61061a906001611a9f565b905060006106288385611086565b905060005b8460ff168160ff1610156106c257816004600061064d60ff851687611a9f565b8152602001908152602001600020600082825461066a9190611a9f565b9091555050336000908152600260205260408120839161068d60ff851687611a9f565b815260200190815260200160002060008282546106aa9190611a9f565b909155508190506106ba81611ab8565b91505061062d565b506040805160808101825233815260208101839052908101839052606081016106ee60ff871685611a9f565b90526000868152600760209081526040808320845181546001600160a01b0319166001600160a01b0390911617815584830151600180830191909155858301516002830155606090950151600391820155338452909152902090810154905403610765573360009081526003602052604090208290555b61077260ff851683611a9f565b3360009081526003602052604090206001015410156107ac5761079860ff851683611a9f565b336000908152600360205260409020600101555b336000818152600860209081526040808320805460018101825590845292829020909201889055815188815290810186905260ff87168183015290517f6fa2f6021ee337436cdf2b2570285886da18bc06402ce284d296504a0fe8f8759181900360600190a25050505050565b6008602052816000526040600020818154811061083557600080fd5b90600052602060002001600091509150505481565b6000818152600760205260409020546001600160a01b031633146108a25760405162461bcd60e51b815260206004820152600f60248201526e37bbb732b9103337b93134b23232b760891b60448201526064016105eb565b60006108b061025842611a7d565b6000838152600760205260409020600301549091508110156109025760405162461bcd60e51b815260206004820152600b60248201526a6c6f636b65642074696d6560a81b60448201526064016105eb565b336000908152600860205260408120905b8154811015610a4f5781818154811061092e5761092e611ad7565b90600052602060002001548403610a3d578154829061094f90600190611aed565b8154811061095f5761095f611ad7565b906000526020600020015482828154811061097c5761097c611ad7565b90600052602060002001819055508180548061099a5761099a611b00565b600082815260208120820160001990810191909155019055604051632142170760e11b8152306004820152336024820152604481018590526001600160a01b037f000000000000000000000000000000000000000000000000000000000000000016906342842e0e90606401600060405180830381600087803b158015610a2057600080fd5b505af1158015610a34573d6000803e3d6000fd5b50505050610a4f565b80610a4781611b16565b915050610913565b5060405183815233907f884edad9ce6fa2440d8a54cc123490eb96d2768479d49ff9c7366125a94243649060200160405180910390a2505050565b6000546001600160a01b03163314610ab45760405162461bcd60e51b81526004016105eb90611b2f565b600180546001600160a01b0319166001600160a01b0392909216919091179055565b6001546001600160a01b03163314610b005760405162461bcd60e51b81526004016105eb90611b2f565b60018054600080546001600160a01b03199081166001600160a01b03841617909155169055565b60008060ff7f000000000000000000000000000000000000000000000000000000000000000016610b5a61025842611a7d565b610b649190611aed565b33600090815260036020526040812054919250905b33600090815260036020526040902060010154811015610bf957828111610bf957600081815260046020908152604080832054338452600283528184208585528352818420546005909352922054610bd19190611b52565b610bdb9190611a7d565b610be59083611a9f565b915080610bf181611b16565b915050610b79565b5092915050565b6000546001600160a01b03163314610c2a5760405162461bcd60e51b81526004016105eb90611b2f565b610c557f000000000000000000000000000000000000000000000000000000000000000033836115d7565b50565b600080546001600160a01b03163314610c835760405162461bcd60e51b81526004016105eb90611b2f565b8151835114610cc75760405162461bcd60e51b815260206004820152601060248201526f3830b930b6b2ba32b9399032b93937b960811b60448201526064016105eb565b60005b8351811015610d9a57828181518110610ce557610ce5611ad7565b602002602001015182610cf89190611a9f565b9150828181518110610d0c57610d0c611ad7565b602002602001015160056000868481518110610d2a57610d2a611ad7565b6020026020010151815260200190815260200160002081905550600654848281518110610d5957610d59611ad7565b60200260200101511115610d8857838181518110610d7957610d79611ad7565b60200260200101516006819055505b80610d9281611b16565b915050610cca565b50610dc77f00000000000000000000000000000000000000000000000000000000000000003330846116e4565b60408051600081526020810183905233917fc3991418cacd70a010fce559a44fcbb47534ca43bf7543964bdca2639f6e6e5a910160405180910390a292915050565b60005b8151811015610e4957610e37828281518110610e2a57610e2a611ad7565b602002602001015161084a565b80610e4181611b16565b915050610e0c565b5050565b6000546001600160a01b03163314610e775760405162461bcd60e51b81526004016105eb90611b2f565b610ea37f00000000000000000000000000000000000000000000000000000000000000003330846116e4565b60008281526005602052604081208054839290610ec1908490611a9f565b9091555050600654821115610ed65760068290555b604080518381526020810183905233917fc3991418cacd70a010fce559a44fcbb47534ca43bf7543964bdca2639f6e6e5a91015b60405180910390a25050565b600060ff7f000000000000000000000000000000000000000000000000000000000000000016610f4861025842611a7d565b610f529190611aed565b33600090815260036020526040812054919250905b336000908152600360205260409020600101548110156110035782811161100357610f93816001611a9f565b3360009081526003602052604081200155600081815260046020908152604080832054338452600283528184208585528352818420546005909352922054610fdb9190611b52565b610fe59190611a7d565b610fef9083611a9f565b915080610ffb81611b16565b915050610f67565b5061102f7f000000000000000000000000000000000000000000000000000000000000000033836115d7565b60405181815233907fba8de60c3403ec381d1d484652ea1980e3c3e56359195c92525bff4ce47ad98e90602001610f0a565b6003602052816000526040600020816002811061107d57600080fd5b01549150829050565b60006110b360017f0000000000000000000000000000000000000000000000000000000000000000611b69565b60ff1660017f000000000000000000000000000000000000000000000000000000000000000060ff166001856110e99190611b69565b60ff1661111760017f0000000000000000000000000000000000000000000000000000000000000000611aed565b6111219190611b52565b61112b9190611a9f565b6111359190611aed565b61113f9085611b52565b6111499190611a7d565b9392505050565b3360009081526008602052604081205460609190819067ffffffffffffffff81111561117e5761117e6118ab565b6040519080825280602002602001820160405280156111a7578160200160208202803683370190505b50905060006111b861025842611a7d565b3360009081526008602052604081205491925090815b336000908152600860205260409020548110156112a15733600090815260086020526040812080548390811061120657611206611ad7565b906000526020600020015490508460076000838152602001908152602001600020600301541115611261578086858151811061124457611244611ad7565b60209081029190910101528361125981611b16565b94505061128e565b8261126b81611b82565b9350508086848151811061128157611281611ad7565b6020026020010181815250505b508061129981611b16565b9150506111ce565b5092959294509192505050565b6000806000806000807f00000000000000000000000000000000000000000000000000000000000000006001600160a01b03166399fbab88886040518263ffffffff1660e01b815260040161130591815260200190565b61018060405180830381865afa158015611323573d6000803e3d6000fd5b505050506040513d601f19601f820116820180604052508101906113479190611be5565b50505050975097509750509650965050507f00000000000000000000000000000000000000000000000000000000000000006001600160a01b0316856001600160a01b03161480156113ca57507f00000000000000000000000000000000000000000000000000000000000000006001600160a01b0316846001600160a01b0316145b6114065760405162461bcd60e51b815260206004820152600d60248201526c3638103830b4b91032b93937b960991b60448201526064016105eb565b600283900b620d89e71914801561142e5750611425620d89e719611cc6565b60020b8260020b145b61146d5760405162461bcd60e51b815260206004820152601060248201526f3a34b1b5903930b733b29032b93937b960811b60448201526064016105eb565b60405163020604bf60e21b81526004810188905230906001600160a01b037f0000000000000000000000000000000000000000000000000000000000000000169063081812fc90602401602060405180830381865afa1580156114d4573d6000803e3d6000fd5b505050506040513d601f19601f820116820180604052508101906114f89190611ce8565b6001600160a01b03161461153c5760405162461bcd60e51b815260206004820152600b60248201526a6e6f7420617070726f766560a81b60448201526064016105eb565b604051632142170760e11b8152336004820152306024820152604481018890527f00000000000000000000000000000000000000000000000000000000000000006001600160a01b0316906342842e0e90606401600060405180830381600087803b1580156115aa57600080fd5b505af11580156115be573d6000803e3d6000fd5b50506001600160801b0390921698975050505050505050565b604080516001600160a01b038481166024830152604480830185905283518084039091018152606490920183526020820180516001600160e01b031663a9059cbb60e01b17905291516000928392908716916116339190611d05565b6000604051808303816000865af19150503d8060008114611670576040519150601f19603f3d011682016040523d82523d6000602084013e611675565b606091505b509150915081801561169f57508051158061169f57508080602001905181019061169f9190611d34565b6116dd5760405162461bcd60e51b815260206004820152600f60248201526e1514905394d1915497d19052531151608a1b60448201526064016105eb565b5050505050565b604080516001600160a01b0385811660248301528481166044830152606480830185905283518084039091018152608490920183526020820180516001600160e01b03166323b872dd60e01b17905291516000928392908816916117489190611d05565b6000604051808303816000865af19150503d8060008114611785576040519150601f19603f3d011682016040523d82523d6000602084013e61178a565b606091505b50915091508180156117b45750805115806117b45750808060200190518101906117b49190611d34565b6117f65760405162461bcd60e51b81526020600482015260136024820152721d1c985b9cd9995c919c9bdb4819985a5b1959606a1b60448201526064016105eb565b505050505050565b60006020828403121561181057600080fd5b5035919050565b6000806040838503121561182a57600080fd5b82359150602083013560ff8116811461184257600080fd5b809150509250929050565b6001600160a01b0381168114610c5557600080fd5b6000806040838503121561187557600080fd5b82356118808161184d565b946020939093013593505050565b6000602082840312156118a057600080fd5b81356111498161184d565b634e487b7160e01b600052604160045260246000fd5b600082601f8301126118d257600080fd5b8135602067ffffffffffffffff808311156118ef576118ef6118ab565b8260051b604051601f19603f83011681018181108482111715611914576119146118ab565b60405293845285810183019383810192508785111561193257600080fd5b83870191505b8482101561195157813583529183019190830190611938565b979650505050505050565b6000806040838503121561196f57600080fd5b823567ffffffffffffffff8082111561198757600080fd5b611993868387016118c1565b935060208501359150808211156119a957600080fd5b506119b6858286016118c1565b9150509250929050565b6000602082840312156119d257600080fd5b813567ffffffffffffffff8111156119e957600080fd5b6119f5848285016118c1565b949350505050565b60008060408385031215611a1057600080fd5b50508035926020909101359150565b604080825283519082018190526000906020906060840190828701845b82811015611a5857815184529284019290840190600101611a3c565b50505092019290925292915050565b634e487b7160e01b600052601160045260246000fd5b600082611a9a57634e487b7160e01b600052601260045260246000fd5b500490565b80820180821115611ab257611ab2611a67565b92915050565b600060ff821660ff8103611ace57611ace611a67565b60010192915050565b634e487b7160e01b600052603260045260246000fd5b81810381811115611ab257611ab2611a67565b634e487b7160e01b600052603160045260246000fd5b600060018201611b2857611b28611a67565b5060010190565b6020808252600990820152683337b93134b23232b760b91b604082015260600190565b8082028115828204841417611ab257611ab2611a67565b60ff8281168282160390811115611ab257611ab2611a67565b600081611b9157611b91611a67565b506000190190565b8051611ba48161184d565b919050565b805162ffffff81168114611ba457600080fd5b8051600281900b8114611ba457600080fd5b80516001600160801b0381168114611ba457600080fd5b6000806000806000806000806000806000806101808d8f031215611c0857600080fd5b8c516bffffffffffffffffffffffff81168114611c2457600080fd5b9b50611c3260208e01611b99565b9a50611c4060408e01611b99565b9950611c4e60608e01611b99565b9850611c5c60808e01611ba9565b9750611c6a60a08e01611bbc565b9650611c7860c08e01611bbc565b9550611c8660e08e01611bce565b94506101008d015193506101208d01519250611ca56101408e01611bce565b9150611cb46101608e01611bce565b90509295989b509295989b509295989b565b60008160020b627fffff198103611cdf57611cdf611a67565b60000392915050565b600060208284031215611cfa57600080fd5b81516111498161184d565b6000825160005b81811015611d265760208186018101518583015201611d0c565b506000920191825250919050565b600060208284031215611d4657600080fd5b8151801515811461114957600080fdfea2646970667358221220b297ce4c60935a3d0dba175424d542ca7e897b00de6c6afaa0715f2d3b70bebb64736f6c63430008110033","opcodes":"PUSH2 0x1A0 PUSH1 0x40 MSTORE CALLVALUE DUP1 ISZERO PUSH3 0x12 JUMPI PUSH1 0x0 DUP1 REVERT JUMPDEST POP PUSH1 0x40 MLOAD PUSH3 0x1FF0 CODESIZE SUB DUP1 PUSH3 0x1FF0 DUP4 CODECOPY DUP2 ADD PUSH1 0x40 DUP2 SWAP1 MSTORE PUSH3 0x35 SWAP2 PUSH3 0xE3 JUMP JUMPDEST PUSH1 0x1 PUSH1 0x1 PUSH1 0xA0 SHL SUB DUP1 DUP6 AND PUSH1 0x80 MSTORE PUSH1 0xFF DUP1 DUP12 AND PUSH1 0xA0 MSTORE PUSH1 0xC0 DUP11 SWAP1 MSTORE DUP9 AND PUSH1 0xE0 MSTORE PUSH2 0x100 DUP8 SWAP1 MSTORE PUSH2 0x120 DUP7 SWAP1 MSTORE PUSH1 0x0 DUP1 SLOAD PUSH1 0x1 PUSH1 0x1 PUSH1 0xA0 SHL SUB NOT AND CALLER OR SWAP1 SSTORE DUP3 DUP2 AND SWAP1 DUP5 AND LT PUSH3 0x87 JUMPI DUP2 DUP4 PUSH3 0x8A JUMP JUMPDEST DUP3 DUP3 JUMPDEST PUSH1 0x1 PUSH1 0x1 PUSH1 0xA0 SHL SUB SWAP1 DUP2 AND PUSH2 0x180 MSTORE SWAP1 DUP2 AND PUSH2 0x160 MSTORE AND PUSH2 0x140 MSTORE POP PUSH3 0x183 SWAP7 POP POP POP POP POP POP POP JUMP JUMPDEST DUP1 MLOAD PUSH1 0xFF DUP2 AND DUP2 EQ PUSH3 0xC6 JUMPI PUSH1 0x0 DUP1 REVERT JUMPDEST SWAP2 SWAP1 POP JUMP JUMPDEST DUP1 MLOAD PUSH1 0x1 PUSH1 0x1 PUSH1 0xA0 SHL SUB DUP2 AND DUP2 EQ PUSH3 0xC6 JUMPI PUSH1 0x0 DUP1 REVERT JUMPDEST PUSH1 0x0 DUP1 PUSH1 0x0 DUP1 PUSH1 0x0 DUP1 PUSH1 0x0 DUP1 PUSH1 0x0 PUSH2 0x120 DUP11 DUP13 SUB SLT ISZERO PUSH3 0x103 JUMPI PUSH1 0x0 DUP1 REVERT JUMPDEST PUSH3 0x10E DUP11 PUSH3 0xB4 JUMP JUMPDEST SWAP9 POP PUSH1 0x20 DUP11 ADD MLOAD SWAP8 POP PUSH3 0x125 PUSH1 0x40 DUP12 ADD PUSH3 0xB4 JUMP JUMPDEST SWAP7 POP PUSH1 0x60 DUP11 ADD MLOAD SWAP6 POP PUSH1 0x80 DUP11 ADD MLOAD SWAP5 POP PUSH3 0x143 PUSH1 0xA0 DUP12 ADD PUSH3 0xCB JUMP JUMPDEST SWAP4 POP PUSH3 0x153 PUSH1 0xC0 DUP12 ADD PUSH3 0xCB JUMP JUMPDEST SWAP3 POP PUSH3 0x163 PUSH1 0xE0 DUP12 ADD PUSH3 0xCB JUMP JUMPDEST SWAP2 POP PUSH3 0x174 PUSH2 0x100 DUP12 ADD PUSH3 0xCB JUMP JUMPDEST SWAP1 POP SWAP3 SWAP6 SWAP9 POP SWAP3 SWAP6 SWAP9 POP SWAP3 SWAP6 SWAP9 JUMP JUMPDEST PUSH1 0x80 MLOAD PUSH1 0xA0 MLOAD PUSH1 0xC0 MLOAD PUSH1 0xE0 MLOAD PUSH2 0x100 MLOAD PUSH2 0x120 MLOAD PUSH2 0x140 MLOAD PUSH2 0x160 MLOAD PUSH2 0x180 MLOAD PUSH2 0x1D8C PUSH3 0x264 PUSH1 0x0 CODECOPY PUSH1 0x0 DUP2 DUP2 PUSH2 0x4B6 ADD MSTORE PUSH2 0x1396 ADD MSTORE PUSH1 0x0 DUP2 DUP2 PUSH2 0x250 ADD MSTORE PUSH2 0x135A ADD MSTORE PUSH1 0x0 DUP2 DUP2 PUSH2 0x48F ADD MSTORE DUP2 DUP2 PUSH2 0x9DC ADD MSTORE DUP2 DUP2 PUSH2 0x12B9 ADD MSTORE DUP2 DUP2 PUSH2 0x148D ADD MSTORE PUSH2 0x155E ADD MSTORE PUSH1 0x0 PUSH2 0x35C ADD MSTORE PUSH1 0x0 PUSH2 0x44B ADD MSTORE PUSH1 0x0 DUP2 DUP2 PUSH2 0x217 ADD MSTORE DUP2 DUP2 PUSH2 0xB2E ADD MSTORE PUSH2 0xF1C ADD MSTORE PUSH1 0x0 DUP2 DUP2 PUSH2 0x517 ADD MSTORE PUSH2 0x10F3 ADD MSTORE PUSH1 0x0 DUP2 DUP2 PUSH2 0x4DD ADD MSTORE DUP2 DUP2 PUSH2 0x586 ADD MSTORE DUP2 DUP2 PUSH2 0x108F ADD MSTORE PUSH2 0x10BA ADD MSTORE PUSH1 0x0 DUP2 DUP2 PUSH2 0x53E ADD MSTORE DUP2 DUP2 PUSH2 0xC2F ADD MSTORE DUP2 DUP2 PUSH2 0xDA0 ADD MSTORE DUP2 DUP2 PUSH2 0xE7C ADD MSTORE PUSH2 0x1009 ADD MSTORE PUSH2 0x1D8C PUSH1 0x0 RETURN INVALID PUSH1 0x80 PUSH1 0x40 MSTORE CALLVALUE DUP1 ISZERO PUSH2 0x10 JUMPI PUSH1 0x0 DUP1 REVERT JUMPDEST POP PUSH1 0x4 CALLDATASIZE LT PUSH2 0x1DA JUMPI PUSH1 0x0 CALLDATALOAD PUSH1 0xE0 SHR DUP1 PUSH4 0x9342C8F4 GT PUSH2 0x104 JUMPI DUP1 PUSH4 0xCD671A58 GT PUSH2 0xA2 JUMPI DUP1 PUSH4 0xEE3453ED GT PUSH2 0x71 JUMPI DUP1 PUSH4 0xEE3453ED EQ PUSH2 0x4FF JUMPI DUP1 PUSH4 0xF6DEF7CF EQ PUSH2 0x512 JUMPI DUP1 PUSH4 0xF7C618C1 EQ PUSH2 0x539 JUMPI DUP1 PUSH4 0xFDC5AB8E EQ PUSH2 0x560 JUMPI PUSH1 0x0 DUP1 REVERT JUMPDEST DUP1 PUSH4 0xCD671A58 EQ PUSH2 0x46D JUMPI DUP1 PUSH4 0xD06FCBA8 EQ PUSH2 0x48A JUMPI DUP1 PUSH4 0xD21220A7 EQ PUSH2 0x4B1 JUMPI DUP1 PUSH4 0xE11400BB EQ PUSH2 0x4D8 JUMPI PUSH1 0x0 DUP1 REVERT JUMPDEST DUP1 PUSH4 0xA47BD496 GT PUSH2 0xDE JUMPI DUP1 PUSH4 0xA47BD496 EQ PUSH2 0x418 JUMPI DUP1 PUSH4 0xB88A802F EQ PUSH2 0x42B JUMPI DUP1 PUSH4 0xBB57852D EQ PUSH2 0x433 JUMPI DUP1 PUSH4 0xC75363B6 EQ PUSH2 0x446 JUMPI PUSH1 0x0 DUP1 REVERT JUMPDEST DUP1 PUSH4 0x9342C8F4 EQ PUSH2 0x3DF JUMPI DUP1 PUSH4 0x979DB1C4 EQ PUSH2 0x3F2 JUMPI DUP1 PUSH4 0x983D95CE EQ PUSH2 0x405 JUMPI PUSH1 0x0 DUP1 REVERT JUMPDEST DUP1 PUSH4 0x29ED1CFD GT PUSH2 0x17C JUMPI DUP1 PUSH4 0x5B680A45 GT PUSH2 0x14B JUMPI DUP1 PUSH4 0x5B680A45 EQ PUSH2 0x391 JUMPI DUP1 PUSH4 0x5F8E422F EQ PUSH2 0x3BC JUMPI DUP1 PUSH4 0x8431165E EQ PUSH2 0x3C4 JUMPI DUP1 PUSH4 0x8DA5CB5B EQ PUSH2 0x3CC JUMPI PUSH1 0x0 DUP1 REVERT JUMPDEST DUP1 PUSH4 0x29ED1CFD EQ PUSH2 0x33B JUMPI DUP1 PUSH4 0x2E1A7D4D EQ PUSH2 0x344 JUMPI DUP1 PUSH4 0x37BA682D EQ PUSH2 0x357 JUMPI DUP1 PUSH4 0x4FB2E45D EQ PUSH2 0x37E JUMPI PUSH1 0x0 DUP1 REVERT JUMPDEST DUP1 PUSH4 0x10087FB1 GT PUSH2 0x1B8 JUMPI DUP1 PUSH4 0x10087FB1 EQ PUSH2 0x28A JUMPI DUP1 PUSH4 0x10C6C1C2 EQ PUSH2 0x29F JUMPI DUP1 PUSH4 0x157775DF EQ PUSH2 0x308 JUMPI DUP1 PUSH4 0x291C73C3 EQ PUSH2 0x328 JUMPI PUSH1 0x0 DUP1 REVERT JUMPDEST DUP1 PUSH4 0xBCE1284 EQ PUSH2 0x1DF JUMPI DUP1 PUSH4 0xD437D40 EQ PUSH2 0x212 JUMPI DUP1 PUSH4 0xDFE1681 EQ PUSH2 0x24B JUMPI JUMPDEST PUSH1 0x0 DUP1 REVERT JUMPDEST PUSH2 0x1FF PUSH2 0x1ED CALLDATASIZE PUSH1 0x4 PUSH2 0x17FE JUMP JUMPDEST PUSH1 0x5 PUSH1 0x20 MSTORE PUSH1 0x0 SWAP1 DUP2 MSTORE PUSH1 0x40 SWAP1 KECCAK256 SLOAD DUP2 JUMP JUMPDEST PUSH1 0x40 MLOAD SWAP1 DUP2 MSTORE PUSH1 0x20 ADD JUMPDEST PUSH1 0x40 MLOAD DUP1 SWAP2 SUB SWAP1 RETURN JUMPDEST PUSH2 0x239 PUSH32 0x0 DUP2 JUMP JUMPDEST PUSH1 0x40 MLOAD PUSH1 0xFF SWAP1 SWAP2 AND DUP2 MSTORE PUSH1 0x20 ADD PUSH2 0x209 JUMP JUMPDEST PUSH2 0x272 PUSH32 0x0 DUP2 JUMP JUMPDEST PUSH1 0x40 MLOAD PUSH1 0x1 PUSH1 0x1 PUSH1 0xA0 SHL SUB SWAP1 SWAP2 AND DUP2 MSTORE PUSH1 0x20 ADD PUSH2 0x209 JUMP JUMPDEST PUSH2 0x29D PUSH2 0x298 CALLDATASIZE PUSH1 0x4 PUSH2 0x1817 JUMP JUMPDEST PUSH2 0x576 JUMP JUMPDEST STOP JUMPDEST PUSH2 0x2DE PUSH2 0x2AD CALLDATASIZE PUSH1 0x4 PUSH2 0x17FE JUMP JUMPDEST PUSH1 0x7 PUSH1 0x20 MSTORE PUSH1 0x0 SWAP1 DUP2 MSTORE PUSH1 0x40 SWAP1 KECCAK256 DUP1 SLOAD PUSH1 0x1 DUP3 ADD SLOAD PUSH1 0x2 DUP4 ADD SLOAD PUSH1 0x3 SWAP1 SWAP4 ADD SLOAD PUSH1 0x1 PUSH1 0x1 PUSH1 0xA0 SHL SUB SWAP1 SWAP3 AND SWAP3 SWAP1 SWAP2 DUP5 JUMP JUMPDEST PUSH1 0x40 DUP1 MLOAD PUSH1 0x1 PUSH1 0x1 PUSH1 0xA0 SHL SUB SWAP1 SWAP6 AND DUP6 MSTORE PUSH1 0x20 DUP6 ADD SWAP4 SWAP1 SWAP4 MSTORE SWAP2 DUP4 ADD MSTORE PUSH1 0x60 DUP3 ADD MSTORE PUSH1 0x80 ADD PUSH2 0x209 JUMP JUMPDEST PUSH2 0x1FF PUSH2 0x316 CALLDATASIZE PUSH1 0x4 PUSH2 0x17FE JUMP JUMPDEST PUSH1 0x4 PUSH1 0x20 MSTORE PUSH1 0x0 SWAP1 DUP2 MSTORE PUSH1 0x40 SWAP1 KECCAK256 SLOAD DUP2 JUMP JUMPDEST PUSH2 0x1FF PUSH2 0x336 CALLDATASIZE PUSH1 0x4 PUSH2 0x1862 JUMP JUMPDEST PUSH2 0x819 JUMP JUMPDEST PUSH2 0x1FF PUSH1 0x6 SLOAD DUP2 JUMP JUMPDEST PUSH2 0x29D PUSH2 0x352 CALLDATASIZE PUSH1 0x4 PUSH2 0x17FE JUMP JUMPDEST PUSH2 0x84A JUMP JUMPDEST PUSH2 0x1FF PUSH32 0x0 DUP2 JUMP JUMPDEST PUSH2 0x29D PUSH2 0x38C CALLDATASIZE PUSH1 0x4 PUSH2 0x188E JUMP JUMPDEST PUSH2 0xA8A JUMP JUMPDEST PUSH2 0x1FF PUSH2 0x39F CALLDATASIZE PUSH1 0x4 PUSH2 0x1862 JUMP JUMPDEST PUSH1 0x2 PUSH1 0x20 SWAP1 DUP2 MSTORE PUSH1 0x0 SWAP3 DUP4 MSTORE PUSH1 0x40 DUP1 DUP5 KECCAK256 SWAP1 SWAP2 MSTORE SWAP1 DUP3 MSTORE SWAP1 KECCAK256 SLOAD DUP2 JUMP JUMPDEST PUSH2 0x29D PUSH2 0xAD6 JUMP JUMPDEST PUSH2 0x1FF PUSH2 0xB27 JUMP JUMPDEST PUSH1 0x0 SLOAD PUSH2 0x272 SWAP1 PUSH1 0x1 PUSH1 0x1 PUSH1 0xA0 SHL SUB AND DUP2 JUMP JUMPDEST PUSH2 0x29D PUSH2 0x3ED CALLDATASIZE PUSH1 0x4 PUSH2 0x17FE JUMP JUMPDEST PUSH2 0xC00 JUMP JUMPDEST PUSH2 0x1FF PUSH2 0x400 CALLDATASIZE PUSH1 0x4 PUSH2 0x195C JUMP JUMPDEST PUSH2 0xC58 JUMP JUMPDEST PUSH2 0x29D PUSH2 0x413 CALLDATASIZE PUSH1 0x4 PUSH2 0x19C0 JUMP JUMPDEST PUSH2 0xE09 JUMP JUMPDEST PUSH2 0x29D PUSH2 0x426 CALLDATASIZE PUSH1 0x4 PUSH2 0x19FD JUMP JUMPDEST PUSH2 0xE4D JUMP JUMPDEST PUSH2 0x29D PUSH2 0xF16 JUMP JUMPDEST PUSH2 0x1FF PUSH2 0x441 CALLDATASIZE PUSH1 0x4 PUSH2 0x1862 JUMP JUMPDEST PUSH2 0x1061 JUMP JUMPDEST PUSH2 0x1FF PUSH32 0x0 DUP2 JUMP JUMPDEST PUSH2 0x476 PUSH2 0x258 DUP2 JUMP JUMPDEST PUSH1 0x40 MLOAD PUSH3 0xFFFFFF SWAP1 SWAP2 AND DUP2 MSTORE PUSH1 0x20 ADD PUSH2 0x209 JUMP JUMPDEST PUSH2 0x272 PUSH32 0x0 DUP2 JUMP JUMPDEST PUSH2 0x272 PUSH32 0x0 DUP2 JUMP JUMPDEST PUSH2 0x239 PUSH32 0x0 DUP2 JUMP JUMPDEST PUSH2 0x1FF PUSH2 0x50D CALLDATASIZE PUSH1 0x4 PUSH2 0x1817 JUMP JUMPDEST PUSH2 0x1086 JUMP JUMPDEST PUSH2 0x1FF PUSH32 0x0 DUP2 JUMP JUMPDEST PUSH2 0x272 PUSH32 0x0 DUP2 JUMP JUMPDEST PUSH2 0x568 PUSH2 0x1150 JUMP JUMPDEST PUSH1 0x40 MLOAD PUSH2 0x209 SWAP3 SWAP2 SWAP1 PUSH2 0x1A1F JUMP JUMPDEST PUSH1 0x0 DUP2 PUSH1 0xFF AND GT DUP1 ISZERO PUSH2 0x5AF JUMPI POP PUSH32 0x0 PUSH1 0xFF AND DUP2 PUSH1 0xFF AND GT ISZERO JUMPDEST PUSH2 0x5F4 JUMPI PUSH1 0x40 MLOAD PUSH3 0x461BCD PUSH1 0xE5 SHL DUP2 MSTORE PUSH1 0x20 PUSH1 0x4 DUP3 ADD MSTORE PUSH1 0x11 PUSH1 0x24 DUP3 ADD MSTORE PUSH17 0x39BA30B5B2903BB2B2B5B99032B93937B9 PUSH1 0x79 SHL PUSH1 0x44 DUP3 ADD MSTORE PUSH1 0x64 ADD JUMPDEST PUSH1 0x40 MLOAD DUP1 SWAP2 SUB SWAP1 REVERT JUMPDEST PUSH1 0x0 PUSH2 0x5FF DUP4 PUSH2 0x12AE JUMP JUMPDEST SWAP1 POP PUSH1 0x0 PUSH2 0x60F PUSH2 0x258 TIMESTAMP PUSH2 0x1A7D JUMP JUMPDEST PUSH2 0x61A SWAP1 PUSH1 0x1 PUSH2 0x1A9F JUMP JUMPDEST SWAP1 POP PUSH1 0x0 PUSH2 0x628 DUP4 DUP6 PUSH2 0x1086 JUMP JUMPDEST SWAP1 POP PUSH1 0x0 JUMPDEST DUP5 PUSH1 0xFF AND DUP2 PUSH1 0xFF AND LT ISZERO PUSH2 0x6C2 JUMPI DUP2 PUSH1 0x4 PUSH1 0x0 PUSH2 0x64D PUSH1 0xFF DUP6 AND DUP8 PUSH2 0x1A9F JUMP JUMPDEST DUP2 MSTORE PUSH1 0x20 ADD SWAP1 DUP2 MSTORE PUSH1 0x20 ADD PUSH1 0x0 KECCAK256 PUSH1 0x0 DUP3 DUP3 SLOAD PUSH2 0x66A SWAP2 SWAP1 PUSH2 0x1A9F JUMP JUMPDEST SWAP1 SWAP2 SSTORE POP POP CALLER PUSH1 0x0 SWAP1 DUP2 MSTORE PUSH1 0x2 PUSH1 0x20 MSTORE PUSH1 0x40 DUP2 KECCAK256 DUP4 SWAP2 PUSH2 0x68D PUSH1 0xFF DUP6 AND DUP8 PUSH2 0x1A9F JUMP JUMPDEST DUP2 MSTORE PUSH1 0x20 ADD SWAP1 DUP2 MSTORE PUSH1 0x20 ADD PUSH1 0x0 KECCAK256 PUSH1 0x0 DUP3 DUP3 SLOAD PUSH2 0x6AA SWAP2 SWAP1 PUSH2 0x1A9F JUMP JUMPDEST SWAP1 SWAP2 SSTORE POP DUP2 SWAP1 POP PUSH2 0x6BA DUP2 PUSH2 0x1AB8 JUMP JUMPDEST SWAP2 POP POP PUSH2 0x62D JUMP JUMPDEST POP PUSH1 0x40 DUP1 MLOAD PUSH1 0x80 DUP2 ADD DUP3 MSTORE CALLER DUP2 MSTORE PUSH1 0x20 DUP2 ADD DUP4 SWAP1 MSTORE SWAP1 DUP2 ADD DUP4 SWAP1 MSTORE PUSH1 0x60 DUP2 ADD PUSH2 0x6EE PUSH1 0xFF DUP8 AND DUP6 PUSH2 0x1A9F JUMP JUMPDEST SWAP1 MSTORE PUSH1 0x0 DUP7 DUP2 MSTORE PUSH1 0x7 PUSH1 0x20 SWAP1 DUP2 MSTORE PUSH1 0x40 DUP1 DUP4 KECCAK256 DUP5 MLOAD DUP2 SLOAD PUSH1 0x1 PUSH1 0x1 PUSH1 0xA0 SHL SUB NOT AND PUSH1 0x1 PUSH1 0x1 PUSH1 0xA0 SHL SUB SWAP1 SWAP2 AND OR DUP2 SSTORE DUP5 DUP4 ADD MLOAD PUSH1 0x1 DUP1 DUP4 ADD SWAP2 SWAP1 SWAP2 SSTORE DUP6 DUP4 ADD MLOAD PUSH1 0x2 DUP4 ADD SSTORE PUSH1 0x60 SWAP1 SWAP6 ADD MLOAD PUSH1 0x3 SWAP2 DUP3 ADD SSTORE CALLER DUP5 MSTORE SWAP1 SWAP2 MSTORE SWAP1 KECCAK256 SWAP1 DUP2 ADD SLOAD SWAP1 SLOAD SUB PUSH2 0x765 JUMPI CALLER PUSH1 0x0 SWAP1 DUP2 MSTORE PUSH1 0x3 PUSH1 0x20 MSTORE PUSH1 0x40 SWAP1 KECCAK256 DUP3 SWAP1 SSTORE JUMPDEST PUSH2 0x772 PUSH1 0xFF DUP6 AND DUP4 PUSH2 0x1A9F JUMP JUMPDEST CALLER PUSH1 0x0 SWAP1 DUP2 MSTORE PUSH1 0x3 PUSH1 0x20 MSTORE PUSH1 0x40 SWAP1 KECCAK256 PUSH1 0x1 ADD SLOAD LT ISZERO PUSH2 0x7AC JUMPI PUSH2 0x798 PUSH1 0xFF DUP6 AND DUP4 PUSH2 0x1A9F JUMP JUMPDEST CALLER PUSH1 0x0 SWAP1 DUP2 MSTORE PUSH1 0x3 PUSH1 0x20 MSTORE PUSH1 0x40 SWAP1 KECCAK256 PUSH1 0x1 ADD SSTORE JUMPDEST CALLER PUSH1 0x0 DUP2 DUP2 MSTORE PUSH1 0x8 PUSH1 0x20 SWAP1 DUP2 MSTORE PUSH1 0x40 DUP1 DUP4 KECCAK256 DUP1 SLOAD PUSH1 0x1 DUP2 ADD DUP3 SSTORE SWAP1 DUP5 MSTORE SWAP3 DUP3 SWAP1 KECCAK256 SWAP1 SWAP3 ADD DUP9 SWAP1 SSTORE DUP2 MLOAD DUP9 DUP2 MSTORE SWAP1 DUP2 ADD DUP7 SWAP1 MSTORE PUSH1 0xFF DUP8 AND DUP2 DUP4 ADD MSTORE SWAP1 MLOAD PUSH32 0x6FA2F6021EE337436CDF2B2570285886DA18BC06402CE284D296504A0FE8F875 SWAP2 DUP2 SWAP1 SUB PUSH1 0x60 ADD SWAP1 LOG2 POP POP POP POP POP JUMP JUMPDEST PUSH1 0x8 PUSH1 0x20 MSTORE DUP2 PUSH1 0x0 MSTORE PUSH1 0x40 PUSH1 0x0 KECCAK256 DUP2 DUP2 SLOAD DUP2 LT PUSH2 0x835 JUMPI PUSH1 0x0 DUP1 REVERT JUMPDEST SWAP1 PUSH1 0x0 MSTORE PUSH1 0x20 PUSH1 0x0 KECCAK256 ADD PUSH1 0x0 SWAP2 POP SWAP2 POP POP SLOAD DUP2 JUMP JUMPDEST PUSH1 0x0 DUP2 DUP2 MSTORE PUSH1 0x7 PUSH1 0x20 MSTORE PUSH1 0x40 SWAP1 KECCAK256 SLOAD PUSH1 0x1 PUSH1 0x1 PUSH1 0xA0 SHL SUB AND CALLER EQ PUSH2 0x8A2 JUMPI PUSH1 0x40 MLOAD PUSH3 0x461BCD PUSH1 0xE5 SHL DUP2 MSTORE PUSH1 0x20 PUSH1 0x4 DUP3 ADD MSTORE PUSH1 0xF PUSH1 0x24 DUP3 ADD MSTORE PUSH15 0x37BBB732B9103337B93134B23232B7 PUSH1 0x89 SHL PUSH1 0x44 DUP3 ADD MSTORE PUSH1 0x64 ADD PUSH2 0x5EB JUMP JUMPDEST PUSH1 0x0 PUSH2 0x8B0 PUSH2 0x258 TIMESTAMP PUSH2 0x1A7D JUMP JUMPDEST PUSH1 0x0 DUP4 DUP2 MSTORE PUSH1 0x7 PUSH1 0x20 MSTORE PUSH1 0x40 SWAP1 KECCAK256 PUSH1 0x3 ADD SLOAD SWAP1 SWAP2 POP DUP2 LT ISZERO PUSH2 0x902 JUMPI PUSH1 0x40 MLOAD PUSH3 0x461BCD PUSH1 0xE5 SHL DUP2 MSTORE PUSH1 0x20 PUSH1 0x4 DUP3 ADD MSTORE PUSH1 0xB PUSH1 0x24 DUP3 ADD MSTORE PUSH11 0x6C6F636B65642074696D65 PUSH1 0xA8 SHL PUSH1 0x44 DUP3 ADD MSTORE PUSH1 0x64 ADD PUSH2 0x5EB JUMP JUMPDEST CALLER PUSH1 0x0 SWAP1 DUP2 MSTORE PUSH1 0x8 PUSH1 0x20 MSTORE PUSH1 0x40 DUP2 KECCAK256 SWAP1 JUMPDEST DUP2 SLOAD DUP2 LT ISZERO PUSH2 0xA4F JUMPI DUP2 DUP2 DUP2 SLOAD DUP2 LT PUSH2 0x92E JUMPI PUSH2 0x92E PUSH2 0x1AD7 JUMP JUMPDEST SWAP1 PUSH1 0x0 MSTORE PUSH1 0x20 PUSH1 0x0 KECCAK256 ADD SLOAD DUP5 SUB PUSH2 0xA3D JUMPI DUP2 SLOAD DUP3 SWAP1 PUSH2 0x94F SWAP1 PUSH1 0x1 SWAP1 PUSH2 0x1AED JUMP JUMPDEST DUP2 SLOAD DUP2 LT PUSH2 0x95F JUMPI PUSH2 0x95F PUSH2 0x1AD7 JUMP JUMPDEST SWAP1 PUSH1 0x0 MSTORE PUSH1 0x20 PUSH1 0x0 KECCAK256 ADD SLOAD DUP3 DUP3 DUP2 SLOAD DUP2 LT PUSH2 0x97C JUMPI PUSH2 0x97C PUSH2 0x1AD7 JUMP JUMPDEST SWAP1 PUSH1 0x0 MSTORE PUSH1 0x20 PUSH1 0x0 KECCAK256 ADD DUP2 SWAP1 SSTORE POP DUP2 DUP1 SLOAD DUP1 PUSH2 0x99A JUMPI PUSH2 0x99A PUSH2 0x1B00 JUMP JUMPDEST PUSH1 0x0 DUP3 DUP2 MSTORE PUSH1 0x20 DUP2 KECCAK256 DUP3 ADD PUSH1 0x0 NOT SWAP1 DUP2 ADD SWAP2 SWAP1 SWAP2 SSTORE ADD SWAP1 SSTORE PUSH1 0x40 MLOAD PUSH4 0x21421707 PUSH1 0xE1 SHL DUP2 MSTORE ADDRESS PUSH1 0x4 DUP3 ADD MSTORE CALLER PUSH1 0x24 DUP3 ADD MSTORE PUSH1 0x44 DUP2 ADD DUP6 SWAP1 MSTORE PUSH1 0x1 PUSH1 0x1 PUSH1 0xA0 SHL SUB PUSH32 0x0 AND SWAP1 PUSH4 0x42842E0E SWAP1 PUSH1 0x64 ADD PUSH1 0x0 PUSH1 0x40 MLOAD DUP1 DUP4 SUB DUP2 PUSH1 0x0 DUP8 DUP1 EXTCODESIZE ISZERO DUP1 ISZERO PUSH2 0xA20 JUMPI PUSH1 0x0 DUP1 REVERT JUMPDEST POP GAS CALL ISZERO DUP1 ISZERO PUSH2 0xA34 JUMPI RETURNDATASIZE PUSH1 0x0 DUP1 RETURNDATACOPY RETURNDATASIZE PUSH1 0x0 REVERT JUMPDEST POP POP POP POP PUSH2 0xA4F JUMP JUMPDEST DUP1 PUSH2 0xA47 DUP2 PUSH2 0x1B16 JUMP JUMPDEST SWAP2 POP POP PUSH2 0x913 JUMP JUMPDEST POP PUSH1 0x40 MLOAD DUP4 DUP2 MSTORE CALLER SWAP1 PUSH32 0x884EDAD9CE6FA2440D8A54CC123490EB96D2768479D49FF9C7366125A9424364 SWAP1 PUSH1 0x20 ADD PUSH1 0x40 MLOAD DUP1 SWAP2 SUB SWAP1 LOG2 POP POP POP JUMP JUMPDEST PUSH1 0x0 SLOAD PUSH1 0x1 PUSH1 0x1 PUSH1 0xA0 SHL SUB AND CALLER EQ PUSH2 0xAB4 JUMPI PUSH1 0x40 MLOAD PUSH3 0x461BCD PUSH1 0xE5 SHL DUP2 MSTORE PUSH1 0x4 ADD PUSH2 0x5EB SWAP1 PUSH2 0x1B2F JUMP JUMPDEST PUSH1 0x1 DUP1 SLOAD PUSH1 0x1 PUSH1 0x1 PUSH1 0xA0 SHL SUB NOT AND PUSH1 0x1 PUSH1 0x1 PUSH1 0xA0 SHL SUB SWAP3 SWAP1 SWAP3 AND SWAP2 SWAP1 SWAP2 OR SWAP1 SSTORE JUMP JUMPDEST PUSH1 0x1 SLOAD PUSH1 0x1 PUSH1 0x1 PUSH1 0xA0 SHL SUB AND CALLER EQ PUSH2 0xB00 JUMPI PUSH1 0x40 MLOAD PUSH3 0x461BCD PUSH1 0xE5 SHL DUP2 MSTORE PUSH1 0x4 ADD PUSH2 0x5EB SWAP1 PUSH2 0x1B2F JUMP JUMPDEST PUSH1 0x1 DUP1 SLOAD PUSH1 0x0 DUP1 SLOAD PUSH1 0x1 PUSH1 0x1 PUSH1 0xA0 SHL SUB NOT SWAP1 DUP2 AND PUSH1 0x1 PUSH1 0x1 PUSH1 0xA0 SHL SUB DUP5 AND OR SWAP1 SWAP2 SSTORE AND SWAP1 SSTORE JUMP JUMPDEST PUSH1 0x0 DUP1 PUSH1 0xFF PUSH32 0x0 AND PUSH2 0xB5A PUSH2 0x258 TIMESTAMP PUSH2 0x1A7D JUMP JUMPDEST PUSH2 0xB64 SWAP2 SWAP1 PUSH2 0x1AED JUMP JUMPDEST CALLER PUSH1 0x0 SWAP1 DUP2 MSTORE PUSH1 0x3 PUSH1 0x20 MSTORE PUSH1 0x40 DUP2 KECCAK256 SLOAD SWAP2 SWAP3 POP SWAP1 JUMPDEST CALLER PUSH1 0x0 SWAP1 DUP2 MSTORE PUSH1 0x3 PUSH1 0x20 MSTORE PUSH1 0x40 SWAP1 KECCAK256 PUSH1 0x1 ADD SLOAD DUP2 LT ISZERO PUSH2 0xBF9 JUMPI DUP3 DUP2 GT PUSH2 0xBF9 JUMPI PUSH1 0x0 DUP2 DUP2 MSTORE PUSH1 0x4 PUSH1 0x20 SWAP1 DUP2 MSTORE PUSH1 0x40 DUP1 DUP4 KECCAK256 SLOAD CALLER DUP5 MSTORE PUSH1 0x2 DUP4 MSTORE DUP2 DUP5 KECCAK256 DUP6 DUP6 MSTORE DUP4 MSTORE DUP2 DUP5 KECCAK256 SLOAD PUSH1 0x5 SWAP1 SWAP4 MSTORE SWAP3 KECCAK256 SLOAD PUSH2 0xBD1 SWAP2 SWAP1 PUSH2 0x1B52 JUMP JUMPDEST PUSH2 0xBDB SWAP2 SWAP1 PUSH2 0x1A7D JUMP JUMPDEST PUSH2 0xBE5 SWAP1 DUP4 PUSH2 0x1A9F JUMP JUMPDEST SWAP2 POP DUP1 PUSH2 0xBF1 DUP2 PUSH2 0x1B16 JUMP JUMPDEST SWAP2 POP POP PUSH2 0xB79 JUMP JUMPDEST POP SWAP3 SWAP2 POP POP JUMP JUMPDEST PUSH1 0x0 SLOAD PUSH1 0x1 PUSH1 0x1 PUSH1 0xA0 SHL SUB AND CALLER EQ PUSH2 0xC2A JUMPI PUSH1 0x40 MLOAD PUSH3 0x461BCD PUSH1 0xE5 SHL DUP2 MSTORE PUSH1 0x4 ADD PUSH2 0x5EB SWAP1 PUSH2 0x1B2F JUMP JUMPDEST PUSH2 0xC55 PUSH32 0x0 CALLER DUP4 PUSH2 0x15D7 JUMP JUMPDEST POP JUMP JUMPDEST PUSH1 0x0 DUP1 SLOAD PUSH1 0x1 PUSH1 0x1 PUSH1 0xA0 SHL SUB AND CALLER EQ PUSH2 0xC83 JUMPI PUSH1 0x40 MLOAD PUSH3 0x461BCD PUSH1 0xE5 SHL DUP2 MSTORE PUSH1 0x4 ADD PUSH2 0x5EB SWAP1 PUSH2 0x1B2F JUMP JUMPDEST DUP2 MLOAD DUP4 MLOAD EQ PUSH2 0xCC7 JUMPI PUSH1 0x40 MLOAD PUSH3 0x461BCD PUSH1 0xE5 SHL DUP2 MSTORE PUSH1 0x20 PUSH1 0x4 DUP3 ADD MSTORE PUSH1 0x10 PUSH1 0x24 DUP3 ADD MSTORE PUSH16 0x3830B930B6B2BA32B9399032B93937B9 PUSH1 0x81 SHL PUSH1 0x44 DUP3 ADD MSTORE PUSH1 0x64 ADD PUSH2 0x5EB JUMP JUMPDEST PUSH1 0x0 JUMPDEST DUP4 MLOAD DUP2 LT ISZERO PUSH2 0xD9A JUMPI DUP3 DUP2 DUP2 MLOAD DUP2 LT PUSH2 0xCE5 JUMPI PUSH2 0xCE5 PUSH2 0x1AD7 JUMP JUMPDEST PUSH1 0x20 MUL PUSH1 0x20 ADD ADD MLOAD DUP3 PUSH2 0xCF8 SWAP2 SWAP1 PUSH2 0x1A9F JUMP JUMPDEST SWAP2 POP DUP3 DUP2 DUP2 MLOAD DUP2 LT PUSH2 0xD0C JUMPI PUSH2 0xD0C PUSH2 0x1AD7 JUMP JUMPDEST PUSH1 0x20 MUL PUSH1 0x20 ADD ADD MLOAD PUSH1 0x5 PUSH1 0x0 DUP7 DUP5 DUP2 MLOAD DUP2 LT PUSH2 0xD2A JUMPI PUSH2 0xD2A PUSH2 0x1AD7 JUMP JUMPDEST PUSH1 0x20 MUL PUSH1 0x20 ADD ADD MLOAD DUP2 MSTORE PUSH1 0x20 ADD SWAP1 DUP2 MSTORE PUSH1 0x20 ADD PUSH1 0x0 KECCAK256 DUP2 SWAP1 SSTORE POP PUSH1 0x6 SLOAD DUP5 DUP3 DUP2 MLOAD DUP2 LT PUSH2 0xD59 JUMPI PUSH2 0xD59 PUSH2 0x1AD7 JUMP JUMPDEST PUSH1 0x20 MUL PUSH1 0x20 ADD ADD MLOAD GT ISZERO PUSH2 0xD88 JUMPI DUP4 DUP2 DUP2 MLOAD DUP2 LT PUSH2 0xD79 JUMPI PUSH2 0xD79 PUSH2 0x1AD7 JUMP JUMPDEST PUSH1 0x20 MUL PUSH1 0x20 ADD ADD MLOAD PUSH1 0x6 DUP2 SWAP1 SSTORE POP JUMPDEST DUP1 PUSH2 0xD92 DUP2 PUSH2 0x1B16 JUMP JUMPDEST SWAP2 POP POP PUSH2 0xCCA JUMP JUMPDEST POP PUSH2 0xDC7 PUSH32 0x0 CALLER ADDRESS DUP5 PUSH2 0x16E4 JUMP JUMPDEST PUSH1 0x40 DUP1 MLOAD PUSH1 0x0 DUP2 MSTORE PUSH1 0x20 DUP2 ADD DUP4 SWAP1 MSTORE CALLER SWAP2 PUSH32 0xC3991418CACD70A010FCE559A44FCBB47534CA43BF7543964BDCA2639F6E6E5A SWAP2 ADD PUSH1 0x40 MLOAD DUP1 SWAP2 SUB SWAP1 LOG2 SWAP3 SWAP2 POP POP JUMP JUMPDEST PUSH1 0x0 JUMPDEST DUP2 MLOAD DUP2 LT ISZERO PUSH2 0xE49 JUMPI PUSH2 0xE37 DUP3 DUP3 DUP2 MLOAD DUP2 LT PUSH2 0xE2A JUMPI PUSH2 0xE2A PUSH2 0x1AD7 JUMP JUMPDEST PUSH1 0x20 MUL PUSH1 0x20 ADD ADD MLOAD PUSH2 0x84A JUMP JUMPDEST DUP1 PUSH2 0xE41 DUP2 PUSH2 0x1B16 JUMP JUMPDEST SWAP2 POP POP PUSH2 0xE0C JUMP JUMPDEST POP POP JUMP JUMPDEST PUSH1 0x0 SLOAD PUSH1 0x1 PUSH1 0x1 PUSH1 0xA0 SHL SUB AND CALLER EQ PUSH2 0xE77 JUMPI PUSH1 0x40 MLOAD PUSH3 0x461BCD PUSH1 0xE5 SHL DUP2 MSTORE PUSH1 0x4 ADD PUSH2 0x5EB SWAP1 PUSH2 0x1B2F JUMP JUMPDEST PUSH2 0xEA3 PUSH32 0x0 CALLER ADDRESS DUP5 PUSH2 0x16E4 JUMP JUMPDEST PUSH1 0x0 DUP3 DUP2 MSTORE PUSH1 0x5 PUSH1 0x20 MSTORE PUSH1 0x40 DUP2 KECCAK256 DUP1 SLOAD DUP4 SWAP3 SWAP1 PUSH2 0xEC1 SWAP1 DUP5 SWAP1 PUSH2 0x1A9F JUMP JUMPDEST SWAP1 SWAP2 SSTORE POP POP PUSH1 0x6 SLOAD DUP3 GT ISZERO PUSH2 0xED6 JUMPI PUSH1 0x6 DUP3 SWAP1 SSTORE JUMPDEST PUSH1 0x40 DUP1 MLOAD DUP4 DUP2 MSTORE PUSH1 0x20 DUP2 ADD DUP4 SWAP1 MSTORE CALLER SWAP2 PUSH32 0xC3991418CACD70A010FCE559A44FCBB47534CA43BF7543964BDCA2639F6E6E5A SWAP2 ADD JUMPDEST PUSH1 0x40 MLOAD DUP1 SWAP2 SUB SWAP1 LOG2 POP POP JUMP JUMPDEST PUSH1 0x0 PUSH1 0xFF PUSH32 0x0 AND PUSH2 0xF48 PUSH2 0x258 TIMESTAMP PUSH2 0x1A7D JUMP JUMPDEST PUSH2 0xF52 SWAP2 SWAP1 PUSH2 0x1AED JUMP JUMPDEST CALLER PUSH1 0x0 SWAP1 DUP2 MSTORE PUSH1 0x3 PUSH1 0x20 MSTORE PUSH1 0x40 DUP2 KECCAK256 SLOAD SWAP2 SWAP3 POP SWAP1 JUMPDEST CALLER PUSH1 0x0 SWAP1 DUP2 MSTORE PUSH1 0x3 PUSH1 0x20 MSTORE PUSH1 0x40 SWAP1 KECCAK256 PUSH1 0x1 ADD SLOAD DUP2 LT ISZERO PUSH2 0x1003 JUMPI DUP3 DUP2 GT PUSH2 0x1003 JUMPI PUSH2 0xF93 DUP2 PUSH1 0x1 PUSH2 0x1A9F JUMP JUMPDEST CALLER PUSH1 0x0 SWAP1 DUP2 MSTORE PUSH1 0x3 PUSH1 0x20 MSTORE PUSH1 0x40 DUP2 KECCAK256 ADD SSTORE PUSH1 0x0 DUP2 DUP2 MSTORE PUSH1 0x4 PUSH1 0x20 SWAP1 DUP2 MSTORE PUSH1 0x40 DUP1 DUP4 KECCAK256 SLOAD CALLER DUP5 MSTORE PUSH1 0x2 DUP4 MSTORE DUP2 DUP5 KECCAK256 DUP6 DUP6 MSTORE DUP4 MSTORE DUP2 DUP5 KECCAK256 SLOAD PUSH1 0x5 SWAP1 SWAP4 MSTORE SWAP3 KECCAK256 SLOAD PUSH2 0xFDB SWAP2 SWAP1 PUSH2 0x1B52 JUMP JUMPDEST PUSH2 0xFE5 SWAP2 SWAP1 PUSH2 0x1A7D JUMP JUMPDEST PUSH2 0xFEF SWAP1 DUP4 PUSH2 0x1A9F JUMP JUMPDEST SWAP2 POP DUP1 PUSH2 0xFFB DUP2 PUSH2 0x1B16 JUMP JUMPDEST SWAP2 POP POP PUSH2 0xF67 JUMP JUMPDEST POP PUSH2 0x102F PUSH32 0x0 CALLER DUP4 PUSH2 0x15D7 JUMP JUMPDEST PUSH1 0x40 MLOAD DUP2 DUP2 MSTORE CALLER SWAP1 PUSH32 0xBA8DE60C3403EC381D1D484652EA1980E3C3E56359195C92525BFF4CE47AD98E SWAP1 PUSH1 0x20 ADD PUSH2 0xF0A JUMP JUMPDEST PUSH1 0x3 PUSH1 0x20 MSTORE DUP2 PUSH1 0x0 MSTORE PUSH1 0x40 PUSH1 0x0 KECCAK256 DUP2 PUSH1 0x2 DUP2 LT PUSH2 0x107D JUMPI PUSH1 0x0 DUP1 REVERT JUMPDEST ADD SLOAD SWAP2 POP DUP3 SWAP1 POP JUMP JUMPDEST PUSH1 0x0 PUSH2 0x10B3 PUSH1 0x1 PUSH32 0x0 PUSH2 0x1B69 JUMP JUMPDEST PUSH1 0xFF AND PUSH1 0x1 PUSH32 0x0 PUSH1 0xFF AND PUSH1 0x1 DUP6 PUSH2 0x10E9 SWAP2 SWAP1 PUSH2 0x1B69 JUMP JUMPDEST PUSH1 0xFF AND PUSH2 0x1117 PUSH1 0x1 PUSH32 0x0 PUSH2 0x1AED JUMP JUMPDEST PUSH2 0x1121 SWAP2 SWAP1 PUSH2 0x1B52 JUMP JUMPDEST PUSH2 0x112B SWAP2 SWAP1 PUSH2 0x1A9F JUMP JUMPDEST PUSH2 0x1135 SWAP2 SWAP1 PUSH2 0x1AED JUMP JUMPDEST PUSH2 0x113F SWAP1 DUP6 PUSH2 0x1B52 JUMP JUMPDEST PUSH2 0x1149 SWAP2 SWAP1 PUSH2 0x1A7D JUMP JUMPDEST SWAP4 SWAP3 POP POP POP JUMP JUMPDEST CALLER PUSH1 0x0 SWAP1 DUP2 MSTORE PUSH1 0x8 PUSH1 0x20 MSTORE PUSH1 0x40 DUP2 KECCAK256 SLOAD PUSH1 0x60 SWAP2 SWAP1 DUP2 SWAP1 PUSH8 0xFFFFFFFFFFFFFFFF DUP2 GT ISZERO PUSH2 0x117E JUMPI PUSH2 0x117E PUSH2 0x18AB JUMP JUMPDEST PUSH1 0x40 MLOAD SWAP1 DUP1 DUP3 MSTORE DUP1 PUSH1 0x20 MUL PUSH1 0x20 ADD DUP3 ADD PUSH1 0x40 MSTORE DUP1 ISZERO PUSH2 0x11A7 JUMPI DUP2 PUSH1 0x20 ADD PUSH1 0x20 DUP3 MUL DUP1 CALLDATASIZE DUP4 CALLDATACOPY ADD SWAP1 POP JUMPDEST POP SWAP1 POP PUSH1 0x0 PUSH2 0x11B8 PUSH2 0x258 TIMESTAMP PUSH2 0x1A7D JUMP JUMPDEST CALLER PUSH1 0x0 SWAP1 DUP2 MSTORE PUSH1 0x8 PUSH1 0x20 MSTORE PUSH1 0x40 DUP2 KECCAK256 SLOAD SWAP2 SWAP3 POP SWAP1 DUP2 JUMPDEST CALLER PUSH1 0x0 SWAP1 DUP2 MSTORE PUSH1 0x8 PUSH1 0x20 MSTORE PUSH1 0x40 SWAP1 KECCAK256 SLOAD DUP2 LT ISZERO PUSH2 0x12A1 JUMPI CALLER PUSH1 0x0 SWAP1 DUP2 MSTORE PUSH1 0x8 PUSH1 0x20 MSTORE PUSH1 0x40 DUP2 KECCAK256 DUP1 SLOAD DUP4 SWAP1 DUP2 LT PUSH2 0x1206 JUMPI PUSH2 0x1206 PUSH2 0x1AD7 JUMP JUMPDEST SWAP1 PUSH1 0x0 MSTORE PUSH1 0x20 PUSH1 0x0 KECCAK256 ADD SLOAD SWAP1 POP DUP5 PUSH1 0x7 PUSH1 0x0 DUP4 DUP2 MSTORE PUSH1 0x20 ADD SWAP1 DUP2 MSTORE PUSH1 0x20 ADD PUSH1 0x0 KECCAK256 PUSH1 0x3 ADD SLOAD GT ISZERO PUSH2 0x1261 JUMPI DUP1 DUP7 DUP6 DUP2 MLOAD DUP2 LT PUSH2 0x1244 JUMPI PUSH2 0x1244 PUSH2 0x1AD7 JUMP JUMPDEST PUSH1 0x20 SWAP1 DUP2 MUL SWAP2 SWAP1 SWAP2 ADD ADD MSTORE DUP4 PUSH2 0x1259 DUP2 PUSH2 0x1B16 JUMP JUMPDEST SWAP5 POP POP PUSH2 0x128E JUMP JUMPDEST DUP3 PUSH2 0x126B DUP2 PUSH2 0x1B82 JUMP JUMPDEST SWAP4 POP POP DUP1 DUP7 DUP5 DUP2 MLOAD DUP2 LT PUSH2 0x1281 JUMPI PUSH2 0x1281 PUSH2 0x1AD7 JUMP JUMPDEST PUSH1 0x20 MUL PUSH1 0x20 ADD ADD DUP2 DUP2 MSTORE POP POP JUMPDEST POP DUP1 PUSH2 0x1299 DUP2 PUSH2 0x1B16 JUMP JUMPDEST SWAP2 POP POP PUSH2 0x11CE JUMP JUMPDEST POP SWAP3 SWAP6 SWAP3 SWAP5 POP SWAP2 SWAP3 POP POP POP JUMP JUMPDEST PUSH1 0x0 DUP1 PUSH1 0x0 DUP1 PUSH1 0x0 DUP1 PUSH32 0x0 PUSH1 0x1 PUSH1 0x1 PUSH1 0xA0 SHL SUB AND PUSH4 0x99FBAB88 DUP9 PUSH1 0x40 MLOAD DUP3 PUSH4 0xFFFFFFFF AND PUSH1 0xE0 SHL DUP2 MSTORE PUSH1 0x4 ADD PUSH2 0x1305 SWAP2 DUP2 MSTORE PUSH1 0x20 ADD SWAP1 JUMP JUMPDEST PUSH2 0x180 PUSH1 0x40 MLOAD DUP1 DUP4 SUB DUP2 DUP7 GAS STATICCALL ISZERO DUP1 ISZERO PUSH2 0x1323 JUMPI RETURNDATASIZE PUSH1 0x0 DUP1 RETURNDATACOPY RETURNDATASIZE PUSH1 0x0 REVERT JUMPDEST POP POP POP POP PUSH1 0x40 MLOAD RETURNDATASIZE PUSH1 0x1F NOT PUSH1 0x1F DUP3 ADD AND DUP3 ADD DUP1 PUSH1 0x40 MSTORE POP DUP2 ADD SWAP1 PUSH2 0x1347 SWAP2 SWAP1 PUSH2 0x1BE5 JUMP JUMPDEST POP POP POP POP SWAP8 POP SWAP8 POP SWAP8 POP POP SWAP7 POP SWAP7 POP POP POP PUSH32 0x0 PUSH1 0x1 PUSH1 0x1 PUSH1 0xA0 SHL SUB AND DUP6 PUSH1 0x1 PUSH1 0x1 PUSH1 0xA0 SHL SUB AND EQ DUP1 ISZERO PUSH2 0x13CA JUMPI POP PUSH32 0x0 PUSH1 0x1 PUSH1 0x1 PUSH1 0xA0 SHL SUB AND DUP5 PUSH1 0x1 PUSH1 0x1 PUSH1 0xA0 SHL SUB AND EQ JUMPDEST PUSH2 0x1406 JUMPI PUSH1 0x40 MLOAD PUSH3 0x461BCD PUSH1 0xE5 SHL DUP2 MSTORE PUSH1 0x20 PUSH1 0x4 DUP3 ADD MSTORE PUSH1 0xD PUSH1 0x24 DUP3 ADD MSTORE PUSH13 0x3638103830B4B91032B93937B9 PUSH1 0x99 SHL PUSH1 0x44 DUP3 ADD MSTORE PUSH1 0x64 ADD PUSH2 0x5EB JUMP JUMPDEST PUSH1 0x2 DUP4 SWAP1 SIGNEXTEND PUSH3 0xD89E7 NOT EQ DUP1 ISZERO PUSH2 0x142E JUMPI POP PUSH2 0x1425 PUSH3 0xD89E7 NOT PUSH2 0x1CC6 JUMP JUMPDEST PUSH1 0x2 SIGNEXTEND DUP3 PUSH1 0x2 SIGNEXTEND EQ JUMPDEST PUSH2 0x146D JUMPI PUSH1 0x40 MLOAD PUSH3 0x461BCD PUSH1 0xE5 SHL DUP2 MSTORE PUSH1 0x20 PUSH1 0x4 DUP3 ADD MSTORE PUSH1 0x10 PUSH1 0x24 DUP3 ADD MSTORE PUSH16 0x3A34B1B5903930B733B29032B93937B9 PUSH1 0x81 SHL PUSH1 0x44 DUP3 ADD MSTORE PUSH1 0x64 ADD PUSH2 0x5EB JUMP JUMPDEST PUSH1 0x40 MLOAD PUSH4 0x20604BF PUSH1 0xE2 SHL DUP2 MSTORE PUSH1 0x4 DUP2 ADD DUP9 SWAP1 MSTORE ADDRESS SWAP1 PUSH1 0x1 PUSH1 0x1 PUSH1 0xA0 SHL SUB PUSH32 0x0 AND SWAP1 PUSH4 0x81812FC SWAP1 PUSH1 0x24 ADD PUSH1 0x20 PUSH1 0x40 MLOAD DUP1 DUP4 SUB DUP2 DUP7 GAS STATICCALL ISZERO DUP1 ISZERO PUSH2 0x14D4 JUMPI RETURNDATASIZE PUSH1 0x0 DUP1 RETURNDATACOPY RETURNDATASIZE PUSH1 0x0 REVERT JUMPDEST POP POP POP POP PUSH1 0x40 MLOAD RETURNDATASIZE PUSH1 0x1F NOT PUSH1 0x1F DUP3 ADD AND DUP3 ADD DUP1 PUSH1 0x40 MSTORE POP DUP2 ADD SWAP1 PUSH2 0x14F8 SWAP2 SWAP1 PUSH2 0x1CE8 JUMP JUMPDEST PUSH1 0x1 PUSH1 0x1 PUSH1 0xA0 SHL SUB AND EQ PUSH2 0x153C JUMPI PUSH1 0x40 MLOAD PUSH3 0x461BCD PUSH1 0xE5 SHL DUP2 MSTORE PUSH1 0x20 PUSH1 0x4 DUP3 ADD MSTORE PUSH1 0xB PUSH1 0x24 DUP3 ADD MSTORE PUSH11 0x6E6F7420617070726F7665 PUSH1 0xA8 SHL PUSH1 0x44 DUP3 ADD MSTORE PUSH1 0x64 ADD PUSH2 0x5EB JUMP JUMPDEST PUSH1 0x40 MLOAD PUSH4 0x21421707 PUSH1 0xE1 SHL DUP2 MSTORE CALLER PUSH1 0x4 DUP3 ADD MSTORE ADDRESS PUSH1 0x24 DUP3 ADD MSTORE PUSH1 0x44 DUP2 ADD DUP9 SWAP1 MSTORE PUSH32 0x0 PUSH1 0x1 PUSH1 0x1 PUSH1 0xA0 SHL SUB AND SWAP1 PUSH4 0x42842E0E SWAP1 PUSH1 0x64 ADD PUSH1 0x0 PUSH1 0x40 MLOAD DUP1 DUP4 SUB DUP2 PUSH1 0x0 DUP8 DUP1 EXTCODESIZE ISZERO DUP1 ISZERO PUSH2 0x15AA JUMPI PUSH1 0x0 DUP1 REVERT JUMPDEST POP GAS CALL ISZERO DUP1 ISZERO PUSH2 0x15BE JUMPI RETURNDATASIZE PUSH1 0x0 DUP1 RETURNDATACOPY RETURNDATASIZE PUSH1 0x0 REVERT JUMPDEST POP POP PUSH1 0x1 PUSH1 0x1 PUSH1 0x80 SHL SUB SWAP1 SWAP3 AND SWAP9 SWAP8 POP POP POP POP POP POP POP POP JUMP JUMPDEST PUSH1 0x40 DUP1 MLOAD PUSH1 0x1 PUSH1 0x1 PUSH1 0xA0 SHL SUB DUP5 DUP2 AND PUSH1 0x24 DUP4 ADD MSTORE PUSH1 0x44 DUP1 DUP4 ADD DUP6 SWAP1 MSTORE DUP4 MLOAD DUP1 DUP5 SUB SWAP1 SWAP2 ADD DUP2 MSTORE PUSH1 0x64 SWAP1 SWAP3 ADD DUP4 MSTORE PUSH1 0x20 DUP3 ADD DUP1 MLOAD PUSH1 0x1 PUSH1 0x1 PUSH1 0xE0 SHL SUB AND PUSH4 0xA9059CBB PUSH1 0xE0 SHL OR SWAP1 MSTORE SWAP2 MLOAD PUSH1 0x0 SWAP3 DUP4 SWAP3 SWAP1 DUP8 AND SWAP2 PUSH2 0x1633 SWAP2 SWAP1 PUSH2 0x1D05 JUMP JUMPDEST PUSH1 0x0 PUSH1 0x40 MLOAD DUP1 DUP4 SUB DUP2 PUSH1 0x0 DUP7 GAS CALL SWAP2 POP POP RETURNDATASIZE DUP1 PUSH1 0x0 DUP2 EQ PUSH2 0x1670 JUMPI PUSH1 0x40 MLOAD SWAP2 POP PUSH1 0x1F NOT PUSH1 0x3F RETURNDATASIZE ADD AND DUP3 ADD PUSH1 0x40 MSTORE RETURNDATASIZE DUP3 MSTORE RETURNDATASIZE PUSH1 0x0 PUSH1 0x20 DUP5 ADD RETURNDATACOPY PUSH2 0x1675 JUMP JUMPDEST PUSH1 0x60 SWAP2 POP JUMPDEST POP SWAP2 POP SWAP2 POP DUP2 DUP1 ISZERO PUSH2 0x169F JUMPI POP DUP1 MLOAD ISZERO DUP1 PUSH2 0x169F JUMPI POP DUP1 DUP1 PUSH1 0x20 ADD SWAP1 MLOAD DUP2 ADD SWAP1 PUSH2 0x169F SWAP2 SWAP1 PUSH2 0x1D34 JUMP JUMPDEST PUSH2 0x16DD JUMPI PUSH1 0x40 MLOAD PUSH3 0x461BCD PUSH1 0xE5 SHL DUP2 MSTORE PUSH1 0x20 PUSH1 0x4 DUP3 ADD MSTORE PUSH1 0xF PUSH1 0x24 DUP3 ADD MSTORE PUSH15 0x1514905394D1915497D19052531151 PUSH1 0x8A SHL PUSH1 0x44 DUP3 ADD MSTORE PUSH1 0x64 ADD PUSH2 0x5EB JUMP JUMPDEST POP POP POP POP POP JUMP JUMPDEST PUSH1 0x40 DUP1 MLOAD PUSH1 0x1 PUSH1 0x1 PUSH1 0xA0 SHL SUB DUP6 DUP2 AND PUSH1 0x24 DUP4 ADD MSTORE DUP5 DUP2 AND PUSH1 0x44 DUP4 ADD MSTORE PUSH1 0x64 DUP1 DUP4 ADD DUP6 SWAP1 MSTORE DUP4 MLOAD DUP1 DUP5 SUB SWAP1 SWAP2 ADD DUP2 MSTORE PUSH1 0x84 SWAP1 SWAP3 ADD DUP4 MSTORE PUSH1 0x20 DUP3 ADD DUP1 MLOAD PUSH1 0x1 PUSH1 0x1 PUSH1 0xE0 SHL SUB AND PUSH4 0x23B872DD PUSH1 0xE0 SHL OR SWAP1 MSTORE SWAP2 MLOAD PUSH1 0x0 SWAP3 DUP4 SWAP3 SWAP1 DUP9 AND SWAP2 PUSH2 0x1748 SWAP2 SWAP1 PUSH2 0x1D05 JUMP JUMPDEST PUSH1 0x0 PUSH1 0x40 MLOAD DUP1 DUP4 SUB DUP2 PUSH1 0x0 DUP7 GAS CALL SWAP2 POP POP RETURNDATASIZE DUP1 PUSH1 0x0 DUP2 EQ PUSH2 0x1785 JUMPI PUSH1 0x40 MLOAD SWAP2 POP PUSH1 0x1F NOT PUSH1 0x3F RETURNDATASIZE ADD AND DUP3 ADD PUSH1 0x40 MSTORE RETURNDATASIZE DUP3 MSTORE RETURNDATASIZE PUSH1 0x0 PUSH1 0x20 DUP5 ADD RETURNDATACOPY PUSH2 0x178A JUMP JUMPDEST PUSH1 0x60 SWAP2 POP JUMPDEST POP SWAP2 POP SWAP2 POP DUP2 DUP1 ISZERO PUSH2 0x17B4 JUMPI POP DUP1 MLOAD ISZERO DUP1 PUSH2 0x17B4 JUMPI POP DUP1 DUP1 PUSH1 0x20 ADD SWAP1 MLOAD DUP2 ADD SWAP1 PUSH2 0x17B4 SWAP2 SWAP1 PUSH2 0x1D34 JUMP JUMPDEST PUSH2 0x17F6 JUMPI PUSH1 0x40 MLOAD PUSH3 0x461BCD PUSH1 0xE5 SHL DUP2 MSTORE PUSH1 0x20 PUSH1 0x4 DUP3 ADD MSTORE PUSH1 0x13 PUSH1 0x24 DUP3 ADD MSTORE PUSH19 0x1D1C985B9CD9995C919C9BDB4819985A5B1959 PUSH1 0x6A SHL PUSH1 0x44 DUP3 ADD MSTORE PUSH1 0x64 ADD PUSH2 0x5EB JUMP JUMPDEST POP POP POP POP POP POP JUMP JUMPDEST PUSH1 0x0 PUSH1 0x20 DUP3 DUP5 SUB SLT ISZERO PUSH2 0x1810 JUMPI PUSH1 0x0 DUP1 REVERT JUMPDEST POP CALLDATALOAD SWAP2 SWAP1 POP JUMP JUMPDEST PUSH1 0x0 DUP1 PUSH1 0x40 DUP4 DUP6 SUB SLT ISZERO PUSH2 0x182A JUMPI PUSH1 0x0 DUP1 REVERT JUMPDEST DUP3 CALLDATALOAD SWAP2 POP PUSH1 0x20 DUP4 ADD CALLDATALOAD PUSH1 0xFF DUP2 AND DUP2 EQ PUSH2 0x1842 JUMPI PUSH1 0x0 DUP1 REVERT JUMPDEST DUP1 SWAP2 POP POP SWAP3 POP SWAP3 SWAP1 POP JUMP JUMPDEST PUSH1 0x1 PUSH1 0x1 PUSH1 0xA0 SHL SUB DUP2 AND DUP2 EQ PUSH2 0xC55 JUMPI PUSH1 0x0 DUP1 REVERT JUMPDEST PUSH1 0x0 DUP1 PUSH1 0x40 DUP4 DUP6 SUB SLT ISZERO PUSH2 0x1875 JUMPI PUSH1 0x0 DUP1 REVERT JUMPDEST DUP3 CALLDATALOAD PUSH2 0x1880 DUP2 PUSH2 0x184D JUMP JUMPDEST SWAP5 PUSH1 0x20 SWAP4 SWAP1 SWAP4 ADD CALLDATALOAD SWAP4 POP POP POP JUMP JUMPDEST PUSH1 0x0 PUSH1 0x20 DUP3 DUP5 SUB SLT ISZERO PUSH2 0x18A0 JUMPI PUSH1 0x0 DUP1 REVERT JUMPDEST DUP2 CALLDATALOAD PUSH2 0x1149 DUP2 PUSH2 0x184D JUMP JUMPDEST PUSH4 0x4E487B71 PUSH1 0xE0 SHL PUSH1 0x0 MSTORE PUSH1 0x41 PUSH1 0x4 MSTORE PUSH1 0x24 PUSH1 0x0 REVERT JUMPDEST PUSH1 0x0 DUP3 PUSH1 0x1F DUP4 ADD SLT PUSH2 0x18D2 JUMPI PUSH1 0x0 DUP1 REVERT JUMPDEST DUP2 CALLDATALOAD PUSH1 0x20 PUSH8 0xFFFFFFFFFFFFFFFF DUP1 DUP4 GT ISZERO PUSH2 0x18EF JUMPI PUSH2 0x18EF PUSH2 0x18AB JUMP JUMPDEST DUP3 PUSH1 0x5 SHL PUSH1 0x40 MLOAD PUSH1 0x1F NOT PUSH1 0x3F DUP4 ADD AND DUP2 ADD DUP2 DUP2 LT DUP5 DUP3 GT OR ISZERO PUSH2 0x1914 JUMPI PUSH2 0x1914 PUSH2 0x18AB JUMP JUMPDEST PUSH1 0x40 MSTORE SWAP4 DUP5 MSTORE DUP6 DUP2 ADD DUP4 ADD SWAP4 DUP4 DUP2 ADD SWAP3 POP DUP8 DUP6 GT ISZERO PUSH2 0x1932 JUMPI PUSH1 0x0 DUP1 REVERT JUMPDEST DUP4 DUP8 ADD SWAP2 POP JUMPDEST DUP5 DUP3 LT ISZERO PUSH2 0x1951 JUMPI DUP2 CALLDATALOAD DUP4 MSTORE SWAP2 DUP4 ADD SWAP2 SWAP1 DUP4 ADD SWAP1 PUSH2 0x1938 JUMP JUMPDEST SWAP8 SWAP7 POP POP POP POP POP POP POP JUMP JUMPDEST PUSH1 0x0 DUP1 PUSH1 0x40 DUP4 DUP6 SUB SLT ISZERO PUSH2 0x196F JUMPI PUSH1 0x0 DUP1 REVERT JUMPDEST DUP3 CALLDATALOAD PUSH8 0xFFFFFFFFFFFFFFFF DUP1 DUP3 GT ISZERO PUSH2 0x1987 JUMPI PUSH1 0x0 DUP1 REVERT JUMPDEST PUSH2 0x1993 DUP7 DUP4 DUP8 ADD PUSH2 0x18C1 JUMP JUMPDEST SWAP4 POP PUSH1 0x20 DUP6 ADD CALLDATALOAD SWAP2 POP DUP1 DUP3 GT ISZERO PUSH2 0x19A9 JUMPI PUSH1 0x0 DUP1 REVERT JUMPDEST POP PUSH2 0x19B6 DUP6 DUP3 DUP7 ADD PUSH2 0x18C1 JUMP JUMPDEST SWAP2 POP POP SWAP3 POP SWAP3 SWAP1 POP JUMP JUMPDEST PUSH1 0x0 PUSH1 0x20 DUP3 DUP5 SUB SLT ISZERO PUSH2 0x19D2 JUMPI PUSH1 0x0 DUP1 REVERT JUMPDEST DUP2 CALLDATALOAD PUSH8 0xFFFFFFFFFFFFFFFF DUP2 GT ISZERO PUSH2 0x19E9 JUMPI PUSH1 0x0 DUP1 REVERT JUMPDEST PUSH2 0x19F5 DUP5 DUP3 DUP6 ADD PUSH2 0x18C1 JUMP JUMPDEST SWAP5 SWAP4 POP POP POP POP JUMP JUMPDEST PUSH1 0x0 DUP1 PUSH1 0x40 DUP4 DUP6 SUB SLT ISZERO PUSH2 0x1A10 JUMPI PUSH1 0x0 DUP1 REVERT JUMPDEST POP POP DUP1 CALLDATALOAD SWAP3 PUSH1 0x20 SWAP1 SWAP2 ADD CALLDATALOAD SWAP2 POP JUMP JUMPDEST PUSH1 0x40 DUP1 DUP3 MSTORE DUP4 MLOAD SWAP1 DUP3 ADD DUP2 SWAP1 MSTORE PUSH1 0x0 SWAP1 PUSH1 0x20 SWAP1 PUSH1 0x60 DUP5 ADD SWAP1 DUP3 DUP8 ADD DUP5 JUMPDEST DUP3 DUP2 LT ISZERO PUSH2 0x1A58 JUMPI DUP2 MLOAD DUP5 MSTORE SWAP3 DUP5 ADD SWAP3 SWAP1 DUP5 ADD SWAP1 PUSH1 0x1 ADD PUSH2 0x1A3C JUMP JUMPDEST POP POP POP SWAP3 ADD SWAP3 SWAP1 SWAP3 MSTORE SWAP3 SWAP2 POP POP JUMP JUMPDEST PUSH4 0x4E487B71 PUSH1 0xE0 SHL PUSH1 0x0 MSTORE PUSH1 0x11 PUSH1 0x4 MSTORE PUSH1 0x24 PUSH1 0x0 REVERT JUMPDEST PUSH1 0x0 DUP3 PUSH2 0x1A9A JUMPI PUSH4 0x4E487B71 PUSH1 0xE0 SHL PUSH1 0x0 MSTORE PUSH1 0x12 PUSH1 0x4 MSTORE PUSH1 0x24 PUSH1 0x0 REVERT JUMPDEST POP DIV SWAP1 JUMP JUMPDEST DUP1 DUP3 ADD DUP1 DUP3 GT ISZERO PUSH2 0x1AB2 JUMPI PUSH2 0x1AB2 PUSH2 0x1A67 JUMP JUMPDEST SWAP3 SWAP2 POP POP JUMP JUMPDEST PUSH1 0x0 PUSH1 0xFF DUP3 AND PUSH1 0xFF DUP2 SUB PUSH2 0x1ACE JUMPI PUSH2 0x1ACE PUSH2 0x1A67 JUMP JUMPDEST PUSH1 0x1 ADD SWAP3 SWAP2 POP POP JUMP JUMPDEST PUSH4 0x4E487B71 PUSH1 0xE0 SHL PUSH1 0x0 MSTORE PUSH1 0x32 PUSH1 0x4 MSTORE PUSH1 0x24 PUSH1 0x0 REVERT JUMPDEST DUP2 DUP2 SUB DUP2 DUP2 GT ISZERO PUSH2 0x1AB2 JUMPI PUSH2 0x1AB2 PUSH2 0x1A67 JUMP JUMPDEST PUSH4 0x4E487B71 PUSH1 0xE0 SHL PUSH1 0x0 MSTORE PUSH1 0x31 PUSH1 0x4 MSTORE PUSH1 0x24 PUSH1 0x0 REVERT JUMPDEST PUSH1 0x0 PUSH1 0x1 DUP3 ADD PUSH2 0x1B28 JUMPI PUSH2 0x1B28 PUSH2 0x1A67 JUMP JUMPDEST POP PUSH1 0x1 ADD SWAP1 JUMP JUMPDEST PUSH1 0x20 DUP1 DUP3 MSTORE PUSH1 0x9 SWAP1 DUP3 ADD MSTORE PUSH9 0x3337B93134B23232B7 PUSH1 0xB9 SHL PUSH1 0x40 DUP3 ADD MSTORE PUSH1 0x60 ADD SWAP1 JUMP JUMPDEST DUP1 DUP3 MUL DUP2 ISZERO DUP3 DUP3 DIV DUP5 EQ OR PUSH2 0x1AB2 JUMPI PUSH2 0x1AB2 PUSH2 0x1A67 JUMP JUMPDEST PUSH1 0xFF DUP3 DUP2 AND DUP3 DUP3 AND SUB SWAP1 DUP2 GT ISZERO PUSH2 0x1AB2 JUMPI PUSH2 0x1AB2 PUSH2 0x1A67 JUMP JUMPDEST PUSH1 0x0 DUP2 PUSH2 0x1B91 JUMPI PUSH2 0x1B91 PUSH2 0x1A67 JUMP JUMPDEST POP PUSH1 0x0 NOT ADD SWAP1 JUMP JUMPDEST DUP1 MLOAD PUSH2 0x1BA4 DUP2 PUSH2 0x184D JUMP JUMPDEST SWAP2 SWAP1 POP JUMP JUMPDEST DUP1 MLOAD PUSH3 0xFFFFFF DUP2 AND DUP2 EQ PUSH2 0x1BA4 JUMPI PUSH1 0x0 DUP1 REVERT JUMPDEST DUP1 MLOAD PUSH1 0x2 DUP2 SWAP1 SIGNEXTEND DUP2 EQ PUSH2 0x1BA4 JUMPI PUSH1 0x0 DUP1 REVERT JUMPDEST DUP1 MLOAD PUSH1 0x1 PUSH1 0x1 PUSH1 0x80 SHL SUB DUP2 AND DUP2 EQ PUSH2 0x1BA4 JUMPI PUSH1 0x0 DUP1 REVERT JUMPDEST PUSH1 0x0 DUP1 PUSH1 0x0 DUP1 PUSH1 0x0 DUP1 PUSH1 0x0 DUP1 PUSH1 0x0 DUP1 PUSH1 0x0 DUP1 PUSH2 0x180 DUP14 DUP16 SUB SLT ISZERO PUSH2 0x1C08 JUMPI PUSH1 0x0 DUP1 REVERT JUMPDEST DUP13 MLOAD PUSH12 0xFFFFFFFFFFFFFFFFFFFFFFFF DUP2 AND DUP2 EQ PUSH2 0x1C24 JUMPI PUSH1 0x0 DUP1 REVERT JUMPDEST SWAP12 POP PUSH2 0x1C32 PUSH1 0x20 DUP15 ADD PUSH2 0x1B99 JUMP JUMPDEST SWAP11 POP PUSH2 0x1C40 PUSH1 0x40 DUP15 ADD PUSH2 0x1B99 JUMP JUMPDEST SWAP10 POP PUSH2 0x1C4E PUSH1 0x60 DUP15 ADD PUSH2 0x1B99 JUMP JUMPDEST SWAP9 POP PUSH2 0x1C5C PUSH1 0x80 DUP15 ADD PUSH2 0x1BA9 JUMP JUMPDEST SWAP8 POP PUSH2 0x1C6A PUSH1 0xA0 DUP15 ADD PUSH2 0x1BBC JUMP JUMPDEST SWAP7 POP PUSH2 0x1C78 PUSH1 0xC0 DUP15 ADD PUSH2 0x1BBC JUMP JUMPDEST SWAP6 POP PUSH2 0x1C86 PUSH1 0xE0 DUP15 ADD PUSH2 0x1BCE JUMP JUMPDEST SWAP5 POP PUSH2 0x100 DUP14 ADD MLOAD SWAP4 POP PUSH2 0x120 DUP14 ADD MLOAD SWAP3 POP PUSH2 0x1CA5 PUSH2 0x140 DUP15 ADD PUSH2 0x1BCE JUMP JUMPDEST SWAP2 POP PUSH2 0x1CB4 PUSH2 0x160 DUP15 ADD PUSH2 0x1BCE JUMP JUMPDEST SWAP1 POP SWAP3 SWAP6 SWAP9 SWAP12 POP SWAP3 SWAP6 SWAP9 SWAP12 POP SWAP3 SWAP6 SWAP9 SWAP12 JUMP JUMPDEST PUSH1 0x0 DUP2 PUSH1 0x2 SIGNEXTEND PUSH3 0x7FFFFF NOT DUP2 SUB PUSH2 0x1CDF JUMPI PUSH2 0x1CDF PUSH2 0x1A67 JUMP JUMPDEST PUSH1 0x0 SUB SWAP3 SWAP2 POP POP JUMP JUMPDEST PUSH1 0x0 PUSH1 0x20 DUP3 DUP5 SUB SLT ISZERO PUSH2 0x1CFA JUMPI PUSH1 0x0 DUP1 REVERT JUMPDEST DUP2 MLOAD PUSH2 0x1149 DUP2 PUSH2 0x184D JUMP JUMPDEST PUSH1 0x0 DUP3 MLOAD PUSH1 0x0 JUMPDEST DUP2 DUP2 LT ISZERO PUSH2 0x1D26 JUMPI PUSH1 0x20 DUP2 DUP7 ADD DUP2 ADD MLOAD DUP6 DUP4 ADD MSTORE ADD PUSH2 0x1D0C JUMP JUMPDEST POP PUSH1 0x0 SWAP3 ADD SWAP2 DUP3 MSTORE POP SWAP2 SWAP1 POP JUMP JUMPDEST PUSH1 0x0 PUSH1 0x20 DUP3 DUP5 SUB SLT ISZERO PUSH2 0x1D46 JUMPI PUSH1 0x0 DUP1 REVERT JUMPDEST DUP2 MLOAD DUP1 ISZERO ISZERO DUP2 EQ PUSH2 0x1149 JUMPI PUSH1 0x0 DUP1 REVERT INVALID LOG2 PUSH5 0x6970667358 0x22 SLT KECCAK256 0xB2 SWAP8 0xCE 0x4C PUSH1 0x93 GAS RETURNDATASIZE 0xD 0xBA OR SLOAD 0x24 0xD5 TIMESTAMP 0xCA PUSH31 0x897B00DE6C6AFAA0715F2D3B70BEBB64736F6C634300081100330000000000 "},"methodIdentifiers":{"BEGIN_TIME()":"c75363b6","END_TIME()":"37ba682d","LOCK_WEEKNUM()":"0d437d40","MAX_SCALE()":"f6def7cf","MAX_WEEKS()":"e11400bb","WEEK_SECONDS()":"cd671a58","acceptSetter()":"5f8e422f","canClaimAmount()":"8431165e","claimReward()":"b88a802f","getScore(uint256,uint8)":"ee3453ed","getUserNFTs()":"fdc5ab8e","latestNo()":"29ed1cfd","nftToken()":"d06fcba8","owner()":"8da5cb5b","rewardToken()":"f7c618c1","rewardsOf(uint256)":"0bce1284","setReward(uint256,uint256)":"a47bd496","setRewards(uint256[],uint256[])":"979db1c4","stake(uint256,uint8)":"10087fb1","stakingNFTs(uint256)":"10c6c1c2","token0()":"0dfe1681","token1()":"d21220a7","totalScores(uint256)":"157775df","transferOwner(address)":"4fb2e45d","userCanClaimWeeks(address,uint256)":"bb57852d","userNFTs(address,uint256)":"291c73c3","userScores(address,uint256)":"5b680a45","withdraw(uint256)":"2e1a7d4d","withdraw(uint256[])":"983d95ce","withdrawRewards(uint256)":"9342c8f4"}}}}}