{"contracts/stakeERC20.sol":{"StakeERC20":{"abi":[{"inputs":[{"internalType":"uint8","name":"maxWeeks","type":"uint8"},{"internalType":"uint256","name":"maxScale","type":"uint256"},{"internalType":"uint8","name":"lockWeeks","type":"uint8"},{"internalType":"address","name":"_rewardToken","type":"address"},{"internalType":"address","name":"_lpToken","type":"address"}],"stateMutability":"nonpayable","type":"constructor"},{"anonymous":false,"inputs":[{"indexed":true,"internalType":"address","name":"user","type":"address"},{"indexed":false,"internalType":"uint256","name":"amount","type":"uint256"}],"name":"ClaimReward","type":"event"},{"anonymous":false,"inputs":[{"indexed":true,"internalType":"address","name":"user","type":"address"},{"indexed":false,"internalType":"uint256","name":"no","type":"uint256"},{"indexed":false,"internalType":"uint256","name":"amount","type":"uint256"}],"name":"SetReward","type":"event"},{"anonymous":false,"inputs":[{"indexed":true,"internalType":"address","name":"user","type":"address"},{"indexed":false,"internalType":"uint256","name":"id","type":"uint256"},{"indexed":false,"internalType":"uint256","name":"amount","type":"uint256"},{"indexed":false,"internalType":"uint8","name":"k","type":"uint8"}],"name":"Stake","type":"event"},{"anonymous":false,"inputs":[{"indexed":true,"internalType":"address","name":"user","type":"address"},{"indexed":false,"internalType":"uint256","name":"amount","type":"uint256"}],"name":"Withdraw","type":"event"},{"inputs":[],"name":"LOCK_WEEKNUM","outputs":[{"internalType":"uint8","name":"","type":"uint8"}],"stateMutability":"view","type":"function"},{"inputs":[],"name":"MAX_SCALE","outputs":[{"internalType":"uint256","name":"","type":"uint256"}],"stateMutability":"view","type":"function"},{"inputs":[],"name":"MAX_WEEKS","outputs":[{"internalType":"uint8","name":"","type":"uint8"}],"stateMutability":"view","type":"function"},{"inputs":[],"name":"WEEK_SECONDS","outputs":[{"internalType":"uint24","name":"","type":"uint24"}],"stateMutability":"view","type":"function"},{"inputs":[],"name":"acceptSetter","outputs":[],"stateMutability":"nonpayable","type":"function"},{"inputs":[],"name":"canClaimAmount","outputs":[{"internalType":"uint256","name":"","type":"uint256"}],"stateMutability":"view","type":"function"},{"inputs":[],"name":"claim","outputs":[],"stateMutability":"nonpayable","type":"function"},{"inputs":[{"internalType":"uint256","name":"amount","type":"uint256"},{"internalType":"uint8","name":"k","type":"uint8"}],"name":"getScore","outputs":[{"internalType":"uint256","name":"score","type":"uint256"}],"stateMutability":"view","type":"function"},{"inputs":[],"name":"getStaking","outputs":[{"internalType":"uint256","name":"total","type":"uint256"},{"internalType":"uint256","name":"staking","type":"uint256"}],"stateMutability":"view","type":"function"},{"inputs":[],"name":"latestNo","outputs":[{"internalType":"uint256","name":"","type":"uint256"}],"stateMutability":"view","type":"function"},{"inputs":[],"name":"lpToken","outputs":[{"internalType":"address","name":"","type":"address"}],"stateMutability":"view","type":"function"},{"inputs":[],"name":"nonce","outputs":[{"internalType":"uint256","name":"","type":"uint256"}],"stateMutability":"view","type":"function"},{"inputs":[],"name":"owner","outputs":[{"internalType":"address","name":"","type":"address"}],"stateMutability":"view","type":"function"},{"inputs":[],"name":"rewardToken","outputs":[{"internalType":"address","name":"","type":"address"}],"stateMutability":"view","type":"function"},{"inputs":[{"internalType":"uint256","name":"","type":"uint256"}],"name":"rewardsOf","outputs":[{"internalType":"uint256","name":"","type":"uint256"}],"stateMutability":"view","type":"function"},{"inputs":[{"internalType":"uint256","name":"no","type":"uint256"},{"internalType":"uint256","name":"amount","type":"uint256"}],"name":"setReward","outputs":[],"stateMutability":"nonpayable","type":"function"},{"inputs":[{"internalType":"uint256[]","name":"nos","type":"uint256[]"},{"internalType":"uint256[]","name":"amounts","type":"uint256[]"}],"name":"setRewards","outputs":[{"internalType":"uint256","name":"total","type":"uint256"}],"stateMutability":"nonpayable","type":"function"},{"inputs":[{"internalType":"uint256","name":"amount","type":"uint256"},{"internalType":"uint8","name":"k","type":"uint8"}],"name":"stake","outputs":[],"stateMutability":"nonpayable","type":"function"},{"inputs":[{"internalType":"uint256","name":"","type":"uint256"}],"name":"stakingERC20s","outputs":[{"internalType":"uint256","name":"amount","type":"uint256"},{"internalType":"uint256","name":"score","type":"uint256"},{"internalType":"uint256","name":"beginNo","type":"uint256"},{"internalType":"uint256","name":"endNo","type":"uint256"}],"stateMutability":"view","type":"function"},{"inputs":[{"internalType":"uint256","name":"","type":"uint256"}],"name":"totalScores","outputs":[{"internalType":"uint256","name":"","type":"uint256"}],"stateMutability":"view","type":"function"},{"inputs":[{"internalType":"address","name":"_owner","type":"address"}],"name":"transferOwner","outputs":[],"stateMutability":"nonpayable","type":"function"},{"inputs":[{"internalType":"address","name":"","type":"address"},{"internalType":"uint256","name":"","type":"uint256"}],"name":"userCanClaimWeeks","outputs":[{"internalType":"uint256","name":"","type":"uint256"}],"stateMutability":"view","type":"function"},{"inputs":[{"internalType":"address","name":"","type":"address"},{"internalType":"uint256","name":"","type":"uint256"}],"name":"userERC20s","outputs":[{"internalType":"uint256","name":"","type":"uint256"}],"stateMutability":"view","type":"function"},{"inputs":[{"internalType":"address","name":"","type":"address"},{"internalType":"uint256","name":"","type":"uint256"}],"name":"userScores","outputs":[{"internalType":"uint256","name":"","type":"uint256"}],"stateMutability":"view","type":"function"},{"inputs":[],"name":"withdraw","outputs":[{"internalType":"uint256","name":"total","type":"uint256"}],"stateMutability":"nonpayable","type":"function"}],"evm":{"bytecode":{"linkReferences":{},"object":"6101206040523480156200001257600080fd5b506040516200168f3803806200168f8339810160408190526200003591620000a2565b6001600160a01b0391821660805260ff94851660a05260c093909352921660e052600080546001600160a01b03191633179055166101005262000109565b805160ff811681146200008557600080fd5b919050565b80516001600160a01b03811681146200008557600080fd5b600080600080600060a08688031215620000bb57600080fd5b620000c68662000073565b945060208601519350620000dd6040870162000073565b9250620000ed606087016200008a565b9150620000fd608087016200008a565b90509295509295909350565b60805160a05160c05160e051610100516114fb620001946000396000818161027d01526104b60152600081816101b00152818161084c0152610aec0152600081816103f50152610ed70152600081816103bb0152818161044e01528181610e730152610e9e01526000818161041c0152818161093901528181610cea0152610d8201526114fb6000f3fe608060405234801561001057600080fd5b50600436106101735760003560e01c80638431165e116100de578063ba08650111610097578063e11400bb11610071578063e11400bb146103b6578063ee3453ed146103dd578063f6def7cf146103f0578063f7c618c11461041757600080fd5b8063ba08650114610373578063bb57852d14610386578063cd671a581461039957600080fd5b80638431165e146102d45780638da5cb5b146102dc578063979db1c4146102ef578063a218de1514610302578063a47bd49614610357578063affed0e01461036a57600080fd5b80634e71d92d116101305780634e71d92d1461022a5780634fb2e45d146102325780635b680a45146102455780635f8e422f146102705780635fcbd285146102785780637b1391a6146102b757600080fd5b80630bce1284146101785780630d437d40146101ab57806310087fb1146101e4578063157775df146101f957806329ed1cfd146102195780633ccfd60b14610222575b600080fd5b61019861018636600461115b565b60056020526000908152604090205481565b6040519081526020015b60405180910390f35b6101d27f000000000000000000000000000000000000000000000000000000000000000081565b60405160ff90911681526020016101a2565b6101f76101f2366004611174565b61043e565b005b61019861020736600461115b565b60046020526000908152604090205481565b61019860065481565b6101986106fc565b6101f7610846565b6101f76102403660046111c6565b610999565b6101986102533660046111e1565b600260209081526000928352604080842090915290825290205481565b6101f76109e5565b61029f7f000000000000000000000000000000000000000000000000000000000000000081565b6040516001600160a01b0390911681526020016101a2565b6102bf610a36565b604080519283526020830191909152016101a2565b610198610ae5565b60005461029f906001600160a01b031681565b6101986102fd3660046112bc565b610bbe565b61033761031036600461115b565b60086020526000908152604090208054600182015460028301546003909301549192909184565b6040805194855260208501939093529183015260608201526080016101a2565b6101f7610365366004611320565b610d53565b61019860075481565b6101986103813660046111e1565b610e14565b6101986103943660046111e1565b610e45565b6103a261025881565b60405162ffffff90911681526020016101a2565b6101d27f000000000000000000000000000000000000000000000000000000000000000081565b6101986103eb366004611174565b610e6a565b6101987f000000000000000000000000000000000000000000000000000000000000000081565b61029f7f000000000000000000000000000000000000000000000000000000000000000081565b60008160ff1611801561047757507f000000000000000000000000000000000000000000000000000000000000000060ff168160ff1611155b6104b15760405162461bcd60e51b8152602060048201526006602482015265359018bf1a9960d11b60448201526064015b60405180910390fd5b6104dd7f0000000000000000000000000000000000000000000000000000000000000000333085610f34565b60006104eb61025842611358565b6104f690600161137a565b905060006105048484610e6a565b905060005b8360ff168160ff16101561059e57816004600061052960ff85168761137a565b81526020019081526020016000206000828254610546919061137a565b9091555050336000908152600260205260408120839161056960ff85168761137a565b81526020019081526020016000206000828254610586919061137a565b9091555081905061059681611393565b915050610509565b5060405180608001604052808581526020018281526020018381526020018460ff16846105cb919061137a565b90526007546000908152600860209081526040808320845181558483015160018083019190915585830151600283015560609095015160039182015533845290915290209081015490540361062d573360009081526003602052604090208290555b61063a60ff84168361137a565b3360009081526003602052604090206001015410156106745761066060ff84168361137a565b336000908152600360205260409020600101555b33600081815260096020908152604080832060078054825460018101845592865294849020909101939093559154825190815290810187905260ff86168183015290517f6fa2f6021ee337436cdf2b2570285886da18bc06402ce284d296504a0fe8f8759181900360600190a2600780549060006106f1836113c8565b919050555050505050565b60008061070b61025842611358565b336000908152600960205260408120549192509061072b906001906113e1565b90505b33600090815260096020526040812080548390811061074f5761074f6113b2565b906000526020600020015490508260086000838152602001908152602001600020600301541161083357600081815260086020526040902054610792908561137a565b3360009081526009602052604090208054919550906107b3906001906113e1565b815481106107c3576107c36113b2565b6000918252602080832090910154338352600990915260409091208054849081106107f0576107f06113b2565b600091825260208083209091019290925533815260099091526040902080548061081c5761081c6113f4565b600190038181906000526020600020016000905590555b508061083e8161140a565b91505061072e565b600060ff7f00000000000000000000000000000000000000000000000000000000000000001661087861025842611358565b61088291906113e1565b33600090815260036020526040812054919250905b3360009081526003602052604090206001015481101561093357828111610933576108c381600161137a565b336000908152600360205260408120015560008181526004602090815260408083205433845260028352818420858552835281842054600590935292205461090b9190611421565b6109159190611358565b61091f908361137a565b91508061092b816113c8565b915050610897565b5061095f7f0000000000000000000000000000000000000000000000000000000000000000338361104e565b60405181815233907fba8de60c3403ec381d1d484652ea1980e3c3e56359195c92525bff4ce47ad98e906020015b60405180910390a25050565b6000546001600160a01b031633146109c35760405162461bcd60e51b81526004016104a890611438565b600180546001600160a01b0319166001600160a01b0392909216919091179055565b6001546001600160a01b03163314610a0f5760405162461bcd60e51b81526004016104a890611438565b60018054600080546001600160a01b03199081166001600160a01b03841617909155169055565b60008080610a4661025842611358565b905060005b33600090815260096020526040902054811015610adf57336000908152600960205260408120805483908110610a8357610a836113b2565b600091825260208083209091015480835260089091526040909120805460039091015491925090841015610abe57610abb818661137a565b94505b610ac8818761137a565b955050508080610ad7906113c8565b915050610a4b565b50509091565b60008060ff7f000000000000000000000000000000000000000000000000000000000000000016610b1861025842611358565b610b2291906113e1565b33600090815260036020526040812054919250905b33600090815260036020526040902060010154811015610bb757828111610bb757600081815260046020908152604080832054338452600283528184208585528352818420546005909352922054610b8f9190611421565b610b999190611358565b610ba3908361137a565b915080610baf816113c8565b915050610b37565b5092915050565b600080546001600160a01b03163314610be95760405162461bcd60e51b81526004016104a890611438565b60005b8351811015610c7957828181518110610c0757610c076113b2565b602002602001015182610c1a919061137a565b9150828181518110610c2e57610c2e6113b2565b602002602001015160056000868481518110610c4c57610c4c6113b2565b60200260200101518152602001908152602001600020819055508080610c71906113c8565b915050610bec565b5060008351118015610cb257506006548360018551610c9891906113e1565b81518110610ca857610ca86113b2565b6020026020010151115b15610ce5578260018451610cc691906113e1565b81518110610cd657610cd66113b2565b60200260200101516006819055505b610d117f0000000000000000000000000000000000000000000000000000000000000000333084610f34565b60408051600081526020810183905233917fc3991418cacd70a010fce559a44fcbb47534ca43bf7543964bdca2639f6e6e5a910160405180910390a292915050565b6000546001600160a01b03163314610d7d5760405162461bcd60e51b81526004016104a890611438565b610da97f0000000000000000000000000000000000000000000000000000000000000000333084610f34565b60008281526005602052604081208054839290610dc790849061137a565b9091555050600654821115610ddc5760068290555b604080518381526020810183905233917fc3991418cacd70a010fce559a44fcbb47534ca43bf7543964bdca2639f6e6e5a910161098d565b60096020528160005260406000208181548110610e3057600080fd5b90600052602060002001600091509150505481565b60036020528160005260406000208160028110610e6157600080fd5b01549150829050565b6000610e9760017f000000000000000000000000000000000000000000000000000000000000000061145b565b60ff1660017f000000000000000000000000000000000000000000000000000000000000000060ff16600185610ecd919061145b565b60ff16610efb60017f00000000000000000000000000000000000000000000000000000000000000006113e1565b610f059190611421565b610f0f919061137a565b610f1991906113e1565b610f239085611421565b610f2d9190611358565b9392505050565b604080516001600160a01b0385811660248301528481166044830152606480830185905283518084039091018152608490920183526020820180516001600160e01b03166323b872dd60e01b1790529151600092839290881691610f989190611474565b6000604051808303816000865af19150503d8060008114610fd5576040519150601f19603f3d011682016040523d82523d6000602084013e610fda565b606091505b509150915081801561100457508051158061100457508080602001905181019061100491906114a3565b6110465760405162461bcd60e51b81526020600482015260136024820152721d1c985b9cd9995c919c9bdb4819985a5b1959606a1b60448201526064016104a8565b505050505050565b604080516001600160a01b038481166024830152604480830185905283518084039091018152606490920183526020820180516001600160e01b031663a9059cbb60e01b17905291516000928392908716916110aa9190611474565b6000604051808303816000865af19150503d80600081146110e7576040519150601f19603f3d011682016040523d82523d6000602084013e6110ec565b606091505b509150915081801561111657508051158061111657508080602001905181019061111691906114a3565b6111545760405162461bcd60e51b815260206004820152600f60248201526e1514905394d1915497d19052531151608a1b60448201526064016104a8565b5050505050565b60006020828403121561116d57600080fd5b5035919050565b6000806040838503121561118757600080fd5b82359150602083013560ff8116811461119f57600080fd5b809150509250929050565b80356001600160a01b03811681146111c157600080fd5b919050565b6000602082840312156111d857600080fd5b610f2d826111aa565b600080604083850312156111f457600080fd5b6111fd836111aa565b946020939093013593505050565b634e487b7160e01b600052604160045260246000fd5b600082601f83011261123257600080fd5b8135602067ffffffffffffffff8083111561124f5761124f61120b565b8260051b604051601f19603f830116810181811084821117156112745761127461120b565b60405293845285810183019383810192508785111561129257600080fd5b83870191505b848210156112b157813583529183019190830190611298565b979650505050505050565b600080604083850312156112cf57600080fd5b823567ffffffffffffffff808211156112e757600080fd5b6112f386838701611221565b9350602085013591508082111561130957600080fd5b5061131685828601611221565b9150509250929050565b6000806040838503121561133357600080fd5b50508035926020909101359150565b634e487b7160e01b600052601160045260246000fd5b60008261137557634e487b7160e01b600052601260045260246000fd5b500490565b8082018082111561138d5761138d611342565b92915050565b600060ff821660ff81036113a9576113a9611342565b60010192915050565b634e487b7160e01b600052603260045260246000fd5b6000600182016113da576113da611342565b5060010190565b8181038181111561138d5761138d611342565b634e487b7160e01b600052603160045260246000fd5b60008161141957611419611342565b506000190190565b808202811582820484141761138d5761138d611342565b6020808252600990820152683337b93134b23232b760b91b604082015260600190565b60ff828116828216039081111561138d5761138d611342565b6000825160005b81811015611495576020818601810151858301520161147b565b506000920191825250919050565b6000602082840312156114b557600080fd5b81518015158114610f2d57600080fdfea2646970667358221220be25615332ad9bddc295b0f19c4913d7630e3596deb57a8713d98938bf3c766f64736f6c63430008110033","opcodes":"PUSH2 0x120 PUSH1 0x40 MSTORE CALLVALUE DUP1 ISZERO PUSH3 0x12 JUMPI PUSH1 0x0 DUP1 REVERT JUMPDEST POP PUSH1 0x40 MLOAD PUSH3 0x168F CODESIZE SUB DUP1 PUSH3 0x168F DUP4 CODECOPY DUP2 ADD PUSH1 0x40 DUP2 SWAP1 MSTORE PUSH3 0x35 SWAP2 PUSH3 0xA2 JUMP JUMPDEST PUSH1 0x1 PUSH1 0x1 PUSH1 0xA0 SHL SUB SWAP2 DUP3 AND PUSH1 0x80 MSTORE PUSH1 0xFF SWAP5 DUP6 AND PUSH1 0xA0 MSTORE PUSH1 0xC0 SWAP4 SWAP1 SWAP4 MSTORE SWAP3 AND PUSH1 0xE0 MSTORE PUSH1 0x0 DUP1 SLOAD PUSH1 0x1 PUSH1 0x1 PUSH1 0xA0 SHL SUB NOT AND CALLER OR SWAP1 SSTORE AND PUSH2 0x100 MSTORE PUSH3 0x109 JUMP JUMPDEST DUP1 MLOAD PUSH1 0xFF DUP2 AND DUP2 EQ PUSH3 0x85 JUMPI PUSH1 0x0 DUP1 REVERT JUMPDEST SWAP2 SWAP1 POP JUMP JUMPDEST DUP1 MLOAD PUSH1 0x1 PUSH1 0x1 PUSH1 0xA0 SHL SUB DUP2 AND DUP2 EQ PUSH3 0x85 JUMPI PUSH1 0x0 DUP1 REVERT JUMPDEST PUSH1 0x0 DUP1 PUSH1 0x0 DUP1 PUSH1 0x0 PUSH1 0xA0 DUP7 DUP9 SUB SLT ISZERO PUSH3 0xBB JUMPI PUSH1 0x0 DUP1 REVERT JUMPDEST PUSH3 0xC6 DUP7 PUSH3 0x73 JUMP JUMPDEST SWAP5 POP PUSH1 0x20 DUP7 ADD MLOAD SWAP4 POP PUSH3 0xDD PUSH1 0x40 DUP8 ADD PUSH3 0x73 JUMP JUMPDEST SWAP3 POP PUSH3 0xED PUSH1 0x60 DUP8 ADD PUSH3 0x8A JUMP JUMPDEST SWAP2 POP PUSH3 0xFD PUSH1 0x80 DUP8 ADD PUSH3 0x8A JUMP JUMPDEST SWAP1 POP SWAP3 SWAP6 POP SWAP3 SWAP6 SWAP1 SWAP4 POP JUMP JUMPDEST PUSH1 0x80 MLOAD PUSH1 0xA0 MLOAD PUSH1 0xC0 MLOAD PUSH1 0xE0 MLOAD PUSH2 0x100 MLOAD PUSH2 0x14FB PUSH3 0x194 PUSH1 0x0 CODECOPY PUSH1 0x0 DUP2 DUP2 PUSH2 0x27D ADD MSTORE PUSH2 0x4B6 ADD MSTORE PUSH1 0x0 DUP2 DUP2 PUSH2 0x1B0 ADD MSTORE DUP2 DUP2 PUSH2 0x84C ADD MSTORE PUSH2 0xAEC ADD MSTORE PUSH1 0x0 DUP2 DUP2 PUSH2 0x3F5 ADD MSTORE PUSH2 0xED7 ADD MSTORE PUSH1 0x0 DUP2 DUP2 PUSH2 0x3BB ADD MSTORE DUP2 DUP2 PUSH2 0x44E ADD MSTORE DUP2 DUP2 PUSH2 0xE73 ADD MSTORE PUSH2 0xE9E ADD MSTORE PUSH1 0x0 DUP2 DUP2 PUSH2 0x41C ADD MSTORE DUP2 DUP2 PUSH2 0x939 ADD MSTORE DUP2 DUP2 PUSH2 0xCEA ADD MSTORE PUSH2 0xD82 ADD MSTORE PUSH2 0x14FB PUSH1 0x0 RETURN INVALID PUSH1 0x80 PUSH1 0x40 MSTORE CALLVALUE DUP1 ISZERO PUSH2 0x10 JUMPI PUSH1 0x0 DUP1 REVERT JUMPDEST POP PUSH1 0x4 CALLDATASIZE LT PUSH2 0x173 JUMPI PUSH1 0x0 CALLDATALOAD PUSH1 0xE0 SHR DUP1 PUSH4 0x8431165E GT PUSH2 0xDE JUMPI DUP1 PUSH4 0xBA086501 GT PUSH2 0x97 JUMPI DUP1 PUSH4 0xE11400BB GT PUSH2 0x71 JUMPI DUP1 PUSH4 0xE11400BB EQ PUSH2 0x3B6 JUMPI DUP1 PUSH4 0xEE3453ED EQ PUSH2 0x3DD JUMPI DUP1 PUSH4 0xF6DEF7CF EQ PUSH2 0x3F0 JUMPI DUP1 PUSH4 0xF7C618C1 EQ PUSH2 0x417 JUMPI PUSH1 0x0 DUP1 REVERT JUMPDEST DUP1 PUSH4 0xBA086501 EQ PUSH2 0x373 JUMPI DUP1 PUSH4 0xBB57852D EQ PUSH2 0x386 JUMPI DUP1 PUSH4 0xCD671A58 EQ PUSH2 0x399 JUMPI PUSH1 0x0 DUP1 REVERT JUMPDEST DUP1 PUSH4 0x8431165E EQ PUSH2 0x2D4 JUMPI DUP1 PUSH4 0x8DA5CB5B EQ PUSH2 0x2DC JUMPI DUP1 PUSH4 0x979DB1C4 EQ PUSH2 0x2EF JUMPI DUP1 PUSH4 0xA218DE15 EQ PUSH2 0x302 JUMPI DUP1 PUSH4 0xA47BD496 EQ PUSH2 0x357 JUMPI DUP1 PUSH4 0xAFFED0E0 EQ PUSH2 0x36A JUMPI PUSH1 0x0 DUP1 REVERT JUMPDEST DUP1 PUSH4 0x4E71D92D GT PUSH2 0x130 JUMPI DUP1 PUSH4 0x4E71D92D EQ PUSH2 0x22A JUMPI DUP1 PUSH4 0x4FB2E45D EQ PUSH2 0x232 JUMPI DUP1 PUSH4 0x5B680A45 EQ PUSH2 0x245 JUMPI DUP1 PUSH4 0x5F8E422F EQ PUSH2 0x270 JUMPI DUP1 PUSH4 0x5FCBD285 EQ PUSH2 0x278 JUMPI DUP1 PUSH4 0x7B1391A6 EQ PUSH2 0x2B7 JUMPI PUSH1 0x0 DUP1 REVERT JUMPDEST DUP1 PUSH4 0xBCE1284 EQ PUSH2 0x178 JUMPI DUP1 PUSH4 0xD437D40 EQ PUSH2 0x1AB JUMPI DUP1 PUSH4 0x10087FB1 EQ PUSH2 0x1E4 JUMPI DUP1 PUSH4 0x157775DF EQ PUSH2 0x1F9 JUMPI DUP1 PUSH4 0x29ED1CFD EQ PUSH2 0x219 JUMPI DUP1 PUSH4 0x3CCFD60B EQ PUSH2 0x222 JUMPI JUMPDEST PUSH1 0x0 DUP1 REVERT JUMPDEST PUSH2 0x198 PUSH2 0x186 CALLDATASIZE PUSH1 0x4 PUSH2 0x115B JUMP JUMPDEST PUSH1 0x5 PUSH1 0x20 MSTORE PUSH1 0x0 SWAP1 DUP2 MSTORE PUSH1 0x40 SWAP1 KECCAK256 SLOAD DUP2 JUMP JUMPDEST PUSH1 0x40 MLOAD SWAP1 DUP2 MSTORE PUSH1 0x20 ADD JUMPDEST PUSH1 0x40 MLOAD DUP1 SWAP2 SUB SWAP1 RETURN JUMPDEST PUSH2 0x1D2 PUSH32 0x0 DUP2 JUMP JUMPDEST PUSH1 0x40 MLOAD PUSH1 0xFF SWAP1 SWAP2 AND DUP2 MSTORE PUSH1 0x20 ADD PUSH2 0x1A2 JUMP JUMPDEST PUSH2 0x1F7 PUSH2 0x1F2 CALLDATASIZE PUSH1 0x4 PUSH2 0x1174 JUMP JUMPDEST PUSH2 0x43E JUMP JUMPDEST STOP JUMPDEST PUSH2 0x198 PUSH2 0x207 CALLDATASIZE PUSH1 0x4 PUSH2 0x115B JUMP JUMPDEST PUSH1 0x4 PUSH1 0x20 MSTORE PUSH1 0x0 SWAP1 DUP2 MSTORE PUSH1 0x40 SWAP1 KECCAK256 SLOAD DUP2 JUMP JUMPDEST PUSH2 0x198 PUSH1 0x6 SLOAD DUP2 JUMP JUMPDEST PUSH2 0x198 PUSH2 0x6FC JUMP JUMPDEST PUSH2 0x1F7 PUSH2 0x846 JUMP JUMPDEST PUSH2 0x1F7 PUSH2 0x240 CALLDATASIZE PUSH1 0x4 PUSH2 0x11C6 JUMP JUMPDEST PUSH2 0x999 JUMP JUMPDEST PUSH2 0x198 PUSH2 0x253 CALLDATASIZE PUSH1 0x4 PUSH2 0x11E1 JUMP JUMPDEST PUSH1 0x2 PUSH1 0x20 SWAP1 DUP2 MSTORE PUSH1 0x0 SWAP3 DUP4 MSTORE PUSH1 0x40 DUP1 DUP5 KECCAK256 SWAP1 SWAP2 MSTORE SWAP1 DUP3 MSTORE SWAP1 KECCAK256 SLOAD DUP2 JUMP JUMPDEST PUSH2 0x1F7 PUSH2 0x9E5 JUMP JUMPDEST PUSH2 0x29F PUSH32 0x0 DUP2 JUMP JUMPDEST PUSH1 0x40 MLOAD PUSH1 0x1 PUSH1 0x1 PUSH1 0xA0 SHL SUB SWAP1 SWAP2 AND DUP2 MSTORE PUSH1 0x20 ADD PUSH2 0x1A2 JUMP JUMPDEST PUSH2 0x2BF PUSH2 0xA36 JUMP JUMPDEST PUSH1 0x40 DUP1 MLOAD SWAP3 DUP4 MSTORE PUSH1 0x20 DUP4 ADD SWAP2 SWAP1 SWAP2 MSTORE ADD PUSH2 0x1A2 JUMP JUMPDEST PUSH2 0x198 PUSH2 0xAE5 JUMP JUMPDEST PUSH1 0x0 SLOAD PUSH2 0x29F SWAP1 PUSH1 0x1 PUSH1 0x1 PUSH1 0xA0 SHL SUB AND DUP2 JUMP JUMPDEST PUSH2 0x198 PUSH2 0x2FD CALLDATASIZE PUSH1 0x4 PUSH2 0x12BC JUMP JUMPDEST PUSH2 0xBBE JUMP JUMPDEST PUSH2 0x337 PUSH2 0x310 CALLDATASIZE PUSH1 0x4 PUSH2 0x115B JUMP JUMPDEST PUSH1 0x8 PUSH1 0x20 MSTORE PUSH1 0x0 SWAP1 DUP2 MSTORE PUSH1 0x40 SWAP1 KECCAK256 DUP1 SLOAD PUSH1 0x1 DUP3 ADD SLOAD PUSH1 0x2 DUP4 ADD SLOAD PUSH1 0x3 SWAP1 SWAP4 ADD SLOAD SWAP2 SWAP3 SWAP1 SWAP2 DUP5 JUMP JUMPDEST PUSH1 0x40 DUP1 MLOAD SWAP5 DUP6 MSTORE PUSH1 0x20 DUP6 ADD SWAP4 SWAP1 SWAP4 MSTORE SWAP2 DUP4 ADD MSTORE PUSH1 0x60 DUP3 ADD MSTORE PUSH1 0x80 ADD PUSH2 0x1A2 JUMP JUMPDEST PUSH2 0x1F7 PUSH2 0x365 CALLDATASIZE PUSH1 0x4 PUSH2 0x1320 JUMP JUMPDEST PUSH2 0xD53 JUMP JUMPDEST PUSH2 0x198 PUSH1 0x7 SLOAD DUP2 JUMP JUMPDEST PUSH2 0x198 PUSH2 0x381 CALLDATASIZE PUSH1 0x4 PUSH2 0x11E1 JUMP JUMPDEST PUSH2 0xE14 JUMP JUMPDEST PUSH2 0x198 PUSH2 0x394 CALLDATASIZE PUSH1 0x4 PUSH2 0x11E1 JUMP JUMPDEST PUSH2 0xE45 JUMP JUMPDEST PUSH2 0x3A2 PUSH2 0x258 DUP2 JUMP JUMPDEST PUSH1 0x40 MLOAD PUSH3 0xFFFFFF SWAP1 SWAP2 AND DUP2 MSTORE PUSH1 0x20 ADD PUSH2 0x1A2 JUMP JUMPDEST PUSH2 0x1D2 PUSH32 0x0 DUP2 JUMP JUMPDEST PUSH2 0x198 PUSH2 0x3EB CALLDATASIZE PUSH1 0x4 PUSH2 0x1174 JUMP JUMPDEST PUSH2 0xE6A JUMP JUMPDEST PUSH2 0x198 PUSH32 0x0 DUP2 JUMP JUMPDEST PUSH2 0x29F PUSH32 0x0 DUP2 JUMP JUMPDEST PUSH1 0x0 DUP2 PUSH1 0xFF AND GT DUP1 ISZERO PUSH2 0x477 JUMPI POP PUSH32 0x0 PUSH1 0xFF AND DUP2 PUSH1 0xFF AND GT ISZERO JUMPDEST PUSH2 0x4B1 JUMPI PUSH1 0x40 MLOAD PUSH3 0x461BCD PUSH1 0xE5 SHL DUP2 MSTORE PUSH1 0x20 PUSH1 0x4 DUP3 ADD MSTORE PUSH1 0x6 PUSH1 0x24 DUP3 ADD MSTORE PUSH6 0x359018BF1A99 PUSH1 0xD1 SHL PUSH1 0x44 DUP3 ADD MSTORE PUSH1 0x64 ADD JUMPDEST PUSH1 0x40 MLOAD DUP1 SWAP2 SUB SWAP1 REVERT JUMPDEST PUSH2 0x4DD PUSH32 0x0 CALLER ADDRESS DUP6 PUSH2 0xF34 JUMP JUMPDEST PUSH1 0x0 PUSH2 0x4EB PUSH2 0x258 TIMESTAMP PUSH2 0x1358 JUMP JUMPDEST PUSH2 0x4F6 SWAP1 PUSH1 0x1 PUSH2 0x137A JUMP JUMPDEST SWAP1 POP PUSH1 0x0 PUSH2 0x504 DUP5 DUP5 PUSH2 0xE6A JUMP JUMPDEST SWAP1 POP PUSH1 0x0 JUMPDEST DUP4 PUSH1 0xFF AND DUP2 PUSH1 0xFF AND LT ISZERO PUSH2 0x59E JUMPI DUP2 PUSH1 0x4 PUSH1 0x0 PUSH2 0x529 PUSH1 0xFF DUP6 AND DUP8 PUSH2 0x137A JUMP JUMPDEST DUP2 MSTORE PUSH1 0x20 ADD SWAP1 DUP2 MSTORE PUSH1 0x20 ADD PUSH1 0x0 KECCAK256 PUSH1 0x0 DUP3 DUP3 SLOAD PUSH2 0x546 SWAP2 SWAP1 PUSH2 0x137A JUMP JUMPDEST SWAP1 SWAP2 SSTORE POP POP CALLER PUSH1 0x0 SWAP1 DUP2 MSTORE PUSH1 0x2 PUSH1 0x20 MSTORE PUSH1 0x40 DUP2 KECCAK256 DUP4 SWAP2 PUSH2 0x569 PUSH1 0xFF DUP6 AND DUP8 PUSH2 0x137A JUMP JUMPDEST DUP2 MSTORE PUSH1 0x20 ADD SWAP1 DUP2 MSTORE PUSH1 0x20 ADD PUSH1 0x0 KECCAK256 PUSH1 0x0 DUP3 DUP3 SLOAD PUSH2 0x586 SWAP2 SWAP1 PUSH2 0x137A JUMP JUMPDEST SWAP1 SWAP2 SSTORE POP DUP2 SWAP1 POP PUSH2 0x596 DUP2 PUSH2 0x1393 JUMP JUMPDEST SWAP2 POP POP PUSH2 0x509 JUMP JUMPDEST POP PUSH1 0x40 MLOAD DUP1 PUSH1 0x80 ADD PUSH1 0x40 MSTORE DUP1 DUP6 DUP2 MSTORE PUSH1 0x20 ADD DUP3 DUP2 MSTORE PUSH1 0x20 ADD DUP4 DUP2 MSTORE PUSH1 0x20 ADD DUP5 PUSH1 0xFF AND DUP5 PUSH2 0x5CB SWAP2 SWAP1 PUSH2 0x137A JUMP JUMPDEST SWAP1 MSTORE PUSH1 0x7 SLOAD PUSH1 0x0 SWAP1 DUP2 MSTORE PUSH1 0x8 PUSH1 0x20 SWAP1 DUP2 MSTORE PUSH1 0x40 DUP1 DUP4 KECCAK256 DUP5 MLOAD DUP2 SSTORE DUP5 DUP4 ADD MLOAD PUSH1 0x1 DUP1 DUP4 ADD SWAP2 SWAP1 SWAP2 SSTORE DUP6 DUP4 ADD MLOAD PUSH1 0x2 DUP4 ADD SSTORE PUSH1 0x60 SWAP1 SWAP6 ADD MLOAD PUSH1 0x3 SWAP2 DUP3 ADD SSTORE CALLER DUP5 MSTORE SWAP1 SWAP2 MSTORE SWAP1 KECCAK256 SWAP1 DUP2 ADD SLOAD SWAP1 SLOAD SUB PUSH2 0x62D JUMPI CALLER PUSH1 0x0 SWAP1 DUP2 MSTORE PUSH1 0x3 PUSH1 0x20 MSTORE PUSH1 0x40 SWAP1 KECCAK256 DUP3 SWAP1 SSTORE JUMPDEST PUSH2 0x63A PUSH1 0xFF DUP5 AND DUP4 PUSH2 0x137A JUMP JUMPDEST CALLER PUSH1 0x0 SWAP1 DUP2 MSTORE PUSH1 0x3 PUSH1 0x20 MSTORE PUSH1 0x40 SWAP1 KECCAK256 PUSH1 0x1 ADD SLOAD LT ISZERO PUSH2 0x674 JUMPI PUSH2 0x660 PUSH1 0xFF DUP5 AND DUP4 PUSH2 0x137A JUMP JUMPDEST CALLER PUSH1 0x0 SWAP1 DUP2 MSTORE PUSH1 0x3 PUSH1 0x20 MSTORE PUSH1 0x40 SWAP1 KECCAK256 PUSH1 0x1 ADD SSTORE JUMPDEST CALLER PUSH1 0x0 DUP2 DUP2 MSTORE PUSH1 0x9 PUSH1 0x20 SWAP1 DUP2 MSTORE PUSH1 0x40 DUP1 DUP4 KECCAK256 PUSH1 0x7 DUP1 SLOAD DUP3 SLOAD PUSH1 0x1 DUP2 ADD DUP5 SSTORE SWAP3 DUP7 MSTORE SWAP5 DUP5 SWAP1 KECCAK256 SWAP1 SWAP2 ADD SWAP4 SWAP1 SWAP4 SSTORE SWAP2 SLOAD DUP3 MLOAD SWAP1 DUP2 MSTORE SWAP1 DUP2 ADD DUP8 SWAP1 MSTORE PUSH1 0xFF DUP7 AND DUP2 DUP4 ADD MSTORE SWAP1 MLOAD PUSH32 0x6FA2F6021EE337436CDF2B2570285886DA18BC06402CE284D296504A0FE8F875 SWAP2 DUP2 SWAP1 SUB PUSH1 0x60 ADD SWAP1 LOG2 PUSH1 0x7 DUP1 SLOAD SWAP1 PUSH1 0x0 PUSH2 0x6F1 DUP4 PUSH2 0x13C8 JUMP JUMPDEST SWAP2 SWAP1 POP SSTORE POP POP POP POP POP JUMP JUMPDEST PUSH1 0x0 DUP1 PUSH2 0x70B PUSH2 0x258 TIMESTAMP PUSH2 0x1358 JUMP JUMPDEST CALLER PUSH1 0x0 SWAP1 DUP2 MSTORE PUSH1 0x9 PUSH1 0x20 MSTORE PUSH1 0x40 DUP2 KECCAK256 SLOAD SWAP2 SWAP3 POP SWAP1 PUSH2 0x72B SWAP1 PUSH1 0x1 SWAP1 PUSH2 0x13E1 JUMP JUMPDEST SWAP1 POP JUMPDEST CALLER PUSH1 0x0 SWAP1 DUP2 MSTORE PUSH1 0x9 PUSH1 0x20 MSTORE PUSH1 0x40 DUP2 KECCAK256 DUP1 SLOAD DUP4 SWAP1 DUP2 LT PUSH2 0x74F JUMPI PUSH2 0x74F PUSH2 0x13B2 JUMP JUMPDEST SWAP1 PUSH1 0x0 MSTORE PUSH1 0x20 PUSH1 0x0 KECCAK256 ADD SLOAD SWAP1 POP DUP3 PUSH1 0x8 PUSH1 0x0 DUP4 DUP2 MSTORE PUSH1 0x20 ADD SWAP1 DUP2 MSTORE PUSH1 0x20 ADD PUSH1 0x0 KECCAK256 PUSH1 0x3 ADD SLOAD GT PUSH2 0x833 JUMPI PUSH1 0x0 DUP2 DUP2 MSTORE PUSH1 0x8 PUSH1 0x20 MSTORE PUSH1 0x40 SWAP1 KECCAK256 SLOAD PUSH2 0x792 SWAP1 DUP6 PUSH2 0x137A JUMP JUMPDEST CALLER PUSH1 0x0 SWAP1 DUP2 MSTORE PUSH1 0x9 PUSH1 0x20 MSTORE PUSH1 0x40 SWAP1 KECCAK256 DUP1 SLOAD SWAP2 SWAP6 POP SWAP1 PUSH2 0x7B3 SWAP1 PUSH1 0x1 SWAP1 PUSH2 0x13E1 JUMP JUMPDEST DUP2 SLOAD DUP2 LT PUSH2 0x7C3 JUMPI PUSH2 0x7C3 PUSH2 0x13B2 JUMP JUMPDEST PUSH1 0x0 SWAP2 DUP3 MSTORE PUSH1 0x20 DUP1 DUP4 KECCAK256 SWAP1 SWAP2 ADD SLOAD CALLER DUP4 MSTORE PUSH1 0x9 SWAP1 SWAP2 MSTORE PUSH1 0x40 SWAP1 SWAP2 KECCAK256 DUP1 SLOAD DUP5 SWAP1 DUP2 LT PUSH2 0x7F0 JUMPI PUSH2 0x7F0 PUSH2 0x13B2 JUMP JUMPDEST PUSH1 0x0 SWAP2 DUP3 MSTORE PUSH1 0x20 DUP1 DUP4 KECCAK256 SWAP1 SWAP2 ADD SWAP3 SWAP1 SWAP3 SSTORE CALLER DUP2 MSTORE PUSH1 0x9 SWAP1 SWAP2 MSTORE PUSH1 0x40 SWAP1 KECCAK256 DUP1 SLOAD DUP1 PUSH2 0x81C JUMPI PUSH2 0x81C PUSH2 0x13F4 JUMP JUMPDEST PUSH1 0x1 SWAP1 SUB DUP2 DUP2 SWAP1 PUSH1 0x0 MSTORE PUSH1 0x20 PUSH1 0x0 KECCAK256 ADD PUSH1 0x0 SWAP1 SSTORE SWAP1 SSTORE JUMPDEST POP DUP1 PUSH2 0x83E DUP2 PUSH2 0x140A JUMP JUMPDEST SWAP2 POP POP PUSH2 0x72E JUMP JUMPDEST PUSH1 0x0 PUSH1 0xFF PUSH32 0x0 AND PUSH2 0x878 PUSH2 0x258 TIMESTAMP PUSH2 0x1358 JUMP JUMPDEST PUSH2 0x882 SWAP2 SWAP1 PUSH2 0x13E1 JUMP JUMPDEST CALLER PUSH1 0x0 SWAP1 DUP2 MSTORE PUSH1 0x3 PUSH1 0x20 MSTORE PUSH1 0x40 DUP2 KECCAK256 SLOAD SWAP2 SWAP3 POP SWAP1 JUMPDEST CALLER PUSH1 0x0 SWAP1 DUP2 MSTORE PUSH1 0x3 PUSH1 0x20 MSTORE PUSH1 0x40 SWAP1 KECCAK256 PUSH1 0x1 ADD SLOAD DUP2 LT ISZERO PUSH2 0x933 JUMPI DUP3 DUP2 GT PUSH2 0x933 JUMPI PUSH2 0x8C3 DUP2 PUSH1 0x1 PUSH2 0x137A JUMP JUMPDEST CALLER PUSH1 0x0 SWAP1 DUP2 MSTORE PUSH1 0x3 PUSH1 0x20 MSTORE PUSH1 0x40 DUP2 KECCAK256 ADD SSTORE PUSH1 0x0 DUP2 DUP2 MSTORE PUSH1 0x4 PUSH1 0x20 SWAP1 DUP2 MSTORE PUSH1 0x40 DUP1 DUP4 KECCAK256 SLOAD CALLER DUP5 MSTORE PUSH1 0x2 DUP4 MSTORE DUP2 DUP5 KECCAK256 DUP6 DUP6 MSTORE DUP4 MSTORE DUP2 DUP5 KECCAK256 SLOAD PUSH1 0x5 SWAP1 SWAP4 MSTORE SWAP3 KECCAK256 SLOAD PUSH2 0x90B SWAP2 SWAP1 PUSH2 0x1421 JUMP JUMPDEST PUSH2 0x915 SWAP2 SWAP1 PUSH2 0x1358 JUMP JUMPDEST PUSH2 0x91F SWAP1 DUP4 PUSH2 0x137A JUMP JUMPDEST SWAP2 POP DUP1 PUSH2 0x92B DUP2 PUSH2 0x13C8 JUMP JUMPDEST SWAP2 POP POP PUSH2 0x897 JUMP JUMPDEST POP PUSH2 0x95F PUSH32 0x0 CALLER DUP4 PUSH2 0x104E JUMP JUMPDEST PUSH1 0x40 MLOAD DUP2 DUP2 MSTORE CALLER SWAP1 PUSH32 0xBA8DE60C3403EC381D1D484652EA1980E3C3E56359195C92525BFF4CE47AD98E SWAP1 PUSH1 0x20 ADD JUMPDEST PUSH1 0x40 MLOAD DUP1 SWAP2 SUB SWAP1 LOG2 POP POP JUMP JUMPDEST PUSH1 0x0 SLOAD PUSH1 0x1 PUSH1 0x1 PUSH1 0xA0 SHL SUB AND CALLER EQ PUSH2 0x9C3 JUMPI PUSH1 0x40 MLOAD PUSH3 0x461BCD PUSH1 0xE5 SHL DUP2 MSTORE PUSH1 0x4 ADD PUSH2 0x4A8 SWAP1 PUSH2 0x1438 JUMP JUMPDEST PUSH1 0x1 DUP1 SLOAD PUSH1 0x1 PUSH1 0x1 PUSH1 0xA0 SHL SUB NOT AND PUSH1 0x1 PUSH1 0x1 PUSH1 0xA0 SHL SUB SWAP3 SWAP1 SWAP3 AND SWAP2 SWAP1 SWAP2 OR SWAP1 SSTORE JUMP JUMPDEST PUSH1 0x1 SLOAD PUSH1 0x1 PUSH1 0x1 PUSH1 0xA0 SHL SUB AND CALLER EQ PUSH2 0xA0F JUMPI PUSH1 0x40 MLOAD PUSH3 0x461BCD PUSH1 0xE5 SHL DUP2 MSTORE PUSH1 0x4 ADD PUSH2 0x4A8 SWAP1 PUSH2 0x1438 JUMP JUMPDEST PUSH1 0x1 DUP1 SLOAD PUSH1 0x0 DUP1 SLOAD PUSH1 0x1 PUSH1 0x1 PUSH1 0xA0 SHL SUB NOT SWAP1 DUP2 AND PUSH1 0x1 PUSH1 0x1 PUSH1 0xA0 SHL SUB DUP5 AND OR SWAP1 SWAP2 SSTORE AND SWAP1 SSTORE JUMP JUMPDEST PUSH1 0x0 DUP1 DUP1 PUSH2 0xA46 PUSH2 0x258 TIMESTAMP PUSH2 0x1358 JUMP JUMPDEST SWAP1 POP PUSH1 0x0 JUMPDEST CALLER PUSH1 0x0 SWAP1 DUP2 MSTORE PUSH1 0x9 PUSH1 0x20 MSTORE PUSH1 0x40 SWAP1 KECCAK256 SLOAD DUP2 LT ISZERO PUSH2 0xADF JUMPI CALLER PUSH1 0x0 SWAP1 DUP2 MSTORE PUSH1 0x9 PUSH1 0x20 MSTORE PUSH1 0x40 DUP2 KECCAK256 DUP1 SLOAD DUP4 SWAP1 DUP2 LT PUSH2 0xA83 JUMPI PUSH2 0xA83 PUSH2 0x13B2 JUMP JUMPDEST PUSH1 0x0 SWAP2 DUP3 MSTORE PUSH1 0x20 DUP1 DUP4 KECCAK256 SWAP1 SWAP2 ADD SLOAD DUP1 DUP4 MSTORE PUSH1 0x8 SWAP1 SWAP2 MSTORE PUSH1 0x40 SWAP1 SWAP2 KECCAK256 DUP1 SLOAD PUSH1 0x3 SWAP1 SWAP2 ADD SLOAD SWAP2 SWAP3 POP SWAP1 DUP5 LT ISZERO PUSH2 0xABE JUMPI PUSH2 0xABB DUP2 DUP7 PUSH2 0x137A JUMP JUMPDEST SWAP5 POP JUMPDEST PUSH2 0xAC8 DUP2 DUP8 PUSH2 0x137A JUMP JUMPDEST SWAP6 POP POP POP DUP1 DUP1 PUSH2 0xAD7 SWAP1 PUSH2 0x13C8 JUMP JUMPDEST SWAP2 POP POP PUSH2 0xA4B JUMP JUMPDEST POP POP SWAP1 SWAP2 JUMP JUMPDEST PUSH1 0x0 DUP1 PUSH1 0xFF PUSH32 0x0 AND PUSH2 0xB18 PUSH2 0x258 TIMESTAMP PUSH2 0x1358 JUMP JUMPDEST PUSH2 0xB22 SWAP2 SWAP1 PUSH2 0x13E1 JUMP JUMPDEST CALLER PUSH1 0x0 SWAP1 DUP2 MSTORE PUSH1 0x3 PUSH1 0x20 MSTORE PUSH1 0x40 DUP2 KECCAK256 SLOAD SWAP2 SWAP3 POP SWAP1 JUMPDEST CALLER PUSH1 0x0 SWAP1 DUP2 MSTORE PUSH1 0x3 PUSH1 0x20 MSTORE PUSH1 0x40 SWAP1 KECCAK256 PUSH1 0x1 ADD SLOAD DUP2 LT ISZERO PUSH2 0xBB7 JUMPI DUP3 DUP2 GT PUSH2 0xBB7 JUMPI PUSH1 0x0 DUP2 DUP2 MSTORE PUSH1 0x4 PUSH1 0x20 SWAP1 DUP2 MSTORE PUSH1 0x40 DUP1 DUP4 KECCAK256 SLOAD CALLER DUP5 MSTORE PUSH1 0x2 DUP4 MSTORE DUP2 DUP5 KECCAK256 DUP6 DUP6 MSTORE DUP4 MSTORE DUP2 DUP5 KECCAK256 SLOAD PUSH1 0x5 SWAP1 SWAP4 MSTORE SWAP3 KECCAK256 SLOAD PUSH2 0xB8F SWAP2 SWAP1 PUSH2 0x1421 JUMP JUMPDEST PUSH2 0xB99 SWAP2 SWAP1 PUSH2 0x1358 JUMP JUMPDEST PUSH2 0xBA3 SWAP1 DUP4 PUSH2 0x137A JUMP JUMPDEST SWAP2 POP DUP1 PUSH2 0xBAF DUP2 PUSH2 0x13C8 JUMP JUMPDEST SWAP2 POP POP PUSH2 0xB37 JUMP JUMPDEST POP SWAP3 SWAP2 POP POP JUMP JUMPDEST PUSH1 0x0 DUP1 SLOAD PUSH1 0x1 PUSH1 0x1 PUSH1 0xA0 SHL SUB AND CALLER EQ PUSH2 0xBE9 JUMPI PUSH1 0x40 MLOAD PUSH3 0x461BCD PUSH1 0xE5 SHL DUP2 MSTORE PUSH1 0x4 ADD PUSH2 0x4A8 SWAP1 PUSH2 0x1438 JUMP JUMPDEST PUSH1 0x0 JUMPDEST DUP4 MLOAD DUP2 LT ISZERO PUSH2 0xC79 JUMPI DUP3 DUP2 DUP2 MLOAD DUP2 LT PUSH2 0xC07 JUMPI PUSH2 0xC07 PUSH2 0x13B2 JUMP JUMPDEST PUSH1 0x20 MUL PUSH1 0x20 ADD ADD MLOAD DUP3 PUSH2 0xC1A SWAP2 SWAP1 PUSH2 0x137A JUMP JUMPDEST SWAP2 POP DUP3 DUP2 DUP2 MLOAD DUP2 LT PUSH2 0xC2E JUMPI PUSH2 0xC2E PUSH2 0x13B2 JUMP JUMPDEST PUSH1 0x20 MUL PUSH1 0x20 ADD ADD MLOAD PUSH1 0x5 PUSH1 0x0 DUP7 DUP5 DUP2 MLOAD DUP2 LT PUSH2 0xC4C JUMPI PUSH2 0xC4C PUSH2 0x13B2 JUMP JUMPDEST PUSH1 0x20 MUL PUSH1 0x20 ADD ADD MLOAD DUP2 MSTORE PUSH1 0x20 ADD SWAP1 DUP2 MSTORE PUSH1 0x20 ADD PUSH1 0x0 KECCAK256 DUP2 SWAP1 SSTORE POP DUP1 DUP1 PUSH2 0xC71 SWAP1 PUSH2 0x13C8 JUMP JUMPDEST SWAP2 POP POP PUSH2 0xBEC JUMP JUMPDEST POP PUSH1 0x0 DUP4 MLOAD GT DUP1 ISZERO PUSH2 0xCB2 JUMPI POP PUSH1 0x6 SLOAD DUP4 PUSH1 0x1 DUP6 MLOAD PUSH2 0xC98 SWAP2 SWAP1 PUSH2 0x13E1 JUMP JUMPDEST DUP2 MLOAD DUP2 LT PUSH2 0xCA8 JUMPI PUSH2 0xCA8 PUSH2 0x13B2 JUMP JUMPDEST PUSH1 0x20 MUL PUSH1 0x20 ADD ADD MLOAD GT JUMPDEST ISZERO PUSH2 0xCE5 JUMPI DUP3 PUSH1 0x1 DUP5 MLOAD PUSH2 0xCC6 SWAP2 SWAP1 PUSH2 0x13E1 JUMP JUMPDEST DUP2 MLOAD DUP2 LT PUSH2 0xCD6 JUMPI PUSH2 0xCD6 PUSH2 0x13B2 JUMP JUMPDEST PUSH1 0x20 MUL PUSH1 0x20 ADD ADD MLOAD PUSH1 0x6 DUP2 SWAP1 SSTORE POP JUMPDEST PUSH2 0xD11 PUSH32 0x0 CALLER ADDRESS DUP5 PUSH2 0xF34 JUMP JUMPDEST PUSH1 0x40 DUP1 MLOAD PUSH1 0x0 DUP2 MSTORE PUSH1 0x20 DUP2 ADD DUP4 SWAP1 MSTORE CALLER SWAP2 PUSH32 0xC3991418CACD70A010FCE559A44FCBB47534CA43BF7543964BDCA2639F6E6E5A SWAP2 ADD PUSH1 0x40 MLOAD DUP1 SWAP2 SUB SWAP1 LOG2 SWAP3 SWAP2 POP POP JUMP JUMPDEST PUSH1 0x0 SLOAD PUSH1 0x1 PUSH1 0x1 PUSH1 0xA0 SHL SUB AND CALLER EQ PUSH2 0xD7D JUMPI PUSH1 0x40 MLOAD PUSH3 0x461BCD PUSH1 0xE5 SHL DUP2 MSTORE PUSH1 0x4 ADD PUSH2 0x4A8 SWAP1 PUSH2 0x1438 JUMP JUMPDEST PUSH2 0xDA9 PUSH32 0x0 CALLER ADDRESS DUP5 PUSH2 0xF34 JUMP JUMPDEST PUSH1 0x0 DUP3 DUP2 MSTORE PUSH1 0x5 PUSH1 0x20 MSTORE PUSH1 0x40 DUP2 KECCAK256 DUP1 SLOAD DUP4 SWAP3 SWAP1 PUSH2 0xDC7 SWAP1 DUP5 SWAP1 PUSH2 0x137A JUMP JUMPDEST SWAP1 SWAP2 SSTORE POP POP PUSH1 0x6 SLOAD DUP3 GT ISZERO PUSH2 0xDDC JUMPI PUSH1 0x6 DUP3 SWAP1 SSTORE JUMPDEST PUSH1 0x40 DUP1 MLOAD DUP4 DUP2 MSTORE PUSH1 0x20 DUP2 ADD DUP4 SWAP1 MSTORE CALLER SWAP2 PUSH32 0xC3991418CACD70A010FCE559A44FCBB47534CA43BF7543964BDCA2639F6E6E5A SWAP2 ADD PUSH2 0x98D JUMP JUMPDEST PUSH1 0x9 PUSH1 0x20 MSTORE DUP2 PUSH1 0x0 MSTORE PUSH1 0x40 PUSH1 0x0 KECCAK256 DUP2 DUP2 SLOAD DUP2 LT PUSH2 0xE30 JUMPI PUSH1 0x0 DUP1 REVERT JUMPDEST SWAP1 PUSH1 0x0 MSTORE PUSH1 0x20 PUSH1 0x0 KECCAK256 ADD PUSH1 0x0 SWAP2 POP SWAP2 POP POP SLOAD DUP2 JUMP JUMPDEST PUSH1 0x3 PUSH1 0x20 MSTORE DUP2 PUSH1 0x0 MSTORE PUSH1 0x40 PUSH1 0x0 KECCAK256 DUP2 PUSH1 0x2 DUP2 LT PUSH2 0xE61 JUMPI PUSH1 0x0 DUP1 REVERT JUMPDEST ADD SLOAD SWAP2 POP DUP3 SWAP1 POP JUMP JUMPDEST PUSH1 0x0 PUSH2 0xE97 PUSH1 0x1 PUSH32 0x0 PUSH2 0x145B JUMP JUMPDEST PUSH1 0xFF AND PUSH1 0x1 PUSH32 0x0 PUSH1 0xFF AND PUSH1 0x1 DUP6 PUSH2 0xECD SWAP2 SWAP1 PUSH2 0x145B JUMP JUMPDEST PUSH1 0xFF AND PUSH2 0xEFB PUSH1 0x1 PUSH32 0x0 PUSH2 0x13E1 JUMP JUMPDEST PUSH2 0xF05 SWAP2 SWAP1 PUSH2 0x1421 JUMP JUMPDEST PUSH2 0xF0F SWAP2 SWAP1 PUSH2 0x137A JUMP JUMPDEST PUSH2 0xF19 SWAP2 SWAP1 PUSH2 0x13E1 JUMP JUMPDEST PUSH2 0xF23 SWAP1 DUP6 PUSH2 0x1421 JUMP JUMPDEST PUSH2 0xF2D SWAP2 SWAP1 PUSH2 0x1358 JUMP JUMPDEST SWAP4 SWAP3 POP POP POP JUMP JUMPDEST PUSH1 0x40 DUP1 MLOAD PUSH1 0x1 PUSH1 0x1 PUSH1 0xA0 SHL SUB DUP6 DUP2 AND PUSH1 0x24 DUP4 ADD MSTORE DUP5 DUP2 AND PUSH1 0x44 DUP4 ADD MSTORE PUSH1 0x64 DUP1 DUP4 ADD DUP6 SWAP1 MSTORE DUP4 MLOAD DUP1 DUP5 SUB SWAP1 SWAP2 ADD DUP2 MSTORE PUSH1 0x84 SWAP1 SWAP3 ADD DUP4 MSTORE PUSH1 0x20 DUP3 ADD DUP1 MLOAD PUSH1 0x1 PUSH1 0x1 PUSH1 0xE0 SHL SUB AND PUSH4 0x23B872DD PUSH1 0xE0 SHL OR SWAP1 MSTORE SWAP2 MLOAD PUSH1 0x0 SWAP3 DUP4 SWAP3 SWAP1 DUP9 AND SWAP2 PUSH2 0xF98 SWAP2 SWAP1 PUSH2 0x1474 JUMP JUMPDEST PUSH1 0x0 PUSH1 0x40 MLOAD DUP1 DUP4 SUB DUP2 PUSH1 0x0 DUP7 GAS CALL SWAP2 POP POP RETURNDATASIZE DUP1 PUSH1 0x0 DUP2 EQ PUSH2 0xFD5 JUMPI PUSH1 0x40 MLOAD SWAP2 POP PUSH1 0x1F NOT PUSH1 0x3F RETURNDATASIZE ADD AND DUP3 ADD PUSH1 0x40 MSTORE RETURNDATASIZE DUP3 MSTORE RETURNDATASIZE PUSH1 0x0 PUSH1 0x20 DUP5 ADD RETURNDATACOPY PUSH2 0xFDA JUMP JUMPDEST PUSH1 0x60 SWAP2 POP JUMPDEST POP SWAP2 POP SWAP2 POP DUP2 DUP1 ISZERO PUSH2 0x1004 JUMPI POP DUP1 MLOAD ISZERO DUP1 PUSH2 0x1004 JUMPI POP DUP1 DUP1 PUSH1 0x20 ADD SWAP1 MLOAD DUP2 ADD SWAP1 PUSH2 0x1004 SWAP2 SWAP1 PUSH2 0x14A3 JUMP JUMPDEST PUSH2 0x1046 JUMPI PUSH1 0x40 MLOAD PUSH3 0x461BCD PUSH1 0xE5 SHL DUP2 MSTORE PUSH1 0x20 PUSH1 0x4 DUP3 ADD MSTORE PUSH1 0x13 PUSH1 0x24 DUP3 ADD MSTORE PUSH19 0x1D1C985B9CD9995C919C9BDB4819985A5B1959 PUSH1 0x6A SHL PUSH1 0x44 DUP3 ADD MSTORE PUSH1 0x64 ADD PUSH2 0x4A8 JUMP JUMPDEST POP POP POP POP POP POP JUMP JUMPDEST PUSH1 0x40 DUP1 MLOAD PUSH1 0x1 PUSH1 0x1 PUSH1 0xA0 SHL SUB DUP5 DUP2 AND PUSH1 0x24 DUP4 ADD MSTORE PUSH1 0x44 DUP1 DUP4 ADD DUP6 SWAP1 MSTORE DUP4 MLOAD DUP1 DUP5 SUB SWAP1 SWAP2 ADD DUP2 MSTORE PUSH1 0x64 SWAP1 SWAP3 ADD DUP4 MSTORE PUSH1 0x20 DUP3 ADD DUP1 MLOAD PUSH1 0x1 PUSH1 0x1 PUSH1 0xE0 SHL SUB AND PUSH4 0xA9059CBB PUSH1 0xE0 SHL OR SWAP1 MSTORE SWAP2 MLOAD PUSH1 0x0 SWAP3 DUP4 SWAP3 SWAP1 DUP8 AND SWAP2 PUSH2 0x10AA SWAP2 SWAP1 PUSH2 0x1474 JUMP JUMPDEST PUSH1 0x0 PUSH1 0x40 MLOAD DUP1 DUP4 SUB DUP2 PUSH1 0x0 DUP7 GAS CALL SWAP2 POP POP RETURNDATASIZE DUP1 PUSH1 0x0 DUP2 EQ PUSH2 0x10E7 JUMPI PUSH1 0x40 MLOAD SWAP2 POP PUSH1 0x1F NOT PUSH1 0x3F RETURNDATASIZE ADD AND DUP3 ADD PUSH1 0x40 MSTORE RETURNDATASIZE DUP3 MSTORE RETURNDATASIZE PUSH1 0x0 PUSH1 0x20 DUP5 ADD RETURNDATACOPY PUSH2 0x10EC JUMP JUMPDEST PUSH1 0x60 SWAP2 POP JUMPDEST POP SWAP2 POP SWAP2 POP DUP2 DUP1 ISZERO PUSH2 0x1116 JUMPI POP DUP1 MLOAD ISZERO DUP1 PUSH2 0x1116 JUMPI POP DUP1 DUP1 PUSH1 0x20 ADD SWAP1 MLOAD DUP2 ADD SWAP1 PUSH2 0x1116 SWAP2 SWAP1 PUSH2 0x14A3 JUMP JUMPDEST PUSH2 0x1154 JUMPI PUSH1 0x40 MLOAD PUSH3 0x461BCD PUSH1 0xE5 SHL DUP2 MSTORE PUSH1 0x20 PUSH1 0x4 DUP3 ADD MSTORE PUSH1 0xF PUSH1 0x24 DUP3 ADD MSTORE PUSH15 0x1514905394D1915497D19052531151 PUSH1 0x8A SHL PUSH1 0x44 DUP3 ADD MSTORE PUSH1 0x64 ADD PUSH2 0x4A8 JUMP JUMPDEST POP POP POP POP POP JUMP JUMPDEST PUSH1 0x0 PUSH1 0x20 DUP3 DUP5 SUB SLT ISZERO PUSH2 0x116D JUMPI PUSH1 0x0 DUP1 REVERT JUMPDEST POP CALLDATALOAD SWAP2 SWAP1 POP JUMP JUMPDEST PUSH1 0x0 DUP1 PUSH1 0x40 DUP4 DUP6 SUB SLT ISZERO PUSH2 0x1187 JUMPI PUSH1 0x0 DUP1 REVERT JUMPDEST DUP3 CALLDATALOAD SWAP2 POP PUSH1 0x20 DUP4 ADD CALLDATALOAD PUSH1 0xFF DUP2 AND DUP2 EQ PUSH2 0x119F JUMPI PUSH1 0x0 DUP1 REVERT JUMPDEST DUP1 SWAP2 POP POP SWAP3 POP SWAP3 SWAP1 POP JUMP JUMPDEST DUP1 CALLDATALOAD PUSH1 0x1 PUSH1 0x1 PUSH1 0xA0 SHL SUB DUP2 AND DUP2 EQ PUSH2 0x11C1 JUMPI PUSH1 0x0 DUP1 REVERT JUMPDEST SWAP2 SWAP1 POP JUMP JUMPDEST PUSH1 0x0 PUSH1 0x20 DUP3 DUP5 SUB SLT ISZERO PUSH2 0x11D8 JUMPI PUSH1 0x0 DUP1 REVERT JUMPDEST PUSH2 0xF2D DUP3 PUSH2 0x11AA JUMP JUMPDEST PUSH1 0x0 DUP1 PUSH1 0x40 DUP4 DUP6 SUB SLT ISZERO PUSH2 0x11F4 JUMPI PUSH1 0x0 DUP1 REVERT JUMPDEST PUSH2 0x11FD DUP4 PUSH2 0x11AA JUMP JUMPDEST SWAP5 PUSH1 0x20 SWAP4 SWAP1 SWAP4 ADD CALLDATALOAD SWAP4 POP POP POP JUMP JUMPDEST PUSH4 0x4E487B71 PUSH1 0xE0 SHL PUSH1 0x0 MSTORE PUSH1 0x41 PUSH1 0x4 MSTORE PUSH1 0x24 PUSH1 0x0 REVERT JUMPDEST PUSH1 0x0 DUP3 PUSH1 0x1F DUP4 ADD SLT PUSH2 0x1232 JUMPI PUSH1 0x0 DUP1 REVERT JUMPDEST DUP2 CALLDATALOAD PUSH1 0x20 PUSH8 0xFFFFFFFFFFFFFFFF DUP1 DUP4 GT ISZERO PUSH2 0x124F JUMPI PUSH2 0x124F PUSH2 0x120B JUMP JUMPDEST DUP3 PUSH1 0x5 SHL PUSH1 0x40 MLOAD PUSH1 0x1F NOT PUSH1 0x3F DUP4 ADD AND DUP2 ADD DUP2 DUP2 LT DUP5 DUP3 GT OR ISZERO PUSH2 0x1274 JUMPI PUSH2 0x1274 PUSH2 0x120B JUMP JUMPDEST PUSH1 0x40 MSTORE SWAP4 DUP5 MSTORE DUP6 DUP2 ADD DUP4 ADD SWAP4 DUP4 DUP2 ADD SWAP3 POP DUP8 DUP6 GT ISZERO PUSH2 0x1292 JUMPI PUSH1 0x0 DUP1 REVERT JUMPDEST DUP4 DUP8 ADD SWAP2 POP JUMPDEST DUP5 DUP3 LT ISZERO PUSH2 0x12B1 JUMPI DUP2 CALLDATALOAD DUP4 MSTORE SWAP2 DUP4 ADD SWAP2 SWAP1 DUP4 ADD SWAP1 PUSH2 0x1298 JUMP JUMPDEST SWAP8 SWAP7 POP POP POP POP POP POP POP JUMP JUMPDEST PUSH1 0x0 DUP1 PUSH1 0x40 DUP4 DUP6 SUB SLT ISZERO PUSH2 0x12CF JUMPI PUSH1 0x0 DUP1 REVERT JUMPDEST DUP3 CALLDATALOAD PUSH8 0xFFFFFFFFFFFFFFFF DUP1 DUP3 GT ISZERO PUSH2 0x12E7 JUMPI PUSH1 0x0 DUP1 REVERT JUMPDEST PUSH2 0x12F3 DUP7 DUP4 DUP8 ADD PUSH2 0x1221 JUMP JUMPDEST SWAP4 POP PUSH1 0x20 DUP6 ADD CALLDATALOAD SWAP2 POP DUP1 DUP3 GT ISZERO PUSH2 0x1309 JUMPI PUSH1 0x0 DUP1 REVERT JUMPDEST POP PUSH2 0x1316 DUP6 DUP3 DUP7 ADD PUSH2 0x1221 JUMP JUMPDEST SWAP2 POP POP SWAP3 POP SWAP3 SWAP1 POP JUMP JUMPDEST PUSH1 0x0 DUP1 PUSH1 0x40 DUP4 DUP6 SUB SLT ISZERO PUSH2 0x1333 JUMPI PUSH1 0x0 DUP1 REVERT JUMPDEST POP POP DUP1 CALLDATALOAD SWAP3 PUSH1 0x20 SWAP1 SWAP2 ADD CALLDATALOAD SWAP2 POP JUMP JUMPDEST PUSH4 0x4E487B71 PUSH1 0xE0 SHL PUSH1 0x0 MSTORE PUSH1 0x11 PUSH1 0x4 MSTORE PUSH1 0x24 PUSH1 0x0 REVERT JUMPDEST PUSH1 0x0 DUP3 PUSH2 0x1375 JUMPI PUSH4 0x4E487B71 PUSH1 0xE0 SHL PUSH1 0x0 MSTORE PUSH1 0x12 PUSH1 0x4 MSTORE PUSH1 0x24 PUSH1 0x0 REVERT JUMPDEST POP DIV SWAP1 JUMP JUMPDEST DUP1 DUP3 ADD DUP1 DUP3 GT ISZERO PUSH2 0x138D JUMPI PUSH2 0x138D PUSH2 0x1342 JUMP JUMPDEST SWAP3 SWAP2 POP POP JUMP JUMPDEST PUSH1 0x0 PUSH1 0xFF DUP3 AND PUSH1 0xFF DUP2 SUB PUSH2 0x13A9 JUMPI PUSH2 0x13A9 PUSH2 0x1342 JUMP JUMPDEST PUSH1 0x1 ADD SWAP3 SWAP2 POP POP JUMP JUMPDEST PUSH4 0x4E487B71 PUSH1 0xE0 SHL PUSH1 0x0 MSTORE PUSH1 0x32 PUSH1 0x4 MSTORE PUSH1 0x24 PUSH1 0x0 REVERT JUMPDEST PUSH1 0x0 PUSH1 0x1 DUP3 ADD PUSH2 0x13DA JUMPI PUSH2 0x13DA PUSH2 0x1342 JUMP JUMPDEST POP PUSH1 0x1 ADD SWAP1 JUMP JUMPDEST DUP2 DUP2 SUB DUP2 DUP2 GT ISZERO PUSH2 0x138D JUMPI PUSH2 0x138D PUSH2 0x1342 JUMP JUMPDEST PUSH4 0x4E487B71 PUSH1 0xE0 SHL PUSH1 0x0 MSTORE PUSH1 0x31 PUSH1 0x4 MSTORE PUSH1 0x24 PUSH1 0x0 REVERT JUMPDEST PUSH1 0x0 DUP2 PUSH2 0x1419 JUMPI PUSH2 0x1419 PUSH2 0x1342 JUMP JUMPDEST POP PUSH1 0x0 NOT ADD SWAP1 JUMP JUMPDEST DUP1 DUP3 MUL DUP2 ISZERO DUP3 DUP3 DIV DUP5 EQ OR PUSH2 0x138D JUMPI PUSH2 0x138D PUSH2 0x1342 JUMP JUMPDEST PUSH1 0x20 DUP1 DUP3 MSTORE PUSH1 0x9 SWAP1 DUP3 ADD MSTORE PUSH9 0x3337B93134B23232B7 PUSH1 0xB9 SHL PUSH1 0x40 DUP3 ADD MSTORE PUSH1 0x60 ADD SWAP1 JUMP JUMPDEST PUSH1 0xFF DUP3 DUP2 AND DUP3 DUP3 AND SUB SWAP1 DUP2 GT ISZERO PUSH2 0x138D JUMPI PUSH2 0x138D PUSH2 0x1342 JUMP JUMPDEST PUSH1 0x0 DUP3 MLOAD PUSH1 0x0 JUMPDEST DUP2 DUP2 LT ISZERO PUSH2 0x1495 JUMPI PUSH1 0x20 DUP2 DUP7 ADD DUP2 ADD MLOAD DUP6 DUP4 ADD MSTORE ADD PUSH2 0x147B JUMP JUMPDEST POP PUSH1 0x0 SWAP3 ADD SWAP2 DUP3 MSTORE POP SWAP2 SWAP1 POP JUMP JUMPDEST PUSH1 0x0 PUSH1 0x20 DUP3 DUP5 SUB SLT ISZERO PUSH2 0x14B5 JUMPI PUSH1 0x0 DUP1 REVERT JUMPDEST DUP2 MLOAD DUP1 ISZERO ISZERO DUP2 EQ PUSH2 0xF2D JUMPI PUSH1 0x0 DUP1 REVERT INVALID LOG2 PUSH5 0x6970667358 0x22 SLT KECCAK256 0xBE 0x25 PUSH2 0x5332 0xAD SWAP12 0xDD 0xC2 SWAP6 0xB0 CALL SWAP13 0x49 SGT 0xD7 PUSH4 0xE3596DE 0xB5 PUSH27 0x8713D98938BF3C766F64736F6C6343000811003300000000000000 "},"methodIdentifiers":{"LOCK_WEEKNUM()":"0d437d40","MAX_SCALE()":"f6def7cf","MAX_WEEKS()":"e11400bb","WEEK_SECONDS()":"cd671a58","acceptSetter()":"5f8e422f","canClaimAmount()":"8431165e","claim()":"4e71d92d","getScore(uint256,uint8)":"ee3453ed","getStaking()":"7b1391a6","latestNo()":"29ed1cfd","lpToken()":"5fcbd285","nonce()":"affed0e0","owner()":"8da5cb5b","rewardToken()":"f7c618c1","rewardsOf(uint256)":"0bce1284","setReward(uint256,uint256)":"a47bd496","setRewards(uint256[],uint256[])":"979db1c4","stake(uint256,uint8)":"10087fb1","stakingERC20s(uint256)":"a218de15","totalScores(uint256)":"157775df","transferOwner(address)":"4fb2e45d","userCanClaimWeeks(address,uint256)":"bb57852d","userERC20s(address,uint256)":"ba086501","userScores(address,uint256)":"5b680a45","withdraw()":"3ccfd60b"}}}}}