{"contracts/stakeERC20.sol":{"StakeERC20":{"abi":[{"inputs":[{"internalType":"uint8","name":"maxWeeks","type":"uint8"},{"internalType":"uint256","name":"maxScale","type":"uint256"},{"internalType":"uint8","name":"lockWeeks","type":"uint8"},{"internalType":"address","name":"_rewardToken","type":"address"},{"internalType":"address","name":"_lpToken","type":"address"}],"stateMutability":"nonpayable","type":"constructor"},{"anonymous":false,"inputs":[{"indexed":true,"internalType":"address","name":"user","type":"address"},{"indexed":false,"internalType":"uint256","name":"amount","type":"uint256"}],"name":"ClaimReward","type":"event"},{"anonymous":false,"inputs":[{"indexed":true,"internalType":"address","name":"user","type":"address"},{"indexed":false,"internalType":"uint256","name":"no","type":"uint256"},{"indexed":false,"internalType":"uint256","name":"amount","type":"uint256"}],"name":"SetReward","type":"event"},{"anonymous":false,"inputs":[{"indexed":true,"internalType":"address","name":"user","type":"address"},{"indexed":false,"internalType":"uint256","name":"id","type":"uint256"},{"indexed":false,"internalType":"uint256","name":"amount","type":"uint256"},{"indexed":false,"internalType":"uint8","name":"k","type":"uint8"}],"name":"Stake","type":"event"},{"anonymous":false,"inputs":[{"indexed":true,"internalType":"address","name":"user","type":"address"},{"indexed":false,"internalType":"uint256","name":"amount","type":"uint256"}],"name":"Withdraw","type":"event"},{"inputs":[],"name":"LOCK_WEEKNUM","outputs":[{"internalType":"uint8","name":"","type":"uint8"}],"stateMutability":"view","type":"function"},{"inputs":[],"name":"MAX_SCALE","outputs":[{"internalType":"uint256","name":"","type":"uint256"}],"stateMutability":"view","type":"function"},{"inputs":[],"name":"MAX_WEEKS","outputs":[{"internalType":"uint8","name":"","type":"uint8"}],"stateMutability":"view","type":"function"},{"inputs":[],"name":"WEEK_SECONDS","outputs":[{"internalType":"uint24","name":"","type":"uint24"}],"stateMutability":"view","type":"function"},{"inputs":[],"name":"acceptSetter","outputs":[],"stateMutability":"nonpayable","type":"function"},{"inputs":[],"name":"canClaimAmount","outputs":[{"internalType":"uint256","name":"","type":"uint256"}],"stateMutability":"view","type":"function"},{"inputs":[],"name":"claimReward","outputs":[],"stateMutability":"nonpayable","type":"function"},{"inputs":[{"internalType":"uint256","name":"amount","type":"uint256"},{"internalType":"uint8","name":"k","type":"uint8"}],"name":"getScore","outputs":[{"internalType":"uint256","name":"score","type":"uint256"}],"stateMutability":"view","type":"function"},{"inputs":[],"name":"getStaking","outputs":[{"components":[{"internalType":"uint256","name":"amount","type":"uint256"},{"internalType":"uint256","name":"score","type":"uint256"},{"internalType":"uint256","name":"beginNo","type":"uint256"},{"internalType":"uint256","name":"endNo","type":"uint256"}],"internalType":"struct StakeERC20.StakingERC20[]","name":"","type":"tuple[]"}],"stateMutability":"view","type":"function"},{"inputs":[],"name":"latestNo","outputs":[{"internalType":"uint256","name":"","type":"uint256"}],"stateMutability":"view","type":"function"},{"inputs":[],"name":"lpToken","outputs":[{"internalType":"address","name":"","type":"address"}],"stateMutability":"view","type":"function"},{"inputs":[],"name":"nonce","outputs":[{"internalType":"uint256","name":"","type":"uint256"}],"stateMutability":"view","type":"function"},{"inputs":[],"name":"owner","outputs":[{"internalType":"address","name":"","type":"address"}],"stateMutability":"view","type":"function"},{"inputs":[],"name":"rewardToken","outputs":[{"internalType":"address","name":"","type":"address"}],"stateMutability":"view","type":"function"},{"inputs":[{"internalType":"uint256","name":"","type":"uint256"}],"name":"rewardsOf","outputs":[{"internalType":"uint256","name":"","type":"uint256"}],"stateMutability":"view","type":"function"},{"inputs":[{"internalType":"uint256","name":"no","type":"uint256"},{"internalType":"uint256","name":"amount","type":"uint256"}],"name":"setReward","outputs":[],"stateMutability":"nonpayable","type":"function"},{"inputs":[{"internalType":"uint256[]","name":"nos","type":"uint256[]"},{"internalType":"uint256[]","name":"amounts","type":"uint256[]"}],"name":"setRewards","outputs":[{"internalType":"uint256","name":"total","type":"uint256"}],"stateMutability":"nonpayable","type":"function"},{"inputs":[{"internalType":"uint256","name":"amount","type":"uint256"},{"internalType":"uint8","name":"k","type":"uint8"}],"name":"stake","outputs":[],"stateMutability":"nonpayable","type":"function"},{"inputs":[{"internalType":"uint256","name":"","type":"uint256"}],"name":"stakingERC20s","outputs":[{"internalType":"uint256","name":"amount","type":"uint256"},{"internalType":"uint256","name":"score","type":"uint256"},{"internalType":"uint256","name":"beginNo","type":"uint256"},{"internalType":"uint256","name":"endNo","type":"uint256"}],"stateMutability":"view","type":"function"},{"inputs":[{"internalType":"uint256","name":"","type":"uint256"}],"name":"totalScores","outputs":[{"internalType":"uint256","name":"","type":"uint256"}],"stateMutability":"view","type":"function"},{"inputs":[{"internalType":"address","name":"_owner","type":"address"}],"name":"transferOwner","outputs":[],"stateMutability":"nonpayable","type":"function"},{"inputs":[{"internalType":"address","name":"","type":"address"},{"internalType":"uint256","name":"","type":"uint256"}],"name":"userCanClaimWeeks","outputs":[{"internalType":"uint256","name":"","type":"uint256"}],"stateMutability":"view","type":"function"},{"inputs":[{"internalType":"address","name":"","type":"address"},{"internalType":"uint256","name":"","type":"uint256"}],"name":"userERC20s","outputs":[{"internalType":"uint256","name":"","type":"uint256"}],"stateMutability":"view","type":"function"},{"inputs":[{"internalType":"address","name":"","type":"address"},{"internalType":"uint256","name":"","type":"uint256"}],"name":"userScores","outputs":[{"internalType":"uint256","name":"","type":"uint256"}],"stateMutability":"view","type":"function"},{"inputs":[],"name":"withdraw","outputs":[{"internalType":"uint256","name":"total","type":"uint256"}],"stateMutability":"nonpayable","type":"function"}],"evm":{"bytecode":{"linkReferences":{},"object":"6101206040523480156200001257600080fd5b5060405162001774380380620017748339810160408190526200003591620000a2565b6001600160a01b0391821660805260ff94851660a05260c093909352921660e052600080546001600160a01b03191633179055166101005262000109565b805160ff811681146200008557600080fd5b919050565b80516001600160a01b03811681146200008557600080fd5b600080600080600060a08688031215620000bb57600080fd5b620000c68662000073565b945060208601519350620000dd6040870162000073565b9250620000ed606087016200008a565b9150620000fd608087016200008a565b90509295509295909350565b60805160a05160c05160e051610100516115e0620001946000396000818161027501526104ae0152600081816101b001528181610a210152610d500152600081816103ed0152610f580152600081816103b30152818161044601528181610ef40152610f1f01526000818161041401528181610c1801528181610cb00152610e3d01526115e06000f3fe608060405234801561001057600080fd5b50600436106101735760003560e01c80638da5cb5b116100de578063ba08650111610097578063e11400bb11610071578063e11400bb146103ae578063ee3453ed146103d5578063f6def7cf146103e8578063f7c618c11461040f57600080fd5b8063ba0865011461036b578063bb57852d1461037e578063cd671a581461039157600080fd5b80638da5cb5b146102cc578063979db1c4146102df578063a218de15146102f2578063a47bd49614610347578063affed0e01461035a578063b88a802f1461036357600080fd5b80634fb2e45d116101305780634fb2e45d1461022a5780635b680a451461023d5780635f8e422f146102685780635fcbd285146102705780637b1391a6146102af5780638431165e146102c457600080fd5b80630bce1284146101785780630d437d40146101ab57806310087fb1146101e4578063157775df146101f957806329ed1cfd146102195780633ccfd60b14610222575b600080fd5b6101986101863660046111dc565b60056020526000908152604090205481565b6040519081526020015b60405180910390f35b6101d27f000000000000000000000000000000000000000000000000000000000000000081565b60405160ff90911681526020016101a2565b6101f76101f23660046111f5565b610436565b005b6101986102073660046111dc565b60046020526000908152604090205481565b61019860065481565b6101986106f4565b6101f7610238366004611247565b61083e565b61019861024b366004611262565b600260209081526000928352604080842090915290825290205481565b6101f761088a565b6102977f000000000000000000000000000000000000000000000000000000000000000081565b6040516001600160a01b0390911681526020016101a2565b6102b76108db565b6040516101a2919061128c565b610198610a1a565b600054610297906001600160a01b031681565b6101986102ed3660046113a1565b610aec565b6103276103003660046111dc565b60086020526000908152604090208054600182015460028301546003909301549192909184565b6040805194855260208501939093529183015260608201526080016101a2565b6101f7610355366004611405565b610c81565b61019860075481565b6101f7610d4a565b610198610379366004611262565b610e95565b61019861038c366004611262565b610ec6565b61039a61025881565b60405162ffffff90911681526020016101a2565b6101d27f000000000000000000000000000000000000000000000000000000000000000081565b6101986103e33660046111f5565b610eeb565b6101987f000000000000000000000000000000000000000000000000000000000000000081565b6102977f000000000000000000000000000000000000000000000000000000000000000081565b60008160ff1611801561046f57507f000000000000000000000000000000000000000000000000000000000000000060ff168160ff1611155b6104a95760405162461bcd60e51b8152602060048201526006602482015265359018bf1a9960d11b60448201526064015b60405180910390fd5b6104d57f0000000000000000000000000000000000000000000000000000000000000000333085610fb5565b60006104e36102584261143d565b6104ee90600161145f565b905060006104fc8484610eeb565b905060005b8360ff168160ff16101561059657816004600061052160ff85168761145f565b8152602001908152602001600020600082825461053e919061145f565b9091555050336000908152600260205260408120839161056160ff85168761145f565b8152602001908152602001600020600082825461057e919061145f565b9091555081905061058e81611478565b915050610501565b5060405180608001604052808581526020018281526020018381526020018460ff16846105c3919061145f565b905260075460009081526008602090815260408083208451815584830151600180830191909155858301516002830155606090950151600391820155338452909152902090810154905403610625573360009081526003602052604090208290555b61063260ff84168361145f565b33600090815260036020526040902060010154101561066c5761065860ff84168361145f565b336000908152600360205260409020600101555b33600081815260096020908152604080832060078054825460018101845592865294849020909101939093559154825190815290810187905260ff86168183015290517f6fa2f6021ee337436cdf2b2570285886da18bc06402ce284d296504a0fe8f8759181900360600190a2600780549060006106e9836114ad565b919050555050505050565b6000806107036102584261143d565b3360009081526009602052604081205491925090610723906001906114c6565b90505b33600090815260096020526040812080548390811061074757610747611497565b906000526020600020015490508260086000838152602001908152602001600020600301541161082b5760008181526008602052604090205461078a908561145f565b3360009081526009602052604090208054919550906107ab906001906114c6565b815481106107bb576107bb611497565b6000918252602080832090910154338352600990915260409091208054849081106107e8576107e8611497565b6000918252602080832090910192909255338152600990915260409020805480610814576108146114d9565b600190038181906000526020600020016000905590555b5080610836816114ef565b915050610726565b6000546001600160a01b031633146108685760405162461bcd60e51b81526004016104a090611506565b600180546001600160a01b0319166001600160a01b0392909216919091179055565b6001546001600160a01b031633146108b45760405162461bcd60e51b81526004016104a090611506565b60018054600080546001600160a01b03199081166001600160a01b03841617909155169055565b336000908152600960205260408120546060918167ffffffffffffffff811115610907576109076112f0565b60405190808252806020026020018201604052801561096357816020015b6109506040518060800160405280600081526020016000815260200160008152602001600081525090565b8152602001906001900390816109255790505b50905060005b82811015610a1357336000908152600960205260408120805460089291908490811061099757610997611497565b906000526020600020015481526020019081526020016000206040518060800160405290816000820154815260200160018201548152602001600282015481526020016003820154815250508282815181106109f5576109f5611497565b60200260200101819052508080610a0b906114ad565b915050610969565b5092915050565b60008060ff7f000000000000000000000000000000000000000000000000000000000000000016610a4d6102584261143d565b610a5791906114c6565b33600090815260036020526040812054919250905b33600090815260036020526040902060010154811015610a1357828111610a1357600081815260046020908152604080832054338452600283528184208585528352818420546005909352922054610ac49190611529565b610ace919061143d565b610ad8908361145f565b915080610ae4816114ad565b915050610a6c565b600080546001600160a01b03163314610b175760405162461bcd60e51b81526004016104a090611506565b60005b8351811015610ba757828181518110610b3557610b35611497565b602002602001015182610b48919061145f565b9150828181518110610b5c57610b5c611497565b602002602001015160056000868481518110610b7a57610b7a611497565b60200260200101518152602001908152602001600020819055508080610b9f906114ad565b915050610b1a565b5060008351118015610be057506006548360018551610bc691906114c6565b81518110610bd657610bd6611497565b6020026020010151115b15610c13578260018451610bf491906114c6565b81518110610c0457610c04611497565b60200260200101516006819055505b610c3f7f0000000000000000000000000000000000000000000000000000000000000000333084610fb5565b60408051600081526020810183905233917fc3991418cacd70a010fce559a44fcbb47534ca43bf7543964bdca2639f6e6e5a910160405180910390a292915050565b6000546001600160a01b03163314610cab5760405162461bcd60e51b81526004016104a090611506565b610cd77f0000000000000000000000000000000000000000000000000000000000000000333084610fb5565b60008281526005602052604081208054839290610cf590849061145f565b9091555050600654821115610d0a5760068290555b604080518381526020810183905233917fc3991418cacd70a010fce559a44fcbb47534ca43bf7543964bdca2639f6e6e5a91015b60405180910390a25050565b600060ff7f000000000000000000000000000000000000000000000000000000000000000016610d7c6102584261143d565b610d8691906114c6565b33600090815260036020526040812054919250905b33600090815260036020526040902060010154811015610e3757828111610e3757610dc781600161145f565b3360009081526003602052604081200155600081815260046020908152604080832054338452600283528184208585528352818420546005909352922054610e0f9190611529565b610e19919061143d565b610e23908361145f565b915080610e2f816114ad565b915050610d9b565b50610e637f000000000000000000000000000000000000000000000000000000000000000033836110cf565b60405181815233907fba8de60c3403ec381d1d484652ea1980e3c3e56359195c92525bff4ce47ad98e90602001610d3e565b60096020528160005260406000208181548110610eb157600080fd5b90600052602060002001600091509150505481565b60036020528160005260406000208160028110610ee257600080fd5b01549150829050565b6000610f1860017f0000000000000000000000000000000000000000000000000000000000000000611540565b60ff1660017f000000000000000000000000000000000000000000000000000000000000000060ff16600185610f4e9190611540565b60ff16610f7c60017f00000000000000000000000000000000000000000000000000000000000000006114c6565b610f869190611529565b610f90919061145f565b610f9a91906114c6565b610fa49085611529565b610fae919061143d565b9392505050565b604080516001600160a01b0385811660248301528481166044830152606480830185905283518084039091018152608490920183526020820180516001600160e01b03166323b872dd60e01b17905291516000928392908816916110199190611559565b6000604051808303816000865af19150503d8060008114611056576040519150601f19603f3d011682016040523d82523d6000602084013e61105b565b606091505b50915091508180156110855750805115806110855750808060200190518101906110859190611588565b6110c75760405162461bcd60e51b81526020600482015260136024820152721d1c985b9cd9995c919c9bdb4819985a5b1959606a1b60448201526064016104a0565b505050505050565b604080516001600160a01b038481166024830152604480830185905283518084039091018152606490920183526020820180516001600160e01b031663a9059cbb60e01b179052915160009283929087169161112b9190611559565b6000604051808303816000865af19150503d8060008114611168576040519150601f19603f3d011682016040523d82523d6000602084013e61116d565b606091505b50915091508180156111975750805115806111975750808060200190518101906111979190611588565b6111d55760405162461bcd60e51b815260206004820152600f60248201526e1514905394d1915497d19052531151608a1b60448201526064016104a0565b5050505050565b6000602082840312156111ee57600080fd5b5035919050565b6000806040838503121561120857600080fd5b82359150602083013560ff8116811461122057600080fd5b809150509250929050565b80356001600160a01b038116811461124257600080fd5b919050565b60006020828403121561125957600080fd5b610fae8261122b565b6000806040838503121561127557600080fd5b61127e8361122b565b946020939093013593505050565b602080825282518282018190526000919060409081850190868401855b828110156112e3578151805185528681015187860152858101518686015260609081015190850152608090930192908501906001016112a9565b5091979650505050505050565b634e487b7160e01b600052604160045260246000fd5b600082601f83011261131757600080fd5b8135602067ffffffffffffffff80831115611334576113346112f0565b8260051b604051601f19603f83011681018181108482111715611359576113596112f0565b60405293845285810183019383810192508785111561137757600080fd5b83870191505b848210156113965781358352918301919083019061137d565b979650505050505050565b600080604083850312156113b457600080fd5b823567ffffffffffffffff808211156113cc57600080fd5b6113d886838701611306565b935060208501359150808211156113ee57600080fd5b506113fb85828601611306565b9150509250929050565b6000806040838503121561141857600080fd5b50508035926020909101359150565b634e487b7160e01b600052601160045260246000fd5b60008261145a57634e487b7160e01b600052601260045260246000fd5b500490565b8082018082111561147257611472611427565b92915050565b600060ff821660ff810361148e5761148e611427565b60010192915050565b634e487b7160e01b600052603260045260246000fd5b6000600182016114bf576114bf611427565b5060010190565b8181038181111561147257611472611427565b634e487b7160e01b600052603160045260246000fd5b6000816114fe576114fe611427565b506000190190565b6020808252600990820152683337b93134b23232b760b91b604082015260600190565b808202811582820484141761147257611472611427565b60ff828116828216039081111561147257611472611427565b6000825160005b8181101561157a5760208186018101518583015201611560565b506000920191825250919050565b60006020828403121561159a57600080fd5b81518015158114610fae57600080fdfea2646970667358221220ec2a33177541f9356fc432c560730dbd7afa0f8079abe745faff45af40bb2a0864736f6c63430008110033","opcodes":"PUSH2 0x120 PUSH1 0x40 MSTORE CALLVALUE DUP1 ISZERO PUSH3 0x12 JUMPI PUSH1 0x0 DUP1 REVERT JUMPDEST POP PUSH1 0x40 MLOAD PUSH3 0x1774 CODESIZE SUB DUP1 PUSH3 0x1774 DUP4 CODECOPY DUP2 ADD PUSH1 0x40 DUP2 SWAP1 MSTORE PUSH3 0x35 SWAP2 PUSH3 0xA2 JUMP JUMPDEST PUSH1 0x1 PUSH1 0x1 PUSH1 0xA0 SHL SUB SWAP2 DUP3 AND PUSH1 0x80 MSTORE PUSH1 0xFF SWAP5 DUP6 AND PUSH1 0xA0 MSTORE PUSH1 0xC0 SWAP4 SWAP1 SWAP4 MSTORE SWAP3 AND PUSH1 0xE0 MSTORE PUSH1 0x0 DUP1 SLOAD PUSH1 0x1 PUSH1 0x1 PUSH1 0xA0 SHL SUB NOT AND CALLER OR SWAP1 SSTORE AND PUSH2 0x100 MSTORE PUSH3 0x109 JUMP JUMPDEST DUP1 MLOAD PUSH1 0xFF DUP2 AND DUP2 EQ PUSH3 0x85 JUMPI PUSH1 0x0 DUP1 REVERT JUMPDEST SWAP2 SWAP1 POP JUMP JUMPDEST DUP1 MLOAD PUSH1 0x1 PUSH1 0x1 PUSH1 0xA0 SHL SUB DUP2 AND DUP2 EQ PUSH3 0x85 JUMPI PUSH1 0x0 DUP1 REVERT JUMPDEST PUSH1 0x0 DUP1 PUSH1 0x0 DUP1 PUSH1 0x0 PUSH1 0xA0 DUP7 DUP9 SUB SLT ISZERO PUSH3 0xBB JUMPI PUSH1 0x0 DUP1 REVERT JUMPDEST PUSH3 0xC6 DUP7 PUSH3 0x73 JUMP JUMPDEST SWAP5 POP PUSH1 0x20 DUP7 ADD MLOAD SWAP4 POP PUSH3 0xDD PUSH1 0x40 DUP8 ADD PUSH3 0x73 JUMP JUMPDEST SWAP3 POP PUSH3 0xED PUSH1 0x60 DUP8 ADD PUSH3 0x8A JUMP JUMPDEST SWAP2 POP PUSH3 0xFD PUSH1 0x80 DUP8 ADD PUSH3 0x8A JUMP JUMPDEST SWAP1 POP SWAP3 SWAP6 POP SWAP3 SWAP6 SWAP1 SWAP4 POP JUMP JUMPDEST PUSH1 0x80 MLOAD PUSH1 0xA0 MLOAD PUSH1 0xC0 MLOAD PUSH1 0xE0 MLOAD PUSH2 0x100 MLOAD PUSH2 0x15E0 PUSH3 0x194 PUSH1 0x0 CODECOPY PUSH1 0x0 DUP2 DUP2 PUSH2 0x275 ADD MSTORE PUSH2 0x4AE ADD MSTORE PUSH1 0x0 DUP2 DUP2 PUSH2 0x1B0 ADD MSTORE DUP2 DUP2 PUSH2 0xA21 ADD MSTORE PUSH2 0xD50 ADD MSTORE PUSH1 0x0 DUP2 DUP2 PUSH2 0x3ED ADD MSTORE PUSH2 0xF58 ADD MSTORE PUSH1 0x0 DUP2 DUP2 PUSH2 0x3B3 ADD MSTORE DUP2 DUP2 PUSH2 0x446 ADD MSTORE DUP2 DUP2 PUSH2 0xEF4 ADD MSTORE PUSH2 0xF1F ADD MSTORE PUSH1 0x0 DUP2 DUP2 PUSH2 0x414 ADD MSTORE DUP2 DUP2 PUSH2 0xC18 ADD MSTORE DUP2 DUP2 PUSH2 0xCB0 ADD MSTORE PUSH2 0xE3D ADD MSTORE PUSH2 0x15E0 PUSH1 0x0 RETURN INVALID PUSH1 0x80 PUSH1 0x40 MSTORE CALLVALUE DUP1 ISZERO PUSH2 0x10 JUMPI PUSH1 0x0 DUP1 REVERT JUMPDEST POP PUSH1 0x4 CALLDATASIZE LT PUSH2 0x173 JUMPI PUSH1 0x0 CALLDATALOAD PUSH1 0xE0 SHR DUP1 PUSH4 0x8DA5CB5B GT PUSH2 0xDE JUMPI DUP1 PUSH4 0xBA086501 GT PUSH2 0x97 JUMPI DUP1 PUSH4 0xE11400BB GT PUSH2 0x71 JUMPI DUP1 PUSH4 0xE11400BB EQ PUSH2 0x3AE JUMPI DUP1 PUSH4 0xEE3453ED EQ PUSH2 0x3D5 JUMPI DUP1 PUSH4 0xF6DEF7CF EQ PUSH2 0x3E8 JUMPI DUP1 PUSH4 0xF7C618C1 EQ PUSH2 0x40F JUMPI PUSH1 0x0 DUP1 REVERT JUMPDEST DUP1 PUSH4 0xBA086501 EQ PUSH2 0x36B JUMPI DUP1 PUSH4 0xBB57852D EQ PUSH2 0x37E JUMPI DUP1 PUSH4 0xCD671A58 EQ PUSH2 0x391 JUMPI PUSH1 0x0 DUP1 REVERT JUMPDEST DUP1 PUSH4 0x8DA5CB5B EQ PUSH2 0x2CC JUMPI DUP1 PUSH4 0x979DB1C4 EQ PUSH2 0x2DF JUMPI DUP1 PUSH4 0xA218DE15 EQ PUSH2 0x2F2 JUMPI DUP1 PUSH4 0xA47BD496 EQ PUSH2 0x347 JUMPI DUP1 PUSH4 0xAFFED0E0 EQ PUSH2 0x35A JUMPI DUP1 PUSH4 0xB88A802F EQ PUSH2 0x363 JUMPI PUSH1 0x0 DUP1 REVERT JUMPDEST DUP1 PUSH4 0x4FB2E45D GT PUSH2 0x130 JUMPI DUP1 PUSH4 0x4FB2E45D EQ PUSH2 0x22A JUMPI DUP1 PUSH4 0x5B680A45 EQ PUSH2 0x23D JUMPI DUP1 PUSH4 0x5F8E422F EQ PUSH2 0x268 JUMPI DUP1 PUSH4 0x5FCBD285 EQ PUSH2 0x270 JUMPI DUP1 PUSH4 0x7B1391A6 EQ PUSH2 0x2AF JUMPI DUP1 PUSH4 0x8431165E EQ PUSH2 0x2C4 JUMPI PUSH1 0x0 DUP1 REVERT JUMPDEST DUP1 PUSH4 0xBCE1284 EQ PUSH2 0x178 JUMPI DUP1 PUSH4 0xD437D40 EQ PUSH2 0x1AB JUMPI DUP1 PUSH4 0x10087FB1 EQ PUSH2 0x1E4 JUMPI DUP1 PUSH4 0x157775DF EQ PUSH2 0x1F9 JUMPI DUP1 PUSH4 0x29ED1CFD EQ PUSH2 0x219 JUMPI DUP1 PUSH4 0x3CCFD60B EQ PUSH2 0x222 JUMPI JUMPDEST PUSH1 0x0 DUP1 REVERT JUMPDEST PUSH2 0x198 PUSH2 0x186 CALLDATASIZE PUSH1 0x4 PUSH2 0x11DC JUMP JUMPDEST PUSH1 0x5 PUSH1 0x20 MSTORE PUSH1 0x0 SWAP1 DUP2 MSTORE PUSH1 0x40 SWAP1 KECCAK256 SLOAD DUP2 JUMP JUMPDEST PUSH1 0x40 MLOAD SWAP1 DUP2 MSTORE PUSH1 0x20 ADD JUMPDEST PUSH1 0x40 MLOAD DUP1 SWAP2 SUB SWAP1 RETURN JUMPDEST PUSH2 0x1D2 PUSH32 0x0 DUP2 JUMP JUMPDEST PUSH1 0x40 MLOAD PUSH1 0xFF SWAP1 SWAP2 AND DUP2 MSTORE PUSH1 0x20 ADD PUSH2 0x1A2 JUMP JUMPDEST PUSH2 0x1F7 PUSH2 0x1F2 CALLDATASIZE PUSH1 0x4 PUSH2 0x11F5 JUMP JUMPDEST PUSH2 0x436 JUMP JUMPDEST STOP JUMPDEST PUSH2 0x198 PUSH2 0x207 CALLDATASIZE PUSH1 0x4 PUSH2 0x11DC JUMP JUMPDEST PUSH1 0x4 PUSH1 0x20 MSTORE PUSH1 0x0 SWAP1 DUP2 MSTORE PUSH1 0x40 SWAP1 KECCAK256 SLOAD DUP2 JUMP JUMPDEST PUSH2 0x198 PUSH1 0x6 SLOAD DUP2 JUMP JUMPDEST PUSH2 0x198 PUSH2 0x6F4 JUMP JUMPDEST PUSH2 0x1F7 PUSH2 0x238 CALLDATASIZE PUSH1 0x4 PUSH2 0x1247 JUMP JUMPDEST PUSH2 0x83E JUMP JUMPDEST PUSH2 0x198 PUSH2 0x24B CALLDATASIZE PUSH1 0x4 PUSH2 0x1262 JUMP JUMPDEST PUSH1 0x2 PUSH1 0x20 SWAP1 DUP2 MSTORE PUSH1 0x0 SWAP3 DUP4 MSTORE PUSH1 0x40 DUP1 DUP5 KECCAK256 SWAP1 SWAP2 MSTORE SWAP1 DUP3 MSTORE SWAP1 KECCAK256 SLOAD DUP2 JUMP JUMPDEST PUSH2 0x1F7 PUSH2 0x88A JUMP JUMPDEST PUSH2 0x297 PUSH32 0x0 DUP2 JUMP JUMPDEST PUSH1 0x40 MLOAD PUSH1 0x1 PUSH1 0x1 PUSH1 0xA0 SHL SUB SWAP1 SWAP2 AND DUP2 MSTORE PUSH1 0x20 ADD PUSH2 0x1A2 JUMP JUMPDEST PUSH2 0x2B7 PUSH2 0x8DB JUMP JUMPDEST PUSH1 0x40 MLOAD PUSH2 0x1A2 SWAP2 SWAP1 PUSH2 0x128C JUMP JUMPDEST PUSH2 0x198 PUSH2 0xA1A JUMP JUMPDEST PUSH1 0x0 SLOAD PUSH2 0x297 SWAP1 PUSH1 0x1 PUSH1 0x1 PUSH1 0xA0 SHL SUB AND DUP2 JUMP JUMPDEST PUSH2 0x198 PUSH2 0x2ED CALLDATASIZE PUSH1 0x4 PUSH2 0x13A1 JUMP JUMPDEST PUSH2 0xAEC JUMP JUMPDEST PUSH2 0x327 PUSH2 0x300 CALLDATASIZE PUSH1 0x4 PUSH2 0x11DC JUMP JUMPDEST PUSH1 0x8 PUSH1 0x20 MSTORE PUSH1 0x0 SWAP1 DUP2 MSTORE PUSH1 0x40 SWAP1 KECCAK256 DUP1 SLOAD PUSH1 0x1 DUP3 ADD SLOAD PUSH1 0x2 DUP4 ADD SLOAD PUSH1 0x3 SWAP1 SWAP4 ADD SLOAD SWAP2 SWAP3 SWAP1 SWAP2 DUP5 JUMP JUMPDEST PUSH1 0x40 DUP1 MLOAD SWAP5 DUP6 MSTORE PUSH1 0x20 DUP6 ADD SWAP4 SWAP1 SWAP4 MSTORE SWAP2 DUP4 ADD MSTORE PUSH1 0x60 DUP3 ADD MSTORE PUSH1 0x80 ADD PUSH2 0x1A2 JUMP JUMPDEST PUSH2 0x1F7 PUSH2 0x355 CALLDATASIZE PUSH1 0x4 PUSH2 0x1405 JUMP JUMPDEST PUSH2 0xC81 JUMP JUMPDEST PUSH2 0x198 PUSH1 0x7 SLOAD DUP2 JUMP JUMPDEST PUSH2 0x1F7 PUSH2 0xD4A JUMP JUMPDEST PUSH2 0x198 PUSH2 0x379 CALLDATASIZE PUSH1 0x4 PUSH2 0x1262 JUMP JUMPDEST PUSH2 0xE95 JUMP JUMPDEST PUSH2 0x198 PUSH2 0x38C CALLDATASIZE PUSH1 0x4 PUSH2 0x1262 JUMP JUMPDEST PUSH2 0xEC6 JUMP JUMPDEST PUSH2 0x39A PUSH2 0x258 DUP2 JUMP JUMPDEST PUSH1 0x40 MLOAD PUSH3 0xFFFFFF SWAP1 SWAP2 AND DUP2 MSTORE PUSH1 0x20 ADD PUSH2 0x1A2 JUMP JUMPDEST PUSH2 0x1D2 PUSH32 0x0 DUP2 JUMP JUMPDEST PUSH2 0x198 PUSH2 0x3E3 CALLDATASIZE PUSH1 0x4 PUSH2 0x11F5 JUMP JUMPDEST PUSH2 0xEEB JUMP JUMPDEST PUSH2 0x198 PUSH32 0x0 DUP2 JUMP JUMPDEST PUSH2 0x297 PUSH32 0x0 DUP2 JUMP JUMPDEST PUSH1 0x0 DUP2 PUSH1 0xFF AND GT DUP1 ISZERO PUSH2 0x46F JUMPI POP PUSH32 0x0 PUSH1 0xFF AND DUP2 PUSH1 0xFF AND GT ISZERO JUMPDEST PUSH2 0x4A9 JUMPI PUSH1 0x40 MLOAD PUSH3 0x461BCD PUSH1 0xE5 SHL DUP2 MSTORE PUSH1 0x20 PUSH1 0x4 DUP3 ADD MSTORE PUSH1 0x6 PUSH1 0x24 DUP3 ADD MSTORE PUSH6 0x359018BF1A99 PUSH1 0xD1 SHL PUSH1 0x44 DUP3 ADD MSTORE PUSH1 0x64 ADD JUMPDEST PUSH1 0x40 MLOAD DUP1 SWAP2 SUB SWAP1 REVERT JUMPDEST PUSH2 0x4D5 PUSH32 0x0 CALLER ADDRESS DUP6 PUSH2 0xFB5 JUMP JUMPDEST PUSH1 0x0 PUSH2 0x4E3 PUSH2 0x258 TIMESTAMP PUSH2 0x143D JUMP JUMPDEST PUSH2 0x4EE SWAP1 PUSH1 0x1 PUSH2 0x145F JUMP JUMPDEST SWAP1 POP PUSH1 0x0 PUSH2 0x4FC DUP5 DUP5 PUSH2 0xEEB JUMP JUMPDEST SWAP1 POP PUSH1 0x0 JUMPDEST DUP4 PUSH1 0xFF AND DUP2 PUSH1 0xFF AND LT ISZERO PUSH2 0x596 JUMPI DUP2 PUSH1 0x4 PUSH1 0x0 PUSH2 0x521 PUSH1 0xFF DUP6 AND DUP8 PUSH2 0x145F JUMP JUMPDEST DUP2 MSTORE PUSH1 0x20 ADD SWAP1 DUP2 MSTORE PUSH1 0x20 ADD PUSH1 0x0 KECCAK256 PUSH1 0x0 DUP3 DUP3 SLOAD PUSH2 0x53E SWAP2 SWAP1 PUSH2 0x145F JUMP JUMPDEST SWAP1 SWAP2 SSTORE POP POP CALLER PUSH1 0x0 SWAP1 DUP2 MSTORE PUSH1 0x2 PUSH1 0x20 MSTORE PUSH1 0x40 DUP2 KECCAK256 DUP4 SWAP2 PUSH2 0x561 PUSH1 0xFF DUP6 AND DUP8 PUSH2 0x145F JUMP JUMPDEST DUP2 MSTORE PUSH1 0x20 ADD SWAP1 DUP2 MSTORE PUSH1 0x20 ADD PUSH1 0x0 KECCAK256 PUSH1 0x0 DUP3 DUP3 SLOAD PUSH2 0x57E SWAP2 SWAP1 PUSH2 0x145F JUMP JUMPDEST SWAP1 SWAP2 SSTORE POP DUP2 SWAP1 POP PUSH2 0x58E DUP2 PUSH2 0x1478 JUMP JUMPDEST SWAP2 POP POP PUSH2 0x501 JUMP JUMPDEST POP PUSH1 0x40 MLOAD DUP1 PUSH1 0x80 ADD PUSH1 0x40 MSTORE DUP1 DUP6 DUP2 MSTORE PUSH1 0x20 ADD DUP3 DUP2 MSTORE PUSH1 0x20 ADD DUP4 DUP2 MSTORE PUSH1 0x20 ADD DUP5 PUSH1 0xFF AND DUP5 PUSH2 0x5C3 SWAP2 SWAP1 PUSH2 0x145F JUMP JUMPDEST SWAP1 MSTORE PUSH1 0x7 SLOAD PUSH1 0x0 SWAP1 DUP2 MSTORE PUSH1 0x8 PUSH1 0x20 SWAP1 DUP2 MSTORE PUSH1 0x40 DUP1 DUP4 KECCAK256 DUP5 MLOAD DUP2 SSTORE DUP5 DUP4 ADD MLOAD PUSH1 0x1 DUP1 DUP4 ADD SWAP2 SWAP1 SWAP2 SSTORE DUP6 DUP4 ADD MLOAD PUSH1 0x2 DUP4 ADD SSTORE PUSH1 0x60 SWAP1 SWAP6 ADD MLOAD PUSH1 0x3 SWAP2 DUP3 ADD SSTORE CALLER DUP5 MSTORE SWAP1 SWAP2 MSTORE SWAP1 KECCAK256 SWAP1 DUP2 ADD SLOAD SWAP1 SLOAD SUB PUSH2 0x625 JUMPI CALLER PUSH1 0x0 SWAP1 DUP2 MSTORE PUSH1 0x3 PUSH1 0x20 MSTORE PUSH1 0x40 SWAP1 KECCAK256 DUP3 SWAP1 SSTORE JUMPDEST PUSH2 0x632 PUSH1 0xFF DUP5 AND DUP4 PUSH2 0x145F JUMP JUMPDEST CALLER PUSH1 0x0 SWAP1 DUP2 MSTORE PUSH1 0x3 PUSH1 0x20 MSTORE PUSH1 0x40 SWAP1 KECCAK256 PUSH1 0x1 ADD SLOAD LT ISZERO PUSH2 0x66C JUMPI PUSH2 0x658 PUSH1 0xFF DUP5 AND DUP4 PUSH2 0x145F JUMP JUMPDEST CALLER PUSH1 0x0 SWAP1 DUP2 MSTORE PUSH1 0x3 PUSH1 0x20 MSTORE PUSH1 0x40 SWAP1 KECCAK256 PUSH1 0x1 ADD SSTORE JUMPDEST CALLER PUSH1 0x0 DUP2 DUP2 MSTORE PUSH1 0x9 PUSH1 0x20 SWAP1 DUP2 MSTORE PUSH1 0x40 DUP1 DUP4 KECCAK256 PUSH1 0x7 DUP1 SLOAD DUP3 SLOAD PUSH1 0x1 DUP2 ADD DUP5 SSTORE SWAP3 DUP7 MSTORE SWAP5 DUP5 SWAP1 KECCAK256 SWAP1 SWAP2 ADD SWAP4 SWAP1 SWAP4 SSTORE SWAP2 SLOAD DUP3 MLOAD SWAP1 DUP2 MSTORE SWAP1 DUP2 ADD DUP8 SWAP1 MSTORE PUSH1 0xFF DUP7 AND DUP2 DUP4 ADD MSTORE SWAP1 MLOAD PUSH32 0x6FA2F6021EE337436CDF2B2570285886DA18BC06402CE284D296504A0FE8F875 SWAP2 DUP2 SWAP1 SUB PUSH1 0x60 ADD SWAP1 LOG2 PUSH1 0x7 DUP1 SLOAD SWAP1 PUSH1 0x0 PUSH2 0x6E9 DUP4 PUSH2 0x14AD JUMP JUMPDEST SWAP2 SWAP1 POP SSTORE POP POP POP POP POP JUMP JUMPDEST PUSH1 0x0 DUP1 PUSH2 0x703 PUSH2 0x258 TIMESTAMP PUSH2 0x143D JUMP JUMPDEST CALLER PUSH1 0x0 SWAP1 DUP2 MSTORE PUSH1 0x9 PUSH1 0x20 MSTORE PUSH1 0x40 DUP2 KECCAK256 SLOAD SWAP2 SWAP3 POP SWAP1 PUSH2 0x723 SWAP1 PUSH1 0x1 SWAP1 PUSH2 0x14C6 JUMP JUMPDEST SWAP1 POP JUMPDEST CALLER PUSH1 0x0 SWAP1 DUP2 MSTORE PUSH1 0x9 PUSH1 0x20 MSTORE PUSH1 0x40 DUP2 KECCAK256 DUP1 SLOAD DUP4 SWAP1 DUP2 LT PUSH2 0x747 JUMPI PUSH2 0x747 PUSH2 0x1497 JUMP JUMPDEST SWAP1 PUSH1 0x0 MSTORE PUSH1 0x20 PUSH1 0x0 KECCAK256 ADD SLOAD SWAP1 POP DUP3 PUSH1 0x8 PUSH1 0x0 DUP4 DUP2 MSTORE PUSH1 0x20 ADD SWAP1 DUP2 MSTORE PUSH1 0x20 ADD PUSH1 0x0 KECCAK256 PUSH1 0x3 ADD SLOAD GT PUSH2 0x82B JUMPI PUSH1 0x0 DUP2 DUP2 MSTORE PUSH1 0x8 PUSH1 0x20 MSTORE PUSH1 0x40 SWAP1 KECCAK256 SLOAD PUSH2 0x78A SWAP1 DUP6 PUSH2 0x145F JUMP JUMPDEST CALLER PUSH1 0x0 SWAP1 DUP2 MSTORE PUSH1 0x9 PUSH1 0x20 MSTORE PUSH1 0x40 SWAP1 KECCAK256 DUP1 SLOAD SWAP2 SWAP6 POP SWAP1 PUSH2 0x7AB SWAP1 PUSH1 0x1 SWAP1 PUSH2 0x14C6 JUMP JUMPDEST DUP2 SLOAD DUP2 LT PUSH2 0x7BB JUMPI PUSH2 0x7BB PUSH2 0x1497 JUMP JUMPDEST PUSH1 0x0 SWAP2 DUP3 MSTORE PUSH1 0x20 DUP1 DUP4 KECCAK256 SWAP1 SWAP2 ADD SLOAD CALLER DUP4 MSTORE PUSH1 0x9 SWAP1 SWAP2 MSTORE PUSH1 0x40 SWAP1 SWAP2 KECCAK256 DUP1 SLOAD DUP5 SWAP1 DUP2 LT PUSH2 0x7E8 JUMPI PUSH2 0x7E8 PUSH2 0x1497 JUMP JUMPDEST PUSH1 0x0 SWAP2 DUP3 MSTORE PUSH1 0x20 DUP1 DUP4 KECCAK256 SWAP1 SWAP2 ADD SWAP3 SWAP1 SWAP3 SSTORE CALLER DUP2 MSTORE PUSH1 0x9 SWAP1 SWAP2 MSTORE PUSH1 0x40 SWAP1 KECCAK256 DUP1 SLOAD DUP1 PUSH2 0x814 JUMPI PUSH2 0x814 PUSH2 0x14D9 JUMP JUMPDEST PUSH1 0x1 SWAP1 SUB DUP2 DUP2 SWAP1 PUSH1 0x0 MSTORE PUSH1 0x20 PUSH1 0x0 KECCAK256 ADD PUSH1 0x0 SWAP1 SSTORE SWAP1 SSTORE JUMPDEST POP DUP1 PUSH2 0x836 DUP2 PUSH2 0x14EF JUMP JUMPDEST SWAP2 POP POP PUSH2 0x726 JUMP JUMPDEST PUSH1 0x0 SLOAD PUSH1 0x1 PUSH1 0x1 PUSH1 0xA0 SHL SUB AND CALLER EQ PUSH2 0x868 JUMPI PUSH1 0x40 MLOAD PUSH3 0x461BCD PUSH1 0xE5 SHL DUP2 MSTORE PUSH1 0x4 ADD PUSH2 0x4A0 SWAP1 PUSH2 0x1506 JUMP JUMPDEST PUSH1 0x1 DUP1 SLOAD PUSH1 0x1 PUSH1 0x1 PUSH1 0xA0 SHL SUB NOT AND PUSH1 0x1 PUSH1 0x1 PUSH1 0xA0 SHL SUB SWAP3 SWAP1 SWAP3 AND SWAP2 SWAP1 SWAP2 OR SWAP1 SSTORE JUMP JUMPDEST PUSH1 0x1 SLOAD PUSH1 0x1 PUSH1 0x1 PUSH1 0xA0 SHL SUB AND CALLER EQ PUSH2 0x8B4 JUMPI PUSH1 0x40 MLOAD PUSH3 0x461BCD PUSH1 0xE5 SHL DUP2 MSTORE PUSH1 0x4 ADD PUSH2 0x4A0 SWAP1 PUSH2 0x1506 JUMP JUMPDEST PUSH1 0x1 DUP1 SLOAD PUSH1 0x0 DUP1 SLOAD PUSH1 0x1 PUSH1 0x1 PUSH1 0xA0 SHL SUB NOT SWAP1 DUP2 AND PUSH1 0x1 PUSH1 0x1 PUSH1 0xA0 SHL SUB DUP5 AND OR SWAP1 SWAP2 SSTORE AND SWAP1 SSTORE JUMP JUMPDEST CALLER PUSH1 0x0 SWAP1 DUP2 MSTORE PUSH1 0x9 PUSH1 0x20 MSTORE PUSH1 0x40 DUP2 KECCAK256 SLOAD PUSH1 0x60 SWAP2 DUP2 PUSH8 0xFFFFFFFFFFFFFFFF DUP2 GT ISZERO PUSH2 0x907 JUMPI PUSH2 0x907 PUSH2 0x12F0 JUMP JUMPDEST PUSH1 0x40 MLOAD SWAP1 DUP1 DUP3 MSTORE DUP1 PUSH1 0x20 MUL PUSH1 0x20 ADD DUP3 ADD PUSH1 0x40 MSTORE DUP1 ISZERO PUSH2 0x963 JUMPI DUP2 PUSH1 0x20 ADD JUMPDEST PUSH2 0x950 PUSH1 0x40 MLOAD DUP1 PUSH1 0x80 ADD PUSH1 0x40 MSTORE DUP1 PUSH1 0x0 DUP2 MSTORE PUSH1 0x20 ADD PUSH1 0x0 DUP2 MSTORE PUSH1 0x20 ADD PUSH1 0x0 DUP2 MSTORE PUSH1 0x20 ADD PUSH1 0x0 DUP2 MSTORE POP SWAP1 JUMP JUMPDEST DUP2 MSTORE PUSH1 0x20 ADD SWAP1 PUSH1 0x1 SWAP1 SUB SWAP1 DUP2 PUSH2 0x925 JUMPI SWAP1 POP JUMPDEST POP SWAP1 POP PUSH1 0x0 JUMPDEST DUP3 DUP2 LT ISZERO PUSH2 0xA13 JUMPI CALLER PUSH1 0x0 SWAP1 DUP2 MSTORE PUSH1 0x9 PUSH1 0x20 MSTORE PUSH1 0x40 DUP2 KECCAK256 DUP1 SLOAD PUSH1 0x8 SWAP3 SWAP2 SWAP1 DUP5 SWAP1 DUP2 LT PUSH2 0x997 JUMPI PUSH2 0x997 PUSH2 0x1497 JUMP JUMPDEST SWAP1 PUSH1 0x0 MSTORE PUSH1 0x20 PUSH1 0x0 KECCAK256 ADD SLOAD DUP2 MSTORE PUSH1 0x20 ADD SWAP1 DUP2 MSTORE PUSH1 0x20 ADD PUSH1 0x0 KECCAK256 PUSH1 0x40 MLOAD DUP1 PUSH1 0x80 ADD PUSH1 0x40 MSTORE SWAP1 DUP2 PUSH1 0x0 DUP3 ADD SLOAD DUP2 MSTORE PUSH1 0x20 ADD PUSH1 0x1 DUP3 ADD SLOAD DUP2 MSTORE PUSH1 0x20 ADD PUSH1 0x2 DUP3 ADD SLOAD DUP2 MSTORE PUSH1 0x20 ADD PUSH1 0x3 DUP3 ADD SLOAD DUP2 MSTORE POP POP DUP3 DUP3 DUP2 MLOAD DUP2 LT PUSH2 0x9F5 JUMPI PUSH2 0x9F5 PUSH2 0x1497 JUMP JUMPDEST PUSH1 0x20 MUL PUSH1 0x20 ADD ADD DUP2 SWAP1 MSTORE POP DUP1 DUP1 PUSH2 0xA0B SWAP1 PUSH2 0x14AD JUMP JUMPDEST SWAP2 POP POP PUSH2 0x969 JUMP JUMPDEST POP SWAP3 SWAP2 POP POP JUMP JUMPDEST PUSH1 0x0 DUP1 PUSH1 0xFF PUSH32 0x0 AND PUSH2 0xA4D PUSH2 0x258 TIMESTAMP PUSH2 0x143D JUMP JUMPDEST PUSH2 0xA57 SWAP2 SWAP1 PUSH2 0x14C6 JUMP JUMPDEST CALLER PUSH1 0x0 SWAP1 DUP2 MSTORE PUSH1 0x3 PUSH1 0x20 MSTORE PUSH1 0x40 DUP2 KECCAK256 SLOAD SWAP2 SWAP3 POP SWAP1 JUMPDEST CALLER PUSH1 0x0 SWAP1 DUP2 MSTORE PUSH1 0x3 PUSH1 0x20 MSTORE PUSH1 0x40 SWAP1 KECCAK256 PUSH1 0x1 ADD SLOAD DUP2 LT ISZERO PUSH2 0xA13 JUMPI DUP3 DUP2 GT PUSH2 0xA13 JUMPI PUSH1 0x0 DUP2 DUP2 MSTORE PUSH1 0x4 PUSH1 0x20 SWAP1 DUP2 MSTORE PUSH1 0x40 DUP1 DUP4 KECCAK256 SLOAD CALLER DUP5 MSTORE PUSH1 0x2 DUP4 MSTORE DUP2 DUP5 KECCAK256 DUP6 DUP6 MSTORE DUP4 MSTORE DUP2 DUP5 KECCAK256 SLOAD PUSH1 0x5 SWAP1 SWAP4 MSTORE SWAP3 KECCAK256 SLOAD PUSH2 0xAC4 SWAP2 SWAP1 PUSH2 0x1529 JUMP JUMPDEST PUSH2 0xACE SWAP2 SWAP1 PUSH2 0x143D JUMP JUMPDEST PUSH2 0xAD8 SWAP1 DUP4 PUSH2 0x145F JUMP JUMPDEST SWAP2 POP DUP1 PUSH2 0xAE4 DUP2 PUSH2 0x14AD JUMP JUMPDEST SWAP2 POP POP PUSH2 0xA6C JUMP JUMPDEST PUSH1 0x0 DUP1 SLOAD PUSH1 0x1 PUSH1 0x1 PUSH1 0xA0 SHL SUB AND CALLER EQ PUSH2 0xB17 JUMPI PUSH1 0x40 MLOAD PUSH3 0x461BCD PUSH1 0xE5 SHL DUP2 MSTORE PUSH1 0x4 ADD PUSH2 0x4A0 SWAP1 PUSH2 0x1506 JUMP JUMPDEST PUSH1 0x0 JUMPDEST DUP4 MLOAD DUP2 LT ISZERO PUSH2 0xBA7 JUMPI DUP3 DUP2 DUP2 MLOAD DUP2 LT PUSH2 0xB35 JUMPI PUSH2 0xB35 PUSH2 0x1497 JUMP JUMPDEST PUSH1 0x20 MUL PUSH1 0x20 ADD ADD MLOAD DUP3 PUSH2 0xB48 SWAP2 SWAP1 PUSH2 0x145F JUMP JUMPDEST SWAP2 POP DUP3 DUP2 DUP2 MLOAD DUP2 LT PUSH2 0xB5C JUMPI PUSH2 0xB5C PUSH2 0x1497 JUMP JUMPDEST PUSH1 0x20 MUL PUSH1 0x20 ADD ADD MLOAD PUSH1 0x5 PUSH1 0x0 DUP7 DUP5 DUP2 MLOAD DUP2 LT PUSH2 0xB7A JUMPI PUSH2 0xB7A PUSH2 0x1497 JUMP JUMPDEST PUSH1 0x20 MUL PUSH1 0x20 ADD ADD MLOAD DUP2 MSTORE PUSH1 0x20 ADD SWAP1 DUP2 MSTORE PUSH1 0x20 ADD PUSH1 0x0 KECCAK256 DUP2 SWAP1 SSTORE POP DUP1 DUP1 PUSH2 0xB9F SWAP1 PUSH2 0x14AD JUMP JUMPDEST SWAP2 POP POP PUSH2 0xB1A JUMP JUMPDEST POP PUSH1 0x0 DUP4 MLOAD GT DUP1 ISZERO PUSH2 0xBE0 JUMPI POP PUSH1 0x6 SLOAD DUP4 PUSH1 0x1 DUP6 MLOAD PUSH2 0xBC6 SWAP2 SWAP1 PUSH2 0x14C6 JUMP JUMPDEST DUP2 MLOAD DUP2 LT PUSH2 0xBD6 JUMPI PUSH2 0xBD6 PUSH2 0x1497 JUMP JUMPDEST PUSH1 0x20 MUL PUSH1 0x20 ADD ADD MLOAD GT JUMPDEST ISZERO PUSH2 0xC13 JUMPI DUP3 PUSH1 0x1 DUP5 MLOAD PUSH2 0xBF4 SWAP2 SWAP1 PUSH2 0x14C6 JUMP JUMPDEST DUP2 MLOAD DUP2 LT PUSH2 0xC04 JUMPI PUSH2 0xC04 PUSH2 0x1497 JUMP JUMPDEST PUSH1 0x20 MUL PUSH1 0x20 ADD ADD MLOAD PUSH1 0x6 DUP2 SWAP1 SSTORE POP JUMPDEST PUSH2 0xC3F PUSH32 0x0 CALLER ADDRESS DUP5 PUSH2 0xFB5 JUMP JUMPDEST PUSH1 0x40 DUP1 MLOAD PUSH1 0x0 DUP2 MSTORE PUSH1 0x20 DUP2 ADD DUP4 SWAP1 MSTORE CALLER SWAP2 PUSH32 0xC3991418CACD70A010FCE559A44FCBB47534CA43BF7543964BDCA2639F6E6E5A SWAP2 ADD PUSH1 0x40 MLOAD DUP1 SWAP2 SUB SWAP1 LOG2 SWAP3 SWAP2 POP POP JUMP JUMPDEST PUSH1 0x0 SLOAD PUSH1 0x1 PUSH1 0x1 PUSH1 0xA0 SHL SUB AND CALLER EQ PUSH2 0xCAB JUMPI PUSH1 0x40 MLOAD PUSH3 0x461BCD PUSH1 0xE5 SHL DUP2 MSTORE PUSH1 0x4 ADD PUSH2 0x4A0 SWAP1 PUSH2 0x1506 JUMP JUMPDEST PUSH2 0xCD7 PUSH32 0x0 CALLER ADDRESS DUP5 PUSH2 0xFB5 JUMP JUMPDEST PUSH1 0x0 DUP3 DUP2 MSTORE PUSH1 0x5 PUSH1 0x20 MSTORE PUSH1 0x40 DUP2 KECCAK256 DUP1 SLOAD DUP4 SWAP3 SWAP1 PUSH2 0xCF5 SWAP1 DUP5 SWAP1 PUSH2 0x145F JUMP JUMPDEST SWAP1 SWAP2 SSTORE POP POP PUSH1 0x6 SLOAD DUP3 GT ISZERO PUSH2 0xD0A JUMPI PUSH1 0x6 DUP3 SWAP1 SSTORE JUMPDEST PUSH1 0x40 DUP1 MLOAD DUP4 DUP2 MSTORE PUSH1 0x20 DUP2 ADD DUP4 SWAP1 MSTORE CALLER SWAP2 PUSH32 0xC3991418CACD70A010FCE559A44FCBB47534CA43BF7543964BDCA2639F6E6E5A SWAP2 ADD JUMPDEST PUSH1 0x40 MLOAD DUP1 SWAP2 SUB SWAP1 LOG2 POP POP JUMP JUMPDEST PUSH1 0x0 PUSH1 0xFF PUSH32 0x0 AND PUSH2 0xD7C PUSH2 0x258 TIMESTAMP PUSH2 0x143D JUMP JUMPDEST PUSH2 0xD86 SWAP2 SWAP1 PUSH2 0x14C6 JUMP JUMPDEST CALLER PUSH1 0x0 SWAP1 DUP2 MSTORE PUSH1 0x3 PUSH1 0x20 MSTORE PUSH1 0x40 DUP2 KECCAK256 SLOAD SWAP2 SWAP3 POP SWAP1 JUMPDEST CALLER PUSH1 0x0 SWAP1 DUP2 MSTORE PUSH1 0x3 PUSH1 0x20 MSTORE PUSH1 0x40 SWAP1 KECCAK256 PUSH1 0x1 ADD SLOAD DUP2 LT ISZERO PUSH2 0xE37 JUMPI DUP3 DUP2 GT PUSH2 0xE37 JUMPI PUSH2 0xDC7 DUP2 PUSH1 0x1 PUSH2 0x145F JUMP JUMPDEST CALLER PUSH1 0x0 SWAP1 DUP2 MSTORE PUSH1 0x3 PUSH1 0x20 MSTORE PUSH1 0x40 DUP2 KECCAK256 ADD SSTORE PUSH1 0x0 DUP2 DUP2 MSTORE PUSH1 0x4 PUSH1 0x20 SWAP1 DUP2 MSTORE PUSH1 0x40 DUP1 DUP4 KECCAK256 SLOAD CALLER DUP5 MSTORE PUSH1 0x2 DUP4 MSTORE DUP2 DUP5 KECCAK256 DUP6 DUP6 MSTORE DUP4 MSTORE DUP2 DUP5 KECCAK256 SLOAD PUSH1 0x5 SWAP1 SWAP4 MSTORE SWAP3 KECCAK256 SLOAD PUSH2 0xE0F SWAP2 SWAP1 PUSH2 0x1529 JUMP JUMPDEST PUSH2 0xE19 SWAP2 SWAP1 PUSH2 0x143D JUMP JUMPDEST PUSH2 0xE23 SWAP1 DUP4 PUSH2 0x145F JUMP JUMPDEST SWAP2 POP DUP1 PUSH2 0xE2F DUP2 PUSH2 0x14AD JUMP JUMPDEST SWAP2 POP POP PUSH2 0xD9B JUMP JUMPDEST POP PUSH2 0xE63 PUSH32 0x0 CALLER DUP4 PUSH2 0x10CF JUMP JUMPDEST PUSH1 0x40 MLOAD DUP2 DUP2 MSTORE CALLER SWAP1 PUSH32 0xBA8DE60C3403EC381D1D484652EA1980E3C3E56359195C92525BFF4CE47AD98E SWAP1 PUSH1 0x20 ADD PUSH2 0xD3E JUMP JUMPDEST PUSH1 0x9 PUSH1 0x20 MSTORE DUP2 PUSH1 0x0 MSTORE PUSH1 0x40 PUSH1 0x0 KECCAK256 DUP2 DUP2 SLOAD DUP2 LT PUSH2 0xEB1 JUMPI PUSH1 0x0 DUP1 REVERT JUMPDEST SWAP1 PUSH1 0x0 MSTORE PUSH1 0x20 PUSH1 0x0 KECCAK256 ADD PUSH1 0x0 SWAP2 POP SWAP2 POP POP SLOAD DUP2 JUMP JUMPDEST PUSH1 0x3 PUSH1 0x20 MSTORE DUP2 PUSH1 0x0 MSTORE PUSH1 0x40 PUSH1 0x0 KECCAK256 DUP2 PUSH1 0x2 DUP2 LT PUSH2 0xEE2 JUMPI PUSH1 0x0 DUP1 REVERT JUMPDEST ADD SLOAD SWAP2 POP DUP3 SWAP1 POP JUMP JUMPDEST PUSH1 0x0 PUSH2 0xF18 PUSH1 0x1 PUSH32 0x0 PUSH2 0x1540 JUMP JUMPDEST PUSH1 0xFF AND PUSH1 0x1 PUSH32 0x0 PUSH1 0xFF AND PUSH1 0x1 DUP6 PUSH2 0xF4E SWAP2 SWAP1 PUSH2 0x1540 JUMP JUMPDEST PUSH1 0xFF AND PUSH2 0xF7C PUSH1 0x1 PUSH32 0x0 PUSH2 0x14C6 JUMP JUMPDEST PUSH2 0xF86 SWAP2 SWAP1 PUSH2 0x1529 JUMP JUMPDEST PUSH2 0xF90 SWAP2 SWAP1 PUSH2 0x145F JUMP JUMPDEST PUSH2 0xF9A SWAP2 SWAP1 PUSH2 0x14C6 JUMP JUMPDEST PUSH2 0xFA4 SWAP1 DUP6 PUSH2 0x1529 JUMP JUMPDEST PUSH2 0xFAE SWAP2 SWAP1 PUSH2 0x143D JUMP JUMPDEST SWAP4 SWAP3 POP POP POP JUMP JUMPDEST PUSH1 0x40 DUP1 MLOAD PUSH1 0x1 PUSH1 0x1 PUSH1 0xA0 SHL SUB DUP6 DUP2 AND PUSH1 0x24 DUP4 ADD MSTORE DUP5 DUP2 AND PUSH1 0x44 DUP4 ADD MSTORE PUSH1 0x64 DUP1 DUP4 ADD DUP6 SWAP1 MSTORE DUP4 MLOAD DUP1 DUP5 SUB SWAP1 SWAP2 ADD DUP2 MSTORE PUSH1 0x84 SWAP1 SWAP3 ADD DUP4 MSTORE PUSH1 0x20 DUP3 ADD DUP1 MLOAD PUSH1 0x1 PUSH1 0x1 PUSH1 0xE0 SHL SUB AND PUSH4 0x23B872DD PUSH1 0xE0 SHL OR SWAP1 MSTORE SWAP2 MLOAD PUSH1 0x0 SWAP3 DUP4 SWAP3 SWAP1 DUP9 AND SWAP2 PUSH2 0x1019 SWAP2 SWAP1 PUSH2 0x1559 JUMP JUMPDEST PUSH1 0x0 PUSH1 0x40 MLOAD DUP1 DUP4 SUB DUP2 PUSH1 0x0 DUP7 GAS CALL SWAP2 POP POP RETURNDATASIZE DUP1 PUSH1 0x0 DUP2 EQ PUSH2 0x1056 JUMPI PUSH1 0x40 MLOAD SWAP2 POP PUSH1 0x1F NOT PUSH1 0x3F RETURNDATASIZE ADD AND DUP3 ADD PUSH1 0x40 MSTORE RETURNDATASIZE DUP3 MSTORE RETURNDATASIZE PUSH1 0x0 PUSH1 0x20 DUP5 ADD RETURNDATACOPY PUSH2 0x105B JUMP JUMPDEST PUSH1 0x60 SWAP2 POP JUMPDEST POP SWAP2 POP SWAP2 POP DUP2 DUP1 ISZERO PUSH2 0x1085 JUMPI POP DUP1 MLOAD ISZERO DUP1 PUSH2 0x1085 JUMPI POP DUP1 DUP1 PUSH1 0x20 ADD SWAP1 MLOAD DUP2 ADD SWAP1 PUSH2 0x1085 SWAP2 SWAP1 PUSH2 0x1588 JUMP JUMPDEST PUSH2 0x10C7 JUMPI PUSH1 0x40 MLOAD PUSH3 0x461BCD PUSH1 0xE5 SHL DUP2 MSTORE PUSH1 0x20 PUSH1 0x4 DUP3 ADD MSTORE PUSH1 0x13 PUSH1 0x24 DUP3 ADD MSTORE PUSH19 0x1D1C985B9CD9995C919C9BDB4819985A5B1959 PUSH1 0x6A SHL PUSH1 0x44 DUP3 ADD MSTORE PUSH1 0x64 ADD PUSH2 0x4A0 JUMP JUMPDEST POP POP POP POP POP POP JUMP JUMPDEST PUSH1 0x40 DUP1 MLOAD PUSH1 0x1 PUSH1 0x1 PUSH1 0xA0 SHL SUB DUP5 DUP2 AND PUSH1 0x24 DUP4 ADD MSTORE PUSH1 0x44 DUP1 DUP4 ADD DUP6 SWAP1 MSTORE DUP4 MLOAD DUP1 DUP5 SUB SWAP1 SWAP2 ADD DUP2 MSTORE PUSH1 0x64 SWAP1 SWAP3 ADD DUP4 MSTORE PUSH1 0x20 DUP3 ADD DUP1 MLOAD PUSH1 0x1 PUSH1 0x1 PUSH1 0xE0 SHL SUB AND PUSH4 0xA9059CBB PUSH1 0xE0 SHL OR SWAP1 MSTORE SWAP2 MLOAD PUSH1 0x0 SWAP3 DUP4 SWAP3 SWAP1 DUP8 AND SWAP2 PUSH2 0x112B SWAP2 SWAP1 PUSH2 0x1559 JUMP JUMPDEST PUSH1 0x0 PUSH1 0x40 MLOAD DUP1 DUP4 SUB DUP2 PUSH1 0x0 DUP7 GAS CALL SWAP2 POP POP RETURNDATASIZE DUP1 PUSH1 0x0 DUP2 EQ PUSH2 0x1168 JUMPI PUSH1 0x40 MLOAD SWAP2 POP PUSH1 0x1F NOT PUSH1 0x3F RETURNDATASIZE ADD AND DUP3 ADD PUSH1 0x40 MSTORE RETURNDATASIZE DUP3 MSTORE RETURNDATASIZE PUSH1 0x0 PUSH1 0x20 DUP5 ADD RETURNDATACOPY PUSH2 0x116D JUMP JUMPDEST PUSH1 0x60 SWAP2 POP JUMPDEST POP SWAP2 POP SWAP2 POP DUP2 DUP1 ISZERO PUSH2 0x1197 JUMPI POP DUP1 MLOAD ISZERO DUP1 PUSH2 0x1197 JUMPI POP DUP1 DUP1 PUSH1 0x20 ADD SWAP1 MLOAD DUP2 ADD SWAP1 PUSH2 0x1197 SWAP2 SWAP1 PUSH2 0x1588 JUMP JUMPDEST PUSH2 0x11D5 JUMPI PUSH1 0x40 MLOAD PUSH3 0x461BCD PUSH1 0xE5 SHL DUP2 MSTORE PUSH1 0x20 PUSH1 0x4 DUP3 ADD MSTORE PUSH1 0xF PUSH1 0x24 DUP3 ADD MSTORE PUSH15 0x1514905394D1915497D19052531151 PUSH1 0x8A SHL PUSH1 0x44 DUP3 ADD MSTORE PUSH1 0x64 ADD PUSH2 0x4A0 JUMP JUMPDEST POP POP POP POP POP JUMP JUMPDEST PUSH1 0x0 PUSH1 0x20 DUP3 DUP5 SUB SLT ISZERO PUSH2 0x11EE JUMPI PUSH1 0x0 DUP1 REVERT JUMPDEST POP CALLDATALOAD SWAP2 SWAP1 POP JUMP JUMPDEST PUSH1 0x0 DUP1 PUSH1 0x40 DUP4 DUP6 SUB SLT ISZERO PUSH2 0x1208 JUMPI PUSH1 0x0 DUP1 REVERT JUMPDEST DUP3 CALLDATALOAD SWAP2 POP PUSH1 0x20 DUP4 ADD CALLDATALOAD PUSH1 0xFF DUP2 AND DUP2 EQ PUSH2 0x1220 JUMPI PUSH1 0x0 DUP1 REVERT JUMPDEST DUP1 SWAP2 POP POP SWAP3 POP SWAP3 SWAP1 POP JUMP JUMPDEST DUP1 CALLDATALOAD PUSH1 0x1 PUSH1 0x1 PUSH1 0xA0 SHL SUB DUP2 AND DUP2 EQ PUSH2 0x1242 JUMPI PUSH1 0x0 DUP1 REVERT JUMPDEST SWAP2 SWAP1 POP JUMP JUMPDEST PUSH1 0x0 PUSH1 0x20 DUP3 DUP5 SUB SLT ISZERO PUSH2 0x1259 JUMPI PUSH1 0x0 DUP1 REVERT JUMPDEST PUSH2 0xFAE DUP3 PUSH2 0x122B JUMP JUMPDEST PUSH1 0x0 DUP1 PUSH1 0x40 DUP4 DUP6 SUB SLT ISZERO PUSH2 0x1275 JUMPI PUSH1 0x0 DUP1 REVERT JUMPDEST PUSH2 0x127E DUP4 PUSH2 0x122B JUMP JUMPDEST SWAP5 PUSH1 0x20 SWAP4 SWAP1 SWAP4 ADD CALLDATALOAD SWAP4 POP POP POP JUMP JUMPDEST PUSH1 0x20 DUP1 DUP3 MSTORE DUP3 MLOAD DUP3 DUP3 ADD DUP2 SWAP1 MSTORE PUSH1 0x0 SWAP2 SWAP1 PUSH1 0x40 SWAP1 DUP2 DUP6 ADD SWAP1 DUP7 DUP5 ADD DUP6 JUMPDEST DUP3 DUP2 LT ISZERO PUSH2 0x12E3 JUMPI DUP2 MLOAD DUP1 MLOAD DUP6 MSTORE DUP7 DUP2 ADD MLOAD DUP8 DUP7 ADD MSTORE DUP6 DUP2 ADD MLOAD DUP7 DUP7 ADD MSTORE PUSH1 0x60 SWAP1 DUP2 ADD MLOAD SWAP1 DUP6 ADD MSTORE PUSH1 0x80 SWAP1 SWAP4 ADD SWAP3 SWAP1 DUP6 ADD SWAP1 PUSH1 0x1 ADD PUSH2 0x12A9 JUMP JUMPDEST POP SWAP2 SWAP8 SWAP7 POP POP POP POP POP POP POP JUMP JUMPDEST PUSH4 0x4E487B71 PUSH1 0xE0 SHL PUSH1 0x0 MSTORE PUSH1 0x41 PUSH1 0x4 MSTORE PUSH1 0x24 PUSH1 0x0 REVERT JUMPDEST PUSH1 0x0 DUP3 PUSH1 0x1F DUP4 ADD SLT PUSH2 0x1317 JUMPI PUSH1 0x0 DUP1 REVERT JUMPDEST DUP2 CALLDATALOAD PUSH1 0x20 PUSH8 0xFFFFFFFFFFFFFFFF DUP1 DUP4 GT ISZERO PUSH2 0x1334 JUMPI PUSH2 0x1334 PUSH2 0x12F0 JUMP JUMPDEST DUP3 PUSH1 0x5 SHL PUSH1 0x40 MLOAD PUSH1 0x1F NOT PUSH1 0x3F DUP4 ADD AND DUP2 ADD DUP2 DUP2 LT DUP5 DUP3 GT OR ISZERO PUSH2 0x1359 JUMPI PUSH2 0x1359 PUSH2 0x12F0 JUMP JUMPDEST PUSH1 0x40 MSTORE SWAP4 DUP5 MSTORE DUP6 DUP2 ADD DUP4 ADD SWAP4 DUP4 DUP2 ADD SWAP3 POP DUP8 DUP6 GT ISZERO PUSH2 0x1377 JUMPI PUSH1 0x0 DUP1 REVERT JUMPDEST DUP4 DUP8 ADD SWAP2 POP JUMPDEST DUP5 DUP3 LT ISZERO PUSH2 0x1396 JUMPI DUP2 CALLDATALOAD DUP4 MSTORE SWAP2 DUP4 ADD SWAP2 SWAP1 DUP4 ADD SWAP1 PUSH2 0x137D JUMP JUMPDEST SWAP8 SWAP7 POP POP POP POP POP POP POP JUMP JUMPDEST PUSH1 0x0 DUP1 PUSH1 0x40 DUP4 DUP6 SUB SLT ISZERO PUSH2 0x13B4 JUMPI PUSH1 0x0 DUP1 REVERT JUMPDEST DUP3 CALLDATALOAD PUSH8 0xFFFFFFFFFFFFFFFF DUP1 DUP3 GT ISZERO PUSH2 0x13CC JUMPI PUSH1 0x0 DUP1 REVERT JUMPDEST PUSH2 0x13D8 DUP7 DUP4 DUP8 ADD PUSH2 0x1306 JUMP JUMPDEST SWAP4 POP PUSH1 0x20 DUP6 ADD CALLDATALOAD SWAP2 POP DUP1 DUP3 GT ISZERO PUSH2 0x13EE JUMPI PUSH1 0x0 DUP1 REVERT JUMPDEST POP PUSH2 0x13FB DUP6 DUP3 DUP7 ADD PUSH2 0x1306 JUMP JUMPDEST SWAP2 POP POP SWAP3 POP SWAP3 SWAP1 POP JUMP JUMPDEST PUSH1 0x0 DUP1 PUSH1 0x40 DUP4 DUP6 SUB SLT ISZERO PUSH2 0x1418 JUMPI PUSH1 0x0 DUP1 REVERT JUMPDEST POP POP DUP1 CALLDATALOAD SWAP3 PUSH1 0x20 SWAP1 SWAP2 ADD CALLDATALOAD SWAP2 POP JUMP JUMPDEST PUSH4 0x4E487B71 PUSH1 0xE0 SHL PUSH1 0x0 MSTORE PUSH1 0x11 PUSH1 0x4 MSTORE PUSH1 0x24 PUSH1 0x0 REVERT JUMPDEST PUSH1 0x0 DUP3 PUSH2 0x145A JUMPI PUSH4 0x4E487B71 PUSH1 0xE0 SHL PUSH1 0x0 MSTORE PUSH1 0x12 PUSH1 0x4 MSTORE PUSH1 0x24 PUSH1 0x0 REVERT JUMPDEST POP DIV SWAP1 JUMP JUMPDEST DUP1 DUP3 ADD DUP1 DUP3 GT ISZERO PUSH2 0x1472 JUMPI PUSH2 0x1472 PUSH2 0x1427 JUMP JUMPDEST SWAP3 SWAP2 POP POP JUMP JUMPDEST PUSH1 0x0 PUSH1 0xFF DUP3 AND PUSH1 0xFF DUP2 SUB PUSH2 0x148E JUMPI PUSH2 0x148E PUSH2 0x1427 JUMP JUMPDEST PUSH1 0x1 ADD SWAP3 SWAP2 POP POP JUMP JUMPDEST PUSH4 0x4E487B71 PUSH1 0xE0 SHL PUSH1 0x0 MSTORE PUSH1 0x32 PUSH1 0x4 MSTORE PUSH1 0x24 PUSH1 0x0 REVERT JUMPDEST PUSH1 0x0 PUSH1 0x1 DUP3 ADD PUSH2 0x14BF JUMPI PUSH2 0x14BF PUSH2 0x1427 JUMP JUMPDEST POP PUSH1 0x1 ADD SWAP1 JUMP JUMPDEST DUP2 DUP2 SUB DUP2 DUP2 GT ISZERO PUSH2 0x1472 JUMPI PUSH2 0x1472 PUSH2 0x1427 JUMP JUMPDEST PUSH4 0x4E487B71 PUSH1 0xE0 SHL PUSH1 0x0 MSTORE PUSH1 0x31 PUSH1 0x4 MSTORE PUSH1 0x24 PUSH1 0x0 REVERT JUMPDEST PUSH1 0x0 DUP2 PUSH2 0x14FE JUMPI PUSH2 0x14FE PUSH2 0x1427 JUMP JUMPDEST POP PUSH1 0x0 NOT ADD SWAP1 JUMP JUMPDEST PUSH1 0x20 DUP1 DUP3 MSTORE PUSH1 0x9 SWAP1 DUP3 ADD MSTORE PUSH9 0x3337B93134B23232B7 PUSH1 0xB9 SHL PUSH1 0x40 DUP3 ADD MSTORE PUSH1 0x60 ADD SWAP1 JUMP JUMPDEST DUP1 DUP3 MUL DUP2 ISZERO DUP3 DUP3 DIV DUP5 EQ OR PUSH2 0x1472 JUMPI PUSH2 0x1472 PUSH2 0x1427 JUMP JUMPDEST PUSH1 0xFF DUP3 DUP2 AND DUP3 DUP3 AND SUB SWAP1 DUP2 GT ISZERO PUSH2 0x1472 JUMPI PUSH2 0x1472 PUSH2 0x1427 JUMP JUMPDEST PUSH1 0x0 DUP3 MLOAD PUSH1 0x0 JUMPDEST DUP2 DUP2 LT ISZERO PUSH2 0x157A JUMPI PUSH1 0x20 DUP2 DUP7 ADD DUP2 ADD MLOAD DUP6 DUP4 ADD MSTORE ADD PUSH2 0x1560 JUMP JUMPDEST POP PUSH1 0x0 SWAP3 ADD SWAP2 DUP3 MSTORE POP SWAP2 SWAP1 POP JUMP JUMPDEST PUSH1 0x0 PUSH1 0x20 DUP3 DUP5 SUB SLT ISZERO PUSH2 0x159A JUMPI PUSH1 0x0 DUP1 REVERT JUMPDEST DUP2 MLOAD DUP1 ISZERO ISZERO DUP2 EQ PUSH2 0xFAE JUMPI PUSH1 0x0 DUP1 REVERT INVALID LOG2 PUSH5 0x6970667358 0x22 SLT KECCAK256 0xEC 0x2A CALLER OR PUSH22 0x41F9356FC432C560730DBD7AFA0F8079ABE745FAFF45 0xAF BLOCKHASH 0xBB 0x2A ADDMOD PUSH5 0x736F6C6343 STOP ADDMOD GT STOP CALLER "},"methodIdentifiers":{"LOCK_WEEKNUM()":"0d437d40","MAX_SCALE()":"f6def7cf","MAX_WEEKS()":"e11400bb","WEEK_SECONDS()":"cd671a58","acceptSetter()":"5f8e422f","canClaimAmount()":"8431165e","claimReward()":"b88a802f","getScore(uint256,uint8)":"ee3453ed","getStaking()":"7b1391a6","latestNo()":"29ed1cfd","lpToken()":"5fcbd285","nonce()":"affed0e0","owner()":"8da5cb5b","rewardToken()":"f7c618c1","rewardsOf(uint256)":"0bce1284","setReward(uint256,uint256)":"a47bd496","setRewards(uint256[],uint256[])":"979db1c4","stake(uint256,uint8)":"10087fb1","stakingERC20s(uint256)":"a218de15","totalScores(uint256)":"157775df","transferOwner(address)":"4fb2e45d","userCanClaimWeeks(address,uint256)":"bb57852d","userERC20s(address,uint256)":"ba086501","userScores(address,uint256)":"5b680a45","withdraw()":"3ccfd60b"}}}}}