{"contracts/stake_nft.sol":{"StakeLiquidity":{"abi":[{"inputs":[{"internalType":"address","name":"tokenA","type":"address"},{"internalType":"address","name":"tokenB","type":"address"},{"internalType":"address","name":"nft","type":"address"},{"internalType":"address","name":"_rewardToken","type":"address"}],"stateMutability":"nonpayable","type":"constructor"},{"anonymous":false,"inputs":[{"indexed":true,"internalType":"address","name":"user","type":"address"},{"indexed":false,"internalType":"uint256","name":"tokenId","type":"uint256"},{"indexed":false,"internalType":"uint256","name":"amount","type":"uint256"}],"name":"ClaimReward","type":"event"},{"anonymous":false,"inputs":[{"indexed":true,"internalType":"address","name":"user","type":"address"},{"indexed":false,"internalType":"uint256","name":"no","type":"uint256"},{"indexed":false,"internalType":"uint256","name":"amount","type":"uint256"}],"name":"SetReward","type":"event"},{"anonymous":false,"inputs":[{"indexed":true,"internalType":"address","name":"user","type":"address"},{"indexed":false,"internalType":"uint256","name":"tokenId","type":"uint256"},{"indexed":false,"internalType":"uint256","name":"amount","type":"uint256"},{"indexed":false,"internalType":"uint8","name":"k","type":"uint8"}],"name":"Stake","type":"event"},{"anonymous":false,"inputs":[{"indexed":true,"internalType":"address","name":"user","type":"address"},{"indexed":false,"internalType":"uint256","name":"tokenId","type":"uint256"}],"name":"Withdraw","type":"event"},{"inputs":[],"name":"MAX_SCALE","outputs":[{"internalType":"uint256","name":"","type":"uint256"}],"stateMutability":"view","type":"function"},{"inputs":[],"name":"MAX_WEEKS","outputs":[{"internalType":"uint8","name":"","type":"uint8"}],"stateMutability":"view","type":"function"},{"inputs":[],"name":"acceptSetter","outputs":[],"stateMutability":"nonpayable","type":"function"},{"inputs":[{"internalType":"uint256","name":"","type":"uint256"},{"internalType":"uint256","name":"","type":"uint256"}],"name":"bClaimReward","outputs":[{"internalType":"bool","name":"","type":"bool"}],"stateMutability":"view","type":"function"},{"inputs":[{"internalType":"uint256","name":"tokenId","type":"uint256"},{"internalType":"uint256[]","name":"Nos","type":"uint256[]"}],"name":"claimReward","outputs":[],"stateMutability":"nonpayable","type":"function"},{"inputs":[],"name":"divConst","outputs":[{"internalType":"uint32","name":"","type":"uint32"}],"stateMutability":"view","type":"function"},{"inputs":[{"internalType":"uint256","name":"amount","type":"uint256"},{"internalType":"uint8","name":"k","type":"uint8"}],"name":"getScore","outputs":[{"internalType":"uint256","name":"","type":"uint256"}],"stateMutability":"view","type":"function"},{"inputs":[{"internalType":"uint256","name":"tokenId","type":"uint256"}],"name":"getUnclaimed","outputs":[{"internalType":"uint256","name":"begin","type":"uint256"},{"internalType":"uint256","name":"end","type":"uint256"},{"internalType":"uint256","name":"unclaimed","type":"uint256"}],"stateMutability":"view","type":"function"},{"inputs":[],"name":"getUserNFTs","outputs":[{"internalType":"uint256[]","name":"","type":"uint256[]"},{"internalType":"uint256","name":"","type":"uint256"}],"stateMutability":"view","type":"function"},{"inputs":[],"name":"nftToken","outputs":[{"internalType":"contract IIotabeeSwapNFT","name":"","type":"address"}],"stateMutability":"view","type":"function"},{"inputs":[],"name":"owner","outputs":[{"internalType":"address","name":"","type":"address"}],"stateMutability":"view","type":"function"},{"inputs":[],"name":"rewardToken","outputs":[{"internalType":"address","name":"","type":"address"}],"stateMutability":"view","type":"function"},{"inputs":[{"internalType":"uint256","name":"","type":"uint256"}],"name":"rewardsOf","outputs":[{"internalType":"uint256","name":"","type":"uint256"}],"stateMutability":"view","type":"function"},{"inputs":[{"internalType":"uint256","name":"no","type":"uint256"},{"internalType":"uint256","name":"amount","type":"uint256"}],"name":"setReward","outputs":[],"stateMutability":"nonpayable","type":"function"},{"inputs":[{"internalType":"uint8","name":"maxWeeks","type":"uint8"},{"internalType":"uint256","name":"maxScale","type":"uint256"}],"name":"setScoreFormula","outputs":[],"stateMutability":"nonpayable","type":"function"},{"inputs":[{"internalType":"uint256","name":"tokenId","type":"uint256"},{"internalType":"uint8","name":"k","type":"uint8"}],"name":"stake","outputs":[],"stateMutability":"nonpayable","type":"function"},{"inputs":[{"internalType":"uint256","name":"","type":"uint256"}],"name":"stakingNFTs","outputs":[{"internalType":"address","name":"owner","type":"address"},{"internalType":"uint256","name":"score","type":"uint256"},{"internalType":"uint256","name":"beginNo","type":"uint256"},{"internalType":"uint256","name":"endNo","type":"uint256"}],"stateMutability":"view","type":"function"},{"inputs":[],"name":"token0","outputs":[{"internalType":"address","name":"","type":"address"}],"stateMutability":"view","type":"function"},{"inputs":[],"name":"token1","outputs":[{"internalType":"address","name":"","type":"address"}],"stateMutability":"view","type":"function"},{"inputs":[{"internalType":"address","name":"_owner","type":"address"}],"name":"transferOwner","outputs":[],"stateMutability":"nonpayable","type":"function"},{"inputs":[{"internalType":"address","name":"","type":"address"},{"internalType":"uint256","name":"","type":"uint256"}],"name":"userNFTs","outputs":[{"internalType":"uint256","name":"","type":"uint256"}],"stateMutability":"view","type":"function"},{"inputs":[{"internalType":"uint256","name":"tokenId","type":"uint256"}],"name":"withdraw","outputs":[],"stateMutability":"nonpayable","type":"function"}],"evm":{"bytecode":{"linkReferences":{},"object":"6101006040523480156200001257600080fd5b5060405162001a2638038062001a268339810160408190526200003591620000bb565b600080546001600160a01b031916331790556001600160a01b03838116908516106200006357828462000066565b83835b6001600160a01b0390811660c05290811660a0529182166080521660e05250506007805460ff19166034179055600260085562000118565b80516001600160a01b0381168114620000b657600080fd5b919050565b60008060008060808587031215620000d257600080fd5b620000dd856200009e565b9350620000ed602086016200009e565b9250620000fd604086016200009e565b91506200010d606086016200009e565b905092959194509250565b60805160a05160c05160e05161189c6200018a600039600081816103df01528181610af30152610b8001526000818161037d0152610f0a01526000818161017f0152610ece015260008181610356015281816107b101528181610e2d0152818161100101526110d2015261189c6000f3fe608060405234801561001057600080fd5b50600436106101425760003560e01c80639b6e0d74116100b8578063d21220a71161007c578063d21220a714610378578063e11400bb1461039f578063ee3453ed146103be578063f6def7cf146103d1578063f7c618c1146103da578063fdc5ab8e1461040157600080fd5b80639b6e0d74146102bf578063a47bd496146102d2578063c25fef0d146102e5578063ce6d3e3e14610313578063d06fcba81461035157600080fd5b80632e1a7d4d1161010a5780632e1a7d4d1461024c5780634fb2e45d1461025f5780635f8e422f14610272578063721348e81461027a5780637e4856c41461028d5780638da5cb5b146102ac57600080fd5b80630bce1284146101475780630dfe16811461017a57806310087fb1146101b957806310c6c1c2146101ce578063291c73c314610239575b600080fd5b610167610155366004611372565b60066020526000908152604090205481565b6040519081526020015b60405180910390f35b6101a17f000000000000000000000000000000000000000000000000000000000000000081565b6040516001600160a01b039091168152602001610171565b6101cc6101c73660046113a1565b610417565b005b61020f6101dc366004611372565b600260208190526000918252604090912080546001820154928201546003909201546001600160a01b0390911692919084565b604080516001600160a01b0390951685526020850193909352918301526060820152608001610171565b6101676102473660046113e5565b6105ed565b6101cc61025a366004611372565b61061e565b6101cc61026d366004611411565b610860565b6101cc6108ac565b6101cc610288366004611435565b6108fd565b610297620f424081565b60405163ffffffff9091168152602001610171565b6000546101a1906001600160a01b031681565b6101cc6102cd366004611467565b610986565b6101cc6102e0366004611531565b610b51565b6102f86102f3366004611372565b610c09565b60408051938452602084019290925290820152606001610171565b610341610321366004611531565b600460209081526000928352604080842090915290825290205460ff1681565b6040519015158152602001610171565b6101a17f000000000000000000000000000000000000000000000000000000000000000081565b6101a17f000000000000000000000000000000000000000000000000000000000000000081565b6007546103ac9060ff1681565b60405160ff9091168152602001610171565b6101676103cc3660046113a1565b610c6e565b61016760085481565b6101a17f000000000000000000000000000000000000000000000000000000000000000081565b610409610cc3565b604051610171929190611553565b60008160ff16118015610433575060075460ff90811690821611155b6104785760405162461bcd60e51b815260206004820152601160248201527039ba30b5b2903bb2b2b5b99032b93937b960791b60448201526064015b60405180910390fd5b600061048383610e22565b9050600061049462093a80426115b1565b61049f9060016115d3565b905060006104ad8385610c6e565b905060005b8460ff168160ff1610156105075781600560006104d260ff8516876115d3565b815260200190815260200160002060008282546104ef91906115d3565b909155508190506104ff816115e6565b9150506104b2565b5060408051608081018252338152602081018390529081018390526060810161053360ff8716856115d3565b90526000868152600260208181526040808420855181546001600160a01b0319166001600160a01b039091161781558583015160018083019190915586830151948201949094556060958601516003918201553380865290835281852080549485018155855293829020909201899055815189815290810187905260ff88169181019190915290917f6fa2f6021ee337436cdf2b2570285886da18bc06402ce284d296504a0fe8f875910160405180910390a25050505050565b6003602052816000526040600020818154811061060957600080fd5b90600052602060002001600091509150505481565b6000818152600260205260409020546001600160a01b031633146106765760405162461bcd60e51b815260206004820152600f60248201526e37bbb732b9103337b93134b23232b760891b604482015260640161046f565b600061068562093a80426115b1565b6000838152600260205260409020600301549091508110156106d75760405162461bcd60e51b815260206004820152600b60248201526a6c6f636b65642074696d6560a81b604482015260640161046f565b336000908152600360205260408120905b81548110156108245781818154811061070357610703611605565b9060005260206000200154840361081257815482906107249060019061161b565b8154811061073457610734611605565b906000526020600020015482828154811061075157610751611605565b90600052602060002001819055508180548061076f5761076f61162e565b600082815260208120820160001990810191909155019055604051632142170760e11b8152306004820152336024820152604481018590526001600160a01b037f000000000000000000000000000000000000000000000000000000000000000016906342842e0e90606401600060405180830381600087803b1580156107f557600080fd5b505af1158015610809573d6000803e3d6000fd5b50505050610824565b8061081c81611644565b9150506106e8565b5060405183815233907f884edad9ce6fa2440d8a54cc123490eb96d2768479d49ff9c7366125a9424364906020015b60405180910390a2505050565b6000546001600160a01b0316331461088a5760405162461bcd60e51b815260040161046f9061165d565b600180546001600160a01b0319166001600160a01b0392909216919091179055565b6001546001600160a01b031633146108d65760405162461bcd60e51b815260040161046f9061165d565b60018054600080546001600160a01b03199081166001600160a01b03841617909155169055565b6000546001600160a01b031633146109275760405162461bcd60e51b815260040161046f9061165d565b6001811161096c5760405162461bcd60e51b81526020600482015260126024820152711b585e14d8d85b19481d1bdbc81cdb585b1b60721b604482015260640161046f565b6007805460ff191660ff9390931692909217909155600855565b6000828152600260205260409020546001600160a01b031633146109de5760405162461bcd60e51b815260206004820152600f60248201526e37bbb732b9103337b93134b23232b760891b604482015260640161046f565b6000805b8251811015610aed5760008382815181106109ff576109ff611605565b6020908102919091018101516000878152600483526040808220838352909352919091205490915060ff1615610a355750610adb565b60008581526002602052604090206003015481101580610a6657506000858152600260208190526040909120015481105b15610a715750610adb565b60008581526004602090815260408083208484528252808320805460ff19166001908117909155600583528184205489855260028452828520909101548585526006909352922054610ac39190611680565b610acd91906115b1565b610ad790846115d3565b9250505b80610ae581611644565b9150506109e2565b50610b197f0000000000000000000000000000000000000000000000000000000000000000338361114b565b604080518481526020810183905233917fe74e5c9d4ac1fc33412485f18c159a0a391efe287ab3fd271123f30e6bacf4e39101610853565b6000546001600160a01b03163314610b7b5760405162461bcd60e51b815260040161046f9061165d565b610ba77f0000000000000000000000000000000000000000000000000000000000000000333084611258565b60008281526006602052604081208054839290610bc59084906115d3565b9091555050604080518381526020810183905233917fc3991418cacd70a010fce559a44fcbb47534ca43bf7543964bdca2639f6e6e5a910160405180910390a25050565b60008181526002602081905260408220908101546003909101549091825b82811015610c6657600085815260046020908152604080832084845290915290205460ff16610c54578091505b80610c5e81611644565b915050610c27565b509193909250565b600754600854600091829160ff91821691829190861690610c919060019061161b565b610c9b9190611680565b610ca591906115d3565b610caf9086611680565b610cb991906115b1565b9150505b92915050565b3360009081526003602052604081205460609190819067ffffffffffffffff811115610cf157610cf1611451565b604051908082528060200260200182016040528015610d1a578160200160208202803683370190505b5090506000610d2c62093a80426115b1565b3360009081526003602052604081205491925090815b33600090815260036020526040902054811015610e1557336000908152600360205260408120805483908110610d7a57610d7a611605565b906000526020600020015490508460026000838152602001908152602001600020600301541115610dd55780868581518110610db857610db8611605565b602090810291909101015283610dcd81611644565b945050610e02565b82610ddf81611697565b93505080868481518110610df557610df5611605565b6020026020010181815250505b5080610e0d81611644565b915050610d42565b5092959294509192505050565b6000806000806000807f00000000000000000000000000000000000000000000000000000000000000006001600160a01b03166399fbab88886040518263ffffffff1660e01b8152600401610e7991815260200190565b61018060405180830381865afa158015610e97573d6000803e3d6000fd5b505050506040513d601f19601f82011682018060405250810190610ebb91906116f5565b50505050975097509750509650965050507f00000000000000000000000000000000000000000000000000000000000000006001600160a01b0316856001600160a01b0316148015610f3e57507f00000000000000000000000000000000000000000000000000000000000000006001600160a01b0316846001600160a01b0316145b610f7a5760405162461bcd60e51b815260206004820152600d60248201526c3638103830b4b91032b93937b960991b604482015260640161046f565b600283900b620d89e719148015610fa25750610f99620d89e7196117d6565b60020b8260020b145b610fe15760405162461bcd60e51b815260206004820152601060248201526f3a34b1b5903930b733b29032b93937b960811b604482015260640161046f565b60405163020604bf60e21b81526004810188905230906001600160a01b037f0000000000000000000000000000000000000000000000000000000000000000169063081812fc90602401602060405180830381865afa158015611048573d6000803e3d6000fd5b505050506040513d601f19601f8201168201806040525081019061106c91906117f8565b6001600160a01b0316146110b05760405162461bcd60e51b815260206004820152600b60248201526a6e6f7420617070726f766560a81b604482015260640161046f565b604051632142170760e11b8152336004820152306024820152604481018890527f00000000000000000000000000000000000000000000000000000000000000006001600160a01b0316906342842e0e90606401600060405180830381600087803b15801561111e57600080fd5b505af1158015611132573d6000803e3d6000fd5b50506001600160801b0390921698975050505050505050565b604080516001600160a01b038481166024830152604480830185905283518084039091018152606490920183526020820180516001600160e01b031663a9059cbb60e01b17905291516000928392908716916111a79190611815565b6000604051808303816000865af19150503d80600081146111e4576040519150601f19603f3d011682016040523d82523d6000602084013e6111e9565b606091505b50915091508180156112135750805115806112135750808060200190518101906112139190611844565b6112515760405162461bcd60e51b815260206004820152600f60248201526e1514905394d1915497d19052531151608a1b604482015260640161046f565b5050505050565b604080516001600160a01b0385811660248301528481166044830152606480830185905283518084039091018152608490920183526020820180516001600160e01b03166323b872dd60e01b17905291516000928392908816916112bc9190611815565b6000604051808303816000865af19150503d80600081146112f9576040519150601f19603f3d011682016040523d82523d6000602084013e6112fe565b606091505b50915091508180156113285750805115806113285750808060200190518101906113289190611844565b61136a5760405162461bcd60e51b81526020600482015260136024820152721d1c985b9cd9995c919c9bdb4819985a5b1959606a1b604482015260640161046f565b505050505050565b60006020828403121561138457600080fd5b5035919050565b803560ff8116811461139c57600080fd5b919050565b600080604083850312156113b457600080fd5b823591506113c46020840161138b565b90509250929050565b6001600160a01b03811681146113e257600080fd5b50565b600080604083850312156113f857600080fd5b8235611403816113cd565b946020939093013593505050565b60006020828403121561142357600080fd5b813561142e816113cd565b9392505050565b6000806040838503121561144857600080fd5b6114038361138b565b634e487b7160e01b600052604160045260246000fd5b6000806040838503121561147a57600080fd5b8235915060208084013567ffffffffffffffff8082111561149a57600080fd5b818601915086601f8301126114ae57600080fd5b8135818111156114c0576114c0611451565b8060051b604051601f19603f830116810181811085821117156114e5576114e5611451565b60405291825284820192508381018501918983111561150357600080fd5b938501935b8285101561152157843584529385019392850192611508565b8096505050505050509250929050565b6000806040838503121561154457600080fd5b50508035926020909101359150565b604080825283519082018190526000906020906060840190828701845b8281101561158c57815184529284019290840190600101611570565b50505092019290925292915050565b634e487b7160e01b600052601160045260246000fd5b6000826115ce57634e487b7160e01b600052601260045260246000fd5b500490565b80820180821115610cbd57610cbd61159b565b600060ff821660ff81036115fc576115fc61159b565b60010192915050565b634e487b7160e01b600052603260045260246000fd5b81810381811115610cbd57610cbd61159b565b634e487b7160e01b600052603160045260246000fd5b6000600182016116565761165661159b565b5060010190565b6020808252600990820152683337b93134b23232b760b91b604082015260600190565b8082028115828204841417610cbd57610cbd61159b565b6000816116a6576116a661159b565b506000190190565b805161139c816113cd565b805162ffffff8116811461139c57600080fd5b8051600281900b811461139c57600080fd5b80516001600160801b038116811461139c57600080fd5b6000806000806000806000806000806000806101808d8f03121561171857600080fd5b8c516bffffffffffffffffffffffff8116811461173457600080fd5b9b5061174260208e016116ae565b9a5061175060408e016116ae565b995061175e60608e016116ae565b985061176c60808e016116b9565b975061177a60a08e016116cc565b965061178860c08e016116cc565b955061179660e08e016116de565b94506101008d015193506101208d015192506117b56101408e016116de565b91506117c46101608e016116de565b90509295989b509295989b509295989b565b60008160020b627fffff1981036117ef576117ef61159b565b60000392915050565b60006020828403121561180a57600080fd5b815161142e816113cd565b6000825160005b81811015611836576020818601810151858301520161181c565b506000920191825250919050565b60006020828403121561185657600080fd5b8151801515811461142e57600080fdfea2646970667358221220c61f7a87e2287733dfcdac323e13875875c3728987b382f4d1c044f305f693ac64736f6c63430008110033","opcodes":"PUSH2 0x100 PUSH1 0x40 MSTORE CALLVALUE DUP1 ISZERO PUSH3 0x12 JUMPI PUSH1 0x0 DUP1 REVERT JUMPDEST POP PUSH1 0x40 MLOAD PUSH3 0x1A26 CODESIZE SUB DUP1 PUSH3 0x1A26 DUP4 CODECOPY DUP2 ADD PUSH1 0x40 DUP2 SWAP1 MSTORE PUSH3 0x35 SWAP2 PUSH3 0xBB JUMP JUMPDEST PUSH1 0x0 DUP1 SLOAD PUSH1 0x1 PUSH1 0x1 PUSH1 0xA0 SHL SUB NOT AND CALLER OR SWAP1 SSTORE PUSH1 0x1 PUSH1 0x1 PUSH1 0xA0 SHL SUB DUP4 DUP2 AND SWAP1 DUP6 AND LT PUSH3 0x63 JUMPI DUP3 DUP5 PUSH3 0x66 JUMP JUMPDEST DUP4 DUP4 JUMPDEST PUSH1 0x1 PUSH1 0x1 PUSH1 0xA0 SHL SUB SWAP1 DUP2 AND PUSH1 0xC0 MSTORE SWAP1 DUP2 AND PUSH1 0xA0 MSTORE SWAP2 DUP3 AND PUSH1 0x80 MSTORE AND PUSH1 0xE0 MSTORE POP POP PUSH1 0x7 DUP1 SLOAD PUSH1 0xFF NOT AND PUSH1 0x34 OR SWAP1 SSTORE PUSH1 0x2 PUSH1 0x8 SSTORE PUSH3 0x118 JUMP JUMPDEST DUP1 MLOAD PUSH1 0x1 PUSH1 0x1 PUSH1 0xA0 SHL SUB DUP2 AND DUP2 EQ PUSH3 0xB6 JUMPI PUSH1 0x0 DUP1 REVERT JUMPDEST SWAP2 SWAP1 POP JUMP JUMPDEST PUSH1 0x0 DUP1 PUSH1 0x0 DUP1 PUSH1 0x80 DUP6 DUP8 SUB SLT ISZERO PUSH3 0xD2 JUMPI PUSH1 0x0 DUP1 REVERT JUMPDEST PUSH3 0xDD DUP6 PUSH3 0x9E JUMP JUMPDEST SWAP4 POP PUSH3 0xED PUSH1 0x20 DUP7 ADD PUSH3 0x9E JUMP JUMPDEST SWAP3 POP PUSH3 0xFD PUSH1 0x40 DUP7 ADD PUSH3 0x9E JUMP JUMPDEST SWAP2 POP PUSH3 0x10D PUSH1 0x60 DUP7 ADD PUSH3 0x9E JUMP JUMPDEST SWAP1 POP SWAP3 SWAP6 SWAP2 SWAP5 POP SWAP3 POP JUMP JUMPDEST PUSH1 0x80 MLOAD PUSH1 0xA0 MLOAD PUSH1 0xC0 MLOAD PUSH1 0xE0 MLOAD PUSH2 0x189C PUSH3 0x18A PUSH1 0x0 CODECOPY PUSH1 0x0 DUP2 DUP2 PUSH2 0x3DF ADD MSTORE DUP2 DUP2 PUSH2 0xAF3 ADD MSTORE PUSH2 0xB80 ADD MSTORE PUSH1 0x0 DUP2 DUP2 PUSH2 0x37D ADD MSTORE PUSH2 0xF0A ADD MSTORE PUSH1 0x0 DUP2 DUP2 PUSH2 0x17F ADD MSTORE PUSH2 0xECE ADD MSTORE PUSH1 0x0 DUP2 DUP2 PUSH2 0x356 ADD MSTORE DUP2 DUP2 PUSH2 0x7B1 ADD MSTORE DUP2 DUP2 PUSH2 0xE2D ADD MSTORE DUP2 DUP2 PUSH2 0x1001 ADD MSTORE PUSH2 0x10D2 ADD MSTORE PUSH2 0x189C PUSH1 0x0 RETURN INVALID PUSH1 0x80 PUSH1 0x40 MSTORE CALLVALUE DUP1 ISZERO PUSH2 0x10 JUMPI PUSH1 0x0 DUP1 REVERT JUMPDEST POP PUSH1 0x4 CALLDATASIZE LT PUSH2 0x142 JUMPI PUSH1 0x0 CALLDATALOAD PUSH1 0xE0 SHR DUP1 PUSH4 0x9B6E0D74 GT PUSH2 0xB8 JUMPI DUP1 PUSH4 0xD21220A7 GT PUSH2 0x7C JUMPI DUP1 PUSH4 0xD21220A7 EQ PUSH2 0x378 JUMPI DUP1 PUSH4 0xE11400BB EQ PUSH2 0x39F JUMPI DUP1 PUSH4 0xEE3453ED EQ PUSH2 0x3BE JUMPI DUP1 PUSH4 0xF6DEF7CF EQ PUSH2 0x3D1 JUMPI DUP1 PUSH4 0xF7C618C1 EQ PUSH2 0x3DA JUMPI DUP1 PUSH4 0xFDC5AB8E EQ PUSH2 0x401 JUMPI PUSH1 0x0 DUP1 REVERT JUMPDEST DUP1 PUSH4 0x9B6E0D74 EQ PUSH2 0x2BF JUMPI DUP1 PUSH4 0xA47BD496 EQ PUSH2 0x2D2 JUMPI DUP1 PUSH4 0xC25FEF0D EQ PUSH2 0x2E5 JUMPI DUP1 PUSH4 0xCE6D3E3E EQ PUSH2 0x313 JUMPI DUP1 PUSH4 0xD06FCBA8 EQ PUSH2 0x351 JUMPI PUSH1 0x0 DUP1 REVERT JUMPDEST DUP1 PUSH4 0x2E1A7D4D GT PUSH2 0x10A JUMPI DUP1 PUSH4 0x2E1A7D4D EQ PUSH2 0x24C JUMPI DUP1 PUSH4 0x4FB2E45D EQ PUSH2 0x25F JUMPI DUP1 PUSH4 0x5F8E422F EQ PUSH2 0x272 JUMPI DUP1 PUSH4 0x721348E8 EQ PUSH2 0x27A JUMPI DUP1 PUSH4 0x7E4856C4 EQ PUSH2 0x28D JUMPI DUP1 PUSH4 0x8DA5CB5B EQ PUSH2 0x2AC JUMPI PUSH1 0x0 DUP1 REVERT JUMPDEST DUP1 PUSH4 0xBCE1284 EQ PUSH2 0x147 JUMPI DUP1 PUSH4 0xDFE1681 EQ PUSH2 0x17A JUMPI DUP1 PUSH4 0x10087FB1 EQ PUSH2 0x1B9 JUMPI DUP1 PUSH4 0x10C6C1C2 EQ PUSH2 0x1CE JUMPI DUP1 PUSH4 0x291C73C3 EQ PUSH2 0x239 JUMPI JUMPDEST PUSH1 0x0 DUP1 REVERT JUMPDEST PUSH2 0x167 PUSH2 0x155 CALLDATASIZE PUSH1 0x4 PUSH2 0x1372 JUMP JUMPDEST PUSH1 0x6 PUSH1 0x20 MSTORE PUSH1 0x0 SWAP1 DUP2 MSTORE PUSH1 0x40 SWAP1 KECCAK256 SLOAD DUP2 JUMP JUMPDEST PUSH1 0x40 MLOAD SWAP1 DUP2 MSTORE PUSH1 0x20 ADD JUMPDEST PUSH1 0x40 MLOAD DUP1 SWAP2 SUB SWAP1 RETURN JUMPDEST PUSH2 0x1A1 PUSH32 0x0 DUP2 JUMP JUMPDEST PUSH1 0x40 MLOAD PUSH1 0x1 PUSH1 0x1 PUSH1 0xA0 SHL SUB SWAP1 SWAP2 AND DUP2 MSTORE PUSH1 0x20 ADD PUSH2 0x171 JUMP JUMPDEST PUSH2 0x1CC PUSH2 0x1C7 CALLDATASIZE PUSH1 0x4 PUSH2 0x13A1 JUMP JUMPDEST PUSH2 0x417 JUMP JUMPDEST STOP JUMPDEST PUSH2 0x20F PUSH2 0x1DC CALLDATASIZE PUSH1 0x4 PUSH2 0x1372 JUMP JUMPDEST PUSH1 0x2 PUSH1 0x20 DUP2 SWAP1 MSTORE PUSH1 0x0 SWAP2 DUP3 MSTORE PUSH1 0x40 SWAP1 SWAP2 KECCAK256 DUP1 SLOAD PUSH1 0x1 DUP3 ADD SLOAD SWAP3 DUP3 ADD SLOAD PUSH1 0x3 SWAP1 SWAP3 ADD SLOAD PUSH1 0x1 PUSH1 0x1 PUSH1 0xA0 SHL SUB SWAP1 SWAP2 AND SWAP3 SWAP2 SWAP1 DUP5 JUMP JUMPDEST PUSH1 0x40 DUP1 MLOAD PUSH1 0x1 PUSH1 0x1 PUSH1 0xA0 SHL SUB SWAP1 SWAP6 AND DUP6 MSTORE PUSH1 0x20 DUP6 ADD SWAP4 SWAP1 SWAP4 MSTORE SWAP2 DUP4 ADD MSTORE PUSH1 0x60 DUP3 ADD MSTORE PUSH1 0x80 ADD PUSH2 0x171 JUMP JUMPDEST PUSH2 0x167 PUSH2 0x247 CALLDATASIZE PUSH1 0x4 PUSH2 0x13E5 JUMP JUMPDEST PUSH2 0x5ED JUMP JUMPDEST PUSH2 0x1CC PUSH2 0x25A CALLDATASIZE PUSH1 0x4 PUSH2 0x1372 JUMP JUMPDEST PUSH2 0x61E JUMP JUMPDEST PUSH2 0x1CC PUSH2 0x26D CALLDATASIZE PUSH1 0x4 PUSH2 0x1411 JUMP JUMPDEST PUSH2 0x860 JUMP JUMPDEST PUSH2 0x1CC PUSH2 0x8AC JUMP JUMPDEST PUSH2 0x1CC PUSH2 0x288 CALLDATASIZE PUSH1 0x4 PUSH2 0x1435 JUMP JUMPDEST PUSH2 0x8FD JUMP JUMPDEST PUSH2 0x297 PUSH3 0xF4240 DUP2 JUMP JUMPDEST PUSH1 0x40 MLOAD PUSH4 0xFFFFFFFF SWAP1 SWAP2 AND DUP2 MSTORE PUSH1 0x20 ADD PUSH2 0x171 JUMP JUMPDEST PUSH1 0x0 SLOAD PUSH2 0x1A1 SWAP1 PUSH1 0x1 PUSH1 0x1 PUSH1 0xA0 SHL SUB AND DUP2 JUMP JUMPDEST PUSH2 0x1CC PUSH2 0x2CD CALLDATASIZE PUSH1 0x4 PUSH2 0x1467 JUMP JUMPDEST PUSH2 0x986 JUMP JUMPDEST PUSH2 0x1CC PUSH2 0x2E0 CALLDATASIZE PUSH1 0x4 PUSH2 0x1531 JUMP JUMPDEST PUSH2 0xB51 JUMP JUMPDEST PUSH2 0x2F8 PUSH2 0x2F3 CALLDATASIZE PUSH1 0x4 PUSH2 0x1372 JUMP JUMPDEST PUSH2 0xC09 JUMP JUMPDEST PUSH1 0x40 DUP1 MLOAD SWAP4 DUP5 MSTORE PUSH1 0x20 DUP5 ADD SWAP3 SWAP1 SWAP3 MSTORE SWAP1 DUP3 ADD MSTORE PUSH1 0x60 ADD PUSH2 0x171 JUMP JUMPDEST PUSH2 0x341 PUSH2 0x321 CALLDATASIZE PUSH1 0x4 PUSH2 0x1531 JUMP JUMPDEST PUSH1 0x4 PUSH1 0x20 SWAP1 DUP2 MSTORE PUSH1 0x0 SWAP3 DUP4 MSTORE PUSH1 0x40 DUP1 DUP5 KECCAK256 SWAP1 SWAP2 MSTORE SWAP1 DUP3 MSTORE SWAP1 KECCAK256 SLOAD PUSH1 0xFF AND DUP2 JUMP JUMPDEST PUSH1 0x40 MLOAD SWAP1 ISZERO ISZERO DUP2 MSTORE PUSH1 0x20 ADD PUSH2 0x171 JUMP JUMPDEST PUSH2 0x1A1 PUSH32 0x0 DUP2 JUMP JUMPDEST PUSH2 0x1A1 PUSH32 0x0 DUP2 JUMP JUMPDEST PUSH1 0x7 SLOAD PUSH2 0x3AC SWAP1 PUSH1 0xFF AND DUP2 JUMP JUMPDEST PUSH1 0x40 MLOAD PUSH1 0xFF SWAP1 SWAP2 AND DUP2 MSTORE PUSH1 0x20 ADD PUSH2 0x171 JUMP JUMPDEST PUSH2 0x167 PUSH2 0x3CC CALLDATASIZE PUSH1 0x4 PUSH2 0x13A1 JUMP JUMPDEST PUSH2 0xC6E JUMP JUMPDEST PUSH2 0x167 PUSH1 0x8 SLOAD DUP2 JUMP JUMPDEST PUSH2 0x1A1 PUSH32 0x0 DUP2 JUMP JUMPDEST PUSH2 0x409 PUSH2 0xCC3 JUMP JUMPDEST PUSH1 0x40 MLOAD PUSH2 0x171 SWAP3 SWAP2 SWAP1 PUSH2 0x1553 JUMP JUMPDEST PUSH1 0x0 DUP2 PUSH1 0xFF AND GT DUP1 ISZERO PUSH2 0x433 JUMPI POP PUSH1 0x7 SLOAD PUSH1 0xFF SWAP1 DUP2 AND SWAP1 DUP3 AND GT ISZERO JUMPDEST PUSH2 0x478 JUMPI PUSH1 0x40 MLOAD PUSH3 0x461BCD PUSH1 0xE5 SHL DUP2 MSTORE PUSH1 0x20 PUSH1 0x4 DUP3 ADD MSTORE PUSH1 0x11 PUSH1 0x24 DUP3 ADD MSTORE PUSH17 0x39BA30B5B2903BB2B2B5B99032B93937B9 PUSH1 0x79 SHL PUSH1 0x44 DUP3 ADD MSTORE PUSH1 0x64 ADD JUMPDEST PUSH1 0x40 MLOAD DUP1 SWAP2 SUB SWAP1 REVERT JUMPDEST PUSH1 0x0 PUSH2 0x483 DUP4 PUSH2 0xE22 JUMP JUMPDEST SWAP1 POP PUSH1 0x0 PUSH2 0x494 PUSH3 0x93A80 TIMESTAMP PUSH2 0x15B1 JUMP JUMPDEST PUSH2 0x49F SWAP1 PUSH1 0x1 PUSH2 0x15D3 JUMP JUMPDEST SWAP1 POP PUSH1 0x0 PUSH2 0x4AD DUP4 DUP6 PUSH2 0xC6E JUMP JUMPDEST SWAP1 POP PUSH1 0x0 JUMPDEST DUP5 PUSH1 0xFF AND DUP2 PUSH1 0xFF AND LT ISZERO PUSH2 0x507 JUMPI DUP2 PUSH1 0x5 PUSH1 0x0 PUSH2 0x4D2 PUSH1 0xFF DUP6 AND DUP8 PUSH2 0x15D3 JUMP JUMPDEST DUP2 MSTORE PUSH1 0x20 ADD SWAP1 DUP2 MSTORE PUSH1 0x20 ADD PUSH1 0x0 KECCAK256 PUSH1 0x0 DUP3 DUP3 SLOAD PUSH2 0x4EF SWAP2 SWAP1 PUSH2 0x15D3 JUMP JUMPDEST SWAP1 SWAP2 SSTORE POP DUP2 SWAP1 POP PUSH2 0x4FF DUP2 PUSH2 0x15E6 JUMP JUMPDEST SWAP2 POP POP PUSH2 0x4B2 JUMP JUMPDEST POP PUSH1 0x40 DUP1 MLOAD PUSH1 0x80 DUP2 ADD DUP3 MSTORE CALLER DUP2 MSTORE PUSH1 0x20 DUP2 ADD DUP4 SWAP1 MSTORE SWAP1 DUP2 ADD DUP4 SWAP1 MSTORE PUSH1 0x60 DUP2 ADD PUSH2 0x533 PUSH1 0xFF DUP8 AND DUP6 PUSH2 0x15D3 JUMP JUMPDEST SWAP1 MSTORE PUSH1 0x0 DUP7 DUP2 MSTORE PUSH1 0x2 PUSH1 0x20 DUP2 DUP2 MSTORE PUSH1 0x40 DUP1 DUP5 KECCAK256 DUP6 MLOAD DUP2 SLOAD PUSH1 0x1 PUSH1 0x1 PUSH1 0xA0 SHL SUB NOT AND PUSH1 0x1 PUSH1 0x1 PUSH1 0xA0 SHL SUB SWAP1 SWAP2 AND OR DUP2 SSTORE DUP6 DUP4 ADD MLOAD PUSH1 0x1 DUP1 DUP4 ADD SWAP2 SWAP1 SWAP2 SSTORE DUP7 DUP4 ADD MLOAD SWAP5 DUP3 ADD SWAP5 SWAP1 SWAP5 SSTORE PUSH1 0x60 SWAP6 DUP7 ADD MLOAD PUSH1 0x3 SWAP2 DUP3 ADD SSTORE CALLER DUP1 DUP7 MSTORE SWAP1 DUP4 MSTORE DUP2 DUP6 KECCAK256 DUP1 SLOAD SWAP5 DUP6 ADD DUP2 SSTORE DUP6 MSTORE SWAP4 DUP3 SWAP1 KECCAK256 SWAP1 SWAP3 ADD DUP10 SWAP1 SSTORE DUP2 MLOAD DUP10 DUP2 MSTORE SWAP1 DUP2 ADD DUP8 SWAP1 MSTORE PUSH1 0xFF DUP9 AND SWAP2 DUP2 ADD SWAP2 SWAP1 SWAP2 MSTORE SWAP1 SWAP2 PUSH32 0x6FA2F6021EE337436CDF2B2570285886DA18BC06402CE284D296504A0FE8F875 SWAP2 ADD PUSH1 0x40 MLOAD DUP1 SWAP2 SUB SWAP1 LOG2 POP POP POP POP POP JUMP JUMPDEST PUSH1 0x3 PUSH1 0x20 MSTORE DUP2 PUSH1 0x0 MSTORE PUSH1 0x40 PUSH1 0x0 KECCAK256 DUP2 DUP2 SLOAD DUP2 LT PUSH2 0x609 JUMPI PUSH1 0x0 DUP1 REVERT JUMPDEST SWAP1 PUSH1 0x0 MSTORE PUSH1 0x20 PUSH1 0x0 KECCAK256 ADD PUSH1 0x0 SWAP2 POP SWAP2 POP POP SLOAD DUP2 JUMP JUMPDEST PUSH1 0x0 DUP2 DUP2 MSTORE PUSH1 0x2 PUSH1 0x20 MSTORE PUSH1 0x40 SWAP1 KECCAK256 SLOAD PUSH1 0x1 PUSH1 0x1 PUSH1 0xA0 SHL SUB AND CALLER EQ PUSH2 0x676 JUMPI PUSH1 0x40 MLOAD PUSH3 0x461BCD PUSH1 0xE5 SHL DUP2 MSTORE PUSH1 0x20 PUSH1 0x4 DUP3 ADD MSTORE PUSH1 0xF PUSH1 0x24 DUP3 ADD MSTORE PUSH15 0x37BBB732B9103337B93134B23232B7 PUSH1 0x89 SHL PUSH1 0x44 DUP3 ADD MSTORE PUSH1 0x64 ADD PUSH2 0x46F JUMP JUMPDEST PUSH1 0x0 PUSH2 0x685 PUSH3 0x93A80 TIMESTAMP PUSH2 0x15B1 JUMP JUMPDEST PUSH1 0x0 DUP4 DUP2 MSTORE PUSH1 0x2 PUSH1 0x20 MSTORE PUSH1 0x40 SWAP1 KECCAK256 PUSH1 0x3 ADD SLOAD SWAP1 SWAP2 POP DUP2 LT ISZERO PUSH2 0x6D7 JUMPI PUSH1 0x40 MLOAD PUSH3 0x461BCD PUSH1 0xE5 SHL DUP2 MSTORE PUSH1 0x20 PUSH1 0x4 DUP3 ADD MSTORE PUSH1 0xB PUSH1 0x24 DUP3 ADD MSTORE PUSH11 0x6C6F636B65642074696D65 PUSH1 0xA8 SHL PUSH1 0x44 DUP3 ADD MSTORE PUSH1 0x64 ADD PUSH2 0x46F JUMP JUMPDEST CALLER PUSH1 0x0 SWAP1 DUP2 MSTORE PUSH1 0x3 PUSH1 0x20 MSTORE PUSH1 0x40 DUP2 KECCAK256 SWAP1 JUMPDEST DUP2 SLOAD DUP2 LT ISZERO PUSH2 0x824 JUMPI DUP2 DUP2 DUP2 SLOAD DUP2 LT PUSH2 0x703 JUMPI PUSH2 0x703 PUSH2 0x1605 JUMP JUMPDEST SWAP1 PUSH1 0x0 MSTORE PUSH1 0x20 PUSH1 0x0 KECCAK256 ADD SLOAD DUP5 SUB PUSH2 0x812 JUMPI DUP2 SLOAD DUP3 SWAP1 PUSH2 0x724 SWAP1 PUSH1 0x1 SWAP1 PUSH2 0x161B JUMP JUMPDEST DUP2 SLOAD DUP2 LT PUSH2 0x734 JUMPI PUSH2 0x734 PUSH2 0x1605 JUMP JUMPDEST SWAP1 PUSH1 0x0 MSTORE PUSH1 0x20 PUSH1 0x0 KECCAK256 ADD SLOAD DUP3 DUP3 DUP2 SLOAD DUP2 LT PUSH2 0x751 JUMPI PUSH2 0x751 PUSH2 0x1605 JUMP JUMPDEST SWAP1 PUSH1 0x0 MSTORE PUSH1 0x20 PUSH1 0x0 KECCAK256 ADD DUP2 SWAP1 SSTORE POP DUP2 DUP1 SLOAD DUP1 PUSH2 0x76F JUMPI PUSH2 0x76F PUSH2 0x162E JUMP JUMPDEST PUSH1 0x0 DUP3 DUP2 MSTORE PUSH1 0x20 DUP2 KECCAK256 DUP3 ADD PUSH1 0x0 NOT SWAP1 DUP2 ADD SWAP2 SWAP1 SWAP2 SSTORE ADD SWAP1 SSTORE PUSH1 0x40 MLOAD PUSH4 0x21421707 PUSH1 0xE1 SHL DUP2 MSTORE ADDRESS PUSH1 0x4 DUP3 ADD MSTORE CALLER PUSH1 0x24 DUP3 ADD MSTORE PUSH1 0x44 DUP2 ADD DUP6 SWAP1 MSTORE PUSH1 0x1 PUSH1 0x1 PUSH1 0xA0 SHL SUB PUSH32 0x0 AND SWAP1 PUSH4 0x42842E0E SWAP1 PUSH1 0x64 ADD PUSH1 0x0 PUSH1 0x40 MLOAD DUP1 DUP4 SUB DUP2 PUSH1 0x0 DUP8 DUP1 EXTCODESIZE ISZERO DUP1 ISZERO PUSH2 0x7F5 JUMPI PUSH1 0x0 DUP1 REVERT JUMPDEST POP GAS CALL ISZERO DUP1 ISZERO PUSH2 0x809 JUMPI RETURNDATASIZE PUSH1 0x0 DUP1 RETURNDATACOPY RETURNDATASIZE PUSH1 0x0 REVERT JUMPDEST POP POP POP POP PUSH2 0x824 JUMP JUMPDEST DUP1 PUSH2 0x81C DUP2 PUSH2 0x1644 JUMP JUMPDEST SWAP2 POP POP PUSH2 0x6E8 JUMP JUMPDEST POP PUSH1 0x40 MLOAD DUP4 DUP2 MSTORE CALLER SWAP1 PUSH32 0x884EDAD9CE6FA2440D8A54CC123490EB96D2768479D49FF9C7366125A9424364 SWAP1 PUSH1 0x20 ADD JUMPDEST PUSH1 0x40 MLOAD DUP1 SWAP2 SUB SWAP1 LOG2 POP POP POP JUMP JUMPDEST PUSH1 0x0 SLOAD PUSH1 0x1 PUSH1 0x1 PUSH1 0xA0 SHL SUB AND CALLER EQ PUSH2 0x88A JUMPI PUSH1 0x40 MLOAD PUSH3 0x461BCD PUSH1 0xE5 SHL DUP2 MSTORE PUSH1 0x4 ADD PUSH2 0x46F SWAP1 PUSH2 0x165D JUMP JUMPDEST PUSH1 0x1 DUP1 SLOAD PUSH1 0x1 PUSH1 0x1 PUSH1 0xA0 SHL SUB NOT AND PUSH1 0x1 PUSH1 0x1 PUSH1 0xA0 SHL SUB SWAP3 SWAP1 SWAP3 AND SWAP2 SWAP1 SWAP2 OR SWAP1 SSTORE JUMP JUMPDEST PUSH1 0x1 SLOAD PUSH1 0x1 PUSH1 0x1 PUSH1 0xA0 SHL SUB AND CALLER EQ PUSH2 0x8D6 JUMPI PUSH1 0x40 MLOAD PUSH3 0x461BCD PUSH1 0xE5 SHL DUP2 MSTORE PUSH1 0x4 ADD PUSH2 0x46F SWAP1 PUSH2 0x165D JUMP JUMPDEST PUSH1 0x1 DUP1 SLOAD PUSH1 0x0 DUP1 SLOAD PUSH1 0x1 PUSH1 0x1 PUSH1 0xA0 SHL SUB NOT SWAP1 DUP2 AND PUSH1 0x1 PUSH1 0x1 PUSH1 0xA0 SHL SUB DUP5 AND OR SWAP1 SWAP2 SSTORE AND SWAP1 SSTORE JUMP JUMPDEST PUSH1 0x0 SLOAD PUSH1 0x1 PUSH1 0x1 PUSH1 0xA0 SHL SUB AND CALLER EQ PUSH2 0x927 JUMPI PUSH1 0x40 MLOAD PUSH3 0x461BCD PUSH1 0xE5 SHL DUP2 MSTORE PUSH1 0x4 ADD PUSH2 0x46F SWAP1 PUSH2 0x165D JUMP JUMPDEST PUSH1 0x1 DUP2 GT PUSH2 0x96C JUMPI PUSH1 0x40 MLOAD PUSH3 0x461BCD PUSH1 0xE5 SHL DUP2 MSTORE PUSH1 0x20 PUSH1 0x4 DUP3 ADD MSTORE PUSH1 0x12 PUSH1 0x24 DUP3 ADD MSTORE PUSH18 0x1B585E14D8D85B19481D1BDBC81CDB585B1B PUSH1 0x72 SHL PUSH1 0x44 DUP3 ADD MSTORE PUSH1 0x64 ADD PUSH2 0x46F JUMP JUMPDEST PUSH1 0x7 DUP1 SLOAD PUSH1 0xFF NOT AND PUSH1 0xFF SWAP4 SWAP1 SWAP4 AND SWAP3 SWAP1 SWAP3 OR SWAP1 SWAP2 SSTORE PUSH1 0x8 SSTORE JUMP JUMPDEST PUSH1 0x0 DUP3 DUP2 MSTORE PUSH1 0x2 PUSH1 0x20 MSTORE PUSH1 0x40 SWAP1 KECCAK256 SLOAD PUSH1 0x1 PUSH1 0x1 PUSH1 0xA0 SHL SUB AND CALLER EQ PUSH2 0x9DE JUMPI PUSH1 0x40 MLOAD PUSH3 0x461BCD PUSH1 0xE5 SHL DUP2 MSTORE PUSH1 0x20 PUSH1 0x4 DUP3 ADD MSTORE PUSH1 0xF PUSH1 0x24 DUP3 ADD MSTORE PUSH15 0x37BBB732B9103337B93134B23232B7 PUSH1 0x89 SHL PUSH1 0x44 DUP3 ADD MSTORE PUSH1 0x64 ADD PUSH2 0x46F JUMP JUMPDEST PUSH1 0x0 DUP1 JUMPDEST DUP3 MLOAD DUP2 LT ISZERO PUSH2 0xAED JUMPI PUSH1 0x0 DUP4 DUP3 DUP2 MLOAD DUP2 LT PUSH2 0x9FF JUMPI PUSH2 0x9FF PUSH2 0x1605 JUMP JUMPDEST PUSH1 0x20 SWAP1 DUP2 MUL SWAP2 SWAP1 SWAP2 ADD DUP2 ADD MLOAD PUSH1 0x0 DUP8 DUP2 MSTORE PUSH1 0x4 DUP4 MSTORE PUSH1 0x40 DUP1 DUP3 KECCAK256 DUP4 DUP4 MSTORE SWAP1 SWAP4 MSTORE SWAP2 SWAP1 SWAP2 KECCAK256 SLOAD SWAP1 SWAP2 POP PUSH1 0xFF AND ISZERO PUSH2 0xA35 JUMPI POP PUSH2 0xADB JUMP JUMPDEST PUSH1 0x0 DUP6 DUP2 MSTORE PUSH1 0x2 PUSH1 0x20 MSTORE PUSH1 0x40 SWAP1 KECCAK256 PUSH1 0x3 ADD SLOAD DUP2 LT ISZERO DUP1 PUSH2 0xA66 JUMPI POP PUSH1 0x0 DUP6 DUP2 MSTORE PUSH1 0x2 PUSH1 0x20 DUP2 SWAP1 MSTORE PUSH1 0x40 SWAP1 SWAP2 KECCAK256 ADD SLOAD DUP2 LT JUMPDEST ISZERO PUSH2 0xA71 JUMPI POP PUSH2 0xADB JUMP JUMPDEST PUSH1 0x0 DUP6 DUP2 MSTORE PUSH1 0x4 PUSH1 0x20 SWAP1 DUP2 MSTORE PUSH1 0x40 DUP1 DUP4 KECCAK256 DUP5 DUP5 MSTORE DUP3 MSTORE DUP1 DUP4 KECCAK256 DUP1 SLOAD PUSH1 0xFF NOT AND PUSH1 0x1 SWAP1 DUP2 OR SWAP1 SWAP2 SSTORE PUSH1 0x5 DUP4 MSTORE DUP2 DUP5 KECCAK256 SLOAD DUP10 DUP6 MSTORE PUSH1 0x2 DUP5 MSTORE DUP3 DUP6 KECCAK256 SWAP1 SWAP2 ADD SLOAD DUP6 DUP6 MSTORE PUSH1 0x6 SWAP1 SWAP4 MSTORE SWAP3 KECCAK256 SLOAD PUSH2 0xAC3 SWAP2 SWAP1 PUSH2 0x1680 JUMP JUMPDEST PUSH2 0xACD SWAP2 SWAP1 PUSH2 0x15B1 JUMP JUMPDEST PUSH2 0xAD7 SWAP1 DUP5 PUSH2 0x15D3 JUMP JUMPDEST SWAP3 POP POP JUMPDEST DUP1 PUSH2 0xAE5 DUP2 PUSH2 0x1644 JUMP JUMPDEST SWAP2 POP POP PUSH2 0x9E2 JUMP JUMPDEST POP PUSH2 0xB19 PUSH32 0x0 CALLER DUP4 PUSH2 0x114B JUMP JUMPDEST PUSH1 0x40 DUP1 MLOAD DUP5 DUP2 MSTORE PUSH1 0x20 DUP2 ADD DUP4 SWAP1 MSTORE CALLER SWAP2 PUSH32 0xE74E5C9D4AC1FC33412485F18C159A0A391EFE287AB3FD271123F30E6BACF4E3 SWAP2 ADD PUSH2 0x853 JUMP JUMPDEST PUSH1 0x0 SLOAD PUSH1 0x1 PUSH1 0x1 PUSH1 0xA0 SHL SUB AND CALLER EQ PUSH2 0xB7B JUMPI PUSH1 0x40 MLOAD PUSH3 0x461BCD PUSH1 0xE5 SHL DUP2 MSTORE PUSH1 0x4 ADD PUSH2 0x46F SWAP1 PUSH2 0x165D JUMP JUMPDEST PUSH2 0xBA7 PUSH32 0x0 CALLER ADDRESS DUP5 PUSH2 0x1258 JUMP JUMPDEST PUSH1 0x0 DUP3 DUP2 MSTORE PUSH1 0x6 PUSH1 0x20 MSTORE PUSH1 0x40 DUP2 KECCAK256 DUP1 SLOAD DUP4 SWAP3 SWAP1 PUSH2 0xBC5 SWAP1 DUP5 SWAP1 PUSH2 0x15D3 JUMP JUMPDEST SWAP1 SWAP2 SSTORE POP POP PUSH1 0x40 DUP1 MLOAD DUP4 DUP2 MSTORE PUSH1 0x20 DUP2 ADD DUP4 SWAP1 MSTORE CALLER SWAP2 PUSH32 0xC3991418CACD70A010FCE559A44FCBB47534CA43BF7543964BDCA2639F6E6E5A SWAP2 ADD PUSH1 0x40 MLOAD DUP1 SWAP2 SUB SWAP1 LOG2 POP POP JUMP JUMPDEST PUSH1 0x0 DUP2 DUP2 MSTORE PUSH1 0x2 PUSH1 0x20 DUP2 SWAP1 MSTORE PUSH1 0x40 DUP3 KECCAK256 SWAP1 DUP2 ADD SLOAD PUSH1 0x3 SWAP1 SWAP2 ADD SLOAD SWAP1 SWAP2 DUP3 JUMPDEST DUP3 DUP2 LT ISZERO PUSH2 0xC66 JUMPI PUSH1 0x0 DUP6 DUP2 MSTORE PUSH1 0x4 PUSH1 0x20 SWAP1 DUP2 MSTORE PUSH1 0x40 DUP1 DUP4 KECCAK256 DUP5 DUP5 MSTORE SWAP1 SWAP2 MSTORE SWAP1 KECCAK256 SLOAD PUSH1 0xFF AND PUSH2 0xC54 JUMPI DUP1 SWAP2 POP JUMPDEST DUP1 PUSH2 0xC5E DUP2 PUSH2 0x1644 JUMP JUMPDEST SWAP2 POP POP PUSH2 0xC27 JUMP JUMPDEST POP SWAP2 SWAP4 SWAP1 SWAP3 POP JUMP JUMPDEST PUSH1 0x7 SLOAD PUSH1 0x8 SLOAD PUSH1 0x0 SWAP2 DUP3 SWAP2 PUSH1 0xFF SWAP2 DUP3 AND SWAP2 DUP3 SWAP2 SWAP1 DUP7 AND SWAP1 PUSH2 0xC91 SWAP1 PUSH1 0x1 SWAP1 PUSH2 0x161B JUMP JUMPDEST PUSH2 0xC9B SWAP2 SWAP1 PUSH2 0x1680 JUMP JUMPDEST PUSH2 0xCA5 SWAP2 SWAP1 PUSH2 0x15D3 JUMP JUMPDEST PUSH2 0xCAF SWAP1 DUP7 PUSH2 0x1680 JUMP JUMPDEST PUSH2 0xCB9 SWAP2 SWAP1 PUSH2 0x15B1 JUMP JUMPDEST SWAP2 POP POP JUMPDEST SWAP3 SWAP2 POP POP JUMP JUMPDEST CALLER PUSH1 0x0 SWAP1 DUP2 MSTORE PUSH1 0x3 PUSH1 0x20 MSTORE PUSH1 0x40 DUP2 KECCAK256 SLOAD PUSH1 0x60 SWAP2 SWAP1 DUP2 SWAP1 PUSH8 0xFFFFFFFFFFFFFFFF DUP2 GT ISZERO PUSH2 0xCF1 JUMPI PUSH2 0xCF1 PUSH2 0x1451 JUMP JUMPDEST PUSH1 0x40 MLOAD SWAP1 DUP1 DUP3 MSTORE DUP1 PUSH1 0x20 MUL PUSH1 0x20 ADD DUP3 ADD PUSH1 0x40 MSTORE DUP1 ISZERO PUSH2 0xD1A JUMPI DUP2 PUSH1 0x20 ADD PUSH1 0x20 DUP3 MUL DUP1 CALLDATASIZE DUP4 CALLDATACOPY ADD SWAP1 POP JUMPDEST POP SWAP1 POP PUSH1 0x0 PUSH2 0xD2C PUSH3 0x93A80 TIMESTAMP PUSH2 0x15B1 JUMP JUMPDEST CALLER PUSH1 0x0 SWAP1 DUP2 MSTORE PUSH1 0x3 PUSH1 0x20 MSTORE PUSH1 0x40 DUP2 KECCAK256 SLOAD SWAP2 SWAP3 POP SWAP1 DUP2 JUMPDEST CALLER PUSH1 0x0 SWAP1 DUP2 MSTORE PUSH1 0x3 PUSH1 0x20 MSTORE PUSH1 0x40 SWAP1 KECCAK256 SLOAD DUP2 LT ISZERO PUSH2 0xE15 JUMPI CALLER PUSH1 0x0 SWAP1 DUP2 MSTORE PUSH1 0x3 PUSH1 0x20 MSTORE PUSH1 0x40 DUP2 KECCAK256 DUP1 SLOAD DUP4 SWAP1 DUP2 LT PUSH2 0xD7A JUMPI PUSH2 0xD7A PUSH2 0x1605 JUMP JUMPDEST SWAP1 PUSH1 0x0 MSTORE PUSH1 0x20 PUSH1 0x0 KECCAK256 ADD SLOAD SWAP1 POP DUP5 PUSH1 0x2 PUSH1 0x0 DUP4 DUP2 MSTORE PUSH1 0x20 ADD SWAP1 DUP2 MSTORE PUSH1 0x20 ADD PUSH1 0x0 KECCAK256 PUSH1 0x3 ADD SLOAD GT ISZERO PUSH2 0xDD5 JUMPI DUP1 DUP7 DUP6 DUP2 MLOAD DUP2 LT PUSH2 0xDB8 JUMPI PUSH2 0xDB8 PUSH2 0x1605 JUMP JUMPDEST PUSH1 0x20 SWAP1 DUP2 MUL SWAP2 SWAP1 SWAP2 ADD ADD MSTORE DUP4 PUSH2 0xDCD DUP2 PUSH2 0x1644 JUMP JUMPDEST SWAP5 POP POP PUSH2 0xE02 JUMP JUMPDEST DUP3 PUSH2 0xDDF DUP2 PUSH2 0x1697 JUMP JUMPDEST SWAP4 POP POP DUP1 DUP7 DUP5 DUP2 MLOAD DUP2 LT PUSH2 0xDF5 JUMPI PUSH2 0xDF5 PUSH2 0x1605 JUMP JUMPDEST PUSH1 0x20 MUL PUSH1 0x20 ADD ADD DUP2 DUP2 MSTORE POP POP JUMPDEST POP DUP1 PUSH2 0xE0D DUP2 PUSH2 0x1644 JUMP JUMPDEST SWAP2 POP POP PUSH2 0xD42 JUMP JUMPDEST POP SWAP3 SWAP6 SWAP3 SWAP5 POP SWAP2 SWAP3 POP POP POP JUMP JUMPDEST PUSH1 0x0 DUP1 PUSH1 0x0 DUP1 PUSH1 0x0 DUP1 PUSH32 0x0 PUSH1 0x1 PUSH1 0x1 PUSH1 0xA0 SHL SUB AND PUSH4 0x99FBAB88 DUP9 PUSH1 0x40 MLOAD DUP3 PUSH4 0xFFFFFFFF AND PUSH1 0xE0 SHL DUP2 MSTORE PUSH1 0x4 ADD PUSH2 0xE79 SWAP2 DUP2 MSTORE PUSH1 0x20 ADD SWAP1 JUMP JUMPDEST PUSH2 0x180 PUSH1 0x40 MLOAD DUP1 DUP4 SUB DUP2 DUP7 GAS STATICCALL ISZERO DUP1 ISZERO PUSH2 0xE97 JUMPI RETURNDATASIZE PUSH1 0x0 DUP1 RETURNDATACOPY RETURNDATASIZE PUSH1 0x0 REVERT JUMPDEST POP POP POP POP PUSH1 0x40 MLOAD RETURNDATASIZE PUSH1 0x1F NOT PUSH1 0x1F DUP3 ADD AND DUP3 ADD DUP1 PUSH1 0x40 MSTORE POP DUP2 ADD SWAP1 PUSH2 0xEBB SWAP2 SWAP1 PUSH2 0x16F5 JUMP JUMPDEST POP POP POP POP SWAP8 POP SWAP8 POP SWAP8 POP POP SWAP7 POP SWAP7 POP POP POP PUSH32 0x0 PUSH1 0x1 PUSH1 0x1 PUSH1 0xA0 SHL SUB AND DUP6 PUSH1 0x1 PUSH1 0x1 PUSH1 0xA0 SHL SUB AND EQ DUP1 ISZERO PUSH2 0xF3E JUMPI POP PUSH32 0x0 PUSH1 0x1 PUSH1 0x1 PUSH1 0xA0 SHL SUB AND DUP5 PUSH1 0x1 PUSH1 0x1 PUSH1 0xA0 SHL SUB AND EQ JUMPDEST PUSH2 0xF7A JUMPI PUSH1 0x40 MLOAD PUSH3 0x461BCD PUSH1 0xE5 SHL DUP2 MSTORE PUSH1 0x20 PUSH1 0x4 DUP3 ADD MSTORE PUSH1 0xD PUSH1 0x24 DUP3 ADD MSTORE PUSH13 0x3638103830B4B91032B93937B9 PUSH1 0x99 SHL PUSH1 0x44 DUP3 ADD MSTORE PUSH1 0x64 ADD PUSH2 0x46F JUMP JUMPDEST PUSH1 0x2 DUP4 SWAP1 SIGNEXTEND PUSH3 0xD89E7 NOT EQ DUP1 ISZERO PUSH2 0xFA2 JUMPI POP PUSH2 0xF99 PUSH3 0xD89E7 NOT PUSH2 0x17D6 JUMP JUMPDEST PUSH1 0x2 SIGNEXTEND DUP3 PUSH1 0x2 SIGNEXTEND EQ JUMPDEST PUSH2 0xFE1 JUMPI PUSH1 0x40 MLOAD PUSH3 0x461BCD PUSH1 0xE5 SHL DUP2 MSTORE PUSH1 0x20 PUSH1 0x4 DUP3 ADD MSTORE PUSH1 0x10 PUSH1 0x24 DUP3 ADD MSTORE PUSH16 0x3A34B1B5903930B733B29032B93937B9 PUSH1 0x81 SHL PUSH1 0x44 DUP3 ADD MSTORE PUSH1 0x64 ADD PUSH2 0x46F JUMP JUMPDEST PUSH1 0x40 MLOAD PUSH4 0x20604BF PUSH1 0xE2 SHL DUP2 MSTORE PUSH1 0x4 DUP2 ADD DUP9 SWAP1 MSTORE ADDRESS SWAP1 PUSH1 0x1 PUSH1 0x1 PUSH1 0xA0 SHL SUB PUSH32 0x0 AND SWAP1 PUSH4 0x81812FC SWAP1 PUSH1 0x24 ADD PUSH1 0x20 PUSH1 0x40 MLOAD DUP1 DUP4 SUB DUP2 DUP7 GAS STATICCALL ISZERO DUP1 ISZERO PUSH2 0x1048 JUMPI RETURNDATASIZE PUSH1 0x0 DUP1 RETURNDATACOPY RETURNDATASIZE PUSH1 0x0 REVERT JUMPDEST POP POP POP POP PUSH1 0x40 MLOAD RETURNDATASIZE PUSH1 0x1F NOT PUSH1 0x1F DUP3 ADD AND DUP3 ADD DUP1 PUSH1 0x40 MSTORE POP DUP2 ADD SWAP1 PUSH2 0x106C SWAP2 SWAP1 PUSH2 0x17F8 JUMP JUMPDEST PUSH1 0x1 PUSH1 0x1 PUSH1 0xA0 SHL SUB AND EQ PUSH2 0x10B0 JUMPI PUSH1 0x40 MLOAD PUSH3 0x461BCD PUSH1 0xE5 SHL DUP2 MSTORE PUSH1 0x20 PUSH1 0x4 DUP3 ADD MSTORE PUSH1 0xB PUSH1 0x24 DUP3 ADD MSTORE PUSH11 0x6E6F7420617070726F7665 PUSH1 0xA8 SHL PUSH1 0x44 DUP3 ADD MSTORE PUSH1 0x64 ADD PUSH2 0x46F JUMP JUMPDEST PUSH1 0x40 MLOAD PUSH4 0x21421707 PUSH1 0xE1 SHL DUP2 MSTORE CALLER PUSH1 0x4 DUP3 ADD MSTORE ADDRESS PUSH1 0x24 DUP3 ADD MSTORE PUSH1 0x44 DUP2 ADD DUP9 SWAP1 MSTORE PUSH32 0x0 PUSH1 0x1 PUSH1 0x1 PUSH1 0xA0 SHL SUB AND SWAP1 PUSH4 0x42842E0E SWAP1 PUSH1 0x64 ADD PUSH1 0x0 PUSH1 0x40 MLOAD DUP1 DUP4 SUB DUP2 PUSH1 0x0 DUP8 DUP1 EXTCODESIZE ISZERO DUP1 ISZERO PUSH2 0x111E JUMPI PUSH1 0x0 DUP1 REVERT JUMPDEST POP GAS CALL ISZERO DUP1 ISZERO PUSH2 0x1132 JUMPI RETURNDATASIZE PUSH1 0x0 DUP1 RETURNDATACOPY RETURNDATASIZE PUSH1 0x0 REVERT JUMPDEST POP POP PUSH1 0x1 PUSH1 0x1 PUSH1 0x80 SHL SUB SWAP1 SWAP3 AND SWAP9 SWAP8 POP POP POP POP POP POP POP POP JUMP JUMPDEST PUSH1 0x40 DUP1 MLOAD PUSH1 0x1 PUSH1 0x1 PUSH1 0xA0 SHL SUB DUP5 DUP2 AND PUSH1 0x24 DUP4 ADD MSTORE PUSH1 0x44 DUP1 DUP4 ADD DUP6 SWAP1 MSTORE DUP4 MLOAD DUP1 DUP5 SUB SWAP1 SWAP2 ADD DUP2 MSTORE PUSH1 0x64 SWAP1 SWAP3 ADD DUP4 MSTORE PUSH1 0x20 DUP3 ADD DUP1 MLOAD PUSH1 0x1 PUSH1 0x1 PUSH1 0xE0 SHL SUB AND PUSH4 0xA9059CBB PUSH1 0xE0 SHL OR SWAP1 MSTORE SWAP2 MLOAD PUSH1 0x0 SWAP3 DUP4 SWAP3 SWAP1 DUP8 AND SWAP2 PUSH2 0x11A7 SWAP2 SWAP1 PUSH2 0x1815 JUMP JUMPDEST PUSH1 0x0 PUSH1 0x40 MLOAD DUP1 DUP4 SUB DUP2 PUSH1 0x0 DUP7 GAS CALL SWAP2 POP POP RETURNDATASIZE DUP1 PUSH1 0x0 DUP2 EQ PUSH2 0x11E4 JUMPI PUSH1 0x40 MLOAD SWAP2 POP PUSH1 0x1F NOT PUSH1 0x3F RETURNDATASIZE ADD AND DUP3 ADD PUSH1 0x40 MSTORE RETURNDATASIZE DUP3 MSTORE RETURNDATASIZE PUSH1 0x0 PUSH1 0x20 DUP5 ADD RETURNDATACOPY PUSH2 0x11E9 JUMP JUMPDEST PUSH1 0x60 SWAP2 POP JUMPDEST POP SWAP2 POP SWAP2 POP DUP2 DUP1 ISZERO PUSH2 0x1213 JUMPI POP DUP1 MLOAD ISZERO DUP1 PUSH2 0x1213 JUMPI POP DUP1 DUP1 PUSH1 0x20 ADD SWAP1 MLOAD DUP2 ADD SWAP1 PUSH2 0x1213 SWAP2 SWAP1 PUSH2 0x1844 JUMP JUMPDEST PUSH2 0x1251 JUMPI PUSH1 0x40 MLOAD PUSH3 0x461BCD PUSH1 0xE5 SHL DUP2 MSTORE PUSH1 0x20 PUSH1 0x4 DUP3 ADD MSTORE PUSH1 0xF PUSH1 0x24 DUP3 ADD MSTORE PUSH15 0x1514905394D1915497D19052531151 PUSH1 0x8A SHL PUSH1 0x44 DUP3 ADD MSTORE PUSH1 0x64 ADD PUSH2 0x46F JUMP JUMPDEST POP POP POP POP POP JUMP JUMPDEST PUSH1 0x40 DUP1 MLOAD PUSH1 0x1 PUSH1 0x1 PUSH1 0xA0 SHL SUB DUP6 DUP2 AND PUSH1 0x24 DUP4 ADD MSTORE DUP5 DUP2 AND PUSH1 0x44 DUP4 ADD MSTORE PUSH1 0x64 DUP1 DUP4 ADD DUP6 SWAP1 MSTORE DUP4 MLOAD DUP1 DUP5 SUB SWAP1 SWAP2 ADD DUP2 MSTORE PUSH1 0x84 SWAP1 SWAP3 ADD DUP4 MSTORE PUSH1 0x20 DUP3 ADD DUP1 MLOAD PUSH1 0x1 PUSH1 0x1 PUSH1 0xE0 SHL SUB AND PUSH4 0x23B872DD PUSH1 0xE0 SHL OR SWAP1 MSTORE SWAP2 MLOAD PUSH1 0x0 SWAP3 DUP4 SWAP3 SWAP1 DUP9 AND SWAP2 PUSH2 0x12BC SWAP2 SWAP1 PUSH2 0x1815 JUMP JUMPDEST PUSH1 0x0 PUSH1 0x40 MLOAD DUP1 DUP4 SUB DUP2 PUSH1 0x0 DUP7 GAS CALL SWAP2 POP POP RETURNDATASIZE DUP1 PUSH1 0x0 DUP2 EQ PUSH2 0x12F9 JUMPI PUSH1 0x40 MLOAD SWAP2 POP PUSH1 0x1F NOT PUSH1 0x3F RETURNDATASIZE ADD AND DUP3 ADD PUSH1 0x40 MSTORE RETURNDATASIZE DUP3 MSTORE RETURNDATASIZE PUSH1 0x0 PUSH1 0x20 DUP5 ADD RETURNDATACOPY PUSH2 0x12FE JUMP JUMPDEST PUSH1 0x60 SWAP2 POP JUMPDEST POP SWAP2 POP SWAP2 POP DUP2 DUP1 ISZERO PUSH2 0x1328 JUMPI POP DUP1 MLOAD ISZERO DUP1 PUSH2 0x1328 JUMPI POP DUP1 DUP1 PUSH1 0x20 ADD SWAP1 MLOAD DUP2 ADD SWAP1 PUSH2 0x1328 SWAP2 SWAP1 PUSH2 0x1844 JUMP JUMPDEST PUSH2 0x136A JUMPI PUSH1 0x40 MLOAD PUSH3 0x461BCD PUSH1 0xE5 SHL DUP2 MSTORE PUSH1 0x20 PUSH1 0x4 DUP3 ADD MSTORE PUSH1 0x13 PUSH1 0x24 DUP3 ADD MSTORE PUSH19 0x1D1C985B9CD9995C919C9BDB4819985A5B1959 PUSH1 0x6A SHL PUSH1 0x44 DUP3 ADD MSTORE PUSH1 0x64 ADD PUSH2 0x46F JUMP JUMPDEST POP POP POP POP POP POP JUMP JUMPDEST PUSH1 0x0 PUSH1 0x20 DUP3 DUP5 SUB SLT ISZERO PUSH2 0x1384 JUMPI PUSH1 0x0 DUP1 REVERT JUMPDEST POP CALLDATALOAD SWAP2 SWAP1 POP JUMP JUMPDEST DUP1 CALLDATALOAD PUSH1 0xFF DUP2 AND DUP2 EQ PUSH2 0x139C JUMPI PUSH1 0x0 DUP1 REVERT JUMPDEST SWAP2 SWAP1 POP JUMP JUMPDEST PUSH1 0x0 DUP1 PUSH1 0x40 DUP4 DUP6 SUB SLT ISZERO PUSH2 0x13B4 JUMPI PUSH1 0x0 DUP1 REVERT JUMPDEST DUP3 CALLDATALOAD SWAP2 POP PUSH2 0x13C4 PUSH1 0x20 DUP5 ADD PUSH2 0x138B JUMP JUMPDEST SWAP1 POP SWAP3 POP SWAP3 SWAP1 POP JUMP JUMPDEST PUSH1 0x1 PUSH1 0x1 PUSH1 0xA0 SHL SUB DUP2 AND DUP2 EQ PUSH2 0x13E2 JUMPI PUSH1 0x0 DUP1 REVERT JUMPDEST POP JUMP JUMPDEST PUSH1 0x0 DUP1 PUSH1 0x40 DUP4 DUP6 SUB SLT ISZERO PUSH2 0x13F8 JUMPI PUSH1 0x0 DUP1 REVERT JUMPDEST DUP3 CALLDATALOAD PUSH2 0x1403 DUP2 PUSH2 0x13CD JUMP JUMPDEST SWAP5 PUSH1 0x20 SWAP4 SWAP1 SWAP4 ADD CALLDATALOAD SWAP4 POP POP POP JUMP JUMPDEST PUSH1 0x0 PUSH1 0x20 DUP3 DUP5 SUB SLT ISZERO PUSH2 0x1423 JUMPI PUSH1 0x0 DUP1 REVERT JUMPDEST DUP2 CALLDATALOAD PUSH2 0x142E DUP2 PUSH2 0x13CD JUMP JUMPDEST SWAP4 SWAP3 POP POP POP JUMP JUMPDEST PUSH1 0x0 DUP1 PUSH1 0x40 DUP4 DUP6 SUB SLT ISZERO PUSH2 0x1448 JUMPI PUSH1 0x0 DUP1 REVERT JUMPDEST PUSH2 0x1403 DUP4 PUSH2 0x138B JUMP JUMPDEST PUSH4 0x4E487B71 PUSH1 0xE0 SHL PUSH1 0x0 MSTORE PUSH1 0x41 PUSH1 0x4 MSTORE PUSH1 0x24 PUSH1 0x0 REVERT JUMPDEST PUSH1 0x0 DUP1 PUSH1 0x40 DUP4 DUP6 SUB SLT ISZERO PUSH2 0x147A JUMPI PUSH1 0x0 DUP1 REVERT JUMPDEST DUP3 CALLDATALOAD SWAP2 POP PUSH1 0x20 DUP1 DUP5 ADD CALLDATALOAD PUSH8 0xFFFFFFFFFFFFFFFF DUP1 DUP3 GT ISZERO PUSH2 0x149A JUMPI PUSH1 0x0 DUP1 REVERT JUMPDEST DUP2 DUP7 ADD SWAP2 POP DUP7 PUSH1 0x1F DUP4 ADD SLT PUSH2 0x14AE JUMPI PUSH1 0x0 DUP1 REVERT JUMPDEST DUP2 CALLDATALOAD DUP2 DUP2 GT ISZERO PUSH2 0x14C0 JUMPI PUSH2 0x14C0 PUSH2 0x1451 JUMP JUMPDEST DUP1 PUSH1 0x5 SHL PUSH1 0x40 MLOAD PUSH1 0x1F NOT PUSH1 0x3F DUP4 ADD AND DUP2 ADD DUP2 DUP2 LT DUP6 DUP3 GT OR ISZERO PUSH2 0x14E5 JUMPI PUSH2 0x14E5 PUSH2 0x1451 JUMP JUMPDEST PUSH1 0x40 MSTORE SWAP2 DUP3 MSTORE DUP5 DUP3 ADD SWAP3 POP DUP4 DUP2 ADD DUP6 ADD SWAP2 DUP10 DUP4 GT ISZERO PUSH2 0x1503 JUMPI PUSH1 0x0 DUP1 REVERT JUMPDEST SWAP4 DUP6 ADD SWAP4 JUMPDEST DUP3 DUP6 LT ISZERO PUSH2 0x1521 JUMPI DUP5 CALLDATALOAD DUP5 MSTORE SWAP4 DUP6 ADD SWAP4 SWAP3 DUP6 ADD SWAP3 PUSH2 0x1508 JUMP JUMPDEST DUP1 SWAP7 POP POP POP POP POP POP POP SWAP3 POP SWAP3 SWAP1 POP JUMP JUMPDEST PUSH1 0x0 DUP1 PUSH1 0x40 DUP4 DUP6 SUB SLT ISZERO PUSH2 0x1544 JUMPI PUSH1 0x0 DUP1 REVERT JUMPDEST POP POP DUP1 CALLDATALOAD SWAP3 PUSH1 0x20 SWAP1 SWAP2 ADD CALLDATALOAD SWAP2 POP JUMP JUMPDEST PUSH1 0x40 DUP1 DUP3 MSTORE DUP4 MLOAD SWAP1 DUP3 ADD DUP2 SWAP1 MSTORE PUSH1 0x0 SWAP1 PUSH1 0x20 SWAP1 PUSH1 0x60 DUP5 ADD SWAP1 DUP3 DUP8 ADD DUP5 JUMPDEST DUP3 DUP2 LT ISZERO PUSH2 0x158C JUMPI DUP2 MLOAD DUP5 MSTORE SWAP3 DUP5 ADD SWAP3 SWAP1 DUP5 ADD SWAP1 PUSH1 0x1 ADD PUSH2 0x1570 JUMP JUMPDEST POP POP POP SWAP3 ADD SWAP3 SWAP1 SWAP3 MSTORE SWAP3 SWAP2 POP POP JUMP JUMPDEST PUSH4 0x4E487B71 PUSH1 0xE0 SHL PUSH1 0x0 MSTORE PUSH1 0x11 PUSH1 0x4 MSTORE PUSH1 0x24 PUSH1 0x0 REVERT JUMPDEST PUSH1 0x0 DUP3 PUSH2 0x15CE JUMPI PUSH4 0x4E487B71 PUSH1 0xE0 SHL PUSH1 0x0 MSTORE PUSH1 0x12 PUSH1 0x4 MSTORE PUSH1 0x24 PUSH1 0x0 REVERT JUMPDEST POP DIV SWAP1 JUMP JUMPDEST DUP1 DUP3 ADD DUP1 DUP3 GT ISZERO PUSH2 0xCBD JUMPI PUSH2 0xCBD PUSH2 0x159B JUMP JUMPDEST PUSH1 0x0 PUSH1 0xFF DUP3 AND PUSH1 0xFF DUP2 SUB PUSH2 0x15FC JUMPI PUSH2 0x15FC PUSH2 0x159B JUMP JUMPDEST PUSH1 0x1 ADD SWAP3 SWAP2 POP POP JUMP JUMPDEST PUSH4 0x4E487B71 PUSH1 0xE0 SHL PUSH1 0x0 MSTORE PUSH1 0x32 PUSH1 0x4 MSTORE PUSH1 0x24 PUSH1 0x0 REVERT JUMPDEST DUP2 DUP2 SUB DUP2 DUP2 GT ISZERO PUSH2 0xCBD JUMPI PUSH2 0xCBD PUSH2 0x159B JUMP JUMPDEST PUSH4 0x4E487B71 PUSH1 0xE0 SHL PUSH1 0x0 MSTORE PUSH1 0x31 PUSH1 0x4 MSTORE PUSH1 0x24 PUSH1 0x0 REVERT JUMPDEST PUSH1 0x0 PUSH1 0x1 DUP3 ADD PUSH2 0x1656 JUMPI PUSH2 0x1656 PUSH2 0x159B JUMP JUMPDEST POP PUSH1 0x1 ADD SWAP1 JUMP JUMPDEST PUSH1 0x20 DUP1 DUP3 MSTORE PUSH1 0x9 SWAP1 DUP3 ADD MSTORE PUSH9 0x3337B93134B23232B7 PUSH1 0xB9 SHL PUSH1 0x40 DUP3 ADD MSTORE PUSH1 0x60 ADD SWAP1 JUMP JUMPDEST DUP1 DUP3 MUL DUP2 ISZERO DUP3 DUP3 DIV DUP5 EQ OR PUSH2 0xCBD JUMPI PUSH2 0xCBD PUSH2 0x159B JUMP JUMPDEST PUSH1 0x0 DUP2 PUSH2 0x16A6 JUMPI PUSH2 0x16A6 PUSH2 0x159B JUMP JUMPDEST POP PUSH1 0x0 NOT ADD SWAP1 JUMP JUMPDEST DUP1 MLOAD PUSH2 0x139C DUP2 PUSH2 0x13CD JUMP JUMPDEST DUP1 MLOAD PUSH3 0xFFFFFF DUP2 AND DUP2 EQ PUSH2 0x139C JUMPI PUSH1 0x0 DUP1 REVERT JUMPDEST DUP1 MLOAD PUSH1 0x2 DUP2 SWAP1 SIGNEXTEND DUP2 EQ PUSH2 0x139C JUMPI PUSH1 0x0 DUP1 REVERT JUMPDEST DUP1 MLOAD PUSH1 0x1 PUSH1 0x1 PUSH1 0x80 SHL SUB DUP2 AND DUP2 EQ PUSH2 0x139C JUMPI PUSH1 0x0 DUP1 REVERT JUMPDEST PUSH1 0x0 DUP1 PUSH1 0x0 DUP1 PUSH1 0x0 DUP1 PUSH1 0x0 DUP1 PUSH1 0x0 DUP1 PUSH1 0x0 DUP1 PUSH2 0x180 DUP14 DUP16 SUB SLT ISZERO PUSH2 0x1718 JUMPI PUSH1 0x0 DUP1 REVERT JUMPDEST DUP13 MLOAD PUSH12 0xFFFFFFFFFFFFFFFFFFFFFFFF DUP2 AND DUP2 EQ PUSH2 0x1734 JUMPI PUSH1 0x0 DUP1 REVERT JUMPDEST SWAP12 POP PUSH2 0x1742 PUSH1 0x20 DUP15 ADD PUSH2 0x16AE JUMP JUMPDEST SWAP11 POP PUSH2 0x1750 PUSH1 0x40 DUP15 ADD PUSH2 0x16AE JUMP JUMPDEST SWAP10 POP PUSH2 0x175E PUSH1 0x60 DUP15 ADD PUSH2 0x16AE JUMP JUMPDEST SWAP9 POP PUSH2 0x176C PUSH1 0x80 DUP15 ADD PUSH2 0x16B9 JUMP JUMPDEST SWAP8 POP PUSH2 0x177A PUSH1 0xA0 DUP15 ADD PUSH2 0x16CC JUMP JUMPDEST SWAP7 POP PUSH2 0x1788 PUSH1 0xC0 DUP15 ADD PUSH2 0x16CC JUMP JUMPDEST SWAP6 POP PUSH2 0x1796 PUSH1 0xE0 DUP15 ADD PUSH2 0x16DE JUMP JUMPDEST SWAP5 POP PUSH2 0x100 DUP14 ADD MLOAD SWAP4 POP PUSH2 0x120 DUP14 ADD MLOAD SWAP3 POP PUSH2 0x17B5 PUSH2 0x140 DUP15 ADD PUSH2 0x16DE JUMP JUMPDEST SWAP2 POP PUSH2 0x17C4 PUSH2 0x160 DUP15 ADD PUSH2 0x16DE JUMP JUMPDEST SWAP1 POP SWAP3 SWAP6 SWAP9 SWAP12 POP SWAP3 SWAP6 SWAP9 SWAP12 POP SWAP3 SWAP6 SWAP9 SWAP12 JUMP JUMPDEST PUSH1 0x0 DUP2 PUSH1 0x2 SIGNEXTEND PUSH3 0x7FFFFF NOT DUP2 SUB PUSH2 0x17EF JUMPI PUSH2 0x17EF PUSH2 0x159B JUMP JUMPDEST PUSH1 0x0 SUB SWAP3 SWAP2 POP POP JUMP JUMPDEST PUSH1 0x0 PUSH1 0x20 DUP3 DUP5 SUB SLT ISZERO PUSH2 0x180A JUMPI PUSH1 0x0 DUP1 REVERT JUMPDEST DUP2 MLOAD PUSH2 0x142E DUP2 PUSH2 0x13CD JUMP JUMPDEST PUSH1 0x0 DUP3 MLOAD PUSH1 0x0 JUMPDEST DUP2 DUP2 LT ISZERO PUSH2 0x1836 JUMPI PUSH1 0x20 DUP2 DUP7 ADD DUP2 ADD MLOAD DUP6 DUP4 ADD MSTORE ADD PUSH2 0x181C JUMP JUMPDEST POP PUSH1 0x0 SWAP3 ADD SWAP2 DUP3 MSTORE POP SWAP2 SWAP1 POP JUMP JUMPDEST PUSH1 0x0 PUSH1 0x20 DUP3 DUP5 SUB SLT ISZERO PUSH2 0x1856 JUMPI PUSH1 0x0 DUP1 REVERT JUMPDEST DUP2 MLOAD DUP1 ISZERO ISZERO DUP2 EQ PUSH2 0x142E JUMPI PUSH1 0x0 DUP1 REVERT INVALID LOG2 PUSH5 0x6970667358 0x22 SLT KECCAK256 0xC6 0x1F PUSH27 0x87E2287733DFCDAC323E13875875C3728987B382F4D1C044F305F6 SWAP4 0xAC PUSH5 0x736F6C6343 STOP ADDMOD GT STOP CALLER "},"methodIdentifiers":{"MAX_SCALE()":"f6def7cf","MAX_WEEKS()":"e11400bb","acceptSetter()":"5f8e422f","bClaimReward(uint256,uint256)":"ce6d3e3e","claimReward(uint256,uint256[])":"9b6e0d74","divConst()":"7e4856c4","getScore(uint256,uint8)":"ee3453ed","getUnclaimed(uint256)":"c25fef0d","getUserNFTs()":"fdc5ab8e","nftToken()":"d06fcba8","owner()":"8da5cb5b","rewardToken()":"f7c618c1","rewardsOf(uint256)":"0bce1284","setReward(uint256,uint256)":"a47bd496","setScoreFormula(uint8,uint256)":"721348e8","stake(uint256,uint8)":"10087fb1","stakingNFTs(uint256)":"10c6c1c2","token0()":"0dfe1681","token1()":"d21220a7","transferOwner(address)":"4fb2e45d","userNFTs(address,uint256)":"291c73c3","withdraw(uint256)":"2e1a7d4d"}}}}}