{"contracts/stakeERC20.sol":{"StakeERC20":{"abi":[{"inputs":[{"internalType":"uint8","name":"maxWeeks","type":"uint8"},{"internalType":"uint256","name":"maxScale","type":"uint256"},{"internalType":"address","name":"_rewardToken","type":"address"},{"internalType":"address","name":"_lpToken","type":"address"}],"stateMutability":"nonpayable","type":"constructor"},{"anonymous":false,"inputs":[{"indexed":true,"internalType":"address","name":"user","type":"address"},{"indexed":false,"internalType":"uint256","name":"amount","type":"uint256"}],"name":"ClaimReward","type":"event"},{"anonymous":false,"inputs":[{"indexed":true,"internalType":"address","name":"user","type":"address"},{"indexed":false,"internalType":"uint256","name":"no","type":"uint256"},{"indexed":false,"internalType":"uint256","name":"amount","type":"uint256"}],"name":"SetReward","type":"event"},{"anonymous":false,"inputs":[{"indexed":true,"internalType":"address","name":"user","type":"address"},{"indexed":false,"internalType":"uint256","name":"id","type":"uint256"},{"indexed":false,"internalType":"uint256","name":"amount","type":"uint256"},{"indexed":false,"internalType":"uint8","name":"k","type":"uint8"}],"name":"Stake","type":"event"},{"anonymous":false,"inputs":[{"indexed":true,"internalType":"address","name":"user","type":"address"},{"indexed":false,"internalType":"uint256","name":"amount","type":"uint256"}],"name":"Withdraw","type":"event"},{"inputs":[],"name":"MAX_SCALE","outputs":[{"internalType":"uint256","name":"","type":"uint256"}],"stateMutability":"view","type":"function"},{"inputs":[],"name":"MAX_WEEKS","outputs":[{"internalType":"uint8","name":"","type":"uint8"}],"stateMutability":"view","type":"function"},{"inputs":[],"name":"WEEK_SECONDS","outputs":[{"internalType":"uint24","name":"","type":"uint24"}],"stateMutability":"view","type":"function"},{"inputs":[],"name":"acceptSetter","outputs":[],"stateMutability":"nonpayable","type":"function"},{"inputs":[{"internalType":"uint256","name":"","type":"uint256"},{"internalType":"uint256","name":"","type":"uint256"}],"name":"bClaimReward","outputs":[{"internalType":"bool","name":"","type":"bool"}],"stateMutability":"view","type":"function"},{"inputs":[],"name":"claimReward","outputs":[],"stateMutability":"nonpayable","type":"function"},{"inputs":[{"internalType":"uint256","name":"amount","type":"uint256"},{"internalType":"uint8","name":"k","type":"uint8"}],"name":"getScore","outputs":[{"internalType":"uint256","name":"score","type":"uint256"}],"stateMutability":"view","type":"function"},{"inputs":[],"name":"getStaking","outputs":[{"internalType":"uint256","name":"total","type":"uint256"},{"internalType":"uint256","name":"staking","type":"uint256"}],"stateMutability":"view","type":"function"},{"inputs":[],"name":"latestNo","outputs":[{"internalType":"uint256","name":"","type":"uint256"}],"stateMutability":"view","type":"function"},{"inputs":[],"name":"lpToken","outputs":[{"internalType":"address","name":"","type":"address"}],"stateMutability":"view","type":"function"},{"inputs":[],"name":"nonce","outputs":[{"internalType":"uint256","name":"","type":"uint256"}],"stateMutability":"view","type":"function"},{"inputs":[],"name":"owner","outputs":[{"internalType":"address","name":"","type":"address"}],"stateMutability":"view","type":"function"},{"inputs":[],"name":"rewardToken","outputs":[{"internalType":"address","name":"","type":"address"}],"stateMutability":"view","type":"function"},{"inputs":[{"internalType":"uint256","name":"","type":"uint256"}],"name":"rewardsOf","outputs":[{"internalType":"uint256","name":"","type":"uint256"}],"stateMutability":"view","type":"function"},{"inputs":[{"internalType":"uint256[]","name":"nos","type":"uint256[]"},{"internalType":"uint256[]","name":"amounts","type":"uint256[]"}],"name":"setReward","outputs":[{"internalType":"uint256","name":"total","type":"uint256"}],"stateMutability":"nonpayable","type":"function"},{"inputs":[{"internalType":"uint256","name":"no","type":"uint256"},{"internalType":"uint256","name":"amount","type":"uint256"}],"name":"setReward","outputs":[],"stateMutability":"nonpayable","type":"function"},{"inputs":[{"internalType":"uint256","name":"amount","type":"uint256"},{"internalType":"uint8","name":"k","type":"uint8"}],"name":"stake","outputs":[],"stateMutability":"nonpayable","type":"function"},{"inputs":[{"internalType":"uint256","name":"","type":"uint256"}],"name":"stakingERC20s","outputs":[{"internalType":"uint256","name":"amount","type":"uint256"},{"internalType":"uint256","name":"score","type":"uint256"},{"internalType":"uint256","name":"beginNo","type":"uint256"},{"internalType":"uint256","name":"endNo","type":"uint256"},{"internalType":"uint256","name":"toClaimNo","type":"uint256"}],"stateMutability":"view","type":"function"},{"inputs":[{"internalType":"address","name":"_owner","type":"address"}],"name":"transferOwner","outputs":[],"stateMutability":"nonpayable","type":"function"},{"inputs":[{"internalType":"address","name":"","type":"address"},{"internalType":"uint256","name":"","type":"uint256"}],"name":"userERC20s","outputs":[{"internalType":"uint256","name":"","type":"uint256"}],"stateMutability":"view","type":"function"},{"inputs":[{"internalType":"uint256","name":"amount","type":"uint256"}],"name":"withdraw","outputs":[{"internalType":"uint256","name":"total","type":"uint256"}],"stateMutability":"nonpayable","type":"function"}],"evm":{"bytecode":{"linkReferences":{},"object":"61010060405234801561001157600080fd5b506040516114e53803806114e583398101604081905261003091610083565b6001600160a01b0391821660805260ff90931660a05260c091909152600080546001600160a01b031916331790551660e0526100d9565b80516001600160a01b038116811461007e57600080fd5b919050565b6000806000806080858703121561009957600080fd5b845160ff811681146100aa57600080fd5b602086015190945092506100c060408601610067565b91506100ce60608601610067565b905092959194509250565b60805160a05160c05160e051611394610151600039600081816101d301528181610446015261076c0152600081816103850152610d70015260008181610339015281816103de01528181610d0c0152610d370152600081816103ac0152818161088e01528181610a720152610c7a01526113946000f3fe608060405234801561001057600080fd5b50600436106101375760003560e01c8063a218de15116100b8578063cd671a581161007c578063cd671a58146102d9578063ce6d3e3e146102f6578063e11400bb14610334578063ee3453ed1461036d578063f6def7cf14610380578063f7c618c1146103a757600080fd5b8063a218de151461023d578063a47bd496146102a2578063affed0e0146102b5578063b88a802f146102be578063ba086501146102c657600080fd5b80634fb2e45d116100ff5780634fb2e45d146101b35780635f8e422f146101c65780635fcbd285146101ce5780637b1391a61461020d5780638da5cb5b1461022a57600080fd5b80630bce12841461013c57806310087fb11461016f57806329ed1cfd146101845780632e1a7d4d1461018d5780634d10c55a146101a0575b600080fd5b61015c61014a366004610ff4565b60046020526000908152604090205481565b6040519081526020015b60405180910390f35b61018261017d36600461100d565b6103ce565b005b61015c60055481565b61015c61019b366004610ff4565b6105e9565b61015c6101ae3660046110f4565b6107cd565b6101826101c1366004611174565b6108f7565b610182610943565b6101f57f000000000000000000000000000000000000000000000000000000000000000081565b6040516001600160a01b039091168152602001610166565b610215610994565b60408051928352602083019190915201610166565b6000546101f5906001600160a01b031681565b61027a61024b366004610ff4565b600760205260009081526040902080546001820154600283015460038401546004909401549293919290919085565b604080519586526020860194909452928401919091526060830152608082015260a001610166565b6101826102b036600461118f565b610a43565b61015c60065481565b610182610afc565b61015c6102d43660046111b1565b610cd2565b6102e261025881565b60405162ffffff9091168152602001610166565b61032461030436600461118f565b600260209081526000928352604080842090915290825290205460ff1681565b6040519015158152602001610166565b61035b7f000000000000000000000000000000000000000000000000000000000000000081565b60405160ff9091168152602001610166565b61015c61037b36600461100d565b610d03565b61015c7f000000000000000000000000000000000000000000000000000000000000000081565b6101f57f000000000000000000000000000000000000000000000000000000000000000081565b60008160ff1611801561040757507f000000000000000000000000000000000000000000000000000000000000000060ff168160ff1611155b6104415760405162461bcd60e51b8152602060048201526006602482015265359018bf1a9960d11b60448201526064015b60405180910390fd5b61046d7f0000000000000000000000000000000000000000000000000000000000000000333085610dcd565b600061047b610258426111f1565b610486906001611213565b905060006104948484610d03565b905060005b8360ff168160ff1610156104ee5781600360006104b960ff851687611213565b815260200190815260200160002060008282546104d69190611213565b909155508190506104e68161122c565b915050610499565b506040518060a001604052808581526020018281526020018381526020018460ff168461051b9190611213565b8152602090810184905260068054600090815260078352604080822085518155858501516001808301919091558683015160028301556060808801516003840155608090970151600490920191909155338084526008865282842085548154938401825590855293869020909101929092559154825190815292830188905260ff871683830152905190927f6fa2f6021ee337436cdf2b2570285886da18bc06402ce284d296504a0fe8f875928290030190a2600680549060006105de8361124b565b919050555050505050565b6000806105f8610258426111f1565b336000908152600860205260408120549192509061061890600190611264565b90505b33600090815260086020526040812080548390811061063c5761063c611277565b90600052602060002001549050826007600083815260200190815260200160002060030154116107535760008181526007602052604090205461067f9085611213565b93508484116107295733600090815260086020526040902080546106a590600190611264565b815481106106b5576106b5611277565b6000918252602080832090910154338352600890915260409091208054849081106106e2576106e2611277565b600091825260208083209091019290925533815260089091526040902080548061070e5761070e61128d565b60019003818190600052602060002001600090559055610746565b6107338585611264565b6000828152600760205260409020558493505b8484036107535750610766565b508061075e816112a3565b91505061061b565b506107927f00000000000000000000000000000000000000000000000000000000000000003384610ee7565b60405182815233907f884edad9ce6fa2440d8a54cc123490eb96d2768479d49ff9c7366125a94243649060200160405180910390a250919050565b600080546001600160a01b031633146107f85760405162461bcd60e51b8152600401610438906112ba565b60005b83518110156108885782818151811061081657610816611277565b6020026020010151826108299190611213565b915082818151811061083d5761083d611277565b60200260200101516004600086848151811061085b5761085b611277565b602002602001015181526020019081526020016000208190555080806108809061124b565b9150506107fb565b506108b57f0000000000000000000000000000000000000000000000000000000000000000333084610dcd565b60408051600081526020810183905233917fc3991418cacd70a010fce559a44fcbb47534ca43bf7543964bdca2639f6e6e5a910160405180910390a292915050565b6000546001600160a01b031633146109215760405162461bcd60e51b8152600401610438906112ba565b600180546001600160a01b0319166001600160a01b0392909216919091179055565b6001546001600160a01b0316331461096d5760405162461bcd60e51b8152600401610438906112ba565b60018054600080546001600160a01b03199081166001600160a01b03841617909155169055565b600080806109a4610258426111f1565b905060005b33600090815260086020526040902054811015610a3d573360009081526008602052604081208054839081106109e1576109e1611277565b600091825260208083209091015480835260079091526040909120805460039091015491925090841015610a1c57610a198186611213565b94505b610a268187611213565b955050508080610a359061124b565b9150506109a9565b50509091565b6000546001600160a01b03163314610a6d5760405162461bcd60e51b8152600401610438906112ba565b610a997f0000000000000000000000000000000000000000000000000000000000000000333084610dcd565b60008281526004602052604081208054839290610ab7908490611213565b9091555050604080518381526020810183905233917fc3991418cacd70a010fce559a44fcbb47534ca43bf7543964bdca2639f6e6e5a91015b60405180910390a25050565b6000610b0a610258426111f1565b90506000805b33600090815260086020526040902054811015610c7457336000908152600860205260408120805483908110610b4857610b48611277565b600091825260208083209091015480835260079091526040909120600401549091505b600082815260076020526040902060030154811015610c5f57600082815260026020908152604080832084845290915290205460ff1680610bab57508481115b80610bc25750600081815260046020526040902054155b610c4d5760008281526002602090815260408083208484529091529020805460ff19166001908117909155610bf8908290611213565b6000838152600760209081526040808320600480820195909555858452600383528184205460019091015494909252909120549091610c36916112dd565b610c4091906111f1565b610c4a9085611213565b93505b80610c578161124b565b915050610b6b565b50508080610c6c9061124b565b915050610b10565b50610ca07f00000000000000000000000000000000000000000000000000000000000000003383610ee7565b60405181815233907fba8de60c3403ec381d1d484652ea1980e3c3e56359195c92525bff4ce47ad98e90602001610af0565b60086020528160005260406000208181548110610cee57600080fd5b90600052602060002001600091509150505481565b6000610d3060017f00000000000000000000000000000000000000000000000000000000000000006112f4565b60ff1660017f000000000000000000000000000000000000000000000000000000000000000060ff16600185610d6691906112f4565b60ff16610d9460017f0000000000000000000000000000000000000000000000000000000000000000611264565b610d9e91906112dd565b610da89190611213565b610db29190611264565b610dbc90856112dd565b610dc691906111f1565b9392505050565b604080516001600160a01b0385811660248301528481166044830152606480830185905283518084039091018152608490920183526020820180516001600160e01b03166323b872dd60e01b1790529151600092839290881691610e31919061130d565b6000604051808303816000865af19150503d8060008114610e6e576040519150601f19603f3d011682016040523d82523d6000602084013e610e73565b606091505b5091509150818015610e9d575080511580610e9d575080806020019051810190610e9d919061133c565b610edf5760405162461bcd60e51b81526020600482015260136024820152721d1c985b9cd9995c919c9bdb4819985a5b1959606a1b6044820152606401610438565b505050505050565b604080516001600160a01b038481166024830152604480830185905283518084039091018152606490920183526020820180516001600160e01b031663a9059cbb60e01b1790529151600092839290871691610f43919061130d565b6000604051808303816000865af19150503d8060008114610f80576040519150601f19603f3d011682016040523d82523d6000602084013e610f85565b606091505b5091509150818015610faf575080511580610faf575080806020019051810190610faf919061133c565b610fed5760405162461bcd60e51b815260206004820152600f60248201526e1514905394d1915497d19052531151608a1b6044820152606401610438565b5050505050565b60006020828403121561100657600080fd5b5035919050565b6000806040838503121561102057600080fd5b82359150602083013560ff8116811461103857600080fd5b809150509250929050565b634e487b7160e01b600052604160045260246000fd5b600082601f83011261106a57600080fd5b8135602067ffffffffffffffff8083111561108757611087611043565b8260051b604051601f19603f830116810181811084821117156110ac576110ac611043565b6040529384528581018301938381019250878511156110ca57600080fd5b83870191505b848210156110e9578135835291830191908301906110d0565b979650505050505050565b6000806040838503121561110757600080fd5b823567ffffffffffffffff8082111561111f57600080fd5b61112b86838701611059565b9350602085013591508082111561114157600080fd5b5061114e85828601611059565b9150509250929050565b80356001600160a01b038116811461116f57600080fd5b919050565b60006020828403121561118657600080fd5b610dc682611158565b600080604083850312156111a257600080fd5b50508035926020909101359150565b600080604083850312156111c457600080fd5b6111cd83611158565b946020939093013593505050565b634e487b7160e01b600052601160045260246000fd5b60008261120e57634e487b7160e01b600052601260045260246000fd5b500490565b80820180821115611226576112266111db565b92915050565b600060ff821660ff8103611242576112426111db565b60010192915050565b60006001820161125d5761125d6111db565b5060010190565b81810381811115611226576112266111db565b634e487b7160e01b600052603260045260246000fd5b634e487b7160e01b600052603160045260246000fd5b6000816112b2576112b26111db565b506000190190565b6020808252600990820152683337b93134b23232b760b91b604082015260600190565b8082028115828204841417611226576112266111db565b60ff8281168282160390811115611226576112266111db565b6000825160005b8181101561132e5760208186018101518583015201611314565b506000920191825250919050565b60006020828403121561134e57600080fd5b81518015158114610dc657600080fdfea26469706673582212207402d9f97304a9ed21fa55e66e01ddd7ffc81a7881420a0680057e994ddff22564736f6c63430008110033","opcodes":"PUSH2 0x100 PUSH1 0x40 MSTORE CALLVALUE DUP1 ISZERO PUSH2 0x11 JUMPI PUSH1 0x0 DUP1 REVERT JUMPDEST POP PUSH1 0x40 MLOAD PUSH2 0x14E5 CODESIZE SUB DUP1 PUSH2 0x14E5 DUP4 CODECOPY DUP2 ADD PUSH1 0x40 DUP2 SWAP1 MSTORE PUSH2 0x30 SWAP2 PUSH2 0x83 JUMP JUMPDEST PUSH1 0x1 PUSH1 0x1 PUSH1 0xA0 SHL SUB SWAP2 DUP3 AND PUSH1 0x80 MSTORE PUSH1 0xFF SWAP1 SWAP4 AND PUSH1 0xA0 MSTORE PUSH1 0xC0 SWAP2 SWAP1 SWAP2 MSTORE PUSH1 0x0 DUP1 SLOAD PUSH1 0x1 PUSH1 0x1 PUSH1 0xA0 SHL SUB NOT AND CALLER OR SWAP1 SSTORE AND PUSH1 0xE0 MSTORE PUSH2 0xD9 JUMP JUMPDEST DUP1 MLOAD PUSH1 0x1 PUSH1 0x1 PUSH1 0xA0 SHL SUB DUP2 AND DUP2 EQ PUSH2 0x7E JUMPI PUSH1 0x0 DUP1 REVERT JUMPDEST SWAP2 SWAP1 POP JUMP JUMPDEST PUSH1 0x0 DUP1 PUSH1 0x0 DUP1 PUSH1 0x80 DUP6 DUP8 SUB SLT ISZERO PUSH2 0x99 JUMPI PUSH1 0x0 DUP1 REVERT JUMPDEST DUP5 MLOAD PUSH1 0xFF DUP2 AND DUP2 EQ PUSH2 0xAA JUMPI PUSH1 0x0 DUP1 REVERT JUMPDEST PUSH1 0x20 DUP7 ADD MLOAD SWAP1 SWAP5 POP SWAP3 POP PUSH2 0xC0 PUSH1 0x40 DUP7 ADD PUSH2 0x67 JUMP JUMPDEST SWAP2 POP PUSH2 0xCE PUSH1 0x60 DUP7 ADD PUSH2 0x67 JUMP JUMPDEST SWAP1 POP SWAP3 SWAP6 SWAP2 SWAP5 POP SWAP3 POP JUMP JUMPDEST PUSH1 0x80 MLOAD PUSH1 0xA0 MLOAD PUSH1 0xC0 MLOAD PUSH1 0xE0 MLOAD PUSH2 0x1394 PUSH2 0x151 PUSH1 0x0 CODECOPY PUSH1 0x0 DUP2 DUP2 PUSH2 0x1D3 ADD MSTORE DUP2 DUP2 PUSH2 0x446 ADD MSTORE PUSH2 0x76C ADD MSTORE PUSH1 0x0 DUP2 DUP2 PUSH2 0x385 ADD MSTORE PUSH2 0xD70 ADD MSTORE PUSH1 0x0 DUP2 DUP2 PUSH2 0x339 ADD MSTORE DUP2 DUP2 PUSH2 0x3DE ADD MSTORE DUP2 DUP2 PUSH2 0xD0C ADD MSTORE PUSH2 0xD37 ADD MSTORE PUSH1 0x0 DUP2 DUP2 PUSH2 0x3AC ADD MSTORE DUP2 DUP2 PUSH2 0x88E ADD MSTORE DUP2 DUP2 PUSH2 0xA72 ADD MSTORE PUSH2 0xC7A ADD MSTORE PUSH2 0x1394 PUSH1 0x0 RETURN INVALID PUSH1 0x80 PUSH1 0x40 MSTORE CALLVALUE DUP1 ISZERO PUSH2 0x10 JUMPI PUSH1 0x0 DUP1 REVERT JUMPDEST POP PUSH1 0x4 CALLDATASIZE LT PUSH2 0x137 JUMPI PUSH1 0x0 CALLDATALOAD PUSH1 0xE0 SHR DUP1 PUSH4 0xA218DE15 GT PUSH2 0xB8 JUMPI DUP1 PUSH4 0xCD671A58 GT PUSH2 0x7C JUMPI DUP1 PUSH4 0xCD671A58 EQ PUSH2 0x2D9 JUMPI DUP1 PUSH4 0xCE6D3E3E EQ PUSH2 0x2F6 JUMPI DUP1 PUSH4 0xE11400BB EQ PUSH2 0x334 JUMPI DUP1 PUSH4 0xEE3453ED EQ PUSH2 0x36D JUMPI DUP1 PUSH4 0xF6DEF7CF EQ PUSH2 0x380 JUMPI DUP1 PUSH4 0xF7C618C1 EQ PUSH2 0x3A7 JUMPI PUSH1 0x0 DUP1 REVERT JUMPDEST DUP1 PUSH4 0xA218DE15 EQ PUSH2 0x23D JUMPI DUP1 PUSH4 0xA47BD496 EQ PUSH2 0x2A2 JUMPI DUP1 PUSH4 0xAFFED0E0 EQ PUSH2 0x2B5 JUMPI DUP1 PUSH4 0xB88A802F EQ PUSH2 0x2BE JUMPI DUP1 PUSH4 0xBA086501 EQ PUSH2 0x2C6 JUMPI PUSH1 0x0 DUP1 REVERT JUMPDEST DUP1 PUSH4 0x4FB2E45D GT PUSH2 0xFF JUMPI DUP1 PUSH4 0x4FB2E45D EQ PUSH2 0x1B3 JUMPI DUP1 PUSH4 0x5F8E422F EQ PUSH2 0x1C6 JUMPI DUP1 PUSH4 0x5FCBD285 EQ PUSH2 0x1CE JUMPI DUP1 PUSH4 0x7B1391A6 EQ PUSH2 0x20D JUMPI DUP1 PUSH4 0x8DA5CB5B EQ PUSH2 0x22A JUMPI PUSH1 0x0 DUP1 REVERT JUMPDEST DUP1 PUSH4 0xBCE1284 EQ PUSH2 0x13C JUMPI DUP1 PUSH4 0x10087FB1 EQ PUSH2 0x16F JUMPI DUP1 PUSH4 0x29ED1CFD EQ PUSH2 0x184 JUMPI DUP1 PUSH4 0x2E1A7D4D EQ PUSH2 0x18D JUMPI DUP1 PUSH4 0x4D10C55A EQ PUSH2 0x1A0 JUMPI JUMPDEST PUSH1 0x0 DUP1 REVERT JUMPDEST PUSH2 0x15C PUSH2 0x14A CALLDATASIZE PUSH1 0x4 PUSH2 0xFF4 JUMP JUMPDEST PUSH1 0x4 PUSH1 0x20 MSTORE PUSH1 0x0 SWAP1 DUP2 MSTORE PUSH1 0x40 SWAP1 KECCAK256 SLOAD DUP2 JUMP JUMPDEST PUSH1 0x40 MLOAD SWAP1 DUP2 MSTORE PUSH1 0x20 ADD JUMPDEST PUSH1 0x40 MLOAD DUP1 SWAP2 SUB SWAP1 RETURN JUMPDEST PUSH2 0x182 PUSH2 0x17D CALLDATASIZE PUSH1 0x4 PUSH2 0x100D JUMP JUMPDEST PUSH2 0x3CE JUMP JUMPDEST STOP JUMPDEST PUSH2 0x15C PUSH1 0x5 SLOAD DUP2 JUMP JUMPDEST PUSH2 0x15C PUSH2 0x19B CALLDATASIZE PUSH1 0x4 PUSH2 0xFF4 JUMP JUMPDEST PUSH2 0x5E9 JUMP JUMPDEST PUSH2 0x15C PUSH2 0x1AE CALLDATASIZE PUSH1 0x4 PUSH2 0x10F4 JUMP JUMPDEST PUSH2 0x7CD JUMP JUMPDEST PUSH2 0x182 PUSH2 0x1C1 CALLDATASIZE PUSH1 0x4 PUSH2 0x1174 JUMP JUMPDEST PUSH2 0x8F7 JUMP JUMPDEST PUSH2 0x182 PUSH2 0x943 JUMP JUMPDEST PUSH2 0x1F5 PUSH32 0x0 DUP2 JUMP JUMPDEST PUSH1 0x40 MLOAD PUSH1 0x1 PUSH1 0x1 PUSH1 0xA0 SHL SUB SWAP1 SWAP2 AND DUP2 MSTORE PUSH1 0x20 ADD PUSH2 0x166 JUMP JUMPDEST PUSH2 0x215 PUSH2 0x994 JUMP JUMPDEST PUSH1 0x40 DUP1 MLOAD SWAP3 DUP4 MSTORE PUSH1 0x20 DUP4 ADD SWAP2 SWAP1 SWAP2 MSTORE ADD PUSH2 0x166 JUMP JUMPDEST PUSH1 0x0 SLOAD PUSH2 0x1F5 SWAP1 PUSH1 0x1 PUSH1 0x1 PUSH1 0xA0 SHL SUB AND DUP2 JUMP JUMPDEST PUSH2 0x27A PUSH2 0x24B CALLDATASIZE PUSH1 0x4 PUSH2 0xFF4 JUMP JUMPDEST PUSH1 0x7 PUSH1 0x20 MSTORE PUSH1 0x0 SWAP1 DUP2 MSTORE PUSH1 0x40 SWAP1 KECCAK256 DUP1 SLOAD PUSH1 0x1 DUP3 ADD SLOAD PUSH1 0x2 DUP4 ADD SLOAD PUSH1 0x3 DUP5 ADD SLOAD PUSH1 0x4 SWAP1 SWAP5 ADD SLOAD SWAP3 SWAP4 SWAP2 SWAP3 SWAP1 SWAP2 SWAP1 DUP6 JUMP JUMPDEST PUSH1 0x40 DUP1 MLOAD SWAP6 DUP7 MSTORE PUSH1 0x20 DUP7 ADD SWAP5 SWAP1 SWAP5 MSTORE SWAP3 DUP5 ADD SWAP2 SWAP1 SWAP2 MSTORE PUSH1 0x60 DUP4 ADD MSTORE PUSH1 0x80 DUP3 ADD MSTORE PUSH1 0xA0 ADD PUSH2 0x166 JUMP JUMPDEST PUSH2 0x182 PUSH2 0x2B0 CALLDATASIZE PUSH1 0x4 PUSH2 0x118F JUMP JUMPDEST PUSH2 0xA43 JUMP JUMPDEST PUSH2 0x15C PUSH1 0x6 SLOAD DUP2 JUMP JUMPDEST PUSH2 0x182 PUSH2 0xAFC JUMP JUMPDEST PUSH2 0x15C PUSH2 0x2D4 CALLDATASIZE PUSH1 0x4 PUSH2 0x11B1 JUMP JUMPDEST PUSH2 0xCD2 JUMP JUMPDEST PUSH2 0x2E2 PUSH2 0x258 DUP2 JUMP JUMPDEST PUSH1 0x40 MLOAD PUSH3 0xFFFFFF SWAP1 SWAP2 AND DUP2 MSTORE PUSH1 0x20 ADD PUSH2 0x166 JUMP JUMPDEST PUSH2 0x324 PUSH2 0x304 CALLDATASIZE PUSH1 0x4 PUSH2 0x118F JUMP JUMPDEST PUSH1 0x2 PUSH1 0x20 SWAP1 DUP2 MSTORE PUSH1 0x0 SWAP3 DUP4 MSTORE PUSH1 0x40 DUP1 DUP5 KECCAK256 SWAP1 SWAP2 MSTORE SWAP1 DUP3 MSTORE SWAP1 KECCAK256 SLOAD PUSH1 0xFF AND DUP2 JUMP JUMPDEST PUSH1 0x40 MLOAD SWAP1 ISZERO ISZERO DUP2 MSTORE PUSH1 0x20 ADD PUSH2 0x166 JUMP JUMPDEST PUSH2 0x35B PUSH32 0x0 DUP2 JUMP JUMPDEST PUSH1 0x40 MLOAD PUSH1 0xFF SWAP1 SWAP2 AND DUP2 MSTORE PUSH1 0x20 ADD PUSH2 0x166 JUMP JUMPDEST PUSH2 0x15C PUSH2 0x37B CALLDATASIZE PUSH1 0x4 PUSH2 0x100D JUMP JUMPDEST PUSH2 0xD03 JUMP JUMPDEST PUSH2 0x15C PUSH32 0x0 DUP2 JUMP JUMPDEST PUSH2 0x1F5 PUSH32 0x0 DUP2 JUMP JUMPDEST PUSH1 0x0 DUP2 PUSH1 0xFF AND GT DUP1 ISZERO PUSH2 0x407 JUMPI POP PUSH32 0x0 PUSH1 0xFF AND DUP2 PUSH1 0xFF AND GT ISZERO JUMPDEST PUSH2 0x441 JUMPI PUSH1 0x40 MLOAD PUSH3 0x461BCD PUSH1 0xE5 SHL DUP2 MSTORE PUSH1 0x20 PUSH1 0x4 DUP3 ADD MSTORE PUSH1 0x6 PUSH1 0x24 DUP3 ADD MSTORE PUSH6 0x359018BF1A99 PUSH1 0xD1 SHL PUSH1 0x44 DUP3 ADD MSTORE PUSH1 0x64 ADD JUMPDEST PUSH1 0x40 MLOAD DUP1 SWAP2 SUB SWAP1 REVERT JUMPDEST PUSH2 0x46D PUSH32 0x0 CALLER ADDRESS DUP6 PUSH2 0xDCD JUMP JUMPDEST PUSH1 0x0 PUSH2 0x47B PUSH2 0x258 TIMESTAMP PUSH2 0x11F1 JUMP JUMPDEST PUSH2 0x486 SWAP1 PUSH1 0x1 PUSH2 0x1213 JUMP JUMPDEST SWAP1 POP PUSH1 0x0 PUSH2 0x494 DUP5 DUP5 PUSH2 0xD03 JUMP JUMPDEST SWAP1 POP PUSH1 0x0 JUMPDEST DUP4 PUSH1 0xFF AND DUP2 PUSH1 0xFF AND LT ISZERO PUSH2 0x4EE JUMPI DUP2 PUSH1 0x3 PUSH1 0x0 PUSH2 0x4B9 PUSH1 0xFF DUP6 AND DUP8 PUSH2 0x1213 JUMP JUMPDEST DUP2 MSTORE PUSH1 0x20 ADD SWAP1 DUP2 MSTORE PUSH1 0x20 ADD PUSH1 0x0 KECCAK256 PUSH1 0x0 DUP3 DUP3 SLOAD PUSH2 0x4D6 SWAP2 SWAP1 PUSH2 0x1213 JUMP JUMPDEST SWAP1 SWAP2 SSTORE POP DUP2 SWAP1 POP PUSH2 0x4E6 DUP2 PUSH2 0x122C JUMP JUMPDEST SWAP2 POP POP PUSH2 0x499 JUMP JUMPDEST POP PUSH1 0x40 MLOAD DUP1 PUSH1 0xA0 ADD PUSH1 0x40 MSTORE DUP1 DUP6 DUP2 MSTORE PUSH1 0x20 ADD DUP3 DUP2 MSTORE PUSH1 0x20 ADD DUP4 DUP2 MSTORE PUSH1 0x20 ADD DUP5 PUSH1 0xFF AND DUP5 PUSH2 0x51B SWAP2 SWAP1 PUSH2 0x1213 JUMP JUMPDEST DUP2 MSTORE PUSH1 0x20 SWAP1 DUP2 ADD DUP5 SWAP1 MSTORE PUSH1 0x6 DUP1 SLOAD PUSH1 0x0 SWAP1 DUP2 MSTORE PUSH1 0x7 DUP4 MSTORE PUSH1 0x40 DUP1 DUP3 KECCAK256 DUP6 MLOAD DUP2 SSTORE DUP6 DUP6 ADD MLOAD PUSH1 0x1 DUP1 DUP4 ADD SWAP2 SWAP1 SWAP2 SSTORE DUP7 DUP4 ADD MLOAD PUSH1 0x2 DUP4 ADD SSTORE PUSH1 0x60 DUP1 DUP9 ADD MLOAD PUSH1 0x3 DUP5 ADD SSTORE PUSH1 0x80 SWAP1 SWAP8 ADD MLOAD PUSH1 0x4 SWAP1 SWAP3 ADD SWAP2 SWAP1 SWAP2 SSTORE CALLER DUP1 DUP5 MSTORE PUSH1 0x8 DUP7 MSTORE DUP3 DUP5 KECCAK256 DUP6 SLOAD DUP2 SLOAD SWAP4 DUP5 ADD DUP3 SSTORE SWAP1 DUP6 MSTORE SWAP4 DUP7 SWAP1 KECCAK256 SWAP1 SWAP2 ADD SWAP3 SWAP1 SWAP3 SSTORE SWAP2 SLOAD DUP3 MLOAD SWAP1 DUP2 MSTORE SWAP3 DUP4 ADD DUP9 SWAP1 MSTORE PUSH1 0xFF DUP8 AND DUP4 DUP4 ADD MSTORE SWAP1 MLOAD SWAP1 SWAP3 PUSH32 0x6FA2F6021EE337436CDF2B2570285886DA18BC06402CE284D296504A0FE8F875 SWAP3 DUP3 SWAP1 SUB ADD SWAP1 LOG2 PUSH1 0x6 DUP1 SLOAD SWAP1 PUSH1 0x0 PUSH2 0x5DE DUP4 PUSH2 0x124B JUMP JUMPDEST SWAP2 SWAP1 POP SSTORE POP POP POP POP POP JUMP JUMPDEST PUSH1 0x0 DUP1 PUSH2 0x5F8 PUSH2 0x258 TIMESTAMP PUSH2 0x11F1 JUMP JUMPDEST CALLER PUSH1 0x0 SWAP1 DUP2 MSTORE PUSH1 0x8 PUSH1 0x20 MSTORE PUSH1 0x40 DUP2 KECCAK256 SLOAD SWAP2 SWAP3 POP SWAP1 PUSH2 0x618 SWAP1 PUSH1 0x1 SWAP1 PUSH2 0x1264 JUMP JUMPDEST SWAP1 POP JUMPDEST CALLER PUSH1 0x0 SWAP1 DUP2 MSTORE PUSH1 0x8 PUSH1 0x20 MSTORE PUSH1 0x40 DUP2 KECCAK256 DUP1 SLOAD DUP4 SWAP1 DUP2 LT PUSH2 0x63C JUMPI PUSH2 0x63C PUSH2 0x1277 JUMP JUMPDEST SWAP1 PUSH1 0x0 MSTORE PUSH1 0x20 PUSH1 0x0 KECCAK256 ADD SLOAD SWAP1 POP DUP3 PUSH1 0x7 PUSH1 0x0 DUP4 DUP2 MSTORE PUSH1 0x20 ADD SWAP1 DUP2 MSTORE PUSH1 0x20 ADD PUSH1 0x0 KECCAK256 PUSH1 0x3 ADD SLOAD GT PUSH2 0x753 JUMPI PUSH1 0x0 DUP2 DUP2 MSTORE PUSH1 0x7 PUSH1 0x20 MSTORE PUSH1 0x40 SWAP1 KECCAK256 SLOAD PUSH2 0x67F SWAP1 DUP6 PUSH2 0x1213 JUMP JUMPDEST SWAP4 POP DUP5 DUP5 GT PUSH2 0x729 JUMPI CALLER PUSH1 0x0 SWAP1 DUP2 MSTORE PUSH1 0x8 PUSH1 0x20 MSTORE PUSH1 0x40 SWAP1 KECCAK256 DUP1 SLOAD PUSH2 0x6A5 SWAP1 PUSH1 0x1 SWAP1 PUSH2 0x1264 JUMP JUMPDEST DUP2 SLOAD DUP2 LT PUSH2 0x6B5 JUMPI PUSH2 0x6B5 PUSH2 0x1277 JUMP JUMPDEST PUSH1 0x0 SWAP2 DUP3 MSTORE PUSH1 0x20 DUP1 DUP4 KECCAK256 SWAP1 SWAP2 ADD SLOAD CALLER DUP4 MSTORE PUSH1 0x8 SWAP1 SWAP2 MSTORE PUSH1 0x40 SWAP1 SWAP2 KECCAK256 DUP1 SLOAD DUP5 SWAP1 DUP2 LT PUSH2 0x6E2 JUMPI PUSH2 0x6E2 PUSH2 0x1277 JUMP JUMPDEST PUSH1 0x0 SWAP2 DUP3 MSTORE PUSH1 0x20 DUP1 DUP4 KECCAK256 SWAP1 SWAP2 ADD SWAP3 SWAP1 SWAP3 SSTORE CALLER DUP2 MSTORE PUSH1 0x8 SWAP1 SWAP2 MSTORE PUSH1 0x40 SWAP1 KECCAK256 DUP1 SLOAD DUP1 PUSH2 0x70E JUMPI PUSH2 0x70E PUSH2 0x128D JUMP JUMPDEST PUSH1 0x1 SWAP1 SUB DUP2 DUP2 SWAP1 PUSH1 0x0 MSTORE PUSH1 0x20 PUSH1 0x0 KECCAK256 ADD PUSH1 0x0 SWAP1 SSTORE SWAP1 SSTORE PUSH2 0x746 JUMP JUMPDEST PUSH2 0x733 DUP6 DUP6 PUSH2 0x1264 JUMP JUMPDEST PUSH1 0x0 DUP3 DUP2 MSTORE PUSH1 0x7 PUSH1 0x20 MSTORE PUSH1 0x40 SWAP1 KECCAK256 SSTORE DUP5 SWAP4 POP JUMPDEST DUP5 DUP5 SUB PUSH2 0x753 JUMPI POP PUSH2 0x766 JUMP JUMPDEST POP DUP1 PUSH2 0x75E DUP2 PUSH2 0x12A3 JUMP JUMPDEST SWAP2 POP POP PUSH2 0x61B JUMP JUMPDEST POP PUSH2 0x792 PUSH32 0x0 CALLER DUP5 PUSH2 0xEE7 JUMP JUMPDEST PUSH1 0x40 MLOAD DUP3 DUP2 MSTORE CALLER SWAP1 PUSH32 0x884EDAD9CE6FA2440D8A54CC123490EB96D2768479D49FF9C7366125A9424364 SWAP1 PUSH1 0x20 ADD PUSH1 0x40 MLOAD DUP1 SWAP2 SUB SWAP1 LOG2 POP SWAP2 SWAP1 POP JUMP JUMPDEST PUSH1 0x0 DUP1 SLOAD PUSH1 0x1 PUSH1 0x1 PUSH1 0xA0 SHL SUB AND CALLER EQ PUSH2 0x7F8 JUMPI PUSH1 0x40 MLOAD PUSH3 0x461BCD PUSH1 0xE5 SHL DUP2 MSTORE PUSH1 0x4 ADD PUSH2 0x438 SWAP1 PUSH2 0x12BA JUMP JUMPDEST PUSH1 0x0 JUMPDEST DUP4 MLOAD DUP2 LT ISZERO PUSH2 0x888 JUMPI DUP3 DUP2 DUP2 MLOAD DUP2 LT PUSH2 0x816 JUMPI PUSH2 0x816 PUSH2 0x1277 JUMP JUMPDEST PUSH1 0x20 MUL PUSH1 0x20 ADD ADD MLOAD DUP3 PUSH2 0x829 SWAP2 SWAP1 PUSH2 0x1213 JUMP JUMPDEST SWAP2 POP DUP3 DUP2 DUP2 MLOAD DUP2 LT PUSH2 0x83D JUMPI PUSH2 0x83D PUSH2 0x1277 JUMP JUMPDEST PUSH1 0x20 MUL PUSH1 0x20 ADD ADD MLOAD PUSH1 0x4 PUSH1 0x0 DUP7 DUP5 DUP2 MLOAD DUP2 LT PUSH2 0x85B JUMPI PUSH2 0x85B PUSH2 0x1277 JUMP JUMPDEST PUSH1 0x20 MUL PUSH1 0x20 ADD ADD MLOAD DUP2 MSTORE PUSH1 0x20 ADD SWAP1 DUP2 MSTORE PUSH1 0x20 ADD PUSH1 0x0 KECCAK256 DUP2 SWAP1 SSTORE POP DUP1 DUP1 PUSH2 0x880 SWAP1 PUSH2 0x124B JUMP JUMPDEST SWAP2 POP POP PUSH2 0x7FB JUMP JUMPDEST POP PUSH2 0x8B5 PUSH32 0x0 CALLER ADDRESS DUP5 PUSH2 0xDCD JUMP JUMPDEST PUSH1 0x40 DUP1 MLOAD PUSH1 0x0 DUP2 MSTORE PUSH1 0x20 DUP2 ADD DUP4 SWAP1 MSTORE CALLER SWAP2 PUSH32 0xC3991418CACD70A010FCE559A44FCBB47534CA43BF7543964BDCA2639F6E6E5A SWAP2 ADD PUSH1 0x40 MLOAD DUP1 SWAP2 SUB SWAP1 LOG2 SWAP3 SWAP2 POP POP JUMP JUMPDEST PUSH1 0x0 SLOAD PUSH1 0x1 PUSH1 0x1 PUSH1 0xA0 SHL SUB AND CALLER EQ PUSH2 0x921 JUMPI PUSH1 0x40 MLOAD PUSH3 0x461BCD PUSH1 0xE5 SHL DUP2 MSTORE PUSH1 0x4 ADD PUSH2 0x438 SWAP1 PUSH2 0x12BA JUMP JUMPDEST PUSH1 0x1 DUP1 SLOAD PUSH1 0x1 PUSH1 0x1 PUSH1 0xA0 SHL SUB NOT AND PUSH1 0x1 PUSH1 0x1 PUSH1 0xA0 SHL SUB SWAP3 SWAP1 SWAP3 AND SWAP2 SWAP1 SWAP2 OR SWAP1 SSTORE JUMP JUMPDEST PUSH1 0x1 SLOAD PUSH1 0x1 PUSH1 0x1 PUSH1 0xA0 SHL SUB AND CALLER EQ PUSH2 0x96D JUMPI PUSH1 0x40 MLOAD PUSH3 0x461BCD PUSH1 0xE5 SHL DUP2 MSTORE PUSH1 0x4 ADD PUSH2 0x438 SWAP1 PUSH2 0x12BA JUMP JUMPDEST PUSH1 0x1 DUP1 SLOAD PUSH1 0x0 DUP1 SLOAD PUSH1 0x1 PUSH1 0x1 PUSH1 0xA0 SHL SUB NOT SWAP1 DUP2 AND PUSH1 0x1 PUSH1 0x1 PUSH1 0xA0 SHL SUB DUP5 AND OR SWAP1 SWAP2 SSTORE AND SWAP1 SSTORE JUMP JUMPDEST PUSH1 0x0 DUP1 DUP1 PUSH2 0x9A4 PUSH2 0x258 TIMESTAMP PUSH2 0x11F1 JUMP JUMPDEST SWAP1 POP PUSH1 0x0 JUMPDEST CALLER PUSH1 0x0 SWAP1 DUP2 MSTORE PUSH1 0x8 PUSH1 0x20 MSTORE PUSH1 0x40 SWAP1 KECCAK256 SLOAD DUP2 LT ISZERO PUSH2 0xA3D JUMPI CALLER PUSH1 0x0 SWAP1 DUP2 MSTORE PUSH1 0x8 PUSH1 0x20 MSTORE PUSH1 0x40 DUP2 KECCAK256 DUP1 SLOAD DUP4 SWAP1 DUP2 LT PUSH2 0x9E1 JUMPI PUSH2 0x9E1 PUSH2 0x1277 JUMP JUMPDEST PUSH1 0x0 SWAP2 DUP3 MSTORE PUSH1 0x20 DUP1 DUP4 KECCAK256 SWAP1 SWAP2 ADD SLOAD DUP1 DUP4 MSTORE PUSH1 0x7 SWAP1 SWAP2 MSTORE PUSH1 0x40 SWAP1 SWAP2 KECCAK256 DUP1 SLOAD PUSH1 0x3 SWAP1 SWAP2 ADD SLOAD SWAP2 SWAP3 POP SWAP1 DUP5 LT ISZERO PUSH2 0xA1C JUMPI PUSH2 0xA19 DUP2 DUP7 PUSH2 0x1213 JUMP JUMPDEST SWAP5 POP JUMPDEST PUSH2 0xA26 DUP2 DUP8 PUSH2 0x1213 JUMP JUMPDEST SWAP6 POP POP POP DUP1 DUP1 PUSH2 0xA35 SWAP1 PUSH2 0x124B JUMP JUMPDEST SWAP2 POP POP PUSH2 0x9A9 JUMP JUMPDEST POP POP SWAP1 SWAP2 JUMP JUMPDEST PUSH1 0x0 SLOAD PUSH1 0x1 PUSH1 0x1 PUSH1 0xA0 SHL SUB AND CALLER EQ PUSH2 0xA6D JUMPI PUSH1 0x40 MLOAD PUSH3 0x461BCD PUSH1 0xE5 SHL DUP2 MSTORE PUSH1 0x4 ADD PUSH2 0x438 SWAP1 PUSH2 0x12BA JUMP JUMPDEST PUSH2 0xA99 PUSH32 0x0 CALLER ADDRESS DUP5 PUSH2 0xDCD JUMP JUMPDEST PUSH1 0x0 DUP3 DUP2 MSTORE PUSH1 0x4 PUSH1 0x20 MSTORE PUSH1 0x40 DUP2 KECCAK256 DUP1 SLOAD DUP4 SWAP3 SWAP1 PUSH2 0xAB7 SWAP1 DUP5 SWAP1 PUSH2 0x1213 JUMP JUMPDEST SWAP1 SWAP2 SSTORE POP POP PUSH1 0x40 DUP1 MLOAD DUP4 DUP2 MSTORE PUSH1 0x20 DUP2 ADD DUP4 SWAP1 MSTORE CALLER SWAP2 PUSH32 0xC3991418CACD70A010FCE559A44FCBB47534CA43BF7543964BDCA2639F6E6E5A SWAP2 ADD JUMPDEST PUSH1 0x40 MLOAD DUP1 SWAP2 SUB SWAP1 LOG2 POP POP JUMP JUMPDEST PUSH1 0x0 PUSH2 0xB0A PUSH2 0x258 TIMESTAMP PUSH2 0x11F1 JUMP JUMPDEST SWAP1 POP PUSH1 0x0 DUP1 JUMPDEST CALLER PUSH1 0x0 SWAP1 DUP2 MSTORE PUSH1 0x8 PUSH1 0x20 MSTORE PUSH1 0x40 SWAP1 KECCAK256 SLOAD DUP2 LT ISZERO PUSH2 0xC74 JUMPI CALLER PUSH1 0x0 SWAP1 DUP2 MSTORE PUSH1 0x8 PUSH1 0x20 MSTORE PUSH1 0x40 DUP2 KECCAK256 DUP1 SLOAD DUP4 SWAP1 DUP2 LT PUSH2 0xB48 JUMPI PUSH2 0xB48 PUSH2 0x1277 JUMP JUMPDEST PUSH1 0x0 SWAP2 DUP3 MSTORE PUSH1 0x20 DUP1 DUP4 KECCAK256 SWAP1 SWAP2 ADD SLOAD DUP1 DUP4 MSTORE PUSH1 0x7 SWAP1 SWAP2 MSTORE PUSH1 0x40 SWAP1 SWAP2 KECCAK256 PUSH1 0x4 ADD SLOAD SWAP1 SWAP2 POP JUMPDEST PUSH1 0x0 DUP3 DUP2 MSTORE PUSH1 0x7 PUSH1 0x20 MSTORE PUSH1 0x40 SWAP1 KECCAK256 PUSH1 0x3 ADD SLOAD DUP2 LT ISZERO PUSH2 0xC5F JUMPI PUSH1 0x0 DUP3 DUP2 MSTORE PUSH1 0x2 PUSH1 0x20 SWAP1 DUP2 MSTORE PUSH1 0x40 DUP1 DUP4 KECCAK256 DUP5 DUP5 MSTORE SWAP1 SWAP2 MSTORE SWAP1 KECCAK256 SLOAD PUSH1 0xFF AND DUP1 PUSH2 0xBAB JUMPI POP DUP5 DUP2 GT JUMPDEST DUP1 PUSH2 0xBC2 JUMPI POP PUSH1 0x0 DUP2 DUP2 MSTORE PUSH1 0x4 PUSH1 0x20 MSTORE PUSH1 0x40 SWAP1 KECCAK256 SLOAD ISZERO JUMPDEST PUSH2 0xC4D JUMPI PUSH1 0x0 DUP3 DUP2 MSTORE PUSH1 0x2 PUSH1 0x20 SWAP1 DUP2 MSTORE PUSH1 0x40 DUP1 DUP4 KECCAK256 DUP5 DUP5 MSTORE SWAP1 SWAP2 MSTORE SWAP1 KECCAK256 DUP1 SLOAD PUSH1 0xFF NOT AND PUSH1 0x1 SWAP1 DUP2 OR SWAP1 SWAP2 SSTORE PUSH2 0xBF8 SWAP1 DUP3 SWAP1 PUSH2 0x1213 JUMP JUMPDEST PUSH1 0x0 DUP4 DUP2 MSTORE PUSH1 0x7 PUSH1 0x20 SWAP1 DUP2 MSTORE PUSH1 0x40 DUP1 DUP4 KECCAK256 PUSH1 0x4 DUP1 DUP3 ADD SWAP6 SWAP1 SWAP6 SSTORE DUP6 DUP5 MSTORE PUSH1 0x3 DUP4 MSTORE DUP2 DUP5 KECCAK256 SLOAD PUSH1 0x1 SWAP1 SWAP2 ADD SLOAD SWAP5 SWAP1 SWAP3 MSTORE SWAP1 SWAP2 KECCAK256 SLOAD SWAP1 SWAP2 PUSH2 0xC36 SWAP2 PUSH2 0x12DD JUMP JUMPDEST PUSH2 0xC40 SWAP2 SWAP1 PUSH2 0x11F1 JUMP JUMPDEST PUSH2 0xC4A SWAP1 DUP6 PUSH2 0x1213 JUMP JUMPDEST SWAP4 POP JUMPDEST DUP1 PUSH2 0xC57 DUP2 PUSH2 0x124B JUMP JUMPDEST SWAP2 POP POP PUSH2 0xB6B JUMP JUMPDEST POP POP DUP1 DUP1 PUSH2 0xC6C SWAP1 PUSH2 0x124B JUMP JUMPDEST SWAP2 POP POP PUSH2 0xB10 JUMP JUMPDEST POP PUSH2 0xCA0 PUSH32 0x0 CALLER DUP4 PUSH2 0xEE7 JUMP JUMPDEST PUSH1 0x40 MLOAD DUP2 DUP2 MSTORE CALLER SWAP1 PUSH32 0xBA8DE60C3403EC381D1D484652EA1980E3C3E56359195C92525BFF4CE47AD98E SWAP1 PUSH1 0x20 ADD PUSH2 0xAF0 JUMP JUMPDEST PUSH1 0x8 PUSH1 0x20 MSTORE DUP2 PUSH1 0x0 MSTORE PUSH1 0x40 PUSH1 0x0 KECCAK256 DUP2 DUP2 SLOAD DUP2 LT PUSH2 0xCEE JUMPI PUSH1 0x0 DUP1 REVERT JUMPDEST SWAP1 PUSH1 0x0 MSTORE PUSH1 0x20 PUSH1 0x0 KECCAK256 ADD PUSH1 0x0 SWAP2 POP SWAP2 POP POP SLOAD DUP2 JUMP JUMPDEST PUSH1 0x0 PUSH2 0xD30 PUSH1 0x1 PUSH32 0x0 PUSH2 0x12F4 JUMP JUMPDEST PUSH1 0xFF AND PUSH1 0x1 PUSH32 0x0 PUSH1 0xFF AND PUSH1 0x1 DUP6 PUSH2 0xD66 SWAP2 SWAP1 PUSH2 0x12F4 JUMP JUMPDEST PUSH1 0xFF AND PUSH2 0xD94 PUSH1 0x1 PUSH32 0x0 PUSH2 0x1264 JUMP JUMPDEST PUSH2 0xD9E SWAP2 SWAP1 PUSH2 0x12DD JUMP JUMPDEST PUSH2 0xDA8 SWAP2 SWAP1 PUSH2 0x1213 JUMP JUMPDEST PUSH2 0xDB2 SWAP2 SWAP1 PUSH2 0x1264 JUMP JUMPDEST PUSH2 0xDBC SWAP1 DUP6 PUSH2 0x12DD JUMP JUMPDEST PUSH2 0xDC6 SWAP2 SWAP1 PUSH2 0x11F1 JUMP JUMPDEST SWAP4 SWAP3 POP POP POP JUMP JUMPDEST PUSH1 0x40 DUP1 MLOAD PUSH1 0x1 PUSH1 0x1 PUSH1 0xA0 SHL SUB DUP6 DUP2 AND PUSH1 0x24 DUP4 ADD MSTORE DUP5 DUP2 AND PUSH1 0x44 DUP4 ADD MSTORE PUSH1 0x64 DUP1 DUP4 ADD DUP6 SWAP1 MSTORE DUP4 MLOAD DUP1 DUP5 SUB SWAP1 SWAP2 ADD DUP2 MSTORE PUSH1 0x84 SWAP1 SWAP3 ADD DUP4 MSTORE PUSH1 0x20 DUP3 ADD DUP1 MLOAD PUSH1 0x1 PUSH1 0x1 PUSH1 0xE0 SHL SUB AND PUSH4 0x23B872DD PUSH1 0xE0 SHL OR SWAP1 MSTORE SWAP2 MLOAD PUSH1 0x0 SWAP3 DUP4 SWAP3 SWAP1 DUP9 AND SWAP2 PUSH2 0xE31 SWAP2 SWAP1 PUSH2 0x130D JUMP JUMPDEST PUSH1 0x0 PUSH1 0x40 MLOAD DUP1 DUP4 SUB DUP2 PUSH1 0x0 DUP7 GAS CALL SWAP2 POP POP RETURNDATASIZE DUP1 PUSH1 0x0 DUP2 EQ PUSH2 0xE6E JUMPI PUSH1 0x40 MLOAD SWAP2 POP PUSH1 0x1F NOT PUSH1 0x3F RETURNDATASIZE ADD AND DUP3 ADD PUSH1 0x40 MSTORE RETURNDATASIZE DUP3 MSTORE RETURNDATASIZE PUSH1 0x0 PUSH1 0x20 DUP5 ADD RETURNDATACOPY PUSH2 0xE73 JUMP JUMPDEST PUSH1 0x60 SWAP2 POP JUMPDEST POP SWAP2 POP SWAP2 POP DUP2 DUP1 ISZERO PUSH2 0xE9D JUMPI POP DUP1 MLOAD ISZERO DUP1 PUSH2 0xE9D JUMPI POP DUP1 DUP1 PUSH1 0x20 ADD SWAP1 MLOAD DUP2 ADD SWAP1 PUSH2 0xE9D SWAP2 SWAP1 PUSH2 0x133C JUMP JUMPDEST PUSH2 0xEDF JUMPI PUSH1 0x40 MLOAD PUSH3 0x461BCD PUSH1 0xE5 SHL DUP2 MSTORE PUSH1 0x20 PUSH1 0x4 DUP3 ADD MSTORE PUSH1 0x13 PUSH1 0x24 DUP3 ADD MSTORE PUSH19 0x1D1C985B9CD9995C919C9BDB4819985A5B1959 PUSH1 0x6A SHL PUSH1 0x44 DUP3 ADD MSTORE PUSH1 0x64 ADD PUSH2 0x438 JUMP JUMPDEST POP POP POP POP POP POP JUMP JUMPDEST PUSH1 0x40 DUP1 MLOAD PUSH1 0x1 PUSH1 0x1 PUSH1 0xA0 SHL SUB DUP5 DUP2 AND PUSH1 0x24 DUP4 ADD MSTORE PUSH1 0x44 DUP1 DUP4 ADD DUP6 SWAP1 MSTORE DUP4 MLOAD DUP1 DUP5 SUB SWAP1 SWAP2 ADD DUP2 MSTORE PUSH1 0x64 SWAP1 SWAP3 ADD DUP4 MSTORE PUSH1 0x20 DUP3 ADD DUP1 MLOAD PUSH1 0x1 PUSH1 0x1 PUSH1 0xE0 SHL SUB AND PUSH4 0xA9059CBB PUSH1 0xE0 SHL OR SWAP1 MSTORE SWAP2 MLOAD PUSH1 0x0 SWAP3 DUP4 SWAP3 SWAP1 DUP8 AND SWAP2 PUSH2 0xF43 SWAP2 SWAP1 PUSH2 0x130D JUMP JUMPDEST PUSH1 0x0 PUSH1 0x40 MLOAD DUP1 DUP4 SUB DUP2 PUSH1 0x0 DUP7 GAS CALL SWAP2 POP POP RETURNDATASIZE DUP1 PUSH1 0x0 DUP2 EQ PUSH2 0xF80 JUMPI PUSH1 0x40 MLOAD SWAP2 POP PUSH1 0x1F NOT PUSH1 0x3F RETURNDATASIZE ADD AND DUP3 ADD PUSH1 0x40 MSTORE RETURNDATASIZE DUP3 MSTORE RETURNDATASIZE PUSH1 0x0 PUSH1 0x20 DUP5 ADD RETURNDATACOPY PUSH2 0xF85 JUMP JUMPDEST PUSH1 0x60 SWAP2 POP JUMPDEST POP SWAP2 POP SWAP2 POP DUP2 DUP1 ISZERO PUSH2 0xFAF JUMPI POP DUP1 MLOAD ISZERO DUP1 PUSH2 0xFAF JUMPI POP DUP1 DUP1 PUSH1 0x20 ADD SWAP1 MLOAD DUP2 ADD SWAP1 PUSH2 0xFAF SWAP2 SWAP1 PUSH2 0x133C JUMP JUMPDEST PUSH2 0xFED JUMPI PUSH1 0x40 MLOAD PUSH3 0x461BCD PUSH1 0xE5 SHL DUP2 MSTORE PUSH1 0x20 PUSH1 0x4 DUP3 ADD MSTORE PUSH1 0xF PUSH1 0x24 DUP3 ADD MSTORE PUSH15 0x1514905394D1915497D19052531151 PUSH1 0x8A SHL PUSH1 0x44 DUP3 ADD MSTORE PUSH1 0x64 ADD PUSH2 0x438 JUMP JUMPDEST POP POP POP POP POP JUMP JUMPDEST PUSH1 0x0 PUSH1 0x20 DUP3 DUP5 SUB SLT ISZERO PUSH2 0x1006 JUMPI PUSH1 0x0 DUP1 REVERT JUMPDEST POP CALLDATALOAD SWAP2 SWAP1 POP JUMP JUMPDEST PUSH1 0x0 DUP1 PUSH1 0x40 DUP4 DUP6 SUB SLT ISZERO PUSH2 0x1020 JUMPI PUSH1 0x0 DUP1 REVERT JUMPDEST DUP3 CALLDATALOAD SWAP2 POP PUSH1 0x20 DUP4 ADD CALLDATALOAD PUSH1 0xFF DUP2 AND DUP2 EQ PUSH2 0x1038 JUMPI PUSH1 0x0 DUP1 REVERT JUMPDEST DUP1 SWAP2 POP POP SWAP3 POP SWAP3 SWAP1 POP JUMP JUMPDEST PUSH4 0x4E487B71 PUSH1 0xE0 SHL PUSH1 0x0 MSTORE PUSH1 0x41 PUSH1 0x4 MSTORE PUSH1 0x24 PUSH1 0x0 REVERT JUMPDEST PUSH1 0x0 DUP3 PUSH1 0x1F DUP4 ADD SLT PUSH2 0x106A JUMPI PUSH1 0x0 DUP1 REVERT JUMPDEST DUP2 CALLDATALOAD PUSH1 0x20 PUSH8 0xFFFFFFFFFFFFFFFF DUP1 DUP4 GT ISZERO PUSH2 0x1087 JUMPI PUSH2 0x1087 PUSH2 0x1043 JUMP JUMPDEST DUP3 PUSH1 0x5 SHL PUSH1 0x40 MLOAD PUSH1 0x1F NOT PUSH1 0x3F DUP4 ADD AND DUP2 ADD DUP2 DUP2 LT DUP5 DUP3 GT OR ISZERO PUSH2 0x10AC JUMPI PUSH2 0x10AC PUSH2 0x1043 JUMP JUMPDEST PUSH1 0x40 MSTORE SWAP4 DUP5 MSTORE DUP6 DUP2 ADD DUP4 ADD SWAP4 DUP4 DUP2 ADD SWAP3 POP DUP8 DUP6 GT ISZERO PUSH2 0x10CA JUMPI PUSH1 0x0 DUP1 REVERT JUMPDEST DUP4 DUP8 ADD SWAP2 POP JUMPDEST DUP5 DUP3 LT ISZERO PUSH2 0x10E9 JUMPI DUP2 CALLDATALOAD DUP4 MSTORE SWAP2 DUP4 ADD SWAP2 SWAP1 DUP4 ADD SWAP1 PUSH2 0x10D0 JUMP JUMPDEST SWAP8 SWAP7 POP POP POP POP POP POP POP JUMP JUMPDEST PUSH1 0x0 DUP1 PUSH1 0x40 DUP4 DUP6 SUB SLT ISZERO PUSH2 0x1107 JUMPI PUSH1 0x0 DUP1 REVERT JUMPDEST DUP3 CALLDATALOAD PUSH8 0xFFFFFFFFFFFFFFFF DUP1 DUP3 GT ISZERO PUSH2 0x111F JUMPI PUSH1 0x0 DUP1 REVERT JUMPDEST PUSH2 0x112B DUP7 DUP4 DUP8 ADD PUSH2 0x1059 JUMP JUMPDEST SWAP4 POP PUSH1 0x20 DUP6 ADD CALLDATALOAD SWAP2 POP DUP1 DUP3 GT ISZERO PUSH2 0x1141 JUMPI PUSH1 0x0 DUP1 REVERT JUMPDEST POP PUSH2 0x114E DUP6 DUP3 DUP7 ADD PUSH2 0x1059 JUMP JUMPDEST SWAP2 POP POP SWAP3 POP SWAP3 SWAP1 POP JUMP JUMPDEST DUP1 CALLDATALOAD PUSH1 0x1 PUSH1 0x1 PUSH1 0xA0 SHL SUB DUP2 AND DUP2 EQ PUSH2 0x116F JUMPI PUSH1 0x0 DUP1 REVERT JUMPDEST SWAP2 SWAP1 POP JUMP JUMPDEST PUSH1 0x0 PUSH1 0x20 DUP3 DUP5 SUB SLT ISZERO PUSH2 0x1186 JUMPI PUSH1 0x0 DUP1 REVERT JUMPDEST PUSH2 0xDC6 DUP3 PUSH2 0x1158 JUMP JUMPDEST PUSH1 0x0 DUP1 PUSH1 0x40 DUP4 DUP6 SUB SLT ISZERO PUSH2 0x11A2 JUMPI PUSH1 0x0 DUP1 REVERT JUMPDEST POP POP DUP1 CALLDATALOAD SWAP3 PUSH1 0x20 SWAP1 SWAP2 ADD CALLDATALOAD SWAP2 POP JUMP JUMPDEST PUSH1 0x0 DUP1 PUSH1 0x40 DUP4 DUP6 SUB SLT ISZERO PUSH2 0x11C4 JUMPI PUSH1 0x0 DUP1 REVERT JUMPDEST PUSH2 0x11CD DUP4 PUSH2 0x1158 JUMP JUMPDEST SWAP5 PUSH1 0x20 SWAP4 SWAP1 SWAP4 ADD CALLDATALOAD SWAP4 POP POP POP JUMP JUMPDEST PUSH4 0x4E487B71 PUSH1 0xE0 SHL PUSH1 0x0 MSTORE PUSH1 0x11 PUSH1 0x4 MSTORE PUSH1 0x24 PUSH1 0x0 REVERT JUMPDEST PUSH1 0x0 DUP3 PUSH2 0x120E JUMPI PUSH4 0x4E487B71 PUSH1 0xE0 SHL PUSH1 0x0 MSTORE PUSH1 0x12 PUSH1 0x4 MSTORE PUSH1 0x24 PUSH1 0x0 REVERT JUMPDEST POP DIV SWAP1 JUMP JUMPDEST DUP1 DUP3 ADD DUP1 DUP3 GT ISZERO PUSH2 0x1226 JUMPI PUSH2 0x1226 PUSH2 0x11DB JUMP JUMPDEST SWAP3 SWAP2 POP POP JUMP JUMPDEST PUSH1 0x0 PUSH1 0xFF DUP3 AND PUSH1 0xFF DUP2 SUB PUSH2 0x1242 JUMPI PUSH2 0x1242 PUSH2 0x11DB JUMP JUMPDEST PUSH1 0x1 ADD SWAP3 SWAP2 POP POP JUMP JUMPDEST PUSH1 0x0 PUSH1 0x1 DUP3 ADD PUSH2 0x125D JUMPI PUSH2 0x125D PUSH2 0x11DB JUMP JUMPDEST POP PUSH1 0x1 ADD SWAP1 JUMP JUMPDEST DUP2 DUP2 SUB DUP2 DUP2 GT ISZERO PUSH2 0x1226 JUMPI PUSH2 0x1226 PUSH2 0x11DB JUMP JUMPDEST PUSH4 0x4E487B71 PUSH1 0xE0 SHL PUSH1 0x0 MSTORE PUSH1 0x32 PUSH1 0x4 MSTORE PUSH1 0x24 PUSH1 0x0 REVERT JUMPDEST PUSH4 0x4E487B71 PUSH1 0xE0 SHL PUSH1 0x0 MSTORE PUSH1 0x31 PUSH1 0x4 MSTORE PUSH1 0x24 PUSH1 0x0 REVERT JUMPDEST PUSH1 0x0 DUP2 PUSH2 0x12B2 JUMPI PUSH2 0x12B2 PUSH2 0x11DB JUMP JUMPDEST POP PUSH1 0x0 NOT ADD SWAP1 JUMP JUMPDEST PUSH1 0x20 DUP1 DUP3 MSTORE PUSH1 0x9 SWAP1 DUP3 ADD MSTORE PUSH9 0x3337B93134B23232B7 PUSH1 0xB9 SHL PUSH1 0x40 DUP3 ADD MSTORE PUSH1 0x60 ADD SWAP1 JUMP JUMPDEST DUP1 DUP3 MUL DUP2 ISZERO DUP3 DUP3 DIV DUP5 EQ OR PUSH2 0x1226 JUMPI PUSH2 0x1226 PUSH2 0x11DB JUMP JUMPDEST PUSH1 0xFF DUP3 DUP2 AND DUP3 DUP3 AND SUB SWAP1 DUP2 GT ISZERO PUSH2 0x1226 JUMPI PUSH2 0x1226 PUSH2 0x11DB JUMP JUMPDEST PUSH1 0x0 DUP3 MLOAD PUSH1 0x0 JUMPDEST DUP2 DUP2 LT ISZERO PUSH2 0x132E JUMPI PUSH1 0x20 DUP2 DUP7 ADD DUP2 ADD MLOAD DUP6 DUP4 ADD MSTORE ADD PUSH2 0x1314 JUMP JUMPDEST POP PUSH1 0x0 SWAP3 ADD SWAP2 DUP3 MSTORE POP SWAP2 SWAP1 POP JUMP JUMPDEST PUSH1 0x0 PUSH1 0x20 DUP3 DUP5 SUB SLT ISZERO PUSH2 0x134E JUMPI PUSH1 0x0 DUP1 REVERT JUMPDEST DUP2 MLOAD DUP1 ISZERO ISZERO DUP2 EQ PUSH2 0xDC6 JUMPI PUSH1 0x0 DUP1 REVERT INVALID LOG2 PUSH5 0x6970667358 0x22 SLT KECCAK256 PUSH21 0x2D9F97304A9ED21FA55E66E01DDD7FFC81A788142 EXP MOD DUP1 SDIV PUSH31 0x994DDFF22564736F6C63430008110033000000000000000000000000000000 "},"methodIdentifiers":{"MAX_SCALE()":"f6def7cf","MAX_WEEKS()":"e11400bb","WEEK_SECONDS()":"cd671a58","acceptSetter()":"5f8e422f","bClaimReward(uint256,uint256)":"ce6d3e3e","claimReward()":"b88a802f","getScore(uint256,uint8)":"ee3453ed","getStaking()":"7b1391a6","latestNo()":"29ed1cfd","lpToken()":"5fcbd285","nonce()":"affed0e0","owner()":"8da5cb5b","rewardToken()":"f7c618c1","rewardsOf(uint256)":"0bce1284","setReward(uint256,uint256)":"a47bd496","setReward(uint256[],uint256[])":"4d10c55a","stake(uint256,uint8)":"10087fb1","stakingERC20s(uint256)":"a218de15","transferOwner(address)":"4fb2e45d","userERC20s(address,uint256)":"ba086501","withdraw(uint256)":"2e1a7d4d"}}}}}