{"contracts/stakeNFT721.sol":{"StakeNFT721":{"abi":[{"inputs":[{"internalType":"uint8","name":"maxWeeks","type":"uint8"},{"internalType":"uint256","name":"maxScale","type":"uint256"},{"internalType":"uint8","name":"lockWeeks","type":"uint8"},{"internalType":"uint256","name":"beginTime","type":"uint256"},{"internalType":"uint256","name":"endTime","type":"uint256"},{"internalType":"address","name":"_rewardToken","type":"address"},{"internalType":"address","name":"tokenA","type":"address"},{"internalType":"address","name":"tokenB","type":"address"},{"internalType":"address","name":"nft","type":"address"}],"stateMutability":"nonpayable","type":"constructor"},{"anonymous":false,"inputs":[{"indexed":true,"internalType":"address","name":"user","type":"address"},{"indexed":false,"internalType":"uint256","name":"tokenId","type":"uint256"},{"indexed":false,"internalType":"uint256","name":"amount","type":"uint256"}],"name":"ClaimReward","type":"event"},{"anonymous":false,"inputs":[{"indexed":true,"internalType":"address","name":"user","type":"address"},{"indexed":false,"internalType":"uint256","name":"amount","type":"uint256"}],"name":"ClaimReward","type":"event"},{"anonymous":false,"inputs":[{"indexed":true,"internalType":"address","name":"user","type":"address"},{"indexed":false,"internalType":"uint256","name":"no","type":"uint256"},{"indexed":false,"internalType":"uint256","name":"amount","type":"uint256"}],"name":"SetReward","type":"event"},{"anonymous":false,"inputs":[{"indexed":true,"internalType":"address","name":"user","type":"address"},{"indexed":false,"internalType":"uint256","name":"tokenId","type":"uint256"},{"indexed":false,"internalType":"uint256","name":"amount","type":"uint256"},{"indexed":false,"internalType":"uint8","name":"k","type":"uint8"}],"name":"Stake","type":"event"},{"anonymous":false,"inputs":[{"indexed":true,"internalType":"address","name":"user","type":"address"},{"indexed":false,"internalType":"uint256","name":"tokenId","type":"uint256"}],"name":"Withdraw","type":"event"},{"inputs":[],"name":"BEGIN_TIME","outputs":[{"internalType":"uint256","name":"","type":"uint256"}],"stateMutability":"view","type":"function"},{"inputs":[],"name":"END_TIME","outputs":[{"internalType":"uint256","name":"","type":"uint256"}],"stateMutability":"view","type":"function"},{"inputs":[],"name":"LOCK_WEEKNUM","outputs":[{"internalType":"uint8","name":"","type":"uint8"}],"stateMutability":"view","type":"function"},{"inputs":[],"name":"MAX_SCALE","outputs":[{"internalType":"uint256","name":"","type":"uint256"}],"stateMutability":"view","type":"function"},{"inputs":[],"name":"MAX_WEEKS","outputs":[{"internalType":"uint8","name":"","type":"uint8"}],"stateMutability":"view","type":"function"},{"inputs":[],"name":"WEEK_SECONDS","outputs":[{"internalType":"uint24","name":"","type":"uint24"}],"stateMutability":"view","type":"function"},{"inputs":[],"name":"acceptSetter","outputs":[],"stateMutability":"nonpayable","type":"function"},{"inputs":[],"name":"calculateRewardAmount","outputs":[{"internalType":"uint256","name":"","type":"uint256"},{"internalType":"uint256","name":"","type":"uint256"}],"stateMutability":"view","type":"function"},{"inputs":[],"name":"claimReward","outputs":[],"stateMutability":"nonpayable","type":"function"},{"inputs":[{"internalType":"uint256","name":"amount","type":"uint256"},{"internalType":"uint8","name":"k","type":"uint8"}],"name":"getScore","outputs":[{"internalType":"uint256","name":"score","type":"uint256"}],"stateMutability":"view","type":"function"},{"inputs":[],"name":"getUserNFTs","outputs":[{"internalType":"uint256[]","name":"","type":"uint256[]"},{"internalType":"uint256","name":"","type":"uint256"}],"stateMutability":"view","type":"function"},{"inputs":[],"name":"latestNo","outputs":[{"internalType":"uint256","name":"","type":"uint256"}],"stateMutability":"view","type":"function"},{"inputs":[],"name":"nftToken","outputs":[{"internalType":"contract IIotabeeSwapNFT","name":"","type":"address"}],"stateMutability":"view","type":"function"},{"inputs":[],"name":"owner","outputs":[{"internalType":"address","name":"","type":"address"}],"stateMutability":"view","type":"function"},{"inputs":[],"name":"rewardToken","outputs":[{"internalType":"address","name":"","type":"address"}],"stateMutability":"view","type":"function"},{"inputs":[{"internalType":"uint256","name":"","type":"uint256"}],"name":"rewardsOf","outputs":[{"internalType":"uint256","name":"","type":"uint256"}],"stateMutability":"view","type":"function"},{"inputs":[{"internalType":"uint256","name":"no","type":"uint256"},{"internalType":"uint256","name":"amount","type":"uint256"}],"name":"setReward","outputs":[],"stateMutability":"nonpayable","type":"function"},{"inputs":[{"internalType":"uint256[]","name":"nos","type":"uint256[]"},{"internalType":"uint256[]","name":"amounts","type":"uint256[]"}],"name":"setRewards","outputs":[{"internalType":"uint256","name":"total","type":"uint256"}],"stateMutability":"nonpayable","type":"function"},{"inputs":[{"internalType":"uint256","name":"tokenId","type":"uint256"},{"internalType":"uint8","name":"k","type":"uint8"}],"name":"stake","outputs":[],"stateMutability":"nonpayable","type":"function"},{"inputs":[{"internalType":"uint256","name":"","type":"uint256"}],"name":"stakingNFTs","outputs":[{"internalType":"address","name":"owner","type":"address"},{"internalType":"uint256","name":"score","type":"uint256"},{"internalType":"uint256","name":"beginNo","type":"uint256"},{"internalType":"uint256","name":"endNo","type":"uint256"}],"stateMutability":"view","type":"function"},{"inputs":[],"name":"token0","outputs":[{"internalType":"address","name":"","type":"address"}],"stateMutability":"view","type":"function"},{"inputs":[],"name":"token1","outputs":[{"internalType":"address","name":"","type":"address"}],"stateMutability":"view","type":"function"},{"inputs":[{"internalType":"uint256","name":"","type":"uint256"}],"name":"totalScores","outputs":[{"internalType":"uint256","name":"","type":"uint256"}],"stateMutability":"view","type":"function"},{"inputs":[{"internalType":"address","name":"_owner","type":"address"}],"name":"transferOwner","outputs":[],"stateMutability":"nonpayable","type":"function"},{"inputs":[{"internalType":"address","name":"","type":"address"},{"internalType":"uint256","name":"","type":"uint256"}],"name":"userCanClaimWeeks","outputs":[{"internalType":"uint256","name":"","type":"uint256"}],"stateMutability":"view","type":"function"},{"inputs":[{"internalType":"address","name":"","type":"address"},{"internalType":"uint256","name":"","type":"uint256"}],"name":"userNFTs","outputs":[{"internalType":"uint256","name":"","type":"uint256"}],"stateMutability":"view","type":"function"},{"inputs":[{"internalType":"address","name":"","type":"address"},{"internalType":"uint256","name":"","type":"uint256"}],"name":"userScores","outputs":[{"internalType":"uint256","name":"","type":"uint256"}],"stateMutability":"view","type":"function"},{"inputs":[{"internalType":"uint256","name":"tokenId","type":"uint256"}],"name":"withdraw","outputs":[],"stateMutability":"nonpayable","type":"function"},{"inputs":[{"internalType":"uint256[]","name":"tokenIds","type":"uint256[]"}],"name":"withdraw","outputs":[],"stateMutability":"nonpayable","type":"function"},{"inputs":[{"internalType":"uint256","name":"amount","type":"uint256"}],"name":"withdrawRewards","outputs":[],"stateMutability":"nonpayable","type":"function"}],"evm":{"bytecode":{"linkReferences":{},"object":"6101a06040523480156200001257600080fd5b506040516200201f3803806200201f8339810160408190526200003591620000e3565b6001600160a01b0380851660805260ff808b1660a05260c08a9052881660e052610100879052610120869052600080546001600160a01b0319163317905582811690841610620000875781836200008a565b82825b6001600160a01b039081166101805290811661016052166101405250620001839650505050505050565b805160ff81168114620000c657600080fd5b919050565b80516001600160a01b0381168114620000c657600080fd5b60008060008060008060008060006101208a8c0312156200010357600080fd5b6200010e8a620000b4565b985060208a015197506200012560408b01620000b4565b965060608a0151955060808a015194506200014360a08b01620000cb565b93506200015360c08b01620000cb565b92506200016360e08b01620000cb565b9150620001746101008b01620000cb565b90509295985092959850929598565b60805160a05160c05160e0516101005161012051610140516101605161018051611dbb62000264600039600081816104cb01526113c501526000818161025001526113890152600081816104a401528181610ae4015281816112e8015281816114bc015261158d0152600061037901526000610460015260008181610217015281816108360152610f4b01526000818161052c01526111220152600081816104f20152818161059b015281816110be01526110e901526000818161055301528181610c5e01528181610dcf01528181610eab01526110380152611dbb6000f3fe608060405234801561001057600080fd5b50600436106101da5760003560e01c80639342c8f411610104578063cd671a58116100a2578063ee3453ed11610071578063ee3453ed14610514578063f6def7cf14610527578063f7c618c11461054e578063fdc5ab8e1461057557600080fd5b8063cd671a5814610482578063d06fcba81461049f578063d21220a7146104c6578063e11400bb146104ed57600080fd5b8063a47bd496116100de578063a47bd4961461042d578063b88a802f14610440578063bb57852d14610448578063c75363b61461045b57600080fd5b80639342c8f4146103f4578063979db1c414610407578063983d95ce1461041a57600080fd5b8063291c73c31161017c5780634fb2e45d1161014b5780634fb2e45d1461039b5780635b680a45146103ae5780635f8e422f146103d95780638da5cb5b146103e157600080fd5b8063291c73c31461034557806329ed1cfd146103585780632e1a7d4d1461036157806337ba682d1461037457600080fd5b806310087fb1116101b857806310087fb11461028a57806310c6c1c21461029f578063157775df14610308578063195962821461032857600080fd5b80630bce1284146101df5780630d437d40146102125780630dfe16811461024b575b600080fd5b6101ff6101ed36600461182d565b60056020526000908152604090205481565b6040519081526020015b60405180910390f35b6102397f000000000000000000000000000000000000000000000000000000000000000081565b60405160ff9091168152602001610209565b6102727f000000000000000000000000000000000000000000000000000000000000000081565b6040516001600160a01b039091168152602001610209565b61029d610298366004611846565b61058b565b005b6102de6102ad36600461182d565b60076020526000908152604090208054600182015460028301546003909301546001600160a01b0390921692909184565b604080516001600160a01b0390951685526020850193909352918301526060820152608001610209565b6101ff61031636600461182d565b60046020526000908152604090205481565b61033061082e565b60408051928352602083019190915201610209565b6101ff610353366004611891565b610921565b6101ff60065481565b61029d61036f36600461182d565b610952565b6101ff7f000000000000000000000000000000000000000000000000000000000000000081565b61029d6103a93660046118bd565b610b92565b6101ff6103bc366004611891565b600260209081526000928352604080842090915290825290205481565b61029d610bde565b600054610272906001600160a01b031681565b61029d61040236600461182d565b610c2f565b6101ff61041536600461198b565b610c87565b61029d6104283660046119ef565b610e38565b61029d61043b366004611a2c565b610e7c565b61029d610f45565b6101ff610456366004611891565b611090565b6101ff7f000000000000000000000000000000000000000000000000000000000000000081565b61048b61025881565b60405162ffffff9091168152602001610209565b6102727f000000000000000000000000000000000000000000000000000000000000000081565b6102727f000000000000000000000000000000000000000000000000000000000000000081565b6102397f000000000000000000000000000000000000000000000000000000000000000081565b6101ff610522366004611846565b6110b5565b6101ff7f000000000000000000000000000000000000000000000000000000000000000081565b6102727f000000000000000000000000000000000000000000000000000000000000000081565b61057d61117f565b604051610209929190611a4e565b60008160ff161180156105c457507f000000000000000000000000000000000000000000000000000000000000000060ff168160ff1611155b6106095760405162461bcd60e51b815260206004820152601160248201527039ba30b5b2903bb2b2b5b99032b93937b960791b60448201526064015b60405180910390fd5b6000610614836112dd565b9050600061062461025842611aac565b61062f906001611ace565b9050600061063d83856110b5565b905060005b8460ff168160ff1610156106d757816004600061066260ff851687611ace565b8152602001908152602001600020600082825461067f9190611ace565b909155505033600090815260026020526040812083916106a260ff851687611ace565b815260200190815260200160002060008282546106bf9190611ace565b909155508190506106cf81611ae7565b915050610642565b5060408051608081018252338152602081018390529081018390526060810161070360ff871685611ace565b90526000868152600760209081526040808320845181546001600160a01b0319166001600160a01b039091161781558483015160018083019190915585830151600283015560609095015160039182015533845290915290209081015490540361077a573360009081526003602052604090208290555b61078760ff851683611ace565b3360009081526003602052604090206001015410156107c1576107ad60ff851683611ace565b336000908152600360205260409020600101555b336000818152600860209081526040808320805460018101825590845292829020909201889055815188815290810186905260ff87168183015290517f6fa2f6021ee337436cdf2b2570285886da18bc06402ce284d296504a0fe8f8759181900360600190a25050505050565b6000808060ff7f00000000000000000000000000000000000000000000000000000000000000001661086261025842611aac565b61086c9190611b1c565b336000908152600360205260408120549192509081905b33600090815260036020526040902060010154811015610916576000818152600460209081526040808320543384526002835281842085855283528184205460059093529083205490916108d691611b2f565b6108e09190611aac565b90508482116108f6576108f38184611ace565b92505b6109008185611ace565b935050808061090e90611b46565b915050610883565b509094909350915050565b6008602052816000526040600020818154811061093d57600080fd5b90600052602060002001600091509150505481565b6000818152600760205260409020546001600160a01b031633146109aa5760405162461bcd60e51b815260206004820152600f60248201526e37bbb732b9103337b93134b23232b760891b6044820152606401610600565b60006109b861025842611aac565b600083815260076020526040902060030154909150811015610a0a5760405162461bcd60e51b815260206004820152600b60248201526a6c6f636b65642074696d6560a81b6044820152606401610600565b336000908152600860205260408120905b8154811015610b5757818181548110610a3657610a36611b06565b90600052602060002001548403610b455781548290610a5790600190611b1c565b81548110610a6757610a67611b06565b9060005260206000200154828281548110610a8457610a84611b06565b906000526020600020018190555081805480610aa257610aa2611b5f565b600082815260208120820160001990810191909155019055604051632142170760e11b8152306004820152336024820152604481018590526001600160a01b037f000000000000000000000000000000000000000000000000000000000000000016906342842e0e90606401600060405180830381600087803b158015610b2857600080fd5b505af1158015610b3c573d6000803e3d6000fd5b50505050610b57565b80610b4f81611b46565b915050610a1b565b5060405183815233907f884edad9ce6fa2440d8a54cc123490eb96d2768479d49ff9c7366125a94243649060200160405180910390a2505050565b6000546001600160a01b03163314610bbc5760405162461bcd60e51b815260040161060090611b75565b600180546001600160a01b0319166001600160a01b0392909216919091179055565b6001546001600160a01b03163314610c085760405162461bcd60e51b815260040161060090611b75565b60018054600080546001600160a01b03199081166001600160a01b03841617909155169055565b6000546001600160a01b03163314610c595760405162461bcd60e51b815260040161060090611b75565b610c847f00000000000000000000000000000000000000000000000000000000000000003383611606565b50565b600080546001600160a01b03163314610cb25760405162461bcd60e51b815260040161060090611b75565b8151835114610cf65760405162461bcd60e51b815260206004820152601060248201526f3830b930b6b2ba32b9399032b93937b960811b6044820152606401610600565b60005b8351811015610dc957828181518110610d1457610d14611b06565b602002602001015182610d279190611ace565b9150828181518110610d3b57610d3b611b06565b602002602001015160056000868481518110610d5957610d59611b06565b6020026020010151815260200190815260200160002081905550600654848281518110610d8857610d88611b06565b60200260200101511115610db757838181518110610da857610da8611b06565b60200260200101516006819055505b80610dc181611b46565b915050610cf9565b50610df67f0000000000000000000000000000000000000000000000000000000000000000333084611713565b60408051600081526020810183905233917fc3991418cacd70a010fce559a44fcbb47534ca43bf7543964bdca2639f6e6e5a910160405180910390a292915050565b60005b8151811015610e7857610e66828281518110610e5957610e59611b06565b6020026020010151610952565b80610e7081611b46565b915050610e3b565b5050565b6000546001600160a01b03163314610ea65760405162461bcd60e51b815260040161060090611b75565b610ed27f0000000000000000000000000000000000000000000000000000000000000000333084611713565b60008281526005602052604081208054839290610ef0908490611ace565b9091555050600654821115610f055760068290555b604080518381526020810183905233917fc3991418cacd70a010fce559a44fcbb47534ca43bf7543964bdca2639f6e6e5a91015b60405180910390a25050565b600060ff7f000000000000000000000000000000000000000000000000000000000000000016610f7761025842611aac565b610f819190611b1c565b33600090815260036020526040812054919250905b336000908152600360205260409020600101548110156110325782811161103257610fc2816001611ace565b336000908152600360205260408120015560008181526004602090815260408083205433845260028352818420858552835281842054600590935292205461100a9190611b2f565b6110149190611aac565b61101e9083611ace565b91508061102a81611b46565b915050610f96565b5061105e7f00000000000000000000000000000000000000000000000000000000000000003383611606565b60405181815233907fba8de60c3403ec381d1d484652ea1980e3c3e56359195c92525bff4ce47ad98e90602001610f39565b600360205281600052604060002081600281106110ac57600080fd5b01549150829050565b60006110e260017f0000000000000000000000000000000000000000000000000000000000000000611b98565b60ff1660017f000000000000000000000000000000000000000000000000000000000000000060ff166001856111189190611b98565b60ff1661114660017f0000000000000000000000000000000000000000000000000000000000000000611b1c565b6111509190611b2f565b61115a9190611ace565b6111649190611b1c565b61116e9085611b2f565b6111789190611aac565b9392505050565b3360009081526008602052604081205460609190819067ffffffffffffffff8111156111ad576111ad6118da565b6040519080825280602002602001820160405280156111d6578160200160208202803683370190505b50905060006111e761025842611aac565b3360009081526008602052604081205491925090815b336000908152600860205260409020548110156112d05733600090815260086020526040812080548390811061123557611235611b06565b906000526020600020015490508460076000838152602001908152602001600020600301541115611290578086858151811061127357611273611b06565b60209081029190910101528361128881611b46565b9450506112bd565b8261129a81611bb1565b935050808684815181106112b0576112b0611b06565b6020026020010181815250505b50806112c881611b46565b9150506111fd565b5092959294509192505050565b6000806000806000807f00000000000000000000000000000000000000000000000000000000000000006001600160a01b03166399fbab88886040518263ffffffff1660e01b815260040161133491815260200190565b61018060405180830381865afa158015611352573d6000803e3d6000fd5b505050506040513d601f19601f820116820180604052508101906113769190611c14565b50505050975097509750509650965050507f00000000000000000000000000000000000000000000000000000000000000006001600160a01b0316856001600160a01b03161480156113f957507f00000000000000000000000000000000000000000000000000000000000000006001600160a01b0316846001600160a01b0316145b6114355760405162461bcd60e51b815260206004820152600d60248201526c3638103830b4b91032b93937b960991b6044820152606401610600565b600283900b620d89e71914801561145d5750611454620d89e719611cf5565b60020b8260020b145b61149c5760405162461bcd60e51b815260206004820152601060248201526f3a34b1b5903930b733b29032b93937b960811b6044820152606401610600565b60405163020604bf60e21b81526004810188905230906001600160a01b037f0000000000000000000000000000000000000000000000000000000000000000169063081812fc90602401602060405180830381865afa158015611503573d6000803e3d6000fd5b505050506040513d601f19601f820116820180604052508101906115279190611d17565b6001600160a01b03161461156b5760405162461bcd60e51b815260206004820152600b60248201526a6e6f7420617070726f766560a81b6044820152606401610600565b604051632142170760e11b8152336004820152306024820152604481018890527f00000000000000000000000000000000000000000000000000000000000000006001600160a01b0316906342842e0e90606401600060405180830381600087803b1580156115d957600080fd5b505af11580156115ed573d6000803e3d6000fd5b50506001600160801b0390921698975050505050505050565b604080516001600160a01b038481166024830152604480830185905283518084039091018152606490920183526020820180516001600160e01b031663a9059cbb60e01b17905291516000928392908716916116629190611d34565b6000604051808303816000865af19150503d806000811461169f576040519150601f19603f3d011682016040523d82523d6000602084013e6116a4565b606091505b50915091508180156116ce5750805115806116ce5750808060200190518101906116ce9190611d63565b61170c5760405162461bcd60e51b815260206004820152600f60248201526e1514905394d1915497d19052531151608a1b6044820152606401610600565b5050505050565b604080516001600160a01b0385811660248301528481166044830152606480830185905283518084039091018152608490920183526020820180516001600160e01b03166323b872dd60e01b17905291516000928392908816916117779190611d34565b6000604051808303816000865af19150503d80600081146117b4576040519150601f19603f3d011682016040523d82523d6000602084013e6117b9565b606091505b50915091508180156117e35750805115806117e35750808060200190518101906117e39190611d63565b6118255760405162461bcd60e51b81526020600482015260136024820152721d1c985b9cd9995c919c9bdb4819985a5b1959606a1b6044820152606401610600565b505050505050565b60006020828403121561183f57600080fd5b5035919050565b6000806040838503121561185957600080fd5b82359150602083013560ff8116811461187157600080fd5b809150509250929050565b6001600160a01b0381168114610c8457600080fd5b600080604083850312156118a457600080fd5b82356118af8161187c565b946020939093013593505050565b6000602082840312156118cf57600080fd5b81356111788161187c565b634e487b7160e01b600052604160045260246000fd5b600082601f83011261190157600080fd5b8135602067ffffffffffffffff8083111561191e5761191e6118da565b8260051b604051601f19603f83011681018181108482111715611943576119436118da565b60405293845285810183019383810192508785111561196157600080fd5b83870191505b8482101561198057813583529183019190830190611967565b979650505050505050565b6000806040838503121561199e57600080fd5b823567ffffffffffffffff808211156119b657600080fd5b6119c2868387016118f0565b935060208501359150808211156119d857600080fd5b506119e5858286016118f0565b9150509250929050565b600060208284031215611a0157600080fd5b813567ffffffffffffffff811115611a1857600080fd5b611a24848285016118f0565b949350505050565b60008060408385031215611a3f57600080fd5b50508035926020909101359150565b604080825283519082018190526000906020906060840190828701845b82811015611a8757815184529284019290840190600101611a6b565b50505092019290925292915050565b634e487b7160e01b600052601160045260246000fd5b600082611ac957634e487b7160e01b600052601260045260246000fd5b500490565b80820180821115611ae157611ae1611a96565b92915050565b600060ff821660ff8103611afd57611afd611a96565b60010192915050565b634e487b7160e01b600052603260045260246000fd5b81810381811115611ae157611ae1611a96565b8082028115828204841417611ae157611ae1611a96565b600060018201611b5857611b58611a96565b5060010190565b634e487b7160e01b600052603160045260246000fd5b6020808252600990820152683337b93134b23232b760b91b604082015260600190565b60ff8281168282160390811115611ae157611ae1611a96565b600081611bc057611bc0611a96565b506000190190565b8051611bd38161187c565b919050565b805162ffffff81168114611bd357600080fd5b8051600281900b8114611bd357600080fd5b80516001600160801b0381168114611bd357600080fd5b6000806000806000806000806000806000806101808d8f031215611c3757600080fd5b8c516bffffffffffffffffffffffff81168114611c5357600080fd5b9b50611c6160208e01611bc8565b9a50611c6f60408e01611bc8565b9950611c7d60608e01611bc8565b9850611c8b60808e01611bd8565b9750611c9960a08e01611beb565b9650611ca760c08e01611beb565b9550611cb560e08e01611bfd565b94506101008d015193506101208d01519250611cd46101408e01611bfd565b9150611ce36101608e01611bfd565b90509295989b509295989b509295989b565b60008160020b627fffff198103611d0e57611d0e611a96565b60000392915050565b600060208284031215611d2957600080fd5b81516111788161187c565b6000825160005b81811015611d555760208186018101518583015201611d3b565b506000920191825250919050565b600060208284031215611d7557600080fd5b8151801515811461117857600080fdfea2646970667358221220b1aca6a8031b45d52d3e88d1e0e3da9dfb3421f949c8dffd1eb7d4f750df16d164736f6c63430008110033","opcodes":"PUSH2 0x1A0 PUSH1 0x40 MSTORE CALLVALUE DUP1 ISZERO PUSH3 0x12 JUMPI PUSH1 0x0 DUP1 REVERT JUMPDEST POP PUSH1 0x40 MLOAD PUSH3 0x201F CODESIZE SUB DUP1 PUSH3 0x201F DUP4 CODECOPY DUP2 ADD PUSH1 0x40 DUP2 SWAP1 MSTORE PUSH3 0x35 SWAP2 PUSH3 0xE3 JUMP JUMPDEST PUSH1 0x1 PUSH1 0x1 PUSH1 0xA0 SHL SUB DUP1 DUP6 AND PUSH1 0x80 MSTORE PUSH1 0xFF DUP1 DUP12 AND PUSH1 0xA0 MSTORE PUSH1 0xC0 DUP11 SWAP1 MSTORE DUP9 AND PUSH1 0xE0 MSTORE PUSH2 0x100 DUP8 SWAP1 MSTORE PUSH2 0x120 DUP7 SWAP1 MSTORE PUSH1 0x0 DUP1 SLOAD PUSH1 0x1 PUSH1 0x1 PUSH1 0xA0 SHL SUB NOT AND CALLER OR SWAP1 SSTORE DUP3 DUP2 AND SWAP1 DUP5 AND LT PUSH3 0x87 JUMPI DUP2 DUP4 PUSH3 0x8A JUMP JUMPDEST DUP3 DUP3 JUMPDEST PUSH1 0x1 PUSH1 0x1 PUSH1 0xA0 SHL SUB SWAP1 DUP2 AND PUSH2 0x180 MSTORE SWAP1 DUP2 AND PUSH2 0x160 MSTORE AND PUSH2 0x140 MSTORE POP PUSH3 0x183 SWAP7 POP POP POP POP POP POP POP JUMP JUMPDEST DUP1 MLOAD PUSH1 0xFF DUP2 AND DUP2 EQ PUSH3 0xC6 JUMPI PUSH1 0x0 DUP1 REVERT JUMPDEST SWAP2 SWAP1 POP JUMP JUMPDEST DUP1 MLOAD PUSH1 0x1 PUSH1 0x1 PUSH1 0xA0 SHL SUB DUP2 AND DUP2 EQ PUSH3 0xC6 JUMPI PUSH1 0x0 DUP1 REVERT JUMPDEST PUSH1 0x0 DUP1 PUSH1 0x0 DUP1 PUSH1 0x0 DUP1 PUSH1 0x0 DUP1 PUSH1 0x0 PUSH2 0x120 DUP11 DUP13 SUB SLT ISZERO PUSH3 0x103 JUMPI PUSH1 0x0 DUP1 REVERT JUMPDEST PUSH3 0x10E DUP11 PUSH3 0xB4 JUMP JUMPDEST SWAP9 POP PUSH1 0x20 DUP11 ADD MLOAD SWAP8 POP PUSH3 0x125 PUSH1 0x40 DUP12 ADD PUSH3 0xB4 JUMP JUMPDEST SWAP7 POP PUSH1 0x60 DUP11 ADD MLOAD SWAP6 POP PUSH1 0x80 DUP11 ADD MLOAD SWAP5 POP PUSH3 0x143 PUSH1 0xA0 DUP12 ADD PUSH3 0xCB JUMP JUMPDEST SWAP4 POP PUSH3 0x153 PUSH1 0xC0 DUP12 ADD PUSH3 0xCB JUMP JUMPDEST SWAP3 POP PUSH3 0x163 PUSH1 0xE0 DUP12 ADD PUSH3 0xCB JUMP JUMPDEST SWAP2 POP PUSH3 0x174 PUSH2 0x100 DUP12 ADD PUSH3 0xCB JUMP JUMPDEST SWAP1 POP SWAP3 SWAP6 SWAP9 POP SWAP3 SWAP6 SWAP9 POP SWAP3 SWAP6 SWAP9 JUMP JUMPDEST PUSH1 0x80 MLOAD PUSH1 0xA0 MLOAD PUSH1 0xC0 MLOAD PUSH1 0xE0 MLOAD PUSH2 0x100 MLOAD PUSH2 0x120 MLOAD PUSH2 0x140 MLOAD PUSH2 0x160 MLOAD PUSH2 0x180 MLOAD PUSH2 0x1DBB PUSH3 0x264 PUSH1 0x0 CODECOPY PUSH1 0x0 DUP2 DUP2 PUSH2 0x4CB ADD MSTORE PUSH2 0x13C5 ADD MSTORE PUSH1 0x0 DUP2 DUP2 PUSH2 0x250 ADD MSTORE PUSH2 0x1389 ADD MSTORE PUSH1 0x0 DUP2 DUP2 PUSH2 0x4A4 ADD MSTORE DUP2 DUP2 PUSH2 0xAE4 ADD MSTORE DUP2 DUP2 PUSH2 0x12E8 ADD MSTORE DUP2 DUP2 PUSH2 0x14BC ADD MSTORE PUSH2 0x158D ADD MSTORE PUSH1 0x0 PUSH2 0x379 ADD MSTORE PUSH1 0x0 PUSH2 0x460 ADD MSTORE PUSH1 0x0 DUP2 DUP2 PUSH2 0x217 ADD MSTORE DUP2 DUP2 PUSH2 0x836 ADD MSTORE PUSH2 0xF4B ADD MSTORE PUSH1 0x0 DUP2 DUP2 PUSH2 0x52C ADD MSTORE PUSH2 0x1122 ADD MSTORE PUSH1 0x0 DUP2 DUP2 PUSH2 0x4F2 ADD MSTORE DUP2 DUP2 PUSH2 0x59B ADD MSTORE DUP2 DUP2 PUSH2 0x10BE ADD MSTORE PUSH2 0x10E9 ADD MSTORE PUSH1 0x0 DUP2 DUP2 PUSH2 0x553 ADD MSTORE DUP2 DUP2 PUSH2 0xC5E ADD MSTORE DUP2 DUP2 PUSH2 0xDCF ADD MSTORE DUP2 DUP2 PUSH2 0xEAB ADD MSTORE PUSH2 0x1038 ADD MSTORE PUSH2 0x1DBB PUSH1 0x0 RETURN INVALID PUSH1 0x80 PUSH1 0x40 MSTORE CALLVALUE DUP1 ISZERO PUSH2 0x10 JUMPI PUSH1 0x0 DUP1 REVERT JUMPDEST POP PUSH1 0x4 CALLDATASIZE LT PUSH2 0x1DA JUMPI PUSH1 0x0 CALLDATALOAD PUSH1 0xE0 SHR DUP1 PUSH4 0x9342C8F4 GT PUSH2 0x104 JUMPI DUP1 PUSH4 0xCD671A58 GT PUSH2 0xA2 JUMPI DUP1 PUSH4 0xEE3453ED GT PUSH2 0x71 JUMPI DUP1 PUSH4 0xEE3453ED EQ PUSH2 0x514 JUMPI DUP1 PUSH4 0xF6DEF7CF EQ PUSH2 0x527 JUMPI DUP1 PUSH4 0xF7C618C1 EQ PUSH2 0x54E JUMPI DUP1 PUSH4 0xFDC5AB8E EQ PUSH2 0x575 JUMPI PUSH1 0x0 DUP1 REVERT JUMPDEST DUP1 PUSH4 0xCD671A58 EQ PUSH2 0x482 JUMPI DUP1 PUSH4 0xD06FCBA8 EQ PUSH2 0x49F JUMPI DUP1 PUSH4 0xD21220A7 EQ PUSH2 0x4C6 JUMPI DUP1 PUSH4 0xE11400BB EQ PUSH2 0x4ED JUMPI PUSH1 0x0 DUP1 REVERT JUMPDEST DUP1 PUSH4 0xA47BD496 GT PUSH2 0xDE JUMPI DUP1 PUSH4 0xA47BD496 EQ PUSH2 0x42D JUMPI DUP1 PUSH4 0xB88A802F EQ PUSH2 0x440 JUMPI DUP1 PUSH4 0xBB57852D EQ PUSH2 0x448 JUMPI DUP1 PUSH4 0xC75363B6 EQ PUSH2 0x45B JUMPI PUSH1 0x0 DUP1 REVERT JUMPDEST DUP1 PUSH4 0x9342C8F4 EQ PUSH2 0x3F4 JUMPI DUP1 PUSH4 0x979DB1C4 EQ PUSH2 0x407 JUMPI DUP1 PUSH4 0x983D95CE EQ PUSH2 0x41A JUMPI PUSH1 0x0 DUP1 REVERT JUMPDEST DUP1 PUSH4 0x291C73C3 GT PUSH2 0x17C JUMPI DUP1 PUSH4 0x4FB2E45D GT PUSH2 0x14B JUMPI DUP1 PUSH4 0x4FB2E45D EQ PUSH2 0x39B JUMPI DUP1 PUSH4 0x5B680A45 EQ PUSH2 0x3AE JUMPI DUP1 PUSH4 0x5F8E422F EQ PUSH2 0x3D9 JUMPI DUP1 PUSH4 0x8DA5CB5B EQ PUSH2 0x3E1 JUMPI PUSH1 0x0 DUP1 REVERT JUMPDEST DUP1 PUSH4 0x291C73C3 EQ PUSH2 0x345 JUMPI DUP1 PUSH4 0x29ED1CFD EQ PUSH2 0x358 JUMPI DUP1 PUSH4 0x2E1A7D4D EQ PUSH2 0x361 JUMPI DUP1 PUSH4 0x37BA682D EQ PUSH2 0x374 JUMPI PUSH1 0x0 DUP1 REVERT JUMPDEST DUP1 PUSH4 0x10087FB1 GT PUSH2 0x1B8 JUMPI DUP1 PUSH4 0x10087FB1 EQ PUSH2 0x28A JUMPI DUP1 PUSH4 0x10C6C1C2 EQ PUSH2 0x29F JUMPI DUP1 PUSH4 0x157775DF EQ PUSH2 0x308 JUMPI DUP1 PUSH4 0x19596282 EQ PUSH2 0x328 JUMPI PUSH1 0x0 DUP1 REVERT JUMPDEST DUP1 PUSH4 0xBCE1284 EQ PUSH2 0x1DF JUMPI DUP1 PUSH4 0xD437D40 EQ PUSH2 0x212 JUMPI DUP1 PUSH4 0xDFE1681 EQ PUSH2 0x24B JUMPI JUMPDEST PUSH1 0x0 DUP1 REVERT JUMPDEST PUSH2 0x1FF PUSH2 0x1ED CALLDATASIZE PUSH1 0x4 PUSH2 0x182D JUMP JUMPDEST PUSH1 0x5 PUSH1 0x20 MSTORE PUSH1 0x0 SWAP1 DUP2 MSTORE PUSH1 0x40 SWAP1 KECCAK256 SLOAD DUP2 JUMP JUMPDEST PUSH1 0x40 MLOAD SWAP1 DUP2 MSTORE PUSH1 0x20 ADD JUMPDEST PUSH1 0x40 MLOAD DUP1 SWAP2 SUB SWAP1 RETURN JUMPDEST PUSH2 0x239 PUSH32 0x0 DUP2 JUMP JUMPDEST PUSH1 0x40 MLOAD PUSH1 0xFF SWAP1 SWAP2 AND DUP2 MSTORE PUSH1 0x20 ADD PUSH2 0x209 JUMP JUMPDEST PUSH2 0x272 PUSH32 0x0 DUP2 JUMP JUMPDEST PUSH1 0x40 MLOAD PUSH1 0x1 PUSH1 0x1 PUSH1 0xA0 SHL SUB SWAP1 SWAP2 AND DUP2 MSTORE PUSH1 0x20 ADD PUSH2 0x209 JUMP JUMPDEST PUSH2 0x29D PUSH2 0x298 CALLDATASIZE PUSH1 0x4 PUSH2 0x1846 JUMP JUMPDEST PUSH2 0x58B JUMP JUMPDEST STOP JUMPDEST PUSH2 0x2DE PUSH2 0x2AD CALLDATASIZE PUSH1 0x4 PUSH2 0x182D JUMP JUMPDEST PUSH1 0x7 PUSH1 0x20 MSTORE PUSH1 0x0 SWAP1 DUP2 MSTORE PUSH1 0x40 SWAP1 KECCAK256 DUP1 SLOAD PUSH1 0x1 DUP3 ADD SLOAD PUSH1 0x2 DUP4 ADD SLOAD PUSH1 0x3 SWAP1 SWAP4 ADD SLOAD PUSH1 0x1 PUSH1 0x1 PUSH1 0xA0 SHL SUB SWAP1 SWAP3 AND SWAP3 SWAP1 SWAP2 DUP5 JUMP JUMPDEST PUSH1 0x40 DUP1 MLOAD PUSH1 0x1 PUSH1 0x1 PUSH1 0xA0 SHL SUB SWAP1 SWAP6 AND DUP6 MSTORE PUSH1 0x20 DUP6 ADD SWAP4 SWAP1 SWAP4 MSTORE SWAP2 DUP4 ADD MSTORE PUSH1 0x60 DUP3 ADD MSTORE PUSH1 0x80 ADD PUSH2 0x209 JUMP JUMPDEST PUSH2 0x1FF PUSH2 0x316 CALLDATASIZE PUSH1 0x4 PUSH2 0x182D JUMP JUMPDEST PUSH1 0x4 PUSH1 0x20 MSTORE PUSH1 0x0 SWAP1 DUP2 MSTORE PUSH1 0x40 SWAP1 KECCAK256 SLOAD DUP2 JUMP JUMPDEST PUSH2 0x330 PUSH2 0x82E JUMP JUMPDEST PUSH1 0x40 DUP1 MLOAD SWAP3 DUP4 MSTORE PUSH1 0x20 DUP4 ADD SWAP2 SWAP1 SWAP2 MSTORE ADD PUSH2 0x209 JUMP JUMPDEST PUSH2 0x1FF PUSH2 0x353 CALLDATASIZE PUSH1 0x4 PUSH2 0x1891 JUMP JUMPDEST PUSH2 0x921 JUMP JUMPDEST PUSH2 0x1FF PUSH1 0x6 SLOAD DUP2 JUMP JUMPDEST PUSH2 0x29D PUSH2 0x36F CALLDATASIZE PUSH1 0x4 PUSH2 0x182D JUMP JUMPDEST PUSH2 0x952 JUMP JUMPDEST PUSH2 0x1FF PUSH32 0x0 DUP2 JUMP JUMPDEST PUSH2 0x29D PUSH2 0x3A9 CALLDATASIZE PUSH1 0x4 PUSH2 0x18BD JUMP JUMPDEST PUSH2 0xB92 JUMP JUMPDEST PUSH2 0x1FF PUSH2 0x3BC CALLDATASIZE PUSH1 0x4 PUSH2 0x1891 JUMP JUMPDEST PUSH1 0x2 PUSH1 0x20 SWAP1 DUP2 MSTORE PUSH1 0x0 SWAP3 DUP4 MSTORE PUSH1 0x40 DUP1 DUP5 KECCAK256 SWAP1 SWAP2 MSTORE SWAP1 DUP3 MSTORE SWAP1 KECCAK256 SLOAD DUP2 JUMP JUMPDEST PUSH2 0x29D PUSH2 0xBDE JUMP JUMPDEST PUSH1 0x0 SLOAD PUSH2 0x272 SWAP1 PUSH1 0x1 PUSH1 0x1 PUSH1 0xA0 SHL SUB AND DUP2 JUMP JUMPDEST PUSH2 0x29D PUSH2 0x402 CALLDATASIZE PUSH1 0x4 PUSH2 0x182D JUMP JUMPDEST PUSH2 0xC2F JUMP JUMPDEST PUSH2 0x1FF PUSH2 0x415 CALLDATASIZE PUSH1 0x4 PUSH2 0x198B JUMP JUMPDEST PUSH2 0xC87 JUMP JUMPDEST PUSH2 0x29D PUSH2 0x428 CALLDATASIZE PUSH1 0x4 PUSH2 0x19EF JUMP JUMPDEST PUSH2 0xE38 JUMP JUMPDEST PUSH2 0x29D PUSH2 0x43B CALLDATASIZE PUSH1 0x4 PUSH2 0x1A2C JUMP JUMPDEST PUSH2 0xE7C JUMP JUMPDEST PUSH2 0x29D PUSH2 0xF45 JUMP JUMPDEST PUSH2 0x1FF PUSH2 0x456 CALLDATASIZE PUSH1 0x4 PUSH2 0x1891 JUMP JUMPDEST PUSH2 0x1090 JUMP JUMPDEST PUSH2 0x1FF PUSH32 0x0 DUP2 JUMP JUMPDEST PUSH2 0x48B PUSH2 0x258 DUP2 JUMP JUMPDEST PUSH1 0x40 MLOAD PUSH3 0xFFFFFF SWAP1 SWAP2 AND DUP2 MSTORE PUSH1 0x20 ADD PUSH2 0x209 JUMP JUMPDEST PUSH2 0x272 PUSH32 0x0 DUP2 JUMP JUMPDEST PUSH2 0x272 PUSH32 0x0 DUP2 JUMP JUMPDEST PUSH2 0x239 PUSH32 0x0 DUP2 JUMP JUMPDEST PUSH2 0x1FF PUSH2 0x522 CALLDATASIZE PUSH1 0x4 PUSH2 0x1846 JUMP JUMPDEST PUSH2 0x10B5 JUMP JUMPDEST PUSH2 0x1FF PUSH32 0x0 DUP2 JUMP JUMPDEST PUSH2 0x272 PUSH32 0x0 DUP2 JUMP JUMPDEST PUSH2 0x57D PUSH2 0x117F JUMP JUMPDEST PUSH1 0x40 MLOAD PUSH2 0x209 SWAP3 SWAP2 SWAP1 PUSH2 0x1A4E JUMP JUMPDEST PUSH1 0x0 DUP2 PUSH1 0xFF AND GT DUP1 ISZERO PUSH2 0x5C4 JUMPI POP PUSH32 0x0 PUSH1 0xFF AND DUP2 PUSH1 0xFF AND GT ISZERO JUMPDEST PUSH2 0x609 JUMPI PUSH1 0x40 MLOAD PUSH3 0x461BCD PUSH1 0xE5 SHL DUP2 MSTORE PUSH1 0x20 PUSH1 0x4 DUP3 ADD MSTORE PUSH1 0x11 PUSH1 0x24 DUP3 ADD MSTORE PUSH17 0x39BA30B5B2903BB2B2B5B99032B93937B9 PUSH1 0x79 SHL PUSH1 0x44 DUP3 ADD MSTORE PUSH1 0x64 ADD JUMPDEST PUSH1 0x40 MLOAD DUP1 SWAP2 SUB SWAP1 REVERT JUMPDEST PUSH1 0x0 PUSH2 0x614 DUP4 PUSH2 0x12DD JUMP JUMPDEST SWAP1 POP PUSH1 0x0 PUSH2 0x624 PUSH2 0x258 TIMESTAMP PUSH2 0x1AAC JUMP JUMPDEST PUSH2 0x62F SWAP1 PUSH1 0x1 PUSH2 0x1ACE JUMP JUMPDEST SWAP1 POP PUSH1 0x0 PUSH2 0x63D DUP4 DUP6 PUSH2 0x10B5 JUMP JUMPDEST SWAP1 POP PUSH1 0x0 JUMPDEST DUP5 PUSH1 0xFF AND DUP2 PUSH1 0xFF AND LT ISZERO PUSH2 0x6D7 JUMPI DUP2 PUSH1 0x4 PUSH1 0x0 PUSH2 0x662 PUSH1 0xFF DUP6 AND DUP8 PUSH2 0x1ACE JUMP JUMPDEST DUP2 MSTORE PUSH1 0x20 ADD SWAP1 DUP2 MSTORE PUSH1 0x20 ADD PUSH1 0x0 KECCAK256 PUSH1 0x0 DUP3 DUP3 SLOAD PUSH2 0x67F SWAP2 SWAP1 PUSH2 0x1ACE JUMP JUMPDEST SWAP1 SWAP2 SSTORE POP POP CALLER PUSH1 0x0 SWAP1 DUP2 MSTORE PUSH1 0x2 PUSH1 0x20 MSTORE PUSH1 0x40 DUP2 KECCAK256 DUP4 SWAP2 PUSH2 0x6A2 PUSH1 0xFF DUP6 AND DUP8 PUSH2 0x1ACE JUMP JUMPDEST DUP2 MSTORE PUSH1 0x20 ADD SWAP1 DUP2 MSTORE PUSH1 0x20 ADD PUSH1 0x0 KECCAK256 PUSH1 0x0 DUP3 DUP3 SLOAD PUSH2 0x6BF SWAP2 SWAP1 PUSH2 0x1ACE JUMP JUMPDEST SWAP1 SWAP2 SSTORE POP DUP2 SWAP1 POP PUSH2 0x6CF DUP2 PUSH2 0x1AE7 JUMP JUMPDEST SWAP2 POP POP PUSH2 0x642 JUMP JUMPDEST POP PUSH1 0x40 DUP1 MLOAD PUSH1 0x80 DUP2 ADD DUP3 MSTORE CALLER DUP2 MSTORE PUSH1 0x20 DUP2 ADD DUP4 SWAP1 MSTORE SWAP1 DUP2 ADD DUP4 SWAP1 MSTORE PUSH1 0x60 DUP2 ADD PUSH2 0x703 PUSH1 0xFF DUP8 AND DUP6 PUSH2 0x1ACE JUMP JUMPDEST SWAP1 MSTORE PUSH1 0x0 DUP7 DUP2 MSTORE PUSH1 0x7 PUSH1 0x20 SWAP1 DUP2 MSTORE PUSH1 0x40 DUP1 DUP4 KECCAK256 DUP5 MLOAD DUP2 SLOAD PUSH1 0x1 PUSH1 0x1 PUSH1 0xA0 SHL SUB NOT AND PUSH1 0x1 PUSH1 0x1 PUSH1 0xA0 SHL SUB SWAP1 SWAP2 AND OR DUP2 SSTORE DUP5 DUP4 ADD MLOAD PUSH1 0x1 DUP1 DUP4 ADD SWAP2 SWAP1 SWAP2 SSTORE DUP6 DUP4 ADD MLOAD PUSH1 0x2 DUP4 ADD SSTORE PUSH1 0x60 SWAP1 SWAP6 ADD MLOAD PUSH1 0x3 SWAP2 DUP3 ADD SSTORE CALLER DUP5 MSTORE SWAP1 SWAP2 MSTORE SWAP1 KECCAK256 SWAP1 DUP2 ADD SLOAD SWAP1 SLOAD SUB PUSH2 0x77A JUMPI CALLER PUSH1 0x0 SWAP1 DUP2 MSTORE PUSH1 0x3 PUSH1 0x20 MSTORE PUSH1 0x40 SWAP1 KECCAK256 DUP3 SWAP1 SSTORE JUMPDEST PUSH2 0x787 PUSH1 0xFF DUP6 AND DUP4 PUSH2 0x1ACE JUMP JUMPDEST CALLER PUSH1 0x0 SWAP1 DUP2 MSTORE PUSH1 0x3 PUSH1 0x20 MSTORE PUSH1 0x40 SWAP1 KECCAK256 PUSH1 0x1 ADD SLOAD LT ISZERO PUSH2 0x7C1 JUMPI PUSH2 0x7AD PUSH1 0xFF DUP6 AND DUP4 PUSH2 0x1ACE JUMP JUMPDEST CALLER PUSH1 0x0 SWAP1 DUP2 MSTORE PUSH1 0x3 PUSH1 0x20 MSTORE PUSH1 0x40 SWAP1 KECCAK256 PUSH1 0x1 ADD SSTORE JUMPDEST CALLER PUSH1 0x0 DUP2 DUP2 MSTORE PUSH1 0x8 PUSH1 0x20 SWAP1 DUP2 MSTORE PUSH1 0x40 DUP1 DUP4 KECCAK256 DUP1 SLOAD PUSH1 0x1 DUP2 ADD DUP3 SSTORE SWAP1 DUP5 MSTORE SWAP3 DUP3 SWAP1 KECCAK256 SWAP1 SWAP3 ADD DUP9 SWAP1 SSTORE DUP2 MLOAD DUP9 DUP2 MSTORE SWAP1 DUP2 ADD DUP7 SWAP1 MSTORE PUSH1 0xFF DUP8 AND DUP2 DUP4 ADD MSTORE SWAP1 MLOAD PUSH32 0x6FA2F6021EE337436CDF2B2570285886DA18BC06402CE284D296504A0FE8F875 SWAP2 DUP2 SWAP1 SUB PUSH1 0x60 ADD SWAP1 LOG2 POP POP POP POP POP JUMP JUMPDEST PUSH1 0x0 DUP1 DUP1 PUSH1 0xFF PUSH32 0x0 AND PUSH2 0x862 PUSH2 0x258 TIMESTAMP PUSH2 0x1AAC JUMP JUMPDEST PUSH2 0x86C SWAP2 SWAP1 PUSH2 0x1B1C JUMP JUMPDEST CALLER PUSH1 0x0 SWAP1 DUP2 MSTORE PUSH1 0x3 PUSH1 0x20 MSTORE PUSH1 0x40 DUP2 KECCAK256 SLOAD SWAP2 SWAP3 POP SWAP1 DUP2 SWAP1 JUMPDEST CALLER PUSH1 0x0 SWAP1 DUP2 MSTORE PUSH1 0x3 PUSH1 0x20 MSTORE PUSH1 0x40 SWAP1 KECCAK256 PUSH1 0x1 ADD SLOAD DUP2 LT ISZERO PUSH2 0x916 JUMPI PUSH1 0x0 DUP2 DUP2 MSTORE PUSH1 0x4 PUSH1 0x20 SWAP1 DUP2 MSTORE PUSH1 0x40 DUP1 DUP4 KECCAK256 SLOAD CALLER DUP5 MSTORE PUSH1 0x2 DUP4 MSTORE DUP2 DUP5 KECCAK256 DUP6 DUP6 MSTORE DUP4 MSTORE DUP2 DUP5 KECCAK256 SLOAD PUSH1 0x5 SWAP1 SWAP4 MSTORE SWAP1 DUP4 KECCAK256 SLOAD SWAP1 SWAP2 PUSH2 0x8D6 SWAP2 PUSH2 0x1B2F JUMP JUMPDEST PUSH2 0x8E0 SWAP2 SWAP1 PUSH2 0x1AAC JUMP JUMPDEST SWAP1 POP DUP5 DUP3 GT PUSH2 0x8F6 JUMPI PUSH2 0x8F3 DUP2 DUP5 PUSH2 0x1ACE JUMP JUMPDEST SWAP3 POP JUMPDEST PUSH2 0x900 DUP2 DUP6 PUSH2 0x1ACE JUMP JUMPDEST SWAP4 POP POP DUP1 DUP1 PUSH2 0x90E SWAP1 PUSH2 0x1B46 JUMP JUMPDEST SWAP2 POP POP PUSH2 0x883 JUMP JUMPDEST POP SWAP1 SWAP5 SWAP1 SWAP4 POP SWAP2 POP POP JUMP JUMPDEST PUSH1 0x8 PUSH1 0x20 MSTORE DUP2 PUSH1 0x0 MSTORE PUSH1 0x40 PUSH1 0x0 KECCAK256 DUP2 DUP2 SLOAD DUP2 LT PUSH2 0x93D JUMPI PUSH1 0x0 DUP1 REVERT JUMPDEST SWAP1 PUSH1 0x0 MSTORE PUSH1 0x20 PUSH1 0x0 KECCAK256 ADD PUSH1 0x0 SWAP2 POP SWAP2 POP POP SLOAD DUP2 JUMP JUMPDEST PUSH1 0x0 DUP2 DUP2 MSTORE PUSH1 0x7 PUSH1 0x20 MSTORE PUSH1 0x40 SWAP1 KECCAK256 SLOAD PUSH1 0x1 PUSH1 0x1 PUSH1 0xA0 SHL SUB AND CALLER EQ PUSH2 0x9AA JUMPI PUSH1 0x40 MLOAD PUSH3 0x461BCD PUSH1 0xE5 SHL DUP2 MSTORE PUSH1 0x20 PUSH1 0x4 DUP3 ADD MSTORE PUSH1 0xF PUSH1 0x24 DUP3 ADD MSTORE PUSH15 0x37BBB732B9103337B93134B23232B7 PUSH1 0x89 SHL PUSH1 0x44 DUP3 ADD MSTORE PUSH1 0x64 ADD PUSH2 0x600 JUMP JUMPDEST PUSH1 0x0 PUSH2 0x9B8 PUSH2 0x258 TIMESTAMP PUSH2 0x1AAC JUMP JUMPDEST PUSH1 0x0 DUP4 DUP2 MSTORE PUSH1 0x7 PUSH1 0x20 MSTORE PUSH1 0x40 SWAP1 KECCAK256 PUSH1 0x3 ADD SLOAD SWAP1 SWAP2 POP DUP2 LT ISZERO PUSH2 0xA0A JUMPI PUSH1 0x40 MLOAD PUSH3 0x461BCD PUSH1 0xE5 SHL DUP2 MSTORE PUSH1 0x20 PUSH1 0x4 DUP3 ADD MSTORE PUSH1 0xB PUSH1 0x24 DUP3 ADD MSTORE PUSH11 0x6C6F636B65642074696D65 PUSH1 0xA8 SHL PUSH1 0x44 DUP3 ADD MSTORE PUSH1 0x64 ADD PUSH2 0x600 JUMP JUMPDEST CALLER PUSH1 0x0 SWAP1 DUP2 MSTORE PUSH1 0x8 PUSH1 0x20 MSTORE PUSH1 0x40 DUP2 KECCAK256 SWAP1 JUMPDEST DUP2 SLOAD DUP2 LT ISZERO PUSH2 0xB57 JUMPI DUP2 DUP2 DUP2 SLOAD DUP2 LT PUSH2 0xA36 JUMPI PUSH2 0xA36 PUSH2 0x1B06 JUMP JUMPDEST SWAP1 PUSH1 0x0 MSTORE PUSH1 0x20 PUSH1 0x0 KECCAK256 ADD SLOAD DUP5 SUB PUSH2 0xB45 JUMPI DUP2 SLOAD DUP3 SWAP1 PUSH2 0xA57 SWAP1 PUSH1 0x1 SWAP1 PUSH2 0x1B1C JUMP JUMPDEST DUP2 SLOAD DUP2 LT PUSH2 0xA67 JUMPI PUSH2 0xA67 PUSH2 0x1B06 JUMP JUMPDEST SWAP1 PUSH1 0x0 MSTORE PUSH1 0x20 PUSH1 0x0 KECCAK256 ADD SLOAD DUP3 DUP3 DUP2 SLOAD DUP2 LT PUSH2 0xA84 JUMPI PUSH2 0xA84 PUSH2 0x1B06 JUMP JUMPDEST SWAP1 PUSH1 0x0 MSTORE PUSH1 0x20 PUSH1 0x0 KECCAK256 ADD DUP2 SWAP1 SSTORE POP DUP2 DUP1 SLOAD DUP1 PUSH2 0xAA2 JUMPI PUSH2 0xAA2 PUSH2 0x1B5F JUMP JUMPDEST PUSH1 0x0 DUP3 DUP2 MSTORE PUSH1 0x20 DUP2 KECCAK256 DUP3 ADD PUSH1 0x0 NOT SWAP1 DUP2 ADD SWAP2 SWAP1 SWAP2 SSTORE ADD SWAP1 SSTORE PUSH1 0x40 MLOAD PUSH4 0x21421707 PUSH1 0xE1 SHL DUP2 MSTORE ADDRESS PUSH1 0x4 DUP3 ADD MSTORE CALLER PUSH1 0x24 DUP3 ADD MSTORE PUSH1 0x44 DUP2 ADD DUP6 SWAP1 MSTORE PUSH1 0x1 PUSH1 0x1 PUSH1 0xA0 SHL SUB PUSH32 0x0 AND SWAP1 PUSH4 0x42842E0E SWAP1 PUSH1 0x64 ADD PUSH1 0x0 PUSH1 0x40 MLOAD DUP1 DUP4 SUB DUP2 PUSH1 0x0 DUP8 DUP1 EXTCODESIZE ISZERO DUP1 ISZERO PUSH2 0xB28 JUMPI PUSH1 0x0 DUP1 REVERT JUMPDEST POP GAS CALL ISZERO DUP1 ISZERO PUSH2 0xB3C JUMPI RETURNDATASIZE PUSH1 0x0 DUP1 RETURNDATACOPY RETURNDATASIZE PUSH1 0x0 REVERT JUMPDEST POP POP POP POP PUSH2 0xB57 JUMP JUMPDEST DUP1 PUSH2 0xB4F DUP2 PUSH2 0x1B46 JUMP JUMPDEST SWAP2 POP POP PUSH2 0xA1B JUMP JUMPDEST POP PUSH1 0x40 MLOAD DUP4 DUP2 MSTORE CALLER SWAP1 PUSH32 0x884EDAD9CE6FA2440D8A54CC123490EB96D2768479D49FF9C7366125A9424364 SWAP1 PUSH1 0x20 ADD PUSH1 0x40 MLOAD DUP1 SWAP2 SUB SWAP1 LOG2 POP POP POP JUMP JUMPDEST PUSH1 0x0 SLOAD PUSH1 0x1 PUSH1 0x1 PUSH1 0xA0 SHL SUB AND CALLER EQ PUSH2 0xBBC JUMPI PUSH1 0x40 MLOAD PUSH3 0x461BCD PUSH1 0xE5 SHL DUP2 MSTORE PUSH1 0x4 ADD PUSH2 0x600 SWAP1 PUSH2 0x1B75 JUMP JUMPDEST PUSH1 0x1 DUP1 SLOAD PUSH1 0x1 PUSH1 0x1 PUSH1 0xA0 SHL SUB NOT AND PUSH1 0x1 PUSH1 0x1 PUSH1 0xA0 SHL SUB SWAP3 SWAP1 SWAP3 AND SWAP2 SWAP1 SWAP2 OR SWAP1 SSTORE JUMP JUMPDEST PUSH1 0x1 SLOAD PUSH1 0x1 PUSH1 0x1 PUSH1 0xA0 SHL SUB AND CALLER EQ PUSH2 0xC08 JUMPI PUSH1 0x40 MLOAD PUSH3 0x461BCD PUSH1 0xE5 SHL DUP2 MSTORE PUSH1 0x4 ADD PUSH2 0x600 SWAP1 PUSH2 0x1B75 JUMP JUMPDEST PUSH1 0x1 DUP1 SLOAD PUSH1 0x0 DUP1 SLOAD PUSH1 0x1 PUSH1 0x1 PUSH1 0xA0 SHL SUB NOT SWAP1 DUP2 AND PUSH1 0x1 PUSH1 0x1 PUSH1 0xA0 SHL SUB DUP5 AND OR SWAP1 SWAP2 SSTORE AND SWAP1 SSTORE JUMP JUMPDEST PUSH1 0x0 SLOAD PUSH1 0x1 PUSH1 0x1 PUSH1 0xA0 SHL SUB AND CALLER EQ PUSH2 0xC59 JUMPI PUSH1 0x40 MLOAD PUSH3 0x461BCD PUSH1 0xE5 SHL DUP2 MSTORE PUSH1 0x4 ADD PUSH2 0x600 SWAP1 PUSH2 0x1B75 JUMP JUMPDEST PUSH2 0xC84 PUSH32 0x0 CALLER DUP4 PUSH2 0x1606 JUMP JUMPDEST POP JUMP JUMPDEST PUSH1 0x0 DUP1 SLOAD PUSH1 0x1 PUSH1 0x1 PUSH1 0xA0 SHL SUB AND CALLER EQ PUSH2 0xCB2 JUMPI PUSH1 0x40 MLOAD PUSH3 0x461BCD PUSH1 0xE5 SHL DUP2 MSTORE PUSH1 0x4 ADD PUSH2 0x600 SWAP1 PUSH2 0x1B75 JUMP JUMPDEST DUP2 MLOAD DUP4 MLOAD EQ PUSH2 0xCF6 JUMPI PUSH1 0x40 MLOAD PUSH3 0x461BCD PUSH1 0xE5 SHL DUP2 MSTORE PUSH1 0x20 PUSH1 0x4 DUP3 ADD MSTORE PUSH1 0x10 PUSH1 0x24 DUP3 ADD MSTORE PUSH16 0x3830B930B6B2BA32B9399032B93937B9 PUSH1 0x81 SHL PUSH1 0x44 DUP3 ADD MSTORE PUSH1 0x64 ADD PUSH2 0x600 JUMP JUMPDEST PUSH1 0x0 JUMPDEST DUP4 MLOAD DUP2 LT ISZERO PUSH2 0xDC9 JUMPI DUP3 DUP2 DUP2 MLOAD DUP2 LT PUSH2 0xD14 JUMPI PUSH2 0xD14 PUSH2 0x1B06 JUMP JUMPDEST PUSH1 0x20 MUL PUSH1 0x20 ADD ADD MLOAD DUP3 PUSH2 0xD27 SWAP2 SWAP1 PUSH2 0x1ACE JUMP JUMPDEST SWAP2 POP DUP3 DUP2 DUP2 MLOAD DUP2 LT PUSH2 0xD3B JUMPI PUSH2 0xD3B PUSH2 0x1B06 JUMP JUMPDEST PUSH1 0x20 MUL PUSH1 0x20 ADD ADD MLOAD PUSH1 0x5 PUSH1 0x0 DUP7 DUP5 DUP2 MLOAD DUP2 LT PUSH2 0xD59 JUMPI PUSH2 0xD59 PUSH2 0x1B06 JUMP JUMPDEST PUSH1 0x20 MUL PUSH1 0x20 ADD ADD MLOAD DUP2 MSTORE PUSH1 0x20 ADD SWAP1 DUP2 MSTORE PUSH1 0x20 ADD PUSH1 0x0 KECCAK256 DUP2 SWAP1 SSTORE POP PUSH1 0x6 SLOAD DUP5 DUP3 DUP2 MLOAD DUP2 LT PUSH2 0xD88 JUMPI PUSH2 0xD88 PUSH2 0x1B06 JUMP JUMPDEST PUSH1 0x20 MUL PUSH1 0x20 ADD ADD MLOAD GT ISZERO PUSH2 0xDB7 JUMPI DUP4 DUP2 DUP2 MLOAD DUP2 LT PUSH2 0xDA8 JUMPI PUSH2 0xDA8 PUSH2 0x1B06 JUMP JUMPDEST PUSH1 0x20 MUL PUSH1 0x20 ADD ADD MLOAD PUSH1 0x6 DUP2 SWAP1 SSTORE POP JUMPDEST DUP1 PUSH2 0xDC1 DUP2 PUSH2 0x1B46 JUMP JUMPDEST SWAP2 POP POP PUSH2 0xCF9 JUMP JUMPDEST POP PUSH2 0xDF6 PUSH32 0x0 CALLER ADDRESS DUP5 PUSH2 0x1713 JUMP JUMPDEST PUSH1 0x40 DUP1 MLOAD PUSH1 0x0 DUP2 MSTORE PUSH1 0x20 DUP2 ADD DUP4 SWAP1 MSTORE CALLER SWAP2 PUSH32 0xC3991418CACD70A010FCE559A44FCBB47534CA43BF7543964BDCA2639F6E6E5A SWAP2 ADD PUSH1 0x40 MLOAD DUP1 SWAP2 SUB SWAP1 LOG2 SWAP3 SWAP2 POP POP JUMP JUMPDEST PUSH1 0x0 JUMPDEST DUP2 MLOAD DUP2 LT ISZERO PUSH2 0xE78 JUMPI PUSH2 0xE66 DUP3 DUP3 DUP2 MLOAD DUP2 LT PUSH2 0xE59 JUMPI PUSH2 0xE59 PUSH2 0x1B06 JUMP JUMPDEST PUSH1 0x20 MUL PUSH1 0x20 ADD ADD MLOAD PUSH2 0x952 JUMP JUMPDEST DUP1 PUSH2 0xE70 DUP2 PUSH2 0x1B46 JUMP JUMPDEST SWAP2 POP POP PUSH2 0xE3B JUMP JUMPDEST POP POP JUMP JUMPDEST PUSH1 0x0 SLOAD PUSH1 0x1 PUSH1 0x1 PUSH1 0xA0 SHL SUB AND CALLER EQ PUSH2 0xEA6 JUMPI PUSH1 0x40 MLOAD PUSH3 0x461BCD PUSH1 0xE5 SHL DUP2 MSTORE PUSH1 0x4 ADD PUSH2 0x600 SWAP1 PUSH2 0x1B75 JUMP JUMPDEST PUSH2 0xED2 PUSH32 0x0 CALLER ADDRESS DUP5 PUSH2 0x1713 JUMP JUMPDEST PUSH1 0x0 DUP3 DUP2 MSTORE PUSH1 0x5 PUSH1 0x20 MSTORE PUSH1 0x40 DUP2 KECCAK256 DUP1 SLOAD DUP4 SWAP3 SWAP1 PUSH2 0xEF0 SWAP1 DUP5 SWAP1 PUSH2 0x1ACE JUMP JUMPDEST SWAP1 SWAP2 SSTORE POP POP PUSH1 0x6 SLOAD DUP3 GT ISZERO PUSH2 0xF05 JUMPI PUSH1 0x6 DUP3 SWAP1 SSTORE JUMPDEST PUSH1 0x40 DUP1 MLOAD DUP4 DUP2 MSTORE PUSH1 0x20 DUP2 ADD DUP4 SWAP1 MSTORE CALLER SWAP2 PUSH32 0xC3991418CACD70A010FCE559A44FCBB47534CA43BF7543964BDCA2639F6E6E5A SWAP2 ADD JUMPDEST PUSH1 0x40 MLOAD DUP1 SWAP2 SUB SWAP1 LOG2 POP POP JUMP JUMPDEST PUSH1 0x0 PUSH1 0xFF PUSH32 0x0 AND PUSH2 0xF77 PUSH2 0x258 TIMESTAMP PUSH2 0x1AAC JUMP JUMPDEST PUSH2 0xF81 SWAP2 SWAP1 PUSH2 0x1B1C JUMP JUMPDEST CALLER PUSH1 0x0 SWAP1 DUP2 MSTORE PUSH1 0x3 PUSH1 0x20 MSTORE PUSH1 0x40 DUP2 KECCAK256 SLOAD SWAP2 SWAP3 POP SWAP1 JUMPDEST CALLER PUSH1 0x0 SWAP1 DUP2 MSTORE PUSH1 0x3 PUSH1 0x20 MSTORE PUSH1 0x40 SWAP1 KECCAK256 PUSH1 0x1 ADD SLOAD DUP2 LT ISZERO PUSH2 0x1032 JUMPI DUP3 DUP2 GT PUSH2 0x1032 JUMPI PUSH2 0xFC2 DUP2 PUSH1 0x1 PUSH2 0x1ACE JUMP JUMPDEST CALLER PUSH1 0x0 SWAP1 DUP2 MSTORE PUSH1 0x3 PUSH1 0x20 MSTORE PUSH1 0x40 DUP2 KECCAK256 ADD SSTORE PUSH1 0x0 DUP2 DUP2 MSTORE PUSH1 0x4 PUSH1 0x20 SWAP1 DUP2 MSTORE PUSH1 0x40 DUP1 DUP4 KECCAK256 SLOAD CALLER DUP5 MSTORE PUSH1 0x2 DUP4 MSTORE DUP2 DUP5 KECCAK256 DUP6 DUP6 MSTORE DUP4 MSTORE DUP2 DUP5 KECCAK256 SLOAD PUSH1 0x5 SWAP1 SWAP4 MSTORE SWAP3 KECCAK256 SLOAD PUSH2 0x100A SWAP2 SWAP1 PUSH2 0x1B2F JUMP JUMPDEST PUSH2 0x1014 SWAP2 SWAP1 PUSH2 0x1AAC JUMP JUMPDEST PUSH2 0x101E SWAP1 DUP4 PUSH2 0x1ACE JUMP JUMPDEST SWAP2 POP DUP1 PUSH2 0x102A DUP2 PUSH2 0x1B46 JUMP JUMPDEST SWAP2 POP POP PUSH2 0xF96 JUMP JUMPDEST POP PUSH2 0x105E PUSH32 0x0 CALLER DUP4 PUSH2 0x1606 JUMP JUMPDEST PUSH1 0x40 MLOAD DUP2 DUP2 MSTORE CALLER SWAP1 PUSH32 0xBA8DE60C3403EC381D1D484652EA1980E3C3E56359195C92525BFF4CE47AD98E SWAP1 PUSH1 0x20 ADD PUSH2 0xF39 JUMP JUMPDEST PUSH1 0x3 PUSH1 0x20 MSTORE DUP2 PUSH1 0x0 MSTORE PUSH1 0x40 PUSH1 0x0 KECCAK256 DUP2 PUSH1 0x2 DUP2 LT PUSH2 0x10AC JUMPI PUSH1 0x0 DUP1 REVERT JUMPDEST ADD SLOAD SWAP2 POP DUP3 SWAP1 POP JUMP JUMPDEST PUSH1 0x0 PUSH2 0x10E2 PUSH1 0x1 PUSH32 0x0 PUSH2 0x1B98 JUMP JUMPDEST PUSH1 0xFF AND PUSH1 0x1 PUSH32 0x0 PUSH1 0xFF AND PUSH1 0x1 DUP6 PUSH2 0x1118 SWAP2 SWAP1 PUSH2 0x1B98 JUMP JUMPDEST PUSH1 0xFF AND PUSH2 0x1146 PUSH1 0x1 PUSH32 0x0 PUSH2 0x1B1C JUMP JUMPDEST PUSH2 0x1150 SWAP2 SWAP1 PUSH2 0x1B2F JUMP JUMPDEST PUSH2 0x115A SWAP2 SWAP1 PUSH2 0x1ACE JUMP JUMPDEST PUSH2 0x1164 SWAP2 SWAP1 PUSH2 0x1B1C JUMP JUMPDEST PUSH2 0x116E SWAP1 DUP6 PUSH2 0x1B2F JUMP JUMPDEST PUSH2 0x1178 SWAP2 SWAP1 PUSH2 0x1AAC JUMP JUMPDEST SWAP4 SWAP3 POP POP POP JUMP JUMPDEST CALLER PUSH1 0x0 SWAP1 DUP2 MSTORE PUSH1 0x8 PUSH1 0x20 MSTORE PUSH1 0x40 DUP2 KECCAK256 SLOAD PUSH1 0x60 SWAP2 SWAP1 DUP2 SWAP1 PUSH8 0xFFFFFFFFFFFFFFFF DUP2 GT ISZERO PUSH2 0x11AD JUMPI PUSH2 0x11AD PUSH2 0x18DA JUMP JUMPDEST PUSH1 0x40 MLOAD SWAP1 DUP1 DUP3 MSTORE DUP1 PUSH1 0x20 MUL PUSH1 0x20 ADD DUP3 ADD PUSH1 0x40 MSTORE DUP1 ISZERO PUSH2 0x11D6 JUMPI DUP2 PUSH1 0x20 ADD PUSH1 0x20 DUP3 MUL DUP1 CALLDATASIZE DUP4 CALLDATACOPY ADD SWAP1 POP JUMPDEST POP SWAP1 POP PUSH1 0x0 PUSH2 0x11E7 PUSH2 0x258 TIMESTAMP PUSH2 0x1AAC JUMP JUMPDEST CALLER PUSH1 0x0 SWAP1 DUP2 MSTORE PUSH1 0x8 PUSH1 0x20 MSTORE PUSH1 0x40 DUP2 KECCAK256 SLOAD SWAP2 SWAP3 POP SWAP1 DUP2 JUMPDEST CALLER PUSH1 0x0 SWAP1 DUP2 MSTORE PUSH1 0x8 PUSH1 0x20 MSTORE PUSH1 0x40 SWAP1 KECCAK256 SLOAD DUP2 LT ISZERO PUSH2 0x12D0 JUMPI CALLER PUSH1 0x0 SWAP1 DUP2 MSTORE PUSH1 0x8 PUSH1 0x20 MSTORE PUSH1 0x40 DUP2 KECCAK256 DUP1 SLOAD DUP4 SWAP1 DUP2 LT PUSH2 0x1235 JUMPI PUSH2 0x1235 PUSH2 0x1B06 JUMP JUMPDEST SWAP1 PUSH1 0x0 MSTORE PUSH1 0x20 PUSH1 0x0 KECCAK256 ADD SLOAD SWAP1 POP DUP5 PUSH1 0x7 PUSH1 0x0 DUP4 DUP2 MSTORE PUSH1 0x20 ADD SWAP1 DUP2 MSTORE PUSH1 0x20 ADD PUSH1 0x0 KECCAK256 PUSH1 0x3 ADD SLOAD GT ISZERO PUSH2 0x1290 JUMPI DUP1 DUP7 DUP6 DUP2 MLOAD DUP2 LT PUSH2 0x1273 JUMPI PUSH2 0x1273 PUSH2 0x1B06 JUMP JUMPDEST PUSH1 0x20 SWAP1 DUP2 MUL SWAP2 SWAP1 SWAP2 ADD ADD MSTORE DUP4 PUSH2 0x1288 DUP2 PUSH2 0x1B46 JUMP JUMPDEST SWAP5 POP POP PUSH2 0x12BD JUMP JUMPDEST DUP3 PUSH2 0x129A DUP2 PUSH2 0x1BB1 JUMP JUMPDEST SWAP4 POP POP DUP1 DUP7 DUP5 DUP2 MLOAD DUP2 LT PUSH2 0x12B0 JUMPI PUSH2 0x12B0 PUSH2 0x1B06 JUMP JUMPDEST PUSH1 0x20 MUL PUSH1 0x20 ADD ADD DUP2 DUP2 MSTORE POP POP JUMPDEST POP DUP1 PUSH2 0x12C8 DUP2 PUSH2 0x1B46 JUMP JUMPDEST SWAP2 POP POP PUSH2 0x11FD JUMP JUMPDEST POP SWAP3 SWAP6 SWAP3 SWAP5 POP SWAP2 SWAP3 POP POP POP JUMP JUMPDEST PUSH1 0x0 DUP1 PUSH1 0x0 DUP1 PUSH1 0x0 DUP1 PUSH32 0x0 PUSH1 0x1 PUSH1 0x1 PUSH1 0xA0 SHL SUB AND PUSH4 0x99FBAB88 DUP9 PUSH1 0x40 MLOAD DUP3 PUSH4 0xFFFFFFFF AND PUSH1 0xE0 SHL DUP2 MSTORE PUSH1 0x4 ADD PUSH2 0x1334 SWAP2 DUP2 MSTORE PUSH1 0x20 ADD SWAP1 JUMP JUMPDEST PUSH2 0x180 PUSH1 0x40 MLOAD DUP1 DUP4 SUB DUP2 DUP7 GAS STATICCALL ISZERO DUP1 ISZERO PUSH2 0x1352 JUMPI RETURNDATASIZE PUSH1 0x0 DUP1 RETURNDATACOPY RETURNDATASIZE PUSH1 0x0 REVERT JUMPDEST POP POP POP POP PUSH1 0x40 MLOAD RETURNDATASIZE PUSH1 0x1F NOT PUSH1 0x1F DUP3 ADD AND DUP3 ADD DUP1 PUSH1 0x40 MSTORE POP DUP2 ADD SWAP1 PUSH2 0x1376 SWAP2 SWAP1 PUSH2 0x1C14 JUMP JUMPDEST POP POP POP POP SWAP8 POP SWAP8 POP SWAP8 POP POP SWAP7 POP SWAP7 POP POP POP PUSH32 0x0 PUSH1 0x1 PUSH1 0x1 PUSH1 0xA0 SHL SUB AND DUP6 PUSH1 0x1 PUSH1 0x1 PUSH1 0xA0 SHL SUB AND EQ DUP1 ISZERO PUSH2 0x13F9 JUMPI POP PUSH32 0x0 PUSH1 0x1 PUSH1 0x1 PUSH1 0xA0 SHL SUB AND DUP5 PUSH1 0x1 PUSH1 0x1 PUSH1 0xA0 SHL SUB AND EQ JUMPDEST PUSH2 0x1435 JUMPI PUSH1 0x40 MLOAD PUSH3 0x461BCD PUSH1 0xE5 SHL DUP2 MSTORE PUSH1 0x20 PUSH1 0x4 DUP3 ADD MSTORE PUSH1 0xD PUSH1 0x24 DUP3 ADD MSTORE PUSH13 0x3638103830B4B91032B93937B9 PUSH1 0x99 SHL PUSH1 0x44 DUP3 ADD MSTORE PUSH1 0x64 ADD PUSH2 0x600 JUMP JUMPDEST PUSH1 0x2 DUP4 SWAP1 SIGNEXTEND PUSH3 0xD89E7 NOT EQ DUP1 ISZERO PUSH2 0x145D JUMPI POP PUSH2 0x1454 PUSH3 0xD89E7 NOT PUSH2 0x1CF5 JUMP JUMPDEST PUSH1 0x2 SIGNEXTEND DUP3 PUSH1 0x2 SIGNEXTEND EQ JUMPDEST PUSH2 0x149C JUMPI PUSH1 0x40 MLOAD PUSH3 0x461BCD PUSH1 0xE5 SHL DUP2 MSTORE PUSH1 0x20 PUSH1 0x4 DUP3 ADD MSTORE PUSH1 0x10 PUSH1 0x24 DUP3 ADD MSTORE PUSH16 0x3A34B1B5903930B733B29032B93937B9 PUSH1 0x81 SHL PUSH1 0x44 DUP3 ADD MSTORE PUSH1 0x64 ADD PUSH2 0x600 JUMP JUMPDEST PUSH1 0x40 MLOAD PUSH4 0x20604BF PUSH1 0xE2 SHL DUP2 MSTORE PUSH1 0x4 DUP2 ADD DUP9 SWAP1 MSTORE ADDRESS SWAP1 PUSH1 0x1 PUSH1 0x1 PUSH1 0xA0 SHL SUB PUSH32 0x0 AND SWAP1 PUSH4 0x81812FC SWAP1 PUSH1 0x24 ADD PUSH1 0x20 PUSH1 0x40 MLOAD DUP1 DUP4 SUB DUP2 DUP7 GAS STATICCALL ISZERO DUP1 ISZERO PUSH2 0x1503 JUMPI RETURNDATASIZE PUSH1 0x0 DUP1 RETURNDATACOPY RETURNDATASIZE PUSH1 0x0 REVERT JUMPDEST POP POP POP POP PUSH1 0x40 MLOAD RETURNDATASIZE PUSH1 0x1F NOT PUSH1 0x1F DUP3 ADD AND DUP3 ADD DUP1 PUSH1 0x40 MSTORE POP DUP2 ADD SWAP1 PUSH2 0x1527 SWAP2 SWAP1 PUSH2 0x1D17 JUMP JUMPDEST PUSH1 0x1 PUSH1 0x1 PUSH1 0xA0 SHL SUB AND EQ PUSH2 0x156B JUMPI PUSH1 0x40 MLOAD PUSH3 0x461BCD PUSH1 0xE5 SHL DUP2 MSTORE PUSH1 0x20 PUSH1 0x4 DUP3 ADD MSTORE PUSH1 0xB PUSH1 0x24 DUP3 ADD MSTORE PUSH11 0x6E6F7420617070726F7665 PUSH1 0xA8 SHL PUSH1 0x44 DUP3 ADD MSTORE PUSH1 0x64 ADD PUSH2 0x600 JUMP JUMPDEST PUSH1 0x40 MLOAD PUSH4 0x21421707 PUSH1 0xE1 SHL DUP2 MSTORE CALLER PUSH1 0x4 DUP3 ADD MSTORE ADDRESS PUSH1 0x24 DUP3 ADD MSTORE PUSH1 0x44 DUP2 ADD DUP9 SWAP1 MSTORE PUSH32 0x0 PUSH1 0x1 PUSH1 0x1 PUSH1 0xA0 SHL SUB AND SWAP1 PUSH4 0x42842E0E SWAP1 PUSH1 0x64 ADD PUSH1 0x0 PUSH1 0x40 MLOAD DUP1 DUP4 SUB DUP2 PUSH1 0x0 DUP8 DUP1 EXTCODESIZE ISZERO DUP1 ISZERO PUSH2 0x15D9 JUMPI PUSH1 0x0 DUP1 REVERT JUMPDEST POP GAS CALL ISZERO DUP1 ISZERO PUSH2 0x15ED JUMPI RETURNDATASIZE PUSH1 0x0 DUP1 RETURNDATACOPY RETURNDATASIZE PUSH1 0x0 REVERT JUMPDEST POP POP PUSH1 0x1 PUSH1 0x1 PUSH1 0x80 SHL SUB SWAP1 SWAP3 AND SWAP9 SWAP8 POP POP POP POP POP POP POP POP JUMP JUMPDEST PUSH1 0x40 DUP1 MLOAD PUSH1 0x1 PUSH1 0x1 PUSH1 0xA0 SHL SUB DUP5 DUP2 AND PUSH1 0x24 DUP4 ADD MSTORE PUSH1 0x44 DUP1 DUP4 ADD DUP6 SWAP1 MSTORE DUP4 MLOAD DUP1 DUP5 SUB SWAP1 SWAP2 ADD DUP2 MSTORE PUSH1 0x64 SWAP1 SWAP3 ADD DUP4 MSTORE PUSH1 0x20 DUP3 ADD DUP1 MLOAD PUSH1 0x1 PUSH1 0x1 PUSH1 0xE0 SHL SUB AND PUSH4 0xA9059CBB PUSH1 0xE0 SHL OR SWAP1 MSTORE SWAP2 MLOAD PUSH1 0x0 SWAP3 DUP4 SWAP3 SWAP1 DUP8 AND SWAP2 PUSH2 0x1662 SWAP2 SWAP1 PUSH2 0x1D34 JUMP JUMPDEST PUSH1 0x0 PUSH1 0x40 MLOAD DUP1 DUP4 SUB DUP2 PUSH1 0x0 DUP7 GAS CALL SWAP2 POP POP RETURNDATASIZE DUP1 PUSH1 0x0 DUP2 EQ PUSH2 0x169F JUMPI PUSH1 0x40 MLOAD SWAP2 POP PUSH1 0x1F NOT PUSH1 0x3F RETURNDATASIZE ADD AND DUP3 ADD PUSH1 0x40 MSTORE RETURNDATASIZE DUP3 MSTORE RETURNDATASIZE PUSH1 0x0 PUSH1 0x20 DUP5 ADD RETURNDATACOPY PUSH2 0x16A4 JUMP JUMPDEST PUSH1 0x60 SWAP2 POP JUMPDEST POP SWAP2 POP SWAP2 POP DUP2 DUP1 ISZERO PUSH2 0x16CE JUMPI POP DUP1 MLOAD ISZERO DUP1 PUSH2 0x16CE JUMPI POP DUP1 DUP1 PUSH1 0x20 ADD SWAP1 MLOAD DUP2 ADD SWAP1 PUSH2 0x16CE SWAP2 SWAP1 PUSH2 0x1D63 JUMP JUMPDEST PUSH2 0x170C JUMPI PUSH1 0x40 MLOAD PUSH3 0x461BCD PUSH1 0xE5 SHL DUP2 MSTORE PUSH1 0x20 PUSH1 0x4 DUP3 ADD MSTORE PUSH1 0xF PUSH1 0x24 DUP3 ADD MSTORE PUSH15 0x1514905394D1915497D19052531151 PUSH1 0x8A SHL PUSH1 0x44 DUP3 ADD MSTORE PUSH1 0x64 ADD PUSH2 0x600 JUMP JUMPDEST POP POP POP POP POP JUMP JUMPDEST PUSH1 0x40 DUP1 MLOAD PUSH1 0x1 PUSH1 0x1 PUSH1 0xA0 SHL SUB DUP6 DUP2 AND PUSH1 0x24 DUP4 ADD MSTORE DUP5 DUP2 AND PUSH1 0x44 DUP4 ADD MSTORE PUSH1 0x64 DUP1 DUP4 ADD DUP6 SWAP1 MSTORE DUP4 MLOAD DUP1 DUP5 SUB SWAP1 SWAP2 ADD DUP2 MSTORE PUSH1 0x84 SWAP1 SWAP3 ADD DUP4 MSTORE PUSH1 0x20 DUP3 ADD DUP1 MLOAD PUSH1 0x1 PUSH1 0x1 PUSH1 0xE0 SHL SUB AND PUSH4 0x23B872DD PUSH1 0xE0 SHL OR SWAP1 MSTORE SWAP2 MLOAD PUSH1 0x0 SWAP3 DUP4 SWAP3 SWAP1 DUP9 AND SWAP2 PUSH2 0x1777 SWAP2 SWAP1 PUSH2 0x1D34 JUMP JUMPDEST PUSH1 0x0 PUSH1 0x40 MLOAD DUP1 DUP4 SUB DUP2 PUSH1 0x0 DUP7 GAS CALL SWAP2 POP POP RETURNDATASIZE DUP1 PUSH1 0x0 DUP2 EQ PUSH2 0x17B4 JUMPI PUSH1 0x40 MLOAD SWAP2 POP PUSH1 0x1F NOT PUSH1 0x3F RETURNDATASIZE ADD AND DUP3 ADD PUSH1 0x40 MSTORE RETURNDATASIZE DUP3 MSTORE RETURNDATASIZE PUSH1 0x0 PUSH1 0x20 DUP5 ADD RETURNDATACOPY PUSH2 0x17B9 JUMP JUMPDEST PUSH1 0x60 SWAP2 POP JUMPDEST POP SWAP2 POP SWAP2 POP DUP2 DUP1 ISZERO PUSH2 0x17E3 JUMPI POP DUP1 MLOAD ISZERO DUP1 PUSH2 0x17E3 JUMPI POP DUP1 DUP1 PUSH1 0x20 ADD SWAP1 MLOAD DUP2 ADD SWAP1 PUSH2 0x17E3 SWAP2 SWAP1 PUSH2 0x1D63 JUMP JUMPDEST PUSH2 0x1825 JUMPI PUSH1 0x40 MLOAD PUSH3 0x461BCD PUSH1 0xE5 SHL DUP2 MSTORE PUSH1 0x20 PUSH1 0x4 DUP3 ADD MSTORE PUSH1 0x13 PUSH1 0x24 DUP3 ADD MSTORE PUSH19 0x1D1C985B9CD9995C919C9BDB4819985A5B1959 PUSH1 0x6A SHL PUSH1 0x44 DUP3 ADD MSTORE PUSH1 0x64 ADD PUSH2 0x600 JUMP JUMPDEST POP POP POP POP POP POP JUMP JUMPDEST PUSH1 0x0 PUSH1 0x20 DUP3 DUP5 SUB SLT ISZERO PUSH2 0x183F JUMPI PUSH1 0x0 DUP1 REVERT JUMPDEST POP CALLDATALOAD SWAP2 SWAP1 POP JUMP JUMPDEST PUSH1 0x0 DUP1 PUSH1 0x40 DUP4 DUP6 SUB SLT ISZERO PUSH2 0x1859 JUMPI PUSH1 0x0 DUP1 REVERT JUMPDEST DUP3 CALLDATALOAD SWAP2 POP PUSH1 0x20 DUP4 ADD CALLDATALOAD PUSH1 0xFF DUP2 AND DUP2 EQ PUSH2 0x1871 JUMPI PUSH1 0x0 DUP1 REVERT JUMPDEST DUP1 SWAP2 POP POP SWAP3 POP SWAP3 SWAP1 POP JUMP JUMPDEST PUSH1 0x1 PUSH1 0x1 PUSH1 0xA0 SHL SUB DUP2 AND DUP2 EQ PUSH2 0xC84 JUMPI PUSH1 0x0 DUP1 REVERT JUMPDEST PUSH1 0x0 DUP1 PUSH1 0x40 DUP4 DUP6 SUB SLT ISZERO PUSH2 0x18A4 JUMPI PUSH1 0x0 DUP1 REVERT JUMPDEST DUP3 CALLDATALOAD PUSH2 0x18AF DUP2 PUSH2 0x187C JUMP JUMPDEST SWAP5 PUSH1 0x20 SWAP4 SWAP1 SWAP4 ADD CALLDATALOAD SWAP4 POP POP POP JUMP JUMPDEST PUSH1 0x0 PUSH1 0x20 DUP3 DUP5 SUB SLT ISZERO PUSH2 0x18CF JUMPI PUSH1 0x0 DUP1 REVERT JUMPDEST DUP2 CALLDATALOAD PUSH2 0x1178 DUP2 PUSH2 0x187C JUMP JUMPDEST PUSH4 0x4E487B71 PUSH1 0xE0 SHL PUSH1 0x0 MSTORE PUSH1 0x41 PUSH1 0x4 MSTORE PUSH1 0x24 PUSH1 0x0 REVERT JUMPDEST PUSH1 0x0 DUP3 PUSH1 0x1F DUP4 ADD SLT PUSH2 0x1901 JUMPI PUSH1 0x0 DUP1 REVERT JUMPDEST DUP2 CALLDATALOAD PUSH1 0x20 PUSH8 0xFFFFFFFFFFFFFFFF DUP1 DUP4 GT ISZERO PUSH2 0x191E JUMPI PUSH2 0x191E PUSH2 0x18DA JUMP JUMPDEST DUP3 PUSH1 0x5 SHL PUSH1 0x40 MLOAD PUSH1 0x1F NOT PUSH1 0x3F DUP4 ADD AND DUP2 ADD DUP2 DUP2 LT DUP5 DUP3 GT OR ISZERO PUSH2 0x1943 JUMPI PUSH2 0x1943 PUSH2 0x18DA JUMP JUMPDEST PUSH1 0x40 MSTORE SWAP4 DUP5 MSTORE DUP6 DUP2 ADD DUP4 ADD SWAP4 DUP4 DUP2 ADD SWAP3 POP DUP8 DUP6 GT ISZERO PUSH2 0x1961 JUMPI PUSH1 0x0 DUP1 REVERT JUMPDEST DUP4 DUP8 ADD SWAP2 POP JUMPDEST DUP5 DUP3 LT ISZERO PUSH2 0x1980 JUMPI DUP2 CALLDATALOAD DUP4 MSTORE SWAP2 DUP4 ADD SWAP2 SWAP1 DUP4 ADD SWAP1 PUSH2 0x1967 JUMP JUMPDEST SWAP8 SWAP7 POP POP POP POP POP POP POP JUMP JUMPDEST PUSH1 0x0 DUP1 PUSH1 0x40 DUP4 DUP6 SUB SLT ISZERO PUSH2 0x199E JUMPI PUSH1 0x0 DUP1 REVERT JUMPDEST DUP3 CALLDATALOAD PUSH8 0xFFFFFFFFFFFFFFFF DUP1 DUP3 GT ISZERO PUSH2 0x19B6 JUMPI PUSH1 0x0 DUP1 REVERT JUMPDEST PUSH2 0x19C2 DUP7 DUP4 DUP8 ADD PUSH2 0x18F0 JUMP JUMPDEST SWAP4 POP PUSH1 0x20 DUP6 ADD CALLDATALOAD SWAP2 POP DUP1 DUP3 GT ISZERO PUSH2 0x19D8 JUMPI PUSH1 0x0 DUP1 REVERT JUMPDEST POP PUSH2 0x19E5 DUP6 DUP3 DUP7 ADD PUSH2 0x18F0 JUMP JUMPDEST SWAP2 POP POP SWAP3 POP SWAP3 SWAP1 POP JUMP JUMPDEST PUSH1 0x0 PUSH1 0x20 DUP3 DUP5 SUB SLT ISZERO PUSH2 0x1A01 JUMPI PUSH1 0x0 DUP1 REVERT JUMPDEST DUP2 CALLDATALOAD PUSH8 0xFFFFFFFFFFFFFFFF DUP2 GT ISZERO PUSH2 0x1A18 JUMPI PUSH1 0x0 DUP1 REVERT JUMPDEST PUSH2 0x1A24 DUP5 DUP3 DUP6 ADD PUSH2 0x18F0 JUMP JUMPDEST SWAP5 SWAP4 POP POP POP POP JUMP JUMPDEST PUSH1 0x0 DUP1 PUSH1 0x40 DUP4 DUP6 SUB SLT ISZERO PUSH2 0x1A3F JUMPI PUSH1 0x0 DUP1 REVERT JUMPDEST POP POP DUP1 CALLDATALOAD SWAP3 PUSH1 0x20 SWAP1 SWAP2 ADD CALLDATALOAD SWAP2 POP JUMP JUMPDEST PUSH1 0x40 DUP1 DUP3 MSTORE DUP4 MLOAD SWAP1 DUP3 ADD DUP2 SWAP1 MSTORE PUSH1 0x0 SWAP1 PUSH1 0x20 SWAP1 PUSH1 0x60 DUP5 ADD SWAP1 DUP3 DUP8 ADD DUP5 JUMPDEST DUP3 DUP2 LT ISZERO PUSH2 0x1A87 JUMPI DUP2 MLOAD DUP5 MSTORE SWAP3 DUP5 ADD SWAP3 SWAP1 DUP5 ADD SWAP1 PUSH1 0x1 ADD PUSH2 0x1A6B JUMP JUMPDEST POP POP POP SWAP3 ADD SWAP3 SWAP1 SWAP3 MSTORE SWAP3 SWAP2 POP POP JUMP JUMPDEST PUSH4 0x4E487B71 PUSH1 0xE0 SHL PUSH1 0x0 MSTORE PUSH1 0x11 PUSH1 0x4 MSTORE PUSH1 0x24 PUSH1 0x0 REVERT JUMPDEST PUSH1 0x0 DUP3 PUSH2 0x1AC9 JUMPI PUSH4 0x4E487B71 PUSH1 0xE0 SHL PUSH1 0x0 MSTORE PUSH1 0x12 PUSH1 0x4 MSTORE PUSH1 0x24 PUSH1 0x0 REVERT JUMPDEST POP DIV SWAP1 JUMP JUMPDEST DUP1 DUP3 ADD DUP1 DUP3 GT ISZERO PUSH2 0x1AE1 JUMPI PUSH2 0x1AE1 PUSH2 0x1A96 JUMP JUMPDEST SWAP3 SWAP2 POP POP JUMP JUMPDEST PUSH1 0x0 PUSH1 0xFF DUP3 AND PUSH1 0xFF DUP2 SUB PUSH2 0x1AFD JUMPI PUSH2 0x1AFD PUSH2 0x1A96 JUMP JUMPDEST PUSH1 0x1 ADD SWAP3 SWAP2 POP POP JUMP JUMPDEST PUSH4 0x4E487B71 PUSH1 0xE0 SHL PUSH1 0x0 MSTORE PUSH1 0x32 PUSH1 0x4 MSTORE PUSH1 0x24 PUSH1 0x0 REVERT JUMPDEST DUP2 DUP2 SUB DUP2 DUP2 GT ISZERO PUSH2 0x1AE1 JUMPI PUSH2 0x1AE1 PUSH2 0x1A96 JUMP JUMPDEST DUP1 DUP3 MUL DUP2 ISZERO DUP3 DUP3 DIV DUP5 EQ OR PUSH2 0x1AE1 JUMPI PUSH2 0x1AE1 PUSH2 0x1A96 JUMP JUMPDEST PUSH1 0x0 PUSH1 0x1 DUP3 ADD PUSH2 0x1B58 JUMPI PUSH2 0x1B58 PUSH2 0x1A96 JUMP JUMPDEST POP PUSH1 0x1 ADD SWAP1 JUMP JUMPDEST PUSH4 0x4E487B71 PUSH1 0xE0 SHL PUSH1 0x0 MSTORE PUSH1 0x31 PUSH1 0x4 MSTORE PUSH1 0x24 PUSH1 0x0 REVERT JUMPDEST PUSH1 0x20 DUP1 DUP3 MSTORE PUSH1 0x9 SWAP1 DUP3 ADD MSTORE PUSH9 0x3337B93134B23232B7 PUSH1 0xB9 SHL PUSH1 0x40 DUP3 ADD MSTORE PUSH1 0x60 ADD SWAP1 JUMP JUMPDEST PUSH1 0xFF DUP3 DUP2 AND DUP3 DUP3 AND SUB SWAP1 DUP2 GT ISZERO PUSH2 0x1AE1 JUMPI PUSH2 0x1AE1 PUSH2 0x1A96 JUMP JUMPDEST PUSH1 0x0 DUP2 PUSH2 0x1BC0 JUMPI PUSH2 0x1BC0 PUSH2 0x1A96 JUMP JUMPDEST POP PUSH1 0x0 NOT ADD SWAP1 JUMP JUMPDEST DUP1 MLOAD PUSH2 0x1BD3 DUP2 PUSH2 0x187C JUMP JUMPDEST SWAP2 SWAP1 POP JUMP JUMPDEST DUP1 MLOAD PUSH3 0xFFFFFF DUP2 AND DUP2 EQ PUSH2 0x1BD3 JUMPI PUSH1 0x0 DUP1 REVERT JUMPDEST DUP1 MLOAD PUSH1 0x2 DUP2 SWAP1 SIGNEXTEND DUP2 EQ PUSH2 0x1BD3 JUMPI PUSH1 0x0 DUP1 REVERT JUMPDEST DUP1 MLOAD PUSH1 0x1 PUSH1 0x1 PUSH1 0x80 SHL SUB DUP2 AND DUP2 EQ PUSH2 0x1BD3 JUMPI PUSH1 0x0 DUP1 REVERT JUMPDEST PUSH1 0x0 DUP1 PUSH1 0x0 DUP1 PUSH1 0x0 DUP1 PUSH1 0x0 DUP1 PUSH1 0x0 DUP1 PUSH1 0x0 DUP1 PUSH2 0x180 DUP14 DUP16 SUB SLT ISZERO PUSH2 0x1C37 JUMPI PUSH1 0x0 DUP1 REVERT JUMPDEST DUP13 MLOAD PUSH12 0xFFFFFFFFFFFFFFFFFFFFFFFF DUP2 AND DUP2 EQ PUSH2 0x1C53 JUMPI PUSH1 0x0 DUP1 REVERT JUMPDEST SWAP12 POP PUSH2 0x1C61 PUSH1 0x20 DUP15 ADD PUSH2 0x1BC8 JUMP JUMPDEST SWAP11 POP PUSH2 0x1C6F PUSH1 0x40 DUP15 ADD PUSH2 0x1BC8 JUMP JUMPDEST SWAP10 POP PUSH2 0x1C7D PUSH1 0x60 DUP15 ADD PUSH2 0x1BC8 JUMP JUMPDEST SWAP9 POP PUSH2 0x1C8B PUSH1 0x80 DUP15 ADD PUSH2 0x1BD8 JUMP JUMPDEST SWAP8 POP PUSH2 0x1C99 PUSH1 0xA0 DUP15 ADD PUSH2 0x1BEB JUMP JUMPDEST SWAP7 POP PUSH2 0x1CA7 PUSH1 0xC0 DUP15 ADD PUSH2 0x1BEB JUMP JUMPDEST SWAP6 POP PUSH2 0x1CB5 PUSH1 0xE0 DUP15 ADD PUSH2 0x1BFD JUMP JUMPDEST SWAP5 POP PUSH2 0x100 DUP14 ADD MLOAD SWAP4 POP PUSH2 0x120 DUP14 ADD MLOAD SWAP3 POP PUSH2 0x1CD4 PUSH2 0x140 DUP15 ADD PUSH2 0x1BFD JUMP JUMPDEST SWAP2 POP PUSH2 0x1CE3 PUSH2 0x160 DUP15 ADD PUSH2 0x1BFD JUMP JUMPDEST SWAP1 POP SWAP3 SWAP6 SWAP9 SWAP12 POP SWAP3 SWAP6 SWAP9 SWAP12 POP SWAP3 SWAP6 SWAP9 SWAP12 JUMP JUMPDEST PUSH1 0x0 DUP2 PUSH1 0x2 SIGNEXTEND PUSH3 0x7FFFFF NOT DUP2 SUB PUSH2 0x1D0E JUMPI PUSH2 0x1D0E PUSH2 0x1A96 JUMP JUMPDEST PUSH1 0x0 SUB SWAP3 SWAP2 POP POP JUMP JUMPDEST PUSH1 0x0 PUSH1 0x20 DUP3 DUP5 SUB SLT ISZERO PUSH2 0x1D29 JUMPI PUSH1 0x0 DUP1 REVERT JUMPDEST DUP2 MLOAD PUSH2 0x1178 DUP2 PUSH2 0x187C JUMP JUMPDEST PUSH1 0x0 DUP3 MLOAD PUSH1 0x0 JUMPDEST DUP2 DUP2 LT ISZERO PUSH2 0x1D55 JUMPI PUSH1 0x20 DUP2 DUP7 ADD DUP2 ADD MLOAD DUP6 DUP4 ADD MSTORE ADD PUSH2 0x1D3B JUMP JUMPDEST POP PUSH1 0x0 SWAP3 ADD SWAP2 DUP3 MSTORE POP SWAP2 SWAP1 POP JUMP JUMPDEST PUSH1 0x0 PUSH1 0x20 DUP3 DUP5 SUB SLT ISZERO PUSH2 0x1D75 JUMPI PUSH1 0x0 DUP1 REVERT JUMPDEST DUP2 MLOAD DUP1 ISZERO ISZERO DUP2 EQ PUSH2 0x1178 JUMPI PUSH1 0x0 DUP1 REVERT INVALID LOG2 PUSH5 0x6970667358 0x22 SLT KECCAK256 0xB1 0xAC 0xA6 0xA8 SUB SHL GASLIMIT 0xD5 0x2D RETURNDATACOPY DUP9 0xD1 0xE0 0xE3 0xDA SWAP14 0xFB CALLVALUE 0x21 0xF9 0x49 0xC8 0xDF REVERT 0x1E 0xB7 0xD4 0xF7 POP 0xDF AND 0xD1 PUSH5 0x736F6C6343 STOP ADDMOD GT STOP CALLER "},"methodIdentifiers":{"BEGIN_TIME()":"c75363b6","END_TIME()":"37ba682d","LOCK_WEEKNUM()":"0d437d40","MAX_SCALE()":"f6def7cf","MAX_WEEKS()":"e11400bb","WEEK_SECONDS()":"cd671a58","acceptSetter()":"5f8e422f","calculateRewardAmount()":"19596282","claimReward()":"b88a802f","getScore(uint256,uint8)":"ee3453ed","getUserNFTs()":"fdc5ab8e","latestNo()":"29ed1cfd","nftToken()":"d06fcba8","owner()":"8da5cb5b","rewardToken()":"f7c618c1","rewardsOf(uint256)":"0bce1284","setReward(uint256,uint256)":"a47bd496","setRewards(uint256[],uint256[])":"979db1c4","stake(uint256,uint8)":"10087fb1","stakingNFTs(uint256)":"10c6c1c2","token0()":"0dfe1681","token1()":"d21220a7","totalScores(uint256)":"157775df","transferOwner(address)":"4fb2e45d","userCanClaimWeeks(address,uint256)":"bb57852d","userNFTs(address,uint256)":"291c73c3","userScores(address,uint256)":"5b680a45","withdraw(uint256)":"2e1a7d4d","withdraw(uint256[])":"983d95ce","withdrawRewards(uint256)":"9342c8f4"}}}}}