{"contracts/stakeNFT721.sol":{"StakeNftLiquidity":{"abi":[{"inputs":[{"internalType":"address","name":"tokenA","type":"address"},{"internalType":"address","name":"tokenB","type":"address"},{"internalType":"address","name":"nft","type":"address"},{"internalType":"address","name":"_rewardToken","type":"address"}],"stateMutability":"nonpayable","type":"constructor"},{"anonymous":false,"inputs":[{"indexed":true,"internalType":"address","name":"user","type":"address"},{"indexed":false,"internalType":"uint256","name":"tokenId","type":"uint256"},{"indexed":false,"internalType":"uint256","name":"amount","type":"uint256"}],"name":"ClaimReward","type":"event"},{"anonymous":false,"inputs":[{"indexed":true,"internalType":"address","name":"user","type":"address"},{"indexed":false,"internalType":"uint256","name":"no","type":"uint256"},{"indexed":false,"internalType":"uint256","name":"amount","type":"uint256"}],"name":"SetReward","type":"event"},{"anonymous":false,"inputs":[{"indexed":true,"internalType":"address","name":"user","type":"address"},{"indexed":false,"internalType":"uint256","name":"tokenId","type":"uint256"},{"indexed":false,"internalType":"uint256","name":"amount","type":"uint256"},{"indexed":false,"internalType":"uint8","name":"k","type":"uint8"}],"name":"Stake","type":"event"},{"anonymous":false,"inputs":[{"indexed":true,"internalType":"address","name":"user","type":"address"},{"indexed":false,"internalType":"uint256","name":"tokenId","type":"uint256"}],"name":"Withdraw","type":"event"},{"inputs":[],"name":"MAX_SCALE","outputs":[{"internalType":"uint256","name":"","type":"uint256"}],"stateMutability":"view","type":"function"},{"inputs":[],"name":"MAX_WEEKS","outputs":[{"internalType":"uint8","name":"","type":"uint8"}],"stateMutability":"view","type":"function"},{"inputs":[],"name":"WEEK_SECONDS","outputs":[{"internalType":"uint24","name":"","type":"uint24"}],"stateMutability":"view","type":"function"},{"inputs":[],"name":"acceptSetter","outputs":[],"stateMutability":"nonpayable","type":"function"},{"inputs":[{"internalType":"uint256","name":"","type":"uint256"},{"internalType":"uint256","name":"","type":"uint256"}],"name":"bClaimReward","outputs":[{"internalType":"bool","name":"","type":"bool"}],"stateMutability":"view","type":"function"},{"inputs":[{"internalType":"uint256","name":"tokenId","type":"uint256"},{"internalType":"uint256[]","name":"Nos","type":"uint256[]"}],"name":"claimReward","outputs":[],"stateMutability":"nonpayable","type":"function"},{"inputs":[],"name":"claimReward","outputs":[],"stateMutability":"nonpayable","type":"function"},{"inputs":[],"name":"divConst","outputs":[{"internalType":"uint32","name":"","type":"uint32"}],"stateMutability":"view","type":"function"},{"inputs":[{"internalType":"uint256","name":"amount","type":"uint256"},{"internalType":"uint8","name":"k","type":"uint8"}],"name":"getScore","outputs":[{"internalType":"uint256","name":"","type":"uint256"}],"stateMutability":"view","type":"function"},{"inputs":[],"name":"getUserNFTs","outputs":[{"internalType":"uint256[]","name":"","type":"uint256[]"},{"internalType":"uint256","name":"","type":"uint256"}],"stateMutability":"view","type":"function"},{"inputs":[],"name":"latestNo","outputs":[{"internalType":"uint256","name":"","type":"uint256"}],"stateMutability":"view","type":"function"},{"inputs":[],"name":"nftToken","outputs":[{"internalType":"contract IIotabeeSwapNFT","name":"","type":"address"}],"stateMutability":"view","type":"function"},{"inputs":[],"name":"owner","outputs":[{"internalType":"address","name":"","type":"address"}],"stateMutability":"view","type":"function"},{"inputs":[],"name":"rewardToken","outputs":[{"internalType":"address","name":"","type":"address"}],"stateMutability":"view","type":"function"},{"inputs":[{"internalType":"uint256","name":"","type":"uint256"}],"name":"rewardsOf","outputs":[{"internalType":"uint256","name":"","type":"uint256"}],"stateMutability":"view","type":"function"},{"inputs":[{"internalType":"uint256","name":"no","type":"uint256"},{"internalType":"uint256","name":"amount","type":"uint256"}],"name":"setReward","outputs":[],"stateMutability":"nonpayable","type":"function"},{"inputs":[{"internalType":"uint8","name":"maxWeeks","type":"uint8"},{"internalType":"uint256","name":"maxScale","type":"uint256"}],"name":"setScoreFormula","outputs":[],"stateMutability":"nonpayable","type":"function"},{"inputs":[{"internalType":"uint256","name":"tokenId","type":"uint256"},{"internalType":"uint8","name":"k","type":"uint8"}],"name":"stake","outputs":[],"stateMutability":"nonpayable","type":"function"},{"inputs":[{"internalType":"uint256","name":"","type":"uint256"}],"name":"stakingNFTs","outputs":[{"internalType":"address","name":"owner","type":"address"},{"internalType":"uint256","name":"score","type":"uint256"},{"internalType":"uint256","name":"beginNo","type":"uint256"},{"internalType":"uint256","name":"endNo","type":"uint256"},{"internalType":"uint256","name":"toClaimedNo","type":"uint256"}],"stateMutability":"view","type":"function"},{"inputs":[],"name":"token0","outputs":[{"internalType":"address","name":"","type":"address"}],"stateMutability":"view","type":"function"},{"inputs":[],"name":"token1","outputs":[{"internalType":"address","name":"","type":"address"}],"stateMutability":"view","type":"function"},{"inputs":[{"internalType":"address","name":"_owner","type":"address"}],"name":"transferOwner","outputs":[],"stateMutability":"nonpayable","type":"function"},{"inputs":[{"internalType":"address","name":"","type":"address"},{"internalType":"uint256","name":"","type":"uint256"}],"name":"userNFTs","outputs":[{"internalType":"uint256","name":"","type":"uint256"}],"stateMutability":"view","type":"function"},{"inputs":[{"internalType":"uint256[]","name":"tokenIds","type":"uint256[]"}],"name":"withdraw","outputs":[],"stateMutability":"nonpayable","type":"function"}],"evm":{"bytecode":{"linkReferences":{},"object":"6101006040523480156200001257600080fd5b5060405162001ce538038062001ce58339810160408190526200003591620000bb565b600080546001600160a01b031916331790556001600160a01b03838116908516106200006357828462000066565b83835b6001600160a01b0390811660c05290811660a0529182166080521660e05250506008805460ff19166034179055600260095562000118565b80516001600160a01b0381168114620000b657600080fd5b919050565b60008060008060808587031215620000d257600080fd5b620000dd856200009e565b9350620000ed602086016200009e565b9250620000fd604086016200009e565b91506200010d606086016200009e565b905092959194509250565b60805160a05160c05160e051611b5462000191600039600081816104040152818161098301528181610a190152610c310152600081816103a20152610f2c0152600081816101950152610ef001526000818161037b01528181610e4f01528181611023015281816110f401526113000152611b546000f3fe608060405234801561001057600080fd5b50600436106101585760003560e01c80639b6e0d74116100c3578063d21220a71161007c578063d21220a71461039d578063e11400bb146103c4578063ee3453ed146103e3578063f6def7cf146103f6578063f7c618c1146103ff578063fdc5ab8e1461042657600080fd5b80639b6e0d74146102ec578063a47bd496146102ff578063b88a802f14610312578063cd671a581461031a578063ce6d3e3e14610338578063d06fcba81461037657600080fd5b80634fb2e45d116101155780634fb2e45d146102795780635f8e422f1461028c578063721348e8146102945780637e4856c4146102a75780638da5cb5b146102c6578063983d95ce146102d957600080fd5b80630bce12841461015d5780630dfe16811461019057806310087fb1146101cf57806310c6c1c2146101e4578063291c73c31461025d57806329ed1cfd14610270575b600080fd5b61017d61016b3660046115d5565b60066020526000908152604090205481565b6040519081526020015b60405180910390f35b6101b77f000000000000000000000000000000000000000000000000000000000000000081565b6040516001600160a01b039091168152602001610187565b6101e26101dd366004611604565b61043c565b005b61022b6101f23660046115d5565b6002602081905260009182526040909120805460018201549282015460038301546004909301546001600160a01b039092169392909185565b604080516001600160a01b0390961686526020860194909452928401919091526060830152608082015260a001610187565b61017d61026b366004611648565b610625565b61017d60075481565b6101e2610287366004611674565b610656565b6101e26106a2565b6101e26102a2366004611698565b6106f3565b6102b1620f424081565b60405163ffffffff9091168152602001610187565b6000546101b7906001600160a01b031681565b6101e26102e7366004611765565b61077c565b6101e26102fa3660046117a2565b6107c0565b6101e261030d3660046117e9565b6109ea565b6101e2610ab3565b61032462093a8081565b60405162ffffff9091168152602001610187565b6103666103463660046117e9565b600460209081526000928352604080842090915290825290205460ff1681565b6040519015158152602001610187565b6101b77f000000000000000000000000000000000000000000000000000000000000000081565b6101b77f000000000000000000000000000000000000000000000000000000000000000081565b6008546103d19060ff1681565b60405160ff9091168152602001610187565b61017d6103f1366004611604565b610c90565b61017d60095481565b6101b77f000000000000000000000000000000000000000000000000000000000000000081565b61042e610ce5565b60405161018792919061180b565b60008160ff16118015610458575060085460ff90811690821611155b61049d5760405162461bcd60e51b815260206004820152601160248201527039ba30b5b2903bb2b2b5b99032b93937b960791b60448201526064015b60405180910390fd5b60006104a883610e44565b905060006104b962093a8042611869565b6104c490600161188b565b905060006104d28385610c90565b905060005b8460ff168160ff16101561052c5781600560006104f760ff85168761188b565b81526020019081526020016000206000828254610514919061188b565b909155508190506105248161189e565b9150506104d7565b506040805160a081018252338152602081018390529081018390526060810161055860ff87168561188b565b81526020908101849052600087815260028083526040808320855181546001600160a01b0319166001600160a01b039091161781558585015160018083019190915586830151938201939093556060808701516003808401919091556080909701516004909201919091553380855295855281842080549384018155845292849020909101899055805189815292830187905260ff8816908301527f6fa2f6021ee337436cdf2b2570285886da18bc06402ce284d296504a0fe8f875910160405180910390a25050505050565b6003602052816000526040600020818154811061064157600080fd5b90600052602060002001600091509150505481565b6000546001600160a01b031633146106805760405162461bcd60e51b8152600401610494906118bd565b600180546001600160a01b0319166001600160a01b0392909216919091179055565b6001546001600160a01b031633146106cc5760405162461bcd60e51b8152600401610494906118bd565b60018054600080546001600160a01b03199081166001600160a01b03841617909155169055565b6000546001600160a01b0316331461071d5760405162461bcd60e51b8152600401610494906118bd565b600181116107625760405162461bcd60e51b81526020600482015260126024820152711b585e14d8d85b19481d1bdbc81cdb585b1b60721b6044820152606401610494565b6008805460ff191660ff9390931692909217909155600955565b60005b81518110156107bc576107aa82828151811061079d5761079d6118e0565b602002602001015161116d565b806107b4816118f6565b91505061077f565b5050565b6000828152600260205260409020546001600160a01b031633146108185760405162461bcd60e51b815260206004820152600f60248201526e37bbb732b9103337b93134b23232b760891b6044820152606401610494565b600061082762093a8042611869565b90506000805b835181101561097d57600084828151811061084a5761084a6118e0565b6020908102919091018101516000888152600483526040808220838352909352919091205490915060ff1615610880575061096b565b600086815260046020908152604080832084845290915290205460ff16806108b957506000868152600260205260409020600301548110155b806108d557506000868152600260208190526040909120015481105b806108df57508381115b806108f65750600081815260066020526040902054155b15610901575061096b565b60008681526004602090815260408083208484528252808320805460ff1916600190811790915560058352818420548a855260028452828520909101548585526006909352922054610953919061190f565b61095d9190611869565b610967908461188b565b9250505b80610975816118f6565b91505061082d565b506109a97f000000000000000000000000000000000000000000000000000000000000000033836113ae565b604080518581526020810183905233917fe74e5c9d4ac1fc33412485f18c159a0a391efe287ab3fd271123f30e6bacf4e3910160405180910390a250505050565b6000546001600160a01b03163314610a145760405162461bcd60e51b8152600401610494906118bd565b610a407f00000000000000000000000000000000000000000000000000000000000000003330846114bb565b60008281526006602052604081208054839290610a5e90849061188b565b9091555050600754821115610a735760078290555b604080518381526020810183905233917fc3991418cacd70a010fce559a44fcbb47534ca43bf7543964bdca2639f6e6e5a91015b60405180910390a25050565b6000610ac262093a8042611869565b90506000805b33600090815260036020526040902054811015610c2b57336000908152600360205260408120805483908110610b0057610b006118e0565b600091825260208083209091015480835260029091526040909120600401549091505b600082815260026020526040902060030154811015610c1657600082815260046020908152604080832084845290915290205460ff1680610b6357508481115b80610b7a5750600081815260066020526040902054155b610c045760008281526004602090815260408083208484529091529020805460ff19166001908117909155610bb090829061188b565b600083815260026020908152604080832060048101949094558483526005825280832054600190940154600690925290912054610bed919061190f565b610bf79190611869565b610c01908561188b565b93505b80610c0e816118f6565b915050610b23565b50508080610c23906118f6565b915050610ac8565b50610c577f000000000000000000000000000000000000000000000000000000000000000033836113ae565b60408051600081526020810183905233917fe74e5c9d4ac1fc33412485f18c159a0a391efe287ab3fd271123f30e6bacf4e39101610aa7565b600854600954600091829160ff91821691829190861690610cb390600190611926565b610cbd919061190f565b610cc7919061188b565b610cd1908661190f565b610cdb9190611869565b9150505b92915050565b3360009081526003602052604081205460609190819067ffffffffffffffff811115610d1357610d136116b4565b604051908082528060200260200182016040528015610d3c578160200160208202803683370190505b5090506000610d4e62093a8042611869565b3360009081526003602052604081205491925090815b33600090815260036020526040902054811015610e3757336000908152600360205260408120805483908110610d9c57610d9c6118e0565b906000526020600020015490508460026000838152602001908152602001600020600301541115610df75780868581518110610dda57610dda6118e0565b602090810291909101015283610def816118f6565b945050610e24565b82610e0181611939565b93505080868481518110610e1757610e176118e0565b6020026020010181815250505b5080610e2f816118f6565b915050610d64565b5092959294509192505050565b6000806000806000807f00000000000000000000000000000000000000000000000000000000000000006001600160a01b03166399fbab88886040518263ffffffff1660e01b8152600401610e9b91815260200190565b61018060405180830381865afa158015610eb9573d6000803e3d6000fd5b505050506040513d601f19601f82011682018060405250810190610edd9190611997565b50505050975097509750509650965050507f00000000000000000000000000000000000000000000000000000000000000006001600160a01b0316856001600160a01b0316148015610f6057507f00000000000000000000000000000000000000000000000000000000000000006001600160a01b0316846001600160a01b0316145b610f9c5760405162461bcd60e51b815260206004820152600d60248201526c3638103830b4b91032b93937b960991b6044820152606401610494565b600283900b620d89e719148015610fc45750610fbb620d89e719611a78565b60020b8260020b145b6110035760405162461bcd60e51b815260206004820152601060248201526f3a34b1b5903930b733b29032b93937b960811b6044820152606401610494565b60405163020604bf60e21b81526004810188905230906001600160a01b037f0000000000000000000000000000000000000000000000000000000000000000169063081812fc90602401602060405180830381865afa15801561106a573d6000803e3d6000fd5b505050506040513d601f19601f8201168201806040525081019061108e9190611a9a565b6001600160a01b0316146110d25760405162461bcd60e51b815260206004820152600b60248201526a6e6f7420617070726f766560a81b6044820152606401610494565b604051632142170760e11b8152336004820152306024820152604481018890527f00000000000000000000000000000000000000000000000000000000000000006001600160a01b0316906342842e0e90606401600060405180830381600087803b15801561114057600080fd5b505af1158015611154573d6000803e3d6000fd5b50506001600160801b0390921698975050505050505050565b6000818152600260205260409020546001600160a01b031633146111c55760405162461bcd60e51b815260206004820152600f60248201526e37bbb732b9103337b93134b23232b760891b6044820152606401610494565b60006111d462093a8042611869565b6000838152600260205260409020600301549091508110156112265760405162461bcd60e51b815260206004820152600b60248201526a6c6f636b65642074696d6560a81b6044820152606401610494565b336000908152600360205260408120905b815481101561137357818181548110611252576112526118e0565b90600052602060002001548403611361578154829061127390600190611926565b81548110611283576112836118e0565b90600052602060002001548282815481106112a0576112a06118e0565b9060005260206000200181905550818054806112be576112be611ab7565b600082815260208120820160001990810191909155019055604051632142170760e11b8152306004820152336024820152604481018590526001600160a01b037f000000000000000000000000000000000000000000000000000000000000000016906342842e0e90606401600060405180830381600087803b15801561134457600080fd5b505af1158015611358573d6000803e3d6000fd5b50505050611373565b8061136b816118f6565b915050611237565b5060405183815233907f884edad9ce6fa2440d8a54cc123490eb96d2768479d49ff9c7366125a94243649060200160405180910390a2505050565b604080516001600160a01b038481166024830152604480830185905283518084039091018152606490920183526020820180516001600160e01b031663a9059cbb60e01b179052915160009283929087169161140a9190611acd565b6000604051808303816000865af19150503d8060008114611447576040519150601f19603f3d011682016040523d82523d6000602084013e61144c565b606091505b50915091508180156114765750805115806114765750808060200190518101906114769190611afc565b6114b45760405162461bcd60e51b815260206004820152600f60248201526e1514905394d1915497d19052531151608a1b6044820152606401610494565b5050505050565b604080516001600160a01b0385811660248301528481166044830152606480830185905283518084039091018152608490920183526020820180516001600160e01b03166323b872dd60e01b179052915160009283929088169161151f9190611acd565b6000604051808303816000865af19150503d806000811461155c576040519150601f19603f3d011682016040523d82523d6000602084013e611561565b606091505b509150915081801561158b57508051158061158b57508080602001905181019061158b9190611afc565b6115cd5760405162461bcd60e51b81526020600482015260136024820152721d1c985b9cd9995c919c9bdb4819985a5b1959606a1b6044820152606401610494565b505050505050565b6000602082840312156115e757600080fd5b5035919050565b803560ff811681146115ff57600080fd5b919050565b6000806040838503121561161757600080fd5b82359150611627602084016115ee565b90509250929050565b6001600160a01b038116811461164557600080fd5b50565b6000806040838503121561165b57600080fd5b823561166681611630565b946020939093013593505050565b60006020828403121561168657600080fd5b813561169181611630565b9392505050565b600080604083850312156116ab57600080fd5b611666836115ee565b634e487b7160e01b600052604160045260246000fd5b600082601f8301126116db57600080fd5b8135602067ffffffffffffffff808311156116f8576116f86116b4565b8260051b604051601f19603f8301168101818110848211171561171d5761171d6116b4565b60405293845285810183019383810192508785111561173b57600080fd5b83870191505b8482101561175a57813583529183019190830190611741565b979650505050505050565b60006020828403121561177757600080fd5b813567ffffffffffffffff81111561178e57600080fd5b61179a848285016116ca565b949350505050565b600080604083850312156117b557600080fd5b82359150602083013567ffffffffffffffff8111156117d357600080fd5b6117df858286016116ca565b9150509250929050565b600080604083850312156117fc57600080fd5b50508035926020909101359150565b604080825283519082018190526000906020906060840190828701845b8281101561184457815184529284019290840190600101611828565b50505092019290925292915050565b634e487b7160e01b600052601160045260246000fd5b60008261188657634e487b7160e01b600052601260045260246000fd5b500490565b80820180821115610cdf57610cdf611853565b600060ff821660ff81036118b4576118b4611853565b60010192915050565b6020808252600990820152683337b93134b23232b760b91b604082015260600190565b634e487b7160e01b600052603260045260246000fd5b60006001820161190857611908611853565b5060010190565b8082028115828204841417610cdf57610cdf611853565b81810381811115610cdf57610cdf611853565b60008161194857611948611853565b506000190190565b80516115ff81611630565b805162ffffff811681146115ff57600080fd5b8051600281900b81146115ff57600080fd5b80516001600160801b03811681146115ff57600080fd5b6000806000806000806000806000806000806101808d8f0312156119ba57600080fd5b8c516bffffffffffffffffffffffff811681146119d657600080fd5b9b506119e460208e01611950565b9a506119f260408e01611950565b9950611a0060608e01611950565b9850611a0e60808e0161195b565b9750611a1c60a08e0161196e565b9650611a2a60c08e0161196e565b9550611a3860e08e01611980565b94506101008d015193506101208d01519250611a576101408e01611980565b9150611a666101608e01611980565b90509295989b509295989b509295989b565b60008160020b627fffff198103611a9157611a91611853565b60000392915050565b600060208284031215611aac57600080fd5b815161169181611630565b634e487b7160e01b600052603160045260246000fd5b6000825160005b81811015611aee5760208186018101518583015201611ad4565b506000920191825250919050565b600060208284031215611b0e57600080fd5b8151801515811461169157600080fdfea2646970667358221220e2c0665f5e72606bdaeb67bc4402553cb619ee664f6166f29d3a7428f367e3cc64736f6c63430008110033","opcodes":"PUSH2 0x100 PUSH1 0x40 MSTORE CALLVALUE DUP1 ISZERO PUSH3 0x12 JUMPI PUSH1 0x0 DUP1 REVERT JUMPDEST POP PUSH1 0x40 MLOAD PUSH3 0x1CE5 CODESIZE SUB DUP1 PUSH3 0x1CE5 DUP4 CODECOPY DUP2 ADD PUSH1 0x40 DUP2 SWAP1 MSTORE PUSH3 0x35 SWAP2 PUSH3 0xBB JUMP JUMPDEST PUSH1 0x0 DUP1 SLOAD PUSH1 0x1 PUSH1 0x1 PUSH1 0xA0 SHL SUB NOT AND CALLER OR SWAP1 SSTORE PUSH1 0x1 PUSH1 0x1 PUSH1 0xA0 SHL SUB DUP4 DUP2 AND SWAP1 DUP6 AND LT PUSH3 0x63 JUMPI DUP3 DUP5 PUSH3 0x66 JUMP JUMPDEST DUP4 DUP4 JUMPDEST PUSH1 0x1 PUSH1 0x1 PUSH1 0xA0 SHL SUB SWAP1 DUP2 AND PUSH1 0xC0 MSTORE SWAP1 DUP2 AND PUSH1 0xA0 MSTORE SWAP2 DUP3 AND PUSH1 0x80 MSTORE AND PUSH1 0xE0 MSTORE POP POP PUSH1 0x8 DUP1 SLOAD PUSH1 0xFF NOT AND PUSH1 0x34 OR SWAP1 SSTORE PUSH1 0x2 PUSH1 0x9 SSTORE PUSH3 0x118 JUMP JUMPDEST DUP1 MLOAD PUSH1 0x1 PUSH1 0x1 PUSH1 0xA0 SHL SUB DUP2 AND DUP2 EQ PUSH3 0xB6 JUMPI PUSH1 0x0 DUP1 REVERT JUMPDEST SWAP2 SWAP1 POP JUMP JUMPDEST PUSH1 0x0 DUP1 PUSH1 0x0 DUP1 PUSH1 0x80 DUP6 DUP8 SUB SLT ISZERO PUSH3 0xD2 JUMPI PUSH1 0x0 DUP1 REVERT JUMPDEST PUSH3 0xDD DUP6 PUSH3 0x9E JUMP JUMPDEST SWAP4 POP PUSH3 0xED PUSH1 0x20 DUP7 ADD PUSH3 0x9E JUMP JUMPDEST SWAP3 POP PUSH3 0xFD PUSH1 0x40 DUP7 ADD PUSH3 0x9E JUMP JUMPDEST SWAP2 POP PUSH3 0x10D PUSH1 0x60 DUP7 ADD PUSH3 0x9E JUMP JUMPDEST SWAP1 POP SWAP3 SWAP6 SWAP2 SWAP5 POP SWAP3 POP JUMP JUMPDEST PUSH1 0x80 MLOAD PUSH1 0xA0 MLOAD PUSH1 0xC0 MLOAD PUSH1 0xE0 MLOAD PUSH2 0x1B54 PUSH3 0x191 PUSH1 0x0 CODECOPY PUSH1 0x0 DUP2 DUP2 PUSH2 0x404 ADD MSTORE DUP2 DUP2 PUSH2 0x983 ADD MSTORE DUP2 DUP2 PUSH2 0xA19 ADD MSTORE PUSH2 0xC31 ADD MSTORE PUSH1 0x0 DUP2 DUP2 PUSH2 0x3A2 ADD MSTORE PUSH2 0xF2C ADD MSTORE PUSH1 0x0 DUP2 DUP2 PUSH2 0x195 ADD MSTORE PUSH2 0xEF0 ADD MSTORE PUSH1 0x0 DUP2 DUP2 PUSH2 0x37B ADD MSTORE DUP2 DUP2 PUSH2 0xE4F ADD MSTORE DUP2 DUP2 PUSH2 0x1023 ADD MSTORE DUP2 DUP2 PUSH2 0x10F4 ADD MSTORE PUSH2 0x1300 ADD MSTORE PUSH2 0x1B54 PUSH1 0x0 RETURN INVALID PUSH1 0x80 PUSH1 0x40 MSTORE CALLVALUE DUP1 ISZERO PUSH2 0x10 JUMPI PUSH1 0x0 DUP1 REVERT JUMPDEST POP PUSH1 0x4 CALLDATASIZE LT PUSH2 0x158 JUMPI PUSH1 0x0 CALLDATALOAD PUSH1 0xE0 SHR DUP1 PUSH4 0x9B6E0D74 GT PUSH2 0xC3 JUMPI DUP1 PUSH4 0xD21220A7 GT PUSH2 0x7C JUMPI DUP1 PUSH4 0xD21220A7 EQ PUSH2 0x39D JUMPI DUP1 PUSH4 0xE11400BB EQ PUSH2 0x3C4 JUMPI DUP1 PUSH4 0xEE3453ED EQ PUSH2 0x3E3 JUMPI DUP1 PUSH4 0xF6DEF7CF EQ PUSH2 0x3F6 JUMPI DUP1 PUSH4 0xF7C618C1 EQ PUSH2 0x3FF JUMPI DUP1 PUSH4 0xFDC5AB8E EQ PUSH2 0x426 JUMPI PUSH1 0x0 DUP1 REVERT JUMPDEST DUP1 PUSH4 0x9B6E0D74 EQ PUSH2 0x2EC JUMPI DUP1 PUSH4 0xA47BD496 EQ PUSH2 0x2FF JUMPI DUP1 PUSH4 0xB88A802F EQ PUSH2 0x312 JUMPI DUP1 PUSH4 0xCD671A58 EQ PUSH2 0x31A JUMPI DUP1 PUSH4 0xCE6D3E3E EQ PUSH2 0x338 JUMPI DUP1 PUSH4 0xD06FCBA8 EQ PUSH2 0x376 JUMPI PUSH1 0x0 DUP1 REVERT JUMPDEST DUP1 PUSH4 0x4FB2E45D GT PUSH2 0x115 JUMPI DUP1 PUSH4 0x4FB2E45D EQ PUSH2 0x279 JUMPI DUP1 PUSH4 0x5F8E422F EQ PUSH2 0x28C JUMPI DUP1 PUSH4 0x721348E8 EQ PUSH2 0x294 JUMPI DUP1 PUSH4 0x7E4856C4 EQ PUSH2 0x2A7 JUMPI DUP1 PUSH4 0x8DA5CB5B EQ PUSH2 0x2C6 JUMPI DUP1 PUSH4 0x983D95CE EQ PUSH2 0x2D9 JUMPI PUSH1 0x0 DUP1 REVERT JUMPDEST DUP1 PUSH4 0xBCE1284 EQ PUSH2 0x15D JUMPI DUP1 PUSH4 0xDFE1681 EQ PUSH2 0x190 JUMPI DUP1 PUSH4 0x10087FB1 EQ PUSH2 0x1CF JUMPI DUP1 PUSH4 0x10C6C1C2 EQ PUSH2 0x1E4 JUMPI DUP1 PUSH4 0x291C73C3 EQ PUSH2 0x25D JUMPI DUP1 PUSH4 0x29ED1CFD EQ PUSH2 0x270 JUMPI JUMPDEST PUSH1 0x0 DUP1 REVERT JUMPDEST PUSH2 0x17D PUSH2 0x16B CALLDATASIZE PUSH1 0x4 PUSH2 0x15D5 JUMP JUMPDEST PUSH1 0x6 PUSH1 0x20 MSTORE PUSH1 0x0 SWAP1 DUP2 MSTORE PUSH1 0x40 SWAP1 KECCAK256 SLOAD DUP2 JUMP JUMPDEST PUSH1 0x40 MLOAD SWAP1 DUP2 MSTORE PUSH1 0x20 ADD JUMPDEST PUSH1 0x40 MLOAD DUP1 SWAP2 SUB SWAP1 RETURN JUMPDEST PUSH2 0x1B7 PUSH32 0x0 DUP2 JUMP JUMPDEST PUSH1 0x40 MLOAD PUSH1 0x1 PUSH1 0x1 PUSH1 0xA0 SHL SUB SWAP1 SWAP2 AND DUP2 MSTORE PUSH1 0x20 ADD PUSH2 0x187 JUMP JUMPDEST PUSH2 0x1E2 PUSH2 0x1DD CALLDATASIZE PUSH1 0x4 PUSH2 0x1604 JUMP JUMPDEST PUSH2 0x43C JUMP JUMPDEST STOP JUMPDEST PUSH2 0x22B PUSH2 0x1F2 CALLDATASIZE PUSH1 0x4 PUSH2 0x15D5 JUMP JUMPDEST PUSH1 0x2 PUSH1 0x20 DUP2 SWAP1 MSTORE PUSH1 0x0 SWAP2 DUP3 MSTORE PUSH1 0x40 SWAP1 SWAP2 KECCAK256 DUP1 SLOAD PUSH1 0x1 DUP3 ADD SLOAD SWAP3 DUP3 ADD SLOAD PUSH1 0x3 DUP4 ADD SLOAD PUSH1 0x4 SWAP1 SWAP4 ADD SLOAD PUSH1 0x1 PUSH1 0x1 PUSH1 0xA0 SHL SUB SWAP1 SWAP3 AND SWAP4 SWAP3 SWAP1 SWAP2 DUP6 JUMP JUMPDEST PUSH1 0x40 DUP1 MLOAD PUSH1 0x1 PUSH1 0x1 PUSH1 0xA0 SHL SUB SWAP1 SWAP7 AND DUP7 MSTORE PUSH1 0x20 DUP7 ADD SWAP5 SWAP1 SWAP5 MSTORE SWAP3 DUP5 ADD SWAP2 SWAP1 SWAP2 MSTORE PUSH1 0x60 DUP4 ADD MSTORE PUSH1 0x80 DUP3 ADD MSTORE PUSH1 0xA0 ADD PUSH2 0x187 JUMP JUMPDEST PUSH2 0x17D PUSH2 0x26B CALLDATASIZE PUSH1 0x4 PUSH2 0x1648 JUMP JUMPDEST PUSH2 0x625 JUMP JUMPDEST PUSH2 0x17D PUSH1 0x7 SLOAD DUP2 JUMP JUMPDEST PUSH2 0x1E2 PUSH2 0x287 CALLDATASIZE PUSH1 0x4 PUSH2 0x1674 JUMP JUMPDEST PUSH2 0x656 JUMP JUMPDEST PUSH2 0x1E2 PUSH2 0x6A2 JUMP JUMPDEST PUSH2 0x1E2 PUSH2 0x2A2 CALLDATASIZE PUSH1 0x4 PUSH2 0x1698 JUMP JUMPDEST PUSH2 0x6F3 JUMP JUMPDEST PUSH2 0x2B1 PUSH3 0xF4240 DUP2 JUMP JUMPDEST PUSH1 0x40 MLOAD PUSH4 0xFFFFFFFF SWAP1 SWAP2 AND DUP2 MSTORE PUSH1 0x20 ADD PUSH2 0x187 JUMP JUMPDEST PUSH1 0x0 SLOAD PUSH2 0x1B7 SWAP1 PUSH1 0x1 PUSH1 0x1 PUSH1 0xA0 SHL SUB AND DUP2 JUMP JUMPDEST PUSH2 0x1E2 PUSH2 0x2E7 CALLDATASIZE PUSH1 0x4 PUSH2 0x1765 JUMP JUMPDEST PUSH2 0x77C JUMP JUMPDEST PUSH2 0x1E2 PUSH2 0x2FA CALLDATASIZE PUSH1 0x4 PUSH2 0x17A2 JUMP JUMPDEST PUSH2 0x7C0 JUMP JUMPDEST PUSH2 0x1E2 PUSH2 0x30D CALLDATASIZE PUSH1 0x4 PUSH2 0x17E9 JUMP JUMPDEST PUSH2 0x9EA JUMP JUMPDEST PUSH2 0x1E2 PUSH2 0xAB3 JUMP JUMPDEST PUSH2 0x324 PUSH3 0x93A80 DUP2 JUMP JUMPDEST PUSH1 0x40 MLOAD PUSH3 0xFFFFFF SWAP1 SWAP2 AND DUP2 MSTORE PUSH1 0x20 ADD PUSH2 0x187 JUMP JUMPDEST PUSH2 0x366 PUSH2 0x346 CALLDATASIZE PUSH1 0x4 PUSH2 0x17E9 JUMP JUMPDEST PUSH1 0x4 PUSH1 0x20 SWAP1 DUP2 MSTORE PUSH1 0x0 SWAP3 DUP4 MSTORE PUSH1 0x40 DUP1 DUP5 KECCAK256 SWAP1 SWAP2 MSTORE SWAP1 DUP3 MSTORE SWAP1 KECCAK256 SLOAD PUSH1 0xFF AND DUP2 JUMP JUMPDEST PUSH1 0x40 MLOAD SWAP1 ISZERO ISZERO DUP2 MSTORE PUSH1 0x20 ADD PUSH2 0x187 JUMP JUMPDEST PUSH2 0x1B7 PUSH32 0x0 DUP2 JUMP JUMPDEST PUSH2 0x1B7 PUSH32 0x0 DUP2 JUMP JUMPDEST PUSH1 0x8 SLOAD PUSH2 0x3D1 SWAP1 PUSH1 0xFF AND DUP2 JUMP JUMPDEST PUSH1 0x40 MLOAD PUSH1 0xFF SWAP1 SWAP2 AND DUP2 MSTORE PUSH1 0x20 ADD PUSH2 0x187 JUMP JUMPDEST PUSH2 0x17D PUSH2 0x3F1 CALLDATASIZE PUSH1 0x4 PUSH2 0x1604 JUMP JUMPDEST PUSH2 0xC90 JUMP JUMPDEST PUSH2 0x17D PUSH1 0x9 SLOAD DUP2 JUMP JUMPDEST PUSH2 0x1B7 PUSH32 0x0 DUP2 JUMP JUMPDEST PUSH2 0x42E PUSH2 0xCE5 JUMP JUMPDEST PUSH1 0x40 MLOAD PUSH2 0x187 SWAP3 SWAP2 SWAP1 PUSH2 0x180B JUMP JUMPDEST PUSH1 0x0 DUP2 PUSH1 0xFF AND GT DUP1 ISZERO PUSH2 0x458 JUMPI POP PUSH1 0x8 SLOAD PUSH1 0xFF SWAP1 DUP2 AND SWAP1 DUP3 AND GT ISZERO JUMPDEST PUSH2 0x49D JUMPI PUSH1 0x40 MLOAD PUSH3 0x461BCD PUSH1 0xE5 SHL DUP2 MSTORE PUSH1 0x20 PUSH1 0x4 DUP3 ADD MSTORE PUSH1 0x11 PUSH1 0x24 DUP3 ADD MSTORE PUSH17 0x39BA30B5B2903BB2B2B5B99032B93937B9 PUSH1 0x79 SHL PUSH1 0x44 DUP3 ADD MSTORE PUSH1 0x64 ADD JUMPDEST PUSH1 0x40 MLOAD DUP1 SWAP2 SUB SWAP1 REVERT JUMPDEST PUSH1 0x0 PUSH2 0x4A8 DUP4 PUSH2 0xE44 JUMP JUMPDEST SWAP1 POP PUSH1 0x0 PUSH2 0x4B9 PUSH3 0x93A80 TIMESTAMP PUSH2 0x1869 JUMP JUMPDEST PUSH2 0x4C4 SWAP1 PUSH1 0x1 PUSH2 0x188B JUMP JUMPDEST SWAP1 POP PUSH1 0x0 PUSH2 0x4D2 DUP4 DUP6 PUSH2 0xC90 JUMP JUMPDEST SWAP1 POP PUSH1 0x0 JUMPDEST DUP5 PUSH1 0xFF AND DUP2 PUSH1 0xFF AND LT ISZERO PUSH2 0x52C JUMPI DUP2 PUSH1 0x5 PUSH1 0x0 PUSH2 0x4F7 PUSH1 0xFF DUP6 AND DUP8 PUSH2 0x188B JUMP JUMPDEST DUP2 MSTORE PUSH1 0x20 ADD SWAP1 DUP2 MSTORE PUSH1 0x20 ADD PUSH1 0x0 KECCAK256 PUSH1 0x0 DUP3 DUP3 SLOAD PUSH2 0x514 SWAP2 SWAP1 PUSH2 0x188B JUMP JUMPDEST SWAP1 SWAP2 SSTORE POP DUP2 SWAP1 POP PUSH2 0x524 DUP2 PUSH2 0x189E JUMP JUMPDEST SWAP2 POP POP PUSH2 0x4D7 JUMP JUMPDEST POP PUSH1 0x40 DUP1 MLOAD PUSH1 0xA0 DUP2 ADD DUP3 MSTORE CALLER DUP2 MSTORE PUSH1 0x20 DUP2 ADD DUP4 SWAP1 MSTORE SWAP1 DUP2 ADD DUP4 SWAP1 MSTORE PUSH1 0x60 DUP2 ADD PUSH2 0x558 PUSH1 0xFF DUP8 AND DUP6 PUSH2 0x188B JUMP JUMPDEST DUP2 MSTORE PUSH1 0x20 SWAP1 DUP2 ADD DUP5 SWAP1 MSTORE PUSH1 0x0 DUP8 DUP2 MSTORE PUSH1 0x2 DUP1 DUP4 MSTORE PUSH1 0x40 DUP1 DUP4 KECCAK256 DUP6 MLOAD DUP2 SLOAD PUSH1 0x1 PUSH1 0x1 PUSH1 0xA0 SHL SUB NOT AND PUSH1 0x1 PUSH1 0x1 PUSH1 0xA0 SHL SUB SWAP1 SWAP2 AND OR DUP2 SSTORE DUP6 DUP6 ADD MLOAD PUSH1 0x1 DUP1 DUP4 ADD SWAP2 SWAP1 SWAP2 SSTORE DUP7 DUP4 ADD MLOAD SWAP4 DUP3 ADD SWAP4 SWAP1 SWAP4 SSTORE PUSH1 0x60 DUP1 DUP8 ADD MLOAD PUSH1 0x3 DUP1 DUP5 ADD SWAP2 SWAP1 SWAP2 SSTORE PUSH1 0x80 SWAP1 SWAP8 ADD MLOAD PUSH1 0x4 SWAP1 SWAP3 ADD SWAP2 SWAP1 SWAP2 SSTORE CALLER DUP1 DUP6 MSTORE SWAP6 DUP6 MSTORE DUP2 DUP5 KECCAK256 DUP1 SLOAD SWAP4 DUP5 ADD DUP2 SSTORE DUP5 MSTORE SWAP3 DUP5 SWAP1 KECCAK256 SWAP1 SWAP2 ADD DUP10 SWAP1 SSTORE DUP1 MLOAD DUP10 DUP2 MSTORE SWAP3 DUP4 ADD DUP8 SWAP1 MSTORE PUSH1 0xFF DUP9 AND SWAP1 DUP4 ADD MSTORE PUSH32 0x6FA2F6021EE337436CDF2B2570285886DA18BC06402CE284D296504A0FE8F875 SWAP2 ADD PUSH1 0x40 MLOAD DUP1 SWAP2 SUB SWAP1 LOG2 POP POP POP POP POP JUMP JUMPDEST PUSH1 0x3 PUSH1 0x20 MSTORE DUP2 PUSH1 0x0 MSTORE PUSH1 0x40 PUSH1 0x0 KECCAK256 DUP2 DUP2 SLOAD DUP2 LT PUSH2 0x641 JUMPI PUSH1 0x0 DUP1 REVERT JUMPDEST SWAP1 PUSH1 0x0 MSTORE PUSH1 0x20 PUSH1 0x0 KECCAK256 ADD PUSH1 0x0 SWAP2 POP SWAP2 POP POP SLOAD DUP2 JUMP JUMPDEST PUSH1 0x0 SLOAD PUSH1 0x1 PUSH1 0x1 PUSH1 0xA0 SHL SUB AND CALLER EQ PUSH2 0x680 JUMPI PUSH1 0x40 MLOAD PUSH3 0x461BCD PUSH1 0xE5 SHL DUP2 MSTORE PUSH1 0x4 ADD PUSH2 0x494 SWAP1 PUSH2 0x18BD JUMP JUMPDEST PUSH1 0x1 DUP1 SLOAD PUSH1 0x1 PUSH1 0x1 PUSH1 0xA0 SHL SUB NOT AND PUSH1 0x1 PUSH1 0x1 PUSH1 0xA0 SHL SUB SWAP3 SWAP1 SWAP3 AND SWAP2 SWAP1 SWAP2 OR SWAP1 SSTORE JUMP JUMPDEST PUSH1 0x1 SLOAD PUSH1 0x1 PUSH1 0x1 PUSH1 0xA0 SHL SUB AND CALLER EQ PUSH2 0x6CC JUMPI PUSH1 0x40 MLOAD PUSH3 0x461BCD PUSH1 0xE5 SHL DUP2 MSTORE PUSH1 0x4 ADD PUSH2 0x494 SWAP1 PUSH2 0x18BD JUMP JUMPDEST PUSH1 0x1 DUP1 SLOAD PUSH1 0x0 DUP1 SLOAD PUSH1 0x1 PUSH1 0x1 PUSH1 0xA0 SHL SUB NOT SWAP1 DUP2 AND PUSH1 0x1 PUSH1 0x1 PUSH1 0xA0 SHL SUB DUP5 AND OR SWAP1 SWAP2 SSTORE AND SWAP1 SSTORE JUMP JUMPDEST PUSH1 0x0 SLOAD PUSH1 0x1 PUSH1 0x1 PUSH1 0xA0 SHL SUB AND CALLER EQ PUSH2 0x71D JUMPI PUSH1 0x40 MLOAD PUSH3 0x461BCD PUSH1 0xE5 SHL DUP2 MSTORE PUSH1 0x4 ADD PUSH2 0x494 SWAP1 PUSH2 0x18BD JUMP JUMPDEST PUSH1 0x1 DUP2 GT PUSH2 0x762 JUMPI PUSH1 0x40 MLOAD PUSH3 0x461BCD PUSH1 0xE5 SHL DUP2 MSTORE PUSH1 0x20 PUSH1 0x4 DUP3 ADD MSTORE PUSH1 0x12 PUSH1 0x24 DUP3 ADD MSTORE PUSH18 0x1B585E14D8D85B19481D1BDBC81CDB585B1B PUSH1 0x72 SHL PUSH1 0x44 DUP3 ADD MSTORE PUSH1 0x64 ADD PUSH2 0x494 JUMP JUMPDEST PUSH1 0x8 DUP1 SLOAD PUSH1 0xFF NOT AND PUSH1 0xFF SWAP4 SWAP1 SWAP4 AND SWAP3 SWAP1 SWAP3 OR SWAP1 SWAP2 SSTORE PUSH1 0x9 SSTORE JUMP JUMPDEST PUSH1 0x0 JUMPDEST DUP2 MLOAD DUP2 LT ISZERO PUSH2 0x7BC JUMPI PUSH2 0x7AA DUP3 DUP3 DUP2 MLOAD DUP2 LT PUSH2 0x79D JUMPI PUSH2 0x79D PUSH2 0x18E0 JUMP JUMPDEST PUSH1 0x20 MUL PUSH1 0x20 ADD ADD MLOAD PUSH2 0x116D JUMP JUMPDEST DUP1 PUSH2 0x7B4 DUP2 PUSH2 0x18F6 JUMP JUMPDEST SWAP2 POP POP PUSH2 0x77F JUMP JUMPDEST POP POP JUMP JUMPDEST PUSH1 0x0 DUP3 DUP2 MSTORE PUSH1 0x2 PUSH1 0x20 MSTORE PUSH1 0x40 SWAP1 KECCAK256 SLOAD PUSH1 0x1 PUSH1 0x1 PUSH1 0xA0 SHL SUB AND CALLER EQ PUSH2 0x818 JUMPI PUSH1 0x40 MLOAD PUSH3 0x461BCD PUSH1 0xE5 SHL DUP2 MSTORE PUSH1 0x20 PUSH1 0x4 DUP3 ADD MSTORE PUSH1 0xF PUSH1 0x24 DUP3 ADD MSTORE PUSH15 0x37BBB732B9103337B93134B23232B7 PUSH1 0x89 SHL PUSH1 0x44 DUP3 ADD MSTORE PUSH1 0x64 ADD PUSH2 0x494 JUMP JUMPDEST PUSH1 0x0 PUSH2 0x827 PUSH3 0x93A80 TIMESTAMP PUSH2 0x1869 JUMP JUMPDEST SWAP1 POP PUSH1 0x0 DUP1 JUMPDEST DUP4 MLOAD DUP2 LT ISZERO PUSH2 0x97D JUMPI PUSH1 0x0 DUP5 DUP3 DUP2 MLOAD DUP2 LT PUSH2 0x84A JUMPI PUSH2 0x84A PUSH2 0x18E0 JUMP JUMPDEST PUSH1 0x20 SWAP1 DUP2 MUL SWAP2 SWAP1 SWAP2 ADD DUP2 ADD MLOAD PUSH1 0x0 DUP9 DUP2 MSTORE PUSH1 0x4 DUP4 MSTORE PUSH1 0x40 DUP1 DUP3 KECCAK256 DUP4 DUP4 MSTORE SWAP1 SWAP4 MSTORE SWAP2 SWAP1 SWAP2 KECCAK256 SLOAD SWAP1 SWAP2 POP PUSH1 0xFF AND ISZERO PUSH2 0x880 JUMPI POP PUSH2 0x96B JUMP JUMPDEST PUSH1 0x0 DUP7 DUP2 MSTORE PUSH1 0x4 PUSH1 0x20 SWAP1 DUP2 MSTORE PUSH1 0x40 DUP1 DUP4 KECCAK256 DUP5 DUP5 MSTORE SWAP1 SWAP2 MSTORE SWAP1 KECCAK256 SLOAD PUSH1 0xFF AND DUP1 PUSH2 0x8B9 JUMPI POP PUSH1 0x0 DUP7 DUP2 MSTORE PUSH1 0x2 PUSH1 0x20 MSTORE PUSH1 0x40 SWAP1 KECCAK256 PUSH1 0x3 ADD SLOAD DUP2 LT ISZERO JUMPDEST DUP1 PUSH2 0x8D5 JUMPI POP PUSH1 0x0 DUP7 DUP2 MSTORE PUSH1 0x2 PUSH1 0x20 DUP2 SWAP1 MSTORE PUSH1 0x40 SWAP1 SWAP2 KECCAK256 ADD SLOAD DUP2 LT JUMPDEST DUP1 PUSH2 0x8DF JUMPI POP DUP4 DUP2 GT JUMPDEST DUP1 PUSH2 0x8F6 JUMPI POP PUSH1 0x0 DUP2 DUP2 MSTORE PUSH1 0x6 PUSH1 0x20 MSTORE PUSH1 0x40 SWAP1 KECCAK256 SLOAD ISZERO JUMPDEST ISZERO PUSH2 0x901 JUMPI POP PUSH2 0x96B JUMP JUMPDEST PUSH1 0x0 DUP7 DUP2 MSTORE PUSH1 0x4 PUSH1 0x20 SWAP1 DUP2 MSTORE PUSH1 0x40 DUP1 DUP4 KECCAK256 DUP5 DUP5 MSTORE DUP3 MSTORE DUP1 DUP4 KECCAK256 DUP1 SLOAD PUSH1 0xFF NOT AND PUSH1 0x1 SWAP1 DUP2 OR SWAP1 SWAP2 SSTORE PUSH1 0x5 DUP4 MSTORE DUP2 DUP5 KECCAK256 SLOAD DUP11 DUP6 MSTORE PUSH1 0x2 DUP5 MSTORE DUP3 DUP6 KECCAK256 SWAP1 SWAP2 ADD SLOAD DUP6 DUP6 MSTORE PUSH1 0x6 SWAP1 SWAP4 MSTORE SWAP3 KECCAK256 SLOAD PUSH2 0x953 SWAP2 SWAP1 PUSH2 0x190F JUMP JUMPDEST PUSH2 0x95D SWAP2 SWAP1 PUSH2 0x1869 JUMP JUMPDEST PUSH2 0x967 SWAP1 DUP5 PUSH2 0x188B JUMP JUMPDEST SWAP3 POP POP JUMPDEST DUP1 PUSH2 0x975 DUP2 PUSH2 0x18F6 JUMP JUMPDEST SWAP2 POP POP PUSH2 0x82D JUMP JUMPDEST POP PUSH2 0x9A9 PUSH32 0x0 CALLER DUP4 PUSH2 0x13AE JUMP JUMPDEST PUSH1 0x40 DUP1 MLOAD DUP6 DUP2 MSTORE PUSH1 0x20 DUP2 ADD DUP4 SWAP1 MSTORE CALLER SWAP2 PUSH32 0xE74E5C9D4AC1FC33412485F18C159A0A391EFE287AB3FD271123F30E6BACF4E3 SWAP2 ADD PUSH1 0x40 MLOAD DUP1 SWAP2 SUB SWAP1 LOG2 POP POP POP POP JUMP JUMPDEST PUSH1 0x0 SLOAD PUSH1 0x1 PUSH1 0x1 PUSH1 0xA0 SHL SUB AND CALLER EQ PUSH2 0xA14 JUMPI PUSH1 0x40 MLOAD PUSH3 0x461BCD PUSH1 0xE5 SHL DUP2 MSTORE PUSH1 0x4 ADD PUSH2 0x494 SWAP1 PUSH2 0x18BD JUMP JUMPDEST PUSH2 0xA40 PUSH32 0x0 CALLER ADDRESS DUP5 PUSH2 0x14BB JUMP JUMPDEST PUSH1 0x0 DUP3 DUP2 MSTORE PUSH1 0x6 PUSH1 0x20 MSTORE PUSH1 0x40 DUP2 KECCAK256 DUP1 SLOAD DUP4 SWAP3 SWAP1 PUSH2 0xA5E SWAP1 DUP5 SWAP1 PUSH2 0x188B JUMP JUMPDEST SWAP1 SWAP2 SSTORE POP POP PUSH1 0x7 SLOAD DUP3 GT ISZERO PUSH2 0xA73 JUMPI PUSH1 0x7 DUP3 SWAP1 SSTORE JUMPDEST PUSH1 0x40 DUP1 MLOAD DUP4 DUP2 MSTORE PUSH1 0x20 DUP2 ADD DUP4 SWAP1 MSTORE CALLER SWAP2 PUSH32 0xC3991418CACD70A010FCE559A44FCBB47534CA43BF7543964BDCA2639F6E6E5A SWAP2 ADD JUMPDEST PUSH1 0x40 MLOAD DUP1 SWAP2 SUB SWAP1 LOG2 POP POP JUMP JUMPDEST PUSH1 0x0 PUSH2 0xAC2 PUSH3 0x93A80 TIMESTAMP PUSH2 0x1869 JUMP JUMPDEST SWAP1 POP PUSH1 0x0 DUP1 JUMPDEST CALLER PUSH1 0x0 SWAP1 DUP2 MSTORE PUSH1 0x3 PUSH1 0x20 MSTORE PUSH1 0x40 SWAP1 KECCAK256 SLOAD DUP2 LT ISZERO PUSH2 0xC2B JUMPI CALLER PUSH1 0x0 SWAP1 DUP2 MSTORE PUSH1 0x3 PUSH1 0x20 MSTORE PUSH1 0x40 DUP2 KECCAK256 DUP1 SLOAD DUP4 SWAP1 DUP2 LT PUSH2 0xB00 JUMPI PUSH2 0xB00 PUSH2 0x18E0 JUMP JUMPDEST PUSH1 0x0 SWAP2 DUP3 MSTORE PUSH1 0x20 DUP1 DUP4 KECCAK256 SWAP1 SWAP2 ADD SLOAD DUP1 DUP4 MSTORE PUSH1 0x2 SWAP1 SWAP2 MSTORE PUSH1 0x40 SWAP1 SWAP2 KECCAK256 PUSH1 0x4 ADD SLOAD SWAP1 SWAP2 POP JUMPDEST PUSH1 0x0 DUP3 DUP2 MSTORE PUSH1 0x2 PUSH1 0x20 MSTORE PUSH1 0x40 SWAP1 KECCAK256 PUSH1 0x3 ADD SLOAD DUP2 LT ISZERO PUSH2 0xC16 JUMPI PUSH1 0x0 DUP3 DUP2 MSTORE PUSH1 0x4 PUSH1 0x20 SWAP1 DUP2 MSTORE PUSH1 0x40 DUP1 DUP4 KECCAK256 DUP5 DUP5 MSTORE SWAP1 SWAP2 MSTORE SWAP1 KECCAK256 SLOAD PUSH1 0xFF AND DUP1 PUSH2 0xB63 JUMPI POP DUP5 DUP2 GT JUMPDEST DUP1 PUSH2 0xB7A JUMPI POP PUSH1 0x0 DUP2 DUP2 MSTORE PUSH1 0x6 PUSH1 0x20 MSTORE PUSH1 0x40 SWAP1 KECCAK256 SLOAD ISZERO JUMPDEST PUSH2 0xC04 JUMPI PUSH1 0x0 DUP3 DUP2 MSTORE PUSH1 0x4 PUSH1 0x20 SWAP1 DUP2 MSTORE PUSH1 0x40 DUP1 DUP4 KECCAK256 DUP5 DUP5 MSTORE SWAP1 SWAP2 MSTORE SWAP1 KECCAK256 DUP1 SLOAD PUSH1 0xFF NOT AND PUSH1 0x1 SWAP1 DUP2 OR SWAP1 SWAP2 SSTORE PUSH2 0xBB0 SWAP1 DUP3 SWAP1 PUSH2 0x188B JUMP JUMPDEST PUSH1 0x0 DUP4 DUP2 MSTORE PUSH1 0x2 PUSH1 0x20 SWAP1 DUP2 MSTORE PUSH1 0x40 DUP1 DUP4 KECCAK256 PUSH1 0x4 DUP2 ADD SWAP5 SWAP1 SWAP5 SSTORE DUP5 DUP4 MSTORE PUSH1 0x5 DUP3 MSTORE DUP1 DUP4 KECCAK256 SLOAD PUSH1 0x1 SWAP1 SWAP5 ADD SLOAD PUSH1 0x6 SWAP1 SWAP3 MSTORE SWAP1 SWAP2 KECCAK256 SLOAD PUSH2 0xBED SWAP2 SWAP1 PUSH2 0x190F JUMP JUMPDEST PUSH2 0xBF7 SWAP2 SWAP1 PUSH2 0x1869 JUMP JUMPDEST PUSH2 0xC01 SWAP1 DUP6 PUSH2 0x188B JUMP JUMPDEST SWAP4 POP JUMPDEST DUP1 PUSH2 0xC0E DUP2 PUSH2 0x18F6 JUMP JUMPDEST SWAP2 POP POP PUSH2 0xB23 JUMP JUMPDEST POP POP DUP1 DUP1 PUSH2 0xC23 SWAP1 PUSH2 0x18F6 JUMP JUMPDEST SWAP2 POP POP PUSH2 0xAC8 JUMP JUMPDEST POP PUSH2 0xC57 PUSH32 0x0 CALLER DUP4 PUSH2 0x13AE JUMP JUMPDEST PUSH1 0x40 DUP1 MLOAD PUSH1 0x0 DUP2 MSTORE PUSH1 0x20 DUP2 ADD DUP4 SWAP1 MSTORE CALLER SWAP2 PUSH32 0xE74E5C9D4AC1FC33412485F18C159A0A391EFE287AB3FD271123F30E6BACF4E3 SWAP2 ADD PUSH2 0xAA7 JUMP JUMPDEST PUSH1 0x8 SLOAD PUSH1 0x9 SLOAD PUSH1 0x0 SWAP2 DUP3 SWAP2 PUSH1 0xFF SWAP2 DUP3 AND SWAP2 DUP3 SWAP2 SWAP1 DUP7 AND SWAP1 PUSH2 0xCB3 SWAP1 PUSH1 0x1 SWAP1 PUSH2 0x1926 JUMP JUMPDEST PUSH2 0xCBD SWAP2 SWAP1 PUSH2 0x190F JUMP JUMPDEST PUSH2 0xCC7 SWAP2 SWAP1 PUSH2 0x188B JUMP JUMPDEST PUSH2 0xCD1 SWAP1 DUP7 PUSH2 0x190F JUMP JUMPDEST PUSH2 0xCDB SWAP2 SWAP1 PUSH2 0x1869 JUMP JUMPDEST SWAP2 POP POP JUMPDEST SWAP3 SWAP2 POP POP JUMP JUMPDEST CALLER PUSH1 0x0 SWAP1 DUP2 MSTORE PUSH1 0x3 PUSH1 0x20 MSTORE PUSH1 0x40 DUP2 KECCAK256 SLOAD PUSH1 0x60 SWAP2 SWAP1 DUP2 SWAP1 PUSH8 0xFFFFFFFFFFFFFFFF DUP2 GT ISZERO PUSH2 0xD13 JUMPI PUSH2 0xD13 PUSH2 0x16B4 JUMP JUMPDEST PUSH1 0x40 MLOAD SWAP1 DUP1 DUP3 MSTORE DUP1 PUSH1 0x20 MUL PUSH1 0x20 ADD DUP3 ADD PUSH1 0x40 MSTORE DUP1 ISZERO PUSH2 0xD3C JUMPI DUP2 PUSH1 0x20 ADD PUSH1 0x20 DUP3 MUL DUP1 CALLDATASIZE DUP4 CALLDATACOPY ADD SWAP1 POP JUMPDEST POP SWAP1 POP PUSH1 0x0 PUSH2 0xD4E PUSH3 0x93A80 TIMESTAMP PUSH2 0x1869 JUMP JUMPDEST CALLER PUSH1 0x0 SWAP1 DUP2 MSTORE PUSH1 0x3 PUSH1 0x20 MSTORE PUSH1 0x40 DUP2 KECCAK256 SLOAD SWAP2 SWAP3 POP SWAP1 DUP2 JUMPDEST CALLER PUSH1 0x0 SWAP1 DUP2 MSTORE PUSH1 0x3 PUSH1 0x20 MSTORE PUSH1 0x40 SWAP1 KECCAK256 SLOAD DUP2 LT ISZERO PUSH2 0xE37 JUMPI CALLER PUSH1 0x0 SWAP1 DUP2 MSTORE PUSH1 0x3 PUSH1 0x20 MSTORE PUSH1 0x40 DUP2 KECCAK256 DUP1 SLOAD DUP4 SWAP1 DUP2 LT PUSH2 0xD9C JUMPI PUSH2 0xD9C PUSH2 0x18E0 JUMP JUMPDEST SWAP1 PUSH1 0x0 MSTORE PUSH1 0x20 PUSH1 0x0 KECCAK256 ADD SLOAD SWAP1 POP DUP5 PUSH1 0x2 PUSH1 0x0 DUP4 DUP2 MSTORE PUSH1 0x20 ADD SWAP1 DUP2 MSTORE PUSH1 0x20 ADD PUSH1 0x0 KECCAK256 PUSH1 0x3 ADD SLOAD GT ISZERO PUSH2 0xDF7 JUMPI DUP1 DUP7 DUP6 DUP2 MLOAD DUP2 LT PUSH2 0xDDA JUMPI PUSH2 0xDDA PUSH2 0x18E0 JUMP JUMPDEST PUSH1 0x20 SWAP1 DUP2 MUL SWAP2 SWAP1 SWAP2 ADD ADD MSTORE DUP4 PUSH2 0xDEF DUP2 PUSH2 0x18F6 JUMP JUMPDEST SWAP5 POP POP PUSH2 0xE24 JUMP JUMPDEST DUP3 PUSH2 0xE01 DUP2 PUSH2 0x1939 JUMP JUMPDEST SWAP4 POP POP DUP1 DUP7 DUP5 DUP2 MLOAD DUP2 LT PUSH2 0xE17 JUMPI PUSH2 0xE17 PUSH2 0x18E0 JUMP JUMPDEST PUSH1 0x20 MUL PUSH1 0x20 ADD ADD DUP2 DUP2 MSTORE POP POP JUMPDEST POP DUP1 PUSH2 0xE2F DUP2 PUSH2 0x18F6 JUMP JUMPDEST SWAP2 POP POP PUSH2 0xD64 JUMP JUMPDEST POP SWAP3 SWAP6 SWAP3 SWAP5 POP SWAP2 SWAP3 POP POP POP JUMP JUMPDEST PUSH1 0x0 DUP1 PUSH1 0x0 DUP1 PUSH1 0x0 DUP1 PUSH32 0x0 PUSH1 0x1 PUSH1 0x1 PUSH1 0xA0 SHL SUB AND PUSH4 0x99FBAB88 DUP9 PUSH1 0x40 MLOAD DUP3 PUSH4 0xFFFFFFFF AND PUSH1 0xE0 SHL DUP2 MSTORE PUSH1 0x4 ADD PUSH2 0xE9B SWAP2 DUP2 MSTORE PUSH1 0x20 ADD SWAP1 JUMP JUMPDEST PUSH2 0x180 PUSH1 0x40 MLOAD DUP1 DUP4 SUB DUP2 DUP7 GAS STATICCALL ISZERO DUP1 ISZERO PUSH2 0xEB9 JUMPI RETURNDATASIZE PUSH1 0x0 DUP1 RETURNDATACOPY RETURNDATASIZE PUSH1 0x0 REVERT JUMPDEST POP POP POP POP PUSH1 0x40 MLOAD RETURNDATASIZE PUSH1 0x1F NOT PUSH1 0x1F DUP3 ADD AND DUP3 ADD DUP1 PUSH1 0x40 MSTORE POP DUP2 ADD SWAP1 PUSH2 0xEDD SWAP2 SWAP1 PUSH2 0x1997 JUMP JUMPDEST POP POP POP POP SWAP8 POP SWAP8 POP SWAP8 POP POP SWAP7 POP SWAP7 POP POP POP PUSH32 0x0 PUSH1 0x1 PUSH1 0x1 PUSH1 0xA0 SHL SUB AND DUP6 PUSH1 0x1 PUSH1 0x1 PUSH1 0xA0 SHL SUB AND EQ DUP1 ISZERO PUSH2 0xF60 JUMPI POP PUSH32 0x0 PUSH1 0x1 PUSH1 0x1 PUSH1 0xA0 SHL SUB AND DUP5 PUSH1 0x1 PUSH1 0x1 PUSH1 0xA0 SHL SUB AND EQ JUMPDEST PUSH2 0xF9C JUMPI PUSH1 0x40 MLOAD PUSH3 0x461BCD PUSH1 0xE5 SHL DUP2 MSTORE PUSH1 0x20 PUSH1 0x4 DUP3 ADD MSTORE PUSH1 0xD PUSH1 0x24 DUP3 ADD MSTORE PUSH13 0x3638103830B4B91032B93937B9 PUSH1 0x99 SHL PUSH1 0x44 DUP3 ADD MSTORE PUSH1 0x64 ADD PUSH2 0x494 JUMP JUMPDEST PUSH1 0x2 DUP4 SWAP1 SIGNEXTEND PUSH3 0xD89E7 NOT EQ DUP1 ISZERO PUSH2 0xFC4 JUMPI POP PUSH2 0xFBB PUSH3 0xD89E7 NOT PUSH2 0x1A78 JUMP JUMPDEST PUSH1 0x2 SIGNEXTEND DUP3 PUSH1 0x2 SIGNEXTEND EQ JUMPDEST PUSH2 0x1003 JUMPI PUSH1 0x40 MLOAD PUSH3 0x461BCD PUSH1 0xE5 SHL DUP2 MSTORE PUSH1 0x20 PUSH1 0x4 DUP3 ADD MSTORE PUSH1 0x10 PUSH1 0x24 DUP3 ADD MSTORE PUSH16 0x3A34B1B5903930B733B29032B93937B9 PUSH1 0x81 SHL PUSH1 0x44 DUP3 ADD MSTORE PUSH1 0x64 ADD PUSH2 0x494 JUMP JUMPDEST PUSH1 0x40 MLOAD PUSH4 0x20604BF PUSH1 0xE2 SHL DUP2 MSTORE PUSH1 0x4 DUP2 ADD DUP9 SWAP1 MSTORE ADDRESS SWAP1 PUSH1 0x1 PUSH1 0x1 PUSH1 0xA0 SHL SUB PUSH32 0x0 AND SWAP1 PUSH4 0x81812FC SWAP1 PUSH1 0x24 ADD PUSH1 0x20 PUSH1 0x40 MLOAD DUP1 DUP4 SUB DUP2 DUP7 GAS STATICCALL ISZERO DUP1 ISZERO PUSH2 0x106A JUMPI RETURNDATASIZE PUSH1 0x0 DUP1 RETURNDATACOPY RETURNDATASIZE PUSH1 0x0 REVERT JUMPDEST POP POP POP POP PUSH1 0x40 MLOAD RETURNDATASIZE PUSH1 0x1F NOT PUSH1 0x1F DUP3 ADD AND DUP3 ADD DUP1 PUSH1 0x40 MSTORE POP DUP2 ADD SWAP1 PUSH2 0x108E SWAP2 SWAP1 PUSH2 0x1A9A JUMP JUMPDEST PUSH1 0x1 PUSH1 0x1 PUSH1 0xA0 SHL SUB AND EQ PUSH2 0x10D2 JUMPI PUSH1 0x40 MLOAD PUSH3 0x461BCD PUSH1 0xE5 SHL DUP2 MSTORE PUSH1 0x20 PUSH1 0x4 DUP3 ADD MSTORE PUSH1 0xB PUSH1 0x24 DUP3 ADD MSTORE PUSH11 0x6E6F7420617070726F7665 PUSH1 0xA8 SHL PUSH1 0x44 DUP3 ADD MSTORE PUSH1 0x64 ADD PUSH2 0x494 JUMP JUMPDEST PUSH1 0x40 MLOAD PUSH4 0x21421707 PUSH1 0xE1 SHL DUP2 MSTORE CALLER PUSH1 0x4 DUP3 ADD MSTORE ADDRESS PUSH1 0x24 DUP3 ADD MSTORE PUSH1 0x44 DUP2 ADD DUP9 SWAP1 MSTORE PUSH32 0x0 PUSH1 0x1 PUSH1 0x1 PUSH1 0xA0 SHL SUB AND SWAP1 PUSH4 0x42842E0E SWAP1 PUSH1 0x64 ADD PUSH1 0x0 PUSH1 0x40 MLOAD DUP1 DUP4 SUB DUP2 PUSH1 0x0 DUP8 DUP1 EXTCODESIZE ISZERO DUP1 ISZERO PUSH2 0x1140 JUMPI PUSH1 0x0 DUP1 REVERT JUMPDEST POP GAS CALL ISZERO DUP1 ISZERO PUSH2 0x1154 JUMPI RETURNDATASIZE PUSH1 0x0 DUP1 RETURNDATACOPY RETURNDATASIZE PUSH1 0x0 REVERT JUMPDEST POP POP PUSH1 0x1 PUSH1 0x1 PUSH1 0x80 SHL SUB SWAP1 SWAP3 AND SWAP9 SWAP8 POP POP POP POP POP POP POP POP JUMP JUMPDEST PUSH1 0x0 DUP2 DUP2 MSTORE PUSH1 0x2 PUSH1 0x20 MSTORE PUSH1 0x40 SWAP1 KECCAK256 SLOAD PUSH1 0x1 PUSH1 0x1 PUSH1 0xA0 SHL SUB AND CALLER EQ PUSH2 0x11C5 JUMPI PUSH1 0x40 MLOAD PUSH3 0x461BCD PUSH1 0xE5 SHL DUP2 MSTORE PUSH1 0x20 PUSH1 0x4 DUP3 ADD MSTORE PUSH1 0xF PUSH1 0x24 DUP3 ADD MSTORE PUSH15 0x37BBB732B9103337B93134B23232B7 PUSH1 0x89 SHL PUSH1 0x44 DUP3 ADD MSTORE PUSH1 0x64 ADD PUSH2 0x494 JUMP JUMPDEST PUSH1 0x0 PUSH2 0x11D4 PUSH3 0x93A80 TIMESTAMP PUSH2 0x1869 JUMP JUMPDEST PUSH1 0x0 DUP4 DUP2 MSTORE PUSH1 0x2 PUSH1 0x20 MSTORE PUSH1 0x40 SWAP1 KECCAK256 PUSH1 0x3 ADD SLOAD SWAP1 SWAP2 POP DUP2 LT ISZERO PUSH2 0x1226 JUMPI PUSH1 0x40 MLOAD PUSH3 0x461BCD PUSH1 0xE5 SHL DUP2 MSTORE PUSH1 0x20 PUSH1 0x4 DUP3 ADD MSTORE PUSH1 0xB PUSH1 0x24 DUP3 ADD MSTORE PUSH11 0x6C6F636B65642074696D65 PUSH1 0xA8 SHL PUSH1 0x44 DUP3 ADD MSTORE PUSH1 0x64 ADD PUSH2 0x494 JUMP JUMPDEST CALLER PUSH1 0x0 SWAP1 DUP2 MSTORE PUSH1 0x3 PUSH1 0x20 MSTORE PUSH1 0x40 DUP2 KECCAK256 SWAP1 JUMPDEST DUP2 SLOAD DUP2 LT ISZERO PUSH2 0x1373 JUMPI DUP2 DUP2 DUP2 SLOAD DUP2 LT PUSH2 0x1252 JUMPI PUSH2 0x1252 PUSH2 0x18E0 JUMP JUMPDEST SWAP1 PUSH1 0x0 MSTORE PUSH1 0x20 PUSH1 0x0 KECCAK256 ADD SLOAD DUP5 SUB PUSH2 0x1361 JUMPI DUP2 SLOAD DUP3 SWAP1 PUSH2 0x1273 SWAP1 PUSH1 0x1 SWAP1 PUSH2 0x1926 JUMP JUMPDEST DUP2 SLOAD DUP2 LT PUSH2 0x1283 JUMPI PUSH2 0x1283 PUSH2 0x18E0 JUMP JUMPDEST SWAP1 PUSH1 0x0 MSTORE PUSH1 0x20 PUSH1 0x0 KECCAK256 ADD SLOAD DUP3 DUP3 DUP2 SLOAD DUP2 LT PUSH2 0x12A0 JUMPI PUSH2 0x12A0 PUSH2 0x18E0 JUMP JUMPDEST SWAP1 PUSH1 0x0 MSTORE PUSH1 0x20 PUSH1 0x0 KECCAK256 ADD DUP2 SWAP1 SSTORE POP DUP2 DUP1 SLOAD DUP1 PUSH2 0x12BE JUMPI PUSH2 0x12BE PUSH2 0x1AB7 JUMP JUMPDEST PUSH1 0x0 DUP3 DUP2 MSTORE PUSH1 0x20 DUP2 KECCAK256 DUP3 ADD PUSH1 0x0 NOT SWAP1 DUP2 ADD SWAP2 SWAP1 SWAP2 SSTORE ADD SWAP1 SSTORE PUSH1 0x40 MLOAD PUSH4 0x21421707 PUSH1 0xE1 SHL DUP2 MSTORE ADDRESS PUSH1 0x4 DUP3 ADD MSTORE CALLER PUSH1 0x24 DUP3 ADD MSTORE PUSH1 0x44 DUP2 ADD DUP6 SWAP1 MSTORE PUSH1 0x1 PUSH1 0x1 PUSH1 0xA0 SHL SUB PUSH32 0x0 AND SWAP1 PUSH4 0x42842E0E SWAP1 PUSH1 0x64 ADD PUSH1 0x0 PUSH1 0x40 MLOAD DUP1 DUP4 SUB DUP2 PUSH1 0x0 DUP8 DUP1 EXTCODESIZE ISZERO DUP1 ISZERO PUSH2 0x1344 JUMPI PUSH1 0x0 DUP1 REVERT JUMPDEST POP GAS CALL ISZERO DUP1 ISZERO PUSH2 0x1358 JUMPI RETURNDATASIZE PUSH1 0x0 DUP1 RETURNDATACOPY RETURNDATASIZE PUSH1 0x0 REVERT JUMPDEST POP POP POP POP PUSH2 0x1373 JUMP JUMPDEST DUP1 PUSH2 0x136B DUP2 PUSH2 0x18F6 JUMP JUMPDEST SWAP2 POP POP PUSH2 0x1237 JUMP JUMPDEST POP PUSH1 0x40 MLOAD DUP4 DUP2 MSTORE CALLER SWAP1 PUSH32 0x884EDAD9CE6FA2440D8A54CC123490EB96D2768479D49FF9C7366125A9424364 SWAP1 PUSH1 0x20 ADD PUSH1 0x40 MLOAD DUP1 SWAP2 SUB SWAP1 LOG2 POP POP POP JUMP JUMPDEST PUSH1 0x40 DUP1 MLOAD PUSH1 0x1 PUSH1 0x1 PUSH1 0xA0 SHL SUB DUP5 DUP2 AND PUSH1 0x24 DUP4 ADD MSTORE PUSH1 0x44 DUP1 DUP4 ADD DUP6 SWAP1 MSTORE DUP4 MLOAD DUP1 DUP5 SUB SWAP1 SWAP2 ADD DUP2 MSTORE PUSH1 0x64 SWAP1 SWAP3 ADD DUP4 MSTORE PUSH1 0x20 DUP3 ADD DUP1 MLOAD PUSH1 0x1 PUSH1 0x1 PUSH1 0xE0 SHL SUB AND PUSH4 0xA9059CBB PUSH1 0xE0 SHL OR SWAP1 MSTORE SWAP2 MLOAD PUSH1 0x0 SWAP3 DUP4 SWAP3 SWAP1 DUP8 AND SWAP2 PUSH2 0x140A SWAP2 SWAP1 PUSH2 0x1ACD JUMP JUMPDEST PUSH1 0x0 PUSH1 0x40 MLOAD DUP1 DUP4 SUB DUP2 PUSH1 0x0 DUP7 GAS CALL SWAP2 POP POP RETURNDATASIZE DUP1 PUSH1 0x0 DUP2 EQ PUSH2 0x1447 JUMPI PUSH1 0x40 MLOAD SWAP2 POP PUSH1 0x1F NOT PUSH1 0x3F RETURNDATASIZE ADD AND DUP3 ADD PUSH1 0x40 MSTORE RETURNDATASIZE DUP3 MSTORE RETURNDATASIZE PUSH1 0x0 PUSH1 0x20 DUP5 ADD RETURNDATACOPY PUSH2 0x144C JUMP JUMPDEST PUSH1 0x60 SWAP2 POP JUMPDEST POP SWAP2 POP SWAP2 POP DUP2 DUP1 ISZERO PUSH2 0x1476 JUMPI POP DUP1 MLOAD ISZERO DUP1 PUSH2 0x1476 JUMPI POP DUP1 DUP1 PUSH1 0x20 ADD SWAP1 MLOAD DUP2 ADD SWAP1 PUSH2 0x1476 SWAP2 SWAP1 PUSH2 0x1AFC JUMP JUMPDEST PUSH2 0x14B4 JUMPI PUSH1 0x40 MLOAD PUSH3 0x461BCD PUSH1 0xE5 SHL DUP2 MSTORE PUSH1 0x20 PUSH1 0x4 DUP3 ADD MSTORE PUSH1 0xF PUSH1 0x24 DUP3 ADD MSTORE PUSH15 0x1514905394D1915497D19052531151 PUSH1 0x8A SHL PUSH1 0x44 DUP3 ADD MSTORE PUSH1 0x64 ADD PUSH2 0x494 JUMP JUMPDEST POP POP POP POP POP JUMP JUMPDEST PUSH1 0x40 DUP1 MLOAD PUSH1 0x1 PUSH1 0x1 PUSH1 0xA0 SHL SUB DUP6 DUP2 AND PUSH1 0x24 DUP4 ADD MSTORE DUP5 DUP2 AND PUSH1 0x44 DUP4 ADD MSTORE PUSH1 0x64 DUP1 DUP4 ADD DUP6 SWAP1 MSTORE DUP4 MLOAD DUP1 DUP5 SUB SWAP1 SWAP2 ADD DUP2 MSTORE PUSH1 0x84 SWAP1 SWAP3 ADD DUP4 MSTORE PUSH1 0x20 DUP3 ADD DUP1 MLOAD PUSH1 0x1 PUSH1 0x1 PUSH1 0xE0 SHL SUB AND PUSH4 0x23B872DD PUSH1 0xE0 SHL OR SWAP1 MSTORE SWAP2 MLOAD PUSH1 0x0 SWAP3 DUP4 SWAP3 SWAP1 DUP9 AND SWAP2 PUSH2 0x151F SWAP2 SWAP1 PUSH2 0x1ACD JUMP JUMPDEST PUSH1 0x0 PUSH1 0x40 MLOAD DUP1 DUP4 SUB DUP2 PUSH1 0x0 DUP7 GAS CALL SWAP2 POP POP RETURNDATASIZE DUP1 PUSH1 0x0 DUP2 EQ PUSH2 0x155C JUMPI PUSH1 0x40 MLOAD SWAP2 POP PUSH1 0x1F NOT PUSH1 0x3F RETURNDATASIZE ADD AND DUP3 ADD PUSH1 0x40 MSTORE RETURNDATASIZE DUP3 MSTORE RETURNDATASIZE PUSH1 0x0 PUSH1 0x20 DUP5 ADD RETURNDATACOPY PUSH2 0x1561 JUMP JUMPDEST PUSH1 0x60 SWAP2 POP JUMPDEST POP SWAP2 POP SWAP2 POP DUP2 DUP1 ISZERO PUSH2 0x158B JUMPI POP DUP1 MLOAD ISZERO DUP1 PUSH2 0x158B JUMPI POP DUP1 DUP1 PUSH1 0x20 ADD SWAP1 MLOAD DUP2 ADD SWAP1 PUSH2 0x158B SWAP2 SWAP1 PUSH2 0x1AFC JUMP JUMPDEST PUSH2 0x15CD JUMPI PUSH1 0x40 MLOAD PUSH3 0x461BCD PUSH1 0xE5 SHL DUP2 MSTORE PUSH1 0x20 PUSH1 0x4 DUP3 ADD MSTORE PUSH1 0x13 PUSH1 0x24 DUP3 ADD MSTORE PUSH19 0x1D1C985B9CD9995C919C9BDB4819985A5B1959 PUSH1 0x6A SHL PUSH1 0x44 DUP3 ADD MSTORE PUSH1 0x64 ADD PUSH2 0x494 JUMP JUMPDEST POP POP POP POP POP POP JUMP JUMPDEST PUSH1 0x0 PUSH1 0x20 DUP3 DUP5 SUB SLT ISZERO PUSH2 0x15E7 JUMPI PUSH1 0x0 DUP1 REVERT JUMPDEST POP CALLDATALOAD SWAP2 SWAP1 POP JUMP JUMPDEST DUP1 CALLDATALOAD PUSH1 0xFF DUP2 AND DUP2 EQ PUSH2 0x15FF JUMPI PUSH1 0x0 DUP1 REVERT JUMPDEST SWAP2 SWAP1 POP JUMP JUMPDEST PUSH1 0x0 DUP1 PUSH1 0x40 DUP4 DUP6 SUB SLT ISZERO PUSH2 0x1617 JUMPI PUSH1 0x0 DUP1 REVERT JUMPDEST DUP3 CALLDATALOAD SWAP2 POP PUSH2 0x1627 PUSH1 0x20 DUP5 ADD PUSH2 0x15EE JUMP JUMPDEST SWAP1 POP SWAP3 POP SWAP3 SWAP1 POP JUMP JUMPDEST PUSH1 0x1 PUSH1 0x1 PUSH1 0xA0 SHL SUB DUP2 AND DUP2 EQ PUSH2 0x1645 JUMPI PUSH1 0x0 DUP1 REVERT JUMPDEST POP JUMP JUMPDEST PUSH1 0x0 DUP1 PUSH1 0x40 DUP4 DUP6 SUB SLT ISZERO PUSH2 0x165B JUMPI PUSH1 0x0 DUP1 REVERT JUMPDEST DUP3 CALLDATALOAD PUSH2 0x1666 DUP2 PUSH2 0x1630 JUMP JUMPDEST SWAP5 PUSH1 0x20 SWAP4 SWAP1 SWAP4 ADD CALLDATALOAD SWAP4 POP POP POP JUMP JUMPDEST PUSH1 0x0 PUSH1 0x20 DUP3 DUP5 SUB SLT ISZERO PUSH2 0x1686 JUMPI PUSH1 0x0 DUP1 REVERT JUMPDEST DUP2 CALLDATALOAD PUSH2 0x1691 DUP2 PUSH2 0x1630 JUMP JUMPDEST SWAP4 SWAP3 POP POP POP JUMP JUMPDEST PUSH1 0x0 DUP1 PUSH1 0x40 DUP4 DUP6 SUB SLT ISZERO PUSH2 0x16AB JUMPI PUSH1 0x0 DUP1 REVERT JUMPDEST PUSH2 0x1666 DUP4 PUSH2 0x15EE JUMP JUMPDEST PUSH4 0x4E487B71 PUSH1 0xE0 SHL PUSH1 0x0 MSTORE PUSH1 0x41 PUSH1 0x4 MSTORE PUSH1 0x24 PUSH1 0x0 REVERT JUMPDEST PUSH1 0x0 DUP3 PUSH1 0x1F DUP4 ADD SLT PUSH2 0x16DB JUMPI PUSH1 0x0 DUP1 REVERT JUMPDEST DUP2 CALLDATALOAD PUSH1 0x20 PUSH8 0xFFFFFFFFFFFFFFFF DUP1 DUP4 GT ISZERO PUSH2 0x16F8 JUMPI PUSH2 0x16F8 PUSH2 0x16B4 JUMP JUMPDEST DUP3 PUSH1 0x5 SHL PUSH1 0x40 MLOAD PUSH1 0x1F NOT PUSH1 0x3F DUP4 ADD AND DUP2 ADD DUP2 DUP2 LT DUP5 DUP3 GT OR ISZERO PUSH2 0x171D JUMPI PUSH2 0x171D PUSH2 0x16B4 JUMP JUMPDEST PUSH1 0x40 MSTORE SWAP4 DUP5 MSTORE DUP6 DUP2 ADD DUP4 ADD SWAP4 DUP4 DUP2 ADD SWAP3 POP DUP8 DUP6 GT ISZERO PUSH2 0x173B JUMPI PUSH1 0x0 DUP1 REVERT JUMPDEST DUP4 DUP8 ADD SWAP2 POP JUMPDEST DUP5 DUP3 LT ISZERO PUSH2 0x175A JUMPI DUP2 CALLDATALOAD DUP4 MSTORE SWAP2 DUP4 ADD SWAP2 SWAP1 DUP4 ADD SWAP1 PUSH2 0x1741 JUMP JUMPDEST SWAP8 SWAP7 POP POP POP POP POP POP POP JUMP JUMPDEST PUSH1 0x0 PUSH1 0x20 DUP3 DUP5 SUB SLT ISZERO PUSH2 0x1777 JUMPI PUSH1 0x0 DUP1 REVERT JUMPDEST DUP2 CALLDATALOAD PUSH8 0xFFFFFFFFFFFFFFFF DUP2 GT ISZERO PUSH2 0x178E JUMPI PUSH1 0x0 DUP1 REVERT JUMPDEST PUSH2 0x179A DUP5 DUP3 DUP6 ADD PUSH2 0x16CA JUMP JUMPDEST SWAP5 SWAP4 POP POP POP POP JUMP JUMPDEST PUSH1 0x0 DUP1 PUSH1 0x40 DUP4 DUP6 SUB SLT ISZERO PUSH2 0x17B5 JUMPI PUSH1 0x0 DUP1 REVERT JUMPDEST DUP3 CALLDATALOAD SWAP2 POP PUSH1 0x20 DUP4 ADD CALLDATALOAD PUSH8 0xFFFFFFFFFFFFFFFF DUP2 GT ISZERO PUSH2 0x17D3 JUMPI PUSH1 0x0 DUP1 REVERT JUMPDEST PUSH2 0x17DF DUP6 DUP3 DUP7 ADD PUSH2 0x16CA JUMP JUMPDEST SWAP2 POP POP SWAP3 POP SWAP3 SWAP1 POP JUMP JUMPDEST PUSH1 0x0 DUP1 PUSH1 0x40 DUP4 DUP6 SUB SLT ISZERO PUSH2 0x17FC JUMPI PUSH1 0x0 DUP1 REVERT JUMPDEST POP POP DUP1 CALLDATALOAD SWAP3 PUSH1 0x20 SWAP1 SWAP2 ADD CALLDATALOAD SWAP2 POP JUMP JUMPDEST PUSH1 0x40 DUP1 DUP3 MSTORE DUP4 MLOAD SWAP1 DUP3 ADD DUP2 SWAP1 MSTORE PUSH1 0x0 SWAP1 PUSH1 0x20 SWAP1 PUSH1 0x60 DUP5 ADD SWAP1 DUP3 DUP8 ADD DUP5 JUMPDEST DUP3 DUP2 LT ISZERO PUSH2 0x1844 JUMPI DUP2 MLOAD DUP5 MSTORE SWAP3 DUP5 ADD SWAP3 SWAP1 DUP5 ADD SWAP1 PUSH1 0x1 ADD PUSH2 0x1828 JUMP JUMPDEST POP POP POP SWAP3 ADD SWAP3 SWAP1 SWAP3 MSTORE SWAP3 SWAP2 POP POP JUMP JUMPDEST PUSH4 0x4E487B71 PUSH1 0xE0 SHL PUSH1 0x0 MSTORE PUSH1 0x11 PUSH1 0x4 MSTORE PUSH1 0x24 PUSH1 0x0 REVERT JUMPDEST PUSH1 0x0 DUP3 PUSH2 0x1886 JUMPI PUSH4 0x4E487B71 PUSH1 0xE0 SHL PUSH1 0x0 MSTORE PUSH1 0x12 PUSH1 0x4 MSTORE PUSH1 0x24 PUSH1 0x0 REVERT JUMPDEST POP DIV SWAP1 JUMP JUMPDEST DUP1 DUP3 ADD DUP1 DUP3 GT ISZERO PUSH2 0xCDF JUMPI PUSH2 0xCDF PUSH2 0x1853 JUMP JUMPDEST PUSH1 0x0 PUSH1 0xFF DUP3 AND PUSH1 0xFF DUP2 SUB PUSH2 0x18B4 JUMPI PUSH2 0x18B4 PUSH2 0x1853 JUMP JUMPDEST PUSH1 0x1 ADD SWAP3 SWAP2 POP POP JUMP JUMPDEST PUSH1 0x20 DUP1 DUP3 MSTORE PUSH1 0x9 SWAP1 DUP3 ADD MSTORE PUSH9 0x3337B93134B23232B7 PUSH1 0xB9 SHL PUSH1 0x40 DUP3 ADD MSTORE PUSH1 0x60 ADD SWAP1 JUMP JUMPDEST PUSH4 0x4E487B71 PUSH1 0xE0 SHL PUSH1 0x0 MSTORE PUSH1 0x32 PUSH1 0x4 MSTORE PUSH1 0x24 PUSH1 0x0 REVERT JUMPDEST PUSH1 0x0 PUSH1 0x1 DUP3 ADD PUSH2 0x1908 JUMPI PUSH2 0x1908 PUSH2 0x1853 JUMP JUMPDEST POP PUSH1 0x1 ADD SWAP1 JUMP JUMPDEST DUP1 DUP3 MUL DUP2 ISZERO DUP3 DUP3 DIV DUP5 EQ OR PUSH2 0xCDF JUMPI PUSH2 0xCDF PUSH2 0x1853 JUMP JUMPDEST DUP2 DUP2 SUB DUP2 DUP2 GT ISZERO PUSH2 0xCDF JUMPI PUSH2 0xCDF PUSH2 0x1853 JUMP JUMPDEST PUSH1 0x0 DUP2 PUSH2 0x1948 JUMPI PUSH2 0x1948 PUSH2 0x1853 JUMP JUMPDEST POP PUSH1 0x0 NOT ADD SWAP1 JUMP JUMPDEST DUP1 MLOAD PUSH2 0x15FF DUP2 PUSH2 0x1630 JUMP JUMPDEST DUP1 MLOAD PUSH3 0xFFFFFF DUP2 AND DUP2 EQ PUSH2 0x15FF JUMPI PUSH1 0x0 DUP1 REVERT JUMPDEST DUP1 MLOAD PUSH1 0x2 DUP2 SWAP1 SIGNEXTEND DUP2 EQ PUSH2 0x15FF JUMPI PUSH1 0x0 DUP1 REVERT JUMPDEST DUP1 MLOAD PUSH1 0x1 PUSH1 0x1 PUSH1 0x80 SHL SUB DUP2 AND DUP2 EQ PUSH2 0x15FF JUMPI PUSH1 0x0 DUP1 REVERT JUMPDEST PUSH1 0x0 DUP1 PUSH1 0x0 DUP1 PUSH1 0x0 DUP1 PUSH1 0x0 DUP1 PUSH1 0x0 DUP1 PUSH1 0x0 DUP1 PUSH2 0x180 DUP14 DUP16 SUB SLT ISZERO PUSH2 0x19BA JUMPI PUSH1 0x0 DUP1 REVERT JUMPDEST DUP13 MLOAD PUSH12 0xFFFFFFFFFFFFFFFFFFFFFFFF DUP2 AND DUP2 EQ PUSH2 0x19D6 JUMPI PUSH1 0x0 DUP1 REVERT JUMPDEST SWAP12 POP PUSH2 0x19E4 PUSH1 0x20 DUP15 ADD PUSH2 0x1950 JUMP JUMPDEST SWAP11 POP PUSH2 0x19F2 PUSH1 0x40 DUP15 ADD PUSH2 0x1950 JUMP JUMPDEST SWAP10 POP PUSH2 0x1A00 PUSH1 0x60 DUP15 ADD PUSH2 0x1950 JUMP JUMPDEST SWAP9 POP PUSH2 0x1A0E PUSH1 0x80 DUP15 ADD PUSH2 0x195B JUMP JUMPDEST SWAP8 POP PUSH2 0x1A1C PUSH1 0xA0 DUP15 ADD PUSH2 0x196E JUMP JUMPDEST SWAP7 POP PUSH2 0x1A2A PUSH1 0xC0 DUP15 ADD PUSH2 0x196E JUMP JUMPDEST SWAP6 POP PUSH2 0x1A38 PUSH1 0xE0 DUP15 ADD PUSH2 0x1980 JUMP JUMPDEST SWAP5 POP PUSH2 0x100 DUP14 ADD MLOAD SWAP4 POP PUSH2 0x120 DUP14 ADD MLOAD SWAP3 POP PUSH2 0x1A57 PUSH2 0x140 DUP15 ADD PUSH2 0x1980 JUMP JUMPDEST SWAP2 POP PUSH2 0x1A66 PUSH2 0x160 DUP15 ADD PUSH2 0x1980 JUMP JUMPDEST SWAP1 POP SWAP3 SWAP6 SWAP9 SWAP12 POP SWAP3 SWAP6 SWAP9 SWAP12 POP SWAP3 SWAP6 SWAP9 SWAP12 JUMP JUMPDEST PUSH1 0x0 DUP2 PUSH1 0x2 SIGNEXTEND PUSH3 0x7FFFFF NOT DUP2 SUB PUSH2 0x1A91 JUMPI PUSH2 0x1A91 PUSH2 0x1853 JUMP JUMPDEST PUSH1 0x0 SUB SWAP3 SWAP2 POP POP JUMP JUMPDEST PUSH1 0x0 PUSH1 0x20 DUP3 DUP5 SUB SLT ISZERO PUSH2 0x1AAC JUMPI PUSH1 0x0 DUP1 REVERT JUMPDEST DUP2 MLOAD PUSH2 0x1691 DUP2 PUSH2 0x1630 JUMP JUMPDEST PUSH4 0x4E487B71 PUSH1 0xE0 SHL PUSH1 0x0 MSTORE PUSH1 0x31 PUSH1 0x4 MSTORE PUSH1 0x24 PUSH1 0x0 REVERT JUMPDEST PUSH1 0x0 DUP3 MLOAD PUSH1 0x0 JUMPDEST DUP2 DUP2 LT ISZERO PUSH2 0x1AEE JUMPI PUSH1 0x20 DUP2 DUP7 ADD DUP2 ADD MLOAD DUP6 DUP4 ADD MSTORE ADD PUSH2 0x1AD4 JUMP JUMPDEST POP PUSH1 0x0 SWAP3 ADD SWAP2 DUP3 MSTORE POP SWAP2 SWAP1 POP JUMP JUMPDEST PUSH1 0x0 PUSH1 0x20 DUP3 DUP5 SUB SLT ISZERO PUSH2 0x1B0E JUMPI PUSH1 0x0 DUP1 REVERT JUMPDEST DUP2 MLOAD DUP1 ISZERO ISZERO DUP2 EQ PUSH2 0x1691 JUMPI PUSH1 0x0 DUP1 REVERT INVALID LOG2 PUSH5 0x6970667358 0x22 SLT KECCAK256 0xE2 0xC0 PUSH7 0x5F5E72606BDAEB PUSH8 0xBC4402553CB619EE PUSH7 0x4F6166F29D3A74 0x28 RETURN PUSH8 0xE3CC64736F6C6343 STOP ADDMOD GT STOP CALLER "},"methodIdentifiers":{"MAX_SCALE()":"f6def7cf","MAX_WEEKS()":"e11400bb","WEEK_SECONDS()":"cd671a58","acceptSetter()":"5f8e422f","bClaimReward(uint256,uint256)":"ce6d3e3e","claimReward()":"b88a802f","claimReward(uint256,uint256[])":"9b6e0d74","divConst()":"7e4856c4","getScore(uint256,uint8)":"ee3453ed","getUserNFTs()":"fdc5ab8e","latestNo()":"29ed1cfd","nftToken()":"d06fcba8","owner()":"8da5cb5b","rewardToken()":"f7c618c1","rewardsOf(uint256)":"0bce1284","setReward(uint256,uint256)":"a47bd496","setScoreFormula(uint8,uint256)":"721348e8","stake(uint256,uint8)":"10087fb1","stakingNFTs(uint256)":"10c6c1c2","token0()":"0dfe1681","token1()":"d21220a7","transferOwner(address)":"4fb2e45d","userNFTs(address,uint256)":"291c73c3","withdraw(uint256[])":"983d95ce"}}}}}