{"contracts/stakeERC20.sol":{"StakeERC20Liquidity":{"abi":[{"inputs":[{"internalType":"address","name":"_lpToken","type":"address"},{"internalType":"address","name":"_rewardToken","type":"address"}],"stateMutability":"nonpayable","type":"constructor"},{"anonymous":false,"inputs":[{"indexed":true,"internalType":"address","name":"user","type":"address"},{"indexed":false,"internalType":"uint256","name":"amount","type":"uint256"}],"name":"ClaimReward","type":"event"},{"anonymous":false,"inputs":[{"indexed":true,"internalType":"address","name":"user","type":"address"},{"indexed":false,"internalType":"uint256","name":"no","type":"uint256"},{"indexed":false,"internalType":"uint256","name":"amount","type":"uint256"}],"name":"SetReward","type":"event"},{"anonymous":false,"inputs":[{"indexed":true,"internalType":"address","name":"user","type":"address"},{"indexed":false,"internalType":"uint256","name":"tokenId","type":"uint256"},{"indexed":false,"internalType":"uint256","name":"amount","type":"uint256"},{"indexed":false,"internalType":"uint8","name":"k","type":"uint8"}],"name":"Stake","type":"event"},{"anonymous":false,"inputs":[{"indexed":true,"internalType":"address","name":"user","type":"address"},{"indexed":false,"internalType":"uint256","name":"tokenId","type":"uint256"}],"name":"Withdraw","type":"event"},{"inputs":[],"name":"MAX_SCALE","outputs":[{"internalType":"uint256","name":"","type":"uint256"}],"stateMutability":"view","type":"function"},{"inputs":[],"name":"MAX_WEEKS","outputs":[{"internalType":"uint8","name":"","type":"uint8"}],"stateMutability":"view","type":"function"},{"inputs":[],"name":"WEEK_SECONDS","outputs":[{"internalType":"uint24","name":"","type":"uint24"}],"stateMutability":"view","type":"function"},{"inputs":[],"name":"acceptSetter","outputs":[],"stateMutability":"nonpayable","type":"function"},{"inputs":[{"internalType":"uint256","name":"","type":"uint256"},{"internalType":"uint256","name":"","type":"uint256"}],"name":"bClaimReward","outputs":[{"internalType":"bool","name":"","type":"bool"}],"stateMutability":"view","type":"function"},{"inputs":[],"name":"claimReward","outputs":[],"stateMutability":"nonpayable","type":"function"},{"inputs":[],"name":"divConst","outputs":[{"internalType":"uint32","name":"","type":"uint32"}],"stateMutability":"view","type":"function"},{"inputs":[{"internalType":"uint256","name":"amount","type":"uint256"},{"internalType":"uint8","name":"k","type":"uint8"}],"name":"getScore","outputs":[{"internalType":"uint256","name":"","type":"uint256"}],"stateMutability":"view","type":"function"},{"inputs":[],"name":"getStaking","outputs":[{"internalType":"uint256","name":"","type":"uint256"},{"internalType":"uint256","name":"","type":"uint256"}],"stateMutability":"view","type":"function"},{"inputs":[],"name":"latestNo","outputs":[{"internalType":"uint256","name":"","type":"uint256"}],"stateMutability":"view","type":"function"},{"inputs":[],"name":"lpToken","outputs":[{"internalType":"address","name":"","type":"address"}],"stateMutability":"view","type":"function"},{"inputs":[],"name":"nonce","outputs":[{"internalType":"uint256","name":"","type":"uint256"}],"stateMutability":"view","type":"function"},{"inputs":[],"name":"owner","outputs":[{"internalType":"address","name":"","type":"address"}],"stateMutability":"view","type":"function"},{"inputs":[],"name":"rewardToken","outputs":[{"internalType":"address","name":"","type":"address"}],"stateMutability":"view","type":"function"},{"inputs":[{"internalType":"uint256","name":"","type":"uint256"}],"name":"rewardsOf","outputs":[{"internalType":"uint256","name":"","type":"uint256"}],"stateMutability":"view","type":"function"},{"inputs":[{"internalType":"uint256","name":"no","type":"uint256"},{"internalType":"uint256","name":"amount","type":"uint256"}],"name":"setReward","outputs":[],"stateMutability":"nonpayable","type":"function"},{"inputs":[{"internalType":"uint8","name":"maxWeeks","type":"uint8"},{"internalType":"uint256","name":"maxScale","type":"uint256"}],"name":"setScoreFormula","outputs":[],"stateMutability":"nonpayable","type":"function"},{"inputs":[{"internalType":"uint256","name":"amount","type":"uint256"},{"internalType":"uint8","name":"k","type":"uint8"}],"name":"stake","outputs":[],"stateMutability":"nonpayable","type":"function"},{"inputs":[{"internalType":"uint256","name":"","type":"uint256"}],"name":"stakingERC20s","outputs":[{"internalType":"uint256","name":"amount","type":"uint256"},{"internalType":"uint256","name":"score","type":"uint256"},{"internalType":"uint256","name":"beginNo","type":"uint256"},{"internalType":"uint256","name":"endNo","type":"uint256"},{"internalType":"uint256","name":"toClaimedNo","type":"uint256"}],"stateMutability":"view","type":"function"},{"inputs":[{"internalType":"address","name":"_owner","type":"address"}],"name":"transferOwner","outputs":[],"stateMutability":"nonpayable","type":"function"},{"inputs":[{"internalType":"address","name":"","type":"address"},{"internalType":"uint256","name":"","type":"uint256"}],"name":"userERC20s","outputs":[{"internalType":"uint256","name":"","type":"uint256"}],"stateMutability":"view","type":"function"},{"inputs":[{"internalType":"uint256","name":"amount","type":"uint256"}],"name":"withdraw","outputs":[],"stateMutability":"nonpayable","type":"function"}],"evm":{"bytecode":{"linkReferences":{},"object":"60c060405234801561001057600080fd5b5060405161129538038061129583398101604081905261002f91610086565b600080546001600160a01b031916331790556001600160a01b039182166080521660a0526009805460ff191660341790556002600a556100b9565b80516001600160a01b038116811461008157600080fd5b919050565b6000806040838503121561009957600080fd5b6100a28361006a565b91506100b06020840161006a565b90509250929050565b60805160a05161119b6100fa600039600081816103a0015281816109e10152610bea0152600081816101cb0152818161041d0152610775015261119b6000f3fe608060405234801561001057600080fd5b50600436106101425760003560e01c8063a218de15116100b8578063cd671a581161007c578063cd671a5814610304578063ce6d3e3e14610322578063e11400bb14610360578063ee3453ed1461037f578063f6def7cf14610392578063f7c618c11461039b57600080fd5b8063a218de1514610267578063a47bd496146102cd578063affed0e0146102e0578063b88a802f146102e9578063ba086501146102f157600080fd5b80635f8e422f1161010a5780635f8e422f146101be5780635fcbd285146101c6578063721348e8146102055780637b1391a6146102185780637e4856c4146102355780638da5cb5b1461025457600080fd5b80630bce12841461014757806310087fb11461017a57806329ed1cfd1461018f5780632e1a7d4d146101985780634fb2e45d146101ab575b600080fd5b610167610155366004610eef565b60076020526000908152604090205481565b6040519081526020015b60405180910390f35b61018d610188366004610f1e565b6103c2565b005b61016760085481565b61018d6101a6366004610eef565b6105be565b61018d6101b9366004610f61565b6107d6565b61018d610822565b6101ed7f000000000000000000000000000000000000000000000000000000000000000081565b6040516001600160a01b039091168152602001610171565b61018d610213366004610f83565b610873565b6102206108fc565b60408051928352602083019190915201610171565b61023f620f424081565b60405163ffffffff9091168152602001610171565b6000546101ed906001600160a01b031681565b6102a5610275366004610eef565b60036020819052600091825260409091208054600182015460028301549383015460049093015491939092909185565b604080519586526020860194909452928401919091526060830152608082015260a001610171565b61018d6102db366004610fad565b6109b2565b61016760025481565b61018d610a6b565b6101676102ff366004610fcf565b610c42565b61030e62093a8081565b60405162ffffff9091168152602001610171565b610350610330366004610fad565b600560209081526000928352604080842090915290825290205460ff1681565b6040519015158152602001610171565b60095461036d9060ff1681565b60405160ff9091168152602001610171565b61016761038d366004610f1e565b610c73565b610167600a5481565b6101ed7f000000000000000000000000000000000000000000000000000000000000000081565b60008160ff161180156103de575060095460ff90811690821611155b6104185760405162461bcd60e51b8152602060048201526006602482015265359018bf1a9960d11b60448201526064015b60405180910390fd5b6104447f0000000000000000000000000000000000000000000000000000000000000000333085610cc8565b600061045362093a8042611001565b61045e906001611023565b9050600061046c8484610c73565b905060005b8360ff168160ff1610156104c657816006600061049160ff851687611023565b815260200190815260200160002060008282546104ae9190611023565b909155508190506104be81611036565b915050610471565b506040518060a001604052808581526020018281526020018381526020018460ff16846104f39190611023565b815260209081018490526002805460009081526003808452604080832086518155868601516001808301919091558783015182870155606080890151948301949094556080909701516004918201553380855290865281842085548154988901825590855293869020909601929092559154815190815292830188905260ff8716908301527f6fa2f6021ee337436cdf2b2570285886da18bc06402ce284d296504a0fe8f875910160405180910390a2600280549060006105b383611055565b919050555050505050565b60006105cd62093a8042611001565b336000908152600460205260408120549192509067ffffffffffffffff8111156105f9576105f961106e565b604051908082528060200260200182016040528015610622578160200160208202803683370190505b5033600090815260046020526040812054919250905b33600090815260046020526040812080548390811061065957610659611084565b906000526020600020015490508460036000838152602001908152602001600020600301541161075c5760008181526003602052604090205461069c9084611023565b92508583116107325733600090815260046020526040902080546106be611084565b6000918252602080832090910154338352600490915260409091208054849081106106eb576106eb611084565b60009182526020808320909101929092553381526004909152604090208054806107175761071761109a565b6001900381819060005260206000200160009055905561074f565b61073c86846110b0565b6000828152600360205260409020558592505b85830361075c575061076f565b5080610767816110c3565b915050610638565b5061079b7f00000000000000000000000000000000000000000000000000000000000000003383610de2565b60405181815233907f884edad9ce6fa2440d8a54cc123490eb96d2768479d49ff9c7366125a94243649060200160405180910390a250505050565b6000546001600160a01b031633146108005760405162461bcd60e51b815260040161040f906110da565b600180546001600160a01b0319166001600160a01b0392909216919091179055565b6001546001600160a01b0316331461084c5760405162461bcd60e51b815260040161040f906110da565b60018054600080546001600160a01b03199081166001600160a01b03841617909155169055565b6000546001600160a01b0316331461089d5760405162461bcd60e51b815260040161040f906110da565b600181116108e25760405162461bcd60e51b81526020600482015260126024820152711b585e14d8d85b19481d1bdbc81cdb585b1b60721b604482015260640161040f565b6009805460ff191660ff9390931692909217909155600a55565b6000808061090d62093a8042611001565b905060008060005b336000908152600460205260409020548110156109a75733600090815260046020526040812080548390811061094d5761094d611084565b60009182526020808320909101548083526003918290526040909220805491015491925090861015610986576109838185611023565b93505b6109908186611023565b94505050808061099f90611055565b915050610915565b509094909350915050565b6000546001600160a01b031633146109dc5760405162461bcd60e51b815260040161040f906110da565b610a087f0000000000000000000000000000000000000000000000000000000000000000333084610cc8565b60008281526007602052604081208054839290610a26908490611023565b9091555050604080518381526020810183905233917fc3991418cacd70a010fce559a44fcbb47534ca43bf7543964bdca2639f6e6e5a91015b60405180910390a25050565b6000610a7a62093a8042611001565b90506000805b33600090815260046020526040902054811015610be457336000908152600460205260408120805483908110610ab857610ab8611084565b600091825260208083209091015480835260039091526040909120600401549091505b60008281526003602081905260409091200154811015610bcf57600082815260056020908152604080832084845290915290205460ff1680610b1c57508481115b80610b335750600081815260076020526040902054155b610bbd5760008281526005602090815260408083208484529091529020805460ff19166001908117909155610b69908290611023565b600083815260036020908152604080832060048101949094558483526006825280832054600190940154600790925290912054610ba691906110fd565b610bb09190611001565b610bba9085611023565b93505b80610bc781611055565b915050610adb565b50508080610bdc90611055565b915050610a80565b50610c107f00000000000000000000000000000000000000000000000000000000000000003383610de2565b60405181815233907fba8de60c3403ec381d1d484652ea1980e3c3e56359195c92525bff4ce47ad98e90602001610a5f565b60046020528160005260406000208181548110610c5e57600080fd5b90600052602060002001600091509150505481565b600954600a54600091829160ff91821691829190861690610c96906001906110b0565b610ca091906110fd565b610caa9190611023565b610cb490866110fd565b610cbe9190611001565b9150505b92915050565b604080516001600160a01b0385811660248301528481166044830152606480830185905283518084039091018152608490920183526020820180516001600160e01b03166323b872dd60e01b1790529151600092839290881691610d2c9190611114565b6000604051808303816000865af19150503d8060008114610d69576040519150601f19603f3d011682016040523d82523d6000602084013e610d6e565b606091505b5091509150818015610d98575080511580610d98575080806020019051810190610d989190611143565b610dda5760405162461bcd60e51b81526020600482015260136024820152721d1c985b9cd9995c919c9bdb4819985a5b1959606a1b604482015260640161040f565b505050505050565b604080516001600160a01b038481166024830152604480830185905283518084039091018152606490920183526020820180516001600160e01b031663a9059cbb60e01b1790529151600092839290871691610e3e9190611114565b6000604051808303816000865af19150503d8060008114610e7b576040519150601f19603f3d011682016040523d82523d6000602084013e610e80565b606091505b5091509150818015610eaa575080511580610eaa575080806020019051810190610eaa9190611143565b610ee85760405162461bcd60e51b815260206004820152600f60248201526e1514905394d1915497d19052531151608a1b604482015260640161040f565b5050505050565b600060208284031215610f0157600080fd5b5035919050565b803560ff81168114610f1957600080fd5b919050565b60008060408385031215610f3157600080fd5b82359150610f4160208401610f08565b90509250929050565b80356001600160a01b0381168114610f1957600080fd5b600060208284031215610f7357600080fd5b610f7c82610f4a565b9392505050565b60008060408385031215610f9657600080fd5b610f9f83610f08565b946020939093013593505050565b60008060408385031215610fc057600080fd5b50508035926020909101359150565b60008060408385031215610fe257600080fd5b610f9f83610f4a565b634e487b7160e01b600052601160045260246000fd5b60008261101e57634e487b7160e01b600052601260045260246000fd5b500490565b80820180821115610cc257610cc2610feb565b600060ff821660ff810361104c5761104c610feb565b60010192915050565b60006001820161106757611067610feb565b5060010190565b634e487b7160e01b600052604160045260246000fd5b634e487b7160e01b600052603260045260246000fd5b634e487b7160e01b600052603160045260246000fd5b81810381811115610cc257610cc2610feb565b6000816110d2576110d2610feb565b506000190190565b6020808252600990820152683337b93134b23232b760b91b604082015260600190565b8082028115828204841417610cc257610cc2610feb565b6000825160005b81811015611135576020818601810151858301520161111b565b506000920191825250919050565b60006020828403121561115557600080fd5b81518015158114610f7c57600080fdfea26469706673582212202f548f18e05671a8bedbe023124a4fce471962ef43917635070e61869904290964736f6c63430008110033","opcodes":"PUSH1 0xC0 PUSH1 0x40 MSTORE CALLVALUE DUP1 ISZERO PUSH2 0x10 JUMPI PUSH1 0x0 DUP1 REVERT JUMPDEST POP PUSH1 0x40 MLOAD PUSH2 0x1295 CODESIZE SUB DUP1 PUSH2 0x1295 DUP4 CODECOPY DUP2 ADD PUSH1 0x40 DUP2 SWAP1 MSTORE PUSH2 0x2F SWAP2 PUSH2 0x86 JUMP JUMPDEST PUSH1 0x0 DUP1 SLOAD PUSH1 0x1 PUSH1 0x1 PUSH1 0xA0 SHL SUB NOT AND CALLER OR SWAP1 SSTORE PUSH1 0x1 PUSH1 0x1 PUSH1 0xA0 SHL SUB SWAP2 DUP3 AND PUSH1 0x80 MSTORE AND PUSH1 0xA0 MSTORE PUSH1 0x9 DUP1 SLOAD PUSH1 0xFF NOT AND PUSH1 0x34 OR SWAP1 SSTORE PUSH1 0x2 PUSH1 0xA SSTORE PUSH2 0xB9 JUMP JUMPDEST DUP1 MLOAD PUSH1 0x1 PUSH1 0x1 PUSH1 0xA0 SHL SUB DUP2 AND DUP2 EQ PUSH2 0x81 JUMPI PUSH1 0x0 DUP1 REVERT JUMPDEST SWAP2 SWAP1 POP JUMP JUMPDEST PUSH1 0x0 DUP1 PUSH1 0x40 DUP4 DUP6 SUB SLT ISZERO PUSH2 0x99 JUMPI PUSH1 0x0 DUP1 REVERT JUMPDEST PUSH2 0xA2 DUP4 PUSH2 0x6A JUMP JUMPDEST SWAP2 POP PUSH2 0xB0 PUSH1 0x20 DUP5 ADD PUSH2 0x6A JUMP JUMPDEST SWAP1 POP SWAP3 POP SWAP3 SWAP1 POP JUMP JUMPDEST PUSH1 0x80 MLOAD PUSH1 0xA0 MLOAD PUSH2 0x119B PUSH2 0xFA PUSH1 0x0 CODECOPY PUSH1 0x0 DUP2 DUP2 PUSH2 0x3A0 ADD MSTORE DUP2 DUP2 PUSH2 0x9E1 ADD MSTORE PUSH2 0xBEA ADD MSTORE PUSH1 0x0 DUP2 DUP2 PUSH2 0x1CB ADD MSTORE DUP2 DUP2 PUSH2 0x41D ADD MSTORE PUSH2 0x775 ADD MSTORE PUSH2 0x119B PUSH1 0x0 RETURN INVALID PUSH1 0x80 PUSH1 0x40 MSTORE CALLVALUE DUP1 ISZERO PUSH2 0x10 JUMPI PUSH1 0x0 DUP1 REVERT JUMPDEST POP PUSH1 0x4 CALLDATASIZE LT PUSH2 0x142 JUMPI PUSH1 0x0 CALLDATALOAD PUSH1 0xE0 SHR DUP1 PUSH4 0xA218DE15 GT PUSH2 0xB8 JUMPI DUP1 PUSH4 0xCD671A58 GT PUSH2 0x7C JUMPI DUP1 PUSH4 0xCD671A58 EQ PUSH2 0x304 JUMPI DUP1 PUSH4 0xCE6D3E3E EQ PUSH2 0x322 JUMPI DUP1 PUSH4 0xE11400BB EQ PUSH2 0x360 JUMPI DUP1 PUSH4 0xEE3453ED EQ PUSH2 0x37F JUMPI DUP1 PUSH4 0xF6DEF7CF EQ PUSH2 0x392 JUMPI DUP1 PUSH4 0xF7C618C1 EQ PUSH2 0x39B JUMPI PUSH1 0x0 DUP1 REVERT JUMPDEST DUP1 PUSH4 0xA218DE15 EQ PUSH2 0x267 JUMPI DUP1 PUSH4 0xA47BD496 EQ PUSH2 0x2CD JUMPI DUP1 PUSH4 0xAFFED0E0 EQ PUSH2 0x2E0 JUMPI DUP1 PUSH4 0xB88A802F EQ PUSH2 0x2E9 JUMPI DUP1 PUSH4 0xBA086501 EQ PUSH2 0x2F1 JUMPI PUSH1 0x0 DUP1 REVERT JUMPDEST DUP1 PUSH4 0x5F8E422F GT PUSH2 0x10A JUMPI DUP1 PUSH4 0x5F8E422F EQ PUSH2 0x1BE JUMPI DUP1 PUSH4 0x5FCBD285 EQ PUSH2 0x1C6 JUMPI DUP1 PUSH4 0x721348E8 EQ PUSH2 0x205 JUMPI DUP1 PUSH4 0x7B1391A6 EQ PUSH2 0x218 JUMPI DUP1 PUSH4 0x7E4856C4 EQ PUSH2 0x235 JUMPI DUP1 PUSH4 0x8DA5CB5B EQ PUSH2 0x254 JUMPI PUSH1 0x0 DUP1 REVERT JUMPDEST DUP1 PUSH4 0xBCE1284 EQ PUSH2 0x147 JUMPI DUP1 PUSH4 0x10087FB1 EQ PUSH2 0x17A JUMPI DUP1 PUSH4 0x29ED1CFD EQ PUSH2 0x18F JUMPI DUP1 PUSH4 0x2E1A7D4D EQ PUSH2 0x198 JUMPI DUP1 PUSH4 0x4FB2E45D EQ PUSH2 0x1AB JUMPI JUMPDEST PUSH1 0x0 DUP1 REVERT JUMPDEST PUSH2 0x167 PUSH2 0x155 CALLDATASIZE PUSH1 0x4 PUSH2 0xEEF JUMP JUMPDEST PUSH1 0x7 PUSH1 0x20 MSTORE PUSH1 0x0 SWAP1 DUP2 MSTORE PUSH1 0x40 SWAP1 KECCAK256 SLOAD DUP2 JUMP JUMPDEST PUSH1 0x40 MLOAD SWAP1 DUP2 MSTORE PUSH1 0x20 ADD JUMPDEST PUSH1 0x40 MLOAD DUP1 SWAP2 SUB SWAP1 RETURN JUMPDEST PUSH2 0x18D PUSH2 0x188 CALLDATASIZE PUSH1 0x4 PUSH2 0xF1E JUMP JUMPDEST PUSH2 0x3C2 JUMP JUMPDEST STOP JUMPDEST PUSH2 0x167 PUSH1 0x8 SLOAD DUP2 JUMP JUMPDEST PUSH2 0x18D PUSH2 0x1A6 CALLDATASIZE PUSH1 0x4 PUSH2 0xEEF JUMP JUMPDEST PUSH2 0x5BE JUMP JUMPDEST PUSH2 0x18D PUSH2 0x1B9 CALLDATASIZE PUSH1 0x4 PUSH2 0xF61 JUMP JUMPDEST PUSH2 0x7D6 JUMP JUMPDEST PUSH2 0x18D PUSH2 0x822 JUMP JUMPDEST PUSH2 0x1ED PUSH32 0x0 DUP2 JUMP JUMPDEST PUSH1 0x40 MLOAD PUSH1 0x1 PUSH1 0x1 PUSH1 0xA0 SHL SUB SWAP1 SWAP2 AND DUP2 MSTORE PUSH1 0x20 ADD PUSH2 0x171 JUMP JUMPDEST PUSH2 0x18D PUSH2 0x213 CALLDATASIZE PUSH1 0x4 PUSH2 0xF83 JUMP JUMPDEST PUSH2 0x873 JUMP JUMPDEST PUSH2 0x220 PUSH2 0x8FC JUMP JUMPDEST PUSH1 0x40 DUP1 MLOAD SWAP3 DUP4 MSTORE PUSH1 0x20 DUP4 ADD SWAP2 SWAP1 SWAP2 MSTORE ADD PUSH2 0x171 JUMP JUMPDEST PUSH2 0x23F PUSH3 0xF4240 DUP2 JUMP JUMPDEST PUSH1 0x40 MLOAD PUSH4 0xFFFFFFFF SWAP1 SWAP2 AND DUP2 MSTORE PUSH1 0x20 ADD PUSH2 0x171 JUMP JUMPDEST PUSH1 0x0 SLOAD PUSH2 0x1ED SWAP1 PUSH1 0x1 PUSH1 0x1 PUSH1 0xA0 SHL SUB AND DUP2 JUMP JUMPDEST PUSH2 0x2A5 PUSH2 0x275 CALLDATASIZE PUSH1 0x4 PUSH2 0xEEF JUMP JUMPDEST PUSH1 0x3 PUSH1 0x20 DUP2 SWAP1 MSTORE PUSH1 0x0 SWAP2 DUP3 MSTORE PUSH1 0x40 SWAP1 SWAP2 KECCAK256 DUP1 SLOAD PUSH1 0x1 DUP3 ADD SLOAD PUSH1 0x2 DUP4 ADD SLOAD SWAP4 DUP4 ADD SLOAD PUSH1 0x4 SWAP1 SWAP4 ADD SLOAD SWAP2 SWAP4 SWAP1 SWAP3 SWAP1 SWAP2 DUP6 JUMP JUMPDEST PUSH1 0x40 DUP1 MLOAD SWAP6 DUP7 MSTORE PUSH1 0x20 DUP7 ADD SWAP5 SWAP1 SWAP5 MSTORE SWAP3 DUP5 ADD SWAP2 SWAP1 SWAP2 MSTORE PUSH1 0x60 DUP4 ADD MSTORE PUSH1 0x80 DUP3 ADD MSTORE PUSH1 0xA0 ADD PUSH2 0x171 JUMP JUMPDEST PUSH2 0x18D PUSH2 0x2DB CALLDATASIZE PUSH1 0x4 PUSH2 0xFAD JUMP JUMPDEST PUSH2 0x9B2 JUMP JUMPDEST PUSH2 0x167 PUSH1 0x2 SLOAD DUP2 JUMP JUMPDEST PUSH2 0x18D PUSH2 0xA6B JUMP JUMPDEST PUSH2 0x167 PUSH2 0x2FF CALLDATASIZE PUSH1 0x4 PUSH2 0xFCF JUMP JUMPDEST PUSH2 0xC42 JUMP JUMPDEST PUSH2 0x30E PUSH3 0x93A80 DUP2 JUMP JUMPDEST PUSH1 0x40 MLOAD PUSH3 0xFFFFFF SWAP1 SWAP2 AND DUP2 MSTORE PUSH1 0x20 ADD PUSH2 0x171 JUMP JUMPDEST PUSH2 0x350 PUSH2 0x330 CALLDATASIZE PUSH1 0x4 PUSH2 0xFAD JUMP JUMPDEST PUSH1 0x5 PUSH1 0x20 SWAP1 DUP2 MSTORE PUSH1 0x0 SWAP3 DUP4 MSTORE PUSH1 0x40 DUP1 DUP5 KECCAK256 SWAP1 SWAP2 MSTORE SWAP1 DUP3 MSTORE SWAP1 KECCAK256 SLOAD PUSH1 0xFF AND DUP2 JUMP JUMPDEST PUSH1 0x40 MLOAD SWAP1 ISZERO ISZERO DUP2 MSTORE PUSH1 0x20 ADD PUSH2 0x171 JUMP JUMPDEST PUSH1 0x9 SLOAD PUSH2 0x36D SWAP1 PUSH1 0xFF AND DUP2 JUMP JUMPDEST PUSH1 0x40 MLOAD PUSH1 0xFF SWAP1 SWAP2 AND DUP2 MSTORE PUSH1 0x20 ADD PUSH2 0x171 JUMP JUMPDEST PUSH2 0x167 PUSH2 0x38D CALLDATASIZE PUSH1 0x4 PUSH2 0xF1E JUMP JUMPDEST PUSH2 0xC73 JUMP JUMPDEST PUSH2 0x167 PUSH1 0xA SLOAD DUP2 JUMP JUMPDEST PUSH2 0x1ED PUSH32 0x0 DUP2 JUMP JUMPDEST PUSH1 0x0 DUP2 PUSH1 0xFF AND GT DUP1 ISZERO PUSH2 0x3DE JUMPI POP PUSH1 0x9 SLOAD PUSH1 0xFF SWAP1 DUP2 AND SWAP1 DUP3 AND GT ISZERO JUMPDEST PUSH2 0x418 JUMPI PUSH1 0x40 MLOAD PUSH3 0x461BCD PUSH1 0xE5 SHL DUP2 MSTORE PUSH1 0x20 PUSH1 0x4 DUP3 ADD MSTORE PUSH1 0x6 PUSH1 0x24 DUP3 ADD MSTORE PUSH6 0x359018BF1A99 PUSH1 0xD1 SHL PUSH1 0x44 DUP3 ADD MSTORE PUSH1 0x64 ADD JUMPDEST PUSH1 0x40 MLOAD DUP1 SWAP2 SUB SWAP1 REVERT JUMPDEST PUSH2 0x444 PUSH32 0x0 CALLER ADDRESS DUP6 PUSH2 0xCC8 JUMP JUMPDEST PUSH1 0x0 PUSH2 0x453 PUSH3 0x93A80 TIMESTAMP PUSH2 0x1001 JUMP JUMPDEST PUSH2 0x45E SWAP1 PUSH1 0x1 PUSH2 0x1023 JUMP JUMPDEST SWAP1 POP PUSH1 0x0 PUSH2 0x46C DUP5 DUP5 PUSH2 0xC73 JUMP JUMPDEST SWAP1 POP PUSH1 0x0 JUMPDEST DUP4 PUSH1 0xFF AND DUP2 PUSH1 0xFF AND LT ISZERO PUSH2 0x4C6 JUMPI DUP2 PUSH1 0x6 PUSH1 0x0 PUSH2 0x491 PUSH1 0xFF DUP6 AND DUP8 PUSH2 0x1023 JUMP JUMPDEST DUP2 MSTORE PUSH1 0x20 ADD SWAP1 DUP2 MSTORE PUSH1 0x20 ADD PUSH1 0x0 KECCAK256 PUSH1 0x0 DUP3 DUP3 SLOAD PUSH2 0x4AE SWAP2 SWAP1 PUSH2 0x1023 JUMP JUMPDEST SWAP1 SWAP2 SSTORE POP DUP2 SWAP1 POP PUSH2 0x4BE DUP2 PUSH2 0x1036 JUMP JUMPDEST SWAP2 POP POP PUSH2 0x471 JUMP JUMPDEST POP PUSH1 0x40 MLOAD DUP1 PUSH1 0xA0 ADD PUSH1 0x40 MSTORE DUP1 DUP6 DUP2 MSTORE PUSH1 0x20 ADD DUP3 DUP2 MSTORE PUSH1 0x20 ADD DUP4 DUP2 MSTORE PUSH1 0x20 ADD DUP5 PUSH1 0xFF AND DUP5 PUSH2 0x4F3 SWAP2 SWAP1 PUSH2 0x1023 JUMP JUMPDEST DUP2 MSTORE PUSH1 0x20 SWAP1 DUP2 ADD DUP5 SWAP1 MSTORE PUSH1 0x2 DUP1 SLOAD PUSH1 0x0 SWAP1 DUP2 MSTORE PUSH1 0x3 DUP1 DUP5 MSTORE PUSH1 0x40 DUP1 DUP4 KECCAK256 DUP7 MLOAD DUP2 SSTORE DUP7 DUP7 ADD MLOAD PUSH1 0x1 DUP1 DUP4 ADD SWAP2 SWAP1 SWAP2 SSTORE DUP8 DUP4 ADD MLOAD DUP3 DUP8 ADD SSTORE PUSH1 0x60 DUP1 DUP10 ADD MLOAD SWAP5 DUP4 ADD SWAP5 SWAP1 SWAP5 SSTORE PUSH1 0x80 SWAP1 SWAP8 ADD MLOAD PUSH1 0x4 SWAP2 DUP3 ADD SSTORE CALLER DUP1 DUP6 MSTORE SWAP1 DUP7 MSTORE DUP2 DUP5 KECCAK256 DUP6 SLOAD DUP2 SLOAD SWAP9 DUP10 ADD DUP3 SSTORE SWAP1 DUP6 MSTORE SWAP4 DUP7 SWAP1 KECCAK256 SWAP1 SWAP7 ADD SWAP3 SWAP1 SWAP3 SSTORE SWAP2 SLOAD DUP2 MLOAD SWAP1 DUP2 MSTORE SWAP3 DUP4 ADD DUP9 SWAP1 MSTORE PUSH1 0xFF DUP8 AND SWAP1 DUP4 ADD MSTORE PUSH32 0x6FA2F6021EE337436CDF2B2570285886DA18BC06402CE284D296504A0FE8F875 SWAP2 ADD PUSH1 0x40 MLOAD DUP1 SWAP2 SUB SWAP1 LOG2 PUSH1 0x2 DUP1 SLOAD SWAP1 PUSH1 0x0 PUSH2 0x5B3 DUP4 PUSH2 0x1055 JUMP JUMPDEST SWAP2 SWAP1 POP SSTORE POP POP POP POP POP JUMP JUMPDEST PUSH1 0x0 PUSH2 0x5CD PUSH3 0x93A80 TIMESTAMP PUSH2 0x1001 JUMP JUMPDEST CALLER PUSH1 0x0 SWAP1 DUP2 MSTORE PUSH1 0x4 PUSH1 0x20 MSTORE PUSH1 0x40 DUP2 KECCAK256 SLOAD SWAP2 SWAP3 POP SWAP1 PUSH8 0xFFFFFFFFFFFFFFFF DUP2 GT ISZERO PUSH2 0x5F9 JUMPI PUSH2 0x5F9 PUSH2 0x106E JUMP JUMPDEST PUSH1 0x40 MLOAD SWAP1 DUP1 DUP3 MSTORE DUP1 PUSH1 0x20 MUL PUSH1 0x20 ADD DUP3 ADD PUSH1 0x40 MSTORE DUP1 ISZERO PUSH2 0x622 JUMPI DUP2 PUSH1 0x20 ADD PUSH1 0x20 DUP3 MUL DUP1 CALLDATASIZE DUP4 CALLDATACOPY ADD SWAP1 POP JUMPDEST POP CALLER PUSH1 0x0 SWAP1 DUP2 MSTORE PUSH1 0x4 PUSH1 0x20 MSTORE PUSH1 0x40 DUP2 KECCAK256 SLOAD SWAP2 SWAP3 POP SWAP1 JUMPDEST CALLER PUSH1 0x0 SWAP1 DUP2 MSTORE PUSH1 0x4 PUSH1 0x20 MSTORE PUSH1 0x40 DUP2 KECCAK256 DUP1 SLOAD DUP4 SWAP1 DUP2 LT PUSH2 0x659 JUMPI PUSH2 0x659 PUSH2 0x1084 JUMP JUMPDEST SWAP1 PUSH1 0x0 MSTORE PUSH1 0x20 PUSH1 0x0 KECCAK256 ADD SLOAD SWAP1 POP DUP5 PUSH1 0x3 PUSH1 0x0 DUP4 DUP2 MSTORE PUSH1 0x20 ADD SWAP1 DUP2 MSTORE PUSH1 0x20 ADD PUSH1 0x0 KECCAK256 PUSH1 0x3 ADD SLOAD GT PUSH2 0x75C JUMPI PUSH1 0x0 DUP2 DUP2 MSTORE PUSH1 0x3 PUSH1 0x20 MSTORE PUSH1 0x40 SWAP1 KECCAK256 SLOAD PUSH2 0x69C SWAP1 DUP5 PUSH2 0x1023 JUMP JUMPDEST SWAP3 POP DUP6 DUP4 GT PUSH2 0x732 JUMPI CALLER PUSH1 0x0 SWAP1 DUP2 MSTORE PUSH1 0x4 PUSH1 0x20 MSTORE PUSH1 0x40 SWAP1 KECCAK256 DUP1 SLOAD PUSH2 0x6BE PUSH2 0x1084 JUMP JUMPDEST PUSH1 0x0 SWAP2 DUP3 MSTORE PUSH1 0x20 DUP1 DUP4 KECCAK256 SWAP1 SWAP2 ADD SLOAD CALLER DUP4 MSTORE PUSH1 0x4 SWAP1 SWAP2 MSTORE PUSH1 0x40 SWAP1 SWAP2 KECCAK256 DUP1 SLOAD DUP5 SWAP1 DUP2 LT PUSH2 0x6EB JUMPI PUSH2 0x6EB PUSH2 0x1084 JUMP JUMPDEST PUSH1 0x0 SWAP2 DUP3 MSTORE PUSH1 0x20 DUP1 DUP4 KECCAK256 SWAP1 SWAP2 ADD SWAP3 SWAP1 SWAP3 SSTORE CALLER DUP2 MSTORE PUSH1 0x4 SWAP1 SWAP2 MSTORE PUSH1 0x40 SWAP1 KECCAK256 DUP1 SLOAD DUP1 PUSH2 0x717 JUMPI PUSH2 0x717 PUSH2 0x109A JUMP JUMPDEST PUSH1 0x1 SWAP1 SUB DUP2 DUP2 SWAP1 PUSH1 0x0 MSTORE PUSH1 0x20 PUSH1 0x0 KECCAK256 ADD PUSH1 0x0 SWAP1 SSTORE SWAP1 SSTORE PUSH2 0x74F JUMP JUMPDEST PUSH2 0x73C DUP7 DUP5 PUSH2 0x10B0 JUMP JUMPDEST PUSH1 0x0 DUP3 DUP2 MSTORE PUSH1 0x3 PUSH1 0x20 MSTORE PUSH1 0x40 SWAP1 KECCAK256 SSTORE DUP6 SWAP3 POP JUMPDEST DUP6 DUP4 SUB PUSH2 0x75C JUMPI POP PUSH2 0x76F JUMP JUMPDEST POP DUP1 PUSH2 0x767 DUP2 PUSH2 0x10C3 JUMP JUMPDEST SWAP2 POP POP PUSH2 0x638 JUMP JUMPDEST POP PUSH2 0x79B PUSH32 0x0 CALLER DUP4 PUSH2 0xDE2 JUMP JUMPDEST PUSH1 0x40 MLOAD DUP2 DUP2 MSTORE CALLER SWAP1 PUSH32 0x884EDAD9CE6FA2440D8A54CC123490EB96D2768479D49FF9C7366125A9424364 SWAP1 PUSH1 0x20 ADD PUSH1 0x40 MLOAD DUP1 SWAP2 SUB SWAP1 LOG2 POP POP POP POP JUMP JUMPDEST PUSH1 0x0 SLOAD PUSH1 0x1 PUSH1 0x1 PUSH1 0xA0 SHL SUB AND CALLER EQ PUSH2 0x800 JUMPI PUSH1 0x40 MLOAD PUSH3 0x461BCD PUSH1 0xE5 SHL DUP2 MSTORE PUSH1 0x4 ADD PUSH2 0x40F SWAP1 PUSH2 0x10DA JUMP JUMPDEST PUSH1 0x1 DUP1 SLOAD PUSH1 0x1 PUSH1 0x1 PUSH1 0xA0 SHL SUB NOT AND PUSH1 0x1 PUSH1 0x1 PUSH1 0xA0 SHL SUB SWAP3 SWAP1 SWAP3 AND SWAP2 SWAP1 SWAP2 OR SWAP1 SSTORE JUMP JUMPDEST PUSH1 0x1 SLOAD PUSH1 0x1 PUSH1 0x1 PUSH1 0xA0 SHL SUB AND CALLER EQ PUSH2 0x84C JUMPI PUSH1 0x40 MLOAD PUSH3 0x461BCD PUSH1 0xE5 SHL DUP2 MSTORE PUSH1 0x4 ADD PUSH2 0x40F SWAP1 PUSH2 0x10DA JUMP JUMPDEST PUSH1 0x1 DUP1 SLOAD PUSH1 0x0 DUP1 SLOAD PUSH1 0x1 PUSH1 0x1 PUSH1 0xA0 SHL SUB NOT SWAP1 DUP2 AND PUSH1 0x1 PUSH1 0x1 PUSH1 0xA0 SHL SUB DUP5 AND OR SWAP1 SWAP2 SSTORE AND SWAP1 SSTORE JUMP JUMPDEST PUSH1 0x0 SLOAD PUSH1 0x1 PUSH1 0x1 PUSH1 0xA0 SHL SUB AND CALLER EQ PUSH2 0x89D JUMPI PUSH1 0x40 MLOAD PUSH3 0x461BCD PUSH1 0xE5 SHL DUP2 MSTORE PUSH1 0x4 ADD PUSH2 0x40F SWAP1 PUSH2 0x10DA JUMP JUMPDEST PUSH1 0x1 DUP2 GT PUSH2 0x8E2 JUMPI PUSH1 0x40 MLOAD PUSH3 0x461BCD PUSH1 0xE5 SHL DUP2 MSTORE PUSH1 0x20 PUSH1 0x4 DUP3 ADD MSTORE PUSH1 0x12 PUSH1 0x24 DUP3 ADD MSTORE PUSH18 0x1B585E14D8D85B19481D1BDBC81CDB585B1B PUSH1 0x72 SHL PUSH1 0x44 DUP3 ADD MSTORE PUSH1 0x64 ADD PUSH2 0x40F JUMP JUMPDEST PUSH1 0x9 DUP1 SLOAD PUSH1 0xFF NOT AND PUSH1 0xFF SWAP4 SWAP1 SWAP4 AND SWAP3 SWAP1 SWAP3 OR SWAP1 SWAP2 SSTORE PUSH1 0xA SSTORE JUMP JUMPDEST PUSH1 0x0 DUP1 DUP1 PUSH2 0x90D PUSH3 0x93A80 TIMESTAMP PUSH2 0x1001 JUMP JUMPDEST SWAP1 POP PUSH1 0x0 DUP1 PUSH1 0x0 JUMPDEST CALLER PUSH1 0x0 SWAP1 DUP2 MSTORE PUSH1 0x4 PUSH1 0x20 MSTORE PUSH1 0x40 SWAP1 KECCAK256 SLOAD DUP2 LT ISZERO PUSH2 0x9A7 JUMPI CALLER PUSH1 0x0 SWAP1 DUP2 MSTORE PUSH1 0x4 PUSH1 0x20 MSTORE PUSH1 0x40 DUP2 KECCAK256 DUP1 SLOAD DUP4 SWAP1 DUP2 LT PUSH2 0x94D JUMPI PUSH2 0x94D PUSH2 0x1084 JUMP JUMPDEST PUSH1 0x0 SWAP2 DUP3 MSTORE PUSH1 0x20 DUP1 DUP4 KECCAK256 SWAP1 SWAP2 ADD SLOAD DUP1 DUP4 MSTORE PUSH1 0x3 SWAP2 DUP3 SWAP1 MSTORE PUSH1 0x40 SWAP1 SWAP3 KECCAK256 DUP1 SLOAD SWAP2 ADD SLOAD SWAP2 SWAP3 POP SWAP1 DUP7 LT ISZERO PUSH2 0x986 JUMPI PUSH2 0x983 DUP2 DUP6 PUSH2 0x1023 JUMP JUMPDEST SWAP4 POP JUMPDEST PUSH2 0x990 DUP2 DUP7 PUSH2 0x1023 JUMP JUMPDEST SWAP5 POP POP POP DUP1 DUP1 PUSH2 0x99F SWAP1 PUSH2 0x1055 JUMP JUMPDEST SWAP2 POP POP PUSH2 0x915 JUMP JUMPDEST POP SWAP1 SWAP5 SWAP1 SWAP4 POP SWAP2 POP POP JUMP JUMPDEST PUSH1 0x0 SLOAD PUSH1 0x1 PUSH1 0x1 PUSH1 0xA0 SHL SUB AND CALLER EQ PUSH2 0x9DC JUMPI PUSH1 0x40 MLOAD PUSH3 0x461BCD PUSH1 0xE5 SHL DUP2 MSTORE PUSH1 0x4 ADD PUSH2 0x40F SWAP1 PUSH2 0x10DA JUMP JUMPDEST PUSH2 0xA08 PUSH32 0x0 CALLER ADDRESS DUP5 PUSH2 0xCC8 JUMP JUMPDEST PUSH1 0x0 DUP3 DUP2 MSTORE PUSH1 0x7 PUSH1 0x20 MSTORE PUSH1 0x40 DUP2 KECCAK256 DUP1 SLOAD DUP4 SWAP3 SWAP1 PUSH2 0xA26 SWAP1 DUP5 SWAP1 PUSH2 0x1023 JUMP JUMPDEST SWAP1 SWAP2 SSTORE POP POP PUSH1 0x40 DUP1 MLOAD DUP4 DUP2 MSTORE PUSH1 0x20 DUP2 ADD DUP4 SWAP1 MSTORE CALLER SWAP2 PUSH32 0xC3991418CACD70A010FCE559A44FCBB47534CA43BF7543964BDCA2639F6E6E5A SWAP2 ADD JUMPDEST PUSH1 0x40 MLOAD DUP1 SWAP2 SUB SWAP1 LOG2 POP POP JUMP JUMPDEST PUSH1 0x0 PUSH2 0xA7A PUSH3 0x93A80 TIMESTAMP PUSH2 0x1001 JUMP JUMPDEST SWAP1 POP PUSH1 0x0 DUP1 JUMPDEST CALLER PUSH1 0x0 SWAP1 DUP2 MSTORE PUSH1 0x4 PUSH1 0x20 MSTORE PUSH1 0x40 SWAP1 KECCAK256 SLOAD DUP2 LT ISZERO PUSH2 0xBE4 JUMPI CALLER PUSH1 0x0 SWAP1 DUP2 MSTORE PUSH1 0x4 PUSH1 0x20 MSTORE PUSH1 0x40 DUP2 KECCAK256 DUP1 SLOAD DUP4 SWAP1 DUP2 LT PUSH2 0xAB8 JUMPI PUSH2 0xAB8 PUSH2 0x1084 JUMP JUMPDEST PUSH1 0x0 SWAP2 DUP3 MSTORE PUSH1 0x20 DUP1 DUP4 KECCAK256 SWAP1 SWAP2 ADD SLOAD DUP1 DUP4 MSTORE PUSH1 0x3 SWAP1 SWAP2 MSTORE PUSH1 0x40 SWAP1 SWAP2 KECCAK256 PUSH1 0x4 ADD SLOAD SWAP1 SWAP2 POP JUMPDEST PUSH1 0x0 DUP3 DUP2 MSTORE PUSH1 0x3 PUSH1 0x20 DUP2 SWAP1 MSTORE PUSH1 0x40 SWAP1 SWAP2 KECCAK256 ADD SLOAD DUP2 LT ISZERO PUSH2 0xBCF JUMPI PUSH1 0x0 DUP3 DUP2 MSTORE PUSH1 0x5 PUSH1 0x20 SWAP1 DUP2 MSTORE PUSH1 0x40 DUP1 DUP4 KECCAK256 DUP5 DUP5 MSTORE SWAP1 SWAP2 MSTORE SWAP1 KECCAK256 SLOAD PUSH1 0xFF AND DUP1 PUSH2 0xB1C JUMPI POP DUP5 DUP2 GT JUMPDEST DUP1 PUSH2 0xB33 JUMPI POP PUSH1 0x0 DUP2 DUP2 MSTORE PUSH1 0x7 PUSH1 0x20 MSTORE PUSH1 0x40 SWAP1 KECCAK256 SLOAD ISZERO JUMPDEST PUSH2 0xBBD JUMPI PUSH1 0x0 DUP3 DUP2 MSTORE PUSH1 0x5 PUSH1 0x20 SWAP1 DUP2 MSTORE PUSH1 0x40 DUP1 DUP4 KECCAK256 DUP5 DUP5 MSTORE SWAP1 SWAP2 MSTORE SWAP1 KECCAK256 DUP1 SLOAD PUSH1 0xFF NOT AND PUSH1 0x1 SWAP1 DUP2 OR SWAP1 SWAP2 SSTORE PUSH2 0xB69 SWAP1 DUP3 SWAP1 PUSH2 0x1023 JUMP JUMPDEST PUSH1 0x0 DUP4 DUP2 MSTORE PUSH1 0x3 PUSH1 0x20 SWAP1 DUP2 MSTORE PUSH1 0x40 DUP1 DUP4 KECCAK256 PUSH1 0x4 DUP2 ADD SWAP5 SWAP1 SWAP5 SSTORE DUP5 DUP4 MSTORE PUSH1 0x6 DUP3 MSTORE DUP1 DUP4 KECCAK256 SLOAD PUSH1 0x1 SWAP1 SWAP5 ADD SLOAD PUSH1 0x7 SWAP1 SWAP3 MSTORE SWAP1 SWAP2 KECCAK256 SLOAD PUSH2 0xBA6 SWAP2 SWAP1 PUSH2 0x10FD JUMP JUMPDEST PUSH2 0xBB0 SWAP2 SWAP1 PUSH2 0x1001 JUMP JUMPDEST PUSH2 0xBBA SWAP1 DUP6 PUSH2 0x1023 JUMP JUMPDEST SWAP4 POP JUMPDEST DUP1 PUSH2 0xBC7 DUP2 PUSH2 0x1055 JUMP JUMPDEST SWAP2 POP POP PUSH2 0xADB JUMP JUMPDEST POP POP DUP1 DUP1 PUSH2 0xBDC SWAP1 PUSH2 0x1055 JUMP JUMPDEST SWAP2 POP POP PUSH2 0xA80 JUMP JUMPDEST POP PUSH2 0xC10 PUSH32 0x0 CALLER DUP4 PUSH2 0xDE2 JUMP JUMPDEST PUSH1 0x40 MLOAD DUP2 DUP2 MSTORE CALLER SWAP1 PUSH32 0xBA8DE60C3403EC381D1D484652EA1980E3C3E56359195C92525BFF4CE47AD98E SWAP1 PUSH1 0x20 ADD PUSH2 0xA5F JUMP JUMPDEST PUSH1 0x4 PUSH1 0x20 MSTORE DUP2 PUSH1 0x0 MSTORE PUSH1 0x40 PUSH1 0x0 KECCAK256 DUP2 DUP2 SLOAD DUP2 LT PUSH2 0xC5E JUMPI PUSH1 0x0 DUP1 REVERT JUMPDEST SWAP1 PUSH1 0x0 MSTORE PUSH1 0x20 PUSH1 0x0 KECCAK256 ADD PUSH1 0x0 SWAP2 POP SWAP2 POP POP SLOAD DUP2 JUMP JUMPDEST PUSH1 0x9 SLOAD PUSH1 0xA SLOAD PUSH1 0x0 SWAP2 DUP3 SWAP2 PUSH1 0xFF SWAP2 DUP3 AND SWAP2 DUP3 SWAP2 SWAP1 DUP7 AND SWAP1 PUSH2 0xC96 SWAP1 PUSH1 0x1 SWAP1 PUSH2 0x10B0 JUMP JUMPDEST PUSH2 0xCA0 SWAP2 SWAP1 PUSH2 0x10FD JUMP JUMPDEST PUSH2 0xCAA SWAP2 SWAP1 PUSH2 0x1023 JUMP JUMPDEST PUSH2 0xCB4 SWAP1 DUP7 PUSH2 0x10FD JUMP JUMPDEST PUSH2 0xCBE SWAP2 SWAP1 PUSH2 0x1001 JUMP JUMPDEST SWAP2 POP POP JUMPDEST SWAP3 SWAP2 POP POP JUMP JUMPDEST PUSH1 0x40 DUP1 MLOAD PUSH1 0x1 PUSH1 0x1 PUSH1 0xA0 SHL SUB DUP6 DUP2 AND PUSH1 0x24 DUP4 ADD MSTORE DUP5 DUP2 AND PUSH1 0x44 DUP4 ADD MSTORE PUSH1 0x64 DUP1 DUP4 ADD DUP6 SWAP1 MSTORE DUP4 MLOAD DUP1 DUP5 SUB SWAP1 SWAP2 ADD DUP2 MSTORE PUSH1 0x84 SWAP1 SWAP3 ADD DUP4 MSTORE PUSH1 0x20 DUP3 ADD DUP1 MLOAD PUSH1 0x1 PUSH1 0x1 PUSH1 0xE0 SHL SUB AND PUSH4 0x23B872DD PUSH1 0xE0 SHL OR SWAP1 MSTORE SWAP2 MLOAD PUSH1 0x0 SWAP3 DUP4 SWAP3 SWAP1 DUP9 AND SWAP2 PUSH2 0xD2C SWAP2 SWAP1 PUSH2 0x1114 JUMP JUMPDEST PUSH1 0x0 PUSH1 0x40 MLOAD DUP1 DUP4 SUB DUP2 PUSH1 0x0 DUP7 GAS CALL SWAP2 POP POP RETURNDATASIZE DUP1 PUSH1 0x0 DUP2 EQ PUSH2 0xD69 JUMPI PUSH1 0x40 MLOAD SWAP2 POP PUSH1 0x1F NOT PUSH1 0x3F RETURNDATASIZE ADD AND DUP3 ADD PUSH1 0x40 MSTORE RETURNDATASIZE DUP3 MSTORE RETURNDATASIZE PUSH1 0x0 PUSH1 0x20 DUP5 ADD RETURNDATACOPY PUSH2 0xD6E JUMP JUMPDEST PUSH1 0x60 SWAP2 POP JUMPDEST POP SWAP2 POP SWAP2 POP DUP2 DUP1 ISZERO PUSH2 0xD98 JUMPI POP DUP1 MLOAD ISZERO DUP1 PUSH2 0xD98 JUMPI POP DUP1 DUP1 PUSH1 0x20 ADD SWAP1 MLOAD DUP2 ADD SWAP1 PUSH2 0xD98 SWAP2 SWAP1 PUSH2 0x1143 JUMP JUMPDEST PUSH2 0xDDA JUMPI PUSH1 0x40 MLOAD PUSH3 0x461BCD PUSH1 0xE5 SHL DUP2 MSTORE PUSH1 0x20 PUSH1 0x4 DUP3 ADD MSTORE PUSH1 0x13 PUSH1 0x24 DUP3 ADD MSTORE PUSH19 0x1D1C985B9CD9995C919C9BDB4819985A5B1959 PUSH1 0x6A SHL PUSH1 0x44 DUP3 ADD MSTORE PUSH1 0x64 ADD PUSH2 0x40F JUMP JUMPDEST POP POP POP POP POP POP JUMP JUMPDEST PUSH1 0x40 DUP1 MLOAD PUSH1 0x1 PUSH1 0x1 PUSH1 0xA0 SHL SUB DUP5 DUP2 AND PUSH1 0x24 DUP4 ADD MSTORE PUSH1 0x44 DUP1 DUP4 ADD DUP6 SWAP1 MSTORE DUP4 MLOAD DUP1 DUP5 SUB SWAP1 SWAP2 ADD DUP2 MSTORE PUSH1 0x64 SWAP1 SWAP3 ADD DUP4 MSTORE PUSH1 0x20 DUP3 ADD DUP1 MLOAD PUSH1 0x1 PUSH1 0x1 PUSH1 0xE0 SHL SUB AND PUSH4 0xA9059CBB PUSH1 0xE0 SHL OR SWAP1 MSTORE SWAP2 MLOAD PUSH1 0x0 SWAP3 DUP4 SWAP3 SWAP1 DUP8 AND SWAP2 PUSH2 0xE3E SWAP2 SWAP1 PUSH2 0x1114 JUMP JUMPDEST PUSH1 0x0 PUSH1 0x40 MLOAD DUP1 DUP4 SUB DUP2 PUSH1 0x0 DUP7 GAS CALL SWAP2 POP POP RETURNDATASIZE DUP1 PUSH1 0x0 DUP2 EQ PUSH2 0xE7B JUMPI PUSH1 0x40 MLOAD SWAP2 POP PUSH1 0x1F NOT PUSH1 0x3F RETURNDATASIZE ADD AND DUP3 ADD PUSH1 0x40 MSTORE RETURNDATASIZE DUP3 MSTORE RETURNDATASIZE PUSH1 0x0 PUSH1 0x20 DUP5 ADD RETURNDATACOPY PUSH2 0xE80 JUMP JUMPDEST PUSH1 0x60 SWAP2 POP JUMPDEST POP SWAP2 POP SWAP2 POP DUP2 DUP1 ISZERO PUSH2 0xEAA JUMPI POP DUP1 MLOAD ISZERO DUP1 PUSH2 0xEAA JUMPI POP DUP1 DUP1 PUSH1 0x20 ADD SWAP1 MLOAD DUP2 ADD SWAP1 PUSH2 0xEAA SWAP2 SWAP1 PUSH2 0x1143 JUMP JUMPDEST PUSH2 0xEE8 JUMPI PUSH1 0x40 MLOAD PUSH3 0x461BCD PUSH1 0xE5 SHL DUP2 MSTORE PUSH1 0x20 PUSH1 0x4 DUP3 ADD MSTORE PUSH1 0xF PUSH1 0x24 DUP3 ADD MSTORE PUSH15 0x1514905394D1915497D19052531151 PUSH1 0x8A SHL PUSH1 0x44 DUP3 ADD MSTORE PUSH1 0x64 ADD PUSH2 0x40F JUMP JUMPDEST POP POP POP POP POP JUMP JUMPDEST PUSH1 0x0 PUSH1 0x20 DUP3 DUP5 SUB SLT ISZERO PUSH2 0xF01 JUMPI PUSH1 0x0 DUP1 REVERT JUMPDEST POP CALLDATALOAD SWAP2 SWAP1 POP JUMP JUMPDEST DUP1 CALLDATALOAD PUSH1 0xFF DUP2 AND DUP2 EQ PUSH2 0xF19 JUMPI PUSH1 0x0 DUP1 REVERT JUMPDEST SWAP2 SWAP1 POP JUMP JUMPDEST PUSH1 0x0 DUP1 PUSH1 0x40 DUP4 DUP6 SUB SLT ISZERO PUSH2 0xF31 JUMPI PUSH1 0x0 DUP1 REVERT JUMPDEST DUP3 CALLDATALOAD SWAP2 POP PUSH2 0xF41 PUSH1 0x20 DUP5 ADD PUSH2 0xF08 JUMP JUMPDEST SWAP1 POP SWAP3 POP SWAP3 SWAP1 POP JUMP JUMPDEST DUP1 CALLDATALOAD PUSH1 0x1 PUSH1 0x1 PUSH1 0xA0 SHL SUB DUP2 AND DUP2 EQ PUSH2 0xF19 JUMPI PUSH1 0x0 DUP1 REVERT JUMPDEST PUSH1 0x0 PUSH1 0x20 DUP3 DUP5 SUB SLT ISZERO PUSH2 0xF73 JUMPI PUSH1 0x0 DUP1 REVERT JUMPDEST PUSH2 0xF7C DUP3 PUSH2 0xF4A JUMP JUMPDEST SWAP4 SWAP3 POP POP POP JUMP JUMPDEST PUSH1 0x0 DUP1 PUSH1 0x40 DUP4 DUP6 SUB SLT ISZERO PUSH2 0xF96 JUMPI PUSH1 0x0 DUP1 REVERT JUMPDEST PUSH2 0xF9F DUP4 PUSH2 0xF08 JUMP JUMPDEST SWAP5 PUSH1 0x20 SWAP4 SWAP1 SWAP4 ADD CALLDATALOAD SWAP4 POP POP POP JUMP JUMPDEST PUSH1 0x0 DUP1 PUSH1 0x40 DUP4 DUP6 SUB SLT ISZERO PUSH2 0xFC0 JUMPI PUSH1 0x0 DUP1 REVERT JUMPDEST POP POP DUP1 CALLDATALOAD SWAP3 PUSH1 0x20 SWAP1 SWAP2 ADD CALLDATALOAD SWAP2 POP JUMP JUMPDEST PUSH1 0x0 DUP1 PUSH1 0x40 DUP4 DUP6 SUB SLT ISZERO PUSH2 0xFE2 JUMPI PUSH1 0x0 DUP1 REVERT JUMPDEST PUSH2 0xF9F DUP4 PUSH2 0xF4A JUMP JUMPDEST PUSH4 0x4E487B71 PUSH1 0xE0 SHL PUSH1 0x0 MSTORE PUSH1 0x11 PUSH1 0x4 MSTORE PUSH1 0x24 PUSH1 0x0 REVERT JUMPDEST PUSH1 0x0 DUP3 PUSH2 0x101E JUMPI PUSH4 0x4E487B71 PUSH1 0xE0 SHL PUSH1 0x0 MSTORE PUSH1 0x12 PUSH1 0x4 MSTORE PUSH1 0x24 PUSH1 0x0 REVERT JUMPDEST POP DIV SWAP1 JUMP JUMPDEST DUP1 DUP3 ADD DUP1 DUP3 GT ISZERO PUSH2 0xCC2 JUMPI PUSH2 0xCC2 PUSH2 0xFEB JUMP JUMPDEST PUSH1 0x0 PUSH1 0xFF DUP3 AND PUSH1 0xFF DUP2 SUB PUSH2 0x104C JUMPI PUSH2 0x104C PUSH2 0xFEB JUMP JUMPDEST PUSH1 0x1 ADD SWAP3 SWAP2 POP POP JUMP JUMPDEST PUSH1 0x0 PUSH1 0x1 DUP3 ADD PUSH2 0x1067 JUMPI PUSH2 0x1067 PUSH2 0xFEB JUMP JUMPDEST POP PUSH1 0x1 ADD SWAP1 JUMP JUMPDEST PUSH4 0x4E487B71 PUSH1 0xE0 SHL PUSH1 0x0 MSTORE PUSH1 0x41 PUSH1 0x4 MSTORE PUSH1 0x24 PUSH1 0x0 REVERT JUMPDEST PUSH4 0x4E487B71 PUSH1 0xE0 SHL PUSH1 0x0 MSTORE PUSH1 0x32 PUSH1 0x4 MSTORE PUSH1 0x24 PUSH1 0x0 REVERT JUMPDEST PUSH4 0x4E487B71 PUSH1 0xE0 SHL PUSH1 0x0 MSTORE PUSH1 0x31 PUSH1 0x4 MSTORE PUSH1 0x24 PUSH1 0x0 REVERT JUMPDEST DUP2 DUP2 SUB DUP2 DUP2 GT ISZERO PUSH2 0xCC2 JUMPI PUSH2 0xCC2 PUSH2 0xFEB JUMP JUMPDEST PUSH1 0x0 DUP2 PUSH2 0x10D2 JUMPI PUSH2 0x10D2 PUSH2 0xFEB JUMP JUMPDEST POP PUSH1 0x0 NOT ADD SWAP1 JUMP JUMPDEST PUSH1 0x20 DUP1 DUP3 MSTORE PUSH1 0x9 SWAP1 DUP3 ADD MSTORE PUSH9 0x3337B93134B23232B7 PUSH1 0xB9 SHL PUSH1 0x40 DUP3 ADD MSTORE PUSH1 0x60 ADD SWAP1 JUMP JUMPDEST DUP1 DUP3 MUL DUP2 ISZERO DUP3 DUP3 DIV DUP5 EQ OR PUSH2 0xCC2 JUMPI PUSH2 0xCC2 PUSH2 0xFEB JUMP JUMPDEST PUSH1 0x0 DUP3 MLOAD PUSH1 0x0 JUMPDEST DUP2 DUP2 LT ISZERO PUSH2 0x1135 JUMPI PUSH1 0x20 DUP2 DUP7 ADD DUP2 ADD MLOAD DUP6 DUP4 ADD MSTORE ADD PUSH2 0x111B JUMP JUMPDEST POP PUSH1 0x0 SWAP3 ADD SWAP2 DUP3 MSTORE POP SWAP2 SWAP1 POP JUMP JUMPDEST PUSH1 0x0 PUSH1 0x20 DUP3 DUP5 SUB SLT ISZERO PUSH2 0x1155 JUMPI PUSH1 0x0 DUP1 REVERT JUMPDEST DUP2 MLOAD DUP1 ISZERO ISZERO DUP2 EQ PUSH2 0xF7C JUMPI PUSH1 0x0 DUP1 REVERT INVALID LOG2 PUSH5 0x6970667358 0x22 SLT KECCAK256 0x2F SLOAD DUP16 XOR 0xE0 JUMP PUSH18 0xA8BEDBE023124A4FCE471962EF4391763507 0xE PUSH2 0x8699 DIV 0x29 MULMOD PUSH5 0x736F6C6343 STOP ADDMOD GT STOP CALLER "},"methodIdentifiers":{"MAX_SCALE()":"f6def7cf","MAX_WEEKS()":"e11400bb","WEEK_SECONDS()":"cd671a58","acceptSetter()":"5f8e422f","bClaimReward(uint256,uint256)":"ce6d3e3e","claimReward()":"b88a802f","divConst()":"7e4856c4","getScore(uint256,uint8)":"ee3453ed","getStaking()":"7b1391a6","latestNo()":"29ed1cfd","lpToken()":"5fcbd285","nonce()":"affed0e0","owner()":"8da5cb5b","rewardToken()":"f7c618c1","rewardsOf(uint256)":"0bce1284","setReward(uint256,uint256)":"a47bd496","setScoreFormula(uint8,uint256)":"721348e8","stake(uint256,uint8)":"10087fb1","stakingERC20s(uint256)":"a218de15","transferOwner(address)":"4fb2e45d","userERC20s(address,uint256)":"ba086501","withdraw(uint256)":"2e1a7d4d"}}}}}