{"contracts/stakeERC20.sol":{"StakeERC20":{"abi":[{"inputs":[{"internalType":"uint8","name":"maxWeeks","type":"uint8"},{"internalType":"uint256","name":"maxScale","type":"uint256"},{"internalType":"uint8","name":"lockWeeks","type":"uint8"},{"internalType":"uint256","name":"beginTime","type":"uint256"},{"internalType":"uint256","name":"endTime","type":"uint256"},{"internalType":"address","name":"_rewardToken","type":"address"},{"internalType":"address","name":"_lpToken","type":"address"}],"stateMutability":"nonpayable","type":"constructor"},{"anonymous":false,"inputs":[{"indexed":true,"internalType":"address","name":"user","type":"address"},{"indexed":false,"internalType":"uint256","name":"amount","type":"uint256"}],"name":"ClaimReward","type":"event"},{"anonymous":false,"inputs":[{"indexed":true,"internalType":"address","name":"user","type":"address"},{"indexed":false,"internalType":"uint256","name":"no","type":"uint256"},{"indexed":false,"internalType":"uint256","name":"amount","type":"uint256"}],"name":"SetReward","type":"event"},{"anonymous":false,"inputs":[{"indexed":true,"internalType":"address","name":"user","type":"address"},{"indexed":false,"internalType":"uint256","name":"id","type":"uint256"},{"indexed":false,"internalType":"uint256","name":"amount","type":"uint256"},{"indexed":false,"internalType":"uint8","name":"k","type":"uint8"}],"name":"Stake","type":"event"},{"anonymous":false,"inputs":[{"indexed":true,"internalType":"address","name":"user","type":"address"},{"indexed":false,"internalType":"uint256","name":"amount","type":"uint256"}],"name":"Withdraw","type":"event"},{"inputs":[],"name":"BEGIN_TIME","outputs":[{"internalType":"uint256","name":"","type":"uint256"}],"stateMutability":"view","type":"function"},{"inputs":[],"name":"END_TIME","outputs":[{"internalType":"uint256","name":"","type":"uint256"}],"stateMutability":"view","type":"function"},{"inputs":[],"name":"LOCK_WEEKNUM","outputs":[{"internalType":"uint8","name":"","type":"uint8"}],"stateMutability":"view","type":"function"},{"inputs":[],"name":"MAX_SCALE","outputs":[{"internalType":"uint256","name":"","type":"uint256"}],"stateMutability":"view","type":"function"},{"inputs":[],"name":"MAX_WEEKS","outputs":[{"internalType":"uint8","name":"","type":"uint8"}],"stateMutability":"view","type":"function"},{"inputs":[],"name":"WEEK_SECONDS","outputs":[{"internalType":"uint24","name":"","type":"uint24"}],"stateMutability":"view","type":"function"},{"inputs":[],"name":"acceptSetter","outputs":[],"stateMutability":"nonpayable","type":"function"},{"inputs":[],"name":"canClaimAmount","outputs":[{"internalType":"uint256","name":"","type":"uint256"}],"stateMutability":"view","type":"function"},{"inputs":[],"name":"claimReward","outputs":[],"stateMutability":"nonpayable","type":"function"},{"inputs":[{"internalType":"uint256","name":"amount","type":"uint256"},{"internalType":"uint8","name":"k","type":"uint8"}],"name":"getScore","outputs":[{"internalType":"uint256","name":"score","type":"uint256"}],"stateMutability":"view","type":"function"},{"inputs":[],"name":"getStaking","outputs":[{"components":[{"internalType":"uint256","name":"amount","type":"uint256"},{"internalType":"uint256","name":"score","type":"uint256"},{"internalType":"uint256","name":"beginNo","type":"uint256"},{"internalType":"uint256","name":"endNo","type":"uint256"}],"internalType":"struct StakeERC20.StakingERC20[]","name":"","type":"tuple[]"}],"stateMutability":"view","type":"function"},{"inputs":[],"name":"latestNo","outputs":[{"internalType":"uint256","name":"","type":"uint256"}],"stateMutability":"view","type":"function"},{"inputs":[],"name":"lpToken","outputs":[{"internalType":"address","name":"","type":"address"}],"stateMutability":"view","type":"function"},{"inputs":[],"name":"nonce","outputs":[{"internalType":"uint256","name":"","type":"uint256"}],"stateMutability":"view","type":"function"},{"inputs":[],"name":"owner","outputs":[{"internalType":"address","name":"","type":"address"}],"stateMutability":"view","type":"function"},{"inputs":[],"name":"rewardToken","outputs":[{"internalType":"address","name":"","type":"address"}],"stateMutability":"view","type":"function"},{"inputs":[{"internalType":"uint256","name":"","type":"uint256"}],"name":"rewardsOf","outputs":[{"internalType":"uint256","name":"","type":"uint256"}],"stateMutability":"view","type":"function"},{"inputs":[{"internalType":"uint256[]","name":"nos","type":"uint256[]"},{"internalType":"uint256[]","name":"amounts","type":"uint256[]"}],"name":"setRewards","outputs":[{"internalType":"uint256","name":"total","type":"uint256"}],"stateMutability":"nonpayable","type":"function"},{"inputs":[{"internalType":"uint256","name":"amount","type":"uint256"},{"internalType":"uint8","name":"k","type":"uint8"}],"name":"stake","outputs":[],"stateMutability":"nonpayable","type":"function"},{"inputs":[{"internalType":"uint256","name":"","type":"uint256"}],"name":"stakingERC20s","outputs":[{"internalType":"uint256","name":"amount","type":"uint256"},{"internalType":"uint256","name":"score","type":"uint256"},{"internalType":"uint256","name":"beginNo","type":"uint256"},{"internalType":"uint256","name":"endNo","type":"uint256"}],"stateMutability":"view","type":"function"},{"inputs":[{"internalType":"uint256","name":"","type":"uint256"}],"name":"totalScores","outputs":[{"internalType":"uint256","name":"","type":"uint256"}],"stateMutability":"view","type":"function"},{"inputs":[{"internalType":"address","name":"_owner","type":"address"}],"name":"transferOwner","outputs":[],"stateMutability":"nonpayable","type":"function"},{"inputs":[{"internalType":"address","name":"","type":"address"},{"internalType":"uint256","name":"","type":"uint256"}],"name":"userCanClaimWeeks","outputs":[{"internalType":"uint256","name":"","type":"uint256"}],"stateMutability":"view","type":"function"},{"inputs":[{"internalType":"address","name":"","type":"address"},{"internalType":"uint256","name":"","type":"uint256"}],"name":"userERC20s","outputs":[{"internalType":"uint256","name":"","type":"uint256"}],"stateMutability":"view","type":"function"},{"inputs":[{"internalType":"address","name":"","type":"address"},{"internalType":"uint256","name":"","type":"uint256"}],"name":"userScores","outputs":[{"internalType":"uint256","name":"","type":"uint256"}],"stateMutability":"view","type":"function"},{"inputs":[],"name":"withdraw","outputs":[{"internalType":"uint256","name":"total","type":"uint256"}],"stateMutability":"nonpayable","type":"function"},{"inputs":[{"internalType":"uint256","name":"amount","type":"uint256"}],"name":"withdrawRewards","outputs":[],"stateMutability":"nonpayable","type":"function"}],"evm":{"bytecode":{"linkReferences":{},"object":"6101606040523480156200001257600080fd5b5060405162001859380380620018598339810160408190526200003591620000ac565b6001600160a01b0391821660805260ff96871660a05260c0959095529490921660e0526101005261012052600080546001600160a01b03191633179055166101405262000126565b805160ff811681146200008f57600080fd5b919050565b80516001600160a01b03811681146200008f57600080fd5b600080600080600080600060e0888a031215620000c857600080fd5b620000d3886200007d565b965060208801519550620000ea604089016200007d565b945060608801519350608088015192506200010860a0890162000094565b91506200011860c0890162000094565b905092959891949750929550565b60805160a05160c05160e051610100516101205161014051611684620001d5600039600081816102d201526105dd01526000818161025d015261052f0152600081816103f3015261055a0152600081816101e601528181610b350152610e0f015260008181610471015261101e015260008181610437015281816104ca01528181610fba0152610fe501526000818161049801528181610c2f01528181610da00152610efc01526116846000f3fe608060405234801561001057600080fd5b50600436106101a95760003560e01c80638da5cb5b116100f9578063bb57852d11610097578063e11400bb11610071578063e11400bb14610432578063ee3453ed14610459578063f6def7cf1461046c578063f7c618c11461049357600080fd5b8063bb57852d146103db578063c75363b6146103ee578063cd671a581461041557600080fd5b8063a218de15116100d3578063a218de1514610362578063affed0e0146103b7578063b88a802f146103c0578063ba086501146103c857600080fd5b80638da5cb5b146103295780639342c8f41461033c578063979db1c41461034f57600080fd5b80633ccfd60b116101665780635f8e422f116101405780635f8e422f146102c55780635fcbd285146102cd5780637b1391a61461030c5780638431165e1461032157600080fd5b80633ccfd60b1461027f5780634fb2e45d146102875780635b680a451461029a57600080fd5b80630bce1284146101ae5780630d437d40146101e157806310087fb11461021a578063157775df1461022f57806329ed1cfd1461024f57806337ba682d14610258575b600080fd5b6101ce6101bc3660046112a2565b60056020526000908152604090205481565b6040519081526020015b60405180910390f35b6102087f000000000000000000000000000000000000000000000000000000000000000081565b60405160ff90911681526020016101d8565b61022d6102283660046112bb565b6104ba565b005b6101ce61023d3660046112a2565b60046020526000908152604090205481565b6101ce60065481565b6101ce7f000000000000000000000000000000000000000000000000000000000000000081565b6101ce610808565b61022d61029536600461130d565b610952565b6101ce6102a8366004611328565b600260209081526000928352604080842090915290825290205481565b61022d61099e565b6102f47f000000000000000000000000000000000000000000000000000000000000000081565b6040516001600160a01b0390911681526020016101d8565b6103146109ef565b6040516101d89190611352565b6101ce610b2e565b6000546102f4906001600160a01b031681565b61022d61034a3660046112a2565b610c00565b6101ce61035d366004611467565b610c58565b6103976103703660046112a2565b60086020526000908152604090208054600182015460028301546003909301549192909184565b6040805194855260208501939093529183015260608201526080016101d8565b6101ce60075481565b61022d610e09565b6101ce6103d6366004611328565b610f5b565b6101ce6103e9366004611328565b610f8c565b6101ce7f000000000000000000000000000000000000000000000000000000000000000081565b61041e61025881565b60405162ffffff90911681526020016101d8565b6102087f000000000000000000000000000000000000000000000000000000000000000081565b6101ce6104673660046112bb565b610fb1565b6101ce7f000000000000000000000000000000000000000000000000000000000000000081565b6102f47f000000000000000000000000000000000000000000000000000000000000000081565b60008160ff161180156104f357507f000000000000000000000000000000000000000000000000000000000000000060ff168160ff1611155b61052d5760405162461bcd60e51b8152602060048201526006602482015265359018bf1a9960d11b60448201526064015b60405180910390fd5b7f0000000000000000000000000000000000000000000000000000000000000000421115801561057d57507f00000000000000000000000000000000000000000000000000000000000000004210155b6105bd5760405162461bcd60e51b81526020600482015260116024820152701b9bdd081a5b881d1a19481c195c9a5bd9607a1b6044820152606401610524565b60006105cb610258426114e1565b6105d6906001611503565b90506106047f000000000000000000000000000000000000000000000000000000000000000033308661107b565b60006106108484610fb1565b905060005b8360ff168160ff1610156106aa57816004600061063560ff851687611503565b815260200190815260200160002060008282546106529190611503565b9091555050336000908152600260205260408120839161067560ff851687611503565b815260200190815260200160002060008282546106929190611503565b909155508190506106a28161151c565b915050610615565b5060405180608001604052808581526020018281526020018381526020018460ff16846106d79190611503565b905260075460009081526008602090815260408083208451815584830151600180830191909155858301516002830155606090950151600391820155338452909152902090810154905403610739573360009081526003602052604090208290555b61074660ff841683611503565b3360009081526003602052604090206001015410156107805761076c60ff841683611503565b336000908152600360205260409020600101555b33600081815260096020908152604080832060078054825460018101845592865294849020909101939093559154825190815290810187905260ff86168183015290517f6fa2f6021ee337436cdf2b2570285886da18bc06402ce284d296504a0fe8f8759181900360600190a2600780549060006107fd83611551565b919050555050505050565b600080610817610258426114e1565b33600090815260096020526040812054919250906108379060019061156a565b90505b33600090815260096020526040812080548390811061085b5761085b61153b565b906000526020600020015490508260086000838152602001908152602001600020600301541161093f5760008181526008602052604090205461089e9085611503565b3360009081526009602052604090208054919550906108bf9060019061156a565b815481106108cf576108cf61153b565b6000918252602080832090910154338352600990915260409091208054849081106108fc576108fc61153b565b60009182526020808320909101929092553381526009909152604090208054806109285761092861157d565b600190038181906000526020600020016000905590555b508061094a81611593565b91505061083a565b6000546001600160a01b0316331461097c5760405162461bcd60e51b8152600401610524906115aa565b600180546001600160a01b0319166001600160a01b0392909216919091179055565b6001546001600160a01b031633146109c85760405162461bcd60e51b8152600401610524906115aa565b60018054600080546001600160a01b03199081166001600160a01b03841617909155169055565b336000908152600960205260408120546060918167ffffffffffffffff811115610a1b57610a1b6113b6565b604051908082528060200260200182016040528015610a7757816020015b610a646040518060800160405280600081526020016000815260200160008152602001600081525090565b815260200190600190039081610a395790505b50905060005b82811015610b27573360009081526009602052604081208054600892919084908110610aab57610aab61153b565b90600052602060002001548152602001908152602001600020604051806080016040529081600082015481526020016001820154815260200160028201548152602001600382015481525050828281518110610b0957610b0961153b565b60200260200101819052508080610b1f90611551565b915050610a7d565b5092915050565b60008060ff7f000000000000000000000000000000000000000000000000000000000000000016610b61610258426114e1565b610b6b919061156a565b33600090815260036020526040812054919250905b33600090815260036020526040902060010154811015610b2757828111610b2757600081815260046020908152604080832054338452600283528184208585528352818420546005909352922054610bd891906115cd565b610be291906114e1565b610bec9083611503565b915080610bf881611551565b915050610b80565b6000546001600160a01b03163314610c2a5760405162461bcd60e51b8152600401610524906115aa565b610c557f00000000000000000000000000000000000000000000000000000000000000003383611195565b50565b600080546001600160a01b03163314610c835760405162461bcd60e51b8152600401610524906115aa565b8151835114610cc75760405162461bcd60e51b815260206004820152601060248201526f3830b930b6b2ba32b9399032b93937b960811b6044820152606401610524565b60005b8351811015610d9a57828181518110610ce557610ce561153b565b602002602001015182610cf89190611503565b9150828181518110610d0c57610d0c61153b565b602002602001015160056000868481518110610d2a57610d2a61153b565b6020026020010151815260200190815260200160002081905550600654848281518110610d5957610d5961153b565b60200260200101511115610d8857838181518110610d7957610d7961153b565b60200260200101516006819055505b80610d9281611551565b915050610cca565b50610dc77f000000000000000000000000000000000000000000000000000000000000000033308461107b565b60408051600081526020810183905233917fc3991418cacd70a010fce559a44fcbb47534ca43bf7543964bdca2639f6e6e5a910160405180910390a292915050565b600060ff7f000000000000000000000000000000000000000000000000000000000000000016610e3b610258426114e1565b610e45919061156a565b33600090815260036020526040812054919250905b33600090815260036020526040902060010154811015610ef657828111610ef657610e86816001611503565b3360009081526003602052604081200155600081815260046020908152604080832054338452600283528184208585528352818420546005909352922054610ece91906115cd565b610ed891906114e1565b610ee29083611503565b915080610eee81611551565b915050610e5a565b50610f227f00000000000000000000000000000000000000000000000000000000000000003383611195565b60405181815233907fba8de60c3403ec381d1d484652ea1980e3c3e56359195c92525bff4ce47ad98e9060200160405180910390a25050565b60096020528160005260406000208181548110610f7757600080fd5b90600052602060002001600091509150505481565b60036020528160005260406000208160028110610fa857600080fd5b01549150829050565b6000610fde60017f00000000000000000000000000000000000000000000000000000000000000006115e4565b60ff1660017f000000000000000000000000000000000000000000000000000000000000000060ff1660018561101491906115e4565b60ff1661104260017f000000000000000000000000000000000000000000000000000000000000000061156a565b61104c91906115cd565b6110569190611503565b611060919061156a565b61106a90856115cd565b61107491906114e1565b9392505050565b604080516001600160a01b0385811660248301528481166044830152606480830185905283518084039091018152608490920183526020820180516001600160e01b03166323b872dd60e01b17905291516000928392908816916110df91906115fd565b6000604051808303816000865af19150503d806000811461111c576040519150601f19603f3d011682016040523d82523d6000602084013e611121565b606091505b509150915081801561114b57508051158061114b57508080602001905181019061114b919061162c565b61118d5760405162461bcd60e51b81526020600482015260136024820152721d1c985b9cd9995c919c9bdb4819985a5b1959606a1b6044820152606401610524565b505050505050565b604080516001600160a01b038481166024830152604480830185905283518084039091018152606490920183526020820180516001600160e01b031663a9059cbb60e01b17905291516000928392908716916111f191906115fd565b6000604051808303816000865af19150503d806000811461122e576040519150601f19603f3d011682016040523d82523d6000602084013e611233565b606091505b509150915081801561125d57508051158061125d57508080602001905181019061125d919061162c565b61129b5760405162461bcd60e51b815260206004820152600f60248201526e1514905394d1915497d19052531151608a1b6044820152606401610524565b5050505050565b6000602082840312156112b457600080fd5b5035919050565b600080604083850312156112ce57600080fd5b82359150602083013560ff811681146112e657600080fd5b809150509250929050565b80356001600160a01b038116811461130857600080fd5b919050565b60006020828403121561131f57600080fd5b611074826112f1565b6000806040838503121561133b57600080fd5b611344836112f1565b946020939093013593505050565b602080825282518282018190526000919060409081850190868401855b828110156113a95781518051855286810151878601528581015186860152606090810151908501526080909301929085019060010161136f565b5091979650505050505050565b634e487b7160e01b600052604160045260246000fd5b600082601f8301126113dd57600080fd5b8135602067ffffffffffffffff808311156113fa576113fa6113b6565b8260051b604051601f19603f8301168101818110848211171561141f5761141f6113b6565b60405293845285810183019383810192508785111561143d57600080fd5b83870191505b8482101561145c57813583529183019190830190611443565b979650505050505050565b6000806040838503121561147a57600080fd5b823567ffffffffffffffff8082111561149257600080fd5b61149e868387016113cc565b935060208501359150808211156114b457600080fd5b506114c1858286016113cc565b9150509250929050565b634e487b7160e01b600052601160045260246000fd5b6000826114fe57634e487b7160e01b600052601260045260246000fd5b500490565b80820180821115611516576115166114cb565b92915050565b600060ff821660ff8103611532576115326114cb565b60010192915050565b634e487b7160e01b600052603260045260246000fd5b600060018201611563576115636114cb565b5060010190565b81810381811115611516576115166114cb565b634e487b7160e01b600052603160045260246000fd5b6000816115a2576115a26114cb565b506000190190565b6020808252600990820152683337b93134b23232b760b91b604082015260600190565b8082028115828204841417611516576115166114cb565b60ff8281168282160390811115611516576115166114cb565b6000825160005b8181101561161e5760208186018101518583015201611604565b506000920191825250919050565b60006020828403121561163e57600080fd5b8151801515811461107457600080fdfea26469706673582212209145f1615eed89e0d9e8e064c3ba185a21a3ac54707f74e16acda40cbdac7dfb64736f6c63430008110033","opcodes":"PUSH2 0x160 PUSH1 0x40 MSTORE CALLVALUE DUP1 ISZERO PUSH3 0x12 JUMPI PUSH1 0x0 DUP1 REVERT JUMPDEST POP PUSH1 0x40 MLOAD PUSH3 0x1859 CODESIZE SUB DUP1 PUSH3 0x1859 DUP4 CODECOPY DUP2 ADD PUSH1 0x40 DUP2 SWAP1 MSTORE PUSH3 0x35 SWAP2 PUSH3 0xAC JUMP JUMPDEST PUSH1 0x1 PUSH1 0x1 PUSH1 0xA0 SHL SUB SWAP2 DUP3 AND PUSH1 0x80 MSTORE PUSH1 0xFF SWAP7 DUP8 AND PUSH1 0xA0 MSTORE PUSH1 0xC0 SWAP6 SWAP1 SWAP6 MSTORE SWAP5 SWAP1 SWAP3 AND PUSH1 0xE0 MSTORE PUSH2 0x100 MSTORE PUSH2 0x120 MSTORE PUSH1 0x0 DUP1 SLOAD PUSH1 0x1 PUSH1 0x1 PUSH1 0xA0 SHL SUB NOT AND CALLER OR SWAP1 SSTORE AND PUSH2 0x140 MSTORE PUSH3 0x126 JUMP JUMPDEST DUP1 MLOAD PUSH1 0xFF DUP2 AND DUP2 EQ PUSH3 0x8F JUMPI PUSH1 0x0 DUP1 REVERT JUMPDEST SWAP2 SWAP1 POP JUMP JUMPDEST DUP1 MLOAD PUSH1 0x1 PUSH1 0x1 PUSH1 0xA0 SHL SUB DUP2 AND DUP2 EQ PUSH3 0x8F JUMPI PUSH1 0x0 DUP1 REVERT JUMPDEST PUSH1 0x0 DUP1 PUSH1 0x0 DUP1 PUSH1 0x0 DUP1 PUSH1 0x0 PUSH1 0xE0 DUP9 DUP11 SUB SLT ISZERO PUSH3 0xC8 JUMPI PUSH1 0x0 DUP1 REVERT JUMPDEST PUSH3 0xD3 DUP9 PUSH3 0x7D JUMP JUMPDEST SWAP7 POP PUSH1 0x20 DUP9 ADD MLOAD SWAP6 POP PUSH3 0xEA PUSH1 0x40 DUP10 ADD PUSH3 0x7D JUMP JUMPDEST SWAP5 POP PUSH1 0x60 DUP9 ADD MLOAD SWAP4 POP PUSH1 0x80 DUP9 ADD MLOAD SWAP3 POP PUSH3 0x108 PUSH1 0xA0 DUP10 ADD PUSH3 0x94 JUMP JUMPDEST SWAP2 POP PUSH3 0x118 PUSH1 0xC0 DUP10 ADD PUSH3 0x94 JUMP JUMPDEST SWAP1 POP SWAP3 SWAP6 SWAP9 SWAP2 SWAP5 SWAP8 POP SWAP3 SWAP6 POP JUMP JUMPDEST PUSH1 0x80 MLOAD PUSH1 0xA0 MLOAD PUSH1 0xC0 MLOAD PUSH1 0xE0 MLOAD PUSH2 0x100 MLOAD PUSH2 0x120 MLOAD PUSH2 0x140 MLOAD PUSH2 0x1684 PUSH3 0x1D5 PUSH1 0x0 CODECOPY PUSH1 0x0 DUP2 DUP2 PUSH2 0x2D2 ADD MSTORE PUSH2 0x5DD ADD MSTORE PUSH1 0x0 DUP2 DUP2 PUSH2 0x25D ADD MSTORE PUSH2 0x52F ADD MSTORE PUSH1 0x0 DUP2 DUP2 PUSH2 0x3F3 ADD MSTORE PUSH2 0x55A ADD MSTORE PUSH1 0x0 DUP2 DUP2 PUSH2 0x1E6 ADD MSTORE DUP2 DUP2 PUSH2 0xB35 ADD MSTORE PUSH2 0xE0F ADD MSTORE PUSH1 0x0 DUP2 DUP2 PUSH2 0x471 ADD MSTORE PUSH2 0x101E ADD MSTORE PUSH1 0x0 DUP2 DUP2 PUSH2 0x437 ADD MSTORE DUP2 DUP2 PUSH2 0x4CA ADD MSTORE DUP2 DUP2 PUSH2 0xFBA ADD MSTORE PUSH2 0xFE5 ADD MSTORE PUSH1 0x0 DUP2 DUP2 PUSH2 0x498 ADD MSTORE DUP2 DUP2 PUSH2 0xC2F ADD MSTORE DUP2 DUP2 PUSH2 0xDA0 ADD MSTORE PUSH2 0xEFC ADD MSTORE PUSH2 0x1684 PUSH1 0x0 RETURN INVALID PUSH1 0x80 PUSH1 0x40 MSTORE CALLVALUE DUP1 ISZERO PUSH2 0x10 JUMPI PUSH1 0x0 DUP1 REVERT JUMPDEST POP PUSH1 0x4 CALLDATASIZE LT PUSH2 0x1A9 JUMPI PUSH1 0x0 CALLDATALOAD PUSH1 0xE0 SHR DUP1 PUSH4 0x8DA5CB5B GT PUSH2 0xF9 JUMPI DUP1 PUSH4 0xBB57852D GT PUSH2 0x97 JUMPI DUP1 PUSH4 0xE11400BB GT PUSH2 0x71 JUMPI DUP1 PUSH4 0xE11400BB EQ PUSH2 0x432 JUMPI DUP1 PUSH4 0xEE3453ED EQ PUSH2 0x459 JUMPI DUP1 PUSH4 0xF6DEF7CF EQ PUSH2 0x46C JUMPI DUP1 PUSH4 0xF7C618C1 EQ PUSH2 0x493 JUMPI PUSH1 0x0 DUP1 REVERT JUMPDEST DUP1 PUSH4 0xBB57852D EQ PUSH2 0x3DB JUMPI DUP1 PUSH4 0xC75363B6 EQ PUSH2 0x3EE JUMPI DUP1 PUSH4 0xCD671A58 EQ PUSH2 0x415 JUMPI PUSH1 0x0 DUP1 REVERT JUMPDEST DUP1 PUSH4 0xA218DE15 GT PUSH2 0xD3 JUMPI DUP1 PUSH4 0xA218DE15 EQ PUSH2 0x362 JUMPI DUP1 PUSH4 0xAFFED0E0 EQ PUSH2 0x3B7 JUMPI DUP1 PUSH4 0xB88A802F EQ PUSH2 0x3C0 JUMPI DUP1 PUSH4 0xBA086501 EQ PUSH2 0x3C8 JUMPI PUSH1 0x0 DUP1 REVERT JUMPDEST DUP1 PUSH4 0x8DA5CB5B EQ PUSH2 0x329 JUMPI DUP1 PUSH4 0x9342C8F4 EQ PUSH2 0x33C JUMPI DUP1 PUSH4 0x979DB1C4 EQ PUSH2 0x34F JUMPI PUSH1 0x0 DUP1 REVERT JUMPDEST DUP1 PUSH4 0x3CCFD60B GT PUSH2 0x166 JUMPI DUP1 PUSH4 0x5F8E422F GT PUSH2 0x140 JUMPI DUP1 PUSH4 0x5F8E422F EQ PUSH2 0x2C5 JUMPI DUP1 PUSH4 0x5FCBD285 EQ PUSH2 0x2CD JUMPI DUP1 PUSH4 0x7B1391A6 EQ PUSH2 0x30C JUMPI DUP1 PUSH4 0x8431165E EQ PUSH2 0x321 JUMPI PUSH1 0x0 DUP1 REVERT JUMPDEST DUP1 PUSH4 0x3CCFD60B EQ PUSH2 0x27F JUMPI DUP1 PUSH4 0x4FB2E45D EQ PUSH2 0x287 JUMPI DUP1 PUSH4 0x5B680A45 EQ PUSH2 0x29A JUMPI PUSH1 0x0 DUP1 REVERT JUMPDEST DUP1 PUSH4 0xBCE1284 EQ PUSH2 0x1AE JUMPI DUP1 PUSH4 0xD437D40 EQ PUSH2 0x1E1 JUMPI DUP1 PUSH4 0x10087FB1 EQ PUSH2 0x21A JUMPI DUP1 PUSH4 0x157775DF EQ PUSH2 0x22F JUMPI DUP1 PUSH4 0x29ED1CFD EQ PUSH2 0x24F JUMPI DUP1 PUSH4 0x37BA682D EQ PUSH2 0x258 JUMPI JUMPDEST PUSH1 0x0 DUP1 REVERT JUMPDEST PUSH2 0x1CE PUSH2 0x1BC CALLDATASIZE PUSH1 0x4 PUSH2 0x12A2 JUMP JUMPDEST PUSH1 0x5 PUSH1 0x20 MSTORE PUSH1 0x0 SWAP1 DUP2 MSTORE PUSH1 0x40 SWAP1 KECCAK256 SLOAD DUP2 JUMP JUMPDEST PUSH1 0x40 MLOAD SWAP1 DUP2 MSTORE PUSH1 0x20 ADD JUMPDEST PUSH1 0x40 MLOAD DUP1 SWAP2 SUB SWAP1 RETURN JUMPDEST PUSH2 0x208 PUSH32 0x0 DUP2 JUMP JUMPDEST PUSH1 0x40 MLOAD PUSH1 0xFF SWAP1 SWAP2 AND DUP2 MSTORE PUSH1 0x20 ADD PUSH2 0x1D8 JUMP JUMPDEST PUSH2 0x22D PUSH2 0x228 CALLDATASIZE PUSH1 0x4 PUSH2 0x12BB JUMP JUMPDEST PUSH2 0x4BA JUMP JUMPDEST STOP JUMPDEST PUSH2 0x1CE PUSH2 0x23D CALLDATASIZE PUSH1 0x4 PUSH2 0x12A2 JUMP JUMPDEST PUSH1 0x4 PUSH1 0x20 MSTORE PUSH1 0x0 SWAP1 DUP2 MSTORE PUSH1 0x40 SWAP1 KECCAK256 SLOAD DUP2 JUMP JUMPDEST PUSH2 0x1CE PUSH1 0x6 SLOAD DUP2 JUMP JUMPDEST PUSH2 0x1CE PUSH32 0x0 DUP2 JUMP JUMPDEST PUSH2 0x1CE PUSH2 0x808 JUMP JUMPDEST PUSH2 0x22D PUSH2 0x295 CALLDATASIZE PUSH1 0x4 PUSH2 0x130D JUMP JUMPDEST PUSH2 0x952 JUMP JUMPDEST PUSH2 0x1CE PUSH2 0x2A8 CALLDATASIZE PUSH1 0x4 PUSH2 0x1328 JUMP JUMPDEST PUSH1 0x2 PUSH1 0x20 SWAP1 DUP2 MSTORE PUSH1 0x0 SWAP3 DUP4 MSTORE PUSH1 0x40 DUP1 DUP5 KECCAK256 SWAP1 SWAP2 MSTORE SWAP1 DUP3 MSTORE SWAP1 KECCAK256 SLOAD DUP2 JUMP JUMPDEST PUSH2 0x22D PUSH2 0x99E JUMP JUMPDEST PUSH2 0x2F4 PUSH32 0x0 DUP2 JUMP JUMPDEST PUSH1 0x40 MLOAD PUSH1 0x1 PUSH1 0x1 PUSH1 0xA0 SHL SUB SWAP1 SWAP2 AND DUP2 MSTORE PUSH1 0x20 ADD PUSH2 0x1D8 JUMP JUMPDEST PUSH2 0x314 PUSH2 0x9EF JUMP JUMPDEST PUSH1 0x40 MLOAD PUSH2 0x1D8 SWAP2 SWAP1 PUSH2 0x1352 JUMP JUMPDEST PUSH2 0x1CE PUSH2 0xB2E JUMP JUMPDEST PUSH1 0x0 SLOAD PUSH2 0x2F4 SWAP1 PUSH1 0x1 PUSH1 0x1 PUSH1 0xA0 SHL SUB AND DUP2 JUMP JUMPDEST PUSH2 0x22D PUSH2 0x34A CALLDATASIZE PUSH1 0x4 PUSH2 0x12A2 JUMP JUMPDEST PUSH2 0xC00 JUMP JUMPDEST PUSH2 0x1CE PUSH2 0x35D CALLDATASIZE PUSH1 0x4 PUSH2 0x1467 JUMP JUMPDEST PUSH2 0xC58 JUMP JUMPDEST PUSH2 0x397 PUSH2 0x370 CALLDATASIZE PUSH1 0x4 PUSH2 0x12A2 JUMP JUMPDEST PUSH1 0x8 PUSH1 0x20 MSTORE PUSH1 0x0 SWAP1 DUP2 MSTORE PUSH1 0x40 SWAP1 KECCAK256 DUP1 SLOAD PUSH1 0x1 DUP3 ADD SLOAD PUSH1 0x2 DUP4 ADD SLOAD PUSH1 0x3 SWAP1 SWAP4 ADD SLOAD SWAP2 SWAP3 SWAP1 SWAP2 DUP5 JUMP JUMPDEST PUSH1 0x40 DUP1 MLOAD SWAP5 DUP6 MSTORE PUSH1 0x20 DUP6 ADD SWAP4 SWAP1 SWAP4 MSTORE SWAP2 DUP4 ADD MSTORE PUSH1 0x60 DUP3 ADD MSTORE PUSH1 0x80 ADD PUSH2 0x1D8 JUMP JUMPDEST PUSH2 0x1CE PUSH1 0x7 SLOAD DUP2 JUMP JUMPDEST PUSH2 0x22D PUSH2 0xE09 JUMP JUMPDEST PUSH2 0x1CE PUSH2 0x3D6 CALLDATASIZE PUSH1 0x4 PUSH2 0x1328 JUMP JUMPDEST PUSH2 0xF5B JUMP JUMPDEST PUSH2 0x1CE PUSH2 0x3E9 CALLDATASIZE PUSH1 0x4 PUSH2 0x1328 JUMP JUMPDEST PUSH2 0xF8C JUMP JUMPDEST PUSH2 0x1CE PUSH32 0x0 DUP2 JUMP JUMPDEST PUSH2 0x41E PUSH2 0x258 DUP2 JUMP JUMPDEST PUSH1 0x40 MLOAD PUSH3 0xFFFFFF SWAP1 SWAP2 AND DUP2 MSTORE PUSH1 0x20 ADD PUSH2 0x1D8 JUMP JUMPDEST PUSH2 0x208 PUSH32 0x0 DUP2 JUMP JUMPDEST PUSH2 0x1CE PUSH2 0x467 CALLDATASIZE PUSH1 0x4 PUSH2 0x12BB JUMP JUMPDEST PUSH2 0xFB1 JUMP JUMPDEST PUSH2 0x1CE PUSH32 0x0 DUP2 JUMP JUMPDEST PUSH2 0x2F4 PUSH32 0x0 DUP2 JUMP JUMPDEST PUSH1 0x0 DUP2 PUSH1 0xFF AND GT DUP1 ISZERO PUSH2 0x4F3 JUMPI POP PUSH32 0x0 PUSH1 0xFF AND DUP2 PUSH1 0xFF AND GT ISZERO JUMPDEST PUSH2 0x52D JUMPI PUSH1 0x40 MLOAD PUSH3 0x461BCD PUSH1 0xE5 SHL DUP2 MSTORE PUSH1 0x20 PUSH1 0x4 DUP3 ADD MSTORE PUSH1 0x6 PUSH1 0x24 DUP3 ADD MSTORE PUSH6 0x359018BF1A99 PUSH1 0xD1 SHL PUSH1 0x44 DUP3 ADD MSTORE PUSH1 0x64 ADD JUMPDEST PUSH1 0x40 MLOAD DUP1 SWAP2 SUB SWAP1 REVERT JUMPDEST PUSH32 0x0 TIMESTAMP GT ISZERO DUP1 ISZERO PUSH2 0x57D JUMPI POP PUSH32 0x0 TIMESTAMP LT ISZERO JUMPDEST PUSH2 0x5BD JUMPI PUSH1 0x40 MLOAD PUSH3 0x461BCD PUSH1 0xE5 SHL DUP2 MSTORE PUSH1 0x20 PUSH1 0x4 DUP3 ADD MSTORE PUSH1 0x11 PUSH1 0x24 DUP3 ADD MSTORE PUSH17 0x1B9BDD081A5B881D1A19481C195C9A5BD9 PUSH1 0x7A SHL PUSH1 0x44 DUP3 ADD MSTORE PUSH1 0x64 ADD PUSH2 0x524 JUMP JUMPDEST PUSH1 0x0 PUSH2 0x5CB PUSH2 0x258 TIMESTAMP PUSH2 0x14E1 JUMP JUMPDEST PUSH2 0x5D6 SWAP1 PUSH1 0x1 PUSH2 0x1503 JUMP JUMPDEST SWAP1 POP PUSH2 0x604 PUSH32 0x0 CALLER ADDRESS DUP7 PUSH2 0x107B JUMP JUMPDEST PUSH1 0x0 PUSH2 0x610 DUP5 DUP5 PUSH2 0xFB1 JUMP JUMPDEST SWAP1 POP PUSH1 0x0 JUMPDEST DUP4 PUSH1 0xFF AND DUP2 PUSH1 0xFF AND LT ISZERO PUSH2 0x6AA JUMPI DUP2 PUSH1 0x4 PUSH1 0x0 PUSH2 0x635 PUSH1 0xFF DUP6 AND DUP8 PUSH2 0x1503 JUMP JUMPDEST DUP2 MSTORE PUSH1 0x20 ADD SWAP1 DUP2 MSTORE PUSH1 0x20 ADD PUSH1 0x0 KECCAK256 PUSH1 0x0 DUP3 DUP3 SLOAD PUSH2 0x652 SWAP2 SWAP1 PUSH2 0x1503 JUMP JUMPDEST SWAP1 SWAP2 SSTORE POP POP CALLER PUSH1 0x0 SWAP1 DUP2 MSTORE PUSH1 0x2 PUSH1 0x20 MSTORE PUSH1 0x40 DUP2 KECCAK256 DUP4 SWAP2 PUSH2 0x675 PUSH1 0xFF DUP6 AND DUP8 PUSH2 0x1503 JUMP JUMPDEST DUP2 MSTORE PUSH1 0x20 ADD SWAP1 DUP2 MSTORE PUSH1 0x20 ADD PUSH1 0x0 KECCAK256 PUSH1 0x0 DUP3 DUP3 SLOAD PUSH2 0x692 SWAP2 SWAP1 PUSH2 0x1503 JUMP JUMPDEST SWAP1 SWAP2 SSTORE POP DUP2 SWAP1 POP PUSH2 0x6A2 DUP2 PUSH2 0x151C JUMP JUMPDEST SWAP2 POP POP PUSH2 0x615 JUMP JUMPDEST POP PUSH1 0x40 MLOAD DUP1 PUSH1 0x80 ADD PUSH1 0x40 MSTORE DUP1 DUP6 DUP2 MSTORE PUSH1 0x20 ADD DUP3 DUP2 MSTORE PUSH1 0x20 ADD DUP4 DUP2 MSTORE PUSH1 0x20 ADD DUP5 PUSH1 0xFF AND DUP5 PUSH2 0x6D7 SWAP2 SWAP1 PUSH2 0x1503 JUMP JUMPDEST SWAP1 MSTORE PUSH1 0x7 SLOAD PUSH1 0x0 SWAP1 DUP2 MSTORE PUSH1 0x8 PUSH1 0x20 SWAP1 DUP2 MSTORE PUSH1 0x40 DUP1 DUP4 KECCAK256 DUP5 MLOAD DUP2 SSTORE DUP5 DUP4 ADD MLOAD PUSH1 0x1 DUP1 DUP4 ADD SWAP2 SWAP1 SWAP2 SSTORE DUP6 DUP4 ADD MLOAD PUSH1 0x2 DUP4 ADD SSTORE PUSH1 0x60 SWAP1 SWAP6 ADD MLOAD PUSH1 0x3 SWAP2 DUP3 ADD SSTORE CALLER DUP5 MSTORE SWAP1 SWAP2 MSTORE SWAP1 KECCAK256 SWAP1 DUP2 ADD SLOAD SWAP1 SLOAD SUB PUSH2 0x739 JUMPI CALLER PUSH1 0x0 SWAP1 DUP2 MSTORE PUSH1 0x3 PUSH1 0x20 MSTORE PUSH1 0x40 SWAP1 KECCAK256 DUP3 SWAP1 SSTORE JUMPDEST PUSH2 0x746 PUSH1 0xFF DUP5 AND DUP4 PUSH2 0x1503 JUMP JUMPDEST CALLER PUSH1 0x0 SWAP1 DUP2 MSTORE PUSH1 0x3 PUSH1 0x20 MSTORE PUSH1 0x40 SWAP1 KECCAK256 PUSH1 0x1 ADD SLOAD LT ISZERO PUSH2 0x780 JUMPI PUSH2 0x76C PUSH1 0xFF DUP5 AND DUP4 PUSH2 0x1503 JUMP JUMPDEST CALLER PUSH1 0x0 SWAP1 DUP2 MSTORE PUSH1 0x3 PUSH1 0x20 MSTORE PUSH1 0x40 SWAP1 KECCAK256 PUSH1 0x1 ADD SSTORE JUMPDEST CALLER PUSH1 0x0 DUP2 DUP2 MSTORE PUSH1 0x9 PUSH1 0x20 SWAP1 DUP2 MSTORE PUSH1 0x40 DUP1 DUP4 KECCAK256 PUSH1 0x7 DUP1 SLOAD DUP3 SLOAD PUSH1 0x1 DUP2 ADD DUP5 SSTORE SWAP3 DUP7 MSTORE SWAP5 DUP5 SWAP1 KECCAK256 SWAP1 SWAP2 ADD SWAP4 SWAP1 SWAP4 SSTORE SWAP2 SLOAD DUP3 MLOAD SWAP1 DUP2 MSTORE SWAP1 DUP2 ADD DUP8 SWAP1 MSTORE PUSH1 0xFF DUP7 AND DUP2 DUP4 ADD MSTORE SWAP1 MLOAD PUSH32 0x6FA2F6021EE337436CDF2B2570285886DA18BC06402CE284D296504A0FE8F875 SWAP2 DUP2 SWAP1 SUB PUSH1 0x60 ADD SWAP1 LOG2 PUSH1 0x7 DUP1 SLOAD SWAP1 PUSH1 0x0 PUSH2 0x7FD DUP4 PUSH2 0x1551 JUMP JUMPDEST SWAP2 SWAP1 POP SSTORE POP POP POP POP POP JUMP JUMPDEST PUSH1 0x0 DUP1 PUSH2 0x817 PUSH2 0x258 TIMESTAMP PUSH2 0x14E1 JUMP JUMPDEST CALLER PUSH1 0x0 SWAP1 DUP2 MSTORE PUSH1 0x9 PUSH1 0x20 MSTORE PUSH1 0x40 DUP2 KECCAK256 SLOAD SWAP2 SWAP3 POP SWAP1 PUSH2 0x837 SWAP1 PUSH1 0x1 SWAP1 PUSH2 0x156A JUMP JUMPDEST SWAP1 POP JUMPDEST CALLER PUSH1 0x0 SWAP1 DUP2 MSTORE PUSH1 0x9 PUSH1 0x20 MSTORE PUSH1 0x40 DUP2 KECCAK256 DUP1 SLOAD DUP4 SWAP1 DUP2 LT PUSH2 0x85B JUMPI PUSH2 0x85B PUSH2 0x153B JUMP JUMPDEST SWAP1 PUSH1 0x0 MSTORE PUSH1 0x20 PUSH1 0x0 KECCAK256 ADD SLOAD SWAP1 POP DUP3 PUSH1 0x8 PUSH1 0x0 DUP4 DUP2 MSTORE PUSH1 0x20 ADD SWAP1 DUP2 MSTORE PUSH1 0x20 ADD PUSH1 0x0 KECCAK256 PUSH1 0x3 ADD SLOAD GT PUSH2 0x93F JUMPI PUSH1 0x0 DUP2 DUP2 MSTORE PUSH1 0x8 PUSH1 0x20 MSTORE PUSH1 0x40 SWAP1 KECCAK256 SLOAD PUSH2 0x89E SWAP1 DUP6 PUSH2 0x1503 JUMP JUMPDEST CALLER PUSH1 0x0 SWAP1 DUP2 MSTORE PUSH1 0x9 PUSH1 0x20 MSTORE PUSH1 0x40 SWAP1 KECCAK256 DUP1 SLOAD SWAP2 SWAP6 POP SWAP1 PUSH2 0x8BF SWAP1 PUSH1 0x1 SWAP1 PUSH2 0x156A JUMP JUMPDEST DUP2 SLOAD DUP2 LT PUSH2 0x8CF JUMPI PUSH2 0x8CF PUSH2 0x153B JUMP JUMPDEST PUSH1 0x0 SWAP2 DUP3 MSTORE PUSH1 0x20 DUP1 DUP4 KECCAK256 SWAP1 SWAP2 ADD SLOAD CALLER DUP4 MSTORE PUSH1 0x9 SWAP1 SWAP2 MSTORE PUSH1 0x40 SWAP1 SWAP2 KECCAK256 DUP1 SLOAD DUP5 SWAP1 DUP2 LT PUSH2 0x8FC JUMPI PUSH2 0x8FC PUSH2 0x153B JUMP JUMPDEST PUSH1 0x0 SWAP2 DUP3 MSTORE PUSH1 0x20 DUP1 DUP4 KECCAK256 SWAP1 SWAP2 ADD SWAP3 SWAP1 SWAP3 SSTORE CALLER DUP2 MSTORE PUSH1 0x9 SWAP1 SWAP2 MSTORE PUSH1 0x40 SWAP1 KECCAK256 DUP1 SLOAD DUP1 PUSH2 0x928 JUMPI PUSH2 0x928 PUSH2 0x157D JUMP JUMPDEST PUSH1 0x1 SWAP1 SUB DUP2 DUP2 SWAP1 PUSH1 0x0 MSTORE PUSH1 0x20 PUSH1 0x0 KECCAK256 ADD PUSH1 0x0 SWAP1 SSTORE SWAP1 SSTORE JUMPDEST POP DUP1 PUSH2 0x94A DUP2 PUSH2 0x1593 JUMP JUMPDEST SWAP2 POP POP PUSH2 0x83A JUMP JUMPDEST PUSH1 0x0 SLOAD PUSH1 0x1 PUSH1 0x1 PUSH1 0xA0 SHL SUB AND CALLER EQ PUSH2 0x97C JUMPI PUSH1 0x40 MLOAD PUSH3 0x461BCD PUSH1 0xE5 SHL DUP2 MSTORE PUSH1 0x4 ADD PUSH2 0x524 SWAP1 PUSH2 0x15AA JUMP JUMPDEST PUSH1 0x1 DUP1 SLOAD PUSH1 0x1 PUSH1 0x1 PUSH1 0xA0 SHL SUB NOT AND PUSH1 0x1 PUSH1 0x1 PUSH1 0xA0 SHL SUB SWAP3 SWAP1 SWAP3 AND SWAP2 SWAP1 SWAP2 OR SWAP1 SSTORE JUMP JUMPDEST PUSH1 0x1 SLOAD PUSH1 0x1 PUSH1 0x1 PUSH1 0xA0 SHL SUB AND CALLER EQ PUSH2 0x9C8 JUMPI PUSH1 0x40 MLOAD PUSH3 0x461BCD PUSH1 0xE5 SHL DUP2 MSTORE PUSH1 0x4 ADD PUSH2 0x524 SWAP1 PUSH2 0x15AA JUMP JUMPDEST PUSH1 0x1 DUP1 SLOAD PUSH1 0x0 DUP1 SLOAD PUSH1 0x1 PUSH1 0x1 PUSH1 0xA0 SHL SUB NOT SWAP1 DUP2 AND PUSH1 0x1 PUSH1 0x1 PUSH1 0xA0 SHL SUB DUP5 AND OR SWAP1 SWAP2 SSTORE AND SWAP1 SSTORE JUMP JUMPDEST CALLER PUSH1 0x0 SWAP1 DUP2 MSTORE PUSH1 0x9 PUSH1 0x20 MSTORE PUSH1 0x40 DUP2 KECCAK256 SLOAD PUSH1 0x60 SWAP2 DUP2 PUSH8 0xFFFFFFFFFFFFFFFF DUP2 GT ISZERO PUSH2 0xA1B JUMPI PUSH2 0xA1B PUSH2 0x13B6 JUMP JUMPDEST PUSH1 0x40 MLOAD SWAP1 DUP1 DUP3 MSTORE DUP1 PUSH1 0x20 MUL PUSH1 0x20 ADD DUP3 ADD PUSH1 0x40 MSTORE DUP1 ISZERO PUSH2 0xA77 JUMPI DUP2 PUSH1 0x20 ADD JUMPDEST PUSH2 0xA64 PUSH1 0x40 MLOAD DUP1 PUSH1 0x80 ADD PUSH1 0x40 MSTORE DUP1 PUSH1 0x0 DUP2 MSTORE PUSH1 0x20 ADD PUSH1 0x0 DUP2 MSTORE PUSH1 0x20 ADD PUSH1 0x0 DUP2 MSTORE PUSH1 0x20 ADD PUSH1 0x0 DUP2 MSTORE POP SWAP1 JUMP JUMPDEST DUP2 MSTORE PUSH1 0x20 ADD SWAP1 PUSH1 0x1 SWAP1 SUB SWAP1 DUP2 PUSH2 0xA39 JUMPI SWAP1 POP JUMPDEST POP SWAP1 POP PUSH1 0x0 JUMPDEST DUP3 DUP2 LT ISZERO PUSH2 0xB27 JUMPI CALLER PUSH1 0x0 SWAP1 DUP2 MSTORE PUSH1 0x9 PUSH1 0x20 MSTORE PUSH1 0x40 DUP2 KECCAK256 DUP1 SLOAD PUSH1 0x8 SWAP3 SWAP2 SWAP1 DUP5 SWAP1 DUP2 LT PUSH2 0xAAB JUMPI PUSH2 0xAAB PUSH2 0x153B JUMP JUMPDEST SWAP1 PUSH1 0x0 MSTORE PUSH1 0x20 PUSH1 0x0 KECCAK256 ADD SLOAD DUP2 MSTORE PUSH1 0x20 ADD SWAP1 DUP2 MSTORE PUSH1 0x20 ADD PUSH1 0x0 KECCAK256 PUSH1 0x40 MLOAD DUP1 PUSH1 0x80 ADD PUSH1 0x40 MSTORE SWAP1 DUP2 PUSH1 0x0 DUP3 ADD SLOAD DUP2 MSTORE PUSH1 0x20 ADD PUSH1 0x1 DUP3 ADD SLOAD DUP2 MSTORE PUSH1 0x20 ADD PUSH1 0x2 DUP3 ADD SLOAD DUP2 MSTORE PUSH1 0x20 ADD PUSH1 0x3 DUP3 ADD SLOAD DUP2 MSTORE POP POP DUP3 DUP3 DUP2 MLOAD DUP2 LT PUSH2 0xB09 JUMPI PUSH2 0xB09 PUSH2 0x153B JUMP JUMPDEST PUSH1 0x20 MUL PUSH1 0x20 ADD ADD DUP2 SWAP1 MSTORE POP DUP1 DUP1 PUSH2 0xB1F SWAP1 PUSH2 0x1551 JUMP JUMPDEST SWAP2 POP POP PUSH2 0xA7D JUMP JUMPDEST POP SWAP3 SWAP2 POP POP JUMP JUMPDEST PUSH1 0x0 DUP1 PUSH1 0xFF PUSH32 0x0 AND PUSH2 0xB61 PUSH2 0x258 TIMESTAMP PUSH2 0x14E1 JUMP JUMPDEST PUSH2 0xB6B SWAP2 SWAP1 PUSH2 0x156A JUMP JUMPDEST CALLER PUSH1 0x0 SWAP1 DUP2 MSTORE PUSH1 0x3 PUSH1 0x20 MSTORE PUSH1 0x40 DUP2 KECCAK256 SLOAD SWAP2 SWAP3 POP SWAP1 JUMPDEST CALLER PUSH1 0x0 SWAP1 DUP2 MSTORE PUSH1 0x3 PUSH1 0x20 MSTORE PUSH1 0x40 SWAP1 KECCAK256 PUSH1 0x1 ADD SLOAD DUP2 LT ISZERO PUSH2 0xB27 JUMPI DUP3 DUP2 GT PUSH2 0xB27 JUMPI PUSH1 0x0 DUP2 DUP2 MSTORE PUSH1 0x4 PUSH1 0x20 SWAP1 DUP2 MSTORE PUSH1 0x40 DUP1 DUP4 KECCAK256 SLOAD CALLER DUP5 MSTORE PUSH1 0x2 DUP4 MSTORE DUP2 DUP5 KECCAK256 DUP6 DUP6 MSTORE DUP4 MSTORE DUP2 DUP5 KECCAK256 SLOAD PUSH1 0x5 SWAP1 SWAP4 MSTORE SWAP3 KECCAK256 SLOAD PUSH2 0xBD8 SWAP2 SWAP1 PUSH2 0x15CD JUMP JUMPDEST PUSH2 0xBE2 SWAP2 SWAP1 PUSH2 0x14E1 JUMP JUMPDEST PUSH2 0xBEC SWAP1 DUP4 PUSH2 0x1503 JUMP JUMPDEST SWAP2 POP DUP1 PUSH2 0xBF8 DUP2 PUSH2 0x1551 JUMP JUMPDEST SWAP2 POP POP PUSH2 0xB80 JUMP JUMPDEST PUSH1 0x0 SLOAD PUSH1 0x1 PUSH1 0x1 PUSH1 0xA0 SHL SUB AND CALLER EQ PUSH2 0xC2A JUMPI PUSH1 0x40 MLOAD PUSH3 0x461BCD PUSH1 0xE5 SHL DUP2 MSTORE PUSH1 0x4 ADD PUSH2 0x524 SWAP1 PUSH2 0x15AA JUMP JUMPDEST PUSH2 0xC55 PUSH32 0x0 CALLER DUP4 PUSH2 0x1195 JUMP JUMPDEST POP JUMP JUMPDEST PUSH1 0x0 DUP1 SLOAD PUSH1 0x1 PUSH1 0x1 PUSH1 0xA0 SHL SUB AND CALLER EQ PUSH2 0xC83 JUMPI PUSH1 0x40 MLOAD PUSH3 0x461BCD PUSH1 0xE5 SHL DUP2 MSTORE PUSH1 0x4 ADD PUSH2 0x524 SWAP1 PUSH2 0x15AA JUMP JUMPDEST DUP2 MLOAD DUP4 MLOAD EQ PUSH2 0xCC7 JUMPI PUSH1 0x40 MLOAD PUSH3 0x461BCD PUSH1 0xE5 SHL DUP2 MSTORE PUSH1 0x20 PUSH1 0x4 DUP3 ADD MSTORE PUSH1 0x10 PUSH1 0x24 DUP3 ADD MSTORE PUSH16 0x3830B930B6B2BA32B9399032B93937B9 PUSH1 0x81 SHL PUSH1 0x44 DUP3 ADD MSTORE PUSH1 0x64 ADD PUSH2 0x524 JUMP JUMPDEST PUSH1 0x0 JUMPDEST DUP4 MLOAD DUP2 LT ISZERO PUSH2 0xD9A JUMPI DUP3 DUP2 DUP2 MLOAD DUP2 LT PUSH2 0xCE5 JUMPI PUSH2 0xCE5 PUSH2 0x153B JUMP JUMPDEST PUSH1 0x20 MUL PUSH1 0x20 ADD ADD MLOAD DUP3 PUSH2 0xCF8 SWAP2 SWAP1 PUSH2 0x1503 JUMP JUMPDEST SWAP2 POP DUP3 DUP2 DUP2 MLOAD DUP2 LT PUSH2 0xD0C JUMPI PUSH2 0xD0C PUSH2 0x153B JUMP JUMPDEST PUSH1 0x20 MUL PUSH1 0x20 ADD ADD MLOAD PUSH1 0x5 PUSH1 0x0 DUP7 DUP5 DUP2 MLOAD DUP2 LT PUSH2 0xD2A JUMPI PUSH2 0xD2A PUSH2 0x153B JUMP JUMPDEST PUSH1 0x20 MUL PUSH1 0x20 ADD ADD MLOAD DUP2 MSTORE PUSH1 0x20 ADD SWAP1 DUP2 MSTORE PUSH1 0x20 ADD PUSH1 0x0 KECCAK256 DUP2 SWAP1 SSTORE POP PUSH1 0x6 SLOAD DUP5 DUP3 DUP2 MLOAD DUP2 LT PUSH2 0xD59 JUMPI PUSH2 0xD59 PUSH2 0x153B JUMP JUMPDEST PUSH1 0x20 MUL PUSH1 0x20 ADD ADD MLOAD GT ISZERO PUSH2 0xD88 JUMPI DUP4 DUP2 DUP2 MLOAD DUP2 LT PUSH2 0xD79 JUMPI PUSH2 0xD79 PUSH2 0x153B JUMP JUMPDEST PUSH1 0x20 MUL PUSH1 0x20 ADD ADD MLOAD PUSH1 0x6 DUP2 SWAP1 SSTORE POP JUMPDEST DUP1 PUSH2 0xD92 DUP2 PUSH2 0x1551 JUMP JUMPDEST SWAP2 POP POP PUSH2 0xCCA JUMP JUMPDEST POP PUSH2 0xDC7 PUSH32 0x0 CALLER ADDRESS DUP5 PUSH2 0x107B JUMP JUMPDEST PUSH1 0x40 DUP1 MLOAD PUSH1 0x0 DUP2 MSTORE PUSH1 0x20 DUP2 ADD DUP4 SWAP1 MSTORE CALLER SWAP2 PUSH32 0xC3991418CACD70A010FCE559A44FCBB47534CA43BF7543964BDCA2639F6E6E5A SWAP2 ADD PUSH1 0x40 MLOAD DUP1 SWAP2 SUB SWAP1 LOG2 SWAP3 SWAP2 POP POP JUMP JUMPDEST PUSH1 0x0 PUSH1 0xFF PUSH32 0x0 AND PUSH2 0xE3B PUSH2 0x258 TIMESTAMP PUSH2 0x14E1 JUMP JUMPDEST PUSH2 0xE45 SWAP2 SWAP1 PUSH2 0x156A JUMP JUMPDEST CALLER PUSH1 0x0 SWAP1 DUP2 MSTORE PUSH1 0x3 PUSH1 0x20 MSTORE PUSH1 0x40 DUP2 KECCAK256 SLOAD SWAP2 SWAP3 POP SWAP1 JUMPDEST CALLER PUSH1 0x0 SWAP1 DUP2 MSTORE PUSH1 0x3 PUSH1 0x20 MSTORE PUSH1 0x40 SWAP1 KECCAK256 PUSH1 0x1 ADD SLOAD DUP2 LT ISZERO PUSH2 0xEF6 JUMPI DUP3 DUP2 GT PUSH2 0xEF6 JUMPI PUSH2 0xE86 DUP2 PUSH1 0x1 PUSH2 0x1503 JUMP JUMPDEST CALLER PUSH1 0x0 SWAP1 DUP2 MSTORE PUSH1 0x3 PUSH1 0x20 MSTORE PUSH1 0x40 DUP2 KECCAK256 ADD SSTORE PUSH1 0x0 DUP2 DUP2 MSTORE PUSH1 0x4 PUSH1 0x20 SWAP1 DUP2 MSTORE PUSH1 0x40 DUP1 DUP4 KECCAK256 SLOAD CALLER DUP5 MSTORE PUSH1 0x2 DUP4 MSTORE DUP2 DUP5 KECCAK256 DUP6 DUP6 MSTORE DUP4 MSTORE DUP2 DUP5 KECCAK256 SLOAD PUSH1 0x5 SWAP1 SWAP4 MSTORE SWAP3 KECCAK256 SLOAD PUSH2 0xECE SWAP2 SWAP1 PUSH2 0x15CD JUMP JUMPDEST PUSH2 0xED8 SWAP2 SWAP1 PUSH2 0x14E1 JUMP JUMPDEST PUSH2 0xEE2 SWAP1 DUP4 PUSH2 0x1503 JUMP JUMPDEST SWAP2 POP DUP1 PUSH2 0xEEE DUP2 PUSH2 0x1551 JUMP JUMPDEST SWAP2 POP POP PUSH2 0xE5A JUMP JUMPDEST POP PUSH2 0xF22 PUSH32 0x0 CALLER DUP4 PUSH2 0x1195 JUMP JUMPDEST PUSH1 0x40 MLOAD DUP2 DUP2 MSTORE CALLER SWAP1 PUSH32 0xBA8DE60C3403EC381D1D484652EA1980E3C3E56359195C92525BFF4CE47AD98E SWAP1 PUSH1 0x20 ADD PUSH1 0x40 MLOAD DUP1 SWAP2 SUB SWAP1 LOG2 POP POP JUMP JUMPDEST PUSH1 0x9 PUSH1 0x20 MSTORE DUP2 PUSH1 0x0 MSTORE PUSH1 0x40 PUSH1 0x0 KECCAK256 DUP2 DUP2 SLOAD DUP2 LT PUSH2 0xF77 JUMPI PUSH1 0x0 DUP1 REVERT JUMPDEST SWAP1 PUSH1 0x0 MSTORE PUSH1 0x20 PUSH1 0x0 KECCAK256 ADD PUSH1 0x0 SWAP2 POP SWAP2 POP POP SLOAD DUP2 JUMP JUMPDEST PUSH1 0x3 PUSH1 0x20 MSTORE DUP2 PUSH1 0x0 MSTORE PUSH1 0x40 PUSH1 0x0 KECCAK256 DUP2 PUSH1 0x2 DUP2 LT PUSH2 0xFA8 JUMPI PUSH1 0x0 DUP1 REVERT JUMPDEST ADD SLOAD SWAP2 POP DUP3 SWAP1 POP JUMP JUMPDEST PUSH1 0x0 PUSH2 0xFDE PUSH1 0x1 PUSH32 0x0 PUSH2 0x15E4 JUMP JUMPDEST PUSH1 0xFF AND PUSH1 0x1 PUSH32 0x0 PUSH1 0xFF AND PUSH1 0x1 DUP6 PUSH2 0x1014 SWAP2 SWAP1 PUSH2 0x15E4 JUMP JUMPDEST PUSH1 0xFF AND PUSH2 0x1042 PUSH1 0x1 PUSH32 0x0 PUSH2 0x156A JUMP JUMPDEST PUSH2 0x104C SWAP2 SWAP1 PUSH2 0x15CD JUMP JUMPDEST PUSH2 0x1056 SWAP2 SWAP1 PUSH2 0x1503 JUMP JUMPDEST PUSH2 0x1060 SWAP2 SWAP1 PUSH2 0x156A JUMP JUMPDEST PUSH2 0x106A SWAP1 DUP6 PUSH2 0x15CD JUMP JUMPDEST PUSH2 0x1074 SWAP2 SWAP1 PUSH2 0x14E1 JUMP JUMPDEST SWAP4 SWAP3 POP POP POP JUMP JUMPDEST PUSH1 0x40 DUP1 MLOAD PUSH1 0x1 PUSH1 0x1 PUSH1 0xA0 SHL SUB DUP6 DUP2 AND PUSH1 0x24 DUP4 ADD MSTORE DUP5 DUP2 AND PUSH1 0x44 DUP4 ADD MSTORE PUSH1 0x64 DUP1 DUP4 ADD DUP6 SWAP1 MSTORE DUP4 MLOAD DUP1 DUP5 SUB SWAP1 SWAP2 ADD DUP2 MSTORE PUSH1 0x84 SWAP1 SWAP3 ADD DUP4 MSTORE PUSH1 0x20 DUP3 ADD DUP1 MLOAD PUSH1 0x1 PUSH1 0x1 PUSH1 0xE0 SHL SUB AND PUSH4 0x23B872DD PUSH1 0xE0 SHL OR SWAP1 MSTORE SWAP2 MLOAD PUSH1 0x0 SWAP3 DUP4 SWAP3 SWAP1 DUP9 AND SWAP2 PUSH2 0x10DF SWAP2 SWAP1 PUSH2 0x15FD JUMP JUMPDEST PUSH1 0x0 PUSH1 0x40 MLOAD DUP1 DUP4 SUB DUP2 PUSH1 0x0 DUP7 GAS CALL SWAP2 POP POP RETURNDATASIZE DUP1 PUSH1 0x0 DUP2 EQ PUSH2 0x111C JUMPI PUSH1 0x40 MLOAD SWAP2 POP PUSH1 0x1F NOT PUSH1 0x3F RETURNDATASIZE ADD AND DUP3 ADD PUSH1 0x40 MSTORE RETURNDATASIZE DUP3 MSTORE RETURNDATASIZE PUSH1 0x0 PUSH1 0x20 DUP5 ADD RETURNDATACOPY PUSH2 0x1121 JUMP JUMPDEST PUSH1 0x60 SWAP2 POP JUMPDEST POP SWAP2 POP SWAP2 POP DUP2 DUP1 ISZERO PUSH2 0x114B JUMPI POP DUP1 MLOAD ISZERO DUP1 PUSH2 0x114B JUMPI POP DUP1 DUP1 PUSH1 0x20 ADD SWAP1 MLOAD DUP2 ADD SWAP1 PUSH2 0x114B SWAP2 SWAP1 PUSH2 0x162C JUMP JUMPDEST PUSH2 0x118D JUMPI PUSH1 0x40 MLOAD PUSH3 0x461BCD PUSH1 0xE5 SHL DUP2 MSTORE PUSH1 0x20 PUSH1 0x4 DUP3 ADD MSTORE PUSH1 0x13 PUSH1 0x24 DUP3 ADD MSTORE PUSH19 0x1D1C985B9CD9995C919C9BDB4819985A5B1959 PUSH1 0x6A SHL PUSH1 0x44 DUP3 ADD MSTORE PUSH1 0x64 ADD PUSH2 0x524 JUMP JUMPDEST POP POP POP POP POP POP JUMP JUMPDEST PUSH1 0x40 DUP1 MLOAD PUSH1 0x1 PUSH1 0x1 PUSH1 0xA0 SHL SUB DUP5 DUP2 AND PUSH1 0x24 DUP4 ADD MSTORE PUSH1 0x44 DUP1 DUP4 ADD DUP6 SWAP1 MSTORE DUP4 MLOAD DUP1 DUP5 SUB SWAP1 SWAP2 ADD DUP2 MSTORE PUSH1 0x64 SWAP1 SWAP3 ADD DUP4 MSTORE PUSH1 0x20 DUP3 ADD DUP1 MLOAD PUSH1 0x1 PUSH1 0x1 PUSH1 0xE0 SHL SUB AND PUSH4 0xA9059CBB PUSH1 0xE0 SHL OR SWAP1 MSTORE SWAP2 MLOAD PUSH1 0x0 SWAP3 DUP4 SWAP3 SWAP1 DUP8 AND SWAP2 PUSH2 0x11F1 SWAP2 SWAP1 PUSH2 0x15FD JUMP JUMPDEST PUSH1 0x0 PUSH1 0x40 MLOAD DUP1 DUP4 SUB DUP2 PUSH1 0x0 DUP7 GAS CALL SWAP2 POP POP RETURNDATASIZE DUP1 PUSH1 0x0 DUP2 EQ PUSH2 0x122E JUMPI PUSH1 0x40 MLOAD SWAP2 POP PUSH1 0x1F NOT PUSH1 0x3F RETURNDATASIZE ADD AND DUP3 ADD PUSH1 0x40 MSTORE RETURNDATASIZE DUP3 MSTORE RETURNDATASIZE PUSH1 0x0 PUSH1 0x20 DUP5 ADD RETURNDATACOPY PUSH2 0x1233 JUMP JUMPDEST PUSH1 0x60 SWAP2 POP JUMPDEST POP SWAP2 POP SWAP2 POP DUP2 DUP1 ISZERO PUSH2 0x125D JUMPI POP DUP1 MLOAD ISZERO DUP1 PUSH2 0x125D JUMPI POP DUP1 DUP1 PUSH1 0x20 ADD SWAP1 MLOAD DUP2 ADD SWAP1 PUSH2 0x125D SWAP2 SWAP1 PUSH2 0x162C JUMP JUMPDEST PUSH2 0x129B JUMPI PUSH1 0x40 MLOAD PUSH3 0x461BCD PUSH1 0xE5 SHL DUP2 MSTORE PUSH1 0x20 PUSH1 0x4 DUP3 ADD MSTORE PUSH1 0xF PUSH1 0x24 DUP3 ADD MSTORE PUSH15 0x1514905394D1915497D19052531151 PUSH1 0x8A SHL PUSH1 0x44 DUP3 ADD MSTORE PUSH1 0x64 ADD PUSH2 0x524 JUMP JUMPDEST POP POP POP POP POP JUMP JUMPDEST PUSH1 0x0 PUSH1 0x20 DUP3 DUP5 SUB SLT ISZERO PUSH2 0x12B4 JUMPI PUSH1 0x0 DUP1 REVERT JUMPDEST POP CALLDATALOAD SWAP2 SWAP1 POP JUMP JUMPDEST PUSH1 0x0 DUP1 PUSH1 0x40 DUP4 DUP6 SUB SLT ISZERO PUSH2 0x12CE JUMPI PUSH1 0x0 DUP1 REVERT JUMPDEST DUP3 CALLDATALOAD SWAP2 POP PUSH1 0x20 DUP4 ADD CALLDATALOAD PUSH1 0xFF DUP2 AND DUP2 EQ PUSH2 0x12E6 JUMPI PUSH1 0x0 DUP1 REVERT JUMPDEST DUP1 SWAP2 POP POP SWAP3 POP SWAP3 SWAP1 POP JUMP JUMPDEST DUP1 CALLDATALOAD PUSH1 0x1 PUSH1 0x1 PUSH1 0xA0 SHL SUB DUP2 AND DUP2 EQ PUSH2 0x1308 JUMPI PUSH1 0x0 DUP1 REVERT JUMPDEST SWAP2 SWAP1 POP JUMP JUMPDEST PUSH1 0x0 PUSH1 0x20 DUP3 DUP5 SUB SLT ISZERO PUSH2 0x131F JUMPI PUSH1 0x0 DUP1 REVERT JUMPDEST PUSH2 0x1074 DUP3 PUSH2 0x12F1 JUMP JUMPDEST PUSH1 0x0 DUP1 PUSH1 0x40 DUP4 DUP6 SUB SLT ISZERO PUSH2 0x133B JUMPI PUSH1 0x0 DUP1 REVERT JUMPDEST PUSH2 0x1344 DUP4 PUSH2 0x12F1 JUMP JUMPDEST SWAP5 PUSH1 0x20 SWAP4 SWAP1 SWAP4 ADD CALLDATALOAD SWAP4 POP POP POP JUMP JUMPDEST PUSH1 0x20 DUP1 DUP3 MSTORE DUP3 MLOAD DUP3 DUP3 ADD DUP2 SWAP1 MSTORE PUSH1 0x0 SWAP2 SWAP1 PUSH1 0x40 SWAP1 DUP2 DUP6 ADD SWAP1 DUP7 DUP5 ADD DUP6 JUMPDEST DUP3 DUP2 LT ISZERO PUSH2 0x13A9 JUMPI DUP2 MLOAD DUP1 MLOAD DUP6 MSTORE DUP7 DUP2 ADD MLOAD DUP8 DUP7 ADD MSTORE DUP6 DUP2 ADD MLOAD DUP7 DUP7 ADD MSTORE PUSH1 0x60 SWAP1 DUP2 ADD MLOAD SWAP1 DUP6 ADD MSTORE PUSH1 0x80 SWAP1 SWAP4 ADD SWAP3 SWAP1 DUP6 ADD SWAP1 PUSH1 0x1 ADD PUSH2 0x136F JUMP JUMPDEST POP SWAP2 SWAP8 SWAP7 POP POP POP POP POP POP POP JUMP JUMPDEST PUSH4 0x4E487B71 PUSH1 0xE0 SHL PUSH1 0x0 MSTORE PUSH1 0x41 PUSH1 0x4 MSTORE PUSH1 0x24 PUSH1 0x0 REVERT JUMPDEST PUSH1 0x0 DUP3 PUSH1 0x1F DUP4 ADD SLT PUSH2 0x13DD JUMPI PUSH1 0x0 DUP1 REVERT JUMPDEST DUP2 CALLDATALOAD PUSH1 0x20 PUSH8 0xFFFFFFFFFFFFFFFF DUP1 DUP4 GT ISZERO PUSH2 0x13FA JUMPI PUSH2 0x13FA PUSH2 0x13B6 JUMP JUMPDEST DUP3 PUSH1 0x5 SHL PUSH1 0x40 MLOAD PUSH1 0x1F NOT PUSH1 0x3F DUP4 ADD AND DUP2 ADD DUP2 DUP2 LT DUP5 DUP3 GT OR ISZERO PUSH2 0x141F JUMPI PUSH2 0x141F PUSH2 0x13B6 JUMP JUMPDEST PUSH1 0x40 MSTORE SWAP4 DUP5 MSTORE DUP6 DUP2 ADD DUP4 ADD SWAP4 DUP4 DUP2 ADD SWAP3 POP DUP8 DUP6 GT ISZERO PUSH2 0x143D JUMPI PUSH1 0x0 DUP1 REVERT JUMPDEST DUP4 DUP8 ADD SWAP2 POP JUMPDEST DUP5 DUP3 LT ISZERO PUSH2 0x145C JUMPI DUP2 CALLDATALOAD DUP4 MSTORE SWAP2 DUP4 ADD SWAP2 SWAP1 DUP4 ADD SWAP1 PUSH2 0x1443 JUMP JUMPDEST SWAP8 SWAP7 POP POP POP POP POP POP POP JUMP JUMPDEST PUSH1 0x0 DUP1 PUSH1 0x40 DUP4 DUP6 SUB SLT ISZERO PUSH2 0x147A JUMPI PUSH1 0x0 DUP1 REVERT JUMPDEST DUP3 CALLDATALOAD PUSH8 0xFFFFFFFFFFFFFFFF DUP1 DUP3 GT ISZERO PUSH2 0x1492 JUMPI PUSH1 0x0 DUP1 REVERT JUMPDEST PUSH2 0x149E DUP7 DUP4 DUP8 ADD PUSH2 0x13CC JUMP JUMPDEST SWAP4 POP PUSH1 0x20 DUP6 ADD CALLDATALOAD SWAP2 POP DUP1 DUP3 GT ISZERO PUSH2 0x14B4 JUMPI PUSH1 0x0 DUP1 REVERT JUMPDEST POP PUSH2 0x14C1 DUP6 DUP3 DUP7 ADD PUSH2 0x13CC JUMP JUMPDEST SWAP2 POP POP SWAP3 POP SWAP3 SWAP1 POP JUMP JUMPDEST PUSH4 0x4E487B71 PUSH1 0xE0 SHL PUSH1 0x0 MSTORE PUSH1 0x11 PUSH1 0x4 MSTORE PUSH1 0x24 PUSH1 0x0 REVERT JUMPDEST PUSH1 0x0 DUP3 PUSH2 0x14FE JUMPI PUSH4 0x4E487B71 PUSH1 0xE0 SHL PUSH1 0x0 MSTORE PUSH1 0x12 PUSH1 0x4 MSTORE PUSH1 0x24 PUSH1 0x0 REVERT JUMPDEST POP DIV SWAP1 JUMP JUMPDEST DUP1 DUP3 ADD DUP1 DUP3 GT ISZERO PUSH2 0x1516 JUMPI PUSH2 0x1516 PUSH2 0x14CB JUMP JUMPDEST SWAP3 SWAP2 POP POP JUMP JUMPDEST PUSH1 0x0 PUSH1 0xFF DUP3 AND PUSH1 0xFF DUP2 SUB PUSH2 0x1532 JUMPI PUSH2 0x1532 PUSH2 0x14CB JUMP JUMPDEST PUSH1 0x1 ADD SWAP3 SWAP2 POP POP JUMP JUMPDEST PUSH4 0x4E487B71 PUSH1 0xE0 SHL PUSH1 0x0 MSTORE PUSH1 0x32 PUSH1 0x4 MSTORE PUSH1 0x24 PUSH1 0x0 REVERT JUMPDEST PUSH1 0x0 PUSH1 0x1 DUP3 ADD PUSH2 0x1563 JUMPI PUSH2 0x1563 PUSH2 0x14CB JUMP JUMPDEST POP PUSH1 0x1 ADD SWAP1 JUMP JUMPDEST DUP2 DUP2 SUB DUP2 DUP2 GT ISZERO PUSH2 0x1516 JUMPI PUSH2 0x1516 PUSH2 0x14CB JUMP JUMPDEST PUSH4 0x4E487B71 PUSH1 0xE0 SHL PUSH1 0x0 MSTORE PUSH1 0x31 PUSH1 0x4 MSTORE PUSH1 0x24 PUSH1 0x0 REVERT JUMPDEST PUSH1 0x0 DUP2 PUSH2 0x15A2 JUMPI PUSH2 0x15A2 PUSH2 0x14CB JUMP JUMPDEST POP PUSH1 0x0 NOT ADD SWAP1 JUMP JUMPDEST PUSH1 0x20 DUP1 DUP3 MSTORE PUSH1 0x9 SWAP1 DUP3 ADD MSTORE PUSH9 0x3337B93134B23232B7 PUSH1 0xB9 SHL PUSH1 0x40 DUP3 ADD MSTORE PUSH1 0x60 ADD SWAP1 JUMP JUMPDEST DUP1 DUP3 MUL DUP2 ISZERO DUP3 DUP3 DIV DUP5 EQ OR PUSH2 0x1516 JUMPI PUSH2 0x1516 PUSH2 0x14CB JUMP JUMPDEST PUSH1 0xFF DUP3 DUP2 AND DUP3 DUP3 AND SUB SWAP1 DUP2 GT ISZERO PUSH2 0x1516 JUMPI PUSH2 0x1516 PUSH2 0x14CB JUMP JUMPDEST PUSH1 0x0 DUP3 MLOAD PUSH1 0x0 JUMPDEST DUP2 DUP2 LT ISZERO PUSH2 0x161E JUMPI PUSH1 0x20 DUP2 DUP7 ADD DUP2 ADD MLOAD DUP6 DUP4 ADD MSTORE ADD PUSH2 0x1604 JUMP JUMPDEST POP PUSH1 0x0 SWAP3 ADD SWAP2 DUP3 MSTORE POP SWAP2 SWAP1 POP JUMP JUMPDEST PUSH1 0x0 PUSH1 0x20 DUP3 DUP5 SUB SLT ISZERO PUSH2 0x163E JUMPI PUSH1 0x0 DUP1 REVERT JUMPDEST DUP2 MLOAD DUP1 ISZERO ISZERO DUP2 EQ PUSH2 0x1074 JUMPI PUSH1 0x0 DUP1 REVERT INVALID LOG2 PUSH5 0x6970667358 0x22 SLT KECCAK256 SWAP2 GASLIMIT CALL PUSH2 0x5EED DUP10 0xE0 0xD9 0xE8 0xE0 PUSH5 0xC3BA185A21 LOG3 0xAC SLOAD PUSH17 0x7F74E16ACDA40CBDAC7DFB64736F6C6343 STOP ADDMOD GT STOP CALLER "},"methodIdentifiers":{"BEGIN_TIME()":"c75363b6","END_TIME()":"37ba682d","LOCK_WEEKNUM()":"0d437d40","MAX_SCALE()":"f6def7cf","MAX_WEEKS()":"e11400bb","WEEK_SECONDS()":"cd671a58","acceptSetter()":"5f8e422f","canClaimAmount()":"8431165e","claimReward()":"b88a802f","getScore(uint256,uint8)":"ee3453ed","getStaking()":"7b1391a6","latestNo()":"29ed1cfd","lpToken()":"5fcbd285","nonce()":"affed0e0","owner()":"8da5cb5b","rewardToken()":"f7c618c1","rewardsOf(uint256)":"0bce1284","setRewards(uint256[],uint256[])":"979db1c4","stake(uint256,uint8)":"10087fb1","stakingERC20s(uint256)":"a218de15","totalScores(uint256)":"157775df","transferOwner(address)":"4fb2e45d","userCanClaimWeeks(address,uint256)":"bb57852d","userERC20s(address,uint256)":"ba086501","userScores(address,uint256)":"5b680a45","withdraw()":"3ccfd60b","withdrawRewards(uint256)":"9342c8f4"}}}}}