{"contracts/stakeBase.sol":{"StakeBase":{"abi":[{"inputs":[{"internalType":"uint8","name":"maxWeeks","type":"uint8"},{"internalType":"uint256","name":"maxScale","type":"uint256"},{"internalType":"uint8","name":"lockWeeks","type":"uint8"},{"internalType":"uint256","name":"beginTime","type":"uint256"},{"internalType":"uint256","name":"endTime","type":"uint256"},{"internalType":"address","name":"_rewardToken","type":"address"}],"stateMutability":"nonpayable","type":"constructor"},{"anonymous":false,"inputs":[{"indexed":true,"internalType":"address","name":"user","type":"address"},{"indexed":false,"internalType":"uint256","name":"amount","type":"uint256"}],"name":"ClaimReward","type":"event"},{"anonymous":false,"inputs":[{"indexed":true,"internalType":"address","name":"user","type":"address"},{"indexed":false,"internalType":"uint256","name":"no","type":"uint256"},{"indexed":false,"internalType":"uint256","name":"amount","type":"uint256"}],"name":"SetReward","type":"event"},{"inputs":[],"name":"BEGIN_TIME","outputs":[{"internalType":"uint256","name":"","type":"uint256"}],"stateMutability":"view","type":"function"},{"inputs":[],"name":"END_TIME","outputs":[{"internalType":"uint256","name":"","type":"uint256"}],"stateMutability":"view","type":"function"},{"inputs":[],"name":"LOCK_WEEKNUM","outputs":[{"internalType":"uint8","name":"","type":"uint8"}],"stateMutability":"view","type":"function"},{"inputs":[],"name":"MAX_SCALE","outputs":[{"internalType":"uint256","name":"","type":"uint256"}],"stateMutability":"view","type":"function"},{"inputs":[],"name":"MAX_WEEKS","outputs":[{"internalType":"uint8","name":"","type":"uint8"}],"stateMutability":"view","type":"function"},{"inputs":[],"name":"WEEK_SECONDS","outputs":[{"internalType":"uint24","name":"","type":"uint24"}],"stateMutability":"view","type":"function"},{"inputs":[],"name":"acceptSetter","outputs":[],"stateMutability":"nonpayable","type":"function"},{"inputs":[],"name":"canClaimAmount","outputs":[{"internalType":"uint256","name":"","type":"uint256"}],"stateMutability":"view","type":"function"},{"inputs":[],"name":"claimReward","outputs":[],"stateMutability":"nonpayable","type":"function"},{"inputs":[{"internalType":"uint256","name":"amount","type":"uint256"},{"internalType":"uint8","name":"k","type":"uint8"}],"name":"getScore","outputs":[{"internalType":"uint256","name":"score","type":"uint256"}],"stateMutability":"view","type":"function"},{"inputs":[],"name":"latestNo","outputs":[{"internalType":"uint256","name":"","type":"uint256"}],"stateMutability":"view","type":"function"},{"inputs":[],"name":"owner","outputs":[{"internalType":"address","name":"","type":"address"}],"stateMutability":"view","type":"function"},{"inputs":[],"name":"rewardToken","outputs":[{"internalType":"address","name":"","type":"address"}],"stateMutability":"view","type":"function"},{"inputs":[{"internalType":"uint256","name":"","type":"uint256"}],"name":"rewardsOf","outputs":[{"internalType":"uint256","name":"","type":"uint256"}],"stateMutability":"view","type":"function"},{"inputs":[{"internalType":"uint256[]","name":"nos","type":"uint256[]"},{"internalType":"uint256[]","name":"amounts","type":"uint256[]"}],"name":"setRewards","outputs":[{"internalType":"uint256","name":"total","type":"uint256"}],"stateMutability":"nonpayable","type":"function"},{"inputs":[{"internalType":"uint256","name":"","type":"uint256"}],"name":"totalScores","outputs":[{"internalType":"uint256","name":"","type":"uint256"}],"stateMutability":"view","type":"function"},{"inputs":[{"internalType":"address","name":"_owner","type":"address"}],"name":"transferOwner","outputs":[],"stateMutability":"nonpayable","type":"function"},{"inputs":[{"internalType":"address","name":"","type":"address"},{"internalType":"uint256","name":"","type":"uint256"}],"name":"userCanClaimWeeks","outputs":[{"internalType":"uint256","name":"","type":"uint256"}],"stateMutability":"view","type":"function"},{"inputs":[{"internalType":"address","name":"","type":"address"},{"internalType":"uint256","name":"","type":"uint256"}],"name":"userScores","outputs":[{"internalType":"uint256","name":"","type":"uint256"}],"stateMutability":"view","type":"function"},{"inputs":[{"internalType":"uint256","name":"amount","type":"uint256"}],"name":"withdrawRewards","outputs":[],"stateMutability":"nonpayable","type":"function"}],"evm":{"bytecode":{"linkReferences":{},"object":"61014060405234801561001157600080fd5b5060405161101638038061101683398101604081905261003091610087565b6001600160a01b031660805260ff94851660a05260c093909352921660e0526101009190915261012052600080546001600160a01b031916331790556100f8565b805160ff8116811461008257600080fd5b919050565b60008060008060008060c087890312156100a057600080fd5b6100a987610071565b9550602087015194506100be60408801610071565b6060880151608089015160a08a015192965090945092506001600160a01b03811681146100ea57600080fd5b809150509295509295509295565b60805160a05160c05160e0516101005161012051610e9761017f60003960006101cb015260006102ae01526000818161016901528181610422015261070301526000818161032c01526108e10152600081816102f20152818161087d01526108a8015260008181610353015281816105230152818161069401526107f00152610e976000f3fe608060405234801561001057600080fd5b506004361061012c5760003560e01c80639342c8f4116100ad578063cd671a5811610071578063cd671a58146102d0578063e11400bb146102ed578063ee3453ed14610314578063f6def7cf14610327578063f7c618c11461034e57600080fd5b80639342c8f414610268578063979db1c41461027b578063b88a802f1461028e578063bb57852d14610296578063c75363b6146102a957600080fd5b80634fb2e45d116100f45780634fb2e45d146101ed5780635b680a45146102025780635f8e422f1461022d5780638431165e146102355780638da5cb5b1461023d57600080fd5b80630bce1284146101315780630d437d4014610164578063157775df1461019d57806329ed1cfd146101bd57806337ba682d146101c6575b600080fd5b61015161013f366004610b65565b60056020526000908152604090205481565b6040519081526020015b60405180910390f35b61018b7f000000000000000000000000000000000000000000000000000000000000000081565b60405160ff909116815260200161015b565b6101516101ab366004610b65565b60046020526000908152604090205481565b61015160065481565b6101517f000000000000000000000000000000000000000000000000000000000000000081565b6102006101fb366004610b9a565b610375565b005b610151610210366004610bb5565b600260209081526000928352604080842090915290825290205481565b6102006103ca565b61015161041b565b600054610250906001600160a01b031681565b6040516001600160a01b03909116815260200161015b565b610200610276366004610b65565b6104f4565b610151610289366004610c90565b61054c565b6102006106fd565b6101516102a4366004610bb5565b61084f565b6101517f000000000000000000000000000000000000000000000000000000000000000081565b6102d961025881565b60405162ffffff909116815260200161015b565b61018b7f000000000000000000000000000000000000000000000000000000000000000081565b610151610322366004610cf4565b610874565b6101517f000000000000000000000000000000000000000000000000000000000000000081565b6102507f000000000000000000000000000000000000000000000000000000000000000081565b6000546001600160a01b031633146103a85760405162461bcd60e51b815260040161039f90610d2a565b60405180910390fd5b600180546001600160a01b0319166001600160a01b0392909216919091179055565b6001546001600160a01b031633146103f45760405162461bcd60e51b815260040161039f90610d2a565b60018054600080546001600160a01b03199081166001600160a01b03841617909155169055565b60008060ff7f00000000000000000000000000000000000000000000000000000000000000001661044e61025842610d63565b6104589190610d85565b33600090815260036020526040812054919250905b336000908152600360205260409020600101548110156104ed578281116104ed576000818152600460209081526040808320543384526002835281842085855283528184205460059093529220546104c59190610db4565b6104cf9190610d63565b6104d99083610dcb565b9150806104e581610dde565b91505061046d565b5092915050565b6000546001600160a01b0316331461051e5760405162461bcd60e51b815260040161039f90610d2a565b6105497f0000000000000000000000000000000000000000000000000000000000000000338361093e565b50565b600080546001600160a01b031633146105775760405162461bcd60e51b815260040161039f90610d2a565b81518351146105bb5760405162461bcd60e51b815260206004820152601060248201526f3830b930b6b2ba32b9399032b93937b960811b604482015260640161039f565b60005b835181101561068e578281815181106105d9576105d9610d9e565b6020026020010151826105ec9190610dcb565b915082818151811061060057610600610d9e565b60200260200101516005600086848151811061061e5761061e610d9e565b602002602001015181526020019081526020016000208190555060065484828151811061064d5761064d610d9e565b6020026020010151111561067c5783818151811061066d5761066d610d9e565b60200260200101516006819055505b8061068681610dde565b9150506105be565b506106bb7f0000000000000000000000000000000000000000000000000000000000000000333084610a4b565b60408051600081526020810183905233917fc3991418cacd70a010fce559a44fcbb47534ca43bf7543964bdca2639f6e6e5a910160405180910390a292915050565b600060ff7f00000000000000000000000000000000000000000000000000000000000000001661072f61025842610d63565b6107399190610d85565b33600090815260036020526040812054919250905b336000908152600360205260409020600101548110156107ea578281116107ea5761077a816001610dcb565b33600090815260036020526040812001556000818152600460209081526040808320543384526002835281842085855283528184205460059093529220546107c29190610db4565b6107cc9190610d63565b6107d69083610dcb565b9150806107e281610dde565b91505061074e565b506108167f0000000000000000000000000000000000000000000000000000000000000000338361093e565b60405181815233907fba8de60c3403ec381d1d484652ea1980e3c3e56359195c92525bff4ce47ad98e9060200160405180910390a25050565b6003602052816000526040600020816002811061086b57600080fd5b01549150829050565b60006108a160017f0000000000000000000000000000000000000000000000000000000000000000610df7565b60ff1660017f000000000000000000000000000000000000000000000000000000000000000060ff166001856108d79190610df7565b60ff1661090560017f0000000000000000000000000000000000000000000000000000000000000000610d85565b61090f9190610db4565b6109199190610dcb565b6109239190610d85565b61092d9085610db4565b6109379190610d63565b9392505050565b604080516001600160a01b038481166024830152604480830185905283518084039091018152606490920183526020820180516001600160e01b031663a9059cbb60e01b179052915160009283929087169161099a9190610e10565b6000604051808303816000865af19150503d80600081146109d7576040519150601f19603f3d011682016040523d82523d6000602084013e6109dc565b606091505b5091509150818015610a06575080511580610a06575080806020019051810190610a069190610e3f565b610a445760405162461bcd60e51b815260206004820152600f60248201526e1514905394d1915497d19052531151608a1b604482015260640161039f565b5050505050565b604080516001600160a01b0385811660248301528481166044830152606480830185905283518084039091018152608490920183526020820180516001600160e01b03166323b872dd60e01b1790529151600092839290881691610aaf9190610e10565b6000604051808303816000865af19150503d8060008114610aec576040519150601f19603f3d011682016040523d82523d6000602084013e610af1565b606091505b5091509150818015610b1b575080511580610b1b575080806020019051810190610b1b9190610e3f565b610b5d5760405162461bcd60e51b81526020600482015260136024820152721d1c985b9cd9995c919c9bdb4819985a5b1959606a1b604482015260640161039f565b505050505050565b600060208284031215610b7757600080fd5b5035919050565b80356001600160a01b0381168114610b9557600080fd5b919050565b600060208284031215610bac57600080fd5b61093782610b7e565b60008060408385031215610bc857600080fd5b610bd183610b7e565b946020939093013593505050565b634e487b7160e01b600052604160045260246000fd5b600082601f830112610c0657600080fd5b8135602067ffffffffffffffff80831115610c2357610c23610bdf565b8260051b604051601f19603f83011681018181108482111715610c4857610c48610bdf565b604052938452858101830193838101925087851115610c6657600080fd5b83870191505b84821015610c8557813583529183019190830190610c6c565b979650505050505050565b60008060408385031215610ca357600080fd5b823567ffffffffffffffff80821115610cbb57600080fd5b610cc786838701610bf5565b93506020850135915080821115610cdd57600080fd5b50610cea85828601610bf5565b9150509250929050565b60008060408385031215610d0757600080fd5b82359150602083013560ff81168114610d1f57600080fd5b809150509250929050565b6020808252600990820152683337b93134b23232b760b91b604082015260600190565b634e487b7160e01b600052601160045260246000fd5b600082610d8057634e487b7160e01b600052601260045260246000fd5b500490565b81810381811115610d9857610d98610d4d565b92915050565b634e487b7160e01b600052603260045260246000fd5b8082028115828204841417610d9857610d98610d4d565b80820180821115610d9857610d98610d4d565b600060018201610df057610df0610d4d565b5060010190565b60ff8281168282160390811115610d9857610d98610d4d565b6000825160005b81811015610e315760208186018101518583015201610e17565b506000920191825250919050565b600060208284031215610e5157600080fd5b8151801515811461093757600080fdfea2646970667358221220c566348d713bd031460a74c4d3a0dc50deaf96afca882b5800b0a8dcdacccf2964736f6c63430008110033","opcodes":"PUSH2 0x140 PUSH1 0x40 MSTORE CALLVALUE DUP1 ISZERO PUSH2 0x11 JUMPI PUSH1 0x0 DUP1 REVERT JUMPDEST POP PUSH1 0x40 MLOAD PUSH2 0x1016 CODESIZE SUB DUP1 PUSH2 0x1016 DUP4 CODECOPY DUP2 ADD PUSH1 0x40 DUP2 SWAP1 MSTORE PUSH2 0x30 SWAP2 PUSH2 0x87 JUMP JUMPDEST PUSH1 0x1 PUSH1 0x1 PUSH1 0xA0 SHL SUB AND PUSH1 0x80 MSTORE PUSH1 0xFF SWAP5 DUP6 AND PUSH1 0xA0 MSTORE PUSH1 0xC0 SWAP4 SWAP1 SWAP4 MSTORE SWAP3 AND PUSH1 0xE0 MSTORE PUSH2 0x100 SWAP2 SWAP1 SWAP2 MSTORE PUSH2 0x120 MSTORE PUSH1 0x0 DUP1 SLOAD PUSH1 0x1 PUSH1 0x1 PUSH1 0xA0 SHL SUB NOT AND CALLER OR SWAP1 SSTORE PUSH2 0xF8 JUMP JUMPDEST DUP1 MLOAD PUSH1 0xFF DUP2 AND DUP2 EQ PUSH2 0x82 JUMPI PUSH1 0x0 DUP1 REVERT JUMPDEST SWAP2 SWAP1 POP JUMP JUMPDEST PUSH1 0x0 DUP1 PUSH1 0x0 DUP1 PUSH1 0x0 DUP1 PUSH1 0xC0 DUP8 DUP10 SUB SLT ISZERO PUSH2 0xA0 JUMPI PUSH1 0x0 DUP1 REVERT JUMPDEST PUSH2 0xA9 DUP8 PUSH2 0x71 JUMP JUMPDEST SWAP6 POP PUSH1 0x20 DUP8 ADD MLOAD SWAP5 POP PUSH2 0xBE PUSH1 0x40 DUP9 ADD PUSH2 0x71 JUMP JUMPDEST PUSH1 0x60 DUP9 ADD MLOAD PUSH1 0x80 DUP10 ADD MLOAD PUSH1 0xA0 DUP11 ADD MLOAD SWAP3 SWAP7 POP SWAP1 SWAP5 POP SWAP3 POP PUSH1 0x1 PUSH1 0x1 PUSH1 0xA0 SHL SUB DUP2 AND DUP2 EQ PUSH2 0xEA JUMPI PUSH1 0x0 DUP1 REVERT JUMPDEST DUP1 SWAP2 POP POP SWAP3 SWAP6 POP SWAP3 SWAP6 POP SWAP3 SWAP6 JUMP JUMPDEST PUSH1 0x80 MLOAD PUSH1 0xA0 MLOAD PUSH1 0xC0 MLOAD PUSH1 0xE0 MLOAD PUSH2 0x100 MLOAD PUSH2 0x120 MLOAD PUSH2 0xE97 PUSH2 0x17F PUSH1 0x0 CODECOPY PUSH1 0x0 PUSH2 0x1CB ADD MSTORE PUSH1 0x0 PUSH2 0x2AE ADD MSTORE PUSH1 0x0 DUP2 DUP2 PUSH2 0x169 ADD MSTORE DUP2 DUP2 PUSH2 0x422 ADD MSTORE PUSH2 0x703 ADD MSTORE PUSH1 0x0 DUP2 DUP2 PUSH2 0x32C ADD MSTORE PUSH2 0x8E1 ADD MSTORE PUSH1 0x0 DUP2 DUP2 PUSH2 0x2F2 ADD MSTORE DUP2 DUP2 PUSH2 0x87D ADD MSTORE PUSH2 0x8A8 ADD MSTORE PUSH1 0x0 DUP2 DUP2 PUSH2 0x353 ADD MSTORE DUP2 DUP2 PUSH2 0x523 ADD MSTORE DUP2 DUP2 PUSH2 0x694 ADD MSTORE PUSH2 0x7F0 ADD MSTORE PUSH2 0xE97 PUSH1 0x0 RETURN INVALID PUSH1 0x80 PUSH1 0x40 MSTORE CALLVALUE DUP1 ISZERO PUSH2 0x10 JUMPI PUSH1 0x0 DUP1 REVERT JUMPDEST POP PUSH1 0x4 CALLDATASIZE LT PUSH2 0x12C JUMPI PUSH1 0x0 CALLDATALOAD PUSH1 0xE0 SHR DUP1 PUSH4 0x9342C8F4 GT PUSH2 0xAD JUMPI DUP1 PUSH4 0xCD671A58 GT PUSH2 0x71 JUMPI DUP1 PUSH4 0xCD671A58 EQ PUSH2 0x2D0 JUMPI DUP1 PUSH4 0xE11400BB EQ PUSH2 0x2ED JUMPI DUP1 PUSH4 0xEE3453ED EQ PUSH2 0x314 JUMPI DUP1 PUSH4 0xF6DEF7CF EQ PUSH2 0x327 JUMPI DUP1 PUSH4 0xF7C618C1 EQ PUSH2 0x34E JUMPI PUSH1 0x0 DUP1 REVERT JUMPDEST DUP1 PUSH4 0x9342C8F4 EQ PUSH2 0x268 JUMPI DUP1 PUSH4 0x979DB1C4 EQ PUSH2 0x27B JUMPI DUP1 PUSH4 0xB88A802F EQ PUSH2 0x28E JUMPI DUP1 PUSH4 0xBB57852D EQ PUSH2 0x296 JUMPI DUP1 PUSH4 0xC75363B6 EQ PUSH2 0x2A9 JUMPI PUSH1 0x0 DUP1 REVERT JUMPDEST DUP1 PUSH4 0x4FB2E45D GT PUSH2 0xF4 JUMPI DUP1 PUSH4 0x4FB2E45D EQ PUSH2 0x1ED JUMPI DUP1 PUSH4 0x5B680A45 EQ PUSH2 0x202 JUMPI DUP1 PUSH4 0x5F8E422F EQ PUSH2 0x22D JUMPI DUP1 PUSH4 0x8431165E EQ PUSH2 0x235 JUMPI DUP1 PUSH4 0x8DA5CB5B EQ PUSH2 0x23D JUMPI PUSH1 0x0 DUP1 REVERT JUMPDEST DUP1 PUSH4 0xBCE1284 EQ PUSH2 0x131 JUMPI DUP1 PUSH4 0xD437D40 EQ PUSH2 0x164 JUMPI DUP1 PUSH4 0x157775DF EQ PUSH2 0x19D JUMPI DUP1 PUSH4 0x29ED1CFD EQ PUSH2 0x1BD JUMPI DUP1 PUSH4 0x37BA682D EQ PUSH2 0x1C6 JUMPI JUMPDEST PUSH1 0x0 DUP1 REVERT JUMPDEST PUSH2 0x151 PUSH2 0x13F CALLDATASIZE PUSH1 0x4 PUSH2 0xB65 JUMP JUMPDEST PUSH1 0x5 PUSH1 0x20 MSTORE PUSH1 0x0 SWAP1 DUP2 MSTORE PUSH1 0x40 SWAP1 KECCAK256 SLOAD DUP2 JUMP JUMPDEST PUSH1 0x40 MLOAD SWAP1 DUP2 MSTORE PUSH1 0x20 ADD JUMPDEST PUSH1 0x40 MLOAD DUP1 SWAP2 SUB SWAP1 RETURN JUMPDEST PUSH2 0x18B PUSH32 0x0 DUP2 JUMP JUMPDEST PUSH1 0x40 MLOAD PUSH1 0xFF SWAP1 SWAP2 AND DUP2 MSTORE PUSH1 0x20 ADD PUSH2 0x15B JUMP JUMPDEST PUSH2 0x151 PUSH2 0x1AB CALLDATASIZE PUSH1 0x4 PUSH2 0xB65 JUMP JUMPDEST PUSH1 0x4 PUSH1 0x20 MSTORE PUSH1 0x0 SWAP1 DUP2 MSTORE PUSH1 0x40 SWAP1 KECCAK256 SLOAD DUP2 JUMP JUMPDEST PUSH2 0x151 PUSH1 0x6 SLOAD DUP2 JUMP JUMPDEST PUSH2 0x151 PUSH32 0x0 DUP2 JUMP JUMPDEST PUSH2 0x200 PUSH2 0x1FB CALLDATASIZE PUSH1 0x4 PUSH2 0xB9A JUMP JUMPDEST PUSH2 0x375 JUMP JUMPDEST STOP JUMPDEST PUSH2 0x151 PUSH2 0x210 CALLDATASIZE PUSH1 0x4 PUSH2 0xBB5 JUMP JUMPDEST PUSH1 0x2 PUSH1 0x20 SWAP1 DUP2 MSTORE PUSH1 0x0 SWAP3 DUP4 MSTORE PUSH1 0x40 DUP1 DUP5 KECCAK256 SWAP1 SWAP2 MSTORE SWAP1 DUP3 MSTORE SWAP1 KECCAK256 SLOAD DUP2 JUMP JUMPDEST PUSH2 0x200 PUSH2 0x3CA JUMP JUMPDEST PUSH2 0x151 PUSH2 0x41B JUMP JUMPDEST PUSH1 0x0 SLOAD PUSH2 0x250 SWAP1 PUSH1 0x1 PUSH1 0x1 PUSH1 0xA0 SHL SUB AND DUP2 JUMP JUMPDEST PUSH1 0x40 MLOAD PUSH1 0x1 PUSH1 0x1 PUSH1 0xA0 SHL SUB SWAP1 SWAP2 AND DUP2 MSTORE PUSH1 0x20 ADD PUSH2 0x15B JUMP JUMPDEST PUSH2 0x200 PUSH2 0x276 CALLDATASIZE PUSH1 0x4 PUSH2 0xB65 JUMP JUMPDEST PUSH2 0x4F4 JUMP JUMPDEST PUSH2 0x151 PUSH2 0x289 CALLDATASIZE PUSH1 0x4 PUSH2 0xC90 JUMP JUMPDEST PUSH2 0x54C JUMP JUMPDEST PUSH2 0x200 PUSH2 0x6FD JUMP JUMPDEST PUSH2 0x151 PUSH2 0x2A4 CALLDATASIZE PUSH1 0x4 PUSH2 0xBB5 JUMP JUMPDEST PUSH2 0x84F JUMP JUMPDEST PUSH2 0x151 PUSH32 0x0 DUP2 JUMP JUMPDEST PUSH2 0x2D9 PUSH2 0x258 DUP2 JUMP JUMPDEST PUSH1 0x40 MLOAD PUSH3 0xFFFFFF SWAP1 SWAP2 AND DUP2 MSTORE PUSH1 0x20 ADD PUSH2 0x15B JUMP JUMPDEST PUSH2 0x18B PUSH32 0x0 DUP2 JUMP JUMPDEST PUSH2 0x151 PUSH2 0x322 CALLDATASIZE PUSH1 0x4 PUSH2 0xCF4 JUMP JUMPDEST PUSH2 0x874 JUMP JUMPDEST PUSH2 0x151 PUSH32 0x0 DUP2 JUMP JUMPDEST PUSH2 0x250 PUSH32 0x0 DUP2 JUMP JUMPDEST PUSH1 0x0 SLOAD PUSH1 0x1 PUSH1 0x1 PUSH1 0xA0 SHL SUB AND CALLER EQ PUSH2 0x3A8 JUMPI PUSH1 0x40 MLOAD PUSH3 0x461BCD PUSH1 0xE5 SHL DUP2 MSTORE PUSH1 0x4 ADD PUSH2 0x39F SWAP1 PUSH2 0xD2A JUMP JUMPDEST PUSH1 0x40 MLOAD DUP1 SWAP2 SUB SWAP1 REVERT JUMPDEST PUSH1 0x1 DUP1 SLOAD PUSH1 0x1 PUSH1 0x1 PUSH1 0xA0 SHL SUB NOT AND PUSH1 0x1 PUSH1 0x1 PUSH1 0xA0 SHL SUB SWAP3 SWAP1 SWAP3 AND SWAP2 SWAP1 SWAP2 OR SWAP1 SSTORE JUMP JUMPDEST PUSH1 0x1 SLOAD PUSH1 0x1 PUSH1 0x1 PUSH1 0xA0 SHL SUB AND CALLER EQ PUSH2 0x3F4 JUMPI PUSH1 0x40 MLOAD PUSH3 0x461BCD PUSH1 0xE5 SHL DUP2 MSTORE PUSH1 0x4 ADD PUSH2 0x39F SWAP1 PUSH2 0xD2A JUMP JUMPDEST PUSH1 0x1 DUP1 SLOAD PUSH1 0x0 DUP1 SLOAD PUSH1 0x1 PUSH1 0x1 PUSH1 0xA0 SHL SUB NOT SWAP1 DUP2 AND PUSH1 0x1 PUSH1 0x1 PUSH1 0xA0 SHL SUB DUP5 AND OR SWAP1 SWAP2 SSTORE AND SWAP1 SSTORE JUMP JUMPDEST PUSH1 0x0 DUP1 PUSH1 0xFF PUSH32 0x0 AND PUSH2 0x44E PUSH2 0x258 TIMESTAMP PUSH2 0xD63 JUMP JUMPDEST PUSH2 0x458 SWAP2 SWAP1 PUSH2 0xD85 JUMP JUMPDEST CALLER PUSH1 0x0 SWAP1 DUP2 MSTORE PUSH1 0x3 PUSH1 0x20 MSTORE PUSH1 0x40 DUP2 KECCAK256 SLOAD SWAP2 SWAP3 POP SWAP1 JUMPDEST CALLER PUSH1 0x0 SWAP1 DUP2 MSTORE PUSH1 0x3 PUSH1 0x20 MSTORE PUSH1 0x40 SWAP1 KECCAK256 PUSH1 0x1 ADD SLOAD DUP2 LT ISZERO PUSH2 0x4ED JUMPI DUP3 DUP2 GT PUSH2 0x4ED JUMPI PUSH1 0x0 DUP2 DUP2 MSTORE PUSH1 0x4 PUSH1 0x20 SWAP1 DUP2 MSTORE PUSH1 0x40 DUP1 DUP4 KECCAK256 SLOAD CALLER DUP5 MSTORE PUSH1 0x2 DUP4 MSTORE DUP2 DUP5 KECCAK256 DUP6 DUP6 MSTORE DUP4 MSTORE DUP2 DUP5 KECCAK256 SLOAD PUSH1 0x5 SWAP1 SWAP4 MSTORE SWAP3 KECCAK256 SLOAD PUSH2 0x4C5 SWAP2 SWAP1 PUSH2 0xDB4 JUMP JUMPDEST PUSH2 0x4CF SWAP2 SWAP1 PUSH2 0xD63 JUMP JUMPDEST PUSH2 0x4D9 SWAP1 DUP4 PUSH2 0xDCB JUMP JUMPDEST SWAP2 POP DUP1 PUSH2 0x4E5 DUP2 PUSH2 0xDDE JUMP JUMPDEST SWAP2 POP POP PUSH2 0x46D JUMP JUMPDEST POP SWAP3 SWAP2 POP POP JUMP JUMPDEST PUSH1 0x0 SLOAD PUSH1 0x1 PUSH1 0x1 PUSH1 0xA0 SHL SUB AND CALLER EQ PUSH2 0x51E JUMPI PUSH1 0x40 MLOAD PUSH3 0x461BCD PUSH1 0xE5 SHL DUP2 MSTORE PUSH1 0x4 ADD PUSH2 0x39F SWAP1 PUSH2 0xD2A JUMP JUMPDEST PUSH2 0x549 PUSH32 0x0 CALLER DUP4 PUSH2 0x93E JUMP JUMPDEST POP JUMP JUMPDEST PUSH1 0x0 DUP1 SLOAD PUSH1 0x1 PUSH1 0x1 PUSH1 0xA0 SHL SUB AND CALLER EQ PUSH2 0x577 JUMPI PUSH1 0x40 MLOAD PUSH3 0x461BCD PUSH1 0xE5 SHL DUP2 MSTORE PUSH1 0x4 ADD PUSH2 0x39F SWAP1 PUSH2 0xD2A JUMP JUMPDEST DUP2 MLOAD DUP4 MLOAD EQ PUSH2 0x5BB JUMPI PUSH1 0x40 MLOAD PUSH3 0x461BCD PUSH1 0xE5 SHL DUP2 MSTORE PUSH1 0x20 PUSH1 0x4 DUP3 ADD MSTORE PUSH1 0x10 PUSH1 0x24 DUP3 ADD MSTORE PUSH16 0x3830B930B6B2BA32B9399032B93937B9 PUSH1 0x81 SHL PUSH1 0x44 DUP3 ADD MSTORE PUSH1 0x64 ADD PUSH2 0x39F JUMP JUMPDEST PUSH1 0x0 JUMPDEST DUP4 MLOAD DUP2 LT ISZERO PUSH2 0x68E JUMPI DUP3 DUP2 DUP2 MLOAD DUP2 LT PUSH2 0x5D9 JUMPI PUSH2 0x5D9 PUSH2 0xD9E JUMP JUMPDEST PUSH1 0x20 MUL PUSH1 0x20 ADD ADD MLOAD DUP3 PUSH2 0x5EC SWAP2 SWAP1 PUSH2 0xDCB JUMP JUMPDEST SWAP2 POP DUP3 DUP2 DUP2 MLOAD DUP2 LT PUSH2 0x600 JUMPI PUSH2 0x600 PUSH2 0xD9E JUMP JUMPDEST PUSH1 0x20 MUL PUSH1 0x20 ADD ADD MLOAD PUSH1 0x5 PUSH1 0x0 DUP7 DUP5 DUP2 MLOAD DUP2 LT PUSH2 0x61E JUMPI PUSH2 0x61E PUSH2 0xD9E JUMP JUMPDEST PUSH1 0x20 MUL PUSH1 0x20 ADD ADD MLOAD DUP2 MSTORE PUSH1 0x20 ADD SWAP1 DUP2 MSTORE PUSH1 0x20 ADD PUSH1 0x0 KECCAK256 DUP2 SWAP1 SSTORE POP PUSH1 0x6 SLOAD DUP5 DUP3 DUP2 MLOAD DUP2 LT PUSH2 0x64D JUMPI PUSH2 0x64D PUSH2 0xD9E JUMP JUMPDEST PUSH1 0x20 MUL PUSH1 0x20 ADD ADD MLOAD GT ISZERO PUSH2 0x67C JUMPI DUP4 DUP2 DUP2 MLOAD DUP2 LT PUSH2 0x66D JUMPI PUSH2 0x66D PUSH2 0xD9E JUMP JUMPDEST PUSH1 0x20 MUL PUSH1 0x20 ADD ADD MLOAD PUSH1 0x6 DUP2 SWAP1 SSTORE POP JUMPDEST DUP1 PUSH2 0x686 DUP2 PUSH2 0xDDE JUMP JUMPDEST SWAP2 POP POP PUSH2 0x5BE JUMP JUMPDEST POP PUSH2 0x6BB PUSH32 0x0 CALLER ADDRESS DUP5 PUSH2 0xA4B JUMP JUMPDEST PUSH1 0x40 DUP1 MLOAD PUSH1 0x0 DUP2 MSTORE PUSH1 0x20 DUP2 ADD DUP4 SWAP1 MSTORE CALLER SWAP2 PUSH32 0xC3991418CACD70A010FCE559A44FCBB47534CA43BF7543964BDCA2639F6E6E5A SWAP2 ADD PUSH1 0x40 MLOAD DUP1 SWAP2 SUB SWAP1 LOG2 SWAP3 SWAP2 POP POP JUMP JUMPDEST PUSH1 0x0 PUSH1 0xFF PUSH32 0x0 AND PUSH2 0x72F PUSH2 0x258 TIMESTAMP PUSH2 0xD63 JUMP JUMPDEST PUSH2 0x739 SWAP2 SWAP1 PUSH2 0xD85 JUMP JUMPDEST CALLER PUSH1 0x0 SWAP1 DUP2 MSTORE PUSH1 0x3 PUSH1 0x20 MSTORE PUSH1 0x40 DUP2 KECCAK256 SLOAD SWAP2 SWAP3 POP SWAP1 JUMPDEST CALLER PUSH1 0x0 SWAP1 DUP2 MSTORE PUSH1 0x3 PUSH1 0x20 MSTORE PUSH1 0x40 SWAP1 KECCAK256 PUSH1 0x1 ADD SLOAD DUP2 LT ISZERO PUSH2 0x7EA JUMPI DUP3 DUP2 GT PUSH2 0x7EA JUMPI PUSH2 0x77A DUP2 PUSH1 0x1 PUSH2 0xDCB JUMP JUMPDEST CALLER PUSH1 0x0 SWAP1 DUP2 MSTORE PUSH1 0x3 PUSH1 0x20 MSTORE PUSH1 0x40 DUP2 KECCAK256 ADD SSTORE PUSH1 0x0 DUP2 DUP2 MSTORE PUSH1 0x4 PUSH1 0x20 SWAP1 DUP2 MSTORE PUSH1 0x40 DUP1 DUP4 KECCAK256 SLOAD CALLER DUP5 MSTORE PUSH1 0x2 DUP4 MSTORE DUP2 DUP5 KECCAK256 DUP6 DUP6 MSTORE DUP4 MSTORE DUP2 DUP5 KECCAK256 SLOAD PUSH1 0x5 SWAP1 SWAP4 MSTORE SWAP3 KECCAK256 SLOAD PUSH2 0x7C2 SWAP2 SWAP1 PUSH2 0xDB4 JUMP JUMPDEST PUSH2 0x7CC SWAP2 SWAP1 PUSH2 0xD63 JUMP JUMPDEST PUSH2 0x7D6 SWAP1 DUP4 PUSH2 0xDCB JUMP JUMPDEST SWAP2 POP DUP1 PUSH2 0x7E2 DUP2 PUSH2 0xDDE JUMP JUMPDEST SWAP2 POP POP PUSH2 0x74E JUMP JUMPDEST POP PUSH2 0x816 PUSH32 0x0 CALLER DUP4 PUSH2 0x93E JUMP JUMPDEST PUSH1 0x40 MLOAD DUP2 DUP2 MSTORE CALLER SWAP1 PUSH32 0xBA8DE60C3403EC381D1D484652EA1980E3C3E56359195C92525BFF4CE47AD98E SWAP1 PUSH1 0x20 ADD PUSH1 0x40 MLOAD DUP1 SWAP2 SUB SWAP1 LOG2 POP POP JUMP JUMPDEST PUSH1 0x3 PUSH1 0x20 MSTORE DUP2 PUSH1 0x0 MSTORE PUSH1 0x40 PUSH1 0x0 KECCAK256 DUP2 PUSH1 0x2 DUP2 LT PUSH2 0x86B JUMPI PUSH1 0x0 DUP1 REVERT JUMPDEST ADD SLOAD SWAP2 POP DUP3 SWAP1 POP JUMP JUMPDEST PUSH1 0x0 PUSH2 0x8A1 PUSH1 0x1 PUSH32 0x0 PUSH2 0xDF7 JUMP JUMPDEST PUSH1 0xFF AND PUSH1 0x1 PUSH32 0x0 PUSH1 0xFF AND PUSH1 0x1 DUP6 PUSH2 0x8D7 SWAP2 SWAP1 PUSH2 0xDF7 JUMP JUMPDEST PUSH1 0xFF AND PUSH2 0x905 PUSH1 0x1 PUSH32 0x0 PUSH2 0xD85 JUMP JUMPDEST PUSH2 0x90F SWAP2 SWAP1 PUSH2 0xDB4 JUMP JUMPDEST PUSH2 0x919 SWAP2 SWAP1 PUSH2 0xDCB JUMP JUMPDEST PUSH2 0x923 SWAP2 SWAP1 PUSH2 0xD85 JUMP JUMPDEST PUSH2 0x92D SWAP1 DUP6 PUSH2 0xDB4 JUMP JUMPDEST PUSH2 0x937 SWAP2 SWAP1 PUSH2 0xD63 JUMP JUMPDEST SWAP4 SWAP3 POP POP POP JUMP JUMPDEST PUSH1 0x40 DUP1 MLOAD PUSH1 0x1 PUSH1 0x1 PUSH1 0xA0 SHL SUB DUP5 DUP2 AND PUSH1 0x24 DUP4 ADD MSTORE PUSH1 0x44 DUP1 DUP4 ADD DUP6 SWAP1 MSTORE DUP4 MLOAD DUP1 DUP5 SUB SWAP1 SWAP2 ADD DUP2 MSTORE PUSH1 0x64 SWAP1 SWAP3 ADD DUP4 MSTORE PUSH1 0x20 DUP3 ADD DUP1 MLOAD PUSH1 0x1 PUSH1 0x1 PUSH1 0xE0 SHL SUB AND PUSH4 0xA9059CBB PUSH1 0xE0 SHL OR SWAP1 MSTORE SWAP2 MLOAD PUSH1 0x0 SWAP3 DUP4 SWAP3 SWAP1 DUP8 AND SWAP2 PUSH2 0x99A SWAP2 SWAP1 PUSH2 0xE10 JUMP JUMPDEST PUSH1 0x0 PUSH1 0x40 MLOAD DUP1 DUP4 SUB DUP2 PUSH1 0x0 DUP7 GAS CALL SWAP2 POP POP RETURNDATASIZE DUP1 PUSH1 0x0 DUP2 EQ PUSH2 0x9D7 JUMPI PUSH1 0x40 MLOAD SWAP2 POP PUSH1 0x1F NOT PUSH1 0x3F RETURNDATASIZE ADD AND DUP3 ADD PUSH1 0x40 MSTORE RETURNDATASIZE DUP3 MSTORE RETURNDATASIZE PUSH1 0x0 PUSH1 0x20 DUP5 ADD RETURNDATACOPY PUSH2 0x9DC JUMP JUMPDEST PUSH1 0x60 SWAP2 POP JUMPDEST POP SWAP2 POP SWAP2 POP DUP2 DUP1 ISZERO PUSH2 0xA06 JUMPI POP DUP1 MLOAD ISZERO DUP1 PUSH2 0xA06 JUMPI POP DUP1 DUP1 PUSH1 0x20 ADD SWAP1 MLOAD DUP2 ADD SWAP1 PUSH2 0xA06 SWAP2 SWAP1 PUSH2 0xE3F JUMP JUMPDEST PUSH2 0xA44 JUMPI PUSH1 0x40 MLOAD PUSH3 0x461BCD PUSH1 0xE5 SHL DUP2 MSTORE PUSH1 0x20 PUSH1 0x4 DUP3 ADD MSTORE PUSH1 0xF PUSH1 0x24 DUP3 ADD MSTORE PUSH15 0x1514905394D1915497D19052531151 PUSH1 0x8A SHL PUSH1 0x44 DUP3 ADD MSTORE PUSH1 0x64 ADD PUSH2 0x39F JUMP JUMPDEST POP POP POP POP POP JUMP JUMPDEST PUSH1 0x40 DUP1 MLOAD PUSH1 0x1 PUSH1 0x1 PUSH1 0xA0 SHL SUB DUP6 DUP2 AND PUSH1 0x24 DUP4 ADD MSTORE DUP5 DUP2 AND PUSH1 0x44 DUP4 ADD MSTORE PUSH1 0x64 DUP1 DUP4 ADD DUP6 SWAP1 MSTORE DUP4 MLOAD DUP1 DUP5 SUB SWAP1 SWAP2 ADD DUP2 MSTORE PUSH1 0x84 SWAP1 SWAP3 ADD DUP4 MSTORE PUSH1 0x20 DUP3 ADD DUP1 MLOAD PUSH1 0x1 PUSH1 0x1 PUSH1 0xE0 SHL SUB AND PUSH4 0x23B872DD PUSH1 0xE0 SHL OR SWAP1 MSTORE SWAP2 MLOAD PUSH1 0x0 SWAP3 DUP4 SWAP3 SWAP1 DUP9 AND SWAP2 PUSH2 0xAAF SWAP2 SWAP1 PUSH2 0xE10 JUMP JUMPDEST PUSH1 0x0 PUSH1 0x40 MLOAD DUP1 DUP4 SUB DUP2 PUSH1 0x0 DUP7 GAS CALL SWAP2 POP POP RETURNDATASIZE DUP1 PUSH1 0x0 DUP2 EQ PUSH2 0xAEC JUMPI PUSH1 0x40 MLOAD SWAP2 POP PUSH1 0x1F NOT PUSH1 0x3F RETURNDATASIZE ADD AND DUP3 ADD PUSH1 0x40 MSTORE RETURNDATASIZE DUP3 MSTORE RETURNDATASIZE PUSH1 0x0 PUSH1 0x20 DUP5 ADD RETURNDATACOPY PUSH2 0xAF1 JUMP JUMPDEST PUSH1 0x60 SWAP2 POP JUMPDEST POP SWAP2 POP SWAP2 POP DUP2 DUP1 ISZERO PUSH2 0xB1B JUMPI POP DUP1 MLOAD ISZERO DUP1 PUSH2 0xB1B JUMPI POP DUP1 DUP1 PUSH1 0x20 ADD SWAP1 MLOAD DUP2 ADD SWAP1 PUSH2 0xB1B SWAP2 SWAP1 PUSH2 0xE3F JUMP JUMPDEST PUSH2 0xB5D JUMPI PUSH1 0x40 MLOAD PUSH3 0x461BCD PUSH1 0xE5 SHL DUP2 MSTORE PUSH1 0x20 PUSH1 0x4 DUP3 ADD MSTORE PUSH1 0x13 PUSH1 0x24 DUP3 ADD MSTORE PUSH19 0x1D1C985B9CD9995C919C9BDB4819985A5B1959 PUSH1 0x6A SHL PUSH1 0x44 DUP3 ADD MSTORE PUSH1 0x64 ADD PUSH2 0x39F JUMP JUMPDEST POP POP POP POP POP POP JUMP JUMPDEST PUSH1 0x0 PUSH1 0x20 DUP3 DUP5 SUB SLT ISZERO PUSH2 0xB77 JUMPI PUSH1 0x0 DUP1 REVERT JUMPDEST POP CALLDATALOAD SWAP2 SWAP1 POP JUMP JUMPDEST DUP1 CALLDATALOAD PUSH1 0x1 PUSH1 0x1 PUSH1 0xA0 SHL SUB DUP2 AND DUP2 EQ PUSH2 0xB95 JUMPI PUSH1 0x0 DUP1 REVERT JUMPDEST SWAP2 SWAP1 POP JUMP JUMPDEST PUSH1 0x0 PUSH1 0x20 DUP3 DUP5 SUB SLT ISZERO PUSH2 0xBAC JUMPI PUSH1 0x0 DUP1 REVERT JUMPDEST PUSH2 0x937 DUP3 PUSH2 0xB7E JUMP JUMPDEST PUSH1 0x0 DUP1 PUSH1 0x40 DUP4 DUP6 SUB SLT ISZERO PUSH2 0xBC8 JUMPI PUSH1 0x0 DUP1 REVERT JUMPDEST PUSH2 0xBD1 DUP4 PUSH2 0xB7E JUMP JUMPDEST SWAP5 PUSH1 0x20 SWAP4 SWAP1 SWAP4 ADD CALLDATALOAD SWAP4 POP POP POP JUMP JUMPDEST PUSH4 0x4E487B71 PUSH1 0xE0 SHL PUSH1 0x0 MSTORE PUSH1 0x41 PUSH1 0x4 MSTORE PUSH1 0x24 PUSH1 0x0 REVERT JUMPDEST PUSH1 0x0 DUP3 PUSH1 0x1F DUP4 ADD SLT PUSH2 0xC06 JUMPI PUSH1 0x0 DUP1 REVERT JUMPDEST DUP2 CALLDATALOAD PUSH1 0x20 PUSH8 0xFFFFFFFFFFFFFFFF DUP1 DUP4 GT ISZERO PUSH2 0xC23 JUMPI PUSH2 0xC23 PUSH2 0xBDF JUMP JUMPDEST DUP3 PUSH1 0x5 SHL PUSH1 0x40 MLOAD PUSH1 0x1F NOT PUSH1 0x3F DUP4 ADD AND DUP2 ADD DUP2 DUP2 LT DUP5 DUP3 GT OR ISZERO PUSH2 0xC48 JUMPI PUSH2 0xC48 PUSH2 0xBDF JUMP JUMPDEST PUSH1 0x40 MSTORE SWAP4 DUP5 MSTORE DUP6 DUP2 ADD DUP4 ADD SWAP4 DUP4 DUP2 ADD SWAP3 POP DUP8 DUP6 GT ISZERO PUSH2 0xC66 JUMPI PUSH1 0x0 DUP1 REVERT JUMPDEST DUP4 DUP8 ADD SWAP2 POP JUMPDEST DUP5 DUP3 LT ISZERO PUSH2 0xC85 JUMPI DUP2 CALLDATALOAD DUP4 MSTORE SWAP2 DUP4 ADD SWAP2 SWAP1 DUP4 ADD SWAP1 PUSH2 0xC6C JUMP JUMPDEST SWAP8 SWAP7 POP POP POP POP POP POP POP JUMP JUMPDEST PUSH1 0x0 DUP1 PUSH1 0x40 DUP4 DUP6 SUB SLT ISZERO PUSH2 0xCA3 JUMPI PUSH1 0x0 DUP1 REVERT JUMPDEST DUP3 CALLDATALOAD PUSH8 0xFFFFFFFFFFFFFFFF DUP1 DUP3 GT ISZERO PUSH2 0xCBB JUMPI PUSH1 0x0 DUP1 REVERT JUMPDEST PUSH2 0xCC7 DUP7 DUP4 DUP8 ADD PUSH2 0xBF5 JUMP JUMPDEST SWAP4 POP PUSH1 0x20 DUP6 ADD CALLDATALOAD SWAP2 POP DUP1 DUP3 GT ISZERO PUSH2 0xCDD JUMPI PUSH1 0x0 DUP1 REVERT JUMPDEST POP PUSH2 0xCEA DUP6 DUP3 DUP7 ADD PUSH2 0xBF5 JUMP JUMPDEST SWAP2 POP POP SWAP3 POP SWAP3 SWAP1 POP JUMP JUMPDEST PUSH1 0x0 DUP1 PUSH1 0x40 DUP4 DUP6 SUB SLT ISZERO PUSH2 0xD07 JUMPI PUSH1 0x0 DUP1 REVERT JUMPDEST DUP3 CALLDATALOAD SWAP2 POP PUSH1 0x20 DUP4 ADD CALLDATALOAD PUSH1 0xFF DUP2 AND DUP2 EQ PUSH2 0xD1F JUMPI PUSH1 0x0 DUP1 REVERT JUMPDEST DUP1 SWAP2 POP POP SWAP3 POP SWAP3 SWAP1 POP JUMP JUMPDEST PUSH1 0x20 DUP1 DUP3 MSTORE PUSH1 0x9 SWAP1 DUP3 ADD MSTORE PUSH9 0x3337B93134B23232B7 PUSH1 0xB9 SHL PUSH1 0x40 DUP3 ADD MSTORE PUSH1 0x60 ADD SWAP1 JUMP JUMPDEST PUSH4 0x4E487B71 PUSH1 0xE0 SHL PUSH1 0x0 MSTORE PUSH1 0x11 PUSH1 0x4 MSTORE PUSH1 0x24 PUSH1 0x0 REVERT JUMPDEST PUSH1 0x0 DUP3 PUSH2 0xD80 JUMPI PUSH4 0x4E487B71 PUSH1 0xE0 SHL PUSH1 0x0 MSTORE PUSH1 0x12 PUSH1 0x4 MSTORE PUSH1 0x24 PUSH1 0x0 REVERT JUMPDEST POP DIV SWAP1 JUMP JUMPDEST DUP2 DUP2 SUB DUP2 DUP2 GT ISZERO PUSH2 0xD98 JUMPI PUSH2 0xD98 PUSH2 0xD4D JUMP JUMPDEST SWAP3 SWAP2 POP POP JUMP JUMPDEST PUSH4 0x4E487B71 PUSH1 0xE0 SHL PUSH1 0x0 MSTORE PUSH1 0x32 PUSH1 0x4 MSTORE PUSH1 0x24 PUSH1 0x0 REVERT JUMPDEST DUP1 DUP3 MUL DUP2 ISZERO DUP3 DUP3 DIV DUP5 EQ OR PUSH2 0xD98 JUMPI PUSH2 0xD98 PUSH2 0xD4D JUMP JUMPDEST DUP1 DUP3 ADD DUP1 DUP3 GT ISZERO PUSH2 0xD98 JUMPI PUSH2 0xD98 PUSH2 0xD4D JUMP JUMPDEST PUSH1 0x0 PUSH1 0x1 DUP3 ADD PUSH2 0xDF0 JUMPI PUSH2 0xDF0 PUSH2 0xD4D JUMP JUMPDEST POP PUSH1 0x1 ADD SWAP1 JUMP JUMPDEST PUSH1 0xFF DUP3 DUP2 AND DUP3 DUP3 AND SUB SWAP1 DUP2 GT ISZERO PUSH2 0xD98 JUMPI PUSH2 0xD98 PUSH2 0xD4D JUMP JUMPDEST PUSH1 0x0 DUP3 MLOAD PUSH1 0x0 JUMPDEST DUP2 DUP2 LT ISZERO PUSH2 0xE31 JUMPI PUSH1 0x20 DUP2 DUP7 ADD DUP2 ADD MLOAD DUP6 DUP4 ADD MSTORE ADD PUSH2 0xE17 JUMP JUMPDEST POP PUSH1 0x0 SWAP3 ADD SWAP2 DUP3 MSTORE POP SWAP2 SWAP1 POP JUMP JUMPDEST PUSH1 0x0 PUSH1 0x20 DUP3 DUP5 SUB SLT ISZERO PUSH2 0xE51 JUMPI PUSH1 0x0 DUP1 REVERT JUMPDEST DUP2 MLOAD DUP1 ISZERO ISZERO DUP2 EQ PUSH2 0x937 JUMPI PUSH1 0x0 DUP1 REVERT INVALID LOG2 PUSH5 0x6970667358 0x22 SLT KECCAK256 0xC5 PUSH7 0x348D713BD03146 EXP PUSH21 0xC4D3A0DC50DEAF96AFCA882B5800B0A8DCDACCCF29 PUSH5 0x736F6C6343 STOP ADDMOD GT STOP CALLER "},"methodIdentifiers":{"BEGIN_TIME()":"c75363b6","END_TIME()":"37ba682d","LOCK_WEEKNUM()":"0d437d40","MAX_SCALE()":"f6def7cf","MAX_WEEKS()":"e11400bb","WEEK_SECONDS()":"cd671a58","acceptSetter()":"5f8e422f","canClaimAmount()":"8431165e","claimReward()":"b88a802f","getScore(uint256,uint8)":"ee3453ed","latestNo()":"29ed1cfd","owner()":"8da5cb5b","rewardToken()":"f7c618c1","rewardsOf(uint256)":"0bce1284","setRewards(uint256[],uint256[])":"979db1c4","totalScores(uint256)":"157775df","transferOwner(address)":"4fb2e45d","userCanClaimWeeks(address,uint256)":"bb57852d","userScores(address,uint256)":"5b680a45","withdrawRewards(uint256)":"9342c8f4"}}}}}