{"contracts/stakeERC20.sol":{"StakeERC20":{"abi":[{"inputs":[{"internalType":"uint8","name":"maxWeeks","type":"uint8"},{"internalType":"uint256","name":"maxScale","type":"uint256"},{"internalType":"uint8","name":"lockWeeks","type":"uint8"},{"internalType":"uint256","name":"beginTime","type":"uint256"},{"internalType":"uint256","name":"endTime","type":"uint256"},{"internalType":"address","name":"_rewardToken","type":"address"},{"internalType":"address","name":"_lpToken","type":"address"}],"stateMutability":"nonpayable","type":"constructor"},{"anonymous":false,"inputs":[{"indexed":true,"internalType":"address","name":"user","type":"address"},{"indexed":false,"internalType":"uint256","name":"amount","type":"uint256"}],"name":"ClaimReward","type":"event"},{"anonymous":false,"inputs":[{"indexed":true,"internalType":"address","name":"user","type":"address"},{"indexed":false,"internalType":"uint256","name":"no","type":"uint256"},{"indexed":false,"internalType":"uint256","name":"amount","type":"uint256"}],"name":"SetReward","type":"event"},{"anonymous":false,"inputs":[{"indexed":true,"internalType":"address","name":"user","type":"address"},{"indexed":false,"internalType":"uint256","name":"id","type":"uint256"},{"indexed":false,"internalType":"uint256","name":"amount","type":"uint256"},{"indexed":false,"internalType":"uint8","name":"k","type":"uint8"}],"name":"Stake","type":"event"},{"anonymous":false,"inputs":[{"indexed":true,"internalType":"address","name":"user","type":"address"},{"indexed":false,"internalType":"uint256","name":"amount","type":"uint256"}],"name":"Withdraw","type":"event"},{"inputs":[],"name":"BEGIN_TIME","outputs":[{"internalType":"uint256","name":"","type":"uint256"}],"stateMutability":"view","type":"function"},{"inputs":[],"name":"END_TIME","outputs":[{"internalType":"uint256","name":"","type":"uint256"}],"stateMutability":"view","type":"function"},{"inputs":[],"name":"LOCK_WEEKNUM","outputs":[{"internalType":"uint8","name":"","type":"uint8"}],"stateMutability":"view","type":"function"},{"inputs":[],"name":"MAX_SCALE","outputs":[{"internalType":"uint256","name":"","type":"uint256"}],"stateMutability":"view","type":"function"},{"inputs":[],"name":"MAX_WEEKS","outputs":[{"internalType":"uint8","name":"","type":"uint8"}],"stateMutability":"view","type":"function"},{"inputs":[],"name":"WEEK_SECONDS","outputs":[{"internalType":"uint24","name":"","type":"uint24"}],"stateMutability":"view","type":"function"},{"inputs":[],"name":"acceptSetter","outputs":[],"stateMutability":"nonpayable","type":"function"},{"inputs":[],"name":"canClaimAmount","outputs":[{"internalType":"uint256","name":"","type":"uint256"}],"stateMutability":"view","type":"function"},{"inputs":[],"name":"claimReward","outputs":[],"stateMutability":"nonpayable","type":"function"},{"inputs":[{"internalType":"uint256","name":"amount","type":"uint256"},{"internalType":"uint8","name":"k","type":"uint8"}],"name":"getScore","outputs":[{"internalType":"uint256","name":"score","type":"uint256"}],"stateMutability":"view","type":"function"},{"inputs":[],"name":"getStaking","outputs":[{"components":[{"internalType":"uint256","name":"amount","type":"uint256"},{"internalType":"uint256","name":"score","type":"uint256"},{"internalType":"uint256","name":"beginNo","type":"uint256"},{"internalType":"uint256","name":"endNo","type":"uint256"}],"internalType":"struct StakeERC20.StakingERC20[]","name":"","type":"tuple[]"}],"stateMutability":"view","type":"function"},{"inputs":[],"name":"latestNo","outputs":[{"internalType":"uint256","name":"","type":"uint256"}],"stateMutability":"view","type":"function"},{"inputs":[],"name":"lockedRewardAmount","outputs":[{"internalType":"uint256","name":"","type":"uint256"},{"internalType":"uint256[]","name":"","type":"uint256[]"}],"stateMutability":"view","type":"function"},{"inputs":[],"name":"lpToken","outputs":[{"internalType":"address","name":"","type":"address"}],"stateMutability":"view","type":"function"},{"inputs":[],"name":"nonce","outputs":[{"internalType":"uint256","name":"","type":"uint256"}],"stateMutability":"view","type":"function"},{"inputs":[],"name":"owner","outputs":[{"internalType":"address","name":"","type":"address"}],"stateMutability":"view","type":"function"},{"inputs":[],"name":"rewardToken","outputs":[{"internalType":"address","name":"","type":"address"}],"stateMutability":"view","type":"function"},{"inputs":[{"internalType":"uint256","name":"","type":"uint256"}],"name":"rewardsOf","outputs":[{"internalType":"uint256","name":"","type":"uint256"}],"stateMutability":"view","type":"function"},{"inputs":[{"internalType":"uint256","name":"no","type":"uint256"},{"internalType":"uint256","name":"amount","type":"uint256"}],"name":"setReward","outputs":[],"stateMutability":"nonpayable","type":"function"},{"inputs":[{"internalType":"uint256[]","name":"nos","type":"uint256[]"},{"internalType":"uint256[]","name":"amounts","type":"uint256[]"}],"name":"setRewards","outputs":[{"internalType":"uint256","name":"total","type":"uint256"}],"stateMutability":"nonpayable","type":"function"},{"inputs":[{"internalType":"uint256","name":"amount","type":"uint256"},{"internalType":"uint8","name":"k","type":"uint8"}],"name":"stake","outputs":[],"stateMutability":"nonpayable","type":"function"},{"inputs":[{"internalType":"uint256","name":"","type":"uint256"}],"name":"stakingERC20s","outputs":[{"internalType":"uint256","name":"amount","type":"uint256"},{"internalType":"uint256","name":"score","type":"uint256"},{"internalType":"uint256","name":"beginNo","type":"uint256"},{"internalType":"uint256","name":"endNo","type":"uint256"}],"stateMutability":"view","type":"function"},{"inputs":[{"internalType":"uint256","name":"","type":"uint256"}],"name":"totalScores","outputs":[{"internalType":"uint256","name":"","type":"uint256"}],"stateMutability":"view","type":"function"},{"inputs":[{"internalType":"address","name":"_owner","type":"address"}],"name":"transferOwner","outputs":[],"stateMutability":"nonpayable","type":"function"},{"inputs":[{"internalType":"address","name":"","type":"address"},{"internalType":"uint256","name":"","type":"uint256"}],"name":"userCanClaimWeeks","outputs":[{"internalType":"uint256","name":"","type":"uint256"}],"stateMutability":"view","type":"function"},{"inputs":[{"internalType":"address","name":"","type":"address"},{"internalType":"uint256","name":"","type":"uint256"}],"name":"userERC20s","outputs":[{"internalType":"uint256","name":"","type":"uint256"}],"stateMutability":"view","type":"function"},{"inputs":[{"internalType":"address","name":"","type":"address"},{"internalType":"uint256","name":"","type":"uint256"}],"name":"userScores","outputs":[{"internalType":"uint256","name":"","type":"uint256"}],"stateMutability":"view","type":"function"},{"inputs":[],"name":"withdraw","outputs":[{"internalType":"uint256","name":"total","type":"uint256"}],"stateMutability":"nonpayable","type":"function"},{"inputs":[{"internalType":"uint256","name":"amount","type":"uint256"}],"name":"withdrawRewards","outputs":[],"stateMutability":"nonpayable","type":"function"}],"evm":{"bytecode":{"linkReferences":{},"object":"6101606040523480156200001257600080fd5b5060405162001bfc38038062001bfc8339810160408190526200003591620000ac565b6001600160a01b0391821660805260ff96871660a05260c0959095529490921660e0526101005261012052600080546001600160a01b03191633179055166101405262000126565b805160ff811681146200008f57600080fd5b919050565b80516001600160a01b03811681146200008f57600080fd5b600080600080600080600060e0888a031215620000c857600080fd5b620000d3886200007d565b965060208801519550620000ea604089016200007d565b945060608801519350608088015192506200010860a0890162000094565b91506200011860c0890162000094565b905092959891949750929550565b60805160a05160c05160e051610100516101205161014051611a19620001e3600039600081816102f8015261062c015260008181610283015261057e01526000818161044201526105a901526000818161020c01528181610b8401528181610c6d01526111260152600081816104c0015261134301526000818161048601528181610519015281816112df015261130a0152600081816104e701528181610e7d01528181610fee0152818161108601526112280152611a196000f3fe608060405234801561001057600080fd5b50600436106101cf5760003560e01c80638da5cb5b11610104578063ba086501116100a2578063e11400bb11610071578063e11400bb14610481578063ee3453ed146104a8578063f6def7cf146104bb578063f7c618c1146104e257600080fd5b8063ba08650114610417578063bb57852d1461042a578063c75363b61461043d578063cd671a581461046457600080fd5b8063a218de15116100de578063a218de151461039e578063a47bd496146103f3578063affed0e014610406578063b88a802f1461040f57600080fd5b80638da5cb5b146103655780639342c8f414610378578063979db1c41461038b57600080fd5b80634fb2e45d116101715780635fcbd2851161014b5780635fcbd285146102f35780637b1391a6146103325780638431165e146103475780638923de2b1461034f57600080fd5b80634fb2e45d146102ad5780635b680a45146102c05780635f8e422f146102eb57600080fd5b8063157775df116101ad578063157775df1461025557806329ed1cfd1461027557806337ba682d1461027e5780633ccfd60b146102a557600080fd5b80630bce1284146101d45780630d437d401461020757806310087fb114610240575b600080fd5b6101f46101e23660046115c7565b60056020526000908152604090205481565b6040519081526020015b60405180910390f35b61022e7f000000000000000000000000000000000000000000000000000000000000000081565b60405160ff90911681526020016101fe565b61025361024e3660046115e0565b610509565b005b6101f46102633660046115c7565b60046020526000908152604090205481565b6101f460065481565b6101f47f000000000000000000000000000000000000000000000000000000000000000081565b6101f4610857565b6102536102bb366004611632565b6109a1565b6101f46102ce36600461164d565b600260209081526000928352604080842090915290825290205481565b6102536109ed565b61031a7f000000000000000000000000000000000000000000000000000000000000000081565b6040516001600160a01b0390911681526020016101fe565b61033a610a3e565b6040516101fe9190611677565b6101f4610b7d565b610357610c64565b6040516101fe9291906116db565b60005461031a906001600160a01b031681565b6102536103863660046115c7565b610e4e565b6101f46103993660046117da565b610ea6565b6103d36103ac3660046115c7565b60086020526000908152604090208054600182015460028301546003909301549192909184565b6040805194855260208501939093529183015260608201526080016101fe565b61025361040136600461183e565b611057565b6101f460075481565b610253611120565b6101f461042536600461164d565b611280565b6101f461043836600461164d565b6112b1565b6101f47f000000000000000000000000000000000000000000000000000000000000000081565b61046d61025881565b60405162ffffff90911681526020016101fe565b61022e7f000000000000000000000000000000000000000000000000000000000000000081565b6101f46104b63660046115e0565b6112d6565b6101f47f000000000000000000000000000000000000000000000000000000000000000081565b61031a7f000000000000000000000000000000000000000000000000000000000000000081565b60008160ff1611801561054257507f000000000000000000000000000000000000000000000000000000000000000060ff168160ff1611155b61057c5760405162461bcd60e51b8152602060048201526006602482015265359018bf1a9960d11b60448201526064015b60405180910390fd5b7f000000000000000000000000000000000000000000000000000000000000000042111580156105cc57507f00000000000000000000000000000000000000000000000000000000000000004210155b61060c5760405162461bcd60e51b81526020600482015260116024820152701b9bdd081a5b881d1a19481c195c9a5bd9607a1b6044820152606401610573565b600061061a61025842611876565b610625906001611898565b90506106537f00000000000000000000000000000000000000000000000000000000000000003330866113a0565b600061065f84846112d6565b905060005b8360ff168160ff1610156106f957816004600061068460ff851687611898565b815260200190815260200160002060008282546106a19190611898565b909155505033600090815260026020526040812083916106c460ff851687611898565b815260200190815260200160002060008282546106e19190611898565b909155508190506106f1816118b1565b915050610664565b5060405180608001604052808581526020018281526020018381526020018460ff16846107269190611898565b905260075460009081526008602090815260408083208451815584830151600180830191909155858301516002830155606090950151600391820155338452909152902090810154905403610788573360009081526003602052604090208290555b61079560ff841683611898565b3360009081526003602052604090206001015410156107cf576107bb60ff841683611898565b336000908152600360205260409020600101555b33600081815260096020908152604080832060078054825460018101845592865294849020909101939093559154825190815290810187905260ff86168183015290517f6fa2f6021ee337436cdf2b2570285886da18bc06402ce284d296504a0fe8f8759181900360600190a26007805490600061084c836118e6565b919050555050505050565b60008061086661025842611876565b3360009081526009602052604081205491925090610886906001906118ff565b90505b3360009081526009602052604081208054839081106108aa576108aa6118d0565b906000526020600020015490508260086000838152602001908152602001600020600301541161098e576000818152600860205260409020546108ed9085611898565b33600090815260096020526040902080549195509061090e906001906118ff565b8154811061091e5761091e6118d0565b60009182526020808320909101543383526009909152604090912080548490811061094b5761094b6118d0565b600091825260208083209091019290925533815260099091526040902080548061097757610977611912565b600190038181906000526020600020016000905590555b508061099981611928565b915050610889565b6000546001600160a01b031633146109cb5760405162461bcd60e51b81526004016105739061193f565b600180546001600160a01b0319166001600160a01b0392909216919091179055565b6001546001600160a01b03163314610a175760405162461bcd60e51b81526004016105739061193f565b60018054600080546001600160a01b03199081166001600160a01b03841617909155169055565b336000908152600960205260408120546060918167ffffffffffffffff811115610a6a57610a6a611729565b604051908082528060200260200182016040528015610ac657816020015b610ab36040518060800160405280600081526020016000815260200160008152602001600081525090565b815260200190600190039081610a885790505b50905060005b82811015610b76573360009081526009602052604081208054600892919084908110610afa57610afa6118d0565b90600052602060002001548152602001908152602001600020604051806080016040529081600082015481526020016001820154815260200160028201548152602001600382015481525050828281518110610b5857610b586118d0565b60200260200101819052508080610b6e906118e6565b915050610acc565b5092915050565b60008060ff7f000000000000000000000000000000000000000000000000000000000000000016610bb061025842611876565b610bba91906118ff565b33600090815260036020526040812054919250905b33600090815260036020526040902060010154811015610b7657828111610b765760008181526004602052604090205415610c5257600081815260046020908152604080832054338452600283528184208585528352818420546005909352922054610c3b9190611962565b610c459190611876565b610c4f9083611898565b91505b80610c5c816118e6565b915050610bcf565b600060608160ff7f000000000000000000000000000000000000000000000000000000000000000016610c9961025842611876565b610ca391906118ff565b610cae906001611898565b33600090815260036020526040902090915081906001015411610ce35760408051600081526020810190915290939092509050565b33600090815260036020526040812060010154610d019083906118ff565b336000908152600360205260409020549091508111610d2f5733600090815260036020526040902054610d31565b805b3360009081526003602052604081206001015491925090610d539083906118ff565b67ffffffffffffffff811115610d6b57610d6b611729565b604051908082528060200260200182016040528015610d94578160200160208202803683370190505b509050815b33600090815260036020526040902060010154811015610e425760008181526004602052604090205415610e3057600081815260046020908152604080832054338452600283528184208585528352818420546005909352922054610dfe9190611962565b610e089190611876565b82610e1386846118ff565b81518110610e2357610e236118d0565b6020026020010181815250505b80610e3a816118e6565b915050610d99565b50919491935090915050565b6000546001600160a01b03163314610e785760405162461bcd60e51b81526004016105739061193f565b610ea37f000000000000000000000000000000000000000000000000000000000000000033836114ba565b50565b600080546001600160a01b03163314610ed15760405162461bcd60e51b81526004016105739061193f565b8151835114610f155760405162461bcd60e51b815260206004820152601060248201526f3830b930b6b2ba32b9399032b93937b960811b6044820152606401610573565b60005b8351811015610fe857828181518110610f3357610f336118d0565b602002602001015182610f469190611898565b9150828181518110610f5a57610f5a6118d0565b602002602001015160056000868481518110610f7857610f786118d0565b6020026020010151815260200190815260200160002081905550600654848281518110610fa757610fa76118d0565b60200260200101511115610fd657838181518110610fc757610fc76118d0565b60200260200101516006819055505b80610fe0816118e6565b915050610f18565b506110157f00000000000000000000000000000000000000000000000000000000000000003330846113a0565b60408051600081526020810183905233917fc3991418cacd70a010fce559a44fcbb47534ca43bf7543964bdca2639f6e6e5a910160405180910390a292915050565b6000546001600160a01b031633146110815760405162461bcd60e51b81526004016105739061193f565b6110ad7f00000000000000000000000000000000000000000000000000000000000000003330846113a0565b600082815260056020526040812080548392906110cb908490611898565b90915550506006548211156110e05760068290555b604080518381526020810183905233917fc3991418cacd70a010fce559a44fcbb47534ca43bf7543964bdca2639f6e6e5a91015b60405180910390a25050565b600060ff7f00000000000000000000000000000000000000000000000000000000000000001661115261025842611876565b61115c91906118ff565b33600090815260036020526040812054919250905b33600090815260036020526040902060010154811015611222578281116112225760008181526004602052604090205415611210576111b1816001611898565b33600090815260036020526040812001556000818152600460209081526040808320543384526002835281842085855283528184205460059093529220546111f99190611962565b6112039190611876565b61120d9083611898565b91505b8061121a816118e6565b915050611171565b5061124e7f000000000000000000000000000000000000000000000000000000000000000033836114ba565b60405181815233907fba8de60c3403ec381d1d484652ea1980e3c3e56359195c92525bff4ce47ad98e90602001611114565b6009602052816000526040600020818154811061129c57600080fd5b90600052602060002001600091509150505481565b600360205281600052604060002081600281106112cd57600080fd5b01549150829050565b600061130360017f0000000000000000000000000000000000000000000000000000000000000000611979565b60ff1660017f000000000000000000000000000000000000000000000000000000000000000060ff166001856113399190611979565b60ff1661136760017f00000000000000000000000000000000000000000000000000000000000000006118ff565b6113719190611962565b61137b9190611898565b61138591906118ff565b61138f9085611962565b6113999190611876565b9392505050565b604080516001600160a01b0385811660248301528481166044830152606480830185905283518084039091018152608490920183526020820180516001600160e01b03166323b872dd60e01b17905291516000928392908816916114049190611992565b6000604051808303816000865af19150503d8060008114611441576040519150601f19603f3d011682016040523d82523d6000602084013e611446565b606091505b509150915081801561147057508051158061147057508080602001905181019061147091906119c1565b6114b25760405162461bcd60e51b81526020600482015260136024820152721d1c985b9cd9995c919c9bdb4819985a5b1959606a1b6044820152606401610573565b505050505050565b604080516001600160a01b038481166024830152604480830185905283518084039091018152606490920183526020820180516001600160e01b031663a9059cbb60e01b17905291516000928392908716916115169190611992565b6000604051808303816000865af19150503d8060008114611553576040519150601f19603f3d011682016040523d82523d6000602084013e611558565b606091505b509150915081801561158257508051158061158257508080602001905181019061158291906119c1565b6115c05760405162461bcd60e51b815260206004820152600f60248201526e1514905394d1915497d19052531151608a1b6044820152606401610573565b5050505050565b6000602082840312156115d957600080fd5b5035919050565b600080604083850312156115f357600080fd5b82359150602083013560ff8116811461160b57600080fd5b809150509250929050565b80356001600160a01b038116811461162d57600080fd5b919050565b60006020828403121561164457600080fd5b61139982611616565b6000806040838503121561166057600080fd5b61166983611616565b946020939093013593505050565b602080825282518282018190526000919060409081850190868401855b828110156116ce57815180518552868101518786015285810151868601526060908101519085015260809093019290850190600101611694565b5091979650505050505050565b6000604082018483526020604081850152818551808452606086019150828701935060005b8181101561171c57845183529383019391830191600101611700565b5090979650505050505050565b634e487b7160e01b600052604160045260246000fd5b600082601f83011261175057600080fd5b8135602067ffffffffffffffff8083111561176d5761176d611729565b8260051b604051601f19603f8301168101818110848211171561179257611792611729565b6040529384528581018301938381019250878511156117b057600080fd5b83870191505b848210156117cf578135835291830191908301906117b6565b979650505050505050565b600080604083850312156117ed57600080fd5b823567ffffffffffffffff8082111561180557600080fd5b6118118683870161173f565b9350602085013591508082111561182757600080fd5b506118348582860161173f565b9150509250929050565b6000806040838503121561185157600080fd5b50508035926020909101359150565b634e487b7160e01b600052601160045260246000fd5b60008261189357634e487b7160e01b600052601260045260246000fd5b500490565b808201808211156118ab576118ab611860565b92915050565b600060ff821660ff81036118c7576118c7611860565b60010192915050565b634e487b7160e01b600052603260045260246000fd5b6000600182016118f8576118f8611860565b5060010190565b818103818111156118ab576118ab611860565b634e487b7160e01b600052603160045260246000fd5b60008161193757611937611860565b506000190190565b6020808252600990820152683337b93134b23232b760b91b604082015260600190565b80820281158282048414176118ab576118ab611860565b60ff82811682821603908111156118ab576118ab611860565b6000825160005b818110156119b35760208186018101518583015201611999565b506000920191825250919050565b6000602082840312156119d357600080fd5b8151801515811461139957600080fdfea2646970667358221220d16f75a1ae4dd8719caeddc311ee040e0d02904e1c7b7a9556c801b9c9bb437964736f6c63430008110033","opcodes":"PUSH2 0x160 PUSH1 0x40 MSTORE CALLVALUE DUP1 ISZERO PUSH3 0x12 JUMPI PUSH1 0x0 DUP1 REVERT JUMPDEST POP PUSH1 0x40 MLOAD PUSH3 0x1BFC CODESIZE SUB DUP1 PUSH3 0x1BFC DUP4 CODECOPY DUP2 ADD PUSH1 0x40 DUP2 SWAP1 MSTORE PUSH3 0x35 SWAP2 PUSH3 0xAC JUMP JUMPDEST PUSH1 0x1 PUSH1 0x1 PUSH1 0xA0 SHL SUB SWAP2 DUP3 AND PUSH1 0x80 MSTORE PUSH1 0xFF SWAP7 DUP8 AND PUSH1 0xA0 MSTORE PUSH1 0xC0 SWAP6 SWAP1 SWAP6 MSTORE SWAP5 SWAP1 SWAP3 AND PUSH1 0xE0 MSTORE PUSH2 0x100 MSTORE PUSH2 0x120 MSTORE PUSH1 0x0 DUP1 SLOAD PUSH1 0x1 PUSH1 0x1 PUSH1 0xA0 SHL SUB NOT AND CALLER OR SWAP1 SSTORE AND PUSH2 0x140 MSTORE PUSH3 0x126 JUMP JUMPDEST DUP1 MLOAD PUSH1 0xFF DUP2 AND DUP2 EQ PUSH3 0x8F JUMPI PUSH1 0x0 DUP1 REVERT JUMPDEST SWAP2 SWAP1 POP JUMP JUMPDEST DUP1 MLOAD PUSH1 0x1 PUSH1 0x1 PUSH1 0xA0 SHL SUB DUP2 AND DUP2 EQ PUSH3 0x8F JUMPI PUSH1 0x0 DUP1 REVERT JUMPDEST PUSH1 0x0 DUP1 PUSH1 0x0 DUP1 PUSH1 0x0 DUP1 PUSH1 0x0 PUSH1 0xE0 DUP9 DUP11 SUB SLT ISZERO PUSH3 0xC8 JUMPI PUSH1 0x0 DUP1 REVERT JUMPDEST PUSH3 0xD3 DUP9 PUSH3 0x7D JUMP JUMPDEST SWAP7 POP PUSH1 0x20 DUP9 ADD MLOAD SWAP6 POP PUSH3 0xEA PUSH1 0x40 DUP10 ADD PUSH3 0x7D JUMP JUMPDEST SWAP5 POP PUSH1 0x60 DUP9 ADD MLOAD SWAP4 POP PUSH1 0x80 DUP9 ADD MLOAD SWAP3 POP PUSH3 0x108 PUSH1 0xA0 DUP10 ADD PUSH3 0x94 JUMP JUMPDEST SWAP2 POP PUSH3 0x118 PUSH1 0xC0 DUP10 ADD PUSH3 0x94 JUMP JUMPDEST SWAP1 POP SWAP3 SWAP6 SWAP9 SWAP2 SWAP5 SWAP8 POP SWAP3 SWAP6 POP JUMP JUMPDEST PUSH1 0x80 MLOAD PUSH1 0xA0 MLOAD PUSH1 0xC0 MLOAD PUSH1 0xE0 MLOAD PUSH2 0x100 MLOAD PUSH2 0x120 MLOAD PUSH2 0x140 MLOAD PUSH2 0x1A19 PUSH3 0x1E3 PUSH1 0x0 CODECOPY PUSH1 0x0 DUP2 DUP2 PUSH2 0x2F8 ADD MSTORE PUSH2 0x62C ADD MSTORE PUSH1 0x0 DUP2 DUP2 PUSH2 0x283 ADD MSTORE PUSH2 0x57E ADD MSTORE PUSH1 0x0 DUP2 DUP2 PUSH2 0x442 ADD MSTORE PUSH2 0x5A9 ADD MSTORE PUSH1 0x0 DUP2 DUP2 PUSH2 0x20C ADD MSTORE DUP2 DUP2 PUSH2 0xB84 ADD MSTORE DUP2 DUP2 PUSH2 0xC6D ADD MSTORE PUSH2 0x1126 ADD MSTORE PUSH1 0x0 DUP2 DUP2 PUSH2 0x4C0 ADD MSTORE PUSH2 0x1343 ADD MSTORE PUSH1 0x0 DUP2 DUP2 PUSH2 0x486 ADD MSTORE DUP2 DUP2 PUSH2 0x519 ADD MSTORE DUP2 DUP2 PUSH2 0x12DF ADD MSTORE PUSH2 0x130A ADD MSTORE PUSH1 0x0 DUP2 DUP2 PUSH2 0x4E7 ADD MSTORE DUP2 DUP2 PUSH2 0xE7D ADD MSTORE DUP2 DUP2 PUSH2 0xFEE ADD MSTORE DUP2 DUP2 PUSH2 0x1086 ADD MSTORE PUSH2 0x1228 ADD MSTORE PUSH2 0x1A19 PUSH1 0x0 RETURN INVALID PUSH1 0x80 PUSH1 0x40 MSTORE CALLVALUE DUP1 ISZERO PUSH2 0x10 JUMPI PUSH1 0x0 DUP1 REVERT JUMPDEST POP PUSH1 0x4 CALLDATASIZE LT PUSH2 0x1CF JUMPI PUSH1 0x0 CALLDATALOAD PUSH1 0xE0 SHR DUP1 PUSH4 0x8DA5CB5B GT PUSH2 0x104 JUMPI DUP1 PUSH4 0xBA086501 GT PUSH2 0xA2 JUMPI DUP1 PUSH4 0xE11400BB GT PUSH2 0x71 JUMPI DUP1 PUSH4 0xE11400BB EQ PUSH2 0x481 JUMPI DUP1 PUSH4 0xEE3453ED EQ PUSH2 0x4A8 JUMPI DUP1 PUSH4 0xF6DEF7CF EQ PUSH2 0x4BB JUMPI DUP1 PUSH4 0xF7C618C1 EQ PUSH2 0x4E2 JUMPI PUSH1 0x0 DUP1 REVERT JUMPDEST DUP1 PUSH4 0xBA086501 EQ PUSH2 0x417 JUMPI DUP1 PUSH4 0xBB57852D EQ PUSH2 0x42A JUMPI DUP1 PUSH4 0xC75363B6 EQ PUSH2 0x43D JUMPI DUP1 PUSH4 0xCD671A58 EQ PUSH2 0x464 JUMPI PUSH1 0x0 DUP1 REVERT JUMPDEST DUP1 PUSH4 0xA218DE15 GT PUSH2 0xDE JUMPI DUP1 PUSH4 0xA218DE15 EQ PUSH2 0x39E JUMPI DUP1 PUSH4 0xA47BD496 EQ PUSH2 0x3F3 JUMPI DUP1 PUSH4 0xAFFED0E0 EQ PUSH2 0x406 JUMPI DUP1 PUSH4 0xB88A802F EQ PUSH2 0x40F JUMPI PUSH1 0x0 DUP1 REVERT JUMPDEST DUP1 PUSH4 0x8DA5CB5B EQ PUSH2 0x365 JUMPI DUP1 PUSH4 0x9342C8F4 EQ PUSH2 0x378 JUMPI DUP1 PUSH4 0x979DB1C4 EQ PUSH2 0x38B JUMPI PUSH1 0x0 DUP1 REVERT JUMPDEST DUP1 PUSH4 0x4FB2E45D GT PUSH2 0x171 JUMPI DUP1 PUSH4 0x5FCBD285 GT PUSH2 0x14B JUMPI DUP1 PUSH4 0x5FCBD285 EQ PUSH2 0x2F3 JUMPI DUP1 PUSH4 0x7B1391A6 EQ PUSH2 0x332 JUMPI DUP1 PUSH4 0x8431165E EQ PUSH2 0x347 JUMPI DUP1 PUSH4 0x8923DE2B EQ PUSH2 0x34F JUMPI PUSH1 0x0 DUP1 REVERT JUMPDEST DUP1 PUSH4 0x4FB2E45D EQ PUSH2 0x2AD JUMPI DUP1 PUSH4 0x5B680A45 EQ PUSH2 0x2C0 JUMPI DUP1 PUSH4 0x5F8E422F EQ PUSH2 0x2EB JUMPI PUSH1 0x0 DUP1 REVERT JUMPDEST DUP1 PUSH4 0x157775DF GT PUSH2 0x1AD JUMPI DUP1 PUSH4 0x157775DF EQ PUSH2 0x255 JUMPI DUP1 PUSH4 0x29ED1CFD EQ PUSH2 0x275 JUMPI DUP1 PUSH4 0x37BA682D EQ PUSH2 0x27E JUMPI DUP1 PUSH4 0x3CCFD60B EQ PUSH2 0x2A5 JUMPI PUSH1 0x0 DUP1 REVERT JUMPDEST DUP1 PUSH4 0xBCE1284 EQ PUSH2 0x1D4 JUMPI DUP1 PUSH4 0xD437D40 EQ PUSH2 0x207 JUMPI DUP1 PUSH4 0x10087FB1 EQ PUSH2 0x240 JUMPI JUMPDEST PUSH1 0x0 DUP1 REVERT JUMPDEST PUSH2 0x1F4 PUSH2 0x1E2 CALLDATASIZE PUSH1 0x4 PUSH2 0x15C7 JUMP JUMPDEST PUSH1 0x5 PUSH1 0x20 MSTORE PUSH1 0x0 SWAP1 DUP2 MSTORE PUSH1 0x40 SWAP1 KECCAK256 SLOAD DUP2 JUMP JUMPDEST PUSH1 0x40 MLOAD SWAP1 DUP2 MSTORE PUSH1 0x20 ADD JUMPDEST PUSH1 0x40 MLOAD DUP1 SWAP2 SUB SWAP1 RETURN JUMPDEST PUSH2 0x22E PUSH32 0x0 DUP2 JUMP JUMPDEST PUSH1 0x40 MLOAD PUSH1 0xFF SWAP1 SWAP2 AND DUP2 MSTORE PUSH1 0x20 ADD PUSH2 0x1FE JUMP JUMPDEST PUSH2 0x253 PUSH2 0x24E CALLDATASIZE PUSH1 0x4 PUSH2 0x15E0 JUMP JUMPDEST PUSH2 0x509 JUMP JUMPDEST STOP JUMPDEST PUSH2 0x1F4 PUSH2 0x263 CALLDATASIZE PUSH1 0x4 PUSH2 0x15C7 JUMP JUMPDEST PUSH1 0x4 PUSH1 0x20 MSTORE PUSH1 0x0 SWAP1 DUP2 MSTORE PUSH1 0x40 SWAP1 KECCAK256 SLOAD DUP2 JUMP JUMPDEST PUSH2 0x1F4 PUSH1 0x6 SLOAD DUP2 JUMP JUMPDEST PUSH2 0x1F4 PUSH32 0x0 DUP2 JUMP JUMPDEST PUSH2 0x1F4 PUSH2 0x857 JUMP JUMPDEST PUSH2 0x253 PUSH2 0x2BB CALLDATASIZE PUSH1 0x4 PUSH2 0x1632 JUMP JUMPDEST PUSH2 0x9A1 JUMP JUMPDEST PUSH2 0x1F4 PUSH2 0x2CE CALLDATASIZE PUSH1 0x4 PUSH2 0x164D JUMP JUMPDEST PUSH1 0x2 PUSH1 0x20 SWAP1 DUP2 MSTORE PUSH1 0x0 SWAP3 DUP4 MSTORE PUSH1 0x40 DUP1 DUP5 KECCAK256 SWAP1 SWAP2 MSTORE SWAP1 DUP3 MSTORE SWAP1 KECCAK256 SLOAD DUP2 JUMP JUMPDEST PUSH2 0x253 PUSH2 0x9ED JUMP JUMPDEST PUSH2 0x31A PUSH32 0x0 DUP2 JUMP JUMPDEST PUSH1 0x40 MLOAD PUSH1 0x1 PUSH1 0x1 PUSH1 0xA0 SHL SUB SWAP1 SWAP2 AND DUP2 MSTORE PUSH1 0x20 ADD PUSH2 0x1FE JUMP JUMPDEST PUSH2 0x33A PUSH2 0xA3E JUMP JUMPDEST PUSH1 0x40 MLOAD PUSH2 0x1FE SWAP2 SWAP1 PUSH2 0x1677 JUMP JUMPDEST PUSH2 0x1F4 PUSH2 0xB7D JUMP JUMPDEST PUSH2 0x357 PUSH2 0xC64 JUMP JUMPDEST PUSH1 0x40 MLOAD PUSH2 0x1FE SWAP3 SWAP2 SWAP1 PUSH2 0x16DB JUMP JUMPDEST PUSH1 0x0 SLOAD PUSH2 0x31A SWAP1 PUSH1 0x1 PUSH1 0x1 PUSH1 0xA0 SHL SUB AND DUP2 JUMP JUMPDEST PUSH2 0x253 PUSH2 0x386 CALLDATASIZE PUSH1 0x4 PUSH2 0x15C7 JUMP JUMPDEST PUSH2 0xE4E JUMP JUMPDEST PUSH2 0x1F4 PUSH2 0x399 CALLDATASIZE PUSH1 0x4 PUSH2 0x17DA JUMP JUMPDEST PUSH2 0xEA6 JUMP JUMPDEST PUSH2 0x3D3 PUSH2 0x3AC CALLDATASIZE PUSH1 0x4 PUSH2 0x15C7 JUMP JUMPDEST PUSH1 0x8 PUSH1 0x20 MSTORE PUSH1 0x0 SWAP1 DUP2 MSTORE PUSH1 0x40 SWAP1 KECCAK256 DUP1 SLOAD PUSH1 0x1 DUP3 ADD SLOAD PUSH1 0x2 DUP4 ADD SLOAD PUSH1 0x3 SWAP1 SWAP4 ADD SLOAD SWAP2 SWAP3 SWAP1 SWAP2 DUP5 JUMP JUMPDEST PUSH1 0x40 DUP1 MLOAD SWAP5 DUP6 MSTORE PUSH1 0x20 DUP6 ADD SWAP4 SWAP1 SWAP4 MSTORE SWAP2 DUP4 ADD MSTORE PUSH1 0x60 DUP3 ADD MSTORE PUSH1 0x80 ADD PUSH2 0x1FE JUMP JUMPDEST PUSH2 0x253 PUSH2 0x401 CALLDATASIZE PUSH1 0x4 PUSH2 0x183E JUMP JUMPDEST PUSH2 0x1057 JUMP JUMPDEST PUSH2 0x1F4 PUSH1 0x7 SLOAD DUP2 JUMP JUMPDEST PUSH2 0x253 PUSH2 0x1120 JUMP JUMPDEST PUSH2 0x1F4 PUSH2 0x425 CALLDATASIZE PUSH1 0x4 PUSH2 0x164D JUMP JUMPDEST PUSH2 0x1280 JUMP JUMPDEST PUSH2 0x1F4 PUSH2 0x438 CALLDATASIZE PUSH1 0x4 PUSH2 0x164D JUMP JUMPDEST PUSH2 0x12B1 JUMP JUMPDEST PUSH2 0x1F4 PUSH32 0x0 DUP2 JUMP JUMPDEST PUSH2 0x46D PUSH2 0x258 DUP2 JUMP JUMPDEST PUSH1 0x40 MLOAD PUSH3 0xFFFFFF SWAP1 SWAP2 AND DUP2 MSTORE PUSH1 0x20 ADD PUSH2 0x1FE JUMP JUMPDEST PUSH2 0x22E PUSH32 0x0 DUP2 JUMP JUMPDEST PUSH2 0x1F4 PUSH2 0x4B6 CALLDATASIZE PUSH1 0x4 PUSH2 0x15E0 JUMP JUMPDEST PUSH2 0x12D6 JUMP JUMPDEST PUSH2 0x1F4 PUSH32 0x0 DUP2 JUMP JUMPDEST PUSH2 0x31A PUSH32 0x0 DUP2 JUMP JUMPDEST PUSH1 0x0 DUP2 PUSH1 0xFF AND GT DUP1 ISZERO PUSH2 0x542 JUMPI POP PUSH32 0x0 PUSH1 0xFF AND DUP2 PUSH1 0xFF AND GT ISZERO JUMPDEST PUSH2 0x57C JUMPI PUSH1 0x40 MLOAD PUSH3 0x461BCD PUSH1 0xE5 SHL DUP2 MSTORE PUSH1 0x20 PUSH1 0x4 DUP3 ADD MSTORE PUSH1 0x6 PUSH1 0x24 DUP3 ADD MSTORE PUSH6 0x359018BF1A99 PUSH1 0xD1 SHL PUSH1 0x44 DUP3 ADD MSTORE PUSH1 0x64 ADD JUMPDEST PUSH1 0x40 MLOAD DUP1 SWAP2 SUB SWAP1 REVERT JUMPDEST PUSH32 0x0 TIMESTAMP GT ISZERO DUP1 ISZERO PUSH2 0x5CC JUMPI POP PUSH32 0x0 TIMESTAMP LT ISZERO JUMPDEST PUSH2 0x60C JUMPI PUSH1 0x40 MLOAD PUSH3 0x461BCD PUSH1 0xE5 SHL DUP2 MSTORE PUSH1 0x20 PUSH1 0x4 DUP3 ADD MSTORE PUSH1 0x11 PUSH1 0x24 DUP3 ADD MSTORE PUSH17 0x1B9BDD081A5B881D1A19481C195C9A5BD9 PUSH1 0x7A SHL PUSH1 0x44 DUP3 ADD MSTORE PUSH1 0x64 ADD PUSH2 0x573 JUMP JUMPDEST PUSH1 0x0 PUSH2 0x61A PUSH2 0x258 TIMESTAMP PUSH2 0x1876 JUMP JUMPDEST PUSH2 0x625 SWAP1 PUSH1 0x1 PUSH2 0x1898 JUMP JUMPDEST SWAP1 POP PUSH2 0x653 PUSH32 0x0 CALLER ADDRESS DUP7 PUSH2 0x13A0 JUMP JUMPDEST PUSH1 0x0 PUSH2 0x65F DUP5 DUP5 PUSH2 0x12D6 JUMP JUMPDEST SWAP1 POP PUSH1 0x0 JUMPDEST DUP4 PUSH1 0xFF AND DUP2 PUSH1 0xFF AND LT ISZERO PUSH2 0x6F9 JUMPI DUP2 PUSH1 0x4 PUSH1 0x0 PUSH2 0x684 PUSH1 0xFF DUP6 AND DUP8 PUSH2 0x1898 JUMP JUMPDEST DUP2 MSTORE PUSH1 0x20 ADD SWAP1 DUP2 MSTORE PUSH1 0x20 ADD PUSH1 0x0 KECCAK256 PUSH1 0x0 DUP3 DUP3 SLOAD PUSH2 0x6A1 SWAP2 SWAP1 PUSH2 0x1898 JUMP JUMPDEST SWAP1 SWAP2 SSTORE POP POP CALLER PUSH1 0x0 SWAP1 DUP2 MSTORE PUSH1 0x2 PUSH1 0x20 MSTORE PUSH1 0x40 DUP2 KECCAK256 DUP4 SWAP2 PUSH2 0x6C4 PUSH1 0xFF DUP6 AND DUP8 PUSH2 0x1898 JUMP JUMPDEST DUP2 MSTORE PUSH1 0x20 ADD SWAP1 DUP2 MSTORE PUSH1 0x20 ADD PUSH1 0x0 KECCAK256 PUSH1 0x0 DUP3 DUP3 SLOAD PUSH2 0x6E1 SWAP2 SWAP1 PUSH2 0x1898 JUMP JUMPDEST SWAP1 SWAP2 SSTORE POP DUP2 SWAP1 POP PUSH2 0x6F1 DUP2 PUSH2 0x18B1 JUMP JUMPDEST SWAP2 POP POP PUSH2 0x664 JUMP JUMPDEST POP PUSH1 0x40 MLOAD DUP1 PUSH1 0x80 ADD PUSH1 0x40 MSTORE DUP1 DUP6 DUP2 MSTORE PUSH1 0x20 ADD DUP3 DUP2 MSTORE PUSH1 0x20 ADD DUP4 DUP2 MSTORE PUSH1 0x20 ADD DUP5 PUSH1 0xFF AND DUP5 PUSH2 0x726 SWAP2 SWAP1 PUSH2 0x1898 JUMP JUMPDEST SWAP1 MSTORE PUSH1 0x7 SLOAD PUSH1 0x0 SWAP1 DUP2 MSTORE PUSH1 0x8 PUSH1 0x20 SWAP1 DUP2 MSTORE PUSH1 0x40 DUP1 DUP4 KECCAK256 DUP5 MLOAD DUP2 SSTORE DUP5 DUP4 ADD MLOAD PUSH1 0x1 DUP1 DUP4 ADD SWAP2 SWAP1 SWAP2 SSTORE DUP6 DUP4 ADD MLOAD PUSH1 0x2 DUP4 ADD SSTORE PUSH1 0x60 SWAP1 SWAP6 ADD MLOAD PUSH1 0x3 SWAP2 DUP3 ADD SSTORE CALLER DUP5 MSTORE SWAP1 SWAP2 MSTORE SWAP1 KECCAK256 SWAP1 DUP2 ADD SLOAD SWAP1 SLOAD SUB PUSH2 0x788 JUMPI CALLER PUSH1 0x0 SWAP1 DUP2 MSTORE PUSH1 0x3 PUSH1 0x20 MSTORE PUSH1 0x40 SWAP1 KECCAK256 DUP3 SWAP1 SSTORE JUMPDEST PUSH2 0x795 PUSH1 0xFF DUP5 AND DUP4 PUSH2 0x1898 JUMP JUMPDEST CALLER PUSH1 0x0 SWAP1 DUP2 MSTORE PUSH1 0x3 PUSH1 0x20 MSTORE PUSH1 0x40 SWAP1 KECCAK256 PUSH1 0x1 ADD SLOAD LT ISZERO PUSH2 0x7CF JUMPI PUSH2 0x7BB PUSH1 0xFF DUP5 AND DUP4 PUSH2 0x1898 JUMP JUMPDEST CALLER PUSH1 0x0 SWAP1 DUP2 MSTORE PUSH1 0x3 PUSH1 0x20 MSTORE PUSH1 0x40 SWAP1 KECCAK256 PUSH1 0x1 ADD SSTORE JUMPDEST CALLER PUSH1 0x0 DUP2 DUP2 MSTORE PUSH1 0x9 PUSH1 0x20 SWAP1 DUP2 MSTORE PUSH1 0x40 DUP1 DUP4 KECCAK256 PUSH1 0x7 DUP1 SLOAD DUP3 SLOAD PUSH1 0x1 DUP2 ADD DUP5 SSTORE SWAP3 DUP7 MSTORE SWAP5 DUP5 SWAP1 KECCAK256 SWAP1 SWAP2 ADD SWAP4 SWAP1 SWAP4 SSTORE SWAP2 SLOAD DUP3 MLOAD SWAP1 DUP2 MSTORE SWAP1 DUP2 ADD DUP8 SWAP1 MSTORE PUSH1 0xFF DUP7 AND DUP2 DUP4 ADD MSTORE SWAP1 MLOAD PUSH32 0x6FA2F6021EE337436CDF2B2570285886DA18BC06402CE284D296504A0FE8F875 SWAP2 DUP2 SWAP1 SUB PUSH1 0x60 ADD SWAP1 LOG2 PUSH1 0x7 DUP1 SLOAD SWAP1 PUSH1 0x0 PUSH2 0x84C DUP4 PUSH2 0x18E6 JUMP JUMPDEST SWAP2 SWAP1 POP SSTORE POP POP POP POP POP JUMP JUMPDEST PUSH1 0x0 DUP1 PUSH2 0x866 PUSH2 0x258 TIMESTAMP PUSH2 0x1876 JUMP JUMPDEST CALLER PUSH1 0x0 SWAP1 DUP2 MSTORE PUSH1 0x9 PUSH1 0x20 MSTORE PUSH1 0x40 DUP2 KECCAK256 SLOAD SWAP2 SWAP3 POP SWAP1 PUSH2 0x886 SWAP1 PUSH1 0x1 SWAP1 PUSH2 0x18FF JUMP JUMPDEST SWAP1 POP JUMPDEST CALLER PUSH1 0x0 SWAP1 DUP2 MSTORE PUSH1 0x9 PUSH1 0x20 MSTORE PUSH1 0x40 DUP2 KECCAK256 DUP1 SLOAD DUP4 SWAP1 DUP2 LT PUSH2 0x8AA JUMPI PUSH2 0x8AA PUSH2 0x18D0 JUMP JUMPDEST SWAP1 PUSH1 0x0 MSTORE PUSH1 0x20 PUSH1 0x0 KECCAK256 ADD SLOAD SWAP1 POP DUP3 PUSH1 0x8 PUSH1 0x0 DUP4 DUP2 MSTORE PUSH1 0x20 ADD SWAP1 DUP2 MSTORE PUSH1 0x20 ADD PUSH1 0x0 KECCAK256 PUSH1 0x3 ADD SLOAD GT PUSH2 0x98E JUMPI PUSH1 0x0 DUP2 DUP2 MSTORE PUSH1 0x8 PUSH1 0x20 MSTORE PUSH1 0x40 SWAP1 KECCAK256 SLOAD PUSH2 0x8ED SWAP1 DUP6 PUSH2 0x1898 JUMP JUMPDEST CALLER PUSH1 0x0 SWAP1 DUP2 MSTORE PUSH1 0x9 PUSH1 0x20 MSTORE PUSH1 0x40 SWAP1 KECCAK256 DUP1 SLOAD SWAP2 SWAP6 POP SWAP1 PUSH2 0x90E SWAP1 PUSH1 0x1 SWAP1 PUSH2 0x18FF JUMP JUMPDEST DUP2 SLOAD DUP2 LT PUSH2 0x91E JUMPI PUSH2 0x91E PUSH2 0x18D0 JUMP JUMPDEST PUSH1 0x0 SWAP2 DUP3 MSTORE PUSH1 0x20 DUP1 DUP4 KECCAK256 SWAP1 SWAP2 ADD SLOAD CALLER DUP4 MSTORE PUSH1 0x9 SWAP1 SWAP2 MSTORE PUSH1 0x40 SWAP1 SWAP2 KECCAK256 DUP1 SLOAD DUP5 SWAP1 DUP2 LT PUSH2 0x94B JUMPI PUSH2 0x94B PUSH2 0x18D0 JUMP JUMPDEST PUSH1 0x0 SWAP2 DUP3 MSTORE PUSH1 0x20 DUP1 DUP4 KECCAK256 SWAP1 SWAP2 ADD SWAP3 SWAP1 SWAP3 SSTORE CALLER DUP2 MSTORE PUSH1 0x9 SWAP1 SWAP2 MSTORE PUSH1 0x40 SWAP1 KECCAK256 DUP1 SLOAD DUP1 PUSH2 0x977 JUMPI PUSH2 0x977 PUSH2 0x1912 JUMP JUMPDEST PUSH1 0x1 SWAP1 SUB DUP2 DUP2 SWAP1 PUSH1 0x0 MSTORE PUSH1 0x20 PUSH1 0x0 KECCAK256 ADD PUSH1 0x0 SWAP1 SSTORE SWAP1 SSTORE JUMPDEST POP DUP1 PUSH2 0x999 DUP2 PUSH2 0x1928 JUMP JUMPDEST SWAP2 POP POP PUSH2 0x889 JUMP JUMPDEST PUSH1 0x0 SLOAD PUSH1 0x1 PUSH1 0x1 PUSH1 0xA0 SHL SUB AND CALLER EQ PUSH2 0x9CB JUMPI PUSH1 0x40 MLOAD PUSH3 0x461BCD PUSH1 0xE5 SHL DUP2 MSTORE PUSH1 0x4 ADD PUSH2 0x573 SWAP1 PUSH2 0x193F JUMP JUMPDEST PUSH1 0x1 DUP1 SLOAD PUSH1 0x1 PUSH1 0x1 PUSH1 0xA0 SHL SUB NOT AND PUSH1 0x1 PUSH1 0x1 PUSH1 0xA0 SHL SUB SWAP3 SWAP1 SWAP3 AND SWAP2 SWAP1 SWAP2 OR SWAP1 SSTORE JUMP JUMPDEST PUSH1 0x1 SLOAD PUSH1 0x1 PUSH1 0x1 PUSH1 0xA0 SHL SUB AND CALLER EQ PUSH2 0xA17 JUMPI PUSH1 0x40 MLOAD PUSH3 0x461BCD PUSH1 0xE5 SHL DUP2 MSTORE PUSH1 0x4 ADD PUSH2 0x573 SWAP1 PUSH2 0x193F JUMP JUMPDEST PUSH1 0x1 DUP1 SLOAD PUSH1 0x0 DUP1 SLOAD PUSH1 0x1 PUSH1 0x1 PUSH1 0xA0 SHL SUB NOT SWAP1 DUP2 AND PUSH1 0x1 PUSH1 0x1 PUSH1 0xA0 SHL SUB DUP5 AND OR SWAP1 SWAP2 SSTORE AND SWAP1 SSTORE JUMP JUMPDEST CALLER PUSH1 0x0 SWAP1 DUP2 MSTORE PUSH1 0x9 PUSH1 0x20 MSTORE PUSH1 0x40 DUP2 KECCAK256 SLOAD PUSH1 0x60 SWAP2 DUP2 PUSH8 0xFFFFFFFFFFFFFFFF DUP2 GT ISZERO PUSH2 0xA6A JUMPI PUSH2 0xA6A PUSH2 0x1729 JUMP JUMPDEST PUSH1 0x40 MLOAD SWAP1 DUP1 DUP3 MSTORE DUP1 PUSH1 0x20 MUL PUSH1 0x20 ADD DUP3 ADD PUSH1 0x40 MSTORE DUP1 ISZERO PUSH2 0xAC6 JUMPI DUP2 PUSH1 0x20 ADD JUMPDEST PUSH2 0xAB3 PUSH1 0x40 MLOAD DUP1 PUSH1 0x80 ADD PUSH1 0x40 MSTORE DUP1 PUSH1 0x0 DUP2 MSTORE PUSH1 0x20 ADD PUSH1 0x0 DUP2 MSTORE PUSH1 0x20 ADD PUSH1 0x0 DUP2 MSTORE PUSH1 0x20 ADD PUSH1 0x0 DUP2 MSTORE POP SWAP1 JUMP JUMPDEST DUP2 MSTORE PUSH1 0x20 ADD SWAP1 PUSH1 0x1 SWAP1 SUB SWAP1 DUP2 PUSH2 0xA88 JUMPI SWAP1 POP JUMPDEST POP SWAP1 POP PUSH1 0x0 JUMPDEST DUP3 DUP2 LT ISZERO PUSH2 0xB76 JUMPI CALLER PUSH1 0x0 SWAP1 DUP2 MSTORE PUSH1 0x9 PUSH1 0x20 MSTORE PUSH1 0x40 DUP2 KECCAK256 DUP1 SLOAD PUSH1 0x8 SWAP3 SWAP2 SWAP1 DUP5 SWAP1 DUP2 LT PUSH2 0xAFA JUMPI PUSH2 0xAFA PUSH2 0x18D0 JUMP JUMPDEST SWAP1 PUSH1 0x0 MSTORE PUSH1 0x20 PUSH1 0x0 KECCAK256 ADD SLOAD DUP2 MSTORE PUSH1 0x20 ADD SWAP1 DUP2 MSTORE PUSH1 0x20 ADD PUSH1 0x0 KECCAK256 PUSH1 0x40 MLOAD DUP1 PUSH1 0x80 ADD PUSH1 0x40 MSTORE SWAP1 DUP2 PUSH1 0x0 DUP3 ADD SLOAD DUP2 MSTORE PUSH1 0x20 ADD PUSH1 0x1 DUP3 ADD SLOAD DUP2 MSTORE PUSH1 0x20 ADD PUSH1 0x2 DUP3 ADD SLOAD DUP2 MSTORE PUSH1 0x20 ADD PUSH1 0x3 DUP3 ADD SLOAD DUP2 MSTORE POP POP DUP3 DUP3 DUP2 MLOAD DUP2 LT PUSH2 0xB58 JUMPI PUSH2 0xB58 PUSH2 0x18D0 JUMP JUMPDEST PUSH1 0x20 MUL PUSH1 0x20 ADD ADD DUP2 SWAP1 MSTORE POP DUP1 DUP1 PUSH2 0xB6E SWAP1 PUSH2 0x18E6 JUMP JUMPDEST SWAP2 POP POP PUSH2 0xACC JUMP JUMPDEST POP SWAP3 SWAP2 POP POP JUMP JUMPDEST PUSH1 0x0 DUP1 PUSH1 0xFF PUSH32 0x0 AND PUSH2 0xBB0 PUSH2 0x258 TIMESTAMP PUSH2 0x1876 JUMP JUMPDEST PUSH2 0xBBA SWAP2 SWAP1 PUSH2 0x18FF JUMP JUMPDEST CALLER PUSH1 0x0 SWAP1 DUP2 MSTORE PUSH1 0x3 PUSH1 0x20 MSTORE PUSH1 0x40 DUP2 KECCAK256 SLOAD SWAP2 SWAP3 POP SWAP1 JUMPDEST CALLER PUSH1 0x0 SWAP1 DUP2 MSTORE PUSH1 0x3 PUSH1 0x20 MSTORE PUSH1 0x40 SWAP1 KECCAK256 PUSH1 0x1 ADD SLOAD DUP2 LT ISZERO PUSH2 0xB76 JUMPI DUP3 DUP2 GT PUSH2 0xB76 JUMPI PUSH1 0x0 DUP2 DUP2 MSTORE PUSH1 0x4 PUSH1 0x20 MSTORE PUSH1 0x40 SWAP1 KECCAK256 SLOAD ISZERO PUSH2 0xC52 JUMPI PUSH1 0x0 DUP2 DUP2 MSTORE PUSH1 0x4 PUSH1 0x20 SWAP1 DUP2 MSTORE PUSH1 0x40 DUP1 DUP4 KECCAK256 SLOAD CALLER DUP5 MSTORE PUSH1 0x2 DUP4 MSTORE DUP2 DUP5 KECCAK256 DUP6 DUP6 MSTORE DUP4 MSTORE DUP2 DUP5 KECCAK256 SLOAD PUSH1 0x5 SWAP1 SWAP4 MSTORE SWAP3 KECCAK256 SLOAD PUSH2 0xC3B SWAP2 SWAP1 PUSH2 0x1962 JUMP JUMPDEST PUSH2 0xC45 SWAP2 SWAP1 PUSH2 0x1876 JUMP JUMPDEST PUSH2 0xC4F SWAP1 DUP4 PUSH2 0x1898 JUMP JUMPDEST SWAP2 POP JUMPDEST DUP1 PUSH2 0xC5C DUP2 PUSH2 0x18E6 JUMP JUMPDEST SWAP2 POP POP PUSH2 0xBCF JUMP JUMPDEST PUSH1 0x0 PUSH1 0x60 DUP2 PUSH1 0xFF PUSH32 0x0 AND PUSH2 0xC99 PUSH2 0x258 TIMESTAMP PUSH2 0x1876 JUMP JUMPDEST PUSH2 0xCA3 SWAP2 SWAP1 PUSH2 0x18FF JUMP JUMPDEST PUSH2 0xCAE SWAP1 PUSH1 0x1 PUSH2 0x1898 JUMP JUMPDEST CALLER PUSH1 0x0 SWAP1 DUP2 MSTORE PUSH1 0x3 PUSH1 0x20 MSTORE PUSH1 0x40 SWAP1 KECCAK256 SWAP1 SWAP2 POP DUP2 SWAP1 PUSH1 0x1 ADD SLOAD GT PUSH2 0xCE3 JUMPI PUSH1 0x40 DUP1 MLOAD PUSH1 0x0 DUP2 MSTORE PUSH1 0x20 DUP2 ADD SWAP1 SWAP2 MSTORE SWAP1 SWAP4 SWAP1 SWAP3 POP SWAP1 POP JUMP JUMPDEST CALLER PUSH1 0x0 SWAP1 DUP2 MSTORE PUSH1 0x3 PUSH1 0x20 MSTORE PUSH1 0x40 DUP2 KECCAK256 PUSH1 0x1 ADD SLOAD PUSH2 0xD01 SWAP1 DUP4 SWAP1 PUSH2 0x18FF JUMP JUMPDEST CALLER PUSH1 0x0 SWAP1 DUP2 MSTORE PUSH1 0x3 PUSH1 0x20 MSTORE PUSH1 0x40 SWAP1 KECCAK256 SLOAD SWAP1 SWAP2 POP DUP2 GT PUSH2 0xD2F JUMPI CALLER PUSH1 0x0 SWAP1 DUP2 MSTORE PUSH1 0x3 PUSH1 0x20 MSTORE PUSH1 0x40 SWAP1 KECCAK256 SLOAD PUSH2 0xD31 JUMP JUMPDEST DUP1 JUMPDEST CALLER PUSH1 0x0 SWAP1 DUP2 MSTORE PUSH1 0x3 PUSH1 0x20 MSTORE PUSH1 0x40 DUP2 KECCAK256 PUSH1 0x1 ADD SLOAD SWAP2 SWAP3 POP SWAP1 PUSH2 0xD53 SWAP1 DUP4 SWAP1 PUSH2 0x18FF JUMP JUMPDEST PUSH8 0xFFFFFFFFFFFFFFFF DUP2 GT ISZERO PUSH2 0xD6B JUMPI PUSH2 0xD6B PUSH2 0x1729 JUMP JUMPDEST PUSH1 0x40 MLOAD SWAP1 DUP1 DUP3 MSTORE DUP1 PUSH1 0x20 MUL PUSH1 0x20 ADD DUP3 ADD PUSH1 0x40 MSTORE DUP1 ISZERO PUSH2 0xD94 JUMPI DUP2 PUSH1 0x20 ADD PUSH1 0x20 DUP3 MUL DUP1 CALLDATASIZE DUP4 CALLDATACOPY ADD SWAP1 POP JUMPDEST POP SWAP1 POP DUP2 JUMPDEST CALLER PUSH1 0x0 SWAP1 DUP2 MSTORE PUSH1 0x3 PUSH1 0x20 MSTORE PUSH1 0x40 SWAP1 KECCAK256 PUSH1 0x1 ADD SLOAD DUP2 LT ISZERO PUSH2 0xE42 JUMPI PUSH1 0x0 DUP2 DUP2 MSTORE PUSH1 0x4 PUSH1 0x20 MSTORE PUSH1 0x40 SWAP1 KECCAK256 SLOAD ISZERO PUSH2 0xE30 JUMPI PUSH1 0x0 DUP2 DUP2 MSTORE PUSH1 0x4 PUSH1 0x20 SWAP1 DUP2 MSTORE PUSH1 0x40 DUP1 DUP4 KECCAK256 SLOAD CALLER DUP5 MSTORE PUSH1 0x2 DUP4 MSTORE DUP2 DUP5 KECCAK256 DUP6 DUP6 MSTORE DUP4 MSTORE DUP2 DUP5 KECCAK256 SLOAD PUSH1 0x5 SWAP1 SWAP4 MSTORE SWAP3 KECCAK256 SLOAD PUSH2 0xDFE SWAP2 SWAP1 PUSH2 0x1962 JUMP JUMPDEST PUSH2 0xE08 SWAP2 SWAP1 PUSH2 0x1876 JUMP JUMPDEST DUP3 PUSH2 0xE13 DUP7 DUP5 PUSH2 0x18FF JUMP JUMPDEST DUP2 MLOAD DUP2 LT PUSH2 0xE23 JUMPI PUSH2 0xE23 PUSH2 0x18D0 JUMP JUMPDEST PUSH1 0x20 MUL PUSH1 0x20 ADD ADD DUP2 DUP2 MSTORE POP POP JUMPDEST DUP1 PUSH2 0xE3A DUP2 PUSH2 0x18E6 JUMP JUMPDEST SWAP2 POP POP PUSH2 0xD99 JUMP JUMPDEST POP SWAP2 SWAP5 SWAP2 SWAP4 POP SWAP1 SWAP2 POP POP JUMP JUMPDEST PUSH1 0x0 SLOAD PUSH1 0x1 PUSH1 0x1 PUSH1 0xA0 SHL SUB AND CALLER EQ PUSH2 0xE78 JUMPI PUSH1 0x40 MLOAD PUSH3 0x461BCD PUSH1 0xE5 SHL DUP2 MSTORE PUSH1 0x4 ADD PUSH2 0x573 SWAP1 PUSH2 0x193F JUMP JUMPDEST PUSH2 0xEA3 PUSH32 0x0 CALLER DUP4 PUSH2 0x14BA JUMP JUMPDEST POP JUMP JUMPDEST PUSH1 0x0 DUP1 SLOAD PUSH1 0x1 PUSH1 0x1 PUSH1 0xA0 SHL SUB AND CALLER EQ PUSH2 0xED1 JUMPI PUSH1 0x40 MLOAD PUSH3 0x461BCD PUSH1 0xE5 SHL DUP2 MSTORE PUSH1 0x4 ADD PUSH2 0x573 SWAP1 PUSH2 0x193F JUMP JUMPDEST DUP2 MLOAD DUP4 MLOAD EQ PUSH2 0xF15 JUMPI PUSH1 0x40 MLOAD PUSH3 0x461BCD PUSH1 0xE5 SHL DUP2 MSTORE PUSH1 0x20 PUSH1 0x4 DUP3 ADD MSTORE PUSH1 0x10 PUSH1 0x24 DUP3 ADD MSTORE PUSH16 0x3830B930B6B2BA32B9399032B93937B9 PUSH1 0x81 SHL PUSH1 0x44 DUP3 ADD MSTORE PUSH1 0x64 ADD PUSH2 0x573 JUMP JUMPDEST PUSH1 0x0 JUMPDEST DUP4 MLOAD DUP2 LT ISZERO PUSH2 0xFE8 JUMPI DUP3 DUP2 DUP2 MLOAD DUP2 LT PUSH2 0xF33 JUMPI PUSH2 0xF33 PUSH2 0x18D0 JUMP JUMPDEST PUSH1 0x20 MUL PUSH1 0x20 ADD ADD MLOAD DUP3 PUSH2 0xF46 SWAP2 SWAP1 PUSH2 0x1898 JUMP JUMPDEST SWAP2 POP DUP3 DUP2 DUP2 MLOAD DUP2 LT PUSH2 0xF5A JUMPI PUSH2 0xF5A PUSH2 0x18D0 JUMP JUMPDEST PUSH1 0x20 MUL PUSH1 0x20 ADD ADD MLOAD PUSH1 0x5 PUSH1 0x0 DUP7 DUP5 DUP2 MLOAD DUP2 LT PUSH2 0xF78 JUMPI PUSH2 0xF78 PUSH2 0x18D0 JUMP JUMPDEST PUSH1 0x20 MUL PUSH1 0x20 ADD ADD MLOAD DUP2 MSTORE PUSH1 0x20 ADD SWAP1 DUP2 MSTORE PUSH1 0x20 ADD PUSH1 0x0 KECCAK256 DUP2 SWAP1 SSTORE POP PUSH1 0x6 SLOAD DUP5 DUP3 DUP2 MLOAD DUP2 LT PUSH2 0xFA7 JUMPI PUSH2 0xFA7 PUSH2 0x18D0 JUMP JUMPDEST PUSH1 0x20 MUL PUSH1 0x20 ADD ADD MLOAD GT ISZERO PUSH2 0xFD6 JUMPI DUP4 DUP2 DUP2 MLOAD DUP2 LT PUSH2 0xFC7 JUMPI PUSH2 0xFC7 PUSH2 0x18D0 JUMP JUMPDEST PUSH1 0x20 MUL PUSH1 0x20 ADD ADD MLOAD PUSH1 0x6 DUP2 SWAP1 SSTORE POP JUMPDEST DUP1 PUSH2 0xFE0 DUP2 PUSH2 0x18E6 JUMP JUMPDEST SWAP2 POP POP PUSH2 0xF18 JUMP JUMPDEST POP PUSH2 0x1015 PUSH32 0x0 CALLER ADDRESS DUP5 PUSH2 0x13A0 JUMP JUMPDEST PUSH1 0x40 DUP1 MLOAD PUSH1 0x0 DUP2 MSTORE PUSH1 0x20 DUP2 ADD DUP4 SWAP1 MSTORE CALLER SWAP2 PUSH32 0xC3991418CACD70A010FCE559A44FCBB47534CA43BF7543964BDCA2639F6E6E5A SWAP2 ADD PUSH1 0x40 MLOAD DUP1 SWAP2 SUB SWAP1 LOG2 SWAP3 SWAP2 POP POP JUMP JUMPDEST PUSH1 0x0 SLOAD PUSH1 0x1 PUSH1 0x1 PUSH1 0xA0 SHL SUB AND CALLER EQ PUSH2 0x1081 JUMPI PUSH1 0x40 MLOAD PUSH3 0x461BCD PUSH1 0xE5 SHL DUP2 MSTORE PUSH1 0x4 ADD PUSH2 0x573 SWAP1 PUSH2 0x193F JUMP JUMPDEST PUSH2 0x10AD PUSH32 0x0 CALLER ADDRESS DUP5 PUSH2 0x13A0 JUMP JUMPDEST PUSH1 0x0 DUP3 DUP2 MSTORE PUSH1 0x5 PUSH1 0x20 MSTORE PUSH1 0x40 DUP2 KECCAK256 DUP1 SLOAD DUP4 SWAP3 SWAP1 PUSH2 0x10CB SWAP1 DUP5 SWAP1 PUSH2 0x1898 JUMP JUMPDEST SWAP1 SWAP2 SSTORE POP POP PUSH1 0x6 SLOAD DUP3 GT ISZERO PUSH2 0x10E0 JUMPI PUSH1 0x6 DUP3 SWAP1 SSTORE JUMPDEST PUSH1 0x40 DUP1 MLOAD DUP4 DUP2 MSTORE PUSH1 0x20 DUP2 ADD DUP4 SWAP1 MSTORE CALLER SWAP2 PUSH32 0xC3991418CACD70A010FCE559A44FCBB47534CA43BF7543964BDCA2639F6E6E5A SWAP2 ADD JUMPDEST PUSH1 0x40 MLOAD DUP1 SWAP2 SUB SWAP1 LOG2 POP POP JUMP JUMPDEST PUSH1 0x0 PUSH1 0xFF PUSH32 0x0 AND PUSH2 0x1152 PUSH2 0x258 TIMESTAMP PUSH2 0x1876 JUMP JUMPDEST PUSH2 0x115C SWAP2 SWAP1 PUSH2 0x18FF JUMP JUMPDEST CALLER PUSH1 0x0 SWAP1 DUP2 MSTORE PUSH1 0x3 PUSH1 0x20 MSTORE PUSH1 0x40 DUP2 KECCAK256 SLOAD SWAP2 SWAP3 POP SWAP1 JUMPDEST CALLER PUSH1 0x0 SWAP1 DUP2 MSTORE PUSH1 0x3 PUSH1 0x20 MSTORE PUSH1 0x40 SWAP1 KECCAK256 PUSH1 0x1 ADD SLOAD DUP2 LT ISZERO PUSH2 0x1222 JUMPI DUP3 DUP2 GT PUSH2 0x1222 JUMPI PUSH1 0x0 DUP2 DUP2 MSTORE PUSH1 0x4 PUSH1 0x20 MSTORE PUSH1 0x40 SWAP1 KECCAK256 SLOAD ISZERO PUSH2 0x1210 JUMPI PUSH2 0x11B1 DUP2 PUSH1 0x1 PUSH2 0x1898 JUMP JUMPDEST CALLER PUSH1 0x0 SWAP1 DUP2 MSTORE PUSH1 0x3 PUSH1 0x20 MSTORE PUSH1 0x40 DUP2 KECCAK256 ADD SSTORE PUSH1 0x0 DUP2 DUP2 MSTORE PUSH1 0x4 PUSH1 0x20 SWAP1 DUP2 MSTORE PUSH1 0x40 DUP1 DUP4 KECCAK256 SLOAD CALLER DUP5 MSTORE PUSH1 0x2 DUP4 MSTORE DUP2 DUP5 KECCAK256 DUP6 DUP6 MSTORE DUP4 MSTORE DUP2 DUP5 KECCAK256 SLOAD PUSH1 0x5 SWAP1 SWAP4 MSTORE SWAP3 KECCAK256 SLOAD PUSH2 0x11F9 SWAP2 SWAP1 PUSH2 0x1962 JUMP JUMPDEST PUSH2 0x1203 SWAP2 SWAP1 PUSH2 0x1876 JUMP JUMPDEST PUSH2 0x120D SWAP1 DUP4 PUSH2 0x1898 JUMP JUMPDEST SWAP2 POP JUMPDEST DUP1 PUSH2 0x121A DUP2 PUSH2 0x18E6 JUMP JUMPDEST SWAP2 POP POP PUSH2 0x1171 JUMP JUMPDEST POP PUSH2 0x124E PUSH32 0x0 CALLER DUP4 PUSH2 0x14BA JUMP JUMPDEST PUSH1 0x40 MLOAD DUP2 DUP2 MSTORE CALLER SWAP1 PUSH32 0xBA8DE60C3403EC381D1D484652EA1980E3C3E56359195C92525BFF4CE47AD98E SWAP1 PUSH1 0x20 ADD PUSH2 0x1114 JUMP JUMPDEST PUSH1 0x9 PUSH1 0x20 MSTORE DUP2 PUSH1 0x0 MSTORE PUSH1 0x40 PUSH1 0x0 KECCAK256 DUP2 DUP2 SLOAD DUP2 LT PUSH2 0x129C JUMPI PUSH1 0x0 DUP1 REVERT JUMPDEST SWAP1 PUSH1 0x0 MSTORE PUSH1 0x20 PUSH1 0x0 KECCAK256 ADD PUSH1 0x0 SWAP2 POP SWAP2 POP POP SLOAD DUP2 JUMP JUMPDEST PUSH1 0x3 PUSH1 0x20 MSTORE DUP2 PUSH1 0x0 MSTORE PUSH1 0x40 PUSH1 0x0 KECCAK256 DUP2 PUSH1 0x2 DUP2 LT PUSH2 0x12CD JUMPI PUSH1 0x0 DUP1 REVERT JUMPDEST ADD SLOAD SWAP2 POP DUP3 SWAP1 POP JUMP JUMPDEST PUSH1 0x0 PUSH2 0x1303 PUSH1 0x1 PUSH32 0x0 PUSH2 0x1979 JUMP JUMPDEST PUSH1 0xFF AND PUSH1 0x1 PUSH32 0x0 PUSH1 0xFF AND PUSH1 0x1 DUP6 PUSH2 0x1339 SWAP2 SWAP1 PUSH2 0x1979 JUMP JUMPDEST PUSH1 0xFF AND PUSH2 0x1367 PUSH1 0x1 PUSH32 0x0 PUSH2 0x18FF JUMP JUMPDEST PUSH2 0x1371 SWAP2 SWAP1 PUSH2 0x1962 JUMP JUMPDEST PUSH2 0x137B SWAP2 SWAP1 PUSH2 0x1898 JUMP JUMPDEST PUSH2 0x1385 SWAP2 SWAP1 PUSH2 0x18FF JUMP JUMPDEST PUSH2 0x138F SWAP1 DUP6 PUSH2 0x1962 JUMP JUMPDEST PUSH2 0x1399 SWAP2 SWAP1 PUSH2 0x1876 JUMP JUMPDEST SWAP4 SWAP3 POP POP POP JUMP JUMPDEST PUSH1 0x40 DUP1 MLOAD PUSH1 0x1 PUSH1 0x1 PUSH1 0xA0 SHL SUB DUP6 DUP2 AND PUSH1 0x24 DUP4 ADD MSTORE DUP5 DUP2 AND PUSH1 0x44 DUP4 ADD MSTORE PUSH1 0x64 DUP1 DUP4 ADD DUP6 SWAP1 MSTORE DUP4 MLOAD DUP1 DUP5 SUB SWAP1 SWAP2 ADD DUP2 MSTORE PUSH1 0x84 SWAP1 SWAP3 ADD DUP4 MSTORE PUSH1 0x20 DUP3 ADD DUP1 MLOAD PUSH1 0x1 PUSH1 0x1 PUSH1 0xE0 SHL SUB AND PUSH4 0x23B872DD PUSH1 0xE0 SHL OR SWAP1 MSTORE SWAP2 MLOAD PUSH1 0x0 SWAP3 DUP4 SWAP3 SWAP1 DUP9 AND SWAP2 PUSH2 0x1404 SWAP2 SWAP1 PUSH2 0x1992 JUMP JUMPDEST PUSH1 0x0 PUSH1 0x40 MLOAD DUP1 DUP4 SUB DUP2 PUSH1 0x0 DUP7 GAS CALL SWAP2 POP POP RETURNDATASIZE DUP1 PUSH1 0x0 DUP2 EQ PUSH2 0x1441 JUMPI PUSH1 0x40 MLOAD SWAP2 POP PUSH1 0x1F NOT PUSH1 0x3F RETURNDATASIZE ADD AND DUP3 ADD PUSH1 0x40 MSTORE RETURNDATASIZE DUP3 MSTORE RETURNDATASIZE PUSH1 0x0 PUSH1 0x20 DUP5 ADD RETURNDATACOPY PUSH2 0x1446 JUMP JUMPDEST PUSH1 0x60 SWAP2 POP JUMPDEST POP SWAP2 POP SWAP2 POP DUP2 DUP1 ISZERO PUSH2 0x1470 JUMPI POP DUP1 MLOAD ISZERO DUP1 PUSH2 0x1470 JUMPI POP DUP1 DUP1 PUSH1 0x20 ADD SWAP1 MLOAD DUP2 ADD SWAP1 PUSH2 0x1470 SWAP2 SWAP1 PUSH2 0x19C1 JUMP JUMPDEST PUSH2 0x14B2 JUMPI PUSH1 0x40 MLOAD PUSH3 0x461BCD PUSH1 0xE5 SHL DUP2 MSTORE PUSH1 0x20 PUSH1 0x4 DUP3 ADD MSTORE PUSH1 0x13 PUSH1 0x24 DUP3 ADD MSTORE PUSH19 0x1D1C985B9CD9995C919C9BDB4819985A5B1959 PUSH1 0x6A SHL PUSH1 0x44 DUP3 ADD MSTORE PUSH1 0x64 ADD PUSH2 0x573 JUMP JUMPDEST POP POP POP POP POP POP JUMP JUMPDEST PUSH1 0x40 DUP1 MLOAD PUSH1 0x1 PUSH1 0x1 PUSH1 0xA0 SHL SUB DUP5 DUP2 AND PUSH1 0x24 DUP4 ADD MSTORE PUSH1 0x44 DUP1 DUP4 ADD DUP6 SWAP1 MSTORE DUP4 MLOAD DUP1 DUP5 SUB SWAP1 SWAP2 ADD DUP2 MSTORE PUSH1 0x64 SWAP1 SWAP3 ADD DUP4 MSTORE PUSH1 0x20 DUP3 ADD DUP1 MLOAD PUSH1 0x1 PUSH1 0x1 PUSH1 0xE0 SHL SUB AND PUSH4 0xA9059CBB PUSH1 0xE0 SHL OR SWAP1 MSTORE SWAP2 MLOAD PUSH1 0x0 SWAP3 DUP4 SWAP3 SWAP1 DUP8 AND SWAP2 PUSH2 0x1516 SWAP2 SWAP1 PUSH2 0x1992 JUMP JUMPDEST PUSH1 0x0 PUSH1 0x40 MLOAD DUP1 DUP4 SUB DUP2 PUSH1 0x0 DUP7 GAS CALL SWAP2 POP POP RETURNDATASIZE DUP1 PUSH1 0x0 DUP2 EQ PUSH2 0x1553 JUMPI PUSH1 0x40 MLOAD SWAP2 POP PUSH1 0x1F NOT PUSH1 0x3F RETURNDATASIZE ADD AND DUP3 ADD PUSH1 0x40 MSTORE RETURNDATASIZE DUP3 MSTORE RETURNDATASIZE PUSH1 0x0 PUSH1 0x20 DUP5 ADD RETURNDATACOPY PUSH2 0x1558 JUMP JUMPDEST PUSH1 0x60 SWAP2 POP JUMPDEST POP SWAP2 POP SWAP2 POP DUP2 DUP1 ISZERO PUSH2 0x1582 JUMPI POP DUP1 MLOAD ISZERO DUP1 PUSH2 0x1582 JUMPI POP DUP1 DUP1 PUSH1 0x20 ADD SWAP1 MLOAD DUP2 ADD SWAP1 PUSH2 0x1582 SWAP2 SWAP1 PUSH2 0x19C1 JUMP JUMPDEST PUSH2 0x15C0 JUMPI PUSH1 0x40 MLOAD PUSH3 0x461BCD PUSH1 0xE5 SHL DUP2 MSTORE PUSH1 0x20 PUSH1 0x4 DUP3 ADD MSTORE PUSH1 0xF PUSH1 0x24 DUP3 ADD MSTORE PUSH15 0x1514905394D1915497D19052531151 PUSH1 0x8A SHL PUSH1 0x44 DUP3 ADD MSTORE PUSH1 0x64 ADD PUSH2 0x573 JUMP JUMPDEST POP POP POP POP POP JUMP JUMPDEST PUSH1 0x0 PUSH1 0x20 DUP3 DUP5 SUB SLT ISZERO PUSH2 0x15D9 JUMPI PUSH1 0x0 DUP1 REVERT JUMPDEST POP CALLDATALOAD SWAP2 SWAP1 POP JUMP JUMPDEST PUSH1 0x0 DUP1 PUSH1 0x40 DUP4 DUP6 SUB SLT ISZERO PUSH2 0x15F3 JUMPI PUSH1 0x0 DUP1 REVERT JUMPDEST DUP3 CALLDATALOAD SWAP2 POP PUSH1 0x20 DUP4 ADD CALLDATALOAD PUSH1 0xFF DUP2 AND DUP2 EQ PUSH2 0x160B JUMPI PUSH1 0x0 DUP1 REVERT JUMPDEST DUP1 SWAP2 POP POP SWAP3 POP SWAP3 SWAP1 POP JUMP JUMPDEST DUP1 CALLDATALOAD PUSH1 0x1 PUSH1 0x1 PUSH1 0xA0 SHL SUB DUP2 AND DUP2 EQ PUSH2 0x162D JUMPI PUSH1 0x0 DUP1 REVERT JUMPDEST SWAP2 SWAP1 POP JUMP JUMPDEST PUSH1 0x0 PUSH1 0x20 DUP3 DUP5 SUB SLT ISZERO PUSH2 0x1644 JUMPI PUSH1 0x0 DUP1 REVERT JUMPDEST PUSH2 0x1399 DUP3 PUSH2 0x1616 JUMP JUMPDEST PUSH1 0x0 DUP1 PUSH1 0x40 DUP4 DUP6 SUB SLT ISZERO PUSH2 0x1660 JUMPI PUSH1 0x0 DUP1 REVERT JUMPDEST PUSH2 0x1669 DUP4 PUSH2 0x1616 JUMP JUMPDEST SWAP5 PUSH1 0x20 SWAP4 SWAP1 SWAP4 ADD CALLDATALOAD SWAP4 POP POP POP JUMP JUMPDEST PUSH1 0x20 DUP1 DUP3 MSTORE DUP3 MLOAD DUP3 DUP3 ADD DUP2 SWAP1 MSTORE PUSH1 0x0 SWAP2 SWAP1 PUSH1 0x40 SWAP1 DUP2 DUP6 ADD SWAP1 DUP7 DUP5 ADD DUP6 JUMPDEST DUP3 DUP2 LT ISZERO PUSH2 0x16CE JUMPI DUP2 MLOAD DUP1 MLOAD DUP6 MSTORE DUP7 DUP2 ADD MLOAD DUP8 DUP7 ADD MSTORE DUP6 DUP2 ADD MLOAD DUP7 DUP7 ADD MSTORE PUSH1 0x60 SWAP1 DUP2 ADD MLOAD SWAP1 DUP6 ADD MSTORE PUSH1 0x80 SWAP1 SWAP4 ADD SWAP3 SWAP1 DUP6 ADD SWAP1 PUSH1 0x1 ADD PUSH2 0x1694 JUMP JUMPDEST POP SWAP2 SWAP8 SWAP7 POP POP POP POP POP POP POP JUMP JUMPDEST PUSH1 0x0 PUSH1 0x40 DUP3 ADD DUP5 DUP4 MSTORE PUSH1 0x20 PUSH1 0x40 DUP2 DUP6 ADD MSTORE DUP2 DUP6 MLOAD DUP1 DUP5 MSTORE PUSH1 0x60 DUP7 ADD SWAP2 POP DUP3 DUP8 ADD SWAP4 POP PUSH1 0x0 JUMPDEST DUP2 DUP2 LT ISZERO PUSH2 0x171C JUMPI DUP5 MLOAD DUP4 MSTORE SWAP4 DUP4 ADD SWAP4 SWAP2 DUP4 ADD SWAP2 PUSH1 0x1 ADD PUSH2 0x1700 JUMP JUMPDEST POP SWAP1 SWAP8 SWAP7 POP POP POP POP POP POP POP JUMP JUMPDEST PUSH4 0x4E487B71 PUSH1 0xE0 SHL PUSH1 0x0 MSTORE PUSH1 0x41 PUSH1 0x4 MSTORE PUSH1 0x24 PUSH1 0x0 REVERT JUMPDEST PUSH1 0x0 DUP3 PUSH1 0x1F DUP4 ADD SLT PUSH2 0x1750 JUMPI PUSH1 0x0 DUP1 REVERT JUMPDEST DUP2 CALLDATALOAD PUSH1 0x20 PUSH8 0xFFFFFFFFFFFFFFFF DUP1 DUP4 GT ISZERO PUSH2 0x176D JUMPI PUSH2 0x176D PUSH2 0x1729 JUMP JUMPDEST DUP3 PUSH1 0x5 SHL PUSH1 0x40 MLOAD PUSH1 0x1F NOT PUSH1 0x3F DUP4 ADD AND DUP2 ADD DUP2 DUP2 LT DUP5 DUP3 GT OR ISZERO PUSH2 0x1792 JUMPI PUSH2 0x1792 PUSH2 0x1729 JUMP JUMPDEST PUSH1 0x40 MSTORE SWAP4 DUP5 MSTORE DUP6 DUP2 ADD DUP4 ADD SWAP4 DUP4 DUP2 ADD SWAP3 POP DUP8 DUP6 GT ISZERO PUSH2 0x17B0 JUMPI PUSH1 0x0 DUP1 REVERT JUMPDEST DUP4 DUP8 ADD SWAP2 POP JUMPDEST DUP5 DUP3 LT ISZERO PUSH2 0x17CF JUMPI DUP2 CALLDATALOAD DUP4 MSTORE SWAP2 DUP4 ADD SWAP2 SWAP1 DUP4 ADD SWAP1 PUSH2 0x17B6 JUMP JUMPDEST SWAP8 SWAP7 POP POP POP POP POP POP POP JUMP JUMPDEST PUSH1 0x0 DUP1 PUSH1 0x40 DUP4 DUP6 SUB SLT ISZERO PUSH2 0x17ED JUMPI PUSH1 0x0 DUP1 REVERT JUMPDEST DUP3 CALLDATALOAD PUSH8 0xFFFFFFFFFFFFFFFF DUP1 DUP3 GT ISZERO PUSH2 0x1805 JUMPI PUSH1 0x0 DUP1 REVERT JUMPDEST PUSH2 0x1811 DUP7 DUP4 DUP8 ADD PUSH2 0x173F JUMP JUMPDEST SWAP4 POP PUSH1 0x20 DUP6 ADD CALLDATALOAD SWAP2 POP DUP1 DUP3 GT ISZERO PUSH2 0x1827 JUMPI PUSH1 0x0 DUP1 REVERT JUMPDEST POP PUSH2 0x1834 DUP6 DUP3 DUP7 ADD PUSH2 0x173F JUMP JUMPDEST SWAP2 POP POP SWAP3 POP SWAP3 SWAP1 POP JUMP JUMPDEST PUSH1 0x0 DUP1 PUSH1 0x40 DUP4 DUP6 SUB SLT ISZERO PUSH2 0x1851 JUMPI PUSH1 0x0 DUP1 REVERT JUMPDEST POP POP DUP1 CALLDATALOAD SWAP3 PUSH1 0x20 SWAP1 SWAP2 ADD CALLDATALOAD SWAP2 POP JUMP JUMPDEST PUSH4 0x4E487B71 PUSH1 0xE0 SHL PUSH1 0x0 MSTORE PUSH1 0x11 PUSH1 0x4 MSTORE PUSH1 0x24 PUSH1 0x0 REVERT JUMPDEST PUSH1 0x0 DUP3 PUSH2 0x1893 JUMPI PUSH4 0x4E487B71 PUSH1 0xE0 SHL PUSH1 0x0 MSTORE PUSH1 0x12 PUSH1 0x4 MSTORE PUSH1 0x24 PUSH1 0x0 REVERT JUMPDEST POP DIV SWAP1 JUMP JUMPDEST DUP1 DUP3 ADD DUP1 DUP3 GT ISZERO PUSH2 0x18AB JUMPI PUSH2 0x18AB PUSH2 0x1860 JUMP JUMPDEST SWAP3 SWAP2 POP POP JUMP JUMPDEST PUSH1 0x0 PUSH1 0xFF DUP3 AND PUSH1 0xFF DUP2 SUB PUSH2 0x18C7 JUMPI PUSH2 0x18C7 PUSH2 0x1860 JUMP JUMPDEST PUSH1 0x1 ADD SWAP3 SWAP2 POP POP JUMP JUMPDEST PUSH4 0x4E487B71 PUSH1 0xE0 SHL PUSH1 0x0 MSTORE PUSH1 0x32 PUSH1 0x4 MSTORE PUSH1 0x24 PUSH1 0x0 REVERT JUMPDEST PUSH1 0x0 PUSH1 0x1 DUP3 ADD PUSH2 0x18F8 JUMPI PUSH2 0x18F8 PUSH2 0x1860 JUMP JUMPDEST POP PUSH1 0x1 ADD SWAP1 JUMP JUMPDEST DUP2 DUP2 SUB DUP2 DUP2 GT ISZERO PUSH2 0x18AB JUMPI PUSH2 0x18AB PUSH2 0x1860 JUMP JUMPDEST PUSH4 0x4E487B71 PUSH1 0xE0 SHL PUSH1 0x0 MSTORE PUSH1 0x31 PUSH1 0x4 MSTORE PUSH1 0x24 PUSH1 0x0 REVERT JUMPDEST PUSH1 0x0 DUP2 PUSH2 0x1937 JUMPI PUSH2 0x1937 PUSH2 0x1860 JUMP JUMPDEST POP PUSH1 0x0 NOT ADD SWAP1 JUMP JUMPDEST PUSH1 0x20 DUP1 DUP3 MSTORE PUSH1 0x9 SWAP1 DUP3 ADD MSTORE PUSH9 0x3337B93134B23232B7 PUSH1 0xB9 SHL PUSH1 0x40 DUP3 ADD MSTORE PUSH1 0x60 ADD SWAP1 JUMP JUMPDEST DUP1 DUP3 MUL DUP2 ISZERO DUP3 DUP3 DIV DUP5 EQ OR PUSH2 0x18AB JUMPI PUSH2 0x18AB PUSH2 0x1860 JUMP JUMPDEST PUSH1 0xFF DUP3 DUP2 AND DUP3 DUP3 AND SUB SWAP1 DUP2 GT ISZERO PUSH2 0x18AB JUMPI PUSH2 0x18AB PUSH2 0x1860 JUMP JUMPDEST PUSH1 0x0 DUP3 MLOAD PUSH1 0x0 JUMPDEST DUP2 DUP2 LT ISZERO PUSH2 0x19B3 JUMPI PUSH1 0x20 DUP2 DUP7 ADD DUP2 ADD MLOAD DUP6 DUP4 ADD MSTORE ADD PUSH2 0x1999 JUMP JUMPDEST POP PUSH1 0x0 SWAP3 ADD SWAP2 DUP3 MSTORE POP SWAP2 SWAP1 POP JUMP JUMPDEST PUSH1 0x0 PUSH1 0x20 DUP3 DUP5 SUB SLT ISZERO PUSH2 0x19D3 JUMPI PUSH1 0x0 DUP1 REVERT JUMPDEST DUP2 MLOAD DUP1 ISZERO ISZERO DUP2 EQ PUSH2 0x1399 JUMPI PUSH1 0x0 DUP1 REVERT INVALID LOG2 PUSH5 0x6970667358 0x22 SLT KECCAK256 0xD1 PUSH16 0x75A1AE4DD8719CAEDDC311EE040E0D02 SWAP1 0x4E SHR PUSH28 0x7A9556C801B9C9BB437964736F6C6343000811003300000000000000 "},"methodIdentifiers":{"BEGIN_TIME()":"c75363b6","END_TIME()":"37ba682d","LOCK_WEEKNUM()":"0d437d40","MAX_SCALE()":"f6def7cf","MAX_WEEKS()":"e11400bb","WEEK_SECONDS()":"cd671a58","acceptSetter()":"5f8e422f","canClaimAmount()":"8431165e","claimReward()":"b88a802f","getScore(uint256,uint8)":"ee3453ed","getStaking()":"7b1391a6","latestNo()":"29ed1cfd","lockedRewardAmount()":"8923de2b","lpToken()":"5fcbd285","nonce()":"affed0e0","owner()":"8da5cb5b","rewardToken()":"f7c618c1","rewardsOf(uint256)":"0bce1284","setReward(uint256,uint256)":"a47bd496","setRewards(uint256[],uint256[])":"979db1c4","stake(uint256,uint8)":"10087fb1","stakingERC20s(uint256)":"a218de15","totalScores(uint256)":"157775df","transferOwner(address)":"4fb2e45d","userCanClaimWeeks(address,uint256)":"bb57852d","userERC20s(address,uint256)":"ba086501","userScores(address,uint256)":"5b680a45","withdraw()":"3ccfd60b","withdrawRewards(uint256)":"9342c8f4"}}}}}