{
  "_format": "hh-sol-artifact-1",
  "contractName": "StakeBase",
  "sourceName": "contracts/stakeBase.sol",
  "abi": [
    {
      "inputs": [
        {
          "internalType": "uint8",
          "name": "maxWeeks",
          "type": "uint8"
        },
        {
          "internalType": "uint256",
          "name": "maxScale",
          "type": "uint256"
        },
        {
          "internalType": "uint8",
          "name": "lockWeeks",
          "type": "uint8"
        },
        {
          "internalType": "address",
          "name": "_rewardToken",
          "type": "address"
        }
      ],
      "stateMutability": "nonpayable",
      "type": "constructor"
    },
    {
      "anonymous": false,
      "inputs": [
        {
          "indexed": true,
          "internalType": "address",
          "name": "user",
          "type": "address"
        },
        {
          "indexed": false,
          "internalType": "uint256",
          "name": "amount",
          "type": "uint256"
        }
      ],
      "name": "ClaimReward",
      "type": "event"
    },
    {
      "anonymous": false,
      "inputs": [
        {
          "indexed": true,
          "internalType": "address",
          "name": "user",
          "type": "address"
        },
        {
          "indexed": false,
          "internalType": "uint256",
          "name": "no",
          "type": "uint256"
        },
        {
          "indexed": false,
          "internalType": "uint256",
          "name": "amount",
          "type": "uint256"
        }
      ],
      "name": "SetReward",
      "type": "event"
    },
    {
      "inputs": [],
      "name": "LOCK_WEEKNUM",
      "outputs": [
        {
          "internalType": "uint8",
          "name": "",
          "type": "uint8"
        }
      ],
      "stateMutability": "view",
      "type": "function"
    },
    {
      "inputs": [],
      "name": "MAX_SCALE",
      "outputs": [
        {
          "internalType": "uint256",
          "name": "",
          "type": "uint256"
        }
      ],
      "stateMutability": "view",
      "type": "function"
    },
    {
      "inputs": [],
      "name": "MAX_WEEKS",
      "outputs": [
        {
          "internalType": "uint8",
          "name": "",
          "type": "uint8"
        }
      ],
      "stateMutability": "view",
      "type": "function"
    },
    {
      "inputs": [],
      "name": "WEEK_SECONDS",
      "outputs": [
        {
          "internalType": "uint24",
          "name": "",
          "type": "uint24"
        }
      ],
      "stateMutability": "view",
      "type": "function"
    },
    {
      "inputs": [],
      "name": "acceptSetter",
      "outputs": [],
      "stateMutability": "nonpayable",
      "type": "function"
    },
    {
      "inputs": [],
      "name": "canClaimAmount",
      "outputs": [
        {
          "internalType": "uint256",
          "name": "",
          "type": "uint256"
        }
      ],
      "stateMutability": "view",
      "type": "function"
    },
    {
      "inputs": [],
      "name": "claimReward",
      "outputs": [],
      "stateMutability": "nonpayable",
      "type": "function"
    },
    {
      "inputs": [
        {
          "internalType": "uint256",
          "name": "amount",
          "type": "uint256"
        },
        {
          "internalType": "uint8",
          "name": "k",
          "type": "uint8"
        }
      ],
      "name": "getScore",
      "outputs": [
        {
          "internalType": "uint256",
          "name": "score",
          "type": "uint256"
        }
      ],
      "stateMutability": "view",
      "type": "function"
    },
    {
      "inputs": [],
      "name": "latestNo",
      "outputs": [
        {
          "internalType": "uint256",
          "name": "",
          "type": "uint256"
        }
      ],
      "stateMutability": "view",
      "type": "function"
    },
    {
      "inputs": [],
      "name": "owner",
      "outputs": [
        {
          "internalType": "address",
          "name": "",
          "type": "address"
        }
      ],
      "stateMutability": "view",
      "type": "function"
    },
    {
      "inputs": [],
      "name": "rewardToken",
      "outputs": [
        {
          "internalType": "address",
          "name": "",
          "type": "address"
        }
      ],
      "stateMutability": "view",
      "type": "function"
    },
    {
      "inputs": [
        {
          "internalType": "uint256",
          "name": "",
          "type": "uint256"
        }
      ],
      "name": "rewardsOf",
      "outputs": [
        {
          "internalType": "uint256",
          "name": "",
          "type": "uint256"
        }
      ],
      "stateMutability": "view",
      "type": "function"
    },
    {
      "inputs": [
        {
          "internalType": "uint256",
          "name": "no",
          "type": "uint256"
        },
        {
          "internalType": "uint256",
          "name": "amount",
          "type": "uint256"
        }
      ],
      "name": "setReward",
      "outputs": [],
      "stateMutability": "nonpayable",
      "type": "function"
    },
    {
      "inputs": [
        {
          "internalType": "uint256[]",
          "name": "nos",
          "type": "uint256[]"
        },
        {
          "internalType": "uint256[]",
          "name": "amounts",
          "type": "uint256[]"
        }
      ],
      "name": "setRewards",
      "outputs": [
        {
          "internalType": "uint256",
          "name": "total",
          "type": "uint256"
        }
      ],
      "stateMutability": "nonpayable",
      "type": "function"
    },
    {
      "inputs": [
        {
          "internalType": "uint256",
          "name": "",
          "type": "uint256"
        }
      ],
      "name": "totalScores",
      "outputs": [
        {
          "internalType": "uint256",
          "name": "",
          "type": "uint256"
        }
      ],
      "stateMutability": "view",
      "type": "function"
    },
    {
      "inputs": [
        {
          "internalType": "address",
          "name": "_owner",
          "type": "address"
        }
      ],
      "name": "transferOwner",
      "outputs": [],
      "stateMutability": "nonpayable",
      "type": "function"
    },
    {
      "inputs": [
        {
          "internalType": "address",
          "name": "",
          "type": "address"
        },
        {
          "internalType": "uint256",
          "name": "",
          "type": "uint256"
        }
      ],
      "name": "userCanClaimWeeks",
      "outputs": [
        {
          "internalType": "uint256",
          "name": "",
          "type": "uint256"
        }
      ],
      "stateMutability": "view",
      "type": "function"
    },
    {
      "inputs": [
        {
          "internalType": "address",
          "name": "",
          "type": "address"
        },
        {
          "internalType": "uint256",
          "name": "",
          "type": "uint256"
        }
      ],
      "name": "userScores",
      "outputs": [
        {
          "internalType": "uint256",
          "name": "",
          "type": "uint256"
        }
      ],
      "stateMutability": "view",
      "type": "function"
    }
  ],
  "bytecode": "0x61010060405234801561001157600080fd5b50604051610feb380380610feb8339810160408190526100309161007b565b6001600160a01b031660805260ff92831660a05260c0919091521660e052600080546001600160a01b031916331790556100d7565b805160ff8116811461007657600080fd5b919050565b6000806000806080858703121561009157600080fd5b61009a85610065565b9350602085015192506100af60408601610065565b60608601519092506001600160a01b03811681146100cc57600080fd5b939692955090935050565b60805160a05160c05160e051610ea361014860003960008181610153015281816103be01526106f40152600081816102c801526108cb01526000818161028e0152818161086701526108920152600081816102ef015281816105bc0152818161065401526107e10152610ea36000f3fe608060405234801561001057600080fd5b50600436106101165760003560e01c8063979db1c4116100a2578063cd671a5811610071578063cd671a581461026c578063e11400bb14610289578063ee3453ed146102b0578063f6def7cf146102c3578063f7c618c1146102ea57600080fd5b8063979db1c41461022b578063a47bd4961461023e578063b88a802f14610251578063bb57852d1461025957600080fd5b80634fb2e45d116100e95780634fb2e45d146101b05780635b680a45146101c55780635f8e422f146101f05780638431165e146101f85780638da5cb5b1461020057600080fd5b80630bce12841461011b5780630d437d401461014e578063157775df1461018757806329ed1cfd146101a7575b600080fd5b61013b610129366004610b4f565b60056020526000908152604090205481565b6040519081526020015b60405180910390f35b6101757f000000000000000000000000000000000000000000000000000000000000000081565b60405160ff9091168152602001610145565b61013b610195366004610b4f565b60046020526000908152604090205481565b61013b60065481565b6101c36101be366004610b84565b610311565b005b61013b6101d3366004610b9f565b600260209081526000928352604080842090915290825290205481565b6101c3610366565b61013b6103b7565b600054610213906001600160a01b031681565b6040516001600160a01b039091168152602001610145565b61013b610239366004610c7a565b610490565b6101c361024c366004610cde565b610625565b6101c36106ee565b61013b610267366004610b9f565b610839565b61027561025881565b60405162ffffff9091168152602001610145565b6101757f000000000000000000000000000000000000000000000000000000000000000081565b61013b6102be366004610d00565b61085e565b61013b7f000000000000000000000000000000000000000000000000000000000000000081565b6102137f000000000000000000000000000000000000000000000000000000000000000081565b6000546001600160a01b031633146103445760405162461bcd60e51b815260040161033b90610d36565b60405180910390fd5b600180546001600160a01b0319166001600160a01b0392909216919091179055565b6001546001600160a01b031633146103905760405162461bcd60e51b815260040161033b90610d36565b60018054600080546001600160a01b03199081166001600160a01b03841617909155169055565b60008060ff7f0000000000000000000000000000000000000000000000000000000000000000166103ea61025842610d6f565b6103f49190610d91565b33600090815260036020526040812054919250905b3360009081526003602052604090206001015481101561048957828111610489576000818152600460209081526040808320543384526002835281842085855283528184205460059093529220546104619190610dc0565b61046b9190610d6f565b6104759083610dd7565b91508061048181610dea565b915050610409565b5092915050565b600080546001600160a01b031633146104bb5760405162461bcd60e51b815260040161033b90610d36565b60005b835181101561054b578281815181106104d9576104d9610daa565b6020026020010151826104ec9190610dd7565b915082818151811061050057610500610daa565b60200260200101516005600086848151811061051e5761051e610daa565b6020026020010151815260200190815260200160002081905550808061054390610dea565b9150506104be565b50600083511180156105845750600654836001855161056a9190610d91565b8151811061057a5761057a610daa565b6020026020010151115b156105b75782600184516105989190610d91565b815181106105a8576105a8610daa565b60200260200101516006819055505b6105e37f0000000000000000000000000000000000000000000000000000000000000000333084610928565b60408051600081526020810183905233917fc3991418cacd70a010fce559a44fcbb47534ca43bf7543964bdca2639f6e6e5a910160405180910390a292915050565b6000546001600160a01b0316331461064f5760405162461bcd60e51b815260040161033b90610d36565b61067b7f0000000000000000000000000000000000000000000000000000000000000000333084610928565b60008281526005602052604081208054839290610699908490610dd7565b90915550506006548211156106ae5760068290555b604080518381526020810183905233917fc3991418cacd70a010fce559a44fcbb47534ca43bf7543964bdca2639f6e6e5a91015b60405180910390a25050565b600060ff7f00000000000000000000000000000000000000000000000000000000000000001661072061025842610d6f565b61072a9190610d91565b33600090815260036020526040812054919250905b336000908152600360205260409020600101548110156107db578281116107db5761076b816001610dd7565b33600090815260036020526040812001556000818152600460209081526040808320543384526002835281842085855283528184205460059093529220546107b39190610dc0565b6107bd9190610d6f565b6107c79083610dd7565b9150806107d381610dea565b91505061073f565b506108077f00000000000000000000000000000000000000000000000000000000000000003383610a42565b60405181815233907fba8de60c3403ec381d1d484652ea1980e3c3e56359195c92525bff4ce47ad98e906020016106e2565b6003602052816000526040600020816002811061085557600080fd5b01549150829050565b600061088b60017f0000000000000000000000000000000000000000000000000000000000000000610e03565b60ff1660017f000000000000000000000000000000000000000000000000000000000000000060ff166001856108c19190610e03565b60ff166108ef60017f0000000000000000000000000000000000000000000000000000000000000000610d91565b6108f99190610dc0565b6109039190610dd7565b61090d9190610d91565b6109179085610dc0565b6109219190610d6f565b9392505050565b604080516001600160a01b0385811660248301528481166044830152606480830185905283518084039091018152608490920183526020820180516001600160e01b03166323b872dd60e01b179052915160009283929088169161098c9190610e1c565b6000604051808303816000865af19150503d80600081146109c9576040519150601f19603f3d011682016040523d82523d6000602084013e6109ce565b606091505b50915091508180156109f85750805115806109f85750808060200190518101906109f89190610e4b565b610a3a5760405162461bcd60e51b81526020600482015260136024820152721d1c985b9cd9995c919c9bdb4819985a5b1959606a1b604482015260640161033b565b505050505050565b604080516001600160a01b038481166024830152604480830185905283518084039091018152606490920183526020820180516001600160e01b031663a9059cbb60e01b1790529151600092839290871691610a9e9190610e1c565b6000604051808303816000865af19150503d8060008114610adb576040519150601f19603f3d011682016040523d82523d6000602084013e610ae0565b606091505b5091509150818015610b0a575080511580610b0a575080806020019051810190610b0a9190610e4b565b610b485760405162461bcd60e51b815260206004820152600f60248201526e1514905394d1915497d19052531151608a1b604482015260640161033b565b5050505050565b600060208284031215610b6157600080fd5b5035919050565b80356001600160a01b0381168114610b7f57600080fd5b919050565b600060208284031215610b9657600080fd5b61092182610b68565b60008060408385031215610bb257600080fd5b610bbb83610b68565b946020939093013593505050565b634e487b7160e01b600052604160045260246000fd5b600082601f830112610bf057600080fd5b8135602067ffffffffffffffff80831115610c0d57610c0d610bc9565b8260051b604051601f19603f83011681018181108482111715610c3257610c32610bc9565b604052938452858101830193838101925087851115610c5057600080fd5b83870191505b84821015610c6f57813583529183019190830190610c56565b979650505050505050565b60008060408385031215610c8d57600080fd5b823567ffffffffffffffff80821115610ca557600080fd5b610cb186838701610bdf565b93506020850135915080821115610cc757600080fd5b50610cd485828601610bdf565b9150509250929050565b60008060408385031215610cf157600080fd5b50508035926020909101359150565b60008060408385031215610d1357600080fd5b82359150602083013560ff81168114610d2b57600080fd5b809150509250929050565b6020808252600990820152683337b93134b23232b760b91b604082015260600190565b634e487b7160e01b600052601160045260246000fd5b600082610d8c57634e487b7160e01b600052601260045260246000fd5b500490565b81810381811115610da457610da4610d59565b92915050565b634e487b7160e01b600052603260045260246000fd5b8082028115828204841417610da457610da4610d59565b80820180821115610da457610da4610d59565b600060018201610dfc57610dfc610d59565b5060010190565b60ff8281168282160390811115610da457610da4610d59565b6000825160005b81811015610e3d5760208186018101518583015201610e23565b506000920191825250919050565b600060208284031215610e5d57600080fd5b8151801515811461092157600080fdfea264697066735822122045d322f9ed41af9102ee6ed55f2c0e45e4b4aa0b17f3c6af4769f67b7747a5de64736f6c63430008110033",
  "linkReferences": {},
  "deployedLinkReferences": {}
}