{
  "_format": "hh-sol-artifact-1",
  "contractName": "StakeBase",
  "sourceName": "contracts/stakeBase.sol",
  "abi": [
    {
      "inputs": [
        {
          "internalType": "uint8",
          "name": "maxWeeks",
          "type": "uint8"
        },
        {
          "internalType": "uint256",
          "name": "maxScale",
          "type": "uint256"
        },
        {
          "internalType": "uint8",
          "name": "lockWeeks",
          "type": "uint8"
        },
        {
          "internalType": "uint256",
          "name": "beginTime",
          "type": "uint256"
        },
        {
          "internalType": "uint256",
          "name": "endTime",
          "type": "uint256"
        },
        {
          "internalType": "address",
          "name": "_rewardToken",
          "type": "address"
        }
      ],
      "stateMutability": "nonpayable",
      "type": "constructor"
    },
    {
      "anonymous": false,
      "inputs": [
        {
          "indexed": true,
          "internalType": "address",
          "name": "user",
          "type": "address"
        },
        {
          "indexed": false,
          "internalType": "uint256",
          "name": "amount",
          "type": "uint256"
        }
      ],
      "name": "ClaimReward",
      "type": "event"
    },
    {
      "anonymous": false,
      "inputs": [
        {
          "indexed": true,
          "internalType": "address",
          "name": "user",
          "type": "address"
        },
        {
          "indexed": false,
          "internalType": "uint256",
          "name": "no",
          "type": "uint256"
        },
        {
          "indexed": false,
          "internalType": "uint256",
          "name": "amount",
          "type": "uint256"
        }
      ],
      "name": "SetReward",
      "type": "event"
    },
    {
      "inputs": [],
      "name": "BEGIN_TIME",
      "outputs": [
        {
          "internalType": "uint256",
          "name": "",
          "type": "uint256"
        }
      ],
      "stateMutability": "view",
      "type": "function"
    },
    {
      "inputs": [],
      "name": "END_TIME",
      "outputs": [
        {
          "internalType": "uint256",
          "name": "",
          "type": "uint256"
        }
      ],
      "stateMutability": "view",
      "type": "function"
    },
    {
      "inputs": [],
      "name": "LOCK_WEEKNUM",
      "outputs": [
        {
          "internalType": "uint8",
          "name": "",
          "type": "uint8"
        }
      ],
      "stateMutability": "view",
      "type": "function"
    },
    {
      "inputs": [],
      "name": "MAX_SCALE",
      "outputs": [
        {
          "internalType": "uint256",
          "name": "",
          "type": "uint256"
        }
      ],
      "stateMutability": "view",
      "type": "function"
    },
    {
      "inputs": [],
      "name": "MAX_WEEKS",
      "outputs": [
        {
          "internalType": "uint8",
          "name": "",
          "type": "uint8"
        }
      ],
      "stateMutability": "view",
      "type": "function"
    },
    {
      "inputs": [],
      "name": "WEEK_SECONDS",
      "outputs": [
        {
          "internalType": "uint24",
          "name": "",
          "type": "uint24"
        }
      ],
      "stateMutability": "view",
      "type": "function"
    },
    {
      "inputs": [],
      "name": "acceptSetter",
      "outputs": [],
      "stateMutability": "nonpayable",
      "type": "function"
    },
    {
      "inputs": [],
      "name": "calculateRewardAmount",
      "outputs": [
        {
          "internalType": "uint256",
          "name": "",
          "type": "uint256"
        },
        {
          "internalType": "uint256",
          "name": "",
          "type": "uint256"
        }
      ],
      "stateMutability": "view",
      "type": "function"
    },
    {
      "inputs": [],
      "name": "claimReward",
      "outputs": [],
      "stateMutability": "nonpayable",
      "type": "function"
    },
    {
      "inputs": [
        {
          "internalType": "uint256",
          "name": "amount",
          "type": "uint256"
        },
        {
          "internalType": "uint8",
          "name": "k",
          "type": "uint8"
        }
      ],
      "name": "getScore",
      "outputs": [
        {
          "internalType": "uint256",
          "name": "score",
          "type": "uint256"
        }
      ],
      "stateMutability": "view",
      "type": "function"
    },
    {
      "inputs": [],
      "name": "latestNo",
      "outputs": [
        {
          "internalType": "uint256",
          "name": "",
          "type": "uint256"
        }
      ],
      "stateMutability": "view",
      "type": "function"
    },
    {
      "inputs": [],
      "name": "owner",
      "outputs": [
        {
          "internalType": "address",
          "name": "",
          "type": "address"
        }
      ],
      "stateMutability": "view",
      "type": "function"
    },
    {
      "inputs": [],
      "name": "rewardToken",
      "outputs": [
        {
          "internalType": "address",
          "name": "",
          "type": "address"
        }
      ],
      "stateMutability": "view",
      "type": "function"
    },
    {
      "inputs": [
        {
          "internalType": "uint256",
          "name": "",
          "type": "uint256"
        }
      ],
      "name": "rewardsOf",
      "outputs": [
        {
          "internalType": "uint256",
          "name": "",
          "type": "uint256"
        }
      ],
      "stateMutability": "view",
      "type": "function"
    },
    {
      "inputs": [
        {
          "internalType": "uint256",
          "name": "no",
          "type": "uint256"
        },
        {
          "internalType": "uint256",
          "name": "amount",
          "type": "uint256"
        }
      ],
      "name": "setReward",
      "outputs": [],
      "stateMutability": "nonpayable",
      "type": "function"
    },
    {
      "inputs": [
        {
          "internalType": "uint256[]",
          "name": "nos",
          "type": "uint256[]"
        },
        {
          "internalType": "uint256[]",
          "name": "amounts",
          "type": "uint256[]"
        }
      ],
      "name": "setRewards",
      "outputs": [
        {
          "internalType": "uint256",
          "name": "total",
          "type": "uint256"
        }
      ],
      "stateMutability": "nonpayable",
      "type": "function"
    },
    {
      "inputs": [
        {
          "internalType": "uint256",
          "name": "",
          "type": "uint256"
        }
      ],
      "name": "totalScores",
      "outputs": [
        {
          "internalType": "uint256",
          "name": "",
          "type": "uint256"
        }
      ],
      "stateMutability": "view",
      "type": "function"
    },
    {
      "inputs": [
        {
          "internalType": "address",
          "name": "_owner",
          "type": "address"
        }
      ],
      "name": "transferOwner",
      "outputs": [],
      "stateMutability": "nonpayable",
      "type": "function"
    },
    {
      "inputs": [
        {
          "internalType": "address",
          "name": "",
          "type": "address"
        },
        {
          "internalType": "uint256",
          "name": "",
          "type": "uint256"
        }
      ],
      "name": "userCanClaimWeeks",
      "outputs": [
        {
          "internalType": "uint256",
          "name": "",
          "type": "uint256"
        }
      ],
      "stateMutability": "view",
      "type": "function"
    },
    {
      "inputs": [
        {
          "internalType": "address",
          "name": "",
          "type": "address"
        },
        {
          "internalType": "uint256",
          "name": "",
          "type": "uint256"
        }
      ],
      "name": "userScores",
      "outputs": [
        {
          "internalType": "uint256",
          "name": "",
          "type": "uint256"
        }
      ],
      "stateMutability": "view",
      "type": "function"
    },
    {
      "inputs": [
        {
          "internalType": "uint256",
          "name": "amount",
          "type": "uint256"
        }
      ],
      "name": "withdrawRewards",
      "outputs": [],
      "stateMutability": "nonpayable",
      "type": "function"
    }
  ],
  "bytecode": "0x61014060405234801561001157600080fd5b5060405161114e38038061114e83398101604081905261003091610087565b6001600160a01b031660805260ff94851660a05260c093909352921660e0526101009190915261012052600080546001600160a01b031916331790556100f8565b805160ff8116811461008257600080fd5b919050565b60008060008060008060c087890312156100a057600080fd5b6100a987610071565b9550602087015194506100be60408801610071565b6060880151608089015160a08a015192965090945092506001600160a01b03811681146100ea57600080fd5b809150509295509295509295565b60805160a05160c05160e0516101005161012051610fc861018660003960006101f3015260006102e1015260008181610174015281816103b0015261081901526000818161035f01526109f00152600081816103250152818161098c01526109b701526000818161038601528181610570015281816106e10152818161077901526109060152610fc86000f3fe608060405234801561001057600080fd5b50600436106101375760003560e01c80639342c8f4116100b8578063c75363b61161007c578063c75363b6146102dc578063cd671a5814610303578063e11400bb14610320578063ee3453ed14610347578063f6def7cf1461035a578063f7c618c11461038157600080fd5b80639342c8f414610288578063979db1c41461029b578063a47bd496146102ae578063b88a802f146102c1578063bb57852d146102c957600080fd5b806337ba682d116100ff57806337ba682d146101ee5780634fb2e45d146102155780635b680a451461022a5780635f8e422f146102555780638da5cb5b1461025d57600080fd5b80630bce12841461013c5780630d437d401461016f578063157775df146101a857806319596282146101c857806329ed1cfd146101e5575b600080fd5b61015c61014a366004610c74565b60056020526000908152604090205481565b6040519081526020015b60405180910390f35b6101967f000000000000000000000000000000000000000000000000000000000000000081565b60405160ff9091168152602001610166565b61015c6101b6366004610c74565b60046020526000908152604090205481565b6101d06103a8565b60408051928352602083019190915201610166565b61015c60065481565b61015c7f000000000000000000000000000000000000000000000000000000000000000081565b610228610223366004610ca9565b61049b565b005b61015c610238366004610cc4565b600260209081526000928352604080842090915290825290205481565b6102286104f0565b600054610270906001600160a01b031681565b6040516001600160a01b039091168152602001610166565b610228610296366004610c74565b610541565b61015c6102a9366004610d9f565b610599565b6102286102bc366004610e03565b61074a565b610228610813565b61015c6102d7366004610cc4565b61095e565b61015c7f000000000000000000000000000000000000000000000000000000000000000081565b61030c61025881565b60405162ffffff9091168152602001610166565b6101967f000000000000000000000000000000000000000000000000000000000000000081565b61015c610355366004610e25565b610983565b61015c7f000000000000000000000000000000000000000000000000000000000000000081565b6102707f000000000000000000000000000000000000000000000000000000000000000081565b6000808060ff7f0000000000000000000000000000000000000000000000000000000000000000166103dc61025842610e71565b6103e69190610e93565b336000908152600360205260408120549192509081905b336000908152600360205260409020600101548110156104905760008181526004602090815260408083205433845260028352818420858552835281842054600590935290832054909161045091610ec2565b61045a9190610e71565b90508482116104705761046d8184610ed9565b92505b61047a8185610ed9565b935050808061048890610eec565b9150506103fd565b509094909350915050565b6000546001600160a01b031633146104ce5760405162461bcd60e51b81526004016104c590610f05565b60405180910390fd5b600180546001600160a01b0319166001600160a01b0392909216919091179055565b6001546001600160a01b0316331461051a5760405162461bcd60e51b81526004016104c590610f05565b60018054600080546001600160a01b03199081166001600160a01b03841617909155169055565b6000546001600160a01b0316331461056b5760405162461bcd60e51b81526004016104c590610f05565b6105967f00000000000000000000000000000000000000000000000000000000000000003383610a4d565b50565b600080546001600160a01b031633146105c45760405162461bcd60e51b81526004016104c590610f05565b81518351146106085760405162461bcd60e51b815260206004820152601060248201526f3830b930b6b2ba32b9399032b93937b960811b60448201526064016104c5565b60005b83518110156106db5782818151811061062657610626610eac565b6020026020010151826106399190610ed9565b915082818151811061064d5761064d610eac565b60200260200101516005600086848151811061066b5761066b610eac565b602002602001015181526020019081526020016000208190555060065484828151811061069a5761069a610eac565b602002602001015111156106c9578381815181106106ba576106ba610eac565b60200260200101516006819055505b806106d381610eec565b91505061060b565b506107087f0000000000000000000000000000000000000000000000000000000000000000333084610b5a565b60408051600081526020810183905233917fc3991418cacd70a010fce559a44fcbb47534ca43bf7543964bdca2639f6e6e5a910160405180910390a292915050565b6000546001600160a01b031633146107745760405162461bcd60e51b81526004016104c590610f05565b6107a07f0000000000000000000000000000000000000000000000000000000000000000333084610b5a565b600082815260056020526040812080548392906107be908490610ed9565b90915550506006548211156107d35760068290555b604080518381526020810183905233917fc3991418cacd70a010fce559a44fcbb47534ca43bf7543964bdca2639f6e6e5a91015b60405180910390a25050565b600060ff7f00000000000000000000000000000000000000000000000000000000000000001661084561025842610e71565b61084f9190610e93565b33600090815260036020526040812054919250905b336000908152600360205260409020600101548110156109005782811161090057610890816001610ed9565b33600090815260036020526040812001556000818152600460209081526040808320543384526002835281842085855283528184205460059093529220546108d89190610ec2565b6108e29190610e71565b6108ec9083610ed9565b9150806108f881610eec565b915050610864565b5061092c7f00000000000000000000000000000000000000000000000000000000000000003383610a4d565b60405181815233907fba8de60c3403ec381d1d484652ea1980e3c3e56359195c92525bff4ce47ad98e90602001610807565b6003602052816000526040600020816002811061097a57600080fd5b01549150829050565b60006109b060017f0000000000000000000000000000000000000000000000000000000000000000610f28565b60ff1660017f000000000000000000000000000000000000000000000000000000000000000060ff166001856109e69190610f28565b60ff16610a1460017f0000000000000000000000000000000000000000000000000000000000000000610e93565b610a1e9190610ec2565b610a289190610ed9565b610a329190610e93565b610a3c9085610ec2565b610a469190610e71565b9392505050565b604080516001600160a01b038481166024830152604480830185905283518084039091018152606490920183526020820180516001600160e01b031663a9059cbb60e01b1790529151600092839290871691610aa99190610f41565b6000604051808303816000865af19150503d8060008114610ae6576040519150601f19603f3d011682016040523d82523d6000602084013e610aeb565b606091505b5091509150818015610b15575080511580610b15575080806020019051810190610b159190610f70565b610b535760405162461bcd60e51b815260206004820152600f60248201526e1514905394d1915497d19052531151608a1b60448201526064016104c5565b5050505050565b604080516001600160a01b0385811660248301528481166044830152606480830185905283518084039091018152608490920183526020820180516001600160e01b03166323b872dd60e01b1790529151600092839290881691610bbe9190610f41565b6000604051808303816000865af19150503d8060008114610bfb576040519150601f19603f3d011682016040523d82523d6000602084013e610c00565b606091505b5091509150818015610c2a575080511580610c2a575080806020019051810190610c2a9190610f70565b610c6c5760405162461bcd60e51b81526020600482015260136024820152721d1c985b9cd9995c919c9bdb4819985a5b1959606a1b60448201526064016104c5565b505050505050565b600060208284031215610c8657600080fd5b5035919050565b80356001600160a01b0381168114610ca457600080fd5b919050565b600060208284031215610cbb57600080fd5b610a4682610c8d565b60008060408385031215610cd757600080fd5b610ce083610c8d565b946020939093013593505050565b634e487b7160e01b600052604160045260246000fd5b600082601f830112610d1557600080fd5b8135602067ffffffffffffffff80831115610d3257610d32610cee565b8260051b604051601f19603f83011681018181108482111715610d5757610d57610cee565b604052938452858101830193838101925087851115610d7557600080fd5b83870191505b84821015610d9457813583529183019190830190610d7b565b979650505050505050565b60008060408385031215610db257600080fd5b823567ffffffffffffffff80821115610dca57600080fd5b610dd686838701610d04565b93506020850135915080821115610dec57600080fd5b50610df985828601610d04565b9150509250929050565b60008060408385031215610e1657600080fd5b50508035926020909101359150565b60008060408385031215610e3857600080fd5b82359150602083013560ff81168114610e5057600080fd5b809150509250929050565b634e487b7160e01b600052601160045260246000fd5b600082610e8e57634e487b7160e01b600052601260045260246000fd5b500490565b81810381811115610ea657610ea6610e5b565b92915050565b634e487b7160e01b600052603260045260246000fd5b8082028115828204841417610ea657610ea6610e5b565b80820180821115610ea657610ea6610e5b565b600060018201610efe57610efe610e5b565b5060010190565b6020808252600990820152683337b93134b23232b760b91b604082015260600190565b60ff8281168282160390811115610ea657610ea6610e5b565b6000825160005b81811015610f625760208186018101518583015201610f48565b506000920191825250919050565b600060208284031215610f8257600080fd5b81518015158114610a4657600080fdfea2646970667358221220182ab77eb6d8b828e68835b9e0838d238478fd56ba9a411690da78fad7c88ebf64736f6c63430008110033",
  "linkReferences": {},
  "deployedLinkReferences": {}
}