{
  "_format": "hh-sol-artifact-1",
  "contractName": "StakeBase",
  "sourceName": "contracts/stakeBase.sol",
  "abi": [
    {
      "inputs": [
        {
          "internalType": "uint8",
          "name": "maxWeeks",
          "type": "uint8"
        },
        {
          "internalType": "uint256",
          "name": "maxScale",
          "type": "uint256"
        },
        {
          "internalType": "uint8",
          "name": "lockWeeks",
          "type": "uint8"
        },
        {
          "internalType": "uint256",
          "name": "beginTime",
          "type": "uint256"
        },
        {
          "internalType": "uint256",
          "name": "endTime",
          "type": "uint256"
        },
        {
          "internalType": "address",
          "name": "_rewardToken",
          "type": "address"
        }
      ],
      "stateMutability": "nonpayable",
      "type": "constructor"
    },
    {
      "anonymous": false,
      "inputs": [
        {
          "indexed": true,
          "internalType": "address",
          "name": "user",
          "type": "address"
        },
        {
          "indexed": false,
          "internalType": "uint256",
          "name": "amount",
          "type": "uint256"
        }
      ],
      "name": "ClaimReward",
      "type": "event"
    },
    {
      "anonymous": false,
      "inputs": [
        {
          "indexed": true,
          "internalType": "address",
          "name": "user",
          "type": "address"
        },
        {
          "indexed": false,
          "internalType": "uint256",
          "name": "no",
          "type": "uint256"
        },
        {
          "indexed": false,
          "internalType": "uint256",
          "name": "amount",
          "type": "uint256"
        }
      ],
      "name": "SetReward",
      "type": "event"
    },
    {
      "inputs": [],
      "name": "BEGIN_TIME",
      "outputs": [
        {
          "internalType": "uint256",
          "name": "",
          "type": "uint256"
        }
      ],
      "stateMutability": "view",
      "type": "function"
    },
    {
      "inputs": [],
      "name": "END_TIME",
      "outputs": [
        {
          "internalType": "uint256",
          "name": "",
          "type": "uint256"
        }
      ],
      "stateMutability": "view",
      "type": "function"
    },
    {
      "inputs": [],
      "name": "LOCK_WEEKNUM",
      "outputs": [
        {
          "internalType": "uint8",
          "name": "",
          "type": "uint8"
        }
      ],
      "stateMutability": "view",
      "type": "function"
    },
    {
      "inputs": [],
      "name": "MAX_SCALE",
      "outputs": [
        {
          "internalType": "uint256",
          "name": "",
          "type": "uint256"
        }
      ],
      "stateMutability": "view",
      "type": "function"
    },
    {
      "inputs": [],
      "name": "MAX_WEEKS",
      "outputs": [
        {
          "internalType": "uint8",
          "name": "",
          "type": "uint8"
        }
      ],
      "stateMutability": "view",
      "type": "function"
    },
    {
      "inputs": [],
      "name": "WEEK_SECONDS",
      "outputs": [
        {
          "internalType": "uint24",
          "name": "",
          "type": "uint24"
        }
      ],
      "stateMutability": "view",
      "type": "function"
    },
    {
      "inputs": [],
      "name": "acceptSetter",
      "outputs": [],
      "stateMutability": "nonpayable",
      "type": "function"
    },
    {
      "inputs": [],
      "name": "canClaimAmount",
      "outputs": [
        {
          "internalType": "uint256",
          "name": "",
          "type": "uint256"
        }
      ],
      "stateMutability": "view",
      "type": "function"
    },
    {
      "inputs": [],
      "name": "claimReward",
      "outputs": [],
      "stateMutability": "nonpayable",
      "type": "function"
    },
    {
      "inputs": [
        {
          "internalType": "uint256",
          "name": "amount",
          "type": "uint256"
        },
        {
          "internalType": "uint8",
          "name": "k",
          "type": "uint8"
        }
      ],
      "name": "getScore",
      "outputs": [
        {
          "internalType": "uint256",
          "name": "score",
          "type": "uint256"
        }
      ],
      "stateMutability": "view",
      "type": "function"
    },
    {
      "inputs": [],
      "name": "latestNo",
      "outputs": [
        {
          "internalType": "uint256",
          "name": "",
          "type": "uint256"
        }
      ],
      "stateMutability": "view",
      "type": "function"
    },
    {
      "inputs": [],
      "name": "lockedRewardAmount",
      "outputs": [
        {
          "internalType": "uint256",
          "name": "",
          "type": "uint256"
        },
        {
          "internalType": "uint256[]",
          "name": "",
          "type": "uint256[]"
        }
      ],
      "stateMutability": "view",
      "type": "function"
    },
    {
      "inputs": [],
      "name": "owner",
      "outputs": [
        {
          "internalType": "address",
          "name": "",
          "type": "address"
        }
      ],
      "stateMutability": "view",
      "type": "function"
    },
    {
      "inputs": [],
      "name": "rewardToken",
      "outputs": [
        {
          "internalType": "address",
          "name": "",
          "type": "address"
        }
      ],
      "stateMutability": "view",
      "type": "function"
    },
    {
      "inputs": [
        {
          "internalType": "uint256",
          "name": "",
          "type": "uint256"
        }
      ],
      "name": "rewardsOf",
      "outputs": [
        {
          "internalType": "uint256",
          "name": "",
          "type": "uint256"
        }
      ],
      "stateMutability": "view",
      "type": "function"
    },
    {
      "inputs": [
        {
          "internalType": "uint256",
          "name": "no",
          "type": "uint256"
        },
        {
          "internalType": "uint256",
          "name": "amount",
          "type": "uint256"
        }
      ],
      "name": "setReward",
      "outputs": [],
      "stateMutability": "nonpayable",
      "type": "function"
    },
    {
      "inputs": [
        {
          "internalType": "uint256[]",
          "name": "nos",
          "type": "uint256[]"
        },
        {
          "internalType": "uint256[]",
          "name": "amounts",
          "type": "uint256[]"
        }
      ],
      "name": "setRewards",
      "outputs": [
        {
          "internalType": "uint256",
          "name": "total",
          "type": "uint256"
        }
      ],
      "stateMutability": "nonpayable",
      "type": "function"
    },
    {
      "inputs": [
        {
          "internalType": "uint256",
          "name": "",
          "type": "uint256"
        }
      ],
      "name": "totalScores",
      "outputs": [
        {
          "internalType": "uint256",
          "name": "",
          "type": "uint256"
        }
      ],
      "stateMutability": "view",
      "type": "function"
    },
    {
      "inputs": [
        {
          "internalType": "address",
          "name": "_owner",
          "type": "address"
        }
      ],
      "name": "transferOwner",
      "outputs": [],
      "stateMutability": "nonpayable",
      "type": "function"
    },
    {
      "inputs": [
        {
          "internalType": "address",
          "name": "",
          "type": "address"
        },
        {
          "internalType": "uint256",
          "name": "",
          "type": "uint256"
        }
      ],
      "name": "userCanClaimWeeks",
      "outputs": [
        {
          "internalType": "uint256",
          "name": "",
          "type": "uint256"
        }
      ],
      "stateMutability": "view",
      "type": "function"
    },
    {
      "inputs": [
        {
          "internalType": "address",
          "name": "",
          "type": "address"
        },
        {
          "internalType": "uint256",
          "name": "",
          "type": "uint256"
        }
      ],
      "name": "userScores",
      "outputs": [
        {
          "internalType": "uint256",
          "name": "",
          "type": "uint256"
        }
      ],
      "stateMutability": "view",
      "type": "function"
    },
    {
      "inputs": [
        {
          "internalType": "uint256",
          "name": "amount",
          "type": "uint256"
        }
      ],
      "name": "withdrawRewards",
      "outputs": [],
      "stateMutability": "nonpayable",
      "type": "function"
    }
  ],
  "bytecode": "0x61014060405234801561001157600080fd5b506040516113a93803806113a983398101604081905261003091610087565b6001600160a01b031660805260ff94851660a05260c093909352921660e0526101009190915261012052600080546001600160a01b031916331790556100f8565b805160ff8116811461008257600080fd5b919050565b60008060008060008060c087890312156100a057600080fd5b6100a987610071565b9550602087015194506100be60408801610071565b6060880151608089015160a08a015192965090945092506001600160a01b03811681146100ea57600080fd5b809150509295509295509295565b60805160a05160c05160e051610100516101205161121c61018d60003960006101e1015260006102ed01526000818161017f01528181610461015281816105510152610a0a01526000818161036b0152610bf601526000818161033101528181610b920152610bbd01526000818161039201528181610761015281816108d20152818161096a0152610b0c015261121c6000f3fe608060405234801561001057600080fd5b50600436106101425760003560e01c80639342c8f4116100b8578063c75363b61161007c578063c75363b6146102e8578063cd671a581461030f578063e11400bb1461032c578063ee3453ed14610353578063f6def7cf14610366578063f7c618c11461038d57600080fd5b80639342c8f414610294578063979db1c4146102a7578063a47bd496146102ba578063b88a802f146102cd578063bb57852d146102d557600080fd5b80634fb2e45d1161010a5780634fb2e45d146102035780635b680a45146102185780635f8e422f146102435780638431165e1461024b5780638923de2b146102535780638da5cb5b1461026957600080fd5b80630bce1284146101475780630d437d401461017a578063157775df146101b357806329ed1cfd146101d357806337ba682d146101dc575b600080fd5b610167610155366004610e7a565b60056020526000908152604090205481565b6040519081526020015b60405180910390f35b6101a17f000000000000000000000000000000000000000000000000000000000000000081565b60405160ff9091168152602001610171565b6101676101c1366004610e7a565b60046020526000908152604090205481565b61016760065481565b6101677f000000000000000000000000000000000000000000000000000000000000000081565b610216610211366004610eaf565b6103b4565b005b610167610226366004610eca565b600260209081526000928352604080842090915290825290205481565b610216610409565b61016761045a565b61025b610548565b604051610171929190610ef4565b60005461027c906001600160a01b031681565b6040516001600160a01b039091168152602001610171565b6102166102a2366004610e7a565b610732565b6101676102b5366004610ff3565b61078a565b6102166102c8366004611057565b61093b565b610216610a04565b6101676102e3366004610eca565b610b64565b6101677f000000000000000000000000000000000000000000000000000000000000000081565b61031861025881565b60405162ffffff9091168152602001610171565b6101a17f000000000000000000000000000000000000000000000000000000000000000081565b610167610361366004611079565b610b89565b6101677f000000000000000000000000000000000000000000000000000000000000000081565b61027c7f000000000000000000000000000000000000000000000000000000000000000081565b6000546001600160a01b031633146103e75760405162461bcd60e51b81526004016103de906110af565b60405180910390fd5b600180546001600160a01b0319166001600160a01b0392909216919091179055565b6001546001600160a01b031633146104335760405162461bcd60e51b81526004016103de906110af565b60018054600080546001600160a01b03199081166001600160a01b03841617909155169055565b60008060ff7f00000000000000000000000000000000000000000000000000000000000000001661048d610258426110e8565b610497919061110a565b33600090815260036020526040812054919250905b3360009081526003602052604090206001015481101561054157828111610541576000818152600460205260409020541561052f576000818152600460209081526040808320543384526002835281842085855283528184205460059093529220546105189190611139565b61052291906110e8565b61052c9083611150565b91505b8061053981611163565b9150506104ac565b5092915050565b600060608160ff7f00000000000000000000000000000000000000000000000000000000000000001661057d610258426110e8565b610587919061110a565b610592906001611150565b336000908152600360205260409020909150819060010154116105c75760408051600081526020810190915290939092509050565b336000908152600360205260408120600101546105e590839061110a565b3360009081526003602052604090205490915081116106135733600090815260036020526040902054610615565b805b336000908152600360205260408120600101549192509061063790839061110a565b67ffffffffffffffff81111561064f5761064f610f42565b604051908082528060200260200182016040528015610678578160200160208202803683370190505b509050815b336000908152600360205260409020600101548110156107265760008181526004602052604090205415610714576000818152600460209081526040808320543384526002835281842085855283528184205460059093529220546106e29190611139565b6106ec91906110e8565b826106f7868461110a565b8151811061070757610707611123565b6020026020010181815250505b8061071e81611163565b91505061067d565b50919491935090915050565b6000546001600160a01b0316331461075c5760405162461bcd60e51b81526004016103de906110af565b6107877f00000000000000000000000000000000000000000000000000000000000000003383610c53565b50565b600080546001600160a01b031633146107b55760405162461bcd60e51b81526004016103de906110af565b81518351146107f95760405162461bcd60e51b815260206004820152601060248201526f3830b930b6b2ba32b9399032b93937b960811b60448201526064016103de565b60005b83518110156108cc5782818151811061081757610817611123565b60200260200101518261082a9190611150565b915082818151811061083e5761083e611123565b60200260200101516005600086848151811061085c5761085c611123565b602002602001015181526020019081526020016000208190555060065484828151811061088b5761088b611123565b602002602001015111156108ba578381815181106108ab576108ab611123565b60200260200101516006819055505b806108c481611163565b9150506107fc565b506108f97f0000000000000000000000000000000000000000000000000000000000000000333084610d60565b60408051600081526020810183905233917fc3991418cacd70a010fce559a44fcbb47534ca43bf7543964bdca2639f6e6e5a910160405180910390a292915050565b6000546001600160a01b031633146109655760405162461bcd60e51b81526004016103de906110af565b6109917f0000000000000000000000000000000000000000000000000000000000000000333084610d60565b600082815260056020526040812080548392906109af908490611150565b90915550506006548211156109c45760068290555b604080518381526020810183905233917fc3991418cacd70a010fce559a44fcbb47534ca43bf7543964bdca2639f6e6e5a91015b60405180910390a25050565b600060ff7f000000000000000000000000000000000000000000000000000000000000000016610a36610258426110e8565b610a40919061110a565b33600090815260036020526040812054919250905b33600090815260036020526040902060010154811015610b0657828111610b065760008181526004602052604090205415610af457610a95816001611150565b3360009081526003602052604081200155600081815260046020908152604080832054338452600283528184208585528352818420546005909352922054610add9190611139565b610ae791906110e8565b610af19083611150565b91505b80610afe81611163565b915050610a55565b50610b327f00000000000000000000000000000000000000000000000000000000000000003383610c53565b60405181815233907fba8de60c3403ec381d1d484652ea1980e3c3e56359195c92525bff4ce47ad98e906020016109f8565b60036020528160005260406000208160028110610b8057600080fd5b01549150829050565b6000610bb660017f000000000000000000000000000000000000000000000000000000000000000061117c565b60ff1660017f000000000000000000000000000000000000000000000000000000000000000060ff16600185610bec919061117c565b60ff16610c1a60017f000000000000000000000000000000000000000000000000000000000000000061110a565b610c249190611139565b610c2e9190611150565b610c38919061110a565b610c429085611139565b610c4c91906110e8565b9392505050565b604080516001600160a01b038481166024830152604480830185905283518084039091018152606490920183526020820180516001600160e01b031663a9059cbb60e01b1790529151600092839290871691610caf9190611195565b6000604051808303816000865af19150503d8060008114610cec576040519150601f19603f3d011682016040523d82523d6000602084013e610cf1565b606091505b5091509150818015610d1b575080511580610d1b575080806020019051810190610d1b91906111c4565b610d595760405162461bcd60e51b815260206004820152600f60248201526e1514905394d1915497d19052531151608a1b60448201526064016103de565b5050505050565b604080516001600160a01b0385811660248301528481166044830152606480830185905283518084039091018152608490920183526020820180516001600160e01b03166323b872dd60e01b1790529151600092839290881691610dc49190611195565b6000604051808303816000865af19150503d8060008114610e01576040519150601f19603f3d011682016040523d82523d6000602084013e610e06565b606091505b5091509150818015610e30575080511580610e30575080806020019051810190610e3091906111c4565b610e725760405162461bcd60e51b81526020600482015260136024820152721d1c985b9cd9995c919c9bdb4819985a5b1959606a1b60448201526064016103de565b505050505050565b600060208284031215610e8c57600080fd5b5035919050565b80356001600160a01b0381168114610eaa57600080fd5b919050565b600060208284031215610ec157600080fd5b610c4c82610e93565b60008060408385031215610edd57600080fd5b610ee683610e93565b946020939093013593505050565b6000604082018483526020604081850152818551808452606086019150828701935060005b81811015610f3557845183529383019391830191600101610f19565b5090979650505050505050565b634e487b7160e01b600052604160045260246000fd5b600082601f830112610f6957600080fd5b8135602067ffffffffffffffff80831115610f8657610f86610f42565b8260051b604051601f19603f83011681018181108482111715610fab57610fab610f42565b604052938452858101830193838101925087851115610fc957600080fd5b83870191505b84821015610fe857813583529183019190830190610fcf565b979650505050505050565b6000806040838503121561100657600080fd5b823567ffffffffffffffff8082111561101e57600080fd5b61102a86838701610f58565b9350602085013591508082111561104057600080fd5b5061104d85828601610f58565b9150509250929050565b6000806040838503121561106a57600080fd5b50508035926020909101359150565b6000806040838503121561108c57600080fd5b82359150602083013560ff811681146110a457600080fd5b809150509250929050565b6020808252600990820152683337b93134b23232b760b91b604082015260600190565b634e487b7160e01b600052601160045260246000fd5b60008261110557634e487b7160e01b600052601260045260246000fd5b500490565b8181038181111561111d5761111d6110d2565b92915050565b634e487b7160e01b600052603260045260246000fd5b808202811582820484141761111d5761111d6110d2565b8082018082111561111d5761111d6110d2565b600060018201611175576111756110d2565b5060010190565b60ff828116828216039081111561111d5761111d6110d2565b6000825160005b818110156111b6576020818601810151858301520161119c565b506000920191825250919050565b6000602082840312156111d657600080fd5b81518015158114610c4c57600080fdfea2646970667358221220fe99470f623b4dc9ae5f47bdbf8d42ea02b56ec938f98e67453ce4f428f9d96e64736f6c63430008110033",
  "linkReferences": {},
  "deployedLinkReferences": {}
}