{
  "_format": "hh-sol-artifact-1",
  "contractName": "StakeBase",
  "sourceName": "contracts/stakeBase.sol",
  "abi": [
    {
      "inputs": [
        {
          "internalType": "uint8",
          "name": "maxWeeks",
          "type": "uint8"
        },
        {
          "internalType": "uint256",
          "name": "maxScale",
          "type": "uint256"
        },
        {
          "internalType": "uint8",
          "name": "lockWeeks",
          "type": "uint8"
        },
        {
          "internalType": "address",
          "name": "_rewardToken",
          "type": "address"
        }
      ],
      "stateMutability": "nonpayable",
      "type": "constructor"
    },
    {
      "anonymous": false,
      "inputs": [
        {
          "indexed": true,
          "internalType": "address",
          "name": "user",
          "type": "address"
        },
        {
          "indexed": false,
          "internalType": "uint256",
          "name": "no",
          "type": "uint256"
        },
        {
          "indexed": false,
          "internalType": "uint256",
          "name": "amount",
          "type": "uint256"
        }
      ],
      "name": "SetReward",
      "type": "event"
    },
    {
      "inputs": [],
      "name": "LOCK_WEEKNUM",
      "outputs": [
        {
          "internalType": "uint8",
          "name": "",
          "type": "uint8"
        }
      ],
      "stateMutability": "view",
      "type": "function"
    },
    {
      "inputs": [],
      "name": "MAX_SCALE",
      "outputs": [
        {
          "internalType": "uint256",
          "name": "",
          "type": "uint256"
        }
      ],
      "stateMutability": "view",
      "type": "function"
    },
    {
      "inputs": [],
      "name": "MAX_WEEKS",
      "outputs": [
        {
          "internalType": "uint8",
          "name": "",
          "type": "uint8"
        }
      ],
      "stateMutability": "view",
      "type": "function"
    },
    {
      "inputs": [],
      "name": "WEEK_SECONDS",
      "outputs": [
        {
          "internalType": "uint24",
          "name": "",
          "type": "uint24"
        }
      ],
      "stateMutability": "view",
      "type": "function"
    },
    {
      "inputs": [],
      "name": "acceptSetter",
      "outputs": [],
      "stateMutability": "nonpayable",
      "type": "function"
    },
    {
      "inputs": [
        {
          "internalType": "uint256",
          "name": "",
          "type": "uint256"
        },
        {
          "internalType": "uint256",
          "name": "",
          "type": "uint256"
        }
      ],
      "name": "bClaimReward",
      "outputs": [
        {
          "internalType": "bool",
          "name": "",
          "type": "bool"
        }
      ],
      "stateMutability": "view",
      "type": "function"
    },
    {
      "inputs": [
        {
          "internalType": "uint256",
          "name": "amount",
          "type": "uint256"
        },
        {
          "internalType": "uint8",
          "name": "k",
          "type": "uint8"
        }
      ],
      "name": "getScore",
      "outputs": [
        {
          "internalType": "uint256",
          "name": "score",
          "type": "uint256"
        }
      ],
      "stateMutability": "view",
      "type": "function"
    },
    {
      "inputs": [],
      "name": "latestNo",
      "outputs": [
        {
          "internalType": "uint256",
          "name": "",
          "type": "uint256"
        }
      ],
      "stateMutability": "view",
      "type": "function"
    },
    {
      "inputs": [],
      "name": "owner",
      "outputs": [
        {
          "internalType": "address",
          "name": "",
          "type": "address"
        }
      ],
      "stateMutability": "view",
      "type": "function"
    },
    {
      "inputs": [],
      "name": "rewardToken",
      "outputs": [
        {
          "internalType": "address",
          "name": "",
          "type": "address"
        }
      ],
      "stateMutability": "view",
      "type": "function"
    },
    {
      "inputs": [
        {
          "internalType": "uint256",
          "name": "",
          "type": "uint256"
        }
      ],
      "name": "rewardsOf",
      "outputs": [
        {
          "internalType": "uint256",
          "name": "",
          "type": "uint256"
        }
      ],
      "stateMutability": "view",
      "type": "function"
    },
    {
      "inputs": [
        {
          "internalType": "uint256",
          "name": "no",
          "type": "uint256"
        },
        {
          "internalType": "uint256",
          "name": "amount",
          "type": "uint256"
        }
      ],
      "name": "setReward",
      "outputs": [],
      "stateMutability": "nonpayable",
      "type": "function"
    },
    {
      "inputs": [
        {
          "internalType": "uint256[]",
          "name": "nos",
          "type": "uint256[]"
        },
        {
          "internalType": "uint256[]",
          "name": "amounts",
          "type": "uint256[]"
        }
      ],
      "name": "setRewards",
      "outputs": [
        {
          "internalType": "uint256",
          "name": "total",
          "type": "uint256"
        }
      ],
      "stateMutability": "nonpayable",
      "type": "function"
    },
    {
      "inputs": [
        {
          "internalType": "uint256",
          "name": "",
          "type": "uint256"
        }
      ],
      "name": "totalScores",
      "outputs": [
        {
          "internalType": "uint256",
          "name": "",
          "type": "uint256"
        }
      ],
      "stateMutability": "view",
      "type": "function"
    },
    {
      "inputs": [
        {
          "internalType": "address",
          "name": "_owner",
          "type": "address"
        }
      ],
      "name": "transferOwner",
      "outputs": [],
      "stateMutability": "nonpayable",
      "type": "function"
    }
  ],
  "bytecode": "0x61010060405234801561001157600080fd5b50604051610c16380380610c168339810160408190526100309161007b565b6001600160a01b031660805260ff92831660a05260c0919091521660e052600080546001600160a01b031916331790556100d7565b805160ff8116811461007657600080fd5b919050565b6000806000806080858703121561009157600080fd5b61009a85610065565b9350602085015192506100af60408601610065565b60608601519092506001600160a01b03811681146100cc57600080fd5b939692955090935050565b60805160a05160c05160e051610ae36101336000396000610132015260008181610297015261065001526000818161025d015281816105ec01526106170152600081816102be015281816104b2015261054a0152610ae36000f3fe608060405234801561001057600080fd5b50600436106100f55760003560e01c8063979db1c411610097578063e11400bb11610066578063e11400bb14610258578063ee3453ed1461027f578063f6def7cf14610292578063f7c618c1146102b957600080fd5b8063979db1c4146101d7578063a47bd496146101ea578063cd671a58146101fd578063ce6d3e3e1461021a57600080fd5b806329ed1cfd116100d357806329ed1cfd146101865780634fb2e45d1461018f5780635f8e422f146101a45780638da5cb5b146101ac57600080fd5b80630bce1284146100fa5780630d437d401461012d578063157775df14610166575b600080fd5b61011a6101083660046107c7565b60046020526000908152604090205481565b6040519081526020015b60405180910390f35b6101547f000000000000000000000000000000000000000000000000000000000000000081565b60405160ff9091168152602001610124565b61011a6101743660046107c7565b60036020526000908152604090205481565b61011a60055481565b6101a261019d3660046107e0565b6102e0565b005b6101a2610335565b6000546101bf906001600160a01b031681565b6040516001600160a01b039091168152602001610124565b61011a6101e53660046108ba565b610386565b6101a26101f836600461091e565b61051b565b61020661025881565b60405162ffffff9091168152602001610124565b61024861022836600461091e565b600260209081526000928352604080842090915290825290205460ff1681565b6040519015158152602001610124565b6101547f000000000000000000000000000000000000000000000000000000000000000081565b61011a61028d366004610940565b6105e3565b61011a7f000000000000000000000000000000000000000000000000000000000000000081565b6101bf7f000000000000000000000000000000000000000000000000000000000000000081565b6000546001600160a01b031633146103135760405162461bcd60e51b815260040161030a90610976565b60405180910390fd5b600180546001600160a01b0319166001600160a01b0392909216919091179055565b6001546001600160a01b0316331461035f5760405162461bcd60e51b815260040161030a90610976565b60018054600080546001600160a01b03199081166001600160a01b03841617909155169055565b600080546001600160a01b031633146103b15760405162461bcd60e51b815260040161030a90610976565b60005b8351811015610441578281815181106103cf576103cf610999565b6020026020010151826103e291906109c5565b91508281815181106103f6576103f6610999565b60200260200101516004600086848151811061041457610414610999565b60200260200101518152602001908152602001600020819055508080610439906109de565b9150506103b4565b506000835111801561047a5750600554836001855161046091906109f7565b8151811061047057610470610999565b6020026020010151115b156104ad57826001845161048e91906109f7565b8151811061049e5761049e610999565b60200260200101516005819055505b6104d97f00000000000000000000000000000000000000000000000000000000000000003330846106ad565b60408051600081526020810183905233917fc3991418cacd70a010fce559a44fcbb47534ca43bf7543964bdca2639f6e6e5a910160405180910390a292915050565b6000546001600160a01b031633146105455760405162461bcd60e51b815260040161030a90610976565b6105717f00000000000000000000000000000000000000000000000000000000000000003330846106ad565b6000828152600460205260408120805483929061058f9084906109c5565b90915550506005548211156105a45760058290555b604080518381526020810183905233917fc3991418cacd70a010fce559a44fcbb47534ca43bf7543964bdca2639f6e6e5a910160405180910390a25050565b600061061060017f0000000000000000000000000000000000000000000000000000000000000000610a0a565b60ff1660017f000000000000000000000000000000000000000000000000000000000000000060ff166001856106469190610a0a565b60ff1661067460017f00000000000000000000000000000000000000000000000000000000000000006109f7565b61067e9190610a23565b61068891906109c5565b61069291906109f7565b61069c9085610a23565b6106a69190610a3a565b9392505050565b604080516001600160a01b0385811660248301528481166044830152606480830185905283518084039091018152608490920183526020820180516001600160e01b03166323b872dd60e01b17905291516000928392908816916107119190610a5c565b6000604051808303816000865af19150503d806000811461074e576040519150601f19603f3d011682016040523d82523d6000602084013e610753565b606091505b509150915081801561077d57508051158061077d57508080602001905181019061077d9190610a8b565b6107bf5760405162461bcd60e51b81526020600482015260136024820152721d1c985b9cd9995c919c9bdb4819985a5b1959606a1b604482015260640161030a565b505050505050565b6000602082840312156107d957600080fd5b5035919050565b6000602082840312156107f257600080fd5b81356001600160a01b03811681146106a657600080fd5b634e487b7160e01b600052604160045260246000fd5b600082601f83011261083057600080fd5b8135602067ffffffffffffffff8083111561084d5761084d610809565b8260051b604051601f19603f8301168101818110848211171561087257610872610809565b60405293845285810183019383810192508785111561089057600080fd5b83870191505b848210156108af57813583529183019190830190610896565b979650505050505050565b600080604083850312156108cd57600080fd5b823567ffffffffffffffff808211156108e557600080fd5b6108f18683870161081f565b9350602085013591508082111561090757600080fd5b506109148582860161081f565b9150509250929050565b6000806040838503121561093157600080fd5b50508035926020909101359150565b6000806040838503121561095357600080fd5b82359150602083013560ff8116811461096b57600080fd5b809150509250929050565b6020808252600990820152683337b93134b23232b760b91b604082015260600190565b634e487b7160e01b600052603260045260246000fd5b634e487b7160e01b600052601160045260246000fd5b808201808211156109d8576109d86109af565b92915050565b6000600182016109f0576109f06109af565b5060010190565b818103818111156109d8576109d86109af565b60ff82811682821603908111156109d8576109d86109af565b80820281158282048414176109d8576109d86109af565b600082610a5757634e487b7160e01b600052601260045260246000fd5b500490565b6000825160005b81811015610a7d5760208186018101518583015201610a63565b506000920191825250919050565b600060208284031215610a9d57600080fd5b815180151581146106a657600080fdfea2646970667358221220932c07748d910b87a450e00358d2c923980e3149046395a248c2ab28494ea4c064736f6c63430008110033",
  "linkReferences": {},
  "deployedLinkReferences": {}
}