{
  "_format": "hh-sol-artifact-1",
  "contractName": "StakeBase",
  "sourceName": "contracts/stakeBase.sol",
  "abi": [
    {
      "inputs": [
        {
          "internalType": "uint8",
          "name": "maxWeeks",
          "type": "uint8"
        },
        {
          "internalType": "uint256",
          "name": "maxScale",
          "type": "uint256"
        },
        {
          "internalType": "address",
          "name": "_rewardToken",
          "type": "address"
        }
      ],
      "stateMutability": "nonpayable",
      "type": "constructor"
    },
    {
      "anonymous": false,
      "inputs": [
        {
          "indexed": true,
          "internalType": "address",
          "name": "user",
          "type": "address"
        },
        {
          "indexed": false,
          "internalType": "uint256",
          "name": "no",
          "type": "uint256"
        },
        {
          "indexed": false,
          "internalType": "uint256",
          "name": "amount",
          "type": "uint256"
        }
      ],
      "name": "SetReward",
      "type": "event"
    },
    {
      "inputs": [],
      "name": "MAX_SCALE",
      "outputs": [
        {
          "internalType": "uint256",
          "name": "",
          "type": "uint256"
        }
      ],
      "stateMutability": "view",
      "type": "function"
    },
    {
      "inputs": [],
      "name": "MAX_WEEKS",
      "outputs": [
        {
          "internalType": "uint8",
          "name": "",
          "type": "uint8"
        }
      ],
      "stateMutability": "view",
      "type": "function"
    },
    {
      "inputs": [],
      "name": "WEEK_SECONDS",
      "outputs": [
        {
          "internalType": "uint24",
          "name": "",
          "type": "uint24"
        }
      ],
      "stateMutability": "view",
      "type": "function"
    },
    {
      "inputs": [],
      "name": "acceptSetter",
      "outputs": [],
      "stateMutability": "nonpayable",
      "type": "function"
    },
    {
      "inputs": [
        {
          "internalType": "uint256",
          "name": "",
          "type": "uint256"
        },
        {
          "internalType": "uint256",
          "name": "",
          "type": "uint256"
        }
      ],
      "name": "bClaimReward",
      "outputs": [
        {
          "internalType": "bool",
          "name": "",
          "type": "bool"
        }
      ],
      "stateMutability": "view",
      "type": "function"
    },
    {
      "inputs": [
        {
          "internalType": "uint256",
          "name": "amount",
          "type": "uint256"
        },
        {
          "internalType": "uint8",
          "name": "k",
          "type": "uint8"
        }
      ],
      "name": "getScore",
      "outputs": [
        {
          "internalType": "uint256",
          "name": "score",
          "type": "uint256"
        }
      ],
      "stateMutability": "view",
      "type": "function"
    },
    {
      "inputs": [],
      "name": "latestNo",
      "outputs": [
        {
          "internalType": "uint256",
          "name": "",
          "type": "uint256"
        }
      ],
      "stateMutability": "view",
      "type": "function"
    },
    {
      "inputs": [],
      "name": "owner",
      "outputs": [
        {
          "internalType": "address",
          "name": "",
          "type": "address"
        }
      ],
      "stateMutability": "view",
      "type": "function"
    },
    {
      "inputs": [],
      "name": "rewardToken",
      "outputs": [
        {
          "internalType": "address",
          "name": "",
          "type": "address"
        }
      ],
      "stateMutability": "view",
      "type": "function"
    },
    {
      "inputs": [
        {
          "internalType": "uint256",
          "name": "",
          "type": "uint256"
        }
      ],
      "name": "rewardsOf",
      "outputs": [
        {
          "internalType": "uint256",
          "name": "",
          "type": "uint256"
        }
      ],
      "stateMutability": "view",
      "type": "function"
    },
    {
      "inputs": [
        {
          "internalType": "uint256[]",
          "name": "nos",
          "type": "uint256[]"
        },
        {
          "internalType": "uint256[]",
          "name": "amounts",
          "type": "uint256[]"
        }
      ],
      "name": "setReward",
      "outputs": [
        {
          "internalType": "uint256",
          "name": "total",
          "type": "uint256"
        }
      ],
      "stateMutability": "nonpayable",
      "type": "function"
    },
    {
      "inputs": [
        {
          "internalType": "uint256",
          "name": "no",
          "type": "uint256"
        },
        {
          "internalType": "uint256",
          "name": "amount",
          "type": "uint256"
        }
      ],
      "name": "setReward",
      "outputs": [],
      "stateMutability": "nonpayable",
      "type": "function"
    },
    {
      "inputs": [
        {
          "internalType": "address",
          "name": "_owner",
          "type": "address"
        }
      ],
      "name": "transferOwner",
      "outputs": [],
      "stateMutability": "nonpayable",
      "type": "function"
    }
  ],
  "bytecode": "0x60e060405234801561001057600080fd5b50604051610aff380380610aff83398101604081905261002f9161005d565b6001600160a01b031660805260ff90911660a05260c052600080546001600160a01b031916331790556100b2565b60008060006060848603121561007257600080fd5b835160ff8116811461008357600080fd5b6020850151604086015191945092506001600160a01b03811681146100a757600080fd5b809150509250925092565b60805160a05160c0516109fb6101046000396000818161022a01526105680152600081816101de01528181610504015261052f0152600081816102510152818161033d015261047201526109fb6000f3fe608060405234801561001057600080fd5b50600436106100cf5760003560e01c8063a47bd4961161008c578063e11400bb11610066578063e11400bb146101d9578063ee3453ed14610212578063f6def7cf14610225578063f7c618c11461024c57600080fd5b8063a47bd4961461016b578063cd671a581461017e578063ce6d3e3e1461019b57600080fd5b80630bce1284146100d457806329ed1cfd146101075780634d10c55a146101105780634fb2e45d146101235780635f8e422f146101385780638da5cb5b14610140575b600080fd5b6100f46100e23660046106df565b60046020526000908152604090205481565b6040519081526020015b60405180910390f35b6100f460055481565b6100f461011e3660046107a9565b610273565b61013661013136600461080d565b6103a6565b005b6101366103f2565b600054610153906001600160a01b031681565b6040516001600160a01b0390911681526020016100fe565b610136610179366004610836565b610443565b61018761025881565b60405162ffffff90911681526020016100fe565b6101c96101a9366004610836565b600260209081526000928352604080842090915290825290205460ff1681565b60405190151581526020016100fe565b6102007f000000000000000000000000000000000000000000000000000000000000000081565b60405160ff90911681526020016100fe565b6100f4610220366004610858565b6104fb565b6100f47f000000000000000000000000000000000000000000000000000000000000000081565b6101537f000000000000000000000000000000000000000000000000000000000000000081565b600080546001600160a01b031633146102a75760405162461bcd60e51b815260040161029e9061088e565b60405180910390fd5b60005b8351811015610337578281815181106102c5576102c56108b1565b6020026020010151826102d891906108dd565b91508281815181106102ec576102ec6108b1565b60200260200101516004600086848151811061030a5761030a6108b1565b6020026020010151815260200190815260200160002081905550808061032f906108f6565b9150506102aa565b506103647f00000000000000000000000000000000000000000000000000000000000000003330846105c5565b60408051600081526020810183905233917fc3991418cacd70a010fce559a44fcbb47534ca43bf7543964bdca2639f6e6e5a910160405180910390a292915050565b6000546001600160a01b031633146103d05760405162461bcd60e51b815260040161029e9061088e565b600180546001600160a01b0319166001600160a01b0392909216919091179055565b6001546001600160a01b0316331461041c5760405162461bcd60e51b815260040161029e9061088e565b60018054600080546001600160a01b03199081166001600160a01b03841617909155169055565b6000546001600160a01b0316331461046d5760405162461bcd60e51b815260040161029e9061088e565b6104997f00000000000000000000000000000000000000000000000000000000000000003330846105c5565b600082815260046020526040812080548392906104b79084906108dd565b9091555050604080518381526020810183905233917fc3991418cacd70a010fce559a44fcbb47534ca43bf7543964bdca2639f6e6e5a910160405180910390a25050565b600061052860017f000000000000000000000000000000000000000000000000000000000000000061090f565b60ff1660017f000000000000000000000000000000000000000000000000000000000000000060ff1660018561055e919061090f565b60ff1661058c60017f0000000000000000000000000000000000000000000000000000000000000000610928565b610596919061093b565b6105a091906108dd565b6105aa9190610928565b6105b4908561093b565b6105be9190610952565b9392505050565b604080516001600160a01b0385811660248301528481166044830152606480830185905283518084039091018152608490920183526020820180516001600160e01b03166323b872dd60e01b17905291516000928392908816916106299190610974565b6000604051808303816000865af19150503d8060008114610666576040519150601f19603f3d011682016040523d82523d6000602084013e61066b565b606091505b509150915081801561069557508051158061069557508080602001905181019061069591906109a3565b6106d75760405162461bcd60e51b81526020600482015260136024820152721d1c985b9cd9995c919c9bdb4819985a5b1959606a1b604482015260640161029e565b505050505050565b6000602082840312156106f157600080fd5b5035919050565b634e487b7160e01b600052604160045260246000fd5b600082601f83011261071f57600080fd5b8135602067ffffffffffffffff8083111561073c5761073c6106f8565b8260051b604051601f19603f83011681018181108482111715610761576107616106f8565b60405293845285810183019383810192508785111561077f57600080fd5b83870191505b8482101561079e57813583529183019190830190610785565b979650505050505050565b600080604083850312156107bc57600080fd5b823567ffffffffffffffff808211156107d457600080fd5b6107e08683870161070e565b935060208501359150808211156107f657600080fd5b506108038582860161070e565b9150509250929050565b60006020828403121561081f57600080fd5b81356001600160a01b03811681146105be57600080fd5b6000806040838503121561084957600080fd5b50508035926020909101359150565b6000806040838503121561086b57600080fd5b82359150602083013560ff8116811461088357600080fd5b809150509250929050565b6020808252600990820152683337b93134b23232b760b91b604082015260600190565b634e487b7160e01b600052603260045260246000fd5b634e487b7160e01b600052601160045260246000fd5b808201808211156108f0576108f06108c7565b92915050565b600060018201610908576109086108c7565b5060010190565b60ff82811682821603908111156108f0576108f06108c7565b818103818111156108f0576108f06108c7565b80820281158282048414176108f0576108f06108c7565b60008261096f57634e487b7160e01b600052601260045260246000fd5b500490565b6000825160005b81811015610995576020818601810151858301520161097b565b506000920191825250919050565b6000602082840312156109b557600080fd5b815180151581146105be57600080fdfea2646970667358221220be51638fcd8804e7cdddb84009b2603fe47a1e67c6c3c6d8e343396c616b6ef664736f6c63430008110033",
  "linkReferences": {},
  "deployedLinkReferences": {}
}