{
  "_format": "hh-sol-artifact-1",
  "contractName": "StakeBase",
  "sourceName": "contracts/stakeBase.sol",
  "abi": [
    {
      "inputs": [
        {
          "internalType": "uint8",
          "name": "maxWeeks",
          "type": "uint8"
        },
        {
          "internalType": "uint256",
          "name": "maxScale",
          "type": "uint256"
        },
        {
          "internalType": "address",
          "name": "_rewardToken",
          "type": "address"
        }
      ],
      "stateMutability": "nonpayable",
      "type": "constructor"
    },
    {
      "anonymous": false,
      "inputs": [
        {
          "indexed": true,
          "internalType": "address",
          "name": "user",
          "type": "address"
        },
        {
          "indexed": false,
          "internalType": "uint256",
          "name": "no",
          "type": "uint256"
        },
        {
          "indexed": false,
          "internalType": "uint256",
          "name": "amount",
          "type": "uint256"
        }
      ],
      "name": "SetReward",
      "type": "event"
    },
    {
      "inputs": [],
      "name": "MAX_SCALE",
      "outputs": [
        {
          "internalType": "uint256",
          "name": "",
          "type": "uint256"
        }
      ],
      "stateMutability": "view",
      "type": "function"
    },
    {
      "inputs": [],
      "name": "MAX_WEEKS",
      "outputs": [
        {
          "internalType": "uint8",
          "name": "",
          "type": "uint8"
        }
      ],
      "stateMutability": "view",
      "type": "function"
    },
    {
      "inputs": [],
      "name": "WEEK_SECONDS",
      "outputs": [
        {
          "internalType": "uint24",
          "name": "",
          "type": "uint24"
        }
      ],
      "stateMutability": "view",
      "type": "function"
    },
    {
      "inputs": [],
      "name": "acceptSetter",
      "outputs": [],
      "stateMutability": "nonpayable",
      "type": "function"
    },
    {
      "inputs": [
        {
          "internalType": "uint256",
          "name": "",
          "type": "uint256"
        },
        {
          "internalType": "uint256",
          "name": "",
          "type": "uint256"
        }
      ],
      "name": "bClaimReward",
      "outputs": [
        {
          "internalType": "bool",
          "name": "",
          "type": "bool"
        }
      ],
      "stateMutability": "view",
      "type": "function"
    },
    {
      "inputs": [
        {
          "internalType": "uint256",
          "name": "amount",
          "type": "uint256"
        },
        {
          "internalType": "uint8",
          "name": "k",
          "type": "uint8"
        }
      ],
      "name": "getScore",
      "outputs": [
        {
          "internalType": "uint256",
          "name": "score",
          "type": "uint256"
        }
      ],
      "stateMutability": "view",
      "type": "function"
    },
    {
      "inputs": [],
      "name": "latestNo",
      "outputs": [
        {
          "internalType": "uint256",
          "name": "",
          "type": "uint256"
        }
      ],
      "stateMutability": "view",
      "type": "function"
    },
    {
      "inputs": [],
      "name": "owner",
      "outputs": [
        {
          "internalType": "address",
          "name": "",
          "type": "address"
        }
      ],
      "stateMutability": "view",
      "type": "function"
    },
    {
      "inputs": [],
      "name": "rewardToken",
      "outputs": [
        {
          "internalType": "address",
          "name": "",
          "type": "address"
        }
      ],
      "stateMutability": "view",
      "type": "function"
    },
    {
      "inputs": [
        {
          "internalType": "uint256",
          "name": "",
          "type": "uint256"
        }
      ],
      "name": "rewardsOf",
      "outputs": [
        {
          "internalType": "uint256",
          "name": "",
          "type": "uint256"
        }
      ],
      "stateMutability": "view",
      "type": "function"
    },
    {
      "inputs": [
        {
          "internalType": "uint256",
          "name": "no",
          "type": "uint256"
        },
        {
          "internalType": "uint256",
          "name": "amount",
          "type": "uint256"
        }
      ],
      "name": "setReward",
      "outputs": [],
      "stateMutability": "nonpayable",
      "type": "function"
    },
    {
      "inputs": [
        {
          "internalType": "uint256[]",
          "name": "nos",
          "type": "uint256[]"
        },
        {
          "internalType": "uint256[]",
          "name": "amounts",
          "type": "uint256[]"
        }
      ],
      "name": "setRewards",
      "outputs": [
        {
          "internalType": "uint256",
          "name": "total",
          "type": "uint256"
        }
      ],
      "stateMutability": "nonpayable",
      "type": "function"
    },
    {
      "inputs": [
        {
          "internalType": "uint256",
          "name": "",
          "type": "uint256"
        }
      ],
      "name": "totalScores",
      "outputs": [
        {
          "internalType": "uint256",
          "name": "",
          "type": "uint256"
        }
      ],
      "stateMutability": "view",
      "type": "function"
    },
    {
      "inputs": [
        {
          "internalType": "address",
          "name": "_owner",
          "type": "address"
        }
      ],
      "name": "transferOwner",
      "outputs": [],
      "stateMutability": "nonpayable",
      "type": "function"
    }
  ],
  "bytecode": "0x60e060405234801561001057600080fd5b50604051610bb5380380610bb583398101604081905261002f9161005d565b6001600160a01b031660805260ff90911660a05260c052600080546001600160a01b031916331790556100b2565b60008060006060848603121561007257600080fd5b835160ff8116811461008357600080fd5b6020850151604086015191945092506001600160a01b03811681146100a757600080fd5b809150509250925092565b60805160a05160c051610ab161010460003960008181610265015261061e015260008181610219015281816105ba01526105e501526000818161028c0152818161048001526105180152610ab16000f3fe608060405234801561001057600080fd5b50600436106100ea5760003560e01c8063a47bd4961161008c578063e11400bb11610066578063e11400bb14610214578063ee3453ed1461024d578063f6def7cf14610260578063f7c618c11461028757600080fd5b8063a47bd496146101a6578063cd671a58146101b9578063ce6d3e3e146101d657600080fd5b80634fb2e45d116100c85780634fb2e45d1461014b5780635f8e422f146101605780638da5cb5b14610168578063979db1c41461019357600080fd5b80630bce1284146100ef578063157775df1461012257806329ed1cfd14610142575b600080fd5b61010f6100fd366004610795565b60046020526000908152604090205481565b6040519081526020015b60405180910390f35b61010f610130366004610795565b60036020526000908152604090205481565b61010f60055481565b61015e6101593660046107ae565b6102ae565b005b61015e610303565b60005461017b906001600160a01b031681565b6040516001600160a01b039091168152602001610119565b61010f6101a1366004610888565b610354565b61015e6101b43660046108ec565b6104e9565b6101c261025881565b60405162ffffff9091168152602001610119565b6102046101e43660046108ec565b600260209081526000928352604080842090915290825290205460ff1681565b6040519015158152602001610119565b61023b7f000000000000000000000000000000000000000000000000000000000000000081565b60405160ff9091168152602001610119565b61010f61025b36600461090e565b6105b1565b61010f7f000000000000000000000000000000000000000000000000000000000000000081565b61017b7f000000000000000000000000000000000000000000000000000000000000000081565b6000546001600160a01b031633146102e15760405162461bcd60e51b81526004016102d890610944565b60405180910390fd5b600180546001600160a01b0319166001600160a01b0392909216919091179055565b6001546001600160a01b0316331461032d5760405162461bcd60e51b81526004016102d890610944565b60018054600080546001600160a01b03199081166001600160a01b03841617909155169055565b600080546001600160a01b0316331461037f5760405162461bcd60e51b81526004016102d890610944565b60005b835181101561040f5782818151811061039d5761039d610967565b6020026020010151826103b09190610993565b91508281815181106103c4576103c4610967565b6020026020010151600460008684815181106103e2576103e2610967565b60200260200101518152602001908152602001600020819055508080610407906109ac565b915050610382565b50600083511180156104485750600554836001855161042e91906109c5565b8151811061043e5761043e610967565b6020026020010151115b1561047b57826001845161045c91906109c5565b8151811061046c5761046c610967565b60200260200101516005819055505b6104a77f000000000000000000000000000000000000000000000000000000000000000033308461067b565b60408051600081526020810183905233917fc3991418cacd70a010fce559a44fcbb47534ca43bf7543964bdca2639f6e6e5a910160405180910390a292915050565b6000546001600160a01b031633146105135760405162461bcd60e51b81526004016102d890610944565b61053f7f000000000000000000000000000000000000000000000000000000000000000033308461067b565b6000828152600460205260408120805483929061055d908490610993565b90915550506005548211156105725760058290555b604080518381526020810183905233917fc3991418cacd70a010fce559a44fcbb47534ca43bf7543964bdca2639f6e6e5a910160405180910390a25050565b60006105de60017f00000000000000000000000000000000000000000000000000000000000000006109d8565b60ff1660017f000000000000000000000000000000000000000000000000000000000000000060ff1660018561061491906109d8565b60ff1661064260017f00000000000000000000000000000000000000000000000000000000000000006109c5565b61064c91906109f1565b6106569190610993565b61066091906109c5565b61066a90856109f1565b6106749190610a08565b9392505050565b604080516001600160a01b0385811660248301528481166044830152606480830185905283518084039091018152608490920183526020820180516001600160e01b03166323b872dd60e01b17905291516000928392908816916106df9190610a2a565b6000604051808303816000865af19150503d806000811461071c576040519150601f19603f3d011682016040523d82523d6000602084013e610721565b606091505b509150915081801561074b57508051158061074b57508080602001905181019061074b9190610a59565b61078d5760405162461bcd60e51b81526020600482015260136024820152721d1c985b9cd9995c919c9bdb4819985a5b1959606a1b60448201526064016102d8565b505050505050565b6000602082840312156107a757600080fd5b5035919050565b6000602082840312156107c057600080fd5b81356001600160a01b038116811461067457600080fd5b634e487b7160e01b600052604160045260246000fd5b600082601f8301126107fe57600080fd5b8135602067ffffffffffffffff8083111561081b5761081b6107d7565b8260051b604051601f19603f83011681018181108482111715610840576108406107d7565b60405293845285810183019383810192508785111561085e57600080fd5b83870191505b8482101561087d57813583529183019190830190610864565b979650505050505050565b6000806040838503121561089b57600080fd5b823567ffffffffffffffff808211156108b357600080fd5b6108bf868387016107ed565b935060208501359150808211156108d557600080fd5b506108e2858286016107ed565b9150509250929050565b600080604083850312156108ff57600080fd5b50508035926020909101359150565b6000806040838503121561092157600080fd5b82359150602083013560ff8116811461093957600080fd5b809150509250929050565b6020808252600990820152683337b93134b23232b760b91b604082015260600190565b634e487b7160e01b600052603260045260246000fd5b634e487b7160e01b600052601160045260246000fd5b808201808211156109a6576109a661097d565b92915050565b6000600182016109be576109be61097d565b5060010190565b818103818111156109a6576109a661097d565b60ff82811682821603908111156109a6576109a661097d565b80820281158282048414176109a6576109a661097d565b600082610a2557634e487b7160e01b600052601260045260246000fd5b500490565b6000825160005b81811015610a4b5760208186018101518583015201610a31565b506000920191825250919050565b600060208284031215610a6b57600080fd5b8151801515811461067457600080fdfea26469706673582212203dc391f23564a79f0177e41087e35aa5fd69e62dd33e2f2b871fb02ed247bdb364736f6c63430008110033",
  "linkReferences": {},
  "deployedLinkReferences": {}
}