{
  "_format": "hh-sol-artifact-1",
  "contractName": "StakeBase",
  "sourceName": "contracts/stakeBase.sol",
  "abi": [
    {
      "inputs": [
        {
          "internalType": "uint8",
          "name": "maxWeeks",
          "type": "uint8"
        },
        {
          "internalType": "uint256",
          "name": "maxScale",
          "type": "uint256"
        },
        {
          "internalType": "uint8",
          "name": "lockWeeks",
          "type": "uint8"
        },
        {
          "internalType": "uint256",
          "name": "beginTime",
          "type": "uint256"
        },
        {
          "internalType": "uint256",
          "name": "endTime",
          "type": "uint256"
        },
        {
          "internalType": "address",
          "name": "_rewardToken",
          "type": "address"
        }
      ],
      "stateMutability": "nonpayable",
      "type": "constructor"
    },
    {
      "anonymous": false,
      "inputs": [
        {
          "indexed": true,
          "internalType": "address",
          "name": "user",
          "type": "address"
        },
        {
          "indexed": false,
          "internalType": "uint256",
          "name": "amount",
          "type": "uint256"
        }
      ],
      "name": "ClaimReward",
      "type": "event"
    },
    {
      "anonymous": false,
      "inputs": [
        {
          "indexed": true,
          "internalType": "address",
          "name": "user",
          "type": "address"
        },
        {
          "indexed": false,
          "internalType": "uint256",
          "name": "no",
          "type": "uint256"
        },
        {
          "indexed": false,
          "internalType": "uint256",
          "name": "amount",
          "type": "uint256"
        }
      ],
      "name": "SetReward",
      "type": "event"
    },
    {
      "inputs": [],
      "name": "BEGIN_TIME",
      "outputs": [
        {
          "internalType": "uint256",
          "name": "",
          "type": "uint256"
        }
      ],
      "stateMutability": "view",
      "type": "function"
    },
    {
      "inputs": [],
      "name": "END_TIME",
      "outputs": [
        {
          "internalType": "uint256",
          "name": "",
          "type": "uint256"
        }
      ],
      "stateMutability": "view",
      "type": "function"
    },
    {
      "inputs": [],
      "name": "LOCK_WEEKNUM",
      "outputs": [
        {
          "internalType": "uint8",
          "name": "",
          "type": "uint8"
        }
      ],
      "stateMutability": "view",
      "type": "function"
    },
    {
      "inputs": [],
      "name": "MAX_SCALE",
      "outputs": [
        {
          "internalType": "uint256",
          "name": "",
          "type": "uint256"
        }
      ],
      "stateMutability": "view",
      "type": "function"
    },
    {
      "inputs": [],
      "name": "MAX_WEEKS",
      "outputs": [
        {
          "internalType": "uint8",
          "name": "",
          "type": "uint8"
        }
      ],
      "stateMutability": "view",
      "type": "function"
    },
    {
      "inputs": [],
      "name": "WEEK_SECONDS",
      "outputs": [
        {
          "internalType": "uint24",
          "name": "",
          "type": "uint24"
        }
      ],
      "stateMutability": "view",
      "type": "function"
    },
    {
      "inputs": [],
      "name": "acceptSetter",
      "outputs": [],
      "stateMutability": "nonpayable",
      "type": "function"
    },
    {
      "inputs": [],
      "name": "canClaimAmount",
      "outputs": [
        {
          "internalType": "uint256",
          "name": "",
          "type": "uint256"
        }
      ],
      "stateMutability": "view",
      "type": "function"
    },
    {
      "inputs": [],
      "name": "claimReward",
      "outputs": [],
      "stateMutability": "nonpayable",
      "type": "function"
    },
    {
      "inputs": [
        {
          "internalType": "uint256",
          "name": "amount",
          "type": "uint256"
        },
        {
          "internalType": "uint8",
          "name": "k",
          "type": "uint8"
        }
      ],
      "name": "getScore",
      "outputs": [
        {
          "internalType": "uint256",
          "name": "score",
          "type": "uint256"
        }
      ],
      "stateMutability": "view",
      "type": "function"
    },
    {
      "inputs": [],
      "name": "latestNo",
      "outputs": [
        {
          "internalType": "uint256",
          "name": "",
          "type": "uint256"
        }
      ],
      "stateMutability": "view",
      "type": "function"
    },
    {
      "inputs": [],
      "name": "owner",
      "outputs": [
        {
          "internalType": "address",
          "name": "",
          "type": "address"
        }
      ],
      "stateMutability": "view",
      "type": "function"
    },
    {
      "inputs": [],
      "name": "rewardToken",
      "outputs": [
        {
          "internalType": "address",
          "name": "",
          "type": "address"
        }
      ],
      "stateMutability": "view",
      "type": "function"
    },
    {
      "inputs": [
        {
          "internalType": "uint256",
          "name": "",
          "type": "uint256"
        }
      ],
      "name": "rewardsOf",
      "outputs": [
        {
          "internalType": "uint256",
          "name": "",
          "type": "uint256"
        }
      ],
      "stateMutability": "view",
      "type": "function"
    },
    {
      "inputs": [
        {
          "internalType": "uint256[]",
          "name": "nos",
          "type": "uint256[]"
        },
        {
          "internalType": "uint256[]",
          "name": "amounts",
          "type": "uint256[]"
        }
      ],
      "name": "setRewards",
      "outputs": [
        {
          "internalType": "uint256",
          "name": "total",
          "type": "uint256"
        }
      ],
      "stateMutability": "nonpayable",
      "type": "function"
    },
    {
      "inputs": [
        {
          "internalType": "uint256",
          "name": "",
          "type": "uint256"
        }
      ],
      "name": "totalScores",
      "outputs": [
        {
          "internalType": "uint256",
          "name": "",
          "type": "uint256"
        }
      ],
      "stateMutability": "view",
      "type": "function"
    },
    {
      "inputs": [
        {
          "internalType": "address",
          "name": "_owner",
          "type": "address"
        }
      ],
      "name": "transferOwner",
      "outputs": [],
      "stateMutability": "nonpayable",
      "type": "function"
    },
    {
      "inputs": [
        {
          "internalType": "address",
          "name": "",
          "type": "address"
        },
        {
          "internalType": "uint256",
          "name": "",
          "type": "uint256"
        }
      ],
      "name": "userCanClaimWeeks",
      "outputs": [
        {
          "internalType": "uint256",
          "name": "",
          "type": "uint256"
        }
      ],
      "stateMutability": "view",
      "type": "function"
    },
    {
      "inputs": [
        {
          "internalType": "address",
          "name": "",
          "type": "address"
        },
        {
          "internalType": "uint256",
          "name": "",
          "type": "uint256"
        }
      ],
      "name": "userScores",
      "outputs": [
        {
          "internalType": "uint256",
          "name": "",
          "type": "uint256"
        }
      ],
      "stateMutability": "view",
      "type": "function"
    },
    {
      "inputs": [
        {
          "internalType": "uint256",
          "name": "amount",
          "type": "uint256"
        }
      ],
      "name": "withdrawRewards",
      "outputs": [],
      "stateMutability": "nonpayable",
      "type": "function"
    }
  ],
  "bytecode": "0x61014060405234801561001157600080fd5b5060405161101638038061101683398101604081905261003091610087565b6001600160a01b031660805260ff94851660a05260c093909352921660e0526101009190915261012052600080546001600160a01b031916331790556100f8565b805160ff8116811461008257600080fd5b919050565b60008060008060008060c087890312156100a057600080fd5b6100a987610071565b9550602087015194506100be60408801610071565b6060880151608089015160a08a015192965090945092506001600160a01b03811681146100ea57600080fd5b809150509295509295509295565b60805160a05160c05160e0516101005161012051610e9761017f60003960006101cb015260006102ae01526000818161016901528181610422015261070301526000818161032c01526108e10152600081816102f20152818161087d01526108a8015260008181610353015281816105230152818161069401526107f00152610e976000f3fe608060405234801561001057600080fd5b506004361061012c5760003560e01c80639342c8f4116100ad578063cd671a5811610071578063cd671a58146102d0578063e11400bb146102ed578063ee3453ed14610314578063f6def7cf14610327578063f7c618c11461034e57600080fd5b80639342c8f414610268578063979db1c41461027b578063b88a802f1461028e578063bb57852d14610296578063c75363b6146102a957600080fd5b80634fb2e45d116100f45780634fb2e45d146101ed5780635b680a45146102025780635f8e422f1461022d5780638431165e146102355780638da5cb5b1461023d57600080fd5b80630bce1284146101315780630d437d4014610164578063157775df1461019d57806329ed1cfd146101bd57806337ba682d146101c6575b600080fd5b61015161013f366004610b65565b60056020526000908152604090205481565b6040519081526020015b60405180910390f35b61018b7f000000000000000000000000000000000000000000000000000000000000000081565b60405160ff909116815260200161015b565b6101516101ab366004610b65565b60046020526000908152604090205481565b61015160065481565b6101517f000000000000000000000000000000000000000000000000000000000000000081565b6102006101fb366004610b9a565b610375565b005b610151610210366004610bb5565b600260209081526000928352604080842090915290825290205481565b6102006103ca565b61015161041b565b600054610250906001600160a01b031681565b6040516001600160a01b03909116815260200161015b565b610200610276366004610b65565b6104f4565b610151610289366004610c90565b61054c565b6102006106fd565b6101516102a4366004610bb5565b61084f565b6101517f000000000000000000000000000000000000000000000000000000000000000081565b6102d961025881565b60405162ffffff909116815260200161015b565b61018b7f000000000000000000000000000000000000000000000000000000000000000081565b610151610322366004610cf4565b610874565b6101517f000000000000000000000000000000000000000000000000000000000000000081565b6102507f000000000000000000000000000000000000000000000000000000000000000081565b6000546001600160a01b031633146103a85760405162461bcd60e51b815260040161039f90610d2a565b60405180910390fd5b600180546001600160a01b0319166001600160a01b0392909216919091179055565b6001546001600160a01b031633146103f45760405162461bcd60e51b815260040161039f90610d2a565b60018054600080546001600160a01b03199081166001600160a01b03841617909155169055565b60008060ff7f00000000000000000000000000000000000000000000000000000000000000001661044e61025842610d63565b6104589190610d85565b33600090815260036020526040812054919250905b336000908152600360205260409020600101548110156104ed578281116104ed576000818152600460209081526040808320543384526002835281842085855283528184205460059093529220546104c59190610db4565b6104cf9190610d63565b6104d99083610dcb565b9150806104e581610dde565b91505061046d565b5092915050565b6000546001600160a01b0316331461051e5760405162461bcd60e51b815260040161039f90610d2a565b6105497f0000000000000000000000000000000000000000000000000000000000000000338361093e565b50565b600080546001600160a01b031633146105775760405162461bcd60e51b815260040161039f90610d2a565b81518351146105bb5760405162461bcd60e51b815260206004820152601060248201526f3830b930b6b2ba32b9399032b93937b960811b604482015260640161039f565b60005b835181101561068e578281815181106105d9576105d9610d9e565b6020026020010151826105ec9190610dcb565b915082818151811061060057610600610d9e565b60200260200101516005600086848151811061061e5761061e610d9e565b602002602001015181526020019081526020016000208190555060065484828151811061064d5761064d610d9e565b6020026020010151111561067c5783818151811061066d5761066d610d9e565b60200260200101516006819055505b8061068681610dde565b9150506105be565b506106bb7f0000000000000000000000000000000000000000000000000000000000000000333084610a4b565b60408051600081526020810183905233917fc3991418cacd70a010fce559a44fcbb47534ca43bf7543964bdca2639f6e6e5a910160405180910390a292915050565b600060ff7f00000000000000000000000000000000000000000000000000000000000000001661072f61025842610d63565b6107399190610d85565b33600090815260036020526040812054919250905b336000908152600360205260409020600101548110156107ea578281116107ea5761077a816001610dcb565b33600090815260036020526040812001556000818152600460209081526040808320543384526002835281842085855283528184205460059093529220546107c29190610db4565b6107cc9190610d63565b6107d69083610dcb565b9150806107e281610dde565b91505061074e565b506108167f0000000000000000000000000000000000000000000000000000000000000000338361093e565b60405181815233907fba8de60c3403ec381d1d484652ea1980e3c3e56359195c92525bff4ce47ad98e9060200160405180910390a25050565b6003602052816000526040600020816002811061086b57600080fd5b01549150829050565b60006108a160017f0000000000000000000000000000000000000000000000000000000000000000610df7565b60ff1660017f000000000000000000000000000000000000000000000000000000000000000060ff166001856108d79190610df7565b60ff1661090560017f0000000000000000000000000000000000000000000000000000000000000000610d85565b61090f9190610db4565b6109199190610dcb565b6109239190610d85565b61092d9085610db4565b6109379190610d63565b9392505050565b604080516001600160a01b038481166024830152604480830185905283518084039091018152606490920183526020820180516001600160e01b031663a9059cbb60e01b179052915160009283929087169161099a9190610e10565b6000604051808303816000865af19150503d80600081146109d7576040519150601f19603f3d011682016040523d82523d6000602084013e6109dc565b606091505b5091509150818015610a06575080511580610a06575080806020019051810190610a069190610e3f565b610a445760405162461bcd60e51b815260206004820152600f60248201526e1514905394d1915497d19052531151608a1b604482015260640161039f565b5050505050565b604080516001600160a01b0385811660248301528481166044830152606480830185905283518084039091018152608490920183526020820180516001600160e01b03166323b872dd60e01b1790529151600092839290881691610aaf9190610e10565b6000604051808303816000865af19150503d8060008114610aec576040519150601f19603f3d011682016040523d82523d6000602084013e610af1565b606091505b5091509150818015610b1b575080511580610b1b575080806020019051810190610b1b9190610e3f565b610b5d5760405162461bcd60e51b81526020600482015260136024820152721d1c985b9cd9995c919c9bdb4819985a5b1959606a1b604482015260640161039f565b505050505050565b600060208284031215610b7757600080fd5b5035919050565b80356001600160a01b0381168114610b9557600080fd5b919050565b600060208284031215610bac57600080fd5b61093782610b7e565b60008060408385031215610bc857600080fd5b610bd183610b7e565b946020939093013593505050565b634e487b7160e01b600052604160045260246000fd5b600082601f830112610c0657600080fd5b8135602067ffffffffffffffff80831115610c2357610c23610bdf565b8260051b604051601f19603f83011681018181108482111715610c4857610c48610bdf565b604052938452858101830193838101925087851115610c6657600080fd5b83870191505b84821015610c8557813583529183019190830190610c6c565b979650505050505050565b60008060408385031215610ca357600080fd5b823567ffffffffffffffff80821115610cbb57600080fd5b610cc786838701610bf5565b93506020850135915080821115610cdd57600080fd5b50610cea85828601610bf5565b9150509250929050565b60008060408385031215610d0757600080fd5b82359150602083013560ff81168114610d1f57600080fd5b809150509250929050565b6020808252600990820152683337b93134b23232b760b91b604082015260600190565b634e487b7160e01b600052601160045260246000fd5b600082610d8057634e487b7160e01b600052601260045260246000fd5b500490565b81810381811115610d9857610d98610d4d565b92915050565b634e487b7160e01b600052603260045260246000fd5b8082028115828204841417610d9857610d98610d4d565b80820180821115610d9857610d98610d4d565b600060018201610df057610df0610d4d565b5060010190565b60ff8281168282160390811115610d9857610d98610d4d565b6000825160005b81811015610e315760208186018101518583015201610e17565b506000920191825250919050565b600060208284031215610e5157600080fd5b8151801515811461093757600080fdfea2646970667358221220c566348d713bd031460a74c4d3a0dc50deaf96afca882b5800b0a8dcdacccf2964736f6c63430008110033",
  "linkReferences": {},
  "deployedLinkReferences": {}
}