{
  "_format": "hh-sol-artifact-1",
  "contractName": "StakeBase",
  "sourceName": "contracts/stakeBase.sol",
  "abi": [
    {
      "inputs": [
        {
          "internalType": "uint8",
          "name": "maxWeeks",
          "type": "uint8"
        },
        {
          "internalType": "uint256",
          "name": "maxScale",
          "type": "uint256"
        },
        {
          "internalType": "address",
          "name": "_rewardToken",
          "type": "address"
        }
      ],
      "stateMutability": "nonpayable",
      "type": "constructor"
    },
    {
      "anonymous": false,
      "inputs": [
        {
          "indexed": true,
          "internalType": "address",
          "name": "user",
          "type": "address"
        },
        {
          "indexed": false,
          "internalType": "uint256",
          "name": "no",
          "type": "uint256"
        },
        {
          "indexed": false,
          "internalType": "uint256",
          "name": "amount",
          "type": "uint256"
        }
      ],
      "name": "SetReward",
      "type": "event"
    },
    {
      "inputs": [],
      "name": "MAX_SCALE",
      "outputs": [
        {
          "internalType": "uint256",
          "name": "",
          "type": "uint256"
        }
      ],
      "stateMutability": "view",
      "type": "function"
    },
    {
      "inputs": [],
      "name": "MAX_WEEKS",
      "outputs": [
        {
          "internalType": "uint8",
          "name": "",
          "type": "uint8"
        }
      ],
      "stateMutability": "view",
      "type": "function"
    },
    {
      "inputs": [],
      "name": "WEEK_SECONDS",
      "outputs": [
        {
          "internalType": "uint24",
          "name": "",
          "type": "uint24"
        }
      ],
      "stateMutability": "view",
      "type": "function"
    },
    {
      "inputs": [],
      "name": "acceptSetter",
      "outputs": [],
      "stateMutability": "nonpayable",
      "type": "function"
    },
    {
      "inputs": [
        {
          "internalType": "uint256",
          "name": "",
          "type": "uint256"
        },
        {
          "internalType": "uint256",
          "name": "",
          "type": "uint256"
        }
      ],
      "name": "bClaimReward",
      "outputs": [
        {
          "internalType": "bool",
          "name": "",
          "type": "bool"
        }
      ],
      "stateMutability": "view",
      "type": "function"
    },
    {
      "inputs": [
        {
          "internalType": "uint256",
          "name": "amount",
          "type": "uint256"
        },
        {
          "internalType": "uint8",
          "name": "k",
          "type": "uint8"
        }
      ],
      "name": "getScore",
      "outputs": [
        {
          "internalType": "uint256",
          "name": "score",
          "type": "uint256"
        }
      ],
      "stateMutability": "view",
      "type": "function"
    },
    {
      "inputs": [],
      "name": "latestNo",
      "outputs": [
        {
          "internalType": "uint256",
          "name": "",
          "type": "uint256"
        }
      ],
      "stateMutability": "view",
      "type": "function"
    },
    {
      "inputs": [],
      "name": "owner",
      "outputs": [
        {
          "internalType": "address",
          "name": "",
          "type": "address"
        }
      ],
      "stateMutability": "view",
      "type": "function"
    },
    {
      "inputs": [],
      "name": "rewardToken",
      "outputs": [
        {
          "internalType": "address",
          "name": "",
          "type": "address"
        }
      ],
      "stateMutability": "view",
      "type": "function"
    },
    {
      "inputs": [
        {
          "internalType": "uint256",
          "name": "",
          "type": "uint256"
        }
      ],
      "name": "rewardsOf",
      "outputs": [
        {
          "internalType": "uint256",
          "name": "",
          "type": "uint256"
        }
      ],
      "stateMutability": "view",
      "type": "function"
    },
    {
      "inputs": [
        {
          "internalType": "uint256[]",
          "name": "nos",
          "type": "uint256[]"
        },
        {
          "internalType": "uint256[]",
          "name": "amounts",
          "type": "uint256[]"
        }
      ],
      "name": "setReward",
      "outputs": [
        {
          "internalType": "uint256",
          "name": "total",
          "type": "uint256"
        }
      ],
      "stateMutability": "nonpayable",
      "type": "function"
    },
    {
      "inputs": [
        {
          "internalType": "uint256",
          "name": "no",
          "type": "uint256"
        },
        {
          "internalType": "uint256",
          "name": "amount",
          "type": "uint256"
        }
      ],
      "name": "setReward",
      "outputs": [],
      "stateMutability": "nonpayable",
      "type": "function"
    },
    {
      "inputs": [
        {
          "internalType": "uint256",
          "name": "",
          "type": "uint256"
        }
      ],
      "name": "totalScores",
      "outputs": [
        {
          "internalType": "uint256",
          "name": "",
          "type": "uint256"
        }
      ],
      "stateMutability": "view",
      "type": "function"
    },
    {
      "inputs": [
        {
          "internalType": "address",
          "name": "_owner",
          "type": "address"
        }
      ],
      "name": "transferOwner",
      "outputs": [],
      "stateMutability": "nonpayable",
      "type": "function"
    }
  ],
  "bytecode": "0x60e060405234801561001057600080fd5b50604051610b3a380380610b3a83398101604081905261002f9161005d565b6001600160a01b031660805260ff90911660a05260c052600080546001600160a01b031916331790556100b2565b60008060006060848603121561007257600080fd5b835160ff8116811461008357600080fd5b6020850151604086015191945092506001600160a01b03811681146100a757600080fd5b809150509250925092565b60805160a05160c051610a366101046000396000818161026501526105a30152600081816102190152818161053f015261056a01526000818161028c0152818161037801526104ad0152610a366000f3fe608060405234801561001057600080fd5b50600436106100ea5760003560e01c8063a47bd4961161008c578063e11400bb11610066578063e11400bb14610214578063ee3453ed1461024d578063f6def7cf14610260578063f7c618c11461028757600080fd5b8063a47bd496146101a6578063cd671a58146101b9578063ce6d3e3e146101d657600080fd5b80634d10c55a116100c85780634d10c55a1461014b5780634fb2e45d1461015e5780635f8e422f146101735780638da5cb5b1461017b57600080fd5b80630bce1284146100ef578063157775df1461012257806329ed1cfd14610142575b600080fd5b61010f6100fd36600461071a565b60046020526000908152604090205481565b6040519081526020015b60405180910390f35b61010f61013036600461071a565b60036020526000908152604090205481565b61010f60055481565b61010f6101593660046107e4565b6102ae565b61017161016c366004610848565b6103e1565b005b61017161042d565b60005461018e906001600160a01b031681565b6040516001600160a01b039091168152602001610119565b6101716101b4366004610871565b61047e565b6101c261025881565b60405162ffffff9091168152602001610119565b6102046101e4366004610871565b600260209081526000928352604080842090915290825290205460ff1681565b6040519015158152602001610119565b61023b7f000000000000000000000000000000000000000000000000000000000000000081565b60405160ff9091168152602001610119565b61010f61025b366004610893565b610536565b61010f7f000000000000000000000000000000000000000000000000000000000000000081565b61018e7f000000000000000000000000000000000000000000000000000000000000000081565b600080546001600160a01b031633146102e25760405162461bcd60e51b81526004016102d9906108c9565b60405180910390fd5b60005b835181101561037257828181518110610300576103006108ec565b6020026020010151826103139190610918565b9150828181518110610327576103276108ec565b602002602001015160046000868481518110610345576103456108ec565b6020026020010151815260200190815260200160002081905550808061036a90610931565b9150506102e5565b5061039f7f0000000000000000000000000000000000000000000000000000000000000000333084610600565b60408051600081526020810183905233917fc3991418cacd70a010fce559a44fcbb47534ca43bf7543964bdca2639f6e6e5a910160405180910390a292915050565b6000546001600160a01b0316331461040b5760405162461bcd60e51b81526004016102d9906108c9565b600180546001600160a01b0319166001600160a01b0392909216919091179055565b6001546001600160a01b031633146104575760405162461bcd60e51b81526004016102d9906108c9565b60018054600080546001600160a01b03199081166001600160a01b03841617909155169055565b6000546001600160a01b031633146104a85760405162461bcd60e51b81526004016102d9906108c9565b6104d47f0000000000000000000000000000000000000000000000000000000000000000333084610600565b600082815260046020526040812080548392906104f2908490610918565b9091555050604080518381526020810183905233917fc3991418cacd70a010fce559a44fcbb47534ca43bf7543964bdca2639f6e6e5a910160405180910390a25050565b600061056360017f000000000000000000000000000000000000000000000000000000000000000061094a565b60ff1660017f000000000000000000000000000000000000000000000000000000000000000060ff16600185610599919061094a565b60ff166105c760017f0000000000000000000000000000000000000000000000000000000000000000610963565b6105d19190610976565b6105db9190610918565b6105e59190610963565b6105ef9085610976565b6105f9919061098d565b9392505050565b604080516001600160a01b0385811660248301528481166044830152606480830185905283518084039091018152608490920183526020820180516001600160e01b03166323b872dd60e01b179052915160009283929088169161066491906109af565b6000604051808303816000865af19150503d80600081146106a1576040519150601f19603f3d011682016040523d82523d6000602084013e6106a6565b606091505b50915091508180156106d05750805115806106d05750808060200190518101906106d091906109de565b6107125760405162461bcd60e51b81526020600482015260136024820152721d1c985b9cd9995c919c9bdb4819985a5b1959606a1b60448201526064016102d9565b505050505050565b60006020828403121561072c57600080fd5b5035919050565b634e487b7160e01b600052604160045260246000fd5b600082601f83011261075a57600080fd5b8135602067ffffffffffffffff8083111561077757610777610733565b8260051b604051601f19603f8301168101818110848211171561079c5761079c610733565b6040529384528581018301938381019250878511156107ba57600080fd5b83870191505b848210156107d9578135835291830191908301906107c0565b979650505050505050565b600080604083850312156107f757600080fd5b823567ffffffffffffffff8082111561080f57600080fd5b61081b86838701610749565b9350602085013591508082111561083157600080fd5b5061083e85828601610749565b9150509250929050565b60006020828403121561085a57600080fd5b81356001600160a01b03811681146105f957600080fd5b6000806040838503121561088457600080fd5b50508035926020909101359150565b600080604083850312156108a657600080fd5b82359150602083013560ff811681146108be57600080fd5b809150509250929050565b6020808252600990820152683337b93134b23232b760b91b604082015260600190565b634e487b7160e01b600052603260045260246000fd5b634e487b7160e01b600052601160045260246000fd5b8082018082111561092b5761092b610902565b92915050565b60006001820161094357610943610902565b5060010190565b60ff828116828216039081111561092b5761092b610902565b8181038181111561092b5761092b610902565b808202811582820484141761092b5761092b610902565b6000826109aa57634e487b7160e01b600052601260045260246000fd5b500490565b6000825160005b818110156109d057602081860181015185830152016109b6565b506000920191825250919050565b6000602082840312156109f057600080fd5b815180151581146105f957600080fdfea2646970667358221220806cfadafadc0337f7650fb51b52a883f4a090fe4eb24f24eb6c56299199153564736f6c63430008110033",
  "linkReferences": {},
  "deployedLinkReferences": {}
}