{
  "_format": "hh-sol-artifact-1",
  "contractName": "StakeBase",
  "sourceName": "contracts/stakeBase.sol",
  "abi": [
    {
      "inputs": [
        {
          "internalType": "uint8",
          "name": "maxWeeks",
          "type": "uint8"
        },
        {
          "internalType": "uint256",
          "name": "maxScale",
          "type": "uint256"
        },
        {
          "internalType": "uint8",
          "name": "lockWeeks",
          "type": "uint8"
        },
        {
          "internalType": "uint256",
          "name": "beginTime",
          "type": "uint256"
        },
        {
          "internalType": "uint256",
          "name": "endTime",
          "type": "uint256"
        },
        {
          "internalType": "address",
          "name": "_rewardToken",
          "type": "address"
        }
      ],
      "stateMutability": "nonpayable",
      "type": "constructor"
    },
    {
      "anonymous": false,
      "inputs": [
        {
          "indexed": true,
          "internalType": "address",
          "name": "user",
          "type": "address"
        },
        {
          "indexed": false,
          "internalType": "uint256",
          "name": "amount",
          "type": "uint256"
        }
      ],
      "name": "ClaimReward",
      "type": "event"
    },
    {
      "anonymous": false,
      "inputs": [
        {
          "indexed": true,
          "internalType": "address",
          "name": "user",
          "type": "address"
        },
        {
          "indexed": false,
          "internalType": "uint256",
          "name": "no",
          "type": "uint256"
        },
        {
          "indexed": false,
          "internalType": "uint256",
          "name": "amount",
          "type": "uint256"
        }
      ],
      "name": "SetReward",
      "type": "event"
    },
    {
      "inputs": [],
      "name": "BEGIN_TIME",
      "outputs": [
        {
          "internalType": "uint256",
          "name": "",
          "type": "uint256"
        }
      ],
      "stateMutability": "view",
      "type": "function"
    },
    {
      "inputs": [],
      "name": "END_TIME",
      "outputs": [
        {
          "internalType": "uint256",
          "name": "",
          "type": "uint256"
        }
      ],
      "stateMutability": "view",
      "type": "function"
    },
    {
      "inputs": [],
      "name": "LOCK_WEEKNUM",
      "outputs": [
        {
          "internalType": "uint8",
          "name": "",
          "type": "uint8"
        }
      ],
      "stateMutability": "view",
      "type": "function"
    },
    {
      "inputs": [],
      "name": "MAX_SCALE",
      "outputs": [
        {
          "internalType": "uint256",
          "name": "",
          "type": "uint256"
        }
      ],
      "stateMutability": "view",
      "type": "function"
    },
    {
      "inputs": [],
      "name": "MAX_WEEKS",
      "outputs": [
        {
          "internalType": "uint8",
          "name": "",
          "type": "uint8"
        }
      ],
      "stateMutability": "view",
      "type": "function"
    },
    {
      "inputs": [],
      "name": "WEEK_SECONDS",
      "outputs": [
        {
          "internalType": "uint24",
          "name": "",
          "type": "uint24"
        }
      ],
      "stateMutability": "view",
      "type": "function"
    },
    {
      "inputs": [],
      "name": "acceptSetter",
      "outputs": [],
      "stateMutability": "nonpayable",
      "type": "function"
    },
    {
      "inputs": [],
      "name": "canClaimAmount",
      "outputs": [
        {
          "internalType": "uint256",
          "name": "",
          "type": "uint256"
        }
      ],
      "stateMutability": "view",
      "type": "function"
    },
    {
      "inputs": [],
      "name": "claimReward",
      "outputs": [],
      "stateMutability": "nonpayable",
      "type": "function"
    },
    {
      "inputs": [
        {
          "internalType": "uint256",
          "name": "amount",
          "type": "uint256"
        },
        {
          "internalType": "uint8",
          "name": "k",
          "type": "uint8"
        }
      ],
      "name": "getScore",
      "outputs": [
        {
          "internalType": "uint256",
          "name": "score",
          "type": "uint256"
        }
      ],
      "stateMutability": "view",
      "type": "function"
    },
    {
      "inputs": [],
      "name": "latestNo",
      "outputs": [
        {
          "internalType": "uint256",
          "name": "",
          "type": "uint256"
        }
      ],
      "stateMutability": "view",
      "type": "function"
    },
    {
      "inputs": [],
      "name": "lockedRewardAmount",
      "outputs": [
        {
          "internalType": "uint256",
          "name": "",
          "type": "uint256"
        },
        {
          "internalType": "uint256[]",
          "name": "",
          "type": "uint256[]"
        }
      ],
      "stateMutability": "view",
      "type": "function"
    },
    {
      "inputs": [],
      "name": "owner",
      "outputs": [
        {
          "internalType": "address",
          "name": "",
          "type": "address"
        }
      ],
      "stateMutability": "view",
      "type": "function"
    },
    {
      "inputs": [],
      "name": "rewardToken",
      "outputs": [
        {
          "internalType": "address",
          "name": "",
          "type": "address"
        }
      ],
      "stateMutability": "view",
      "type": "function"
    },
    {
      "inputs": [
        {
          "internalType": "uint256",
          "name": "",
          "type": "uint256"
        }
      ],
      "name": "rewardsOf",
      "outputs": [
        {
          "internalType": "uint256",
          "name": "",
          "type": "uint256"
        }
      ],
      "stateMutability": "view",
      "type": "function"
    },
    {
      "inputs": [
        {
          "internalType": "uint256",
          "name": "no",
          "type": "uint256"
        },
        {
          "internalType": "uint256",
          "name": "amount",
          "type": "uint256"
        }
      ],
      "name": "setReward",
      "outputs": [],
      "stateMutability": "nonpayable",
      "type": "function"
    },
    {
      "inputs": [
        {
          "internalType": "uint256[]",
          "name": "nos",
          "type": "uint256[]"
        },
        {
          "internalType": "uint256[]",
          "name": "amounts",
          "type": "uint256[]"
        }
      ],
      "name": "setRewards",
      "outputs": [
        {
          "internalType": "uint256",
          "name": "total",
          "type": "uint256"
        }
      ],
      "stateMutability": "nonpayable",
      "type": "function"
    },
    {
      "inputs": [
        {
          "internalType": "uint256",
          "name": "",
          "type": "uint256"
        }
      ],
      "name": "totalScores",
      "outputs": [
        {
          "internalType": "uint256",
          "name": "",
          "type": "uint256"
        }
      ],
      "stateMutability": "view",
      "type": "function"
    },
    {
      "inputs": [
        {
          "internalType": "address",
          "name": "_owner",
          "type": "address"
        }
      ],
      "name": "transferOwner",
      "outputs": [],
      "stateMutability": "nonpayable",
      "type": "function"
    },
    {
      "inputs": [
        {
          "internalType": "address",
          "name": "",
          "type": "address"
        },
        {
          "internalType": "uint256",
          "name": "",
          "type": "uint256"
        }
      ],
      "name": "userCanClaimWeeks",
      "outputs": [
        {
          "internalType": "uint256",
          "name": "",
          "type": "uint256"
        }
      ],
      "stateMutability": "view",
      "type": "function"
    },
    {
      "inputs": [
        {
          "internalType": "address",
          "name": "",
          "type": "address"
        },
        {
          "internalType": "uint256",
          "name": "",
          "type": "uint256"
        }
      ],
      "name": "userScores",
      "outputs": [
        {
          "internalType": "uint256",
          "name": "",
          "type": "uint256"
        }
      ],
      "stateMutability": "view",
      "type": "function"
    },
    {
      "inputs": [
        {
          "internalType": "uint256",
          "name": "amount",
          "type": "uint256"
        }
      ],
      "name": "withdrawRewards",
      "outputs": [],
      "stateMutability": "nonpayable",
      "type": "function"
    }
  ],
  "bytecode": "0x61014060405234801561001157600080fd5b506040516113c43803806113c483398101604081905261003091610087565b6001600160a01b031660805260ff94851660a05260c093909352921660e0526101009190915261012052600080546001600160a01b031916331790556100f8565b805160ff8116811461008257600080fd5b919050565b60008060008060008060c087890312156100a057600080fd5b6100a987610071565b9550602087015194506100be60408801610071565b6060880151608089015160a08a015192965090945092506001600160a01b03811681146100ea57600080fd5b809150509295509295509295565b60805160a05160c05160e051610100516101205161123761018d60003960006101e1015260006102ed01526000818161017f01528181610461015281816105510152610a1701526000818161036b0152610c1101526000818161033101528181610bad0152610bd80152600081816103920152818161076f015281816108e0015281816109780152610b1f01526112376000f3fe608060405234801561001057600080fd5b50600436106101425760003560e01c80639342c8f4116100b8578063c75363b61161007c578063c75363b6146102e8578063cd671a581461030f578063e11400bb1461032c578063ee3453ed14610353578063f6def7cf14610366578063f7c618c11461038d57600080fd5b80639342c8f414610294578063979db1c4146102a7578063a47bd496146102ba578063b88a802f146102cd578063bb57852d146102d557600080fd5b80634fb2e45d1161010a5780634fb2e45d146102035780635b680a45146102185780635f8e422f146102435780638431165e1461024b5780638923de2b146102535780638da5cb5b1461026957600080fd5b80630bce1284146101475780630d437d401461017a578063157775df146101b357806329ed1cfd146101d357806337ba682d146101dc575b600080fd5b610167610155366004610e95565b60056020526000908152604090205481565b6040519081526020015b60405180910390f35b6101a17f000000000000000000000000000000000000000000000000000000000000000081565b60405160ff9091168152602001610171565b6101676101c1366004610e95565b60046020526000908152604090205481565b61016760065481565b6101677f000000000000000000000000000000000000000000000000000000000000000081565b610216610211366004610eca565b6103b4565b005b610167610226366004610ee5565b600260209081526000928352604080842090915290825290205481565b610216610409565b61016761045a565b61025b610548565b604051610171929190610f0f565b60005461027c906001600160a01b031681565b6040516001600160a01b039091168152602001610171565b6102166102a2366004610e95565b610740565b6101676102b536600461100e565b610798565b6102166102c8366004611072565b610949565b610216610a11565b6101676102e3366004610ee5565b610b7f565b6101677f000000000000000000000000000000000000000000000000000000000000000081565b61031861025881565b60405162ffffff9091168152602001610171565b6101a17f000000000000000000000000000000000000000000000000000000000000000081565b610167610361366004611094565b610ba4565b6101677f000000000000000000000000000000000000000000000000000000000000000081565b61027c7f000000000000000000000000000000000000000000000000000000000000000081565b6000546001600160a01b031633146103e75760405162461bcd60e51b81526004016103de906110ca565b60405180910390fd5b600180546001600160a01b0319166001600160a01b0392909216919091179055565b6001546001600160a01b031633146104335760405162461bcd60e51b81526004016103de906110ca565b60018054600080546001600160a01b03199081166001600160a01b03841617909155169055565b60008060ff7f00000000000000000000000000000000000000000000000000000000000000001661048d61025842611103565b6104979190611125565b33600090815260036020526040812054919250905b3360009081526003602052604090206001015481101561054157828111610541576000818152600460205260409020541561052f576000818152600460209081526040808320543384526002835281842085855283528184205460059093529220546105189190611154565b6105229190611103565b61052c908361116b565b91505b806105398161117e565b9150506104ac565b5092915050565b600060608160ff7f00000000000000000000000000000000000000000000000000000000000000001661057d61025842611103565b6105879190611125565b61059290600161116b565b336000908152600360205260409020909150819060010154116105c75760408051600081526020810190915290939092509050565b3360009081526003602052604081205482106105e357816105f4565b336000908152600360205260409020545b3360009081526003602052604081206001015491925090610616908390611125565b67ffffffffffffffff81111561062e5761062e610f5d565b604051908082528060200260200182016040528015610657578160200160208202803683370190505b509050815b336000908152600360205260409020600101548110156107345760008181526004602052604081205490036106b9576000826106988584611125565b815181106106a8576106a861113e565b602002602001018181525050610722565b6000818152600460209081526040808320543384526002835281842085855283528184205460059093529220546106f09190611154565b6106fa9190611103565b826107058584611125565b815181106107155761071561113e565b6020026020010181815250505b8061072c8161117e565b91505061065c565b50919491935090915050565b6000546001600160a01b0316331461076a5760405162461bcd60e51b81526004016103de906110ca565b6107957f00000000000000000000000000000000000000000000000000000000000000003383610c6e565b50565b600080546001600160a01b031633146107c35760405162461bcd60e51b81526004016103de906110ca565b81518351146108075760405162461bcd60e51b815260206004820152601060248201526f3830b930b6b2ba32b9399032b93937b960811b60448201526064016103de565b60005b83518110156108da578281815181106108255761082561113e565b602002602001015182610838919061116b565b915082818151811061084c5761084c61113e565b60200260200101516005600086848151811061086a5761086a61113e565b60200260200101518152602001908152602001600020819055506006548482815181106108995761089961113e565b602002602001015111156108c8578381815181106108b9576108b961113e565b60200260200101516006819055505b806108d28161117e565b91505061080a565b506109077f0000000000000000000000000000000000000000000000000000000000000000333084610d7b565b60408051600081526020810183905233917fc3991418cacd70a010fce559a44fcbb47534ca43bf7543964bdca2639f6e6e5a910160405180910390a292915050565b6000546001600160a01b031633146109735760405162461bcd60e51b81526004016103de906110ca565b61099f7f0000000000000000000000000000000000000000000000000000000000000000333084610d7b565b600082815260056020526040812080548392906109bd90849061116b565b90915550506006548211156109d25760068290555b604080518381526020810183905233917fc3991418cacd70a010fce559a44fcbb47534ca43bf7543964bdca2639f6e6e5a910160405180910390a25050565b600060ff7f000000000000000000000000000000000000000000000000000000000000000016610a4361025842611103565b610a4d9190611125565b3360009081526003602052604081205491925090805b33600090815260036020526040902060010154811015610b0657838111610b0657610a8f81600161116b565b60008281526004602052604090205490925015610af457600081815260046020908152604080832054338452600283528184208585528352818420546005909352922054610add9190611154565b610ae79190611103565b610af1908461116b565b92505b80610afe8161117e565b915050610a63565b5033600090815260036020526040812082910155610b457f00000000000000000000000000000000000000000000000000000000000000003384610c6e565b60405182815233907fba8de60c3403ec381d1d484652ea1980e3c3e56359195c92525bff4ce47ad98e9060200160405180910390a2505050565b60036020528160005260406000208160028110610b9b57600080fd5b01549150829050565b6000610bd160017f0000000000000000000000000000000000000000000000000000000000000000611197565b60ff1660017f000000000000000000000000000000000000000000000000000000000000000060ff16600185610c079190611197565b60ff16610c3560017f0000000000000000000000000000000000000000000000000000000000000000611125565b610c3f9190611154565b610c49919061116b565b610c539190611125565b610c5d9085611154565b610c679190611103565b9392505050565b604080516001600160a01b038481166024830152604480830185905283518084039091018152606490920183526020820180516001600160e01b031663a9059cbb60e01b1790529151600092839290871691610cca91906111b0565b6000604051808303816000865af19150503d8060008114610d07576040519150601f19603f3d011682016040523d82523d6000602084013e610d0c565b606091505b5091509150818015610d36575080511580610d36575080806020019051810190610d3691906111df565b610d745760405162461bcd60e51b815260206004820152600f60248201526e1514905394d1915497d19052531151608a1b60448201526064016103de565b5050505050565b604080516001600160a01b0385811660248301528481166044830152606480830185905283518084039091018152608490920183526020820180516001600160e01b03166323b872dd60e01b1790529151600092839290881691610ddf91906111b0565b6000604051808303816000865af19150503d8060008114610e1c576040519150601f19603f3d011682016040523d82523d6000602084013e610e21565b606091505b5091509150818015610e4b575080511580610e4b575080806020019051810190610e4b91906111df565b610e8d5760405162461bcd60e51b81526020600482015260136024820152721d1c985b9cd9995c919c9bdb4819985a5b1959606a1b60448201526064016103de565b505050505050565b600060208284031215610ea757600080fd5b5035919050565b80356001600160a01b0381168114610ec557600080fd5b919050565b600060208284031215610edc57600080fd5b610c6782610eae565b60008060408385031215610ef857600080fd5b610f0183610eae565b946020939093013593505050565b6000604082018483526020604081850152818551808452606086019150828701935060005b81811015610f5057845183529383019391830191600101610f34565b5090979650505050505050565b634e487b7160e01b600052604160045260246000fd5b600082601f830112610f8457600080fd5b8135602067ffffffffffffffff80831115610fa157610fa1610f5d565b8260051b604051601f19603f83011681018181108482111715610fc657610fc6610f5d565b604052938452858101830193838101925087851115610fe457600080fd5b83870191505b8482101561100357813583529183019190830190610fea565b979650505050505050565b6000806040838503121561102157600080fd5b823567ffffffffffffffff8082111561103957600080fd5b61104586838701610f73565b9350602085013591508082111561105b57600080fd5b5061106885828601610f73565b9150509250929050565b6000806040838503121561108557600080fd5b50508035926020909101359150565b600080604083850312156110a757600080fd5b82359150602083013560ff811681146110bf57600080fd5b809150509250929050565b6020808252600990820152683337b93134b23232b760b91b604082015260600190565b634e487b7160e01b600052601160045260246000fd5b60008261112057634e487b7160e01b600052601260045260246000fd5b500490565b81810381811115611138576111386110ed565b92915050565b634e487b7160e01b600052603260045260246000fd5b8082028115828204841417611138576111386110ed565b80820180821115611138576111386110ed565b600060018201611190576111906110ed565b5060010190565b60ff8281168282160390811115611138576111386110ed565b6000825160005b818110156111d157602081860181015185830152016111b7565b506000920191825250919050565b6000602082840312156111f157600080fd5b81518015158114610c6757600080fdfea26469706673582212208ca94a6e5aa32187d116a7b262cbb2274cfc8b73c194dc58313d98ac8ae09a8364736f6c63430008110033",
  "linkReferences": {},
  "deployedLinkReferences": {}
}