{
  "_format": "hh-sol-artifact-1",
  "contractName": "StakeBase",
  "sourceName": "contracts/stakeBase.sol",
  "abi": [
    {
      "inputs": [
        {
          "internalType": "uint8",
          "name": "maxWeeks",
          "type": "uint8"
        },
        {
          "internalType": "uint256",
          "name": "maxScale",
          "type": "uint256"
        },
        {
          "internalType": "uint8",
          "name": "lockWeeks",
          "type": "uint8"
        },
        {
          "internalType": "uint256",
          "name": "beginTime",
          "type": "uint256"
        },
        {
          "internalType": "uint256",
          "name": "endTime",
          "type": "uint256"
        },
        {
          "internalType": "address",
          "name": "_rewardToken",
          "type": "address"
        }
      ],
      "stateMutability": "nonpayable",
      "type": "constructor"
    },
    {
      "anonymous": false,
      "inputs": [
        {
          "indexed": true,
          "internalType": "address",
          "name": "user",
          "type": "address"
        },
        {
          "indexed": false,
          "internalType": "uint256",
          "name": "amount",
          "type": "uint256"
        }
      ],
      "name": "ClaimReward",
      "type": "event"
    },
    {
      "anonymous": false,
      "inputs": [
        {
          "indexed": true,
          "internalType": "address",
          "name": "user",
          "type": "address"
        },
        {
          "indexed": false,
          "internalType": "uint256",
          "name": "no",
          "type": "uint256"
        },
        {
          "indexed": false,
          "internalType": "uint256",
          "name": "amount",
          "type": "uint256"
        }
      ],
      "name": "SetReward",
      "type": "event"
    },
    {
      "inputs": [],
      "name": "BEGIN_TIME",
      "outputs": [
        {
          "internalType": "uint256",
          "name": "",
          "type": "uint256"
        }
      ],
      "stateMutability": "view",
      "type": "function"
    },
    {
      "inputs": [],
      "name": "END_TIME",
      "outputs": [
        {
          "internalType": "uint256",
          "name": "",
          "type": "uint256"
        }
      ],
      "stateMutability": "view",
      "type": "function"
    },
    {
      "inputs": [],
      "name": "LOCK_WEEKNUM",
      "outputs": [
        {
          "internalType": "uint8",
          "name": "",
          "type": "uint8"
        }
      ],
      "stateMutability": "view",
      "type": "function"
    },
    {
      "inputs": [],
      "name": "MAX_SCALE",
      "outputs": [
        {
          "internalType": "uint256",
          "name": "",
          "type": "uint256"
        }
      ],
      "stateMutability": "view",
      "type": "function"
    },
    {
      "inputs": [],
      "name": "MAX_WEEKS",
      "outputs": [
        {
          "internalType": "uint8",
          "name": "",
          "type": "uint8"
        }
      ],
      "stateMutability": "view",
      "type": "function"
    },
    {
      "inputs": [],
      "name": "WEEK_SECONDS",
      "outputs": [
        {
          "internalType": "uint24",
          "name": "",
          "type": "uint24"
        }
      ],
      "stateMutability": "view",
      "type": "function"
    },
    {
      "inputs": [],
      "name": "acceptSetter",
      "outputs": [],
      "stateMutability": "nonpayable",
      "type": "function"
    },
    {
      "inputs": [],
      "name": "canClaimAmount",
      "outputs": [
        {
          "internalType": "uint256",
          "name": "",
          "type": "uint256"
        }
      ],
      "stateMutability": "view",
      "type": "function"
    },
    {
      "inputs": [],
      "name": "claimReward",
      "outputs": [],
      "stateMutability": "nonpayable",
      "type": "function"
    },
    {
      "inputs": [
        {
          "internalType": "uint256",
          "name": "amount",
          "type": "uint256"
        },
        {
          "internalType": "uint8",
          "name": "k",
          "type": "uint8"
        }
      ],
      "name": "getScore",
      "outputs": [
        {
          "internalType": "uint256",
          "name": "score",
          "type": "uint256"
        }
      ],
      "stateMutability": "view",
      "type": "function"
    },
    {
      "inputs": [],
      "name": "latestNo",
      "outputs": [
        {
          "internalType": "uint256",
          "name": "",
          "type": "uint256"
        }
      ],
      "stateMutability": "view",
      "type": "function"
    },
    {
      "inputs": [],
      "name": "owner",
      "outputs": [
        {
          "internalType": "address",
          "name": "",
          "type": "address"
        }
      ],
      "stateMutability": "view",
      "type": "function"
    },
    {
      "inputs": [],
      "name": "rewardToken",
      "outputs": [
        {
          "internalType": "address",
          "name": "",
          "type": "address"
        }
      ],
      "stateMutability": "view",
      "type": "function"
    },
    {
      "inputs": [
        {
          "internalType": "uint256",
          "name": "",
          "type": "uint256"
        }
      ],
      "name": "rewardsOf",
      "outputs": [
        {
          "internalType": "uint256",
          "name": "",
          "type": "uint256"
        }
      ],
      "stateMutability": "view",
      "type": "function"
    },
    {
      "inputs": [
        {
          "internalType": "uint256",
          "name": "no",
          "type": "uint256"
        },
        {
          "internalType": "uint256",
          "name": "amount",
          "type": "uint256"
        }
      ],
      "name": "setReward",
      "outputs": [],
      "stateMutability": "nonpayable",
      "type": "function"
    },
    {
      "inputs": [
        {
          "internalType": "uint256[]",
          "name": "nos",
          "type": "uint256[]"
        },
        {
          "internalType": "uint256[]",
          "name": "amounts",
          "type": "uint256[]"
        }
      ],
      "name": "setRewards",
      "outputs": [
        {
          "internalType": "uint256",
          "name": "total",
          "type": "uint256"
        }
      ],
      "stateMutability": "nonpayable",
      "type": "function"
    },
    {
      "inputs": [
        {
          "internalType": "uint256",
          "name": "",
          "type": "uint256"
        }
      ],
      "name": "totalScores",
      "outputs": [
        {
          "internalType": "uint256",
          "name": "",
          "type": "uint256"
        }
      ],
      "stateMutability": "view",
      "type": "function"
    },
    {
      "inputs": [
        {
          "internalType": "address",
          "name": "_owner",
          "type": "address"
        }
      ],
      "name": "transferOwner",
      "outputs": [],
      "stateMutability": "nonpayable",
      "type": "function"
    },
    {
      "inputs": [
        {
          "internalType": "address",
          "name": "",
          "type": "address"
        },
        {
          "internalType": "uint256",
          "name": "",
          "type": "uint256"
        }
      ],
      "name": "userCanClaimWeeks",
      "outputs": [
        {
          "internalType": "uint256",
          "name": "",
          "type": "uint256"
        }
      ],
      "stateMutability": "view",
      "type": "function"
    },
    {
      "inputs": [
        {
          "internalType": "address",
          "name": "",
          "type": "address"
        },
        {
          "internalType": "uint256",
          "name": "",
          "type": "uint256"
        }
      ],
      "name": "userScores",
      "outputs": [
        {
          "internalType": "uint256",
          "name": "",
          "type": "uint256"
        }
      ],
      "stateMutability": "view",
      "type": "function"
    },
    {
      "inputs": [
        {
          "internalType": "uint256",
          "name": "amount",
          "type": "uint256"
        }
      ],
      "name": "withdrawRewards",
      "outputs": [],
      "stateMutability": "nonpayable",
      "type": "function"
    }
  ],
  "bytecode": "0x61014060405234801561001157600080fd5b5060405161111f38038061111f83398101604081905261003091610087565b6001600160a01b031660805260ff94851660a05260c093909352921660e0526101009190915261012052600080546001600160a01b031916331790556100f8565b805160ff8116811461008257600080fd5b919050565b60008060008060008060c087890312156100a057600080fd5b6100a987610071565b9550602087015194506100be60408801610071565b6060880151608089015160a08a015192965090945092506001600160a01b03811681146100ea57600080fd5b809150509295509295509295565b60805160a05160c05160e0516101005161012051610f9961018660003960006101d6015260006102cc0152600081816101740152818161044001526107ea01526000818161034a01526109c10152600081816103100152818161095d015261098801526000818161037101528181610541015281816106b20152818161074a01526108d70152610f996000f3fe608060405234801561001057600080fd5b50600436106101375760003560e01c80639342c8f4116100b8578063c75363b61161007c578063c75363b6146102c7578063cd671a58146102ee578063e11400bb1461030b578063ee3453ed14610332578063f6def7cf14610345578063f7c618c11461036c57600080fd5b80639342c8f414610273578063979db1c414610286578063a47bd49614610299578063b88a802f146102ac578063bb57852d146102b457600080fd5b80634fb2e45d116100ff5780634fb2e45d146101f85780635b680a451461020d5780635f8e422f146102385780638431165e146102405780638da5cb5b1461024857600080fd5b80630bce12841461013c5780630d437d401461016f578063157775df146101a857806329ed1cfd146101c857806337ba682d146101d1575b600080fd5b61015c61014a366004610c45565b60056020526000908152604090205481565b6040519081526020015b60405180910390f35b6101967f000000000000000000000000000000000000000000000000000000000000000081565b60405160ff9091168152602001610166565b61015c6101b6366004610c45565b60046020526000908152604090205481565b61015c60065481565b61015c7f000000000000000000000000000000000000000000000000000000000000000081565b61020b610206366004610c7a565b610393565b005b61015c61021b366004610c95565b600260209081526000928352604080842090915290825290205481565b61020b6103e8565b61015c610439565b60005461025b906001600160a01b031681565b6040516001600160a01b039091168152602001610166565b61020b610281366004610c45565b610512565b61015c610294366004610d70565b61056a565b61020b6102a7366004610dd4565b61071b565b61020b6107e4565b61015c6102c2366004610c95565b61092f565b61015c7f000000000000000000000000000000000000000000000000000000000000000081565b6102f761025881565b60405162ffffff9091168152602001610166565b6101967f000000000000000000000000000000000000000000000000000000000000000081565b61015c610340366004610df6565b610954565b61015c7f000000000000000000000000000000000000000000000000000000000000000081565b61025b7f000000000000000000000000000000000000000000000000000000000000000081565b6000546001600160a01b031633146103c65760405162461bcd60e51b81526004016103bd90610e2c565b60405180910390fd5b600180546001600160a01b0319166001600160a01b0392909216919091179055565b6001546001600160a01b031633146104125760405162461bcd60e51b81526004016103bd90610e2c565b60018054600080546001600160a01b03199081166001600160a01b03841617909155169055565b60008060ff7f00000000000000000000000000000000000000000000000000000000000000001661046c61025842610e65565b6104769190610e87565b33600090815260036020526040812054919250905b3360009081526003602052604090206001015481101561050b5782811161050b576000818152600460209081526040808320543384526002835281842085855283528184205460059093529220546104e39190610eb6565b6104ed9190610e65565b6104f79083610ecd565b91508061050381610ee0565b91505061048b565b5092915050565b6000546001600160a01b0316331461053c5760405162461bcd60e51b81526004016103bd90610e2c565b6105677f00000000000000000000000000000000000000000000000000000000000000003383610a1e565b50565b600080546001600160a01b031633146105955760405162461bcd60e51b81526004016103bd90610e2c565b81518351146105d95760405162461bcd60e51b815260206004820152601060248201526f3830b930b6b2ba32b9399032b93937b960811b60448201526064016103bd565b60005b83518110156106ac578281815181106105f7576105f7610ea0565b60200260200101518261060a9190610ecd565b915082818151811061061e5761061e610ea0565b60200260200101516005600086848151811061063c5761063c610ea0565b602002602001015181526020019081526020016000208190555060065484828151811061066b5761066b610ea0565b6020026020010151111561069a5783818151811061068b5761068b610ea0565b60200260200101516006819055505b806106a481610ee0565b9150506105dc565b506106d97f0000000000000000000000000000000000000000000000000000000000000000333084610b2b565b60408051600081526020810183905233917fc3991418cacd70a010fce559a44fcbb47534ca43bf7543964bdca2639f6e6e5a910160405180910390a292915050565b6000546001600160a01b031633146107455760405162461bcd60e51b81526004016103bd90610e2c565b6107717f0000000000000000000000000000000000000000000000000000000000000000333084610b2b565b6000828152600560205260408120805483929061078f908490610ecd565b90915550506006548211156107a45760068290555b604080518381526020810183905233917fc3991418cacd70a010fce559a44fcbb47534ca43bf7543964bdca2639f6e6e5a91015b60405180910390a25050565b600060ff7f00000000000000000000000000000000000000000000000000000000000000001661081661025842610e65565b6108209190610e87565b33600090815260036020526040812054919250905b336000908152600360205260409020600101548110156108d1578281116108d157610861816001610ecd565b33600090815260036020526040812001556000818152600460209081526040808320543384526002835281842085855283528184205460059093529220546108a99190610eb6565b6108b39190610e65565b6108bd9083610ecd565b9150806108c981610ee0565b915050610835565b506108fd7f00000000000000000000000000000000000000000000000000000000000000003383610a1e565b60405181815233907fba8de60c3403ec381d1d484652ea1980e3c3e56359195c92525bff4ce47ad98e906020016107d8565b6003602052816000526040600020816002811061094b57600080fd5b01549150829050565b600061098160017f0000000000000000000000000000000000000000000000000000000000000000610ef9565b60ff1660017f000000000000000000000000000000000000000000000000000000000000000060ff166001856109b79190610ef9565b60ff166109e560017f0000000000000000000000000000000000000000000000000000000000000000610e87565b6109ef9190610eb6565b6109f99190610ecd565b610a039190610e87565b610a0d9085610eb6565b610a179190610e65565b9392505050565b604080516001600160a01b038481166024830152604480830185905283518084039091018152606490920183526020820180516001600160e01b031663a9059cbb60e01b1790529151600092839290871691610a7a9190610f12565b6000604051808303816000865af19150503d8060008114610ab7576040519150601f19603f3d011682016040523d82523d6000602084013e610abc565b606091505b5091509150818015610ae6575080511580610ae6575080806020019051810190610ae69190610f41565b610b245760405162461bcd60e51b815260206004820152600f60248201526e1514905394d1915497d19052531151608a1b60448201526064016103bd565b5050505050565b604080516001600160a01b0385811660248301528481166044830152606480830185905283518084039091018152608490920183526020820180516001600160e01b03166323b872dd60e01b1790529151600092839290881691610b8f9190610f12565b6000604051808303816000865af19150503d8060008114610bcc576040519150601f19603f3d011682016040523d82523d6000602084013e610bd1565b606091505b5091509150818015610bfb575080511580610bfb575080806020019051810190610bfb9190610f41565b610c3d5760405162461bcd60e51b81526020600482015260136024820152721d1c985b9cd9995c919c9bdb4819985a5b1959606a1b60448201526064016103bd565b505050505050565b600060208284031215610c5757600080fd5b5035919050565b80356001600160a01b0381168114610c7557600080fd5b919050565b600060208284031215610c8c57600080fd5b610a1782610c5e565b60008060408385031215610ca857600080fd5b610cb183610c5e565b946020939093013593505050565b634e487b7160e01b600052604160045260246000fd5b600082601f830112610ce657600080fd5b8135602067ffffffffffffffff80831115610d0357610d03610cbf565b8260051b604051601f19603f83011681018181108482111715610d2857610d28610cbf565b604052938452858101830193838101925087851115610d4657600080fd5b83870191505b84821015610d6557813583529183019190830190610d4c565b979650505050505050565b60008060408385031215610d8357600080fd5b823567ffffffffffffffff80821115610d9b57600080fd5b610da786838701610cd5565b93506020850135915080821115610dbd57600080fd5b50610dca85828601610cd5565b9150509250929050565b60008060408385031215610de757600080fd5b50508035926020909101359150565b60008060408385031215610e0957600080fd5b82359150602083013560ff81168114610e2157600080fd5b809150509250929050565b6020808252600990820152683337b93134b23232b760b91b604082015260600190565b634e487b7160e01b600052601160045260246000fd5b600082610e8257634e487b7160e01b600052601260045260246000fd5b500490565b81810381811115610e9a57610e9a610e4f565b92915050565b634e487b7160e01b600052603260045260246000fd5b8082028115828204841417610e9a57610e9a610e4f565b80820180821115610e9a57610e9a610e4f565b600060018201610ef257610ef2610e4f565b5060010190565b60ff8281168282160390811115610e9a57610e9a610e4f565b6000825160005b81811015610f335760208186018101518583015201610f19565b506000920191825250919050565b600060208284031215610f5357600080fd5b81518015158114610a1757600080fdfea2646970667358221220cd9c34cc71f4172b8fa0328a2de4bf6ab9e6dffa39c4010ea4c2fbaa07b1e4ee64736f6c63430008110033",
  "linkReferences": {},
  "deployedLinkReferences": {}
}