{
  "_format": "hh-sol-artifact-1",
  "contractName": "StakeBase",
  "sourceName": "contracts/stakeBase.sol",
  "abi": [
    {
      "inputs": [
        {
          "internalType": "uint8",
          "name": "maxWeeks",
          "type": "uint8"
        },
        {
          "internalType": "uint256",
          "name": "maxScale",
          "type": "uint256"
        },
        {
          "internalType": "uint8",
          "name": "lockWeeks",
          "type": "uint8"
        },
        {
          "internalType": "address",
          "name": "_rewardToken",
          "type": "address"
        }
      ],
      "stateMutability": "nonpayable",
      "type": "constructor"
    },
    {
      "anonymous": false,
      "inputs": [
        {
          "indexed": true,
          "internalType": "address",
          "name": "user",
          "type": "address"
        },
        {
          "indexed": false,
          "internalType": "uint256",
          "name": "amount",
          "type": "uint256"
        }
      ],
      "name": "ClaimReward",
      "type": "event"
    },
    {
      "anonymous": false,
      "inputs": [
        {
          "indexed": true,
          "internalType": "address",
          "name": "user",
          "type": "address"
        },
        {
          "indexed": false,
          "internalType": "uint256",
          "name": "no",
          "type": "uint256"
        },
        {
          "indexed": false,
          "internalType": "uint256",
          "name": "amount",
          "type": "uint256"
        }
      ],
      "name": "SetReward",
      "type": "event"
    },
    {
      "inputs": [],
      "name": "LOCK_WEEKNUM",
      "outputs": [
        {
          "internalType": "uint8",
          "name": "",
          "type": "uint8"
        }
      ],
      "stateMutability": "view",
      "type": "function"
    },
    {
      "inputs": [],
      "name": "MAX_SCALE",
      "outputs": [
        {
          "internalType": "uint256",
          "name": "",
          "type": "uint256"
        }
      ],
      "stateMutability": "view",
      "type": "function"
    },
    {
      "inputs": [],
      "name": "MAX_WEEKS",
      "outputs": [
        {
          "internalType": "uint8",
          "name": "",
          "type": "uint8"
        }
      ],
      "stateMutability": "view",
      "type": "function"
    },
    {
      "inputs": [],
      "name": "WEEK_SECONDS",
      "outputs": [
        {
          "internalType": "uint24",
          "name": "",
          "type": "uint24"
        }
      ],
      "stateMutability": "view",
      "type": "function"
    },
    {
      "inputs": [],
      "name": "acceptSetter",
      "outputs": [],
      "stateMutability": "nonpayable",
      "type": "function"
    },
    {
      "inputs": [],
      "name": "canClaimAmount",
      "outputs": [
        {
          "internalType": "uint256",
          "name": "",
          "type": "uint256"
        }
      ],
      "stateMutability": "view",
      "type": "function"
    },
    {
      "inputs": [],
      "name": "claim",
      "outputs": [],
      "stateMutability": "nonpayable",
      "type": "function"
    },
    {
      "inputs": [
        {
          "internalType": "uint256",
          "name": "amount",
          "type": "uint256"
        },
        {
          "internalType": "uint8",
          "name": "k",
          "type": "uint8"
        }
      ],
      "name": "getScore",
      "outputs": [
        {
          "internalType": "uint256",
          "name": "score",
          "type": "uint256"
        }
      ],
      "stateMutability": "view",
      "type": "function"
    },
    {
      "inputs": [],
      "name": "latestNo",
      "outputs": [
        {
          "internalType": "uint256",
          "name": "",
          "type": "uint256"
        }
      ],
      "stateMutability": "view",
      "type": "function"
    },
    {
      "inputs": [],
      "name": "owner",
      "outputs": [
        {
          "internalType": "address",
          "name": "",
          "type": "address"
        }
      ],
      "stateMutability": "view",
      "type": "function"
    },
    {
      "inputs": [],
      "name": "rewardToken",
      "outputs": [
        {
          "internalType": "address",
          "name": "",
          "type": "address"
        }
      ],
      "stateMutability": "view",
      "type": "function"
    },
    {
      "inputs": [
        {
          "internalType": "uint256",
          "name": "",
          "type": "uint256"
        }
      ],
      "name": "rewardsOf",
      "outputs": [
        {
          "internalType": "uint256",
          "name": "",
          "type": "uint256"
        }
      ],
      "stateMutability": "view",
      "type": "function"
    },
    {
      "inputs": [
        {
          "internalType": "uint256",
          "name": "no",
          "type": "uint256"
        },
        {
          "internalType": "uint256",
          "name": "amount",
          "type": "uint256"
        }
      ],
      "name": "setReward",
      "outputs": [],
      "stateMutability": "nonpayable",
      "type": "function"
    },
    {
      "inputs": [
        {
          "internalType": "uint256[]",
          "name": "nos",
          "type": "uint256[]"
        },
        {
          "internalType": "uint256[]",
          "name": "amounts",
          "type": "uint256[]"
        }
      ],
      "name": "setRewards",
      "outputs": [
        {
          "internalType": "uint256",
          "name": "total",
          "type": "uint256"
        }
      ],
      "stateMutability": "nonpayable",
      "type": "function"
    },
    {
      "inputs": [
        {
          "internalType": "uint256",
          "name": "",
          "type": "uint256"
        }
      ],
      "name": "totalScores",
      "outputs": [
        {
          "internalType": "uint256",
          "name": "",
          "type": "uint256"
        }
      ],
      "stateMutability": "view",
      "type": "function"
    },
    {
      "inputs": [
        {
          "internalType": "address",
          "name": "_owner",
          "type": "address"
        }
      ],
      "name": "transferOwner",
      "outputs": [],
      "stateMutability": "nonpayable",
      "type": "function"
    },
    {
      "inputs": [
        {
          "internalType": "address",
          "name": "",
          "type": "address"
        },
        {
          "internalType": "uint256",
          "name": "",
          "type": "uint256"
        }
      ],
      "name": "userCanClaimWeeks",
      "outputs": [
        {
          "internalType": "uint256",
          "name": "",
          "type": "uint256"
        }
      ],
      "stateMutability": "view",
      "type": "function"
    },
    {
      "inputs": [
        {
          "internalType": "address",
          "name": "",
          "type": "address"
        },
        {
          "internalType": "uint256",
          "name": "",
          "type": "uint256"
        }
      ],
      "name": "userScores",
      "outputs": [
        {
          "internalType": "uint256",
          "name": "",
          "type": "uint256"
        }
      ],
      "stateMutability": "view",
      "type": "function"
    }
  ],
  "bytecode": "0x61010060405234801561001157600080fd5b50604051610feb380380610feb8339810160408190526100309161007b565b6001600160a01b031660805260ff92831660a05260c0919091521660e052600080546001600160a01b031916331790556100d7565b805160ff8116811461007657600080fd5b919050565b6000806000806080858703121561009157600080fd5b61009a85610065565b9350602085015192506100af60408601610065565b60608601519092506001600160a01b03811681146100cc57600080fd5b939692955090935050565b60805160a05160c05160e051610ea3610148600039600081816101530152818161031701526105110152600081816102c801526108cb01526000818161028e0152818161086701526108920152600081816102ef015281816104040152818161070f01526107a70152610ea36000f3fe608060405234801561001057600080fd5b50600436106101165760003560e01c80638da5cb5b116100a2578063cd671a5811610071578063cd671a581461026c578063e11400bb14610289578063ee3453ed146102b0578063f6def7cf146102c3578063f7c618c1146102ea57600080fd5b80638da5cb5b14610208578063979db1c414610233578063a47bd49614610246578063bb57852d1461025957600080fd5b80634e71d92d116100e95780634e71d92d146101b05780634fb2e45d146101ba5780635b680a45146101cd5780635f8e422f146101f85780638431165e1461020057600080fd5b80630bce12841461011b5780630d437d401461014e578063157775df1461018757806329ed1cfd146101a7575b600080fd5b61013b610129366004610b4f565b60056020526000908152604090205481565b6040519081526020015b60405180910390f35b6101757f000000000000000000000000000000000000000000000000000000000000000081565b60405160ff9091168152602001610145565b61013b610195366004610b4f565b60046020526000908152604090205481565b61013b60065481565b6101b8610311565b005b6101b86101c8366004610b84565b610464565b61013b6101db366004610b9f565b600260209081526000928352604080842090915290825290205481565b6101b86104b9565b61013b61050a565b60005461021b906001600160a01b031681565b6040516001600160a01b039091168152602001610145565b61013b610241366004610c7a565b6105e3565b6101b8610254366004610cde565b610778565b61013b610267366004610b9f565b610839565b61027561025881565b60405162ffffff9091168152602001610145565b6101757f000000000000000000000000000000000000000000000000000000000000000081565b61013b6102be366004610d00565b61085e565b61013b7f000000000000000000000000000000000000000000000000000000000000000081565b61021b7f000000000000000000000000000000000000000000000000000000000000000081565b600060ff7f00000000000000000000000000000000000000000000000000000000000000001661034361025842610d4c565b61034d9190610d6e565b33600090815260036020526040812054919250905b336000908152600360205260409020600101548110156103fe578281116103fe5761038e816001610d9d565b33600090815260036020526040812001556000818152600460209081526040808320543384526002835281842085855283528184205460059093529220546103d69190610db0565b6103e09190610d4c565b6103ea9083610d9d565b9150806103f681610dc7565b915050610362565b5061042a7f00000000000000000000000000000000000000000000000000000000000000003383610928565b60405181815233907fba8de60c3403ec381d1d484652ea1980e3c3e56359195c92525bff4ce47ad98e906020015b60405180910390a25050565b6000546001600160a01b031633146104975760405162461bcd60e51b815260040161048e90610de0565b60405180910390fd5b600180546001600160a01b0319166001600160a01b0392909216919091179055565b6001546001600160a01b031633146104e35760405162461bcd60e51b815260040161048e90610de0565b60018054600080546001600160a01b03199081166001600160a01b03841617909155169055565b60008060ff7f00000000000000000000000000000000000000000000000000000000000000001661053d61025842610d4c565b6105479190610d6e565b33600090815260036020526040812054919250905b336000908152600360205260409020600101548110156105dc578281116105dc576000818152600460209081526040808320543384526002835281842085855283528184205460059093529220546105b49190610db0565b6105be9190610d4c565b6105c89083610d9d565b9150806105d481610dc7565b91505061055c565b5092915050565b600080546001600160a01b0316331461060e5760405162461bcd60e51b815260040161048e90610de0565b60005b835181101561069e5782818151811061062c5761062c610d87565b60200260200101518261063f9190610d9d565b915082818151811061065357610653610d87565b60200260200101516005600086848151811061067157610671610d87565b6020026020010151815260200190815260200160002081905550808061069690610dc7565b915050610611565b50600083511180156106d7575060065483600185516106bd9190610d6e565b815181106106cd576106cd610d87565b6020026020010151115b1561070a5782600184516106eb9190610d6e565b815181106106fb576106fb610d87565b60200260200101516006819055505b6107367f0000000000000000000000000000000000000000000000000000000000000000333084610a35565b60408051600081526020810183905233917fc3991418cacd70a010fce559a44fcbb47534ca43bf7543964bdca2639f6e6e5a910160405180910390a292915050565b6000546001600160a01b031633146107a25760405162461bcd60e51b815260040161048e90610de0565b6107ce7f0000000000000000000000000000000000000000000000000000000000000000333084610a35565b600082815260056020526040812080548392906107ec908490610d9d565b90915550506006548211156108015760068290555b604080518381526020810183905233917fc3991418cacd70a010fce559a44fcbb47534ca43bf7543964bdca2639f6e6e5a9101610458565b6003602052816000526040600020816002811061085557600080fd5b01549150829050565b600061088b60017f0000000000000000000000000000000000000000000000000000000000000000610e03565b60ff1660017f000000000000000000000000000000000000000000000000000000000000000060ff166001856108c19190610e03565b60ff166108ef60017f0000000000000000000000000000000000000000000000000000000000000000610d6e565b6108f99190610db0565b6109039190610d9d565b61090d9190610d6e565b6109179085610db0565b6109219190610d4c565b9392505050565b604080516001600160a01b038481166024830152604480830185905283518084039091018152606490920183526020820180516001600160e01b031663a9059cbb60e01b17905291516000928392908716916109849190610e1c565b6000604051808303816000865af19150503d80600081146109c1576040519150601f19603f3d011682016040523d82523d6000602084013e6109c6565b606091505b50915091508180156109f05750805115806109f05750808060200190518101906109f09190610e4b565b610a2e5760405162461bcd60e51b815260206004820152600f60248201526e1514905394d1915497d19052531151608a1b604482015260640161048e565b5050505050565b604080516001600160a01b0385811660248301528481166044830152606480830185905283518084039091018152608490920183526020820180516001600160e01b03166323b872dd60e01b1790529151600092839290881691610a999190610e1c565b6000604051808303816000865af19150503d8060008114610ad6576040519150601f19603f3d011682016040523d82523d6000602084013e610adb565b606091505b5091509150818015610b05575080511580610b05575080806020019051810190610b059190610e4b565b610b475760405162461bcd60e51b81526020600482015260136024820152721d1c985b9cd9995c919c9bdb4819985a5b1959606a1b604482015260640161048e565b505050505050565b600060208284031215610b6157600080fd5b5035919050565b80356001600160a01b0381168114610b7f57600080fd5b919050565b600060208284031215610b9657600080fd5b61092182610b68565b60008060408385031215610bb257600080fd5b610bbb83610b68565b946020939093013593505050565b634e487b7160e01b600052604160045260246000fd5b600082601f830112610bf057600080fd5b8135602067ffffffffffffffff80831115610c0d57610c0d610bc9565b8260051b604051601f19603f83011681018181108482111715610c3257610c32610bc9565b604052938452858101830193838101925087851115610c5057600080fd5b83870191505b84821015610c6f57813583529183019190830190610c56565b979650505050505050565b60008060408385031215610c8d57600080fd5b823567ffffffffffffffff80821115610ca557600080fd5b610cb186838701610bdf565b93506020850135915080821115610cc757600080fd5b50610cd485828601610bdf565b9150509250929050565b60008060408385031215610cf157600080fd5b50508035926020909101359150565b60008060408385031215610d1357600080fd5b82359150602083013560ff81168114610d2b57600080fd5b809150509250929050565b634e487b7160e01b600052601160045260246000fd5b600082610d6957634e487b7160e01b600052601260045260246000fd5b500490565b81810381811115610d8157610d81610d36565b92915050565b634e487b7160e01b600052603260045260246000fd5b80820180821115610d8157610d81610d36565b8082028115828204841417610d8157610d81610d36565b600060018201610dd957610dd9610d36565b5060010190565b6020808252600990820152683337b93134b23232b760b91b604082015260600190565b60ff8281168282160390811115610d8157610d81610d36565b6000825160005b81811015610e3d5760208186018101518583015201610e23565b506000920191825250919050565b600060208284031215610e5d57600080fd5b8151801515811461092157600080fdfea26469706673582212202112c5c717277fdfd949627c395e8573a0924178f501baed9227015222f3210764736f6c63430008110033",
  "linkReferences": {},
  "deployedLinkReferences": {}
}