{
  "_format": "hh-sol-artifact-1",
  "contractName": "StakeERC20",
  "sourceName": "contracts/stakeERC20.sol",
  "abi": [
    {
      "inputs": [
        {
          "internalType": "uint8",
          "name": "maxWeeks",
          "type": "uint8"
        },
        {
          "internalType": "uint256",
          "name": "maxScale",
          "type": "uint256"
        },
        {
          "internalType": "address",
          "name": "_rewardToken",
          "type": "address"
        },
        {
          "internalType": "address",
          "name": "_lpToken",
          "type": "address"
        }
      ],
      "stateMutability": "nonpayable",
      "type": "constructor"
    },
    {
      "anonymous": false,
      "inputs": [
        {
          "indexed": true,
          "internalType": "address",
          "name": "user",
          "type": "address"
        },
        {
          "indexed": false,
          "internalType": "uint256",
          "name": "amount",
          "type": "uint256"
        }
      ],
      "name": "ClaimReward",
      "type": "event"
    },
    {
      "anonymous": false,
      "inputs": [
        {
          "indexed": true,
          "internalType": "address",
          "name": "user",
          "type": "address"
        },
        {
          "indexed": false,
          "internalType": "uint256",
          "name": "no",
          "type": "uint256"
        },
        {
          "indexed": false,
          "internalType": "uint256",
          "name": "amount",
          "type": "uint256"
        }
      ],
      "name": "SetReward",
      "type": "event"
    },
    {
      "anonymous": false,
      "inputs": [
        {
          "indexed": true,
          "internalType": "address",
          "name": "user",
          "type": "address"
        },
        {
          "indexed": false,
          "internalType": "uint256",
          "name": "id",
          "type": "uint256"
        },
        {
          "indexed": false,
          "internalType": "uint256",
          "name": "amount",
          "type": "uint256"
        },
        {
          "indexed": false,
          "internalType": "uint8",
          "name": "k",
          "type": "uint8"
        }
      ],
      "name": "Stake",
      "type": "event"
    },
    {
      "anonymous": false,
      "inputs": [
        {
          "indexed": true,
          "internalType": "address",
          "name": "user",
          "type": "address"
        },
        {
          "indexed": false,
          "internalType": "uint256",
          "name": "amount",
          "type": "uint256"
        }
      ],
      "name": "Withdraw",
      "type": "event"
    },
    {
      "inputs": [],
      "name": "MAX_SCALE",
      "outputs": [
        {
          "internalType": "uint256",
          "name": "",
          "type": "uint256"
        }
      ],
      "stateMutability": "view",
      "type": "function"
    },
    {
      "inputs": [],
      "name": "MAX_WEEKS",
      "outputs": [
        {
          "internalType": "uint8",
          "name": "",
          "type": "uint8"
        }
      ],
      "stateMutability": "view",
      "type": "function"
    },
    {
      "inputs": [],
      "name": "WEEK_SECONDS",
      "outputs": [
        {
          "internalType": "uint24",
          "name": "",
          "type": "uint24"
        }
      ],
      "stateMutability": "view",
      "type": "function"
    },
    {
      "inputs": [],
      "name": "acceptSetter",
      "outputs": [],
      "stateMutability": "nonpayable",
      "type": "function"
    },
    {
      "inputs": [
        {
          "internalType": "uint256",
          "name": "",
          "type": "uint256"
        },
        {
          "internalType": "uint256",
          "name": "",
          "type": "uint256"
        }
      ],
      "name": "bClaimReward",
      "outputs": [
        {
          "internalType": "bool",
          "name": "",
          "type": "bool"
        }
      ],
      "stateMutability": "view",
      "type": "function"
    },
    {
      "inputs": [],
      "name": "claimReward",
      "outputs": [],
      "stateMutability": "nonpayable",
      "type": "function"
    },
    {
      "inputs": [
        {
          "internalType": "uint256",
          "name": "amount",
          "type": "uint256"
        },
        {
          "internalType": "uint8",
          "name": "k",
          "type": "uint8"
        }
      ],
      "name": "getScore",
      "outputs": [
        {
          "internalType": "uint256",
          "name": "score",
          "type": "uint256"
        }
      ],
      "stateMutability": "view",
      "type": "function"
    },
    {
      "inputs": [],
      "name": "getStaking",
      "outputs": [
        {
          "internalType": "uint256",
          "name": "total",
          "type": "uint256"
        },
        {
          "internalType": "uint256",
          "name": "staking",
          "type": "uint256"
        }
      ],
      "stateMutability": "view",
      "type": "function"
    },
    {
      "inputs": [],
      "name": "latestNo",
      "outputs": [
        {
          "internalType": "uint256",
          "name": "",
          "type": "uint256"
        }
      ],
      "stateMutability": "view",
      "type": "function"
    },
    {
      "inputs": [],
      "name": "lpToken",
      "outputs": [
        {
          "internalType": "address",
          "name": "",
          "type": "address"
        }
      ],
      "stateMutability": "view",
      "type": "function"
    },
    {
      "inputs": [],
      "name": "nonce",
      "outputs": [
        {
          "internalType": "uint256",
          "name": "",
          "type": "uint256"
        }
      ],
      "stateMutability": "view",
      "type": "function"
    },
    {
      "inputs": [],
      "name": "owner",
      "outputs": [
        {
          "internalType": "address",
          "name": "",
          "type": "address"
        }
      ],
      "stateMutability": "view",
      "type": "function"
    },
    {
      "inputs": [],
      "name": "rewardToken",
      "outputs": [
        {
          "internalType": "address",
          "name": "",
          "type": "address"
        }
      ],
      "stateMutability": "view",
      "type": "function"
    },
    {
      "inputs": [
        {
          "internalType": "uint256",
          "name": "",
          "type": "uint256"
        }
      ],
      "name": "rewardsOf",
      "outputs": [
        {
          "internalType": "uint256",
          "name": "",
          "type": "uint256"
        }
      ],
      "stateMutability": "view",
      "type": "function"
    },
    {
      "inputs": [
        {
          "internalType": "uint256[]",
          "name": "nos",
          "type": "uint256[]"
        },
        {
          "internalType": "uint256[]",
          "name": "amounts",
          "type": "uint256[]"
        }
      ],
      "name": "setReward",
      "outputs": [
        {
          "internalType": "uint256",
          "name": "total",
          "type": "uint256"
        }
      ],
      "stateMutability": "nonpayable",
      "type": "function"
    },
    {
      "inputs": [
        {
          "internalType": "uint256",
          "name": "no",
          "type": "uint256"
        },
        {
          "internalType": "uint256",
          "name": "amount",
          "type": "uint256"
        }
      ],
      "name": "setReward",
      "outputs": [],
      "stateMutability": "nonpayable",
      "type": "function"
    },
    {
      "inputs": [
        {
          "internalType": "uint256",
          "name": "amount",
          "type": "uint256"
        },
        {
          "internalType": "uint8",
          "name": "k",
          "type": "uint8"
        }
      ],
      "name": "stake",
      "outputs": [],
      "stateMutability": "nonpayable",
      "type": "function"
    },
    {
      "inputs": [
        {
          "internalType": "uint256",
          "name": "",
          "type": "uint256"
        }
      ],
      "name": "stakingERC20s",
      "outputs": [
        {
          "internalType": "uint256",
          "name": "amount",
          "type": "uint256"
        },
        {
          "internalType": "uint256",
          "name": "score",
          "type": "uint256"
        },
        {
          "internalType": "uint256",
          "name": "beginNo",
          "type": "uint256"
        },
        {
          "internalType": "uint256",
          "name": "endNo",
          "type": "uint256"
        },
        {
          "internalType": "uint256",
          "name": "toClaimNo",
          "type": "uint256"
        }
      ],
      "stateMutability": "view",
      "type": "function"
    },
    {
      "inputs": [
        {
          "internalType": "address",
          "name": "_owner",
          "type": "address"
        }
      ],
      "name": "transferOwner",
      "outputs": [],
      "stateMutability": "nonpayable",
      "type": "function"
    },
    {
      "inputs": [
        {
          "internalType": "address",
          "name": "",
          "type": "address"
        },
        {
          "internalType": "uint256",
          "name": "",
          "type": "uint256"
        }
      ],
      "name": "userERC20s",
      "outputs": [
        {
          "internalType": "uint256",
          "name": "",
          "type": "uint256"
        }
      ],
      "stateMutability": "view",
      "type": "function"
    },
    {
      "inputs": [
        {
          "internalType": "uint256",
          "name": "amount",
          "type": "uint256"
        }
      ],
      "name": "withdraw",
      "outputs": [
        {
          "internalType": "uint256",
          "name": "total",
          "type": "uint256"
        }
      ],
      "stateMutability": "nonpayable",
      "type": "function"
    }
  ],
  "bytecode": "0x61010060405234801561001157600080fd5b506040516114d13803806114d183398101604081905261003091610083565b6001600160a01b0391821660805260ff90931660a05260c091909152600080546001600160a01b031916331790551660e0526100d9565b80516001600160a01b038116811461007e57600080fd5b919050565b6000806000806080858703121561009957600080fd5b845160ff811681146100aa57600080fd5b602086015190945092506100c060408601610067565b91506100ce60608601610067565b905092959194509250565b60805160a05160c05160e051611380610151600039600081816101d30152818161044601526107580152600081816103850152610d5c015260008181610339015281816103de01528181610cf80152610d230152600081816103ac0152818161087a01528181610a5e0152610c6601526113806000f3fe608060405234801561001057600080fd5b50600436106101375760003560e01c8063a218de15116100b8578063cd671a581161007c578063cd671a58146102d9578063ce6d3e3e146102f6578063e11400bb14610334578063ee3453ed1461036d578063f6def7cf14610380578063f7c618c1146103a757600080fd5b8063a218de151461023d578063a47bd496146102a2578063affed0e0146102b5578063b88a802f146102be578063ba086501146102c657600080fd5b80634fb2e45d116100ff5780634fb2e45d146101b35780635f8e422f146101c65780635fcbd285146101ce5780637b1391a61461020d5780638da5cb5b1461022a57600080fd5b80630bce12841461013c57806310087fb11461016f57806329ed1cfd146101845780632e1a7d4d1461018d5780634d10c55a146101a0575b600080fd5b61015c61014a366004610fe0565b60046020526000908152604090205481565b6040519081526020015b60405180910390f35b61018261017d366004610ff9565b6103ce565b005b61015c60055481565b61015c61019b366004610fe0565b6105e9565b61015c6101ae3660046110e0565b6107b9565b6101826101c1366004611160565b6108e3565b61018261092f565b6101f57f000000000000000000000000000000000000000000000000000000000000000081565b6040516001600160a01b039091168152602001610166565b610215610980565b60408051928352602083019190915201610166565b6000546101f5906001600160a01b031681565b61027a61024b366004610fe0565b600760205260009081526040902080546001820154600283015460038401546004909401549293919290919085565b604080519586526020860194909452928401919091526060830152608082015260a001610166565b6101826102b036600461117b565b610a2f565b61015c60065481565b610182610ae8565b61015c6102d436600461119d565b610cbe565b6102e261025881565b60405162ffffff9091168152602001610166565b61032461030436600461117b565b600260209081526000928352604080842090915290825290205460ff1681565b6040519015158152602001610166565b61035b7f000000000000000000000000000000000000000000000000000000000000000081565b60405160ff9091168152602001610166565b61015c61037b366004610ff9565b610cef565b61015c7f000000000000000000000000000000000000000000000000000000000000000081565b6101f57f000000000000000000000000000000000000000000000000000000000000000081565b60008160ff1611801561040757507f000000000000000000000000000000000000000000000000000000000000000060ff168160ff1611155b6104415760405162461bcd60e51b8152602060048201526006602482015265359018bf1a9960d11b60448201526064015b60405180910390fd5b61046d7f0000000000000000000000000000000000000000000000000000000000000000333085610db9565b600061047b610258426111dd565b6104869060016111ff565b905060006104948484610cef565b905060005b8360ff168160ff1610156104ee5781600360006104b960ff8516876111ff565b815260200190815260200160002060008282546104d691906111ff565b909155508190506104e681611218565b915050610499565b506040518060a001604052808581526020018281526020018381526020018460ff168461051b91906111ff565b8152602090810184905260068054600090815260078352604080822085518155858501516001808301919091558683015160028301556060808801516003840155608090970151600490920191909155338084526008865282842085548154938401825590855293869020909101929092559154825190815292830188905260ff871683830152905190927f6fa2f6021ee337436cdf2b2570285886da18bc06402ce284d296504a0fe8f875928290030190a2600680549060006105de83611237565b919050555050505050565b6000806105f8610258426111dd565b336000908152600860205260408120549192509061061890600190611250565b90505b33600090815260086020526040812080548390811061063c5761063c611263565b906000526020600020015490508260076000838152602001908152602001600020600301541161073f5760008181526007602052604090205461067f90856111ff565b93508484116107155733600090815260086020526040902080546106a1611263565b6000918252602080832090910154338352600890915260409091208054849081106106ce576106ce611263565b60009182526020808320909101929092553381526008909152604090208054806106fa576106fa611279565b60019003818190600052602060002001600090559055610732565b61071f8585611250565b6000828152600760205260409020558493505b84840361073f5750610752565b508061074a8161128f565b91505061061b565b5061077e7f00000000000000000000000000000000000000000000000000000000000000003384610ed3565b60405182815233907f884edad9ce6fa2440d8a54cc123490eb96d2768479d49ff9c7366125a94243649060200160405180910390a250919050565b600080546001600160a01b031633146107e45760405162461bcd60e51b8152600401610438906112a6565b60005b83518110156108745782818151811061080257610802611263565b60200260200101518261081591906111ff565b915082818151811061082957610829611263565b60200260200101516004600086848151811061084757610847611263565b6020026020010151815260200190815260200160002081905550808061086c90611237565b9150506107e7565b506108a17f0000000000000000000000000000000000000000000000000000000000000000333084610db9565b60408051600081526020810183905233917fc3991418cacd70a010fce559a44fcbb47534ca43bf7543964bdca2639f6e6e5a910160405180910390a292915050565b6000546001600160a01b0316331461090d5760405162461bcd60e51b8152600401610438906112a6565b600180546001600160a01b0319166001600160a01b0392909216919091179055565b6001546001600160a01b031633146109595760405162461bcd60e51b8152600401610438906112a6565b60018054600080546001600160a01b03199081166001600160a01b03841617909155169055565b60008080610990610258426111dd565b905060005b33600090815260086020526040902054811015610a29573360009081526008602052604081208054839081106109cd576109cd611263565b600091825260208083209091015480835260079091526040909120805460039091015491925090841015610a0857610a0581866111ff565b94505b610a1281876111ff565b955050508080610a2190611237565b915050610995565b50509091565b6000546001600160a01b03163314610a595760405162461bcd60e51b8152600401610438906112a6565b610a857f0000000000000000000000000000000000000000000000000000000000000000333084610db9565b60008281526004602052604081208054839290610aa39084906111ff565b9091555050604080518381526020810183905233917fc3991418cacd70a010fce559a44fcbb47534ca43bf7543964bdca2639f6e6e5a91015b60405180910390a25050565b6000610af6610258426111dd565b90506000805b33600090815260086020526040902054811015610c6057336000908152600860205260408120805483908110610b3457610b34611263565b600091825260208083209091015480835260079091526040909120600401549091505b600082815260076020526040902060030154811015610c4b57600082815260026020908152604080832084845290915290205460ff1680610b9757508481115b80610bae5750600081815260046020526040902054155b610c395760008281526002602090815260408083208484529091529020805460ff19166001908117909155610be49082906111ff565b6000838152600760209081526040808320600480820195909555858452600383528184205460019091015494909252909120549091610c22916112c9565b610c2c91906111dd565b610c3690856111ff565b93505b80610c4381611237565b915050610b57565b50508080610c5890611237565b915050610afc565b50610c8c7f00000000000000000000000000000000000000000000000000000000000000003383610ed3565b60405181815233907fba8de60c3403ec381d1d484652ea1980e3c3e56359195c92525bff4ce47ad98e90602001610adc565b60086020528160005260406000208181548110610cda57600080fd5b90600052602060002001600091509150505481565b6000610d1c60017f00000000000000000000000000000000000000000000000000000000000000006112e0565b60ff1660017f000000000000000000000000000000000000000000000000000000000000000060ff16600185610d5291906112e0565b60ff16610d8060017f0000000000000000000000000000000000000000000000000000000000000000611250565b610d8a91906112c9565b610d9491906111ff565b610d9e9190611250565b610da890856112c9565b610db291906111dd565b9392505050565b604080516001600160a01b0385811660248301528481166044830152606480830185905283518084039091018152608490920183526020820180516001600160e01b03166323b872dd60e01b1790529151600092839290881691610e1d91906112f9565b6000604051808303816000865af19150503d8060008114610e5a576040519150601f19603f3d011682016040523d82523d6000602084013e610e5f565b606091505b5091509150818015610e89575080511580610e89575080806020019051810190610e899190611328565b610ecb5760405162461bcd60e51b81526020600482015260136024820152721d1c985b9cd9995c919c9bdb4819985a5b1959606a1b6044820152606401610438565b505050505050565b604080516001600160a01b038481166024830152604480830185905283518084039091018152606490920183526020820180516001600160e01b031663a9059cbb60e01b1790529151600092839290871691610f2f91906112f9565b6000604051808303816000865af19150503d8060008114610f6c576040519150601f19603f3d011682016040523d82523d6000602084013e610f71565b606091505b5091509150818015610f9b575080511580610f9b575080806020019051810190610f9b9190611328565b610fd95760405162461bcd60e51b815260206004820152600f60248201526e1514905394d1915497d19052531151608a1b6044820152606401610438565b5050505050565b600060208284031215610ff257600080fd5b5035919050565b6000806040838503121561100c57600080fd5b82359150602083013560ff8116811461102457600080fd5b809150509250929050565b634e487b7160e01b600052604160045260246000fd5b600082601f83011261105657600080fd5b8135602067ffffffffffffffff808311156110735761107361102f565b8260051b604051601f19603f830116810181811084821117156110985761109861102f565b6040529384528581018301938381019250878511156110b657600080fd5b83870191505b848210156110d5578135835291830191908301906110bc565b979650505050505050565b600080604083850312156110f357600080fd5b823567ffffffffffffffff8082111561110b57600080fd5b61111786838701611045565b9350602085013591508082111561112d57600080fd5b5061113a85828601611045565b9150509250929050565b80356001600160a01b038116811461115b57600080fd5b919050565b60006020828403121561117257600080fd5b610db282611144565b6000806040838503121561118e57600080fd5b50508035926020909101359150565b600080604083850312156111b057600080fd5b6111b983611144565b946020939093013593505050565b634e487b7160e01b600052601160045260246000fd5b6000826111fa57634e487b7160e01b600052601260045260246000fd5b500490565b80820180821115611212576112126111c7565b92915050565b600060ff821660ff810361122e5761122e6111c7565b60010192915050565b600060018201611249576112496111c7565b5060010190565b81810381811115611212576112126111c7565b634e487b7160e01b600052603260045260246000fd5b634e487b7160e01b600052603160045260246000fd5b60008161129e5761129e6111c7565b506000190190565b6020808252600990820152683337b93134b23232b760b91b604082015260600190565b8082028115828204841417611212576112126111c7565b60ff8281168282160390811115611212576112126111c7565b6000825160005b8181101561131a5760208186018101518583015201611300565b506000920191825250919050565b60006020828403121561133a57600080fd5b81518015158114610db257600080fdfea264697066735822122016d776e9ebaa02311aae8e129a3ae9690a055942f3ae5ee3424c2a650fb8f2c664736f6c63430008110033",
  "linkReferences": {},
  "deployedLinkReferences": {}
}