{
  "_format": "hh-sol-artifact-1",
  "contractName": "StakeERC20",
  "sourceName": "contracts/stakeERC20.sol",
  "abi": [
    {
      "inputs": [
        {
          "internalType": "uint8",
          "name": "maxWeeks",
          "type": "uint8"
        },
        {
          "internalType": "uint256",
          "name": "maxScale",
          "type": "uint256"
        },
        {
          "internalType": "uint8",
          "name": "lockWeeks",
          "type": "uint8"
        },
        {
          "internalType": "address",
          "name": "_rewardToken",
          "type": "address"
        },
        {
          "internalType": "address",
          "name": "_lpToken",
          "type": "address"
        }
      ],
      "stateMutability": "nonpayable",
      "type": "constructor"
    },
    {
      "anonymous": false,
      "inputs": [
        {
          "indexed": true,
          "internalType": "address",
          "name": "user",
          "type": "address"
        },
        {
          "indexed": false,
          "internalType": "uint256",
          "name": "amount",
          "type": "uint256"
        }
      ],
      "name": "ClaimReward",
      "type": "event"
    },
    {
      "anonymous": false,
      "inputs": [
        {
          "indexed": true,
          "internalType": "address",
          "name": "user",
          "type": "address"
        },
        {
          "indexed": false,
          "internalType": "uint256",
          "name": "no",
          "type": "uint256"
        },
        {
          "indexed": false,
          "internalType": "uint256",
          "name": "amount",
          "type": "uint256"
        }
      ],
      "name": "SetReward",
      "type": "event"
    },
    {
      "anonymous": false,
      "inputs": [
        {
          "indexed": true,
          "internalType": "address",
          "name": "user",
          "type": "address"
        },
        {
          "indexed": false,
          "internalType": "uint256",
          "name": "id",
          "type": "uint256"
        },
        {
          "indexed": false,
          "internalType": "uint256",
          "name": "amount",
          "type": "uint256"
        },
        {
          "indexed": false,
          "internalType": "uint8",
          "name": "k",
          "type": "uint8"
        }
      ],
      "name": "Stake",
      "type": "event"
    },
    {
      "anonymous": false,
      "inputs": [
        {
          "indexed": true,
          "internalType": "address",
          "name": "user",
          "type": "address"
        },
        {
          "indexed": false,
          "internalType": "uint256",
          "name": "amount",
          "type": "uint256"
        }
      ],
      "name": "Withdraw",
      "type": "event"
    },
    {
      "inputs": [],
      "name": "LOCK_WEEKNUM",
      "outputs": [
        {
          "internalType": "uint8",
          "name": "",
          "type": "uint8"
        }
      ],
      "stateMutability": "view",
      "type": "function"
    },
    {
      "inputs": [],
      "name": "MAX_SCALE",
      "outputs": [
        {
          "internalType": "uint256",
          "name": "",
          "type": "uint256"
        }
      ],
      "stateMutability": "view",
      "type": "function"
    },
    {
      "inputs": [],
      "name": "MAX_WEEKS",
      "outputs": [
        {
          "internalType": "uint8",
          "name": "",
          "type": "uint8"
        }
      ],
      "stateMutability": "view",
      "type": "function"
    },
    {
      "inputs": [],
      "name": "WEEK_SECONDS",
      "outputs": [
        {
          "internalType": "uint24",
          "name": "",
          "type": "uint24"
        }
      ],
      "stateMutability": "view",
      "type": "function"
    },
    {
      "inputs": [],
      "name": "acceptSetter",
      "outputs": [],
      "stateMutability": "nonpayable",
      "type": "function"
    },
    {
      "inputs": [
        {
          "internalType": "uint256",
          "name": "",
          "type": "uint256"
        },
        {
          "internalType": "uint256",
          "name": "",
          "type": "uint256"
        }
      ],
      "name": "bClaimReward",
      "outputs": [
        {
          "internalType": "bool",
          "name": "",
          "type": "bool"
        }
      ],
      "stateMutability": "view",
      "type": "function"
    },
    {
      "inputs": [],
      "name": "claimReward",
      "outputs": [],
      "stateMutability": "nonpayable",
      "type": "function"
    },
    {
      "inputs": [
        {
          "internalType": "uint256",
          "name": "amount",
          "type": "uint256"
        },
        {
          "internalType": "uint8",
          "name": "k",
          "type": "uint8"
        }
      ],
      "name": "getScore",
      "outputs": [
        {
          "internalType": "uint256",
          "name": "score",
          "type": "uint256"
        }
      ],
      "stateMutability": "view",
      "type": "function"
    },
    {
      "inputs": [],
      "name": "getStaking",
      "outputs": [
        {
          "internalType": "uint256",
          "name": "total",
          "type": "uint256"
        },
        {
          "internalType": "uint256",
          "name": "staking",
          "type": "uint256"
        }
      ],
      "stateMutability": "view",
      "type": "function"
    },
    {
      "inputs": [],
      "name": "latestNo",
      "outputs": [
        {
          "internalType": "uint256",
          "name": "",
          "type": "uint256"
        }
      ],
      "stateMutability": "view",
      "type": "function"
    },
    {
      "inputs": [],
      "name": "lpToken",
      "outputs": [
        {
          "internalType": "address",
          "name": "",
          "type": "address"
        }
      ],
      "stateMutability": "view",
      "type": "function"
    },
    {
      "inputs": [],
      "name": "nonce",
      "outputs": [
        {
          "internalType": "uint256",
          "name": "",
          "type": "uint256"
        }
      ],
      "stateMutability": "view",
      "type": "function"
    },
    {
      "inputs": [],
      "name": "owner",
      "outputs": [
        {
          "internalType": "address",
          "name": "",
          "type": "address"
        }
      ],
      "stateMutability": "view",
      "type": "function"
    },
    {
      "inputs": [],
      "name": "rewardToken",
      "outputs": [
        {
          "internalType": "address",
          "name": "",
          "type": "address"
        }
      ],
      "stateMutability": "view",
      "type": "function"
    },
    {
      "inputs": [
        {
          "internalType": "uint256",
          "name": "",
          "type": "uint256"
        }
      ],
      "name": "rewardsOf",
      "outputs": [
        {
          "internalType": "uint256",
          "name": "",
          "type": "uint256"
        }
      ],
      "stateMutability": "view",
      "type": "function"
    },
    {
      "inputs": [
        {
          "internalType": "uint256",
          "name": "no",
          "type": "uint256"
        },
        {
          "internalType": "uint256",
          "name": "amount",
          "type": "uint256"
        }
      ],
      "name": "setReward",
      "outputs": [],
      "stateMutability": "nonpayable",
      "type": "function"
    },
    {
      "inputs": [
        {
          "internalType": "uint256[]",
          "name": "nos",
          "type": "uint256[]"
        },
        {
          "internalType": "uint256[]",
          "name": "amounts",
          "type": "uint256[]"
        }
      ],
      "name": "setRewards",
      "outputs": [
        {
          "internalType": "uint256",
          "name": "total",
          "type": "uint256"
        }
      ],
      "stateMutability": "nonpayable",
      "type": "function"
    },
    {
      "inputs": [
        {
          "internalType": "uint256",
          "name": "amount",
          "type": "uint256"
        },
        {
          "internalType": "uint8",
          "name": "k",
          "type": "uint8"
        }
      ],
      "name": "stake",
      "outputs": [],
      "stateMutability": "nonpayable",
      "type": "function"
    },
    {
      "inputs": [
        {
          "internalType": "uint256",
          "name": "",
          "type": "uint256"
        }
      ],
      "name": "stakingERC20s",
      "outputs": [
        {
          "internalType": "uint256",
          "name": "amount",
          "type": "uint256"
        },
        {
          "internalType": "uint256",
          "name": "score",
          "type": "uint256"
        },
        {
          "internalType": "uint256",
          "name": "beginNo",
          "type": "uint256"
        },
        {
          "internalType": "uint256",
          "name": "endNo",
          "type": "uint256"
        },
        {
          "internalType": "uint256",
          "name": "toClaimNo",
          "type": "uint256"
        }
      ],
      "stateMutability": "view",
      "type": "function"
    },
    {
      "inputs": [
        {
          "internalType": "uint256",
          "name": "",
          "type": "uint256"
        }
      ],
      "name": "totalScores",
      "outputs": [
        {
          "internalType": "uint256",
          "name": "",
          "type": "uint256"
        }
      ],
      "stateMutability": "view",
      "type": "function"
    },
    {
      "inputs": [
        {
          "internalType": "address",
          "name": "_owner",
          "type": "address"
        }
      ],
      "name": "transferOwner",
      "outputs": [],
      "stateMutability": "nonpayable",
      "type": "function"
    },
    {
      "inputs": [
        {
          "internalType": "address",
          "name": "",
          "type": "address"
        },
        {
          "internalType": "uint256",
          "name": "",
          "type": "uint256"
        }
      ],
      "name": "userERC20s",
      "outputs": [
        {
          "internalType": "uint256",
          "name": "",
          "type": "uint256"
        }
      ],
      "stateMutability": "view",
      "type": "function"
    },
    {
      "inputs": [
        {
          "internalType": "uint256",
          "name": "amount",
          "type": "uint256"
        }
      ],
      "name": "withdraw",
      "outputs": [
        {
          "internalType": "uint256",
          "name": "total",
          "type": "uint256"
        }
      ],
      "stateMutability": "nonpayable",
      "type": "function"
    }
  ],
  "bytecode": "0x6101206040523480156200001257600080fd5b506040516200162e3803806200162e8339810160408190526200003591620000a2565b6001600160a01b0391821660805260ff94851660a05260c093909352921660e052600080546001600160a01b03191633179055166101005262000109565b805160ff811681146200008557600080fd5b919050565b80516001600160a01b03811681146200008557600080fd5b600080600080600060a08688031215620000bb57600080fd5b620000c68662000073565b945060208601519350620000dd6040870162000073565b9250620000ed606087016200008a565b9150620000fd608087016200008a565b90509295509295909350565b60805160a05160c05160e0516101005161149a620001946000396000818161022f015281816104a301526107c901526000818161018a0152610bda0152600081816103e20152610e760152600081816103a80152818161043b01528181610e120152610e3d01526000818161040901528181610aa201528181610b3a0152610d80015261149a6000f3fe608060405234801561001057600080fd5b506004361061014d5760003560e01c8063979db1c4116100c3578063cd671a581161007c578063cd671a5814610348578063ce6d3e3e14610365578063e11400bb146103a3578063ee3453ed146103ca578063f6def7cf146103dd578063f7c618c11461040457600080fd5b8063979db1c414610299578063a218de15146102ac578063a47bd49614610311578063affed0e014610324578063b88a802f1461032d578063ba0865011461033557600080fd5b80632e1a7d4d116101155780632e1a7d4d146101fc5780634fb2e45d1461020f5780635f8e422f146102225780635fcbd2851461022a5780637b1391a6146102695780638da5cb5b1461028657600080fd5b80630bce1284146101525780630d437d401461018557806310087fb1146101be578063157775df146101d357806329ed1cfd146101f3575b600080fd5b6101726101603660046110fa565b60046020526000908152604090205481565b6040519081526020015b60405180910390f35b6101ac7f000000000000000000000000000000000000000000000000000000000000000081565b60405160ff909116815260200161017c565b6101d16101cc366004611113565b61042b565b005b6101726101e13660046110fa565b60036020526000908152604090205481565b61017260055481565b61017261020a3660046110fa565b610646565b6101d161021d366004611165565b61082a565b6101d1610876565b6102517f000000000000000000000000000000000000000000000000000000000000000081565b6040516001600160a01b03909116815260200161017c565b6102716108c7565b6040805192835260208301919091520161017c565b600054610251906001600160a01b031681565b6101726102a7366004611231565b610976565b6102e96102ba3660046110fa565b600760205260009081526040902080546001820154600283015460038401546004909401549293919290919085565b604080519586526020860194909452928401919091526060830152608082015260a00161017c565b6101d161031f366004611295565b610b0b565b61017260065481565b6101d1610bd4565b6101726103433660046112b7565b610dd8565b61035161025881565b60405162ffffff909116815260200161017c565b610393610373366004611295565b600260209081526000928352604080842090915290825290205460ff1681565b604051901515815260200161017c565b6101ac7f000000000000000000000000000000000000000000000000000000000000000081565b6101726103d8366004611113565b610e09565b6101727f000000000000000000000000000000000000000000000000000000000000000081565b6102517f000000000000000000000000000000000000000000000000000000000000000081565b60008160ff1611801561046457507f000000000000000000000000000000000000000000000000000000000000000060ff168160ff1611155b61049e5760405162461bcd60e51b8152602060048201526006602482015265359018bf1a9960d11b60448201526064015b60405180910390fd5b6104ca7f0000000000000000000000000000000000000000000000000000000000000000333085610ed3565b60006104d8610258426112f7565b6104e3906001611319565b905060006104f18484610e09565b905060005b8360ff168160ff16101561054b57816003600061051660ff851687611319565b815260200190815260200160002060008282546105339190611319565b9091555081905061054381611332565b9150506104f6565b506040518060a001604052808581526020018281526020018381526020018460ff16846105789190611319565b8152602090810184905260068054600090815260078352604080822085518155858501516001808301919091558683015160028301556060808801516003840155608090970151600490920191909155338084526008865282842085548154938401825590855293869020909101929092559154825190815292830188905260ff871683830152905190927f6fa2f6021ee337436cdf2b2570285886da18bc06402ce284d296504a0fe8f875928290030190a26006805490600061063b83611351565b919050555050505050565b600080610655610258426112f7565b33600090815260086020526040812054919250906106759060019061136a565b90505b3360009081526008602052604081208054839081106106995761069961137d565b90600052602060002001549050826007600083815260200190815260200160002060030154116107b0576000818152600760205260409020546106dc9085611319565b93508484116107865733600090815260086020526040902080546107029060019061136a565b815481106107125761071261137d565b60009182526020808320909101543383526008909152604090912080548490811061073f5761073f61137d565b600091825260208083209091019290925533815260089091526040902080548061076b5761076b611393565b600190038181906000526020600020016000905590556107a3565b610790858561136a565b6000828152600760205260409020558493505b8484036107b057506107c3565b50806107bb816113a9565b915050610678565b506107ef7f00000000000000000000000000000000000000000000000000000000000000003384610fed565b60405182815233907f884edad9ce6fa2440d8a54cc123490eb96d2768479d49ff9c7366125a94243649060200160405180910390a250919050565b6000546001600160a01b031633146108545760405162461bcd60e51b8152600401610495906113c0565b600180546001600160a01b0319166001600160a01b0392909216919091179055565b6001546001600160a01b031633146108a05760405162461bcd60e51b8152600401610495906113c0565b60018054600080546001600160a01b03199081166001600160a01b03841617909155169055565b600080806108d7610258426112f7565b905060005b33600090815260086020526040902054811015610970573360009081526008602052604081208054839081106109145761091461137d565b60009182526020808320909101548083526007909152604090912080546003909101549192509084101561094f5761094c8186611319565b94505b6109598187611319565b95505050808061096890611351565b9150506108dc565b50509091565b600080546001600160a01b031633146109a15760405162461bcd60e51b8152600401610495906113c0565b60005b8351811015610a31578281815181106109bf576109bf61137d565b6020026020010151826109d29190611319565b91508281815181106109e6576109e661137d565b602002602001015160046000868481518110610a0457610a0461137d565b60200260200101518152602001908152602001600020819055508080610a2990611351565b9150506109a4565b5060008351118015610a6a57506005548360018551610a50919061136a565b81518110610a6057610a6061137d565b6020026020010151115b15610a9d578260018451610a7e919061136a565b81518110610a8e57610a8e61137d565b60200260200101516005819055505b610ac97f0000000000000000000000000000000000000000000000000000000000000000333084610ed3565b60408051600081526020810183905233917fc3991418cacd70a010fce559a44fcbb47534ca43bf7543964bdca2639f6e6e5a910160405180910390a292915050565b6000546001600160a01b03163314610b355760405162461bcd60e51b8152600401610495906113c0565b610b617f0000000000000000000000000000000000000000000000000000000000000000333084610ed3565b60008281526004602052604081208054839290610b7f908490611319565b9091555050600554821115610b945760058290555b604080518381526020810183905233917fc3991418cacd70a010fce559a44fcbb47534ca43bf7543964bdca2639f6e6e5a91015b60405180910390a25050565b600060ff7f000000000000000000000000000000000000000000000000000000000000000016610c06610258426112f7565b610c10919061136a565b90506000805b33600090815260086020526040902054811015610d7a57336000908152600860205260408120805483908110610c4e57610c4e61137d565b600091825260208083209091015480835260079091526040909120600401549091505b600082815260076020526040902060030154811015610d6557600082815260026020908152604080832084845290915290205460ff1680610cb157508481115b80610cc85750600081815260046020526040902054155b610d535760008281526002602090815260408083208484529091529020805460ff19166001908117909155610cfe908290611319565b6000838152600760209081526040808320600480820195909555858452600383528184205460019091015494909252909120549091610d3c916113e3565b610d4691906112f7565b610d509085611319565b93505b80610d5d81611351565b915050610c71565b50508080610d7290611351565b915050610c16565b50610da67f00000000000000000000000000000000000000000000000000000000000000003383610fed565b60405181815233907fba8de60c3403ec381d1d484652ea1980e3c3e56359195c92525bff4ce47ad98e90602001610bc8565b60086020528160005260406000208181548110610df457600080fd5b90600052602060002001600091509150505481565b6000610e3660017f00000000000000000000000000000000000000000000000000000000000000006113fa565b60ff1660017f000000000000000000000000000000000000000000000000000000000000000060ff16600185610e6c91906113fa565b60ff16610e9a60017f000000000000000000000000000000000000000000000000000000000000000061136a565b610ea491906113e3565b610eae9190611319565b610eb8919061136a565b610ec290856113e3565b610ecc91906112f7565b9392505050565b604080516001600160a01b0385811660248301528481166044830152606480830185905283518084039091018152608490920183526020820180516001600160e01b03166323b872dd60e01b1790529151600092839290881691610f379190611413565b6000604051808303816000865af19150503d8060008114610f74576040519150601f19603f3d011682016040523d82523d6000602084013e610f79565b606091505b5091509150818015610fa3575080511580610fa3575080806020019051810190610fa39190611442565b610fe55760405162461bcd60e51b81526020600482015260136024820152721d1c985b9cd9995c919c9bdb4819985a5b1959606a1b6044820152606401610495565b505050505050565b604080516001600160a01b038481166024830152604480830185905283518084039091018152606490920183526020820180516001600160e01b031663a9059cbb60e01b17905291516000928392908716916110499190611413565b6000604051808303816000865af19150503d8060008114611086576040519150601f19603f3d011682016040523d82523d6000602084013e61108b565b606091505b50915091508180156110b55750805115806110b55750808060200190518101906110b59190611442565b6110f35760405162461bcd60e51b815260206004820152600f60248201526e1514905394d1915497d19052531151608a1b6044820152606401610495565b5050505050565b60006020828403121561110c57600080fd5b5035919050565b6000806040838503121561112657600080fd5b82359150602083013560ff8116811461113e57600080fd5b809150509250929050565b80356001600160a01b038116811461116057600080fd5b919050565b60006020828403121561117757600080fd5b610ecc82611149565b634e487b7160e01b600052604160045260246000fd5b600082601f8301126111a757600080fd5b8135602067ffffffffffffffff808311156111c4576111c4611180565b8260051b604051601f19603f830116810181811084821117156111e9576111e9611180565b60405293845285810183019383810192508785111561120757600080fd5b83870191505b848210156112265781358352918301919083019061120d565b979650505050505050565b6000806040838503121561124457600080fd5b823567ffffffffffffffff8082111561125c57600080fd5b61126886838701611196565b9350602085013591508082111561127e57600080fd5b5061128b85828601611196565b9150509250929050565b600080604083850312156112a857600080fd5b50508035926020909101359150565b600080604083850312156112ca57600080fd5b6112d383611149565b946020939093013593505050565b634e487b7160e01b600052601160045260246000fd5b60008261131457634e487b7160e01b600052601260045260246000fd5b500490565b8082018082111561132c5761132c6112e1565b92915050565b600060ff821660ff8103611348576113486112e1565b60010192915050565b600060018201611363576113636112e1565b5060010190565b8181038181111561132c5761132c6112e1565b634e487b7160e01b600052603260045260246000fd5b634e487b7160e01b600052603160045260246000fd5b6000816113b8576113b86112e1565b506000190190565b6020808252600990820152683337b93134b23232b760b91b604082015260600190565b808202811582820484141761132c5761132c6112e1565b60ff828116828216039081111561132c5761132c6112e1565b6000825160005b81811015611434576020818601810151858301520161141a565b506000920191825250919050565b60006020828403121561145457600080fd5b81518015158114610ecc57600080fdfea2646970667358221220263a26f9ddffaf8ffd009508ec4ba764b6d588beec141cdd6c7ea325fe7b5c9d64736f6c63430008110033",
  "linkReferences": {},
  "deployedLinkReferences": {}
}