{
  "_format": "hh-sol-artifact-1",
  "contractName": "StakeERC20",
  "sourceName": "contracts/stakeERC20.sol",
  "abi": [
    {
      "inputs": [
        {
          "internalType": "uint8",
          "name": "maxWeeks",
          "type": "uint8"
        },
        {
          "internalType": "uint256",
          "name": "maxScale",
          "type": "uint256"
        },
        {
          "internalType": "uint8",
          "name": "lockWeeks",
          "type": "uint8"
        },
        {
          "internalType": "address",
          "name": "_rewardToken",
          "type": "address"
        },
        {
          "internalType": "address",
          "name": "_lpToken",
          "type": "address"
        }
      ],
      "stateMutability": "nonpayable",
      "type": "constructor"
    },
    {
      "anonymous": false,
      "inputs": [
        {
          "indexed": true,
          "internalType": "address",
          "name": "user",
          "type": "address"
        },
        {
          "indexed": false,
          "internalType": "uint256",
          "name": "amount",
          "type": "uint256"
        }
      ],
      "name": "ClaimReward",
      "type": "event"
    },
    {
      "anonymous": false,
      "inputs": [
        {
          "indexed": true,
          "internalType": "address",
          "name": "user",
          "type": "address"
        },
        {
          "indexed": false,
          "internalType": "uint256",
          "name": "no",
          "type": "uint256"
        },
        {
          "indexed": false,
          "internalType": "uint256",
          "name": "amount",
          "type": "uint256"
        }
      ],
      "name": "SetReward",
      "type": "event"
    },
    {
      "anonymous": false,
      "inputs": [
        {
          "indexed": true,
          "internalType": "address",
          "name": "user",
          "type": "address"
        },
        {
          "indexed": false,
          "internalType": "uint256",
          "name": "id",
          "type": "uint256"
        },
        {
          "indexed": false,
          "internalType": "uint256",
          "name": "amount",
          "type": "uint256"
        },
        {
          "indexed": false,
          "internalType": "uint8",
          "name": "k",
          "type": "uint8"
        }
      ],
      "name": "Stake",
      "type": "event"
    },
    {
      "anonymous": false,
      "inputs": [
        {
          "indexed": true,
          "internalType": "address",
          "name": "user",
          "type": "address"
        },
        {
          "indexed": false,
          "internalType": "uint256",
          "name": "amount",
          "type": "uint256"
        }
      ],
      "name": "Withdraw",
      "type": "event"
    },
    {
      "inputs": [],
      "name": "LOCK_WEEKNUM",
      "outputs": [
        {
          "internalType": "uint8",
          "name": "",
          "type": "uint8"
        }
      ],
      "stateMutability": "view",
      "type": "function"
    },
    {
      "inputs": [],
      "name": "MAX_SCALE",
      "outputs": [
        {
          "internalType": "uint256",
          "name": "",
          "type": "uint256"
        }
      ],
      "stateMutability": "view",
      "type": "function"
    },
    {
      "inputs": [],
      "name": "MAX_WEEKS",
      "outputs": [
        {
          "internalType": "uint8",
          "name": "",
          "type": "uint8"
        }
      ],
      "stateMutability": "view",
      "type": "function"
    },
    {
      "inputs": [],
      "name": "WEEK_SECONDS",
      "outputs": [
        {
          "internalType": "uint24",
          "name": "",
          "type": "uint24"
        }
      ],
      "stateMutability": "view",
      "type": "function"
    },
    {
      "inputs": [],
      "name": "acceptSetter",
      "outputs": [],
      "stateMutability": "nonpayable",
      "type": "function"
    },
    {
      "inputs": [],
      "name": "canClaimAmount",
      "outputs": [
        {
          "internalType": "uint256",
          "name": "",
          "type": "uint256"
        }
      ],
      "stateMutability": "view",
      "type": "function"
    },
    {
      "inputs": [],
      "name": "claimReward",
      "outputs": [],
      "stateMutability": "nonpayable",
      "type": "function"
    },
    {
      "inputs": [
        {
          "internalType": "uint256",
          "name": "amount",
          "type": "uint256"
        },
        {
          "internalType": "uint8",
          "name": "k",
          "type": "uint8"
        }
      ],
      "name": "getScore",
      "outputs": [
        {
          "internalType": "uint256",
          "name": "score",
          "type": "uint256"
        }
      ],
      "stateMutability": "view",
      "type": "function"
    },
    {
      "inputs": [],
      "name": "getStaking",
      "outputs": [
        {
          "components": [
            {
              "internalType": "uint256",
              "name": "amount",
              "type": "uint256"
            },
            {
              "internalType": "uint256",
              "name": "score",
              "type": "uint256"
            },
            {
              "internalType": "uint256",
              "name": "beginNo",
              "type": "uint256"
            },
            {
              "internalType": "uint256",
              "name": "endNo",
              "type": "uint256"
            }
          ],
          "internalType": "struct StakeERC20.StakingERC20[]",
          "name": "",
          "type": "tuple[]"
        }
      ],
      "stateMutability": "view",
      "type": "function"
    },
    {
      "inputs": [],
      "name": "latestNo",
      "outputs": [
        {
          "internalType": "uint256",
          "name": "",
          "type": "uint256"
        }
      ],
      "stateMutability": "view",
      "type": "function"
    },
    {
      "inputs": [],
      "name": "lpToken",
      "outputs": [
        {
          "internalType": "address",
          "name": "",
          "type": "address"
        }
      ],
      "stateMutability": "view",
      "type": "function"
    },
    {
      "inputs": [],
      "name": "nonce",
      "outputs": [
        {
          "internalType": "uint256",
          "name": "",
          "type": "uint256"
        }
      ],
      "stateMutability": "view",
      "type": "function"
    },
    {
      "inputs": [],
      "name": "owner",
      "outputs": [
        {
          "internalType": "address",
          "name": "",
          "type": "address"
        }
      ],
      "stateMutability": "view",
      "type": "function"
    },
    {
      "inputs": [],
      "name": "rewardToken",
      "outputs": [
        {
          "internalType": "address",
          "name": "",
          "type": "address"
        }
      ],
      "stateMutability": "view",
      "type": "function"
    },
    {
      "inputs": [
        {
          "internalType": "uint256",
          "name": "",
          "type": "uint256"
        }
      ],
      "name": "rewardsOf",
      "outputs": [
        {
          "internalType": "uint256",
          "name": "",
          "type": "uint256"
        }
      ],
      "stateMutability": "view",
      "type": "function"
    },
    {
      "inputs": [
        {
          "internalType": "uint256",
          "name": "no",
          "type": "uint256"
        },
        {
          "internalType": "uint256",
          "name": "amount",
          "type": "uint256"
        }
      ],
      "name": "setReward",
      "outputs": [],
      "stateMutability": "nonpayable",
      "type": "function"
    },
    {
      "inputs": [
        {
          "internalType": "uint256[]",
          "name": "nos",
          "type": "uint256[]"
        },
        {
          "internalType": "uint256[]",
          "name": "amounts",
          "type": "uint256[]"
        }
      ],
      "name": "setRewards",
      "outputs": [
        {
          "internalType": "uint256",
          "name": "total",
          "type": "uint256"
        }
      ],
      "stateMutability": "nonpayable",
      "type": "function"
    },
    {
      "inputs": [
        {
          "internalType": "uint256",
          "name": "amount",
          "type": "uint256"
        },
        {
          "internalType": "uint8",
          "name": "k",
          "type": "uint8"
        }
      ],
      "name": "stake",
      "outputs": [],
      "stateMutability": "nonpayable",
      "type": "function"
    },
    {
      "inputs": [
        {
          "internalType": "uint256",
          "name": "",
          "type": "uint256"
        }
      ],
      "name": "stakingERC20s",
      "outputs": [
        {
          "internalType": "uint256",
          "name": "amount",
          "type": "uint256"
        },
        {
          "internalType": "uint256",
          "name": "score",
          "type": "uint256"
        },
        {
          "internalType": "uint256",
          "name": "beginNo",
          "type": "uint256"
        },
        {
          "internalType": "uint256",
          "name": "endNo",
          "type": "uint256"
        }
      ],
      "stateMutability": "view",
      "type": "function"
    },
    {
      "inputs": [
        {
          "internalType": "uint256",
          "name": "",
          "type": "uint256"
        }
      ],
      "name": "totalScores",
      "outputs": [
        {
          "internalType": "uint256",
          "name": "",
          "type": "uint256"
        }
      ],
      "stateMutability": "view",
      "type": "function"
    },
    {
      "inputs": [
        {
          "internalType": "address",
          "name": "_owner",
          "type": "address"
        }
      ],
      "name": "transferOwner",
      "outputs": [],
      "stateMutability": "nonpayable",
      "type": "function"
    },
    {
      "inputs": [
        {
          "internalType": "address",
          "name": "",
          "type": "address"
        },
        {
          "internalType": "uint256",
          "name": "",
          "type": "uint256"
        }
      ],
      "name": "userCanClaimWeeks",
      "outputs": [
        {
          "internalType": "uint256",
          "name": "",
          "type": "uint256"
        }
      ],
      "stateMutability": "view",
      "type": "function"
    },
    {
      "inputs": [
        {
          "internalType": "address",
          "name": "",
          "type": "address"
        },
        {
          "internalType": "uint256",
          "name": "",
          "type": "uint256"
        }
      ],
      "name": "userERC20s",
      "outputs": [
        {
          "internalType": "uint256",
          "name": "",
          "type": "uint256"
        }
      ],
      "stateMutability": "view",
      "type": "function"
    },
    {
      "inputs": [
        {
          "internalType": "address",
          "name": "",
          "type": "address"
        },
        {
          "internalType": "uint256",
          "name": "",
          "type": "uint256"
        }
      ],
      "name": "userScores",
      "outputs": [
        {
          "internalType": "uint256",
          "name": "",
          "type": "uint256"
        }
      ],
      "stateMutability": "view",
      "type": "function"
    },
    {
      "inputs": [],
      "name": "withdraw",
      "outputs": [
        {
          "internalType": "uint256",
          "name": "total",
          "type": "uint256"
        }
      ],
      "stateMutability": "nonpayable",
      "type": "function"
    }
  ],
  "bytecode": "0x6101206040523480156200001257600080fd5b5060405162001774380380620017748339810160408190526200003591620000a2565b6001600160a01b0391821660805260ff94851660a05260c093909352921660e052600080546001600160a01b03191633179055166101005262000109565b805160ff811681146200008557600080fd5b919050565b80516001600160a01b03811681146200008557600080fd5b600080600080600060a08688031215620000bb57600080fd5b620000c68662000073565b945060208601519350620000dd6040870162000073565b9250620000ed606087016200008a565b9150620000fd608087016200008a565b90509295509295909350565b60805160a05160c05160e051610100516115e0620001946000396000818161027501526104ae0152600081816101b001528181610a210152610d500152600081816103ed0152610f580152600081816103b30152818161044601528181610ef40152610f1f01526000818161041401528181610c1801528181610cb00152610e3d01526115e06000f3fe608060405234801561001057600080fd5b50600436106101735760003560e01c80638da5cb5b116100de578063ba08650111610097578063e11400bb11610071578063e11400bb146103ae578063ee3453ed146103d5578063f6def7cf146103e8578063f7c618c11461040f57600080fd5b8063ba0865011461036b578063bb57852d1461037e578063cd671a581461039157600080fd5b80638da5cb5b146102cc578063979db1c4146102df578063a218de15146102f2578063a47bd49614610347578063affed0e01461035a578063b88a802f1461036357600080fd5b80634fb2e45d116101305780634fb2e45d1461022a5780635b680a451461023d5780635f8e422f146102685780635fcbd285146102705780637b1391a6146102af5780638431165e146102c457600080fd5b80630bce1284146101785780630d437d40146101ab57806310087fb1146101e4578063157775df146101f957806329ed1cfd146102195780633ccfd60b14610222575b600080fd5b6101986101863660046111dc565b60056020526000908152604090205481565b6040519081526020015b60405180910390f35b6101d27f000000000000000000000000000000000000000000000000000000000000000081565b60405160ff90911681526020016101a2565b6101f76101f23660046111f5565b610436565b005b6101986102073660046111dc565b60046020526000908152604090205481565b61019860065481565b6101986106f4565b6101f7610238366004611247565b61083e565b61019861024b366004611262565b600260209081526000928352604080842090915290825290205481565b6101f761088a565b6102977f000000000000000000000000000000000000000000000000000000000000000081565b6040516001600160a01b0390911681526020016101a2565b6102b76108db565b6040516101a2919061128c565b610198610a1a565b600054610297906001600160a01b031681565b6101986102ed3660046113a1565b610aec565b6103276103003660046111dc565b60086020526000908152604090208054600182015460028301546003909301549192909184565b6040805194855260208501939093529183015260608201526080016101a2565b6101f7610355366004611405565b610c81565b61019860075481565b6101f7610d4a565b610198610379366004611262565b610e95565b61019861038c366004611262565b610ec6565b61039a61025881565b60405162ffffff90911681526020016101a2565b6101d27f000000000000000000000000000000000000000000000000000000000000000081565b6101986103e33660046111f5565b610eeb565b6101987f000000000000000000000000000000000000000000000000000000000000000081565b6102977f000000000000000000000000000000000000000000000000000000000000000081565b60008160ff1611801561046f57507f000000000000000000000000000000000000000000000000000000000000000060ff168160ff1611155b6104a95760405162461bcd60e51b8152602060048201526006602482015265359018bf1a9960d11b60448201526064015b60405180910390fd5b6104d57f0000000000000000000000000000000000000000000000000000000000000000333085610fb5565b60006104e36102584261143d565b6104ee90600161145f565b905060006104fc8484610eeb565b905060005b8360ff168160ff16101561059657816004600061052160ff85168761145f565b8152602001908152602001600020600082825461053e919061145f565b9091555050336000908152600260205260408120839161056160ff85168761145f565b8152602001908152602001600020600082825461057e919061145f565b9091555081905061058e81611478565b915050610501565b5060405180608001604052808581526020018281526020018381526020018460ff16846105c3919061145f565b905260075460009081526008602090815260408083208451815584830151600180830191909155858301516002830155606090950151600391820155338452909152902090810154905403610625573360009081526003602052604090208290555b61063260ff84168361145f565b33600090815260036020526040902060010154101561066c5761065860ff84168361145f565b336000908152600360205260409020600101555b33600081815260096020908152604080832060078054825460018101845592865294849020909101939093559154825190815290810187905260ff86168183015290517f6fa2f6021ee337436cdf2b2570285886da18bc06402ce284d296504a0fe8f8759181900360600190a2600780549060006106e9836114ad565b919050555050505050565b6000806107036102584261143d565b3360009081526009602052604081205491925090610723906001906114c6565b90505b33600090815260096020526040812080548390811061074757610747611497565b906000526020600020015490508260086000838152602001908152602001600020600301541161082b5760008181526008602052604090205461078a908561145f565b3360009081526009602052604090208054919550906107ab906001906114c6565b815481106107bb576107bb611497565b6000918252602080832090910154338352600990915260409091208054849081106107e8576107e8611497565b6000918252602080832090910192909255338152600990915260409020805480610814576108146114d9565b600190038181906000526020600020016000905590555b5080610836816114ef565b915050610726565b6000546001600160a01b031633146108685760405162461bcd60e51b81526004016104a090611506565b600180546001600160a01b0319166001600160a01b0392909216919091179055565b6001546001600160a01b031633146108b45760405162461bcd60e51b81526004016104a090611506565b60018054600080546001600160a01b03199081166001600160a01b03841617909155169055565b336000908152600960205260408120546060918167ffffffffffffffff811115610907576109076112f0565b60405190808252806020026020018201604052801561096357816020015b6109506040518060800160405280600081526020016000815260200160008152602001600081525090565b8152602001906001900390816109255790505b50905060005b82811015610a1357336000908152600960205260408120805460089291908490811061099757610997611497565b906000526020600020015481526020019081526020016000206040518060800160405290816000820154815260200160018201548152602001600282015481526020016003820154815250508282815181106109f5576109f5611497565b60200260200101819052508080610a0b906114ad565b915050610969565b5092915050565b60008060ff7f000000000000000000000000000000000000000000000000000000000000000016610a4d6102584261143d565b610a5791906114c6565b33600090815260036020526040812054919250905b33600090815260036020526040902060010154811015610a1357828111610a1357600081815260046020908152604080832054338452600283528184208585528352818420546005909352922054610ac49190611529565b610ace919061143d565b610ad8908361145f565b915080610ae4816114ad565b915050610a6c565b600080546001600160a01b03163314610b175760405162461bcd60e51b81526004016104a090611506565b60005b8351811015610ba757828181518110610b3557610b35611497565b602002602001015182610b48919061145f565b9150828181518110610b5c57610b5c611497565b602002602001015160056000868481518110610b7a57610b7a611497565b60200260200101518152602001908152602001600020819055508080610b9f906114ad565b915050610b1a565b5060008351118015610be057506006548360018551610bc691906114c6565b81518110610bd657610bd6611497565b6020026020010151115b15610c13578260018451610bf491906114c6565b81518110610c0457610c04611497565b60200260200101516006819055505b610c3f7f0000000000000000000000000000000000000000000000000000000000000000333084610fb5565b60408051600081526020810183905233917fc3991418cacd70a010fce559a44fcbb47534ca43bf7543964bdca2639f6e6e5a910160405180910390a292915050565b6000546001600160a01b03163314610cab5760405162461bcd60e51b81526004016104a090611506565b610cd77f0000000000000000000000000000000000000000000000000000000000000000333084610fb5565b60008281526005602052604081208054839290610cf590849061145f565b9091555050600654821115610d0a5760068290555b604080518381526020810183905233917fc3991418cacd70a010fce559a44fcbb47534ca43bf7543964bdca2639f6e6e5a91015b60405180910390a25050565b600060ff7f000000000000000000000000000000000000000000000000000000000000000016610d7c6102584261143d565b610d8691906114c6565b33600090815260036020526040812054919250905b33600090815260036020526040902060010154811015610e3757828111610e3757610dc781600161145f565b3360009081526003602052604081200155600081815260046020908152604080832054338452600283528184208585528352818420546005909352922054610e0f9190611529565b610e19919061143d565b610e23908361145f565b915080610e2f816114ad565b915050610d9b565b50610e637f000000000000000000000000000000000000000000000000000000000000000033836110cf565b60405181815233907fba8de60c3403ec381d1d484652ea1980e3c3e56359195c92525bff4ce47ad98e90602001610d3e565b60096020528160005260406000208181548110610eb157600080fd5b90600052602060002001600091509150505481565b60036020528160005260406000208160028110610ee257600080fd5b01549150829050565b6000610f1860017f0000000000000000000000000000000000000000000000000000000000000000611540565b60ff1660017f000000000000000000000000000000000000000000000000000000000000000060ff16600185610f4e9190611540565b60ff16610f7c60017f00000000000000000000000000000000000000000000000000000000000000006114c6565b610f869190611529565b610f90919061145f565b610f9a91906114c6565b610fa49085611529565b610fae919061143d565b9392505050565b604080516001600160a01b0385811660248301528481166044830152606480830185905283518084039091018152608490920183526020820180516001600160e01b03166323b872dd60e01b17905291516000928392908816916110199190611559565b6000604051808303816000865af19150503d8060008114611056576040519150601f19603f3d011682016040523d82523d6000602084013e61105b565b606091505b50915091508180156110855750805115806110855750808060200190518101906110859190611588565b6110c75760405162461bcd60e51b81526020600482015260136024820152721d1c985b9cd9995c919c9bdb4819985a5b1959606a1b60448201526064016104a0565b505050505050565b604080516001600160a01b038481166024830152604480830185905283518084039091018152606490920183526020820180516001600160e01b031663a9059cbb60e01b179052915160009283929087169161112b9190611559565b6000604051808303816000865af19150503d8060008114611168576040519150601f19603f3d011682016040523d82523d6000602084013e61116d565b606091505b50915091508180156111975750805115806111975750808060200190518101906111979190611588565b6111d55760405162461bcd60e51b815260206004820152600f60248201526e1514905394d1915497d19052531151608a1b60448201526064016104a0565b5050505050565b6000602082840312156111ee57600080fd5b5035919050565b6000806040838503121561120857600080fd5b82359150602083013560ff8116811461122057600080fd5b809150509250929050565b80356001600160a01b038116811461124257600080fd5b919050565b60006020828403121561125957600080fd5b610fae8261122b565b6000806040838503121561127557600080fd5b61127e8361122b565b946020939093013593505050565b602080825282518282018190526000919060409081850190868401855b828110156112e3578151805185528681015187860152858101518686015260609081015190850152608090930192908501906001016112a9565b5091979650505050505050565b634e487b7160e01b600052604160045260246000fd5b600082601f83011261131757600080fd5b8135602067ffffffffffffffff80831115611334576113346112f0565b8260051b604051601f19603f83011681018181108482111715611359576113596112f0565b60405293845285810183019383810192508785111561137757600080fd5b83870191505b848210156113965781358352918301919083019061137d565b979650505050505050565b600080604083850312156113b457600080fd5b823567ffffffffffffffff808211156113cc57600080fd5b6113d886838701611306565b935060208501359150808211156113ee57600080fd5b506113fb85828601611306565b9150509250929050565b6000806040838503121561141857600080fd5b50508035926020909101359150565b634e487b7160e01b600052601160045260246000fd5b60008261145a57634e487b7160e01b600052601260045260246000fd5b500490565b8082018082111561147257611472611427565b92915050565b600060ff821660ff810361148e5761148e611427565b60010192915050565b634e487b7160e01b600052603260045260246000fd5b6000600182016114bf576114bf611427565b5060010190565b8181038181111561147257611472611427565b634e487b7160e01b600052603160045260246000fd5b6000816114fe576114fe611427565b506000190190565b6020808252600990820152683337b93134b23232b760b91b604082015260600190565b808202811582820484141761147257611472611427565b60ff828116828216039081111561147257611472611427565b6000825160005b8181101561157a5760208186018101518583015201611560565b506000920191825250919050565b60006020828403121561159a57600080fd5b81518015158114610fae57600080fdfea2646970667358221220ec2a33177541f9356fc432c560730dbd7afa0f8079abe745faff45af40bb2a0864736f6c63430008110033",
  "linkReferences": {},
  "deployedLinkReferences": {}
}