{
  "_format": "hh-sol-artifact-1",
  "contractName": "StakeERC20",
  "sourceName": "contracts/stakeERC20.sol",
  "abi": [
    {
      "inputs": [
        {
          "internalType": "uint8",
          "name": "maxWeeks",
          "type": "uint8"
        },
        {
          "internalType": "uint256",
          "name": "maxScale",
          "type": "uint256"
        },
        {
          "internalType": "uint8",
          "name": "lockWeeks",
          "type": "uint8"
        },
        {
          "internalType": "address",
          "name": "_rewardToken",
          "type": "address"
        },
        {
          "internalType": "address",
          "name": "_lpToken",
          "type": "address"
        }
      ],
      "stateMutability": "nonpayable",
      "type": "constructor"
    },
    {
      "anonymous": false,
      "inputs": [
        {
          "indexed": true,
          "internalType": "address",
          "name": "user",
          "type": "address"
        },
        {
          "indexed": false,
          "internalType": "uint256",
          "name": "amount",
          "type": "uint256"
        }
      ],
      "name": "ClaimReward",
      "type": "event"
    },
    {
      "anonymous": false,
      "inputs": [
        {
          "indexed": true,
          "internalType": "address",
          "name": "user",
          "type": "address"
        },
        {
          "indexed": false,
          "internalType": "uint256",
          "name": "no",
          "type": "uint256"
        },
        {
          "indexed": false,
          "internalType": "uint256",
          "name": "amount",
          "type": "uint256"
        }
      ],
      "name": "SetReward",
      "type": "event"
    },
    {
      "anonymous": false,
      "inputs": [
        {
          "indexed": true,
          "internalType": "address",
          "name": "user",
          "type": "address"
        },
        {
          "indexed": false,
          "internalType": "uint256",
          "name": "id",
          "type": "uint256"
        },
        {
          "indexed": false,
          "internalType": "uint256",
          "name": "amount",
          "type": "uint256"
        },
        {
          "indexed": false,
          "internalType": "uint8",
          "name": "k",
          "type": "uint8"
        }
      ],
      "name": "Stake",
      "type": "event"
    },
    {
      "anonymous": false,
      "inputs": [
        {
          "indexed": true,
          "internalType": "address",
          "name": "user",
          "type": "address"
        },
        {
          "indexed": false,
          "internalType": "uint256",
          "name": "amount",
          "type": "uint256"
        }
      ],
      "name": "Withdraw",
      "type": "event"
    },
    {
      "inputs": [],
      "name": "LOCK_WEEKNUM",
      "outputs": [
        {
          "internalType": "uint8",
          "name": "",
          "type": "uint8"
        }
      ],
      "stateMutability": "view",
      "type": "function"
    },
    {
      "inputs": [],
      "name": "MAX_SCALE",
      "outputs": [
        {
          "internalType": "uint256",
          "name": "",
          "type": "uint256"
        }
      ],
      "stateMutability": "view",
      "type": "function"
    },
    {
      "inputs": [],
      "name": "MAX_WEEKS",
      "outputs": [
        {
          "internalType": "uint8",
          "name": "",
          "type": "uint8"
        }
      ],
      "stateMutability": "view",
      "type": "function"
    },
    {
      "inputs": [],
      "name": "WEEK_SECONDS",
      "outputs": [
        {
          "internalType": "uint24",
          "name": "",
          "type": "uint24"
        }
      ],
      "stateMutability": "view",
      "type": "function"
    },
    {
      "inputs": [],
      "name": "acceptSetter",
      "outputs": [],
      "stateMutability": "nonpayable",
      "type": "function"
    },
    {
      "inputs": [
        {
          "internalType": "uint256",
          "name": "",
          "type": "uint256"
        },
        {
          "internalType": "uint256",
          "name": "",
          "type": "uint256"
        }
      ],
      "name": "bClaimReward",
      "outputs": [
        {
          "internalType": "bool",
          "name": "",
          "type": "bool"
        }
      ],
      "stateMutability": "view",
      "type": "function"
    },
    {
      "inputs": [],
      "name": "canClaimAmount",
      "outputs": [
        {
          "internalType": "uint256",
          "name": "",
          "type": "uint256"
        }
      ],
      "stateMutability": "view",
      "type": "function"
    },
    {
      "inputs": [],
      "name": "claimReward",
      "outputs": [],
      "stateMutability": "nonpayable",
      "type": "function"
    },
    {
      "inputs": [
        {
          "internalType": "uint256",
          "name": "amount",
          "type": "uint256"
        },
        {
          "internalType": "uint8",
          "name": "k",
          "type": "uint8"
        }
      ],
      "name": "getScore",
      "outputs": [
        {
          "internalType": "uint256",
          "name": "score",
          "type": "uint256"
        }
      ],
      "stateMutability": "view",
      "type": "function"
    },
    {
      "inputs": [],
      "name": "getStaking",
      "outputs": [
        {
          "internalType": "uint256",
          "name": "total",
          "type": "uint256"
        },
        {
          "internalType": "uint256",
          "name": "staking",
          "type": "uint256"
        }
      ],
      "stateMutability": "view",
      "type": "function"
    },
    {
      "inputs": [],
      "name": "latestNo",
      "outputs": [
        {
          "internalType": "uint256",
          "name": "",
          "type": "uint256"
        }
      ],
      "stateMutability": "view",
      "type": "function"
    },
    {
      "inputs": [],
      "name": "lpToken",
      "outputs": [
        {
          "internalType": "address",
          "name": "",
          "type": "address"
        }
      ],
      "stateMutability": "view",
      "type": "function"
    },
    {
      "inputs": [],
      "name": "nonce",
      "outputs": [
        {
          "internalType": "uint256",
          "name": "",
          "type": "uint256"
        }
      ],
      "stateMutability": "view",
      "type": "function"
    },
    {
      "inputs": [],
      "name": "owner",
      "outputs": [
        {
          "internalType": "address",
          "name": "",
          "type": "address"
        }
      ],
      "stateMutability": "view",
      "type": "function"
    },
    {
      "inputs": [],
      "name": "rewardToken",
      "outputs": [
        {
          "internalType": "address",
          "name": "",
          "type": "address"
        }
      ],
      "stateMutability": "view",
      "type": "function"
    },
    {
      "inputs": [
        {
          "internalType": "uint256",
          "name": "",
          "type": "uint256"
        }
      ],
      "name": "rewardsOf",
      "outputs": [
        {
          "internalType": "uint256",
          "name": "",
          "type": "uint256"
        }
      ],
      "stateMutability": "view",
      "type": "function"
    },
    {
      "inputs": [
        {
          "internalType": "uint256",
          "name": "no",
          "type": "uint256"
        },
        {
          "internalType": "uint256",
          "name": "amount",
          "type": "uint256"
        }
      ],
      "name": "setReward",
      "outputs": [],
      "stateMutability": "nonpayable",
      "type": "function"
    },
    {
      "inputs": [
        {
          "internalType": "uint256[]",
          "name": "nos",
          "type": "uint256[]"
        },
        {
          "internalType": "uint256[]",
          "name": "amounts",
          "type": "uint256[]"
        }
      ],
      "name": "setRewards",
      "outputs": [
        {
          "internalType": "uint256",
          "name": "total",
          "type": "uint256"
        }
      ],
      "stateMutability": "nonpayable",
      "type": "function"
    },
    {
      "inputs": [
        {
          "internalType": "uint256",
          "name": "amount",
          "type": "uint256"
        },
        {
          "internalType": "uint8",
          "name": "k",
          "type": "uint8"
        }
      ],
      "name": "stake",
      "outputs": [],
      "stateMutability": "nonpayable",
      "type": "function"
    },
    {
      "inputs": [
        {
          "internalType": "uint256",
          "name": "",
          "type": "uint256"
        }
      ],
      "name": "stakingERC20s",
      "outputs": [
        {
          "internalType": "uint256",
          "name": "amount",
          "type": "uint256"
        },
        {
          "internalType": "uint256",
          "name": "score",
          "type": "uint256"
        },
        {
          "internalType": "uint256",
          "name": "beginNo",
          "type": "uint256"
        },
        {
          "internalType": "uint256",
          "name": "endNo",
          "type": "uint256"
        },
        {
          "internalType": "uint256",
          "name": "toClaimNo",
          "type": "uint256"
        }
      ],
      "stateMutability": "view",
      "type": "function"
    },
    {
      "inputs": [
        {
          "internalType": "uint256",
          "name": "",
          "type": "uint256"
        }
      ],
      "name": "totalScores",
      "outputs": [
        {
          "internalType": "uint256",
          "name": "",
          "type": "uint256"
        }
      ],
      "stateMutability": "view",
      "type": "function"
    },
    {
      "inputs": [
        {
          "internalType": "address",
          "name": "_owner",
          "type": "address"
        }
      ],
      "name": "transferOwner",
      "outputs": [],
      "stateMutability": "nonpayable",
      "type": "function"
    },
    {
      "inputs": [
        {
          "internalType": "address",
          "name": "",
          "type": "address"
        },
        {
          "internalType": "uint256",
          "name": "",
          "type": "uint256"
        }
      ],
      "name": "userERC20s",
      "outputs": [
        {
          "internalType": "uint256",
          "name": "",
          "type": "uint256"
        }
      ],
      "stateMutability": "view",
      "type": "function"
    },
    {
      "inputs": [
        {
          "internalType": "uint256",
          "name": "amount",
          "type": "uint256"
        }
      ],
      "name": "withdraw",
      "outputs": [
        {
          "internalType": "uint256",
          "name": "total",
          "type": "uint256"
        }
      ],
      "stateMutability": "nonpayable",
      "type": "function"
    }
  ],
  "bytecode": "0x6101206040523480156200001257600080fd5b50604051620017bb380380620017bb8339810160408190526200003591620000a2565b6001600160a01b0391821660805260ff94851660a05260c093909352921660e052600080546001600160a01b03191633179055166101005262000109565b805160ff811681146200008557600080fd5b919050565b80516001600160a01b03811681146200008557600080fd5b600080600080600060a08688031215620000bb57600080fd5b620000c68662000073565b945060208601519350620000dd6040870162000073565b9250620000ed606087016200008a565b9150620000fd608087016200008a565b90509295509295909350565b60805160a05160c05160e051610100516116206200019b6000396000818161023a015281816104b601526107dc015260008181610195015281816109900152610d600152600081816103f50152610ffc0152600081816103bb0152818161044e01528181610f980152610fc301526000818161041c01528181610c2801528181610cc00152610f0601526116206000f3fe608060405234801561001057600080fd5b50600436106101585760003560e01c8063979db1c4116100c3578063cd671a581161007c578063cd671a581461035b578063ce6d3e3e14610378578063e11400bb146103b6578063ee3453ed146103dd578063f6def7cf146103f0578063f7c618c11461041757600080fd5b8063979db1c4146102ac578063a218de15146102bf578063a47bd49614610324578063affed0e014610337578063b88a802f14610340578063ba0865011461034857600080fd5b80634fb2e45d116101155780634fb2e45d1461021a5780635f8e422f1461022d5780635fcbd285146102355780637b1391a6146102745780638431165e146102915780638da5cb5b1461029957600080fd5b80630bce12841461015d5780630d437d401461019057806310087fb1146101c9578063157775df146101de57806329ed1cfd146101fe5780632e1a7d4d14610207575b600080fd5b61017d61016b366004611280565b60046020526000908152604090205481565b6040519081526020015b60405180910390f35b6101b77f000000000000000000000000000000000000000000000000000000000000000081565b60405160ff9091168152602001610187565b6101dc6101d7366004611299565b61043e565b005b61017d6101ec366004611280565b60036020526000908152604090205481565b61017d60055481565b61017d610215366004611280565b610659565b6101dc6102283660046112eb565b61083d565b6101dc610889565b61025c7f000000000000000000000000000000000000000000000000000000000000000081565b6040516001600160a01b039091168152602001610187565b61027c6108da565b60408051928352602083019190915201610187565b61017d610989565b60005461025c906001600160a01b031681565b61017d6102ba3660046113b7565b610afc565b6102fc6102cd366004611280565b600760205260009081526040902080546001820154600283015460038401546004909401549293919290919085565b604080519586526020860194909452928401919091526060830152608082015260a001610187565b6101dc61033236600461141b565b610c91565b61017d60065481565b6101dc610d5a565b61017d61035636600461143d565b610f5e565b61036461025881565b60405162ffffff9091168152602001610187565b6103a661038636600461141b565b600260209081526000928352604080842090915290825290205460ff1681565b6040519015158152602001610187565b6101b77f000000000000000000000000000000000000000000000000000000000000000081565b61017d6103eb366004611299565b610f8f565b61017d7f000000000000000000000000000000000000000000000000000000000000000081565b61025c7f000000000000000000000000000000000000000000000000000000000000000081565b60008160ff1611801561047757507f000000000000000000000000000000000000000000000000000000000000000060ff168160ff1611155b6104b15760405162461bcd60e51b8152602060048201526006602482015265359018bf1a9960d11b60448201526064015b60405180910390fd5b6104dd7f0000000000000000000000000000000000000000000000000000000000000000333085611059565b60006104eb6102584261147d565b6104f690600161149f565b905060006105048484610f8f565b905060005b8360ff168160ff16101561055e57816003600061052960ff85168761149f565b81526020019081526020016000206000828254610546919061149f565b90915550819050610556816114b8565b915050610509565b506040518060a001604052808581526020018281526020018381526020018460ff168461058b919061149f565b8152602090810184905260068054600090815260078352604080822085518155858501516001808301919091558683015160028301556060808801516003840155608090970151600490920191909155338084526008865282842085548154938401825590855293869020909101929092559154825190815292830188905260ff871683830152905190927f6fa2f6021ee337436cdf2b2570285886da18bc06402ce284d296504a0fe8f875928290030190a26006805490600061064e836114d7565b919050555050505050565b6000806106686102584261147d565b3360009081526008602052604081205491925090610688906001906114f0565b90505b3360009081526008602052604081208054839081106106ac576106ac611503565b90600052602060002001549050826007600083815260200190815260200160002060030154116107c3576000818152600760205260409020546106ef908561149f565b9350848411610799573360009081526008602052604090208054610715906001906114f0565b8154811061072557610725611503565b60009182526020808320909101543383526008909152604090912080548490811061075257610752611503565b600091825260208083209091019290925533815260089091526040902080548061077e5761077e611519565b600190038181906000526020600020016000905590556107b6565b6107a385856114f0565b6000828152600760205260409020558493505b8484036107c357506107d6565b50806107ce8161152f565b91505061068b565b506108027f00000000000000000000000000000000000000000000000000000000000000003384611173565b60405182815233907f884edad9ce6fa2440d8a54cc123490eb96d2768479d49ff9c7366125a94243649060200160405180910390a250919050565b6000546001600160a01b031633146108675760405162461bcd60e51b81526004016104a890611546565b600180546001600160a01b0319166001600160a01b0392909216919091179055565b6001546001600160a01b031633146108b35760405162461bcd60e51b81526004016104a890611546565b60018054600080546001600160a01b03199081166001600160a01b03841617909155169055565b600080806108ea6102584261147d565b905060005b336000908152600860205260409020548110156109835733600090815260086020526040812080548390811061092757610927611503565b6000918252602080832090910154808352600790915260409091208054600390910154919250908410156109625761095f818661149f565b94505b61096c818761149f565b95505050808061097b906114d7565b9150506108ef565b50509091565b60008060ff7f0000000000000000000000000000000000000000000000000000000000000000166109bc6102584261147d565b6109c691906114f0565b90506000805b33600090815260086020526040902054811015610af557336000908152600860205260408120805483908110610a0457610a04611503565b600091825260208083209091015480835260079091526040909120600401549091505b600082815260076020526040902060030154811015610ae057600082815260026020908152604080832084845290915290205460ff1680610a6757508481115b80610a7e5750600081815260046020526040902054155b610ace5760008181526003602090815260408083205485845260078352818420600101548585526004909352922054610ab79190611569565b610ac1919061147d565b610acb908561149f565b93505b80610ad8816114d7565b915050610a27565b50508080610aed906114d7565b9150506109cc565b5092915050565b600080546001600160a01b03163314610b275760405162461bcd60e51b81526004016104a890611546565b60005b8351811015610bb757828181518110610b4557610b45611503565b602002602001015182610b58919061149f565b9150828181518110610b6c57610b6c611503565b602002602001015160046000868481518110610b8a57610b8a611503565b60200260200101518152602001908152602001600020819055508080610baf906114d7565b915050610b2a565b5060008351118015610bf057506005548360018551610bd691906114f0565b81518110610be657610be6611503565b6020026020010151115b15610c23578260018451610c0491906114f0565b81518110610c1457610c14611503565b60200260200101516005819055505b610c4f7f0000000000000000000000000000000000000000000000000000000000000000333084611059565b60408051600081526020810183905233917fc3991418cacd70a010fce559a44fcbb47534ca43bf7543964bdca2639f6e6e5a910160405180910390a292915050565b6000546001600160a01b03163314610cbb5760405162461bcd60e51b81526004016104a890611546565b610ce77f0000000000000000000000000000000000000000000000000000000000000000333084611059565b60008281526004602052604081208054839290610d0590849061149f565b9091555050600554821115610d1a5760058290555b604080518381526020810183905233917fc3991418cacd70a010fce559a44fcbb47534ca43bf7543964bdca2639f6e6e5a91015b60405180910390a25050565b600060ff7f000000000000000000000000000000000000000000000000000000000000000016610d8c6102584261147d565b610d9691906114f0565b90506000805b33600090815260086020526040902054811015610f0057336000908152600860205260408120805483908110610dd457610dd4611503565b600091825260208083209091015480835260079091526040909120600401549091505b600082815260076020526040902060030154811015610eeb57600082815260026020908152604080832084845290915290205460ff1680610e3757508481115b80610e4e5750600081815260046020526040902054155b610ed95760008281526002602090815260408083208484529091529020805460ff19166001908117909155610e8490829061149f565b6000838152600760209081526040808320600480820195909555858452600383528184205460019091015494909252909120549091610ec291611569565b610ecc919061147d565b610ed6908561149f565b93505b80610ee3816114d7565b915050610df7565b50508080610ef8906114d7565b915050610d9c565b50610f2c7f00000000000000000000000000000000000000000000000000000000000000003383611173565b60405181815233907fba8de60c3403ec381d1d484652ea1980e3c3e56359195c92525bff4ce47ad98e90602001610d4e565b60086020528160005260406000208181548110610f7a57600080fd5b90600052602060002001600091509150505481565b6000610fbc60017f0000000000000000000000000000000000000000000000000000000000000000611580565b60ff1660017f000000000000000000000000000000000000000000000000000000000000000060ff16600185610ff29190611580565b60ff1661102060017f00000000000000000000000000000000000000000000000000000000000000006114f0565b61102a9190611569565b611034919061149f565b61103e91906114f0565b6110489085611569565b611052919061147d565b9392505050565b604080516001600160a01b0385811660248301528481166044830152606480830185905283518084039091018152608490920183526020820180516001600160e01b03166323b872dd60e01b17905291516000928392908816916110bd9190611599565b6000604051808303816000865af19150503d80600081146110fa576040519150601f19603f3d011682016040523d82523d6000602084013e6110ff565b606091505b509150915081801561112957508051158061112957508080602001905181019061112991906115c8565b61116b5760405162461bcd60e51b81526020600482015260136024820152721d1c985b9cd9995c919c9bdb4819985a5b1959606a1b60448201526064016104a8565b505050505050565b604080516001600160a01b038481166024830152604480830185905283518084039091018152606490920183526020820180516001600160e01b031663a9059cbb60e01b17905291516000928392908716916111cf9190611599565b6000604051808303816000865af19150503d806000811461120c576040519150601f19603f3d011682016040523d82523d6000602084013e611211565b606091505b509150915081801561123b57508051158061123b57508080602001905181019061123b91906115c8565b6112795760405162461bcd60e51b815260206004820152600f60248201526e1514905394d1915497d19052531151608a1b60448201526064016104a8565b5050505050565b60006020828403121561129257600080fd5b5035919050565b600080604083850312156112ac57600080fd5b82359150602083013560ff811681146112c457600080fd5b809150509250929050565b80356001600160a01b03811681146112e657600080fd5b919050565b6000602082840312156112fd57600080fd5b611052826112cf565b634e487b7160e01b600052604160045260246000fd5b600082601f83011261132d57600080fd5b8135602067ffffffffffffffff8083111561134a5761134a611306565b8260051b604051601f19603f8301168101818110848211171561136f5761136f611306565b60405293845285810183019383810192508785111561138d57600080fd5b83870191505b848210156113ac57813583529183019190830190611393565b979650505050505050565b600080604083850312156113ca57600080fd5b823567ffffffffffffffff808211156113e257600080fd5b6113ee8683870161131c565b9350602085013591508082111561140457600080fd5b506114118582860161131c565b9150509250929050565b6000806040838503121561142e57600080fd5b50508035926020909101359150565b6000806040838503121561145057600080fd5b611459836112cf565b946020939093013593505050565b634e487b7160e01b600052601160045260246000fd5b60008261149a57634e487b7160e01b600052601260045260246000fd5b500490565b808201808211156114b2576114b2611467565b92915050565b600060ff821660ff81036114ce576114ce611467565b60010192915050565b6000600182016114e9576114e9611467565b5060010190565b818103818111156114b2576114b2611467565b634e487b7160e01b600052603260045260246000fd5b634e487b7160e01b600052603160045260246000fd5b60008161153e5761153e611467565b506000190190565b6020808252600990820152683337b93134b23232b760b91b604082015260600190565b80820281158282048414176114b2576114b2611467565b60ff82811682821603908111156114b2576114b2611467565b6000825160005b818110156115ba57602081860181015185830152016115a0565b506000920191825250919050565b6000602082840312156115da57600080fd5b8151801515811461105257600080fdfea2646970667358221220b5ca977510e9969275f56131c07d2b593ed4c317a296f86f55fe031e67c98eba64736f6c63430008110033",
  "linkReferences": {},
  "deployedLinkReferences": {}
}