{
  "_format": "hh-sol-artifact-1",
  "contractName": "StakeERC20",
  "sourceName": "contracts/stakeERC20.sol",
  "abi": [
    {
      "inputs": [
        {
          "internalType": "uint8",
          "name": "maxWeeks",
          "type": "uint8"
        },
        {
          "internalType": "uint256",
          "name": "maxScale",
          "type": "uint256"
        },
        {
          "internalType": "address",
          "name": "_rewardToken",
          "type": "address"
        },
        {
          "internalType": "address",
          "name": "_lpToken",
          "type": "address"
        }
      ],
      "stateMutability": "nonpayable",
      "type": "constructor"
    },
    {
      "anonymous": false,
      "inputs": [
        {
          "indexed": true,
          "internalType": "address",
          "name": "user",
          "type": "address"
        },
        {
          "indexed": false,
          "internalType": "uint256",
          "name": "amount",
          "type": "uint256"
        }
      ],
      "name": "ClaimReward",
      "type": "event"
    },
    {
      "anonymous": false,
      "inputs": [
        {
          "indexed": true,
          "internalType": "address",
          "name": "user",
          "type": "address"
        },
        {
          "indexed": false,
          "internalType": "uint256",
          "name": "no",
          "type": "uint256"
        },
        {
          "indexed": false,
          "internalType": "uint256",
          "name": "amount",
          "type": "uint256"
        }
      ],
      "name": "SetReward",
      "type": "event"
    },
    {
      "anonymous": false,
      "inputs": [
        {
          "indexed": true,
          "internalType": "address",
          "name": "user",
          "type": "address"
        },
        {
          "indexed": false,
          "internalType": "uint256",
          "name": "id",
          "type": "uint256"
        },
        {
          "indexed": false,
          "internalType": "uint256",
          "name": "amount",
          "type": "uint256"
        },
        {
          "indexed": false,
          "internalType": "uint8",
          "name": "k",
          "type": "uint8"
        }
      ],
      "name": "Stake",
      "type": "event"
    },
    {
      "anonymous": false,
      "inputs": [
        {
          "indexed": true,
          "internalType": "address",
          "name": "user",
          "type": "address"
        },
        {
          "indexed": false,
          "internalType": "uint256",
          "name": "amount",
          "type": "uint256"
        }
      ],
      "name": "Withdraw",
      "type": "event"
    },
    {
      "inputs": [],
      "name": "MAX_SCALE",
      "outputs": [
        {
          "internalType": "uint256",
          "name": "",
          "type": "uint256"
        }
      ],
      "stateMutability": "view",
      "type": "function"
    },
    {
      "inputs": [],
      "name": "MAX_WEEKS",
      "outputs": [
        {
          "internalType": "uint8",
          "name": "",
          "type": "uint8"
        }
      ],
      "stateMutability": "view",
      "type": "function"
    },
    {
      "inputs": [],
      "name": "WEEK_SECONDS",
      "outputs": [
        {
          "internalType": "uint24",
          "name": "",
          "type": "uint24"
        }
      ],
      "stateMutability": "view",
      "type": "function"
    },
    {
      "inputs": [],
      "name": "acceptSetter",
      "outputs": [],
      "stateMutability": "nonpayable",
      "type": "function"
    },
    {
      "inputs": [
        {
          "internalType": "uint256",
          "name": "",
          "type": "uint256"
        },
        {
          "internalType": "uint256",
          "name": "",
          "type": "uint256"
        }
      ],
      "name": "bClaimReward",
      "outputs": [
        {
          "internalType": "bool",
          "name": "",
          "type": "bool"
        }
      ],
      "stateMutability": "view",
      "type": "function"
    },
    {
      "inputs": [],
      "name": "claimReward",
      "outputs": [],
      "stateMutability": "nonpayable",
      "type": "function"
    },
    {
      "inputs": [
        {
          "internalType": "uint256",
          "name": "amount",
          "type": "uint256"
        },
        {
          "internalType": "uint8",
          "name": "k",
          "type": "uint8"
        }
      ],
      "name": "getScore",
      "outputs": [
        {
          "internalType": "uint256",
          "name": "score",
          "type": "uint256"
        }
      ],
      "stateMutability": "view",
      "type": "function"
    },
    {
      "inputs": [],
      "name": "getStaking",
      "outputs": [
        {
          "internalType": "uint256",
          "name": "total",
          "type": "uint256"
        },
        {
          "internalType": "uint256",
          "name": "staking",
          "type": "uint256"
        }
      ],
      "stateMutability": "view",
      "type": "function"
    },
    {
      "inputs": [],
      "name": "latestNo",
      "outputs": [
        {
          "internalType": "uint256",
          "name": "",
          "type": "uint256"
        }
      ],
      "stateMutability": "view",
      "type": "function"
    },
    {
      "inputs": [],
      "name": "lpToken",
      "outputs": [
        {
          "internalType": "address",
          "name": "",
          "type": "address"
        }
      ],
      "stateMutability": "view",
      "type": "function"
    },
    {
      "inputs": [],
      "name": "nonce",
      "outputs": [
        {
          "internalType": "uint256",
          "name": "",
          "type": "uint256"
        }
      ],
      "stateMutability": "view",
      "type": "function"
    },
    {
      "inputs": [],
      "name": "owner",
      "outputs": [
        {
          "internalType": "address",
          "name": "",
          "type": "address"
        }
      ],
      "stateMutability": "view",
      "type": "function"
    },
    {
      "inputs": [],
      "name": "rewardToken",
      "outputs": [
        {
          "internalType": "address",
          "name": "",
          "type": "address"
        }
      ],
      "stateMutability": "view",
      "type": "function"
    },
    {
      "inputs": [
        {
          "internalType": "uint256",
          "name": "",
          "type": "uint256"
        }
      ],
      "name": "rewardsOf",
      "outputs": [
        {
          "internalType": "uint256",
          "name": "",
          "type": "uint256"
        }
      ],
      "stateMutability": "view",
      "type": "function"
    },
    {
      "inputs": [
        {
          "internalType": "uint256[]",
          "name": "nos",
          "type": "uint256[]"
        },
        {
          "internalType": "uint256[]",
          "name": "amounts",
          "type": "uint256[]"
        }
      ],
      "name": "setReward",
      "outputs": [
        {
          "internalType": "uint256",
          "name": "total",
          "type": "uint256"
        }
      ],
      "stateMutability": "nonpayable",
      "type": "function"
    },
    {
      "inputs": [
        {
          "internalType": "uint256",
          "name": "no",
          "type": "uint256"
        },
        {
          "internalType": "uint256",
          "name": "amount",
          "type": "uint256"
        }
      ],
      "name": "setReward",
      "outputs": [],
      "stateMutability": "nonpayable",
      "type": "function"
    },
    {
      "inputs": [
        {
          "internalType": "uint256",
          "name": "amount",
          "type": "uint256"
        },
        {
          "internalType": "uint8",
          "name": "k",
          "type": "uint8"
        }
      ],
      "name": "stake",
      "outputs": [],
      "stateMutability": "nonpayable",
      "type": "function"
    },
    {
      "inputs": [
        {
          "internalType": "uint256",
          "name": "",
          "type": "uint256"
        }
      ],
      "name": "stakingERC20s",
      "outputs": [
        {
          "internalType": "uint256",
          "name": "amount",
          "type": "uint256"
        },
        {
          "internalType": "uint256",
          "name": "score",
          "type": "uint256"
        },
        {
          "internalType": "uint256",
          "name": "beginNo",
          "type": "uint256"
        },
        {
          "internalType": "uint256",
          "name": "endNo",
          "type": "uint256"
        },
        {
          "internalType": "uint256",
          "name": "toClaimNo",
          "type": "uint256"
        }
      ],
      "stateMutability": "view",
      "type": "function"
    },
    {
      "inputs": [
        {
          "internalType": "uint256",
          "name": "",
          "type": "uint256"
        }
      ],
      "name": "totalScores",
      "outputs": [
        {
          "internalType": "uint256",
          "name": "",
          "type": "uint256"
        }
      ],
      "stateMutability": "view",
      "type": "function"
    },
    {
      "inputs": [
        {
          "internalType": "address",
          "name": "_owner",
          "type": "address"
        }
      ],
      "name": "transferOwner",
      "outputs": [],
      "stateMutability": "nonpayable",
      "type": "function"
    },
    {
      "inputs": [
        {
          "internalType": "address",
          "name": "",
          "type": "address"
        },
        {
          "internalType": "uint256",
          "name": "",
          "type": "uint256"
        }
      ],
      "name": "userERC20s",
      "outputs": [
        {
          "internalType": "uint256",
          "name": "",
          "type": "uint256"
        }
      ],
      "stateMutability": "view",
      "type": "function"
    },
    {
      "inputs": [
        {
          "internalType": "uint256",
          "name": "amount",
          "type": "uint256"
        }
      ],
      "name": "withdraw",
      "outputs": [
        {
          "internalType": "uint256",
          "name": "total",
          "type": "uint256"
        }
      ],
      "stateMutability": "nonpayable",
      "type": "function"
    }
  ],
  "bytecode": "0x61010060405234801561001157600080fd5b5060405161151038038061151083398101604081905261003091610083565b6001600160a01b0391821660805260ff90931660a05260c091909152600080546001600160a01b031916331790551660e0526100d9565b80516001600160a01b038116811461007e57600080fd5b919050565b6000806000806080858703121561009957600080fd5b845160ff811681146100aa57600080fd5b602086015190945092506100c060408601610067565b91506100ce60608601610067565b905092959194509250565b60805160a05160c05160e0516113bf610151600039600081816101fe0152818161047101526107970152600081816103b00152610d9b0152600081816103640152818161040901528181610d370152610d620152600081816103d7015281816108b901528181610a9d0152610ca501526113bf6000f3fe608060405234801561001057600080fd5b50600436106101425760003560e01c8063a218de15116100b8578063cd671a581161007c578063cd671a5814610304578063ce6d3e3e14610321578063e11400bb1461035f578063ee3453ed14610398578063f6def7cf146103ab578063f7c618c1146103d257600080fd5b8063a218de1514610268578063a47bd496146102cd578063affed0e0146102e0578063b88a802f146102e9578063ba086501146102f157600080fd5b80634d10c55a1161010a5780634d10c55a146101cb5780634fb2e45d146101de5780635f8e422f146101f15780635fcbd285146101f95780637b1391a6146102385780638da5cb5b1461025557600080fd5b80630bce12841461014757806310087fb11461017a578063157775df1461018f57806329ed1cfd146101af5780632e1a7d4d146101b8575b600080fd5b61016761015536600461101f565b60046020526000908152604090205481565b6040519081526020015b60405180910390f35b61018d610188366004611038565b6103f9565b005b61016761019d36600461101f565b60036020526000908152604090205481565b61016760055481565b6101676101c636600461101f565b610614565b6101676101d936600461111f565b6107f8565b61018d6101ec36600461119f565b610922565b61018d61096e565b6102207f000000000000000000000000000000000000000000000000000000000000000081565b6040516001600160a01b039091168152602001610171565b6102406109bf565b60408051928352602083019190915201610171565b600054610220906001600160a01b031681565b6102a561027636600461101f565b600760205260009081526040902080546001820154600283015460038401546004909401549293919290919085565b604080519586526020860194909452928401919091526060830152608082015260a001610171565b61018d6102db3660046111ba565b610a6e565b61016760065481565b61018d610b27565b6101676102ff3660046111dc565b610cfd565b61030d61025881565b60405162ffffff9091168152602001610171565b61034f61032f3660046111ba565b600260209081526000928352604080842090915290825290205460ff1681565b6040519015158152602001610171565b6103867f000000000000000000000000000000000000000000000000000000000000000081565b60405160ff9091168152602001610171565b6101676103a6366004611038565b610d2e565b6101677f000000000000000000000000000000000000000000000000000000000000000081565b6102207f000000000000000000000000000000000000000000000000000000000000000081565b60008160ff1611801561043257507f000000000000000000000000000000000000000000000000000000000000000060ff168160ff1611155b61046c5760405162461bcd60e51b8152602060048201526006602482015265359018bf1a9960d11b60448201526064015b60405180910390fd5b6104987f0000000000000000000000000000000000000000000000000000000000000000333085610df8565b60006104a66102584261121c565b6104b190600161123e565b905060006104bf8484610d2e565b905060005b8360ff168160ff1610156105195781600360006104e460ff85168761123e565b81526020019081526020016000206000828254610501919061123e565b9091555081905061051181611257565b9150506104c4565b506040518060a001604052808581526020018281526020018381526020018460ff1684610546919061123e565b8152602090810184905260068054600090815260078352604080822085518155858501516001808301919091558683015160028301556060808801516003840155608090970151600490920191909155338084526008865282842085548154938401825590855293869020909101929092559154825190815292830188905260ff871683830152905190927f6fa2f6021ee337436cdf2b2570285886da18bc06402ce284d296504a0fe8f875928290030190a26006805490600061060983611276565b919050555050505050565b6000806106236102584261121c565b33600090815260086020526040812054919250906106439060019061128f565b90505b336000908152600860205260408120805483908110610667576106676112a2565b906000526020600020015490508260076000838152602001908152602001600020600301541161077e576000818152600760205260409020546106aa908561123e565b93508484116107545733600090815260086020526040902080546106d09060019061128f565b815481106106e0576106e06112a2565b60009182526020808320909101543383526008909152604090912080548490811061070d5761070d6112a2565b6000918252602080832090910192909255338152600890915260409020805480610739576107396112b8565b60019003818190600052602060002001600090559055610771565b61075e858561128f565b6000828152600760205260409020558493505b84840361077e5750610791565b5080610789816112ce565b915050610646565b506107bd7f00000000000000000000000000000000000000000000000000000000000000003384610f12565b60405182815233907f884edad9ce6fa2440d8a54cc123490eb96d2768479d49ff9c7366125a94243649060200160405180910390a250919050565b600080546001600160a01b031633146108235760405162461bcd60e51b8152600401610463906112e5565b60005b83518110156108b357828181518110610841576108416112a2565b602002602001015182610854919061123e565b9150828181518110610868576108686112a2565b602002602001015160046000868481518110610886576108866112a2565b602002602001015181526020019081526020016000208190555080806108ab90611276565b915050610826565b506108e07f0000000000000000000000000000000000000000000000000000000000000000333084610df8565b60408051600081526020810183905233917fc3991418cacd70a010fce559a44fcbb47534ca43bf7543964bdca2639f6e6e5a910160405180910390a292915050565b6000546001600160a01b0316331461094c5760405162461bcd60e51b8152600401610463906112e5565b600180546001600160a01b0319166001600160a01b0392909216919091179055565b6001546001600160a01b031633146109985760405162461bcd60e51b8152600401610463906112e5565b60018054600080546001600160a01b03199081166001600160a01b03841617909155169055565b600080806109cf6102584261121c565b905060005b33600090815260086020526040902054811015610a6857336000908152600860205260408120805483908110610a0c57610a0c6112a2565b600091825260208083209091015480835260079091526040909120805460039091015491925090841015610a4757610a44818661123e565b94505b610a51818761123e565b955050508080610a6090611276565b9150506109d4565b50509091565b6000546001600160a01b03163314610a985760405162461bcd60e51b8152600401610463906112e5565b610ac47f0000000000000000000000000000000000000000000000000000000000000000333084610df8565b60008281526004602052604081208054839290610ae290849061123e565b9091555050604080518381526020810183905233917fc3991418cacd70a010fce559a44fcbb47534ca43bf7543964bdca2639f6e6e5a91015b60405180910390a25050565b6000610b356102584261121c565b90506000805b33600090815260086020526040902054811015610c9f57336000908152600860205260408120805483908110610b7357610b736112a2565b600091825260208083209091015480835260079091526040909120600401549091505b600082815260076020526040902060030154811015610c8a57600082815260026020908152604080832084845290915290205460ff1680610bd657508481115b80610bed5750600081815260046020526040902054155b610c785760008281526002602090815260408083208484529091529020805460ff19166001908117909155610c2390829061123e565b6000838152600760209081526040808320600480820195909555858452600383528184205460019091015494909252909120549091610c6191611308565b610c6b919061121c565b610c75908561123e565b93505b80610c8281611276565b915050610b96565b50508080610c9790611276565b915050610b3b565b50610ccb7f00000000000000000000000000000000000000000000000000000000000000003383610f12565b60405181815233907fba8de60c3403ec381d1d484652ea1980e3c3e56359195c92525bff4ce47ad98e90602001610b1b565b60086020528160005260406000208181548110610d1957600080fd5b90600052602060002001600091509150505481565b6000610d5b60017f000000000000000000000000000000000000000000000000000000000000000061131f565b60ff1660017f000000000000000000000000000000000000000000000000000000000000000060ff16600185610d91919061131f565b60ff16610dbf60017f000000000000000000000000000000000000000000000000000000000000000061128f565b610dc99190611308565b610dd3919061123e565b610ddd919061128f565b610de79085611308565b610df1919061121c565b9392505050565b604080516001600160a01b0385811660248301528481166044830152606480830185905283518084039091018152608490920183526020820180516001600160e01b03166323b872dd60e01b1790529151600092839290881691610e5c9190611338565b6000604051808303816000865af19150503d8060008114610e99576040519150601f19603f3d011682016040523d82523d6000602084013e610e9e565b606091505b5091509150818015610ec8575080511580610ec8575080806020019051810190610ec89190611367565b610f0a5760405162461bcd60e51b81526020600482015260136024820152721d1c985b9cd9995c919c9bdb4819985a5b1959606a1b6044820152606401610463565b505050505050565b604080516001600160a01b038481166024830152604480830185905283518084039091018152606490920183526020820180516001600160e01b031663a9059cbb60e01b1790529151600092839290871691610f6e9190611338565b6000604051808303816000865af19150503d8060008114610fab576040519150601f19603f3d011682016040523d82523d6000602084013e610fb0565b606091505b5091509150818015610fda575080511580610fda575080806020019051810190610fda9190611367565b6110185760405162461bcd60e51b815260206004820152600f60248201526e1514905394d1915497d19052531151608a1b6044820152606401610463565b5050505050565b60006020828403121561103157600080fd5b5035919050565b6000806040838503121561104b57600080fd5b82359150602083013560ff8116811461106357600080fd5b809150509250929050565b634e487b7160e01b600052604160045260246000fd5b600082601f83011261109557600080fd5b8135602067ffffffffffffffff808311156110b2576110b261106e565b8260051b604051601f19603f830116810181811084821117156110d7576110d761106e565b6040529384528581018301938381019250878511156110f557600080fd5b83870191505b84821015611114578135835291830191908301906110fb565b979650505050505050565b6000806040838503121561113257600080fd5b823567ffffffffffffffff8082111561114a57600080fd5b61115686838701611084565b9350602085013591508082111561116c57600080fd5b5061117985828601611084565b9150509250929050565b80356001600160a01b038116811461119a57600080fd5b919050565b6000602082840312156111b157600080fd5b610df182611183565b600080604083850312156111cd57600080fd5b50508035926020909101359150565b600080604083850312156111ef57600080fd5b6111f883611183565b946020939093013593505050565b634e487b7160e01b600052601160045260246000fd5b60008261123957634e487b7160e01b600052601260045260246000fd5b500490565b8082018082111561125157611251611206565b92915050565b600060ff821660ff810361126d5761126d611206565b60010192915050565b60006001820161128857611288611206565b5060010190565b8181038181111561125157611251611206565b634e487b7160e01b600052603260045260246000fd5b634e487b7160e01b600052603160045260246000fd5b6000816112dd576112dd611206565b506000190190565b6020808252600990820152683337b93134b23232b760b91b604082015260600190565b808202811582820484141761125157611251611206565b60ff828116828216039081111561125157611251611206565b6000825160005b81811015611359576020818601810151858301520161133f565b506000920191825250919050565b60006020828403121561137957600080fd5b81518015158114610df157600080fdfea26469706673582212202792476c6c94b6aad06f583f8adb1333c41c4d43101f0f573af54d809baaf1ad64736f6c63430008110033",
  "linkReferences": {},
  "deployedLinkReferences": {}
}