{
  "_format": "hh-sol-artifact-1",
  "contractName": "StakeERC20",
  "sourceName": "contracts/stakeERC20.sol",
  "abi": [
    {
      "inputs": [
        {
          "internalType": "uint8",
          "name": "maxWeeks",
          "type": "uint8"
        },
        {
          "internalType": "uint256",
          "name": "maxScale",
          "type": "uint256"
        },
        {
          "internalType": "uint8",
          "name": "lockWeeks",
          "type": "uint8"
        },
        {
          "internalType": "address",
          "name": "_rewardToken",
          "type": "address"
        },
        {
          "internalType": "address",
          "name": "_lpToken",
          "type": "address"
        }
      ],
      "stateMutability": "nonpayable",
      "type": "constructor"
    },
    {
      "anonymous": false,
      "inputs": [
        {
          "indexed": true,
          "internalType": "address",
          "name": "user",
          "type": "address"
        },
        {
          "indexed": false,
          "internalType": "uint256",
          "name": "amount",
          "type": "uint256"
        }
      ],
      "name": "ClaimReward",
      "type": "event"
    },
    {
      "anonymous": false,
      "inputs": [
        {
          "indexed": true,
          "internalType": "address",
          "name": "user",
          "type": "address"
        },
        {
          "indexed": false,
          "internalType": "uint256",
          "name": "no",
          "type": "uint256"
        },
        {
          "indexed": false,
          "internalType": "uint256",
          "name": "amount",
          "type": "uint256"
        }
      ],
      "name": "SetReward",
      "type": "event"
    },
    {
      "anonymous": false,
      "inputs": [
        {
          "indexed": true,
          "internalType": "address",
          "name": "user",
          "type": "address"
        },
        {
          "indexed": false,
          "internalType": "uint256",
          "name": "id",
          "type": "uint256"
        },
        {
          "indexed": false,
          "internalType": "uint256",
          "name": "amount",
          "type": "uint256"
        },
        {
          "indexed": false,
          "internalType": "uint8",
          "name": "k",
          "type": "uint8"
        }
      ],
      "name": "Stake",
      "type": "event"
    },
    {
      "anonymous": false,
      "inputs": [
        {
          "indexed": true,
          "internalType": "address",
          "name": "user",
          "type": "address"
        },
        {
          "indexed": false,
          "internalType": "uint256",
          "name": "amount",
          "type": "uint256"
        }
      ],
      "name": "Withdraw",
      "type": "event"
    },
    {
      "inputs": [],
      "name": "LOCK_WEEKNUM",
      "outputs": [
        {
          "internalType": "uint8",
          "name": "",
          "type": "uint8"
        }
      ],
      "stateMutability": "view",
      "type": "function"
    },
    {
      "inputs": [],
      "name": "MAX_SCALE",
      "outputs": [
        {
          "internalType": "uint256",
          "name": "",
          "type": "uint256"
        }
      ],
      "stateMutability": "view",
      "type": "function"
    },
    {
      "inputs": [],
      "name": "MAX_WEEKS",
      "outputs": [
        {
          "internalType": "uint8",
          "name": "",
          "type": "uint8"
        }
      ],
      "stateMutability": "view",
      "type": "function"
    },
    {
      "inputs": [],
      "name": "WEEK_SECONDS",
      "outputs": [
        {
          "internalType": "uint24",
          "name": "",
          "type": "uint24"
        }
      ],
      "stateMutability": "view",
      "type": "function"
    },
    {
      "inputs": [],
      "name": "acceptSetter",
      "outputs": [],
      "stateMutability": "nonpayable",
      "type": "function"
    },
    {
      "inputs": [],
      "name": "canClaimAmount",
      "outputs": [
        {
          "internalType": "uint256",
          "name": "",
          "type": "uint256"
        }
      ],
      "stateMutability": "view",
      "type": "function"
    },
    {
      "inputs": [],
      "name": "claim",
      "outputs": [],
      "stateMutability": "nonpayable",
      "type": "function"
    },
    {
      "inputs": [
        {
          "internalType": "uint256",
          "name": "amount",
          "type": "uint256"
        },
        {
          "internalType": "uint8",
          "name": "k",
          "type": "uint8"
        }
      ],
      "name": "getScore",
      "outputs": [
        {
          "internalType": "uint256",
          "name": "score",
          "type": "uint256"
        }
      ],
      "stateMutability": "view",
      "type": "function"
    },
    {
      "inputs": [],
      "name": "getStaking",
      "outputs": [
        {
          "internalType": "uint256",
          "name": "total",
          "type": "uint256"
        },
        {
          "internalType": "uint256",
          "name": "staking",
          "type": "uint256"
        }
      ],
      "stateMutability": "view",
      "type": "function"
    },
    {
      "inputs": [],
      "name": "latestNo",
      "outputs": [
        {
          "internalType": "uint256",
          "name": "",
          "type": "uint256"
        }
      ],
      "stateMutability": "view",
      "type": "function"
    },
    {
      "inputs": [],
      "name": "lpToken",
      "outputs": [
        {
          "internalType": "address",
          "name": "",
          "type": "address"
        }
      ],
      "stateMutability": "view",
      "type": "function"
    },
    {
      "inputs": [],
      "name": "nonce",
      "outputs": [
        {
          "internalType": "uint256",
          "name": "",
          "type": "uint256"
        }
      ],
      "stateMutability": "view",
      "type": "function"
    },
    {
      "inputs": [],
      "name": "owner",
      "outputs": [
        {
          "internalType": "address",
          "name": "",
          "type": "address"
        }
      ],
      "stateMutability": "view",
      "type": "function"
    },
    {
      "inputs": [],
      "name": "rewardToken",
      "outputs": [
        {
          "internalType": "address",
          "name": "",
          "type": "address"
        }
      ],
      "stateMutability": "view",
      "type": "function"
    },
    {
      "inputs": [
        {
          "internalType": "uint256",
          "name": "",
          "type": "uint256"
        }
      ],
      "name": "rewardsOf",
      "outputs": [
        {
          "internalType": "uint256",
          "name": "",
          "type": "uint256"
        }
      ],
      "stateMutability": "view",
      "type": "function"
    },
    {
      "inputs": [
        {
          "internalType": "uint256",
          "name": "no",
          "type": "uint256"
        },
        {
          "internalType": "uint256",
          "name": "amount",
          "type": "uint256"
        }
      ],
      "name": "setReward",
      "outputs": [],
      "stateMutability": "nonpayable",
      "type": "function"
    },
    {
      "inputs": [
        {
          "internalType": "uint256[]",
          "name": "nos",
          "type": "uint256[]"
        },
        {
          "internalType": "uint256[]",
          "name": "amounts",
          "type": "uint256[]"
        }
      ],
      "name": "setRewards",
      "outputs": [
        {
          "internalType": "uint256",
          "name": "total",
          "type": "uint256"
        }
      ],
      "stateMutability": "nonpayable",
      "type": "function"
    },
    {
      "inputs": [
        {
          "internalType": "uint256",
          "name": "amount",
          "type": "uint256"
        },
        {
          "internalType": "uint8",
          "name": "k",
          "type": "uint8"
        }
      ],
      "name": "stake",
      "outputs": [],
      "stateMutability": "nonpayable",
      "type": "function"
    },
    {
      "inputs": [
        {
          "internalType": "uint256",
          "name": "",
          "type": "uint256"
        }
      ],
      "name": "stakingERC20s",
      "outputs": [
        {
          "internalType": "uint256",
          "name": "amount",
          "type": "uint256"
        },
        {
          "internalType": "uint256",
          "name": "score",
          "type": "uint256"
        },
        {
          "internalType": "uint256",
          "name": "beginNo",
          "type": "uint256"
        },
        {
          "internalType": "uint256",
          "name": "endNo",
          "type": "uint256"
        }
      ],
      "stateMutability": "view",
      "type": "function"
    },
    {
      "inputs": [
        {
          "internalType": "uint256",
          "name": "",
          "type": "uint256"
        }
      ],
      "name": "totalScores",
      "outputs": [
        {
          "internalType": "uint256",
          "name": "",
          "type": "uint256"
        }
      ],
      "stateMutability": "view",
      "type": "function"
    },
    {
      "inputs": [
        {
          "internalType": "address",
          "name": "_owner",
          "type": "address"
        }
      ],
      "name": "transferOwner",
      "outputs": [],
      "stateMutability": "nonpayable",
      "type": "function"
    },
    {
      "inputs": [
        {
          "internalType": "address",
          "name": "",
          "type": "address"
        },
        {
          "internalType": "uint256",
          "name": "",
          "type": "uint256"
        }
      ],
      "name": "userCanClaimWeeks",
      "outputs": [
        {
          "internalType": "uint256",
          "name": "",
          "type": "uint256"
        }
      ],
      "stateMutability": "view",
      "type": "function"
    },
    {
      "inputs": [
        {
          "internalType": "address",
          "name": "",
          "type": "address"
        },
        {
          "internalType": "uint256",
          "name": "",
          "type": "uint256"
        }
      ],
      "name": "userERC20s",
      "outputs": [
        {
          "internalType": "uint256",
          "name": "",
          "type": "uint256"
        }
      ],
      "stateMutability": "view",
      "type": "function"
    },
    {
      "inputs": [
        {
          "internalType": "address",
          "name": "",
          "type": "address"
        },
        {
          "internalType": "uint256",
          "name": "",
          "type": "uint256"
        }
      ],
      "name": "userScores",
      "outputs": [
        {
          "internalType": "uint256",
          "name": "",
          "type": "uint256"
        }
      ],
      "stateMutability": "view",
      "type": "function"
    },
    {
      "inputs": [],
      "name": "withdraw",
      "outputs": [
        {
          "internalType": "uint256",
          "name": "total",
          "type": "uint256"
        }
      ],
      "stateMutability": "nonpayable",
      "type": "function"
    }
  ],
  "bytecode": "0x6101206040523480156200001257600080fd5b506040516200168f3803806200168f8339810160408190526200003591620000a2565b6001600160a01b0391821660805260ff94851660a05260c093909352921660e052600080546001600160a01b03191633179055166101005262000109565b805160ff811681146200008557600080fd5b919050565b80516001600160a01b03811681146200008557600080fd5b600080600080600060a08688031215620000bb57600080fd5b620000c68662000073565b945060208601519350620000dd6040870162000073565b9250620000ed606087016200008a565b9150620000fd608087016200008a565b90509295509295909350565b60805160a05160c05160e051610100516114fb620001946000396000818161027d01526104b60152600081816101b00152818161084c0152610aec0152600081816103f50152610ed70152600081816103bb0152818161044e01528181610e730152610e9e01526000818161041c0152818161093901528181610cea0152610d8201526114fb6000f3fe608060405234801561001057600080fd5b50600436106101735760003560e01c80638431165e116100de578063ba08650111610097578063e11400bb11610071578063e11400bb146103b6578063ee3453ed146103dd578063f6def7cf146103f0578063f7c618c11461041757600080fd5b8063ba08650114610373578063bb57852d14610386578063cd671a581461039957600080fd5b80638431165e146102d45780638da5cb5b146102dc578063979db1c4146102ef578063a218de1514610302578063a47bd49614610357578063affed0e01461036a57600080fd5b80634e71d92d116101305780634e71d92d1461022a5780634fb2e45d146102325780635b680a45146102455780635f8e422f146102705780635fcbd285146102785780637b1391a6146102b757600080fd5b80630bce1284146101785780630d437d40146101ab57806310087fb1146101e4578063157775df146101f957806329ed1cfd146102195780633ccfd60b14610222575b600080fd5b61019861018636600461115b565b60056020526000908152604090205481565b6040519081526020015b60405180910390f35b6101d27f000000000000000000000000000000000000000000000000000000000000000081565b60405160ff90911681526020016101a2565b6101f76101f2366004611174565b61043e565b005b61019861020736600461115b565b60046020526000908152604090205481565b61019860065481565b6101986106fc565b6101f7610846565b6101f76102403660046111c6565b610999565b6101986102533660046111e1565b600260209081526000928352604080842090915290825290205481565b6101f76109e5565b61029f7f000000000000000000000000000000000000000000000000000000000000000081565b6040516001600160a01b0390911681526020016101a2565b6102bf610a36565b604080519283526020830191909152016101a2565b610198610ae5565b60005461029f906001600160a01b031681565b6101986102fd3660046112bc565b610bbe565b61033761031036600461115b565b60086020526000908152604090208054600182015460028301546003909301549192909184565b6040805194855260208501939093529183015260608201526080016101a2565b6101f7610365366004611320565b610d53565b61019860075481565b6101986103813660046111e1565b610e14565b6101986103943660046111e1565b610e45565b6103a261025881565b60405162ffffff90911681526020016101a2565b6101d27f000000000000000000000000000000000000000000000000000000000000000081565b6101986103eb366004611174565b610e6a565b6101987f000000000000000000000000000000000000000000000000000000000000000081565b61029f7f000000000000000000000000000000000000000000000000000000000000000081565b60008160ff1611801561047757507f000000000000000000000000000000000000000000000000000000000000000060ff168160ff1611155b6104b15760405162461bcd60e51b8152602060048201526006602482015265359018bf1a9960d11b60448201526064015b60405180910390fd5b6104dd7f0000000000000000000000000000000000000000000000000000000000000000333085610f34565b60006104eb61025842611358565b6104f690600161137a565b905060006105048484610e6a565b905060005b8360ff168160ff16101561059e57816004600061052960ff85168761137a565b81526020019081526020016000206000828254610546919061137a565b9091555050336000908152600260205260408120839161056960ff85168761137a565b81526020019081526020016000206000828254610586919061137a565b9091555081905061059681611393565b915050610509565b5060405180608001604052808581526020018281526020018381526020018460ff16846105cb919061137a565b90526007546000908152600860209081526040808320845181558483015160018083019190915585830151600283015560609095015160039182015533845290915290209081015490540361062d573360009081526003602052604090208290555b61063a60ff84168361137a565b3360009081526003602052604090206001015410156106745761066060ff84168361137a565b336000908152600360205260409020600101555b33600081815260096020908152604080832060078054825460018101845592865294849020909101939093559154825190815290810187905260ff86168183015290517f6fa2f6021ee337436cdf2b2570285886da18bc06402ce284d296504a0fe8f8759181900360600190a2600780549060006106f1836113c8565b919050555050505050565b60008061070b61025842611358565b336000908152600960205260408120549192509061072b906001906113e1565b90505b33600090815260096020526040812080548390811061074f5761074f6113b2565b906000526020600020015490508260086000838152602001908152602001600020600301541161083357600081815260086020526040902054610792908561137a565b3360009081526009602052604090208054919550906107b3906001906113e1565b815481106107c3576107c36113b2565b6000918252602080832090910154338352600990915260409091208054849081106107f0576107f06113b2565b600091825260208083209091019290925533815260099091526040902080548061081c5761081c6113f4565b600190038181906000526020600020016000905590555b508061083e8161140a565b91505061072e565b600060ff7f00000000000000000000000000000000000000000000000000000000000000001661087861025842611358565b61088291906113e1565b33600090815260036020526040812054919250905b3360009081526003602052604090206001015481101561093357828111610933576108c381600161137a565b336000908152600360205260408120015560008181526004602090815260408083205433845260028352818420858552835281842054600590935292205461090b9190611421565b6109159190611358565b61091f908361137a565b91508061092b816113c8565b915050610897565b5061095f7f0000000000000000000000000000000000000000000000000000000000000000338361104e565b60405181815233907fba8de60c3403ec381d1d484652ea1980e3c3e56359195c92525bff4ce47ad98e906020015b60405180910390a25050565b6000546001600160a01b031633146109c35760405162461bcd60e51b81526004016104a890611438565b600180546001600160a01b0319166001600160a01b0392909216919091179055565b6001546001600160a01b03163314610a0f5760405162461bcd60e51b81526004016104a890611438565b60018054600080546001600160a01b03199081166001600160a01b03841617909155169055565b60008080610a4661025842611358565b905060005b33600090815260096020526040902054811015610adf57336000908152600960205260408120805483908110610a8357610a836113b2565b600091825260208083209091015480835260089091526040909120805460039091015491925090841015610abe57610abb818661137a565b94505b610ac8818761137a565b955050508080610ad7906113c8565b915050610a4b565b50509091565b60008060ff7f000000000000000000000000000000000000000000000000000000000000000016610b1861025842611358565b610b2291906113e1565b33600090815260036020526040812054919250905b33600090815260036020526040902060010154811015610bb757828111610bb757600081815260046020908152604080832054338452600283528184208585528352818420546005909352922054610b8f9190611421565b610b999190611358565b610ba3908361137a565b915080610baf816113c8565b915050610b37565b5092915050565b600080546001600160a01b03163314610be95760405162461bcd60e51b81526004016104a890611438565b60005b8351811015610c7957828181518110610c0757610c076113b2565b602002602001015182610c1a919061137a565b9150828181518110610c2e57610c2e6113b2565b602002602001015160056000868481518110610c4c57610c4c6113b2565b60200260200101518152602001908152602001600020819055508080610c71906113c8565b915050610bec565b5060008351118015610cb257506006548360018551610c9891906113e1565b81518110610ca857610ca86113b2565b6020026020010151115b15610ce5578260018451610cc691906113e1565b81518110610cd657610cd66113b2565b60200260200101516006819055505b610d117f0000000000000000000000000000000000000000000000000000000000000000333084610f34565b60408051600081526020810183905233917fc3991418cacd70a010fce559a44fcbb47534ca43bf7543964bdca2639f6e6e5a910160405180910390a292915050565b6000546001600160a01b03163314610d7d5760405162461bcd60e51b81526004016104a890611438565b610da97f0000000000000000000000000000000000000000000000000000000000000000333084610f34565b60008281526005602052604081208054839290610dc790849061137a565b9091555050600654821115610ddc5760068290555b604080518381526020810183905233917fc3991418cacd70a010fce559a44fcbb47534ca43bf7543964bdca2639f6e6e5a910161098d565b60096020528160005260406000208181548110610e3057600080fd5b90600052602060002001600091509150505481565b60036020528160005260406000208160028110610e6157600080fd5b01549150829050565b6000610e9760017f000000000000000000000000000000000000000000000000000000000000000061145b565b60ff1660017f000000000000000000000000000000000000000000000000000000000000000060ff16600185610ecd919061145b565b60ff16610efb60017f00000000000000000000000000000000000000000000000000000000000000006113e1565b610f059190611421565b610f0f919061137a565b610f1991906113e1565b610f239085611421565b610f2d9190611358565b9392505050565b604080516001600160a01b0385811660248301528481166044830152606480830185905283518084039091018152608490920183526020820180516001600160e01b03166323b872dd60e01b1790529151600092839290881691610f989190611474565b6000604051808303816000865af19150503d8060008114610fd5576040519150601f19603f3d011682016040523d82523d6000602084013e610fda565b606091505b509150915081801561100457508051158061100457508080602001905181019061100491906114a3565b6110465760405162461bcd60e51b81526020600482015260136024820152721d1c985b9cd9995c919c9bdb4819985a5b1959606a1b60448201526064016104a8565b505050505050565b604080516001600160a01b038481166024830152604480830185905283518084039091018152606490920183526020820180516001600160e01b031663a9059cbb60e01b17905291516000928392908716916110aa9190611474565b6000604051808303816000865af19150503d80600081146110e7576040519150601f19603f3d011682016040523d82523d6000602084013e6110ec565b606091505b509150915081801561111657508051158061111657508080602001905181019061111691906114a3565b6111545760405162461bcd60e51b815260206004820152600f60248201526e1514905394d1915497d19052531151608a1b60448201526064016104a8565b5050505050565b60006020828403121561116d57600080fd5b5035919050565b6000806040838503121561118757600080fd5b82359150602083013560ff8116811461119f57600080fd5b809150509250929050565b80356001600160a01b03811681146111c157600080fd5b919050565b6000602082840312156111d857600080fd5b610f2d826111aa565b600080604083850312156111f457600080fd5b6111fd836111aa565b946020939093013593505050565b634e487b7160e01b600052604160045260246000fd5b600082601f83011261123257600080fd5b8135602067ffffffffffffffff8083111561124f5761124f61120b565b8260051b604051601f19603f830116810181811084821117156112745761127461120b565b60405293845285810183019383810192508785111561129257600080fd5b83870191505b848210156112b157813583529183019190830190611298565b979650505050505050565b600080604083850312156112cf57600080fd5b823567ffffffffffffffff808211156112e757600080fd5b6112f386838701611221565b9350602085013591508082111561130957600080fd5b5061131685828601611221565b9150509250929050565b6000806040838503121561133357600080fd5b50508035926020909101359150565b634e487b7160e01b600052601160045260246000fd5b60008261137557634e487b7160e01b600052601260045260246000fd5b500490565b8082018082111561138d5761138d611342565b92915050565b600060ff821660ff81036113a9576113a9611342565b60010192915050565b634e487b7160e01b600052603260045260246000fd5b6000600182016113da576113da611342565b5060010190565b8181038181111561138d5761138d611342565b634e487b7160e01b600052603160045260246000fd5b60008161141957611419611342565b506000190190565b808202811582820484141761138d5761138d611342565b6020808252600990820152683337b93134b23232b760b91b604082015260600190565b60ff828116828216039081111561138d5761138d611342565b6000825160005b81811015611495576020818601810151858301520161147b565b506000920191825250919050565b6000602082840312156114b557600080fd5b81518015158114610f2d57600080fdfea2646970667358221220be25615332ad9bddc295b0f19c4913d7630e3596deb57a8713d98938bf3c766f64736f6c63430008110033",
  "linkReferences": {},
  "deployedLinkReferences": {}
}