{
  "_format": "hh-sol-artifact-1",
  "contractName": "StakeERC20Liquidity",
  "sourceName": "contracts/stakeERC20.sol",
  "abi": [
    {
      "inputs": [],
      "name": "acceptSetter",
      "outputs": [],
      "stateMutability": "nonpayable",
      "type": "function"
    },
    {
      "inputs": [],
      "name": "owner",
      "outputs": [
        {
          "internalType": "address",
          "name": "",
          "type": "address"
        }
      ],
      "stateMutability": "view",
      "type": "function"
    },
    {
      "inputs": [
        {
          "internalType": "address",
          "name": "_owner",
          "type": "address"
        }
      ],
      "name": "transferOwner",
      "outputs": [],
      "stateMutability": "nonpayable",
      "type": "function"
    }
  ],
  "bytecode": "0x608060405234801561001057600080fd5b506101d2806100206000396000f3fe608060405234801561001057600080fd5b50600436106100415760003560e01c80634fb2e45d146100465780635f8e422f1461005b5780638da5cb5b14610063575b600080fd5b61005961005436600461016c565b610092565b005b6100596100ff565b600054610076906001600160a01b031681565b6040516001600160a01b03909116815260200160405180910390f35b6000546001600160a01b031633146100dd5760405162461bcd60e51b81526020600482015260096024820152683337b93134b23232b760b91b60448201526064015b60405180910390fd5b600180546001600160a01b0319166001600160a01b0392909216919091179055565b6001546001600160a01b031633146101455760405162461bcd60e51b81526020600482015260096024820152683337b93134b23232b760b91b60448201526064016100d4565b60018054600080546001600160a01b03199081166001600160a01b03841617909155169055565b60006020828403121561017e57600080fd5b81356001600160a01b038116811461019557600080fd5b939250505056fea264697066735822122018fc07946df6ddc3e50303a8fa7808d8a6e23000c76dde2aa0bb509825e7663e64736f6c63430008110033",
  "linkReferences": {},
  "deployedLinkReferences": {}
}