{
  "_format": "hh-sol-artifact-1",
  "contractName": "StakeERC20",
  "sourceName": "contracts/stakeERC20.sol",
  "abi": [
    {
      "inputs": [
        {
          "internalType": "uint8",
          "name": "maxWeeks",
          "type": "uint8"
        },
        {
          "internalType": "uint256",
          "name": "maxScale",
          "type": "uint256"
        },
        {
          "internalType": "uint8",
          "name": "lockWeeks",
          "type": "uint8"
        },
        {
          "internalType": "uint256",
          "name": "beginTime",
          "type": "uint256"
        },
        {
          "internalType": "uint256",
          "name": "endTime",
          "type": "uint256"
        },
        {
          "internalType": "address",
          "name": "_rewardToken",
          "type": "address"
        },
        {
          "internalType": "address",
          "name": "_lpToken",
          "type": "address"
        }
      ],
      "stateMutability": "nonpayable",
      "type": "constructor"
    },
    {
      "anonymous": false,
      "inputs": [
        {
          "indexed": true,
          "internalType": "address",
          "name": "user",
          "type": "address"
        },
        {
          "indexed": false,
          "internalType": "uint256",
          "name": "amount",
          "type": "uint256"
        }
      ],
      "name": "ClaimReward",
      "type": "event"
    },
    {
      "anonymous": false,
      "inputs": [
        {
          "indexed": true,
          "internalType": "address",
          "name": "user",
          "type": "address"
        },
        {
          "indexed": false,
          "internalType": "uint256",
          "name": "no",
          "type": "uint256"
        },
        {
          "indexed": false,
          "internalType": "uint256",
          "name": "amount",
          "type": "uint256"
        }
      ],
      "name": "SetReward",
      "type": "event"
    },
    {
      "anonymous": false,
      "inputs": [
        {
          "indexed": true,
          "internalType": "address",
          "name": "user",
          "type": "address"
        },
        {
          "indexed": false,
          "internalType": "uint256",
          "name": "id",
          "type": "uint256"
        },
        {
          "indexed": false,
          "internalType": "uint256",
          "name": "amount",
          "type": "uint256"
        },
        {
          "indexed": false,
          "internalType": "uint8",
          "name": "k",
          "type": "uint8"
        }
      ],
      "name": "Stake",
      "type": "event"
    },
    {
      "anonymous": false,
      "inputs": [
        {
          "indexed": true,
          "internalType": "address",
          "name": "user",
          "type": "address"
        },
        {
          "indexed": false,
          "internalType": "uint256",
          "name": "amount",
          "type": "uint256"
        }
      ],
      "name": "Withdraw",
      "type": "event"
    },
    {
      "inputs": [],
      "name": "BEGIN_TIME",
      "outputs": [
        {
          "internalType": "uint256",
          "name": "",
          "type": "uint256"
        }
      ],
      "stateMutability": "view",
      "type": "function"
    },
    {
      "inputs": [],
      "name": "END_TIME",
      "outputs": [
        {
          "internalType": "uint256",
          "name": "",
          "type": "uint256"
        }
      ],
      "stateMutability": "view",
      "type": "function"
    },
    {
      "inputs": [],
      "name": "LOCK_WEEKNUM",
      "outputs": [
        {
          "internalType": "uint8",
          "name": "",
          "type": "uint8"
        }
      ],
      "stateMutability": "view",
      "type": "function"
    },
    {
      "inputs": [],
      "name": "MAX_SCALE",
      "outputs": [
        {
          "internalType": "uint256",
          "name": "",
          "type": "uint256"
        }
      ],
      "stateMutability": "view",
      "type": "function"
    },
    {
      "inputs": [],
      "name": "MAX_WEEKS",
      "outputs": [
        {
          "internalType": "uint8",
          "name": "",
          "type": "uint8"
        }
      ],
      "stateMutability": "view",
      "type": "function"
    },
    {
      "inputs": [],
      "name": "WEEK_SECONDS",
      "outputs": [
        {
          "internalType": "uint24",
          "name": "",
          "type": "uint24"
        }
      ],
      "stateMutability": "view",
      "type": "function"
    },
    {
      "inputs": [],
      "name": "acceptSetter",
      "outputs": [],
      "stateMutability": "nonpayable",
      "type": "function"
    },
    {
      "inputs": [],
      "name": "canClaimAmount",
      "outputs": [
        {
          "internalType": "uint256",
          "name": "",
          "type": "uint256"
        }
      ],
      "stateMutability": "view",
      "type": "function"
    },
    {
      "inputs": [],
      "name": "claimReward",
      "outputs": [],
      "stateMutability": "nonpayable",
      "type": "function"
    },
    {
      "inputs": [
        {
          "internalType": "uint256",
          "name": "amount",
          "type": "uint256"
        },
        {
          "internalType": "uint8",
          "name": "k",
          "type": "uint8"
        }
      ],
      "name": "getScore",
      "outputs": [
        {
          "internalType": "uint256",
          "name": "score",
          "type": "uint256"
        }
      ],
      "stateMutability": "view",
      "type": "function"
    },
    {
      "inputs": [],
      "name": "getStaking",
      "outputs": [
        {
          "components": [
            {
              "internalType": "uint256",
              "name": "amount",
              "type": "uint256"
            },
            {
              "internalType": "uint256",
              "name": "score",
              "type": "uint256"
            },
            {
              "internalType": "uint256",
              "name": "beginNo",
              "type": "uint256"
            },
            {
              "internalType": "uint256",
              "name": "endNo",
              "type": "uint256"
            }
          ],
          "internalType": "struct StakeERC20.StakingERC20[]",
          "name": "",
          "type": "tuple[]"
        }
      ],
      "stateMutability": "view",
      "type": "function"
    },
    {
      "inputs": [],
      "name": "latestNo",
      "outputs": [
        {
          "internalType": "uint256",
          "name": "",
          "type": "uint256"
        }
      ],
      "stateMutability": "view",
      "type": "function"
    },
    {
      "inputs": [],
      "name": "lpToken",
      "outputs": [
        {
          "internalType": "address",
          "name": "",
          "type": "address"
        }
      ],
      "stateMutability": "view",
      "type": "function"
    },
    {
      "inputs": [],
      "name": "nonce",
      "outputs": [
        {
          "internalType": "uint256",
          "name": "",
          "type": "uint256"
        }
      ],
      "stateMutability": "view",
      "type": "function"
    },
    {
      "inputs": [],
      "name": "owner",
      "outputs": [
        {
          "internalType": "address",
          "name": "",
          "type": "address"
        }
      ],
      "stateMutability": "view",
      "type": "function"
    },
    {
      "inputs": [],
      "name": "rewardToken",
      "outputs": [
        {
          "internalType": "address",
          "name": "",
          "type": "address"
        }
      ],
      "stateMutability": "view",
      "type": "function"
    },
    {
      "inputs": [
        {
          "internalType": "uint256",
          "name": "",
          "type": "uint256"
        }
      ],
      "name": "rewardsOf",
      "outputs": [
        {
          "internalType": "uint256",
          "name": "",
          "type": "uint256"
        }
      ],
      "stateMutability": "view",
      "type": "function"
    },
    {
      "inputs": [
        {
          "internalType": "uint256",
          "name": "no",
          "type": "uint256"
        },
        {
          "internalType": "uint256",
          "name": "amount",
          "type": "uint256"
        }
      ],
      "name": "setReward",
      "outputs": [],
      "stateMutability": "nonpayable",
      "type": "function"
    },
    {
      "inputs": [
        {
          "internalType": "uint256[]",
          "name": "nos",
          "type": "uint256[]"
        },
        {
          "internalType": "uint256[]",
          "name": "amounts",
          "type": "uint256[]"
        }
      ],
      "name": "setRewards",
      "outputs": [
        {
          "internalType": "uint256",
          "name": "total",
          "type": "uint256"
        }
      ],
      "stateMutability": "nonpayable",
      "type": "function"
    },
    {
      "inputs": [
        {
          "internalType": "uint256",
          "name": "amount",
          "type": "uint256"
        },
        {
          "internalType": "uint8",
          "name": "k",
          "type": "uint8"
        }
      ],
      "name": "stake",
      "outputs": [],
      "stateMutability": "nonpayable",
      "type": "function"
    },
    {
      "inputs": [
        {
          "internalType": "uint256",
          "name": "",
          "type": "uint256"
        }
      ],
      "name": "stakingERC20s",
      "outputs": [
        {
          "internalType": "uint256",
          "name": "amount",
          "type": "uint256"
        },
        {
          "internalType": "uint256",
          "name": "score",
          "type": "uint256"
        },
        {
          "internalType": "uint256",
          "name": "beginNo",
          "type": "uint256"
        },
        {
          "internalType": "uint256",
          "name": "endNo",
          "type": "uint256"
        }
      ],
      "stateMutability": "view",
      "type": "function"
    },
    {
      "inputs": [
        {
          "internalType": "uint256",
          "name": "",
          "type": "uint256"
        }
      ],
      "name": "totalScores",
      "outputs": [
        {
          "internalType": "uint256",
          "name": "",
          "type": "uint256"
        }
      ],
      "stateMutability": "view",
      "type": "function"
    },
    {
      "inputs": [
        {
          "internalType": "address",
          "name": "_owner",
          "type": "address"
        }
      ],
      "name": "transferOwner",
      "outputs": [],
      "stateMutability": "nonpayable",
      "type": "function"
    },
    {
      "inputs": [
        {
          "internalType": "address",
          "name": "",
          "type": "address"
        },
        {
          "internalType": "uint256",
          "name": "",
          "type": "uint256"
        }
      ],
      "name": "userCanClaimWeeks",
      "outputs": [
        {
          "internalType": "uint256",
          "name": "",
          "type": "uint256"
        }
      ],
      "stateMutability": "view",
      "type": "function"
    },
    {
      "inputs": [
        {
          "internalType": "address",
          "name": "",
          "type": "address"
        },
        {
          "internalType": "uint256",
          "name": "",
          "type": "uint256"
        }
      ],
      "name": "userERC20s",
      "outputs": [
        {
          "internalType": "uint256",
          "name": "",
          "type": "uint256"
        }
      ],
      "stateMutability": "view",
      "type": "function"
    },
    {
      "inputs": [
        {
          "internalType": "address",
          "name": "",
          "type": "address"
        },
        {
          "internalType": "uint256",
          "name": "",
          "type": "uint256"
        }
      ],
      "name": "userScores",
      "outputs": [
        {
          "internalType": "uint256",
          "name": "",
          "type": "uint256"
        }
      ],
      "stateMutability": "view",
      "type": "function"
    },
    {
      "inputs": [],
      "name": "withdraw",
      "outputs": [
        {
          "internalType": "uint256",
          "name": "total",
          "type": "uint256"
        }
      ],
      "stateMutability": "nonpayable",
      "type": "function"
    },
    {
      "inputs": [
        {
          "internalType": "uint256",
          "name": "amount",
          "type": "uint256"
        }
      ],
      "name": "withdrawRewards",
      "outputs": [],
      "stateMutability": "nonpayable",
      "type": "function"
    }
  ],
  "bytecode": "0x6101606040523480156200001257600080fd5b506040516200199a3803806200199a8339810160408190526200003591620000ac565b6001600160a01b0391821660805260ff96871660a05260c0959095529490921660e0526101005261012052600080546001600160a01b03191633179055166101405262000126565b805160ff811681146200008f57600080fd5b919050565b80516001600160a01b03811681146200008f57600080fd5b600080600080600080600060e0888a031215620000c857600080fd5b620000d3886200007d565b965060208801519550620000ea604089016200007d565b945060608801519350608088015192506200010860a0890162000094565b91506200011860c0890162000094565b905092959891949750929550565b60805160a05160c05160e0516101005161012051610140516117be620001dc600039600081816102ed015261060b015260008181610278015261055d015260008181610421015261058801526000818161020101528181610b630152610f2e01526000818161049f0152611136015260008181610465015281816104f8015281816110d201526110fd0152600081816104c601528181610c5d01528181610df601528181610e8e015261101b01526117be6000f3fe608060405234801561001057600080fd5b50600436106101c45760003560e01c80639342c8f4116100f9578063bb57852d11610097578063e11400bb11610071578063e11400bb14610460578063ee3453ed14610487578063f6def7cf1461049a578063f7c618c1146104c157600080fd5b8063bb57852d14610409578063c75363b61461041c578063cd671a581461044357600080fd5b8063a47bd496116100d3578063a47bd496146103d2578063affed0e0146103e5578063b88a802f146103ee578063ba086501146103f657600080fd5b80639342c8f414610357578063979db1c41461036a578063a218de151461037d57600080fd5b80634fb2e45d116101665780635fcbd285116101405780635fcbd285146102e85780637b1391a6146103275780638431165e1461033c5780638da5cb5b1461034457600080fd5b80634fb2e45d146102a25780635b680a45146102b55780635f8e422f146102e057600080fd5b8063157775df116101a2578063157775df1461024a57806329ed1cfd1461026a57806337ba682d146102735780633ccfd60b1461029a57600080fd5b80630bce1284146101c95780630d437d40146101fc57806310087fb114610235575b600080fd5b6101e96101d73660046113ba565b60056020526000908152604090205481565b6040519081526020015b60405180910390f35b6102237f000000000000000000000000000000000000000000000000000000000000000081565b60405160ff90911681526020016101f3565b6102486102433660046113d3565b6104e8565b005b6101e96102583660046113ba565b60046020526000908152604090205481565b6101e960065481565b6101e97f000000000000000000000000000000000000000000000000000000000000000081565b6101e9610836565b6102486102b0366004611425565b610980565b6101e96102c3366004611440565b600260209081526000928352604080842090915290825290205481565b6102486109cc565b61030f7f000000000000000000000000000000000000000000000000000000000000000081565b6040516001600160a01b0390911681526020016101f3565b61032f610a1d565b6040516101f3919061146a565b6101e9610b5c565b60005461030f906001600160a01b031681565b6102486103653660046113ba565b610c2e565b6101e961037836600461157f565b610c86565b6103b261038b3660046113ba565b60086020526000908152604090208054600182015460028301546003909301549192909184565b6040805194855260208501939093529183015260608201526080016101f3565b6102486103e03660046115e3565b610e5f565b6101e960075481565b610248610f28565b6101e9610404366004611440565b611073565b6101e9610417366004611440565b6110a4565b6101e97f000000000000000000000000000000000000000000000000000000000000000081565b61044c61025881565b60405162ffffff90911681526020016101f3565b6102237f000000000000000000000000000000000000000000000000000000000000000081565b6101e96104953660046113d3565b6110c9565b6101e97f000000000000000000000000000000000000000000000000000000000000000081565b61030f7f000000000000000000000000000000000000000000000000000000000000000081565b60008160ff1611801561052157507f000000000000000000000000000000000000000000000000000000000000000060ff168160ff1611155b61055b5760405162461bcd60e51b8152602060048201526006602482015265359018bf1a9960d11b60448201526064015b60405180910390fd5b7f000000000000000000000000000000000000000000000000000000000000000042111580156105ab57507f00000000000000000000000000000000000000000000000000000000000000004210155b6105eb5760405162461bcd60e51b81526020600482015260116024820152701b9bdd081a5b881d1a19481c195c9a5bd9607a1b6044820152606401610552565b60006105f96102584261161b565b61060490600161163d565b90506106327f0000000000000000000000000000000000000000000000000000000000000000333086611193565b600061063e84846110c9565b905060005b8360ff168160ff1610156106d857816004600061066360ff85168761163d565b81526020019081526020016000206000828254610680919061163d565b909155505033600090815260026020526040812083916106a360ff85168761163d565b815260200190815260200160002060008282546106c0919061163d565b909155508190506106d081611656565b915050610643565b5060405180608001604052808581526020018281526020018381526020018460ff1684610705919061163d565b905260075460009081526008602090815260408083208451815584830151600180830191909155858301516002830155606090950151600391820155338452909152902090810154905403610767573360009081526003602052604090208290555b61077460ff84168361163d565b3360009081526003602052604090206001015410156107ae5761079a60ff84168361163d565b336000908152600360205260409020600101555b33600081815260096020908152604080832060078054825460018101845592865294849020909101939093559154825190815290810187905260ff86168183015290517f6fa2f6021ee337436cdf2b2570285886da18bc06402ce284d296504a0fe8f8759181900360600190a26007805490600061082b8361168b565b919050555050505050565b6000806108456102584261161b565b3360009081526009602052604081205491925090610865906001906116a4565b90505b33600090815260096020526040812080548390811061088957610889611675565b906000526020600020015490508260086000838152602001908152602001600020600301541161096d576000818152600860205260409020546108cc908561163d565b3360009081526009602052604090208054919550906108ed906001906116a4565b815481106108fd576108fd611675565b60009182526020808320909101543383526009909152604090912080548490811061092a5761092a611675565b6000918252602080832090910192909255338152600990915260409020805480610956576109566116b7565b600190038181906000526020600020016000905590555b5080610978816116cd565b915050610868565b6000546001600160a01b031633146109aa5760405162461bcd60e51b8152600401610552906116e4565b600180546001600160a01b0319166001600160a01b0392909216919091179055565b6001546001600160a01b031633146109f65760405162461bcd60e51b8152600401610552906116e4565b60018054600080546001600160a01b03199081166001600160a01b03841617909155169055565b336000908152600960205260408120546060918167ffffffffffffffff811115610a4957610a496114ce565b604051908082528060200260200182016040528015610aa557816020015b610a926040518060800160405280600081526020016000815260200160008152602001600081525090565b815260200190600190039081610a675790505b50905060005b82811015610b55573360009081526009602052604081208054600892919084908110610ad957610ad9611675565b90600052602060002001548152602001908152602001600020604051806080016040529081600082015481526020016001820154815260200160028201548152602001600382015481525050828281518110610b3757610b37611675565b60200260200101819052508080610b4d9061168b565b915050610aab565b5092915050565b60008060ff7f000000000000000000000000000000000000000000000000000000000000000016610b8f6102584261161b565b610b9991906116a4565b33600090815260036020526040812054919250905b33600090815260036020526040902060010154811015610b5557828111610b5557600081815260046020908152604080832054338452600283528184208585528352818420546005909352922054610c069190611707565b610c10919061161b565b610c1a908361163d565b915080610c268161168b565b915050610bae565b6000546001600160a01b03163314610c585760405162461bcd60e51b8152600401610552906116e4565b610c837f000000000000000000000000000000000000000000000000000000000000000033836112ad565b50565b600080546001600160a01b03163314610cb15760405162461bcd60e51b8152600401610552906116e4565b8151835114610cf55760405162461bcd60e51b815260206004820152601060248201526f3830b930b6b2ba32b9399032b93937b960811b6044820152606401610552565b60005b8351811015610d8557828181518110610d1357610d13611675565b602002602001015182610d26919061163d565b9150828181518110610d3a57610d3a611675565b602002602001015160056000868481518110610d5857610d58611675565b60200260200101518152602001908152602001600020819055508080610d7d9061168b565b915050610cf8565b5060008351118015610dbe57506006548360018551610da491906116a4565b81518110610db457610db4611675565b6020026020010151115b15610df1578260018451610dd291906116a4565b81518110610de257610de2611675565b60200260200101516006819055505b610e1d7f0000000000000000000000000000000000000000000000000000000000000000333084611193565b60408051600081526020810183905233917fc3991418cacd70a010fce559a44fcbb47534ca43bf7543964bdca2639f6e6e5a910160405180910390a292915050565b6000546001600160a01b03163314610e895760405162461bcd60e51b8152600401610552906116e4565b610eb57f0000000000000000000000000000000000000000000000000000000000000000333084611193565b60008281526005602052604081208054839290610ed390849061163d565b9091555050600654821115610ee85760068290555b604080518381526020810183905233917fc3991418cacd70a010fce559a44fcbb47534ca43bf7543964bdca2639f6e6e5a91015b60405180910390a25050565b600060ff7f000000000000000000000000000000000000000000000000000000000000000016610f5a6102584261161b565b610f6491906116a4565b33600090815260036020526040812054919250905b336000908152600360205260409020600101548110156110155782811161101557610fa581600161163d565b3360009081526003602052604081200155600081815260046020908152604080832054338452600283528184208585528352818420546005909352922054610fed9190611707565b610ff7919061161b565b611001908361163d565b91508061100d8161168b565b915050610f79565b506110417f000000000000000000000000000000000000000000000000000000000000000033836112ad565b60405181815233907fba8de60c3403ec381d1d484652ea1980e3c3e56359195c92525bff4ce47ad98e90602001610f1c565b6009602052816000526040600020818154811061108f57600080fd5b90600052602060002001600091509150505481565b600360205281600052604060002081600281106110c057600080fd5b01549150829050565b60006110f660017f000000000000000000000000000000000000000000000000000000000000000061171e565b60ff1660017f000000000000000000000000000000000000000000000000000000000000000060ff1660018561112c919061171e565b60ff1661115a60017f00000000000000000000000000000000000000000000000000000000000000006116a4565b6111649190611707565b61116e919061163d565b61117891906116a4565b6111829085611707565b61118c919061161b565b9392505050565b604080516001600160a01b0385811660248301528481166044830152606480830185905283518084039091018152608490920183526020820180516001600160e01b03166323b872dd60e01b17905291516000928392908816916111f79190611737565b6000604051808303816000865af19150503d8060008114611234576040519150601f19603f3d011682016040523d82523d6000602084013e611239565b606091505b50915091508180156112635750805115806112635750808060200190518101906112639190611766565b6112a55760405162461bcd60e51b81526020600482015260136024820152721d1c985b9cd9995c919c9bdb4819985a5b1959606a1b6044820152606401610552565b505050505050565b604080516001600160a01b038481166024830152604480830185905283518084039091018152606490920183526020820180516001600160e01b031663a9059cbb60e01b17905291516000928392908716916113099190611737565b6000604051808303816000865af19150503d8060008114611346576040519150601f19603f3d011682016040523d82523d6000602084013e61134b565b606091505b50915091508180156113755750805115806113755750808060200190518101906113759190611766565b6113b35760405162461bcd60e51b815260206004820152600f60248201526e1514905394d1915497d19052531151608a1b6044820152606401610552565b5050505050565b6000602082840312156113cc57600080fd5b5035919050565b600080604083850312156113e657600080fd5b82359150602083013560ff811681146113fe57600080fd5b809150509250929050565b80356001600160a01b038116811461142057600080fd5b919050565b60006020828403121561143757600080fd5b61118c82611409565b6000806040838503121561145357600080fd5b61145c83611409565b946020939093013593505050565b602080825282518282018190526000919060409081850190868401855b828110156114c157815180518552868101518786015285810151868601526060908101519085015260809093019290850190600101611487565b5091979650505050505050565b634e487b7160e01b600052604160045260246000fd5b600082601f8301126114f557600080fd5b8135602067ffffffffffffffff80831115611512576115126114ce565b8260051b604051601f19603f83011681018181108482111715611537576115376114ce565b60405293845285810183019383810192508785111561155557600080fd5b83870191505b848210156115745781358352918301919083019061155b565b979650505050505050565b6000806040838503121561159257600080fd5b823567ffffffffffffffff808211156115aa57600080fd5b6115b6868387016114e4565b935060208501359150808211156115cc57600080fd5b506115d9858286016114e4565b9150509250929050565b600080604083850312156115f657600080fd5b50508035926020909101359150565b634e487b7160e01b600052601160045260246000fd5b60008261163857634e487b7160e01b600052601260045260246000fd5b500490565b8082018082111561165057611650611605565b92915050565b600060ff821660ff810361166c5761166c611605565b60010192915050565b634e487b7160e01b600052603260045260246000fd5b60006001820161169d5761169d611605565b5060010190565b8181038181111561165057611650611605565b634e487b7160e01b600052603160045260246000fd5b6000816116dc576116dc611605565b506000190190565b6020808252600990820152683337b93134b23232b760b91b604082015260600190565b808202811582820484141761165057611650611605565b60ff828116828216039081111561165057611650611605565b6000825160005b81811015611758576020818601810151858301520161173e565b506000920191825250919050565b60006020828403121561177857600080fd5b8151801515811461118c57600080fdfea26469706673582212206358a91e6ac3d237115f53608821cdf33e153b1ca8d12443067736f67109948b64736f6c63430008110033",
  "linkReferences": {},
  "deployedLinkReferences": {}
}