{
  "_format": "hh-sol-artifact-1",
  "contractName": "StakeERC20",
  "sourceName": "contracts/stakeERC20.sol",
  "abi": [
    {
      "inputs": [
        {
          "internalType": "uint8",
          "name": "maxWeeks",
          "type": "uint8"
        },
        {
          "internalType": "uint256",
          "name": "maxScale",
          "type": "uint256"
        },
        {
          "internalType": "address",
          "name": "_rewardToken",
          "type": "address"
        },
        {
          "internalType": "address",
          "name": "_lpToken",
          "type": "address"
        }
      ],
      "stateMutability": "nonpayable",
      "type": "constructor"
    },
    {
      "anonymous": false,
      "inputs": [
        {
          "indexed": true,
          "internalType": "address",
          "name": "user",
          "type": "address"
        },
        {
          "indexed": false,
          "internalType": "uint256",
          "name": "amount",
          "type": "uint256"
        }
      ],
      "name": "ClaimReward",
      "type": "event"
    },
    {
      "anonymous": false,
      "inputs": [
        {
          "indexed": true,
          "internalType": "address",
          "name": "user",
          "type": "address"
        },
        {
          "indexed": false,
          "internalType": "uint256",
          "name": "no",
          "type": "uint256"
        },
        {
          "indexed": false,
          "internalType": "uint256",
          "name": "amount",
          "type": "uint256"
        }
      ],
      "name": "SetReward",
      "type": "event"
    },
    {
      "anonymous": false,
      "inputs": [
        {
          "indexed": true,
          "internalType": "address",
          "name": "user",
          "type": "address"
        },
        {
          "indexed": false,
          "internalType": "uint256",
          "name": "id",
          "type": "uint256"
        },
        {
          "indexed": false,
          "internalType": "uint256",
          "name": "amount",
          "type": "uint256"
        },
        {
          "indexed": false,
          "internalType": "uint8",
          "name": "k",
          "type": "uint8"
        }
      ],
      "name": "Stake",
      "type": "event"
    },
    {
      "anonymous": false,
      "inputs": [
        {
          "indexed": true,
          "internalType": "address",
          "name": "user",
          "type": "address"
        },
        {
          "indexed": false,
          "internalType": "uint256",
          "name": "amount",
          "type": "uint256"
        }
      ],
      "name": "Withdraw",
      "type": "event"
    },
    {
      "inputs": [],
      "name": "MAX_SCALE",
      "outputs": [
        {
          "internalType": "uint256",
          "name": "",
          "type": "uint256"
        }
      ],
      "stateMutability": "view",
      "type": "function"
    },
    {
      "inputs": [],
      "name": "MAX_WEEKS",
      "outputs": [
        {
          "internalType": "uint8",
          "name": "",
          "type": "uint8"
        }
      ],
      "stateMutability": "view",
      "type": "function"
    },
    {
      "inputs": [],
      "name": "WEEK_SECONDS",
      "outputs": [
        {
          "internalType": "uint24",
          "name": "",
          "type": "uint24"
        }
      ],
      "stateMutability": "view",
      "type": "function"
    },
    {
      "inputs": [],
      "name": "acceptSetter",
      "outputs": [],
      "stateMutability": "nonpayable",
      "type": "function"
    },
    {
      "inputs": [
        {
          "internalType": "uint256",
          "name": "",
          "type": "uint256"
        },
        {
          "internalType": "uint256",
          "name": "",
          "type": "uint256"
        }
      ],
      "name": "bClaimReward",
      "outputs": [
        {
          "internalType": "bool",
          "name": "",
          "type": "bool"
        }
      ],
      "stateMutability": "view",
      "type": "function"
    },
    {
      "inputs": [],
      "name": "claimReward",
      "outputs": [],
      "stateMutability": "nonpayable",
      "type": "function"
    },
    {
      "inputs": [
        {
          "internalType": "uint256",
          "name": "amount",
          "type": "uint256"
        },
        {
          "internalType": "uint8",
          "name": "k",
          "type": "uint8"
        }
      ],
      "name": "getScore",
      "outputs": [
        {
          "internalType": "uint256",
          "name": "score",
          "type": "uint256"
        }
      ],
      "stateMutability": "view",
      "type": "function"
    },
    {
      "inputs": [],
      "name": "getStaking",
      "outputs": [
        {
          "internalType": "uint256",
          "name": "total",
          "type": "uint256"
        },
        {
          "internalType": "uint256",
          "name": "staking",
          "type": "uint256"
        }
      ],
      "stateMutability": "view",
      "type": "function"
    },
    {
      "inputs": [],
      "name": "latestNo",
      "outputs": [
        {
          "internalType": "uint256",
          "name": "",
          "type": "uint256"
        }
      ],
      "stateMutability": "view",
      "type": "function"
    },
    {
      "inputs": [],
      "name": "lpToken",
      "outputs": [
        {
          "internalType": "address",
          "name": "",
          "type": "address"
        }
      ],
      "stateMutability": "view",
      "type": "function"
    },
    {
      "inputs": [],
      "name": "nonce",
      "outputs": [
        {
          "internalType": "uint256",
          "name": "",
          "type": "uint256"
        }
      ],
      "stateMutability": "view",
      "type": "function"
    },
    {
      "inputs": [],
      "name": "owner",
      "outputs": [
        {
          "internalType": "address",
          "name": "",
          "type": "address"
        }
      ],
      "stateMutability": "view",
      "type": "function"
    },
    {
      "inputs": [],
      "name": "rewardToken",
      "outputs": [
        {
          "internalType": "address",
          "name": "",
          "type": "address"
        }
      ],
      "stateMutability": "view",
      "type": "function"
    },
    {
      "inputs": [
        {
          "internalType": "uint256",
          "name": "",
          "type": "uint256"
        }
      ],
      "name": "rewardsOf",
      "outputs": [
        {
          "internalType": "uint256",
          "name": "",
          "type": "uint256"
        }
      ],
      "stateMutability": "view",
      "type": "function"
    },
    {
      "inputs": [
        {
          "internalType": "uint256",
          "name": "no",
          "type": "uint256"
        },
        {
          "internalType": "uint256",
          "name": "amount",
          "type": "uint256"
        }
      ],
      "name": "setReward",
      "outputs": [],
      "stateMutability": "nonpayable",
      "type": "function"
    },
    {
      "inputs": [
        {
          "internalType": "uint256[]",
          "name": "nos",
          "type": "uint256[]"
        },
        {
          "internalType": "uint256[]",
          "name": "amounts",
          "type": "uint256[]"
        }
      ],
      "name": "setRewards",
      "outputs": [
        {
          "internalType": "uint256",
          "name": "total",
          "type": "uint256"
        }
      ],
      "stateMutability": "nonpayable",
      "type": "function"
    },
    {
      "inputs": [
        {
          "internalType": "uint256",
          "name": "amount",
          "type": "uint256"
        },
        {
          "internalType": "uint8",
          "name": "k",
          "type": "uint8"
        }
      ],
      "name": "stake",
      "outputs": [],
      "stateMutability": "nonpayable",
      "type": "function"
    },
    {
      "inputs": [
        {
          "internalType": "uint256",
          "name": "",
          "type": "uint256"
        }
      ],
      "name": "stakingERC20s",
      "outputs": [
        {
          "internalType": "uint256",
          "name": "amount",
          "type": "uint256"
        },
        {
          "internalType": "uint256",
          "name": "score",
          "type": "uint256"
        },
        {
          "internalType": "uint256",
          "name": "beginNo",
          "type": "uint256"
        },
        {
          "internalType": "uint256",
          "name": "endNo",
          "type": "uint256"
        },
        {
          "internalType": "uint256",
          "name": "toClaimNo",
          "type": "uint256"
        }
      ],
      "stateMutability": "view",
      "type": "function"
    },
    {
      "inputs": [
        {
          "internalType": "uint256",
          "name": "",
          "type": "uint256"
        }
      ],
      "name": "totalScores",
      "outputs": [
        {
          "internalType": "uint256",
          "name": "",
          "type": "uint256"
        }
      ],
      "stateMutability": "view",
      "type": "function"
    },
    {
      "inputs": [
        {
          "internalType": "address",
          "name": "_owner",
          "type": "address"
        }
      ],
      "name": "transferOwner",
      "outputs": [],
      "stateMutability": "nonpayable",
      "type": "function"
    },
    {
      "inputs": [
        {
          "internalType": "address",
          "name": "",
          "type": "address"
        },
        {
          "internalType": "uint256",
          "name": "",
          "type": "uint256"
        }
      ],
      "name": "userERC20s",
      "outputs": [
        {
          "internalType": "uint256",
          "name": "",
          "type": "uint256"
        }
      ],
      "stateMutability": "view",
      "type": "function"
    },
    {
      "inputs": [
        {
          "internalType": "uint256",
          "name": "amount",
          "type": "uint256"
        }
      ],
      "name": "withdraw",
      "outputs": [
        {
          "internalType": "uint256",
          "name": "total",
          "type": "uint256"
        }
      ],
      "stateMutability": "nonpayable",
      "type": "function"
    }
  ],
  "bytecode": "0x61010060405234801561001157600080fd5b506040516200158e3803806200158e83398101604081905261003291610085565b6001600160a01b0391821660805260ff90931660a05260c091909152600080546001600160a01b031916331790551660e0526100db565b80516001600160a01b038116811461008057600080fd5b919050565b6000806000806080858703121561009b57600080fd5b845160ff811681146100ac57600080fd5b602086015190945092506100c260408601610069565b91506100d060608601610069565b905092959194509250565b60805160a05160c05160e05161143a62000154600039600081816101eb0152818161047101526107970152600081816103b00152610e160152600081816103640152818161040901528181610db20152610ddd0152600081816103d701528181610a7001528181610b080152610d20015261143a6000f3fe608060405234801561001057600080fd5b50600436106101425760003560e01c8063a218de15116100b8578063cd671a581161007c578063cd671a5814610304578063ce6d3e3e14610321578063e11400bb1461035f578063ee3453ed14610398578063f6def7cf146103ab578063f7c618c1146103d257600080fd5b8063a218de1514610268578063a47bd496146102cd578063affed0e0146102e0578063b88a802f146102e9578063ba086501146102f157600080fd5b80634fb2e45d1161010a5780634fb2e45d146101cb5780635f8e422f146101de5780635fcbd285146101e65780637b1391a6146102255780638da5cb5b14610242578063979db1c41461025557600080fd5b80630bce12841461014757806310087fb11461017a578063157775df1461018f57806329ed1cfd146101af5780632e1a7d4d146101b8575b600080fd5b61016761015536600461109a565b60046020526000908152604090205481565b6040519081526020015b60405180910390f35b61018d6101883660046110b3565b6103f9565b005b61016761019d36600461109a565b60036020526000908152604090205481565b61016760055481565b6101676101c636600461109a565b610614565b61018d6101d9366004611105565b6107f8565b61018d610844565b61020d7f000000000000000000000000000000000000000000000000000000000000000081565b6040516001600160a01b039091168152602001610171565b61022d610895565b60408051928352602083019190915201610171565b60005461020d906001600160a01b031681565b6101676102633660046111d1565b610944565b6102a561027636600461109a565b600760205260009081526040902080546001820154600283015460038401546004909401549293919290919085565b604080519586526020860194909452928401919091526060830152608082015260a001610171565b61018d6102db366004611235565b610ad9565b61016760065481565b61018d610ba2565b6101676102ff366004611257565b610d78565b61030d61025881565b60405162ffffff9091168152602001610171565b61034f61032f366004611235565b600260209081526000928352604080842090915290825290205460ff1681565b6040519015158152602001610171565b6103867f000000000000000000000000000000000000000000000000000000000000000081565b60405160ff9091168152602001610171565b6101676103a63660046110b3565b610da9565b6101677f000000000000000000000000000000000000000000000000000000000000000081565b61020d7f000000000000000000000000000000000000000000000000000000000000000081565b60008160ff1611801561043257507f000000000000000000000000000000000000000000000000000000000000000060ff168160ff1611155b61046c5760405162461bcd60e51b8152602060048201526006602482015265359018bf1a9960d11b60448201526064015b60405180910390fd5b6104987f0000000000000000000000000000000000000000000000000000000000000000333085610e73565b60006104a661025842611297565b6104b19060016112b9565b905060006104bf8484610da9565b905060005b8360ff168160ff1610156105195781600360006104e460ff8516876112b9565b8152602001908152602001600020600082825461050191906112b9565b90915550819050610511816112d2565b9150506104c4565b506040518060a001604052808581526020018281526020018381526020018460ff168461054691906112b9565b8152602090810184905260068054600090815260078352604080822085518155858501516001808301919091558683015160028301556060808801516003840155608090970151600490920191909155338084526008865282842085548154938401825590855293869020909101929092559154825190815292830188905260ff871683830152905190927f6fa2f6021ee337436cdf2b2570285886da18bc06402ce284d296504a0fe8f875928290030190a260068054906000610609836112f1565b919050555050505050565b60008061062361025842611297565b33600090815260086020526040812054919250906106439060019061130a565b90505b3360009081526008602052604081208054839081106106675761066761131d565b906000526020600020015490508260076000838152602001908152602001600020600301541161077e576000818152600760205260409020546106aa90856112b9565b93508484116107545733600090815260086020526040902080546106d09060019061130a565b815481106106e0576106e061131d565b60009182526020808320909101543383526008909152604090912080548490811061070d5761070d61131d565b600091825260208083209091019290925533815260089091526040902080548061073957610739611333565b60019003818190600052602060002001600090559055610771565b61075e858561130a565b6000828152600760205260409020558493505b84840361077e5750610791565b508061078981611349565b915050610646565b506107bd7f00000000000000000000000000000000000000000000000000000000000000003384610f8d565b60405182815233907f884edad9ce6fa2440d8a54cc123490eb96d2768479d49ff9c7366125a94243649060200160405180910390a250919050565b6000546001600160a01b031633146108225760405162461bcd60e51b815260040161046390611360565b600180546001600160a01b0319166001600160a01b0392909216919091179055565b6001546001600160a01b0316331461086e5760405162461bcd60e51b815260040161046390611360565b60018054600080546001600160a01b03199081166001600160a01b03841617909155169055565b600080806108a561025842611297565b905060005b3360009081526008602052604090205481101561093e573360009081526008602052604081208054839081106108e2576108e261131d565b60009182526020808320909101548083526007909152604090912080546003909101549192509084101561091d5761091a81866112b9565b94505b61092781876112b9565b955050508080610936906112f1565b9150506108aa565b50509091565b600080546001600160a01b0316331461096f5760405162461bcd60e51b815260040161046390611360565b60005b83518110156109ff5782818151811061098d5761098d61131d565b6020026020010151826109a091906112b9565b91508281815181106109b4576109b461131d565b6020026020010151600460008684815181106109d2576109d261131d565b602002602001015181526020019081526020016000208190555080806109f7906112f1565b915050610972565b5060008351118015610a3857506005548360018551610a1e919061130a565b81518110610a2e57610a2e61131d565b6020026020010151115b15610a6b578260018451610a4c919061130a565b81518110610a5c57610a5c61131d565b60200260200101516005819055505b610a977f0000000000000000000000000000000000000000000000000000000000000000333084610e73565b60408051600081526020810183905233917fc3991418cacd70a010fce559a44fcbb47534ca43bf7543964bdca2639f6e6e5a910160405180910390a292915050565b6000546001600160a01b03163314610b035760405162461bcd60e51b815260040161046390611360565b610b2f7f0000000000000000000000000000000000000000000000000000000000000000333084610e73565b60008281526004602052604081208054839290610b4d9084906112b9565b9091555050600554821115610b625760058290555b604080518381526020810183905233917fc3991418cacd70a010fce559a44fcbb47534ca43bf7543964bdca2639f6e6e5a91015b60405180910390a25050565b6000610bb061025842611297565b90506000805b33600090815260086020526040902054811015610d1a57336000908152600860205260408120805483908110610bee57610bee61131d565b600091825260208083209091015480835260079091526040909120600401549091505b600082815260076020526040902060030154811015610d0557600082815260026020908152604080832084845290915290205460ff1680610c5157508481115b80610c685750600081815260046020526040902054155b610cf35760008281526002602090815260408083208484529091529020805460ff19166001908117909155610c9e9082906112b9565b6000838152600760209081526040808320600480820195909555858452600383528184205460019091015494909252909120549091610cdc91611383565b610ce69190611297565b610cf090856112b9565b93505b80610cfd816112f1565b915050610c11565b50508080610d12906112f1565b915050610bb6565b50610d467f00000000000000000000000000000000000000000000000000000000000000003383610f8d565b60405181815233907fba8de60c3403ec381d1d484652ea1980e3c3e56359195c92525bff4ce47ad98e90602001610b96565b60086020528160005260406000208181548110610d9457600080fd5b90600052602060002001600091509150505481565b6000610dd660017f000000000000000000000000000000000000000000000000000000000000000061139a565b60ff1660017f000000000000000000000000000000000000000000000000000000000000000060ff16600185610e0c919061139a565b60ff16610e3a60017f000000000000000000000000000000000000000000000000000000000000000061130a565b610e449190611383565b610e4e91906112b9565b610e58919061130a565b610e629085611383565b610e6c9190611297565b9392505050565b604080516001600160a01b0385811660248301528481166044830152606480830185905283518084039091018152608490920183526020820180516001600160e01b03166323b872dd60e01b1790529151600092839290881691610ed791906113b3565b6000604051808303816000865af19150503d8060008114610f14576040519150601f19603f3d011682016040523d82523d6000602084013e610f19565b606091505b5091509150818015610f43575080511580610f43575080806020019051810190610f4391906113e2565b610f855760405162461bcd60e51b81526020600482015260136024820152721d1c985b9cd9995c919c9bdb4819985a5b1959606a1b6044820152606401610463565b505050505050565b604080516001600160a01b038481166024830152604480830185905283518084039091018152606490920183526020820180516001600160e01b031663a9059cbb60e01b1790529151600092839290871691610fe991906113b3565b6000604051808303816000865af19150503d8060008114611026576040519150601f19603f3d011682016040523d82523d6000602084013e61102b565b606091505b509150915081801561105557508051158061105557508080602001905181019061105591906113e2565b6110935760405162461bcd60e51b815260206004820152600f60248201526e1514905394d1915497d19052531151608a1b6044820152606401610463565b5050505050565b6000602082840312156110ac57600080fd5b5035919050565b600080604083850312156110c657600080fd5b82359150602083013560ff811681146110de57600080fd5b809150509250929050565b80356001600160a01b038116811461110057600080fd5b919050565b60006020828403121561111757600080fd5b610e6c826110e9565b634e487b7160e01b600052604160045260246000fd5b600082601f83011261114757600080fd5b8135602067ffffffffffffffff8083111561116457611164611120565b8260051b604051601f19603f8301168101818110848211171561118957611189611120565b6040529384528581018301938381019250878511156111a757600080fd5b83870191505b848210156111c6578135835291830191908301906111ad565b979650505050505050565b600080604083850312156111e457600080fd5b823567ffffffffffffffff808211156111fc57600080fd5b61120886838701611136565b9350602085013591508082111561121e57600080fd5b5061122b85828601611136565b9150509250929050565b6000806040838503121561124857600080fd5b50508035926020909101359150565b6000806040838503121561126a57600080fd5b611273836110e9565b946020939093013593505050565b634e487b7160e01b600052601160045260246000fd5b6000826112b457634e487b7160e01b600052601260045260246000fd5b500490565b808201808211156112cc576112cc611281565b92915050565b600060ff821660ff81036112e8576112e8611281565b60010192915050565b60006001820161130357611303611281565b5060010190565b818103818111156112cc576112cc611281565b634e487b7160e01b600052603260045260246000fd5b634e487b7160e01b600052603160045260246000fd5b60008161135857611358611281565b506000190190565b6020808252600990820152683337b93134b23232b760b91b604082015260600190565b80820281158282048414176112cc576112cc611281565b60ff82811682821603908111156112cc576112cc611281565b6000825160005b818110156113d457602081860181015185830152016113ba565b506000920191825250919050565b6000602082840312156113f457600080fd5b81518015158114610e6c57600080fdfea2646970667358221220b26c72c5444be0874b9528831cc439a839b19850e0d76714f1d74515ff83085564736f6c63430008110033",
  "linkReferences": {},
  "deployedLinkReferences": {}
}