{
  "_format": "hh-sol-artifact-1",
  "contractName": "StakeERC20",
  "sourceName": "contracts/stakeERC20.sol",
  "abi": [
    {
      "inputs": [
        {
          "internalType": "uint8",
          "name": "maxWeeks",
          "type": "uint8"
        },
        {
          "internalType": "uint256",
          "name": "maxScale",
          "type": "uint256"
        },
        {
          "internalType": "uint8",
          "name": "lockWeeks",
          "type": "uint8"
        },
        {
          "internalType": "uint256",
          "name": "beginTime",
          "type": "uint256"
        },
        {
          "internalType": "uint256",
          "name": "endTime",
          "type": "uint256"
        },
        {
          "internalType": "address",
          "name": "_rewardToken",
          "type": "address"
        },
        {
          "internalType": "address",
          "name": "_lpToken",
          "type": "address"
        }
      ],
      "stateMutability": "nonpayable",
      "type": "constructor"
    },
    {
      "anonymous": false,
      "inputs": [
        {
          "indexed": true,
          "internalType": "address",
          "name": "user",
          "type": "address"
        },
        {
          "indexed": false,
          "internalType": "uint256",
          "name": "amount",
          "type": "uint256"
        }
      ],
      "name": "ClaimReward",
      "type": "event"
    },
    {
      "anonymous": false,
      "inputs": [
        {
          "indexed": true,
          "internalType": "address",
          "name": "user",
          "type": "address"
        },
        {
          "indexed": false,
          "internalType": "uint256",
          "name": "no",
          "type": "uint256"
        },
        {
          "indexed": false,
          "internalType": "uint256",
          "name": "amount",
          "type": "uint256"
        }
      ],
      "name": "SetReward",
      "type": "event"
    },
    {
      "anonymous": false,
      "inputs": [
        {
          "indexed": true,
          "internalType": "address",
          "name": "user",
          "type": "address"
        },
        {
          "indexed": false,
          "internalType": "uint256",
          "name": "id",
          "type": "uint256"
        },
        {
          "indexed": false,
          "internalType": "uint256",
          "name": "amount",
          "type": "uint256"
        },
        {
          "indexed": false,
          "internalType": "uint8",
          "name": "k",
          "type": "uint8"
        }
      ],
      "name": "Stake",
      "type": "event"
    },
    {
      "anonymous": false,
      "inputs": [
        {
          "indexed": true,
          "internalType": "address",
          "name": "user",
          "type": "address"
        },
        {
          "indexed": false,
          "internalType": "uint256",
          "name": "amount",
          "type": "uint256"
        }
      ],
      "name": "Withdraw",
      "type": "event"
    },
    {
      "inputs": [],
      "name": "BEGIN_TIME",
      "outputs": [
        {
          "internalType": "uint256",
          "name": "",
          "type": "uint256"
        }
      ],
      "stateMutability": "view",
      "type": "function"
    },
    {
      "inputs": [],
      "name": "END_TIME",
      "outputs": [
        {
          "internalType": "uint256",
          "name": "",
          "type": "uint256"
        }
      ],
      "stateMutability": "view",
      "type": "function"
    },
    {
      "inputs": [],
      "name": "LOCK_WEEKNUM",
      "outputs": [
        {
          "internalType": "uint8",
          "name": "",
          "type": "uint8"
        }
      ],
      "stateMutability": "view",
      "type": "function"
    },
    {
      "inputs": [],
      "name": "MAX_SCALE",
      "outputs": [
        {
          "internalType": "uint256",
          "name": "",
          "type": "uint256"
        }
      ],
      "stateMutability": "view",
      "type": "function"
    },
    {
      "inputs": [],
      "name": "MAX_WEEKS",
      "outputs": [
        {
          "internalType": "uint8",
          "name": "",
          "type": "uint8"
        }
      ],
      "stateMutability": "view",
      "type": "function"
    },
    {
      "inputs": [],
      "name": "WEEK_SECONDS",
      "outputs": [
        {
          "internalType": "uint24",
          "name": "",
          "type": "uint24"
        }
      ],
      "stateMutability": "view",
      "type": "function"
    },
    {
      "inputs": [],
      "name": "acceptSetter",
      "outputs": [],
      "stateMutability": "nonpayable",
      "type": "function"
    },
    {
      "inputs": [],
      "name": "canClaimAmount",
      "outputs": [
        {
          "internalType": "uint256",
          "name": "",
          "type": "uint256"
        }
      ],
      "stateMutability": "view",
      "type": "function"
    },
    {
      "inputs": [],
      "name": "claimReward",
      "outputs": [],
      "stateMutability": "nonpayable",
      "type": "function"
    },
    {
      "inputs": [
        {
          "internalType": "uint256",
          "name": "amount",
          "type": "uint256"
        },
        {
          "internalType": "uint8",
          "name": "k",
          "type": "uint8"
        }
      ],
      "name": "getScore",
      "outputs": [
        {
          "internalType": "uint256",
          "name": "score",
          "type": "uint256"
        }
      ],
      "stateMutability": "view",
      "type": "function"
    },
    {
      "inputs": [],
      "name": "getStaking",
      "outputs": [
        {
          "components": [
            {
              "internalType": "uint256",
              "name": "amount",
              "type": "uint256"
            },
            {
              "internalType": "uint256",
              "name": "score",
              "type": "uint256"
            },
            {
              "internalType": "uint256",
              "name": "beginNo",
              "type": "uint256"
            },
            {
              "internalType": "uint256",
              "name": "endNo",
              "type": "uint256"
            }
          ],
          "internalType": "struct StakeERC20.StakingERC20[]",
          "name": "",
          "type": "tuple[]"
        }
      ],
      "stateMutability": "view",
      "type": "function"
    },
    {
      "inputs": [],
      "name": "latestNo",
      "outputs": [
        {
          "internalType": "uint256",
          "name": "",
          "type": "uint256"
        }
      ],
      "stateMutability": "view",
      "type": "function"
    },
    {
      "inputs": [],
      "name": "lockedRewardAmount",
      "outputs": [
        {
          "internalType": "uint256",
          "name": "",
          "type": "uint256"
        },
        {
          "internalType": "uint256[]",
          "name": "",
          "type": "uint256[]"
        }
      ],
      "stateMutability": "view",
      "type": "function"
    },
    {
      "inputs": [],
      "name": "lpToken",
      "outputs": [
        {
          "internalType": "address",
          "name": "",
          "type": "address"
        }
      ],
      "stateMutability": "view",
      "type": "function"
    },
    {
      "inputs": [],
      "name": "nonce",
      "outputs": [
        {
          "internalType": "uint256",
          "name": "",
          "type": "uint256"
        }
      ],
      "stateMutability": "view",
      "type": "function"
    },
    {
      "inputs": [],
      "name": "owner",
      "outputs": [
        {
          "internalType": "address",
          "name": "",
          "type": "address"
        }
      ],
      "stateMutability": "view",
      "type": "function"
    },
    {
      "inputs": [],
      "name": "rewardToken",
      "outputs": [
        {
          "internalType": "address",
          "name": "",
          "type": "address"
        }
      ],
      "stateMutability": "view",
      "type": "function"
    },
    {
      "inputs": [
        {
          "internalType": "uint256",
          "name": "",
          "type": "uint256"
        }
      ],
      "name": "rewardsOf",
      "outputs": [
        {
          "internalType": "uint256",
          "name": "",
          "type": "uint256"
        }
      ],
      "stateMutability": "view",
      "type": "function"
    },
    {
      "inputs": [
        {
          "internalType": "uint256",
          "name": "no",
          "type": "uint256"
        },
        {
          "internalType": "uint256",
          "name": "amount",
          "type": "uint256"
        }
      ],
      "name": "setReward",
      "outputs": [],
      "stateMutability": "nonpayable",
      "type": "function"
    },
    {
      "inputs": [
        {
          "internalType": "uint256[]",
          "name": "nos",
          "type": "uint256[]"
        },
        {
          "internalType": "uint256[]",
          "name": "amounts",
          "type": "uint256[]"
        }
      ],
      "name": "setRewards",
      "outputs": [
        {
          "internalType": "uint256",
          "name": "total",
          "type": "uint256"
        }
      ],
      "stateMutability": "nonpayable",
      "type": "function"
    },
    {
      "inputs": [
        {
          "internalType": "uint256",
          "name": "amount",
          "type": "uint256"
        },
        {
          "internalType": "uint8",
          "name": "k",
          "type": "uint8"
        }
      ],
      "name": "stake",
      "outputs": [],
      "stateMutability": "nonpayable",
      "type": "function"
    },
    {
      "inputs": [
        {
          "internalType": "uint256",
          "name": "",
          "type": "uint256"
        }
      ],
      "name": "stakingERC20s",
      "outputs": [
        {
          "internalType": "uint256",
          "name": "amount",
          "type": "uint256"
        },
        {
          "internalType": "uint256",
          "name": "score",
          "type": "uint256"
        },
        {
          "internalType": "uint256",
          "name": "beginNo",
          "type": "uint256"
        },
        {
          "internalType": "uint256",
          "name": "endNo",
          "type": "uint256"
        }
      ],
      "stateMutability": "view",
      "type": "function"
    },
    {
      "inputs": [
        {
          "internalType": "uint256",
          "name": "",
          "type": "uint256"
        }
      ],
      "name": "totalScores",
      "outputs": [
        {
          "internalType": "uint256",
          "name": "",
          "type": "uint256"
        }
      ],
      "stateMutability": "view",
      "type": "function"
    },
    {
      "inputs": [
        {
          "internalType": "address",
          "name": "_owner",
          "type": "address"
        }
      ],
      "name": "transferOwner",
      "outputs": [],
      "stateMutability": "nonpayable",
      "type": "function"
    },
    {
      "inputs": [
        {
          "internalType": "address",
          "name": "",
          "type": "address"
        },
        {
          "internalType": "uint256",
          "name": "",
          "type": "uint256"
        }
      ],
      "name": "userCanClaimWeeks",
      "outputs": [
        {
          "internalType": "uint256",
          "name": "",
          "type": "uint256"
        }
      ],
      "stateMutability": "view",
      "type": "function"
    },
    {
      "inputs": [
        {
          "internalType": "address",
          "name": "",
          "type": "address"
        },
        {
          "internalType": "uint256",
          "name": "",
          "type": "uint256"
        }
      ],
      "name": "userERC20s",
      "outputs": [
        {
          "internalType": "uint256",
          "name": "",
          "type": "uint256"
        }
      ],
      "stateMutability": "view",
      "type": "function"
    },
    {
      "inputs": [
        {
          "internalType": "address",
          "name": "",
          "type": "address"
        },
        {
          "internalType": "uint256",
          "name": "",
          "type": "uint256"
        }
      ],
      "name": "userScores",
      "outputs": [
        {
          "internalType": "uint256",
          "name": "",
          "type": "uint256"
        }
      ],
      "stateMutability": "view",
      "type": "function"
    },
    {
      "inputs": [],
      "name": "withdraw",
      "outputs": [
        {
          "internalType": "uint256",
          "name": "total",
          "type": "uint256"
        }
      ],
      "stateMutability": "nonpayable",
      "type": "function"
    },
    {
      "inputs": [
        {
          "internalType": "uint256",
          "name": "amount",
          "type": "uint256"
        }
      ],
      "name": "withdrawRewards",
      "outputs": [],
      "stateMutability": "nonpayable",
      "type": "function"
    }
  ],
  "bytecode": "0x6101606040523480156200001257600080fd5b5060405162001bfc38038062001bfc8339810160408190526200003591620000ac565b6001600160a01b0391821660805260ff96871660a05260c0959095529490921660e0526101005261012052600080546001600160a01b03191633179055166101405262000126565b805160ff811681146200008f57600080fd5b919050565b80516001600160a01b03811681146200008f57600080fd5b600080600080600080600060e0888a031215620000c857600080fd5b620000d3886200007d565b965060208801519550620000ea604089016200007d565b945060608801519350608088015192506200010860a0890162000094565b91506200011860c0890162000094565b905092959891949750929550565b60805160a05160c05160e051610100516101205161014051611a19620001e3600039600081816102f8015261062c015260008181610283015261057e01526000818161044201526105a901526000818161020c01528181610b8401528181610c6d01526111260152600081816104c0015261134301526000818161048601528181610519015281816112df015261130a0152600081816104e701528181610e7d01528181610fee0152818161108601526112280152611a196000f3fe608060405234801561001057600080fd5b50600436106101cf5760003560e01c80638da5cb5b11610104578063ba086501116100a2578063e11400bb11610071578063e11400bb14610481578063ee3453ed146104a8578063f6def7cf146104bb578063f7c618c1146104e257600080fd5b8063ba08650114610417578063bb57852d1461042a578063c75363b61461043d578063cd671a581461046457600080fd5b8063a218de15116100de578063a218de151461039e578063a47bd496146103f3578063affed0e014610406578063b88a802f1461040f57600080fd5b80638da5cb5b146103655780639342c8f414610378578063979db1c41461038b57600080fd5b80634fb2e45d116101715780635fcbd2851161014b5780635fcbd285146102f35780637b1391a6146103325780638431165e146103475780638923de2b1461034f57600080fd5b80634fb2e45d146102ad5780635b680a45146102c05780635f8e422f146102eb57600080fd5b8063157775df116101ad578063157775df1461025557806329ed1cfd1461027557806337ba682d1461027e5780633ccfd60b146102a557600080fd5b80630bce1284146101d45780630d437d401461020757806310087fb114610240575b600080fd5b6101f46101e23660046115c7565b60056020526000908152604090205481565b6040519081526020015b60405180910390f35b61022e7f000000000000000000000000000000000000000000000000000000000000000081565b60405160ff90911681526020016101fe565b61025361024e3660046115e0565b610509565b005b6101f46102633660046115c7565b60046020526000908152604090205481565b6101f460065481565b6101f47f000000000000000000000000000000000000000000000000000000000000000081565b6101f4610857565b6102536102bb366004611632565b6109a1565b6101f46102ce36600461164d565b600260209081526000928352604080842090915290825290205481565b6102536109ed565b61031a7f000000000000000000000000000000000000000000000000000000000000000081565b6040516001600160a01b0390911681526020016101fe565b61033a610a3e565b6040516101fe9190611677565b6101f4610b7d565b610357610c64565b6040516101fe9291906116db565b60005461031a906001600160a01b031681565b6102536103863660046115c7565b610e4e565b6101f46103993660046117da565b610ea6565b6103d36103ac3660046115c7565b60086020526000908152604090208054600182015460028301546003909301549192909184565b6040805194855260208501939093529183015260608201526080016101fe565b61025361040136600461183e565b611057565b6101f460075481565b610253611120565b6101f461042536600461164d565b611280565b6101f461043836600461164d565b6112b1565b6101f47f000000000000000000000000000000000000000000000000000000000000000081565b61046d61025881565b60405162ffffff90911681526020016101fe565b61022e7f000000000000000000000000000000000000000000000000000000000000000081565b6101f46104b63660046115e0565b6112d6565b6101f47f000000000000000000000000000000000000000000000000000000000000000081565b61031a7f000000000000000000000000000000000000000000000000000000000000000081565b60008160ff1611801561054257507f000000000000000000000000000000000000000000000000000000000000000060ff168160ff1611155b61057c5760405162461bcd60e51b8152602060048201526006602482015265359018bf1a9960d11b60448201526064015b60405180910390fd5b7f000000000000000000000000000000000000000000000000000000000000000042111580156105cc57507f00000000000000000000000000000000000000000000000000000000000000004210155b61060c5760405162461bcd60e51b81526020600482015260116024820152701b9bdd081a5b881d1a19481c195c9a5bd9607a1b6044820152606401610573565b600061061a61025842611876565b610625906001611898565b90506106537f00000000000000000000000000000000000000000000000000000000000000003330866113a0565b600061065f84846112d6565b905060005b8360ff168160ff1610156106f957816004600061068460ff851687611898565b815260200190815260200160002060008282546106a19190611898565b909155505033600090815260026020526040812083916106c460ff851687611898565b815260200190815260200160002060008282546106e19190611898565b909155508190506106f1816118b1565b915050610664565b5060405180608001604052808581526020018281526020018381526020018460ff16846107269190611898565b905260075460009081526008602090815260408083208451815584830151600180830191909155858301516002830155606090950151600391820155338452909152902090810154905403610788573360009081526003602052604090208290555b61079560ff841683611898565b3360009081526003602052604090206001015410156107cf576107bb60ff841683611898565b336000908152600360205260409020600101555b33600081815260096020908152604080832060078054825460018101845592865294849020909101939093559154825190815290810187905260ff86168183015290517f6fa2f6021ee337436cdf2b2570285886da18bc06402ce284d296504a0fe8f8759181900360600190a26007805490600061084c836118e6565b919050555050505050565b60008061086661025842611876565b3360009081526009602052604081205491925090610886906001906118ff565b90505b3360009081526009602052604081208054839081106108aa576108aa6118d0565b906000526020600020015490508260086000838152602001908152602001600020600301541161098e576000818152600860205260409020546108ed9085611898565b33600090815260096020526040902080549195509061090e906001906118ff565b8154811061091e5761091e6118d0565b60009182526020808320909101543383526009909152604090912080548490811061094b5761094b6118d0565b600091825260208083209091019290925533815260099091526040902080548061097757610977611912565b600190038181906000526020600020016000905590555b508061099981611928565b915050610889565b6000546001600160a01b031633146109cb5760405162461bcd60e51b81526004016105739061193f565b600180546001600160a01b0319166001600160a01b0392909216919091179055565b6001546001600160a01b03163314610a175760405162461bcd60e51b81526004016105739061193f565b60018054600080546001600160a01b03199081166001600160a01b03841617909155169055565b336000908152600960205260408120546060918167ffffffffffffffff811115610a6a57610a6a611729565b604051908082528060200260200182016040528015610ac657816020015b610ab36040518060800160405280600081526020016000815260200160008152602001600081525090565b815260200190600190039081610a885790505b50905060005b82811015610b76573360009081526009602052604081208054600892919084908110610afa57610afa6118d0565b90600052602060002001548152602001908152602001600020604051806080016040529081600082015481526020016001820154815260200160028201548152602001600382015481525050828281518110610b5857610b586118d0565b60200260200101819052508080610b6e906118e6565b915050610acc565b5092915050565b60008060ff7f000000000000000000000000000000000000000000000000000000000000000016610bb061025842611876565b610bba91906118ff565b33600090815260036020526040812054919250905b33600090815260036020526040902060010154811015610b7657828111610b765760008181526004602052604090205415610c5257600081815260046020908152604080832054338452600283528184208585528352818420546005909352922054610c3b9190611962565b610c459190611876565b610c4f9083611898565b91505b80610c5c816118e6565b915050610bcf565b600060608160ff7f000000000000000000000000000000000000000000000000000000000000000016610c9961025842611876565b610ca391906118ff565b610cae906001611898565b33600090815260036020526040902090915081906001015411610ce35760408051600081526020810190915290939092509050565b33600090815260036020526040812060010154610d019083906118ff565b336000908152600360205260409020549091508111610d2f5733600090815260036020526040902054610d31565b805b3360009081526003602052604081206001015491925090610d539083906118ff565b67ffffffffffffffff811115610d6b57610d6b611729565b604051908082528060200260200182016040528015610d94578160200160208202803683370190505b509050815b33600090815260036020526040902060010154811015610e425760008181526004602052604090205415610e3057600081815260046020908152604080832054338452600283528184208585528352818420546005909352922054610dfe9190611962565b610e089190611876565b82610e1386846118ff565b81518110610e2357610e236118d0565b6020026020010181815250505b80610e3a816118e6565b915050610d99565b50919491935090915050565b6000546001600160a01b03163314610e785760405162461bcd60e51b81526004016105739061193f565b610ea37f000000000000000000000000000000000000000000000000000000000000000033836114ba565b50565b600080546001600160a01b03163314610ed15760405162461bcd60e51b81526004016105739061193f565b8151835114610f155760405162461bcd60e51b815260206004820152601060248201526f3830b930b6b2ba32b9399032b93937b960811b6044820152606401610573565b60005b8351811015610fe857828181518110610f3357610f336118d0565b602002602001015182610f469190611898565b9150828181518110610f5a57610f5a6118d0565b602002602001015160056000868481518110610f7857610f786118d0565b6020026020010151815260200190815260200160002081905550600654848281518110610fa757610fa76118d0565b60200260200101511115610fd657838181518110610fc757610fc76118d0565b60200260200101516006819055505b80610fe0816118e6565b915050610f18565b506110157f00000000000000000000000000000000000000000000000000000000000000003330846113a0565b60408051600081526020810183905233917fc3991418cacd70a010fce559a44fcbb47534ca43bf7543964bdca2639f6e6e5a910160405180910390a292915050565b6000546001600160a01b031633146110815760405162461bcd60e51b81526004016105739061193f565b6110ad7f00000000000000000000000000000000000000000000000000000000000000003330846113a0565b600082815260056020526040812080548392906110cb908490611898565b90915550506006548211156110e05760068290555b604080518381526020810183905233917fc3991418cacd70a010fce559a44fcbb47534ca43bf7543964bdca2639f6e6e5a91015b60405180910390a25050565b600060ff7f00000000000000000000000000000000000000000000000000000000000000001661115261025842611876565b61115c91906118ff565b33600090815260036020526040812054919250905b33600090815260036020526040902060010154811015611222578281116112225760008181526004602052604090205415611210576111b1816001611898565b33600090815260036020526040812001556000818152600460209081526040808320543384526002835281842085855283528184205460059093529220546111f99190611962565b6112039190611876565b61120d9083611898565b91505b8061121a816118e6565b915050611171565b5061124e7f000000000000000000000000000000000000000000000000000000000000000033836114ba565b60405181815233907fba8de60c3403ec381d1d484652ea1980e3c3e56359195c92525bff4ce47ad98e90602001611114565b6009602052816000526040600020818154811061129c57600080fd5b90600052602060002001600091509150505481565b600360205281600052604060002081600281106112cd57600080fd5b01549150829050565b600061130360017f0000000000000000000000000000000000000000000000000000000000000000611979565b60ff1660017f000000000000000000000000000000000000000000000000000000000000000060ff166001856113399190611979565b60ff1661136760017f00000000000000000000000000000000000000000000000000000000000000006118ff565b6113719190611962565b61137b9190611898565b61138591906118ff565b61138f9085611962565b6113999190611876565b9392505050565b604080516001600160a01b0385811660248301528481166044830152606480830185905283518084039091018152608490920183526020820180516001600160e01b03166323b872dd60e01b17905291516000928392908816916114049190611992565b6000604051808303816000865af19150503d8060008114611441576040519150601f19603f3d011682016040523d82523d6000602084013e611446565b606091505b509150915081801561147057508051158061147057508080602001905181019061147091906119c1565b6114b25760405162461bcd60e51b81526020600482015260136024820152721d1c985b9cd9995c919c9bdb4819985a5b1959606a1b6044820152606401610573565b505050505050565b604080516001600160a01b038481166024830152604480830185905283518084039091018152606490920183526020820180516001600160e01b031663a9059cbb60e01b17905291516000928392908716916115169190611992565b6000604051808303816000865af19150503d8060008114611553576040519150601f19603f3d011682016040523d82523d6000602084013e611558565b606091505b509150915081801561158257508051158061158257508080602001905181019061158291906119c1565b6115c05760405162461bcd60e51b815260206004820152600f60248201526e1514905394d1915497d19052531151608a1b6044820152606401610573565b5050505050565b6000602082840312156115d957600080fd5b5035919050565b600080604083850312156115f357600080fd5b82359150602083013560ff8116811461160b57600080fd5b809150509250929050565b80356001600160a01b038116811461162d57600080fd5b919050565b60006020828403121561164457600080fd5b61139982611616565b6000806040838503121561166057600080fd5b61166983611616565b946020939093013593505050565b602080825282518282018190526000919060409081850190868401855b828110156116ce57815180518552868101518786015285810151868601526060908101519085015260809093019290850190600101611694565b5091979650505050505050565b6000604082018483526020604081850152818551808452606086019150828701935060005b8181101561171c57845183529383019391830191600101611700565b5090979650505050505050565b634e487b7160e01b600052604160045260246000fd5b600082601f83011261175057600080fd5b8135602067ffffffffffffffff8083111561176d5761176d611729565b8260051b604051601f19603f8301168101818110848211171561179257611792611729565b6040529384528581018301938381019250878511156117b057600080fd5b83870191505b848210156117cf578135835291830191908301906117b6565b979650505050505050565b600080604083850312156117ed57600080fd5b823567ffffffffffffffff8082111561180557600080fd5b6118118683870161173f565b9350602085013591508082111561182757600080fd5b506118348582860161173f565b9150509250929050565b6000806040838503121561185157600080fd5b50508035926020909101359150565b634e487b7160e01b600052601160045260246000fd5b60008261189357634e487b7160e01b600052601260045260246000fd5b500490565b808201808211156118ab576118ab611860565b92915050565b600060ff821660ff81036118c7576118c7611860565b60010192915050565b634e487b7160e01b600052603260045260246000fd5b6000600182016118f8576118f8611860565b5060010190565b818103818111156118ab576118ab611860565b634e487b7160e01b600052603160045260246000fd5b60008161193757611937611860565b506000190190565b6020808252600990820152683337b93134b23232b760b91b604082015260600190565b80820281158282048414176118ab576118ab611860565b60ff82811682821603908111156118ab576118ab611860565b6000825160005b818110156119b35760208186018101518583015201611999565b506000920191825250919050565b6000602082840312156119d357600080fd5b8151801515811461139957600080fdfea2646970667358221220d16f75a1ae4dd8719caeddc311ee040e0d02904e1c7b7a9556c801b9c9bb437964736f6c63430008110033",
  "linkReferences": {},
  "deployedLinkReferences": {}
}