{
  "_format": "hh-sol-artifact-1",
  "contractName": "StakeERC20",
  "sourceName": "contracts/stakeERC20.sol",
  "abi": [
    {
      "inputs": [
        {
          "internalType": "uint8",
          "name": "maxWeeks",
          "type": "uint8"
        },
        {
          "internalType": "uint256",
          "name": "maxScale",
          "type": "uint256"
        },
        {
          "internalType": "uint8",
          "name": "lockWeeks",
          "type": "uint8"
        },
        {
          "internalType": "uint256",
          "name": "beginTime",
          "type": "uint256"
        },
        {
          "internalType": "uint256",
          "name": "endTime",
          "type": "uint256"
        },
        {
          "internalType": "address",
          "name": "_rewardToken",
          "type": "address"
        },
        {
          "internalType": "address",
          "name": "_lpToken",
          "type": "address"
        }
      ],
      "stateMutability": "nonpayable",
      "type": "constructor"
    },
    {
      "anonymous": false,
      "inputs": [
        {
          "indexed": true,
          "internalType": "address",
          "name": "user",
          "type": "address"
        },
        {
          "indexed": false,
          "internalType": "uint256",
          "name": "amount",
          "type": "uint256"
        }
      ],
      "name": "ClaimReward",
      "type": "event"
    },
    {
      "anonymous": false,
      "inputs": [
        {
          "indexed": true,
          "internalType": "address",
          "name": "user",
          "type": "address"
        },
        {
          "indexed": false,
          "internalType": "uint256",
          "name": "no",
          "type": "uint256"
        },
        {
          "indexed": false,
          "internalType": "uint256",
          "name": "amount",
          "type": "uint256"
        }
      ],
      "name": "SetReward",
      "type": "event"
    },
    {
      "anonymous": false,
      "inputs": [
        {
          "indexed": true,
          "internalType": "address",
          "name": "user",
          "type": "address"
        },
        {
          "indexed": false,
          "internalType": "uint256",
          "name": "id",
          "type": "uint256"
        },
        {
          "indexed": false,
          "internalType": "uint256",
          "name": "amount",
          "type": "uint256"
        },
        {
          "indexed": false,
          "internalType": "uint8",
          "name": "k",
          "type": "uint8"
        }
      ],
      "name": "Stake",
      "type": "event"
    },
    {
      "anonymous": false,
      "inputs": [
        {
          "indexed": true,
          "internalType": "address",
          "name": "user",
          "type": "address"
        },
        {
          "indexed": false,
          "internalType": "uint256",
          "name": "amount",
          "type": "uint256"
        }
      ],
      "name": "Withdraw",
      "type": "event"
    },
    {
      "inputs": [],
      "name": "BEGIN_TIME",
      "outputs": [
        {
          "internalType": "uint256",
          "name": "",
          "type": "uint256"
        }
      ],
      "stateMutability": "view",
      "type": "function"
    },
    {
      "inputs": [],
      "name": "END_TIME",
      "outputs": [
        {
          "internalType": "uint256",
          "name": "",
          "type": "uint256"
        }
      ],
      "stateMutability": "view",
      "type": "function"
    },
    {
      "inputs": [],
      "name": "LOCK_WEEKNUM",
      "outputs": [
        {
          "internalType": "uint8",
          "name": "",
          "type": "uint8"
        }
      ],
      "stateMutability": "view",
      "type": "function"
    },
    {
      "inputs": [],
      "name": "MAX_SCALE",
      "outputs": [
        {
          "internalType": "uint256",
          "name": "",
          "type": "uint256"
        }
      ],
      "stateMutability": "view",
      "type": "function"
    },
    {
      "inputs": [],
      "name": "MAX_WEEKS",
      "outputs": [
        {
          "internalType": "uint8",
          "name": "",
          "type": "uint8"
        }
      ],
      "stateMutability": "view",
      "type": "function"
    },
    {
      "inputs": [],
      "name": "WEEK_SECONDS",
      "outputs": [
        {
          "internalType": "uint24",
          "name": "",
          "type": "uint24"
        }
      ],
      "stateMutability": "view",
      "type": "function"
    },
    {
      "inputs": [],
      "name": "acceptSetter",
      "outputs": [],
      "stateMutability": "nonpayable",
      "type": "function"
    },
    {
      "inputs": [],
      "name": "canClaimAmount",
      "outputs": [
        {
          "internalType": "uint256",
          "name": "",
          "type": "uint256"
        }
      ],
      "stateMutability": "view",
      "type": "function"
    },
    {
      "inputs": [],
      "name": "claimReward",
      "outputs": [],
      "stateMutability": "nonpayable",
      "type": "function"
    },
    {
      "inputs": [
        {
          "internalType": "uint256",
          "name": "amount",
          "type": "uint256"
        },
        {
          "internalType": "uint8",
          "name": "k",
          "type": "uint8"
        }
      ],
      "name": "getScore",
      "outputs": [
        {
          "internalType": "uint256",
          "name": "score",
          "type": "uint256"
        }
      ],
      "stateMutability": "view",
      "type": "function"
    },
    {
      "inputs": [],
      "name": "getStaking",
      "outputs": [
        {
          "components": [
            {
              "internalType": "uint256",
              "name": "amount",
              "type": "uint256"
            },
            {
              "internalType": "uint256",
              "name": "score",
              "type": "uint256"
            },
            {
              "internalType": "uint256",
              "name": "beginNo",
              "type": "uint256"
            },
            {
              "internalType": "uint256",
              "name": "endNo",
              "type": "uint256"
            }
          ],
          "internalType": "struct StakeERC20.StakingERC20[]",
          "name": "",
          "type": "tuple[]"
        }
      ],
      "stateMutability": "view",
      "type": "function"
    },
    {
      "inputs": [],
      "name": "latestNo",
      "outputs": [
        {
          "internalType": "uint256",
          "name": "",
          "type": "uint256"
        }
      ],
      "stateMutability": "view",
      "type": "function"
    },
    {
      "inputs": [],
      "name": "lpToken",
      "outputs": [
        {
          "internalType": "address",
          "name": "",
          "type": "address"
        }
      ],
      "stateMutability": "view",
      "type": "function"
    },
    {
      "inputs": [],
      "name": "nonce",
      "outputs": [
        {
          "internalType": "uint256",
          "name": "",
          "type": "uint256"
        }
      ],
      "stateMutability": "view",
      "type": "function"
    },
    {
      "inputs": [],
      "name": "owner",
      "outputs": [
        {
          "internalType": "address",
          "name": "",
          "type": "address"
        }
      ],
      "stateMutability": "view",
      "type": "function"
    },
    {
      "inputs": [],
      "name": "rewardToken",
      "outputs": [
        {
          "internalType": "address",
          "name": "",
          "type": "address"
        }
      ],
      "stateMutability": "view",
      "type": "function"
    },
    {
      "inputs": [
        {
          "internalType": "uint256",
          "name": "",
          "type": "uint256"
        }
      ],
      "name": "rewardsOf",
      "outputs": [
        {
          "internalType": "uint256",
          "name": "",
          "type": "uint256"
        }
      ],
      "stateMutability": "view",
      "type": "function"
    },
    {
      "inputs": [
        {
          "internalType": "uint256[]",
          "name": "nos",
          "type": "uint256[]"
        },
        {
          "internalType": "uint256[]",
          "name": "amounts",
          "type": "uint256[]"
        }
      ],
      "name": "setRewards",
      "outputs": [
        {
          "internalType": "uint256",
          "name": "total",
          "type": "uint256"
        }
      ],
      "stateMutability": "nonpayable",
      "type": "function"
    },
    {
      "inputs": [
        {
          "internalType": "uint256",
          "name": "amount",
          "type": "uint256"
        },
        {
          "internalType": "uint8",
          "name": "k",
          "type": "uint8"
        }
      ],
      "name": "stake",
      "outputs": [],
      "stateMutability": "nonpayable",
      "type": "function"
    },
    {
      "inputs": [
        {
          "internalType": "uint256",
          "name": "",
          "type": "uint256"
        }
      ],
      "name": "stakingERC20s",
      "outputs": [
        {
          "internalType": "uint256",
          "name": "amount",
          "type": "uint256"
        },
        {
          "internalType": "uint256",
          "name": "score",
          "type": "uint256"
        },
        {
          "internalType": "uint256",
          "name": "beginNo",
          "type": "uint256"
        },
        {
          "internalType": "uint256",
          "name": "endNo",
          "type": "uint256"
        }
      ],
      "stateMutability": "view",
      "type": "function"
    },
    {
      "inputs": [
        {
          "internalType": "uint256",
          "name": "",
          "type": "uint256"
        }
      ],
      "name": "totalScores",
      "outputs": [
        {
          "internalType": "uint256",
          "name": "",
          "type": "uint256"
        }
      ],
      "stateMutability": "view",
      "type": "function"
    },
    {
      "inputs": [
        {
          "internalType": "address",
          "name": "_owner",
          "type": "address"
        }
      ],
      "name": "transferOwner",
      "outputs": [],
      "stateMutability": "nonpayable",
      "type": "function"
    },
    {
      "inputs": [
        {
          "internalType": "address",
          "name": "",
          "type": "address"
        },
        {
          "internalType": "uint256",
          "name": "",
          "type": "uint256"
        }
      ],
      "name": "userCanClaimWeeks",
      "outputs": [
        {
          "internalType": "uint256",
          "name": "",
          "type": "uint256"
        }
      ],
      "stateMutability": "view",
      "type": "function"
    },
    {
      "inputs": [
        {
          "internalType": "address",
          "name": "",
          "type": "address"
        },
        {
          "internalType": "uint256",
          "name": "",
          "type": "uint256"
        }
      ],
      "name": "userERC20s",
      "outputs": [
        {
          "internalType": "uint256",
          "name": "",
          "type": "uint256"
        }
      ],
      "stateMutability": "view",
      "type": "function"
    },
    {
      "inputs": [
        {
          "internalType": "address",
          "name": "",
          "type": "address"
        },
        {
          "internalType": "uint256",
          "name": "",
          "type": "uint256"
        }
      ],
      "name": "userScores",
      "outputs": [
        {
          "internalType": "uint256",
          "name": "",
          "type": "uint256"
        }
      ],
      "stateMutability": "view",
      "type": "function"
    },
    {
      "inputs": [],
      "name": "withdraw",
      "outputs": [
        {
          "internalType": "uint256",
          "name": "total",
          "type": "uint256"
        }
      ],
      "stateMutability": "nonpayable",
      "type": "function"
    },
    {
      "inputs": [
        {
          "internalType": "uint256",
          "name": "amount",
          "type": "uint256"
        }
      ],
      "name": "withdrawRewards",
      "outputs": [],
      "stateMutability": "nonpayable",
      "type": "function"
    }
  ],
  "bytecode": "0x6101606040523480156200001257600080fd5b5060405162001859380380620018598339810160408190526200003591620000ac565b6001600160a01b0391821660805260ff96871660a05260c0959095529490921660e0526101005261012052600080546001600160a01b03191633179055166101405262000126565b805160ff811681146200008f57600080fd5b919050565b80516001600160a01b03811681146200008f57600080fd5b600080600080600080600060e0888a031215620000c857600080fd5b620000d3886200007d565b965060208801519550620000ea604089016200007d565b945060608801519350608088015192506200010860a0890162000094565b91506200011860c0890162000094565b905092959891949750929550565b60805160a05160c05160e051610100516101205161014051611684620001d5600039600081816102d201526105dd01526000818161025d015261052f0152600081816103f3015261055a0152600081816101e601528181610b350152610e0f015260008181610471015261101e015260008181610437015281816104ca01528181610fba0152610fe501526000818161049801528181610c2f01528181610da00152610efc01526116846000f3fe608060405234801561001057600080fd5b50600436106101a95760003560e01c80638da5cb5b116100f9578063bb57852d11610097578063e11400bb11610071578063e11400bb14610432578063ee3453ed14610459578063f6def7cf1461046c578063f7c618c11461049357600080fd5b8063bb57852d146103db578063c75363b6146103ee578063cd671a581461041557600080fd5b8063a218de15116100d3578063a218de1514610362578063affed0e0146103b7578063b88a802f146103c0578063ba086501146103c857600080fd5b80638da5cb5b146103295780639342c8f41461033c578063979db1c41461034f57600080fd5b80633ccfd60b116101665780635f8e422f116101405780635f8e422f146102c55780635fcbd285146102cd5780637b1391a61461030c5780638431165e1461032157600080fd5b80633ccfd60b1461027f5780634fb2e45d146102875780635b680a451461029a57600080fd5b80630bce1284146101ae5780630d437d40146101e157806310087fb11461021a578063157775df1461022f57806329ed1cfd1461024f57806337ba682d14610258575b600080fd5b6101ce6101bc3660046112a2565b60056020526000908152604090205481565b6040519081526020015b60405180910390f35b6102087f000000000000000000000000000000000000000000000000000000000000000081565b60405160ff90911681526020016101d8565b61022d6102283660046112bb565b6104ba565b005b6101ce61023d3660046112a2565b60046020526000908152604090205481565b6101ce60065481565b6101ce7f000000000000000000000000000000000000000000000000000000000000000081565b6101ce610808565b61022d61029536600461130d565b610952565b6101ce6102a8366004611328565b600260209081526000928352604080842090915290825290205481565b61022d61099e565b6102f47f000000000000000000000000000000000000000000000000000000000000000081565b6040516001600160a01b0390911681526020016101d8565b6103146109ef565b6040516101d89190611352565b6101ce610b2e565b6000546102f4906001600160a01b031681565b61022d61034a3660046112a2565b610c00565b6101ce61035d366004611467565b610c58565b6103976103703660046112a2565b60086020526000908152604090208054600182015460028301546003909301549192909184565b6040805194855260208501939093529183015260608201526080016101d8565b6101ce60075481565b61022d610e09565b6101ce6103d6366004611328565b610f5b565b6101ce6103e9366004611328565b610f8c565b6101ce7f000000000000000000000000000000000000000000000000000000000000000081565b61041e61025881565b60405162ffffff90911681526020016101d8565b6102087f000000000000000000000000000000000000000000000000000000000000000081565b6101ce6104673660046112bb565b610fb1565b6101ce7f000000000000000000000000000000000000000000000000000000000000000081565b6102f47f000000000000000000000000000000000000000000000000000000000000000081565b60008160ff161180156104f357507f000000000000000000000000000000000000000000000000000000000000000060ff168160ff1611155b61052d5760405162461bcd60e51b8152602060048201526006602482015265359018bf1a9960d11b60448201526064015b60405180910390fd5b7f0000000000000000000000000000000000000000000000000000000000000000421115801561057d57507f00000000000000000000000000000000000000000000000000000000000000004210155b6105bd5760405162461bcd60e51b81526020600482015260116024820152701b9bdd081a5b881d1a19481c195c9a5bd9607a1b6044820152606401610524565b60006105cb610258426114e1565b6105d6906001611503565b90506106047f000000000000000000000000000000000000000000000000000000000000000033308661107b565b60006106108484610fb1565b905060005b8360ff168160ff1610156106aa57816004600061063560ff851687611503565b815260200190815260200160002060008282546106529190611503565b9091555050336000908152600260205260408120839161067560ff851687611503565b815260200190815260200160002060008282546106929190611503565b909155508190506106a28161151c565b915050610615565b5060405180608001604052808581526020018281526020018381526020018460ff16846106d79190611503565b905260075460009081526008602090815260408083208451815584830151600180830191909155858301516002830155606090950151600391820155338452909152902090810154905403610739573360009081526003602052604090208290555b61074660ff841683611503565b3360009081526003602052604090206001015410156107805761076c60ff841683611503565b336000908152600360205260409020600101555b33600081815260096020908152604080832060078054825460018101845592865294849020909101939093559154825190815290810187905260ff86168183015290517f6fa2f6021ee337436cdf2b2570285886da18bc06402ce284d296504a0fe8f8759181900360600190a2600780549060006107fd83611551565b919050555050505050565b600080610817610258426114e1565b33600090815260096020526040812054919250906108379060019061156a565b90505b33600090815260096020526040812080548390811061085b5761085b61153b565b906000526020600020015490508260086000838152602001908152602001600020600301541161093f5760008181526008602052604090205461089e9085611503565b3360009081526009602052604090208054919550906108bf9060019061156a565b815481106108cf576108cf61153b565b6000918252602080832090910154338352600990915260409091208054849081106108fc576108fc61153b565b60009182526020808320909101929092553381526009909152604090208054806109285761092861157d565b600190038181906000526020600020016000905590555b508061094a81611593565b91505061083a565b6000546001600160a01b0316331461097c5760405162461bcd60e51b8152600401610524906115aa565b600180546001600160a01b0319166001600160a01b0392909216919091179055565b6001546001600160a01b031633146109c85760405162461bcd60e51b8152600401610524906115aa565b60018054600080546001600160a01b03199081166001600160a01b03841617909155169055565b336000908152600960205260408120546060918167ffffffffffffffff811115610a1b57610a1b6113b6565b604051908082528060200260200182016040528015610a7757816020015b610a646040518060800160405280600081526020016000815260200160008152602001600081525090565b815260200190600190039081610a395790505b50905060005b82811015610b27573360009081526009602052604081208054600892919084908110610aab57610aab61153b565b90600052602060002001548152602001908152602001600020604051806080016040529081600082015481526020016001820154815260200160028201548152602001600382015481525050828281518110610b0957610b0961153b565b60200260200101819052508080610b1f90611551565b915050610a7d565b5092915050565b60008060ff7f000000000000000000000000000000000000000000000000000000000000000016610b61610258426114e1565b610b6b919061156a565b33600090815260036020526040812054919250905b33600090815260036020526040902060010154811015610b2757828111610b2757600081815260046020908152604080832054338452600283528184208585528352818420546005909352922054610bd891906115cd565b610be291906114e1565b610bec9083611503565b915080610bf881611551565b915050610b80565b6000546001600160a01b03163314610c2a5760405162461bcd60e51b8152600401610524906115aa565b610c557f00000000000000000000000000000000000000000000000000000000000000003383611195565b50565b600080546001600160a01b03163314610c835760405162461bcd60e51b8152600401610524906115aa565b8151835114610cc75760405162461bcd60e51b815260206004820152601060248201526f3830b930b6b2ba32b9399032b93937b960811b6044820152606401610524565b60005b8351811015610d9a57828181518110610ce557610ce561153b565b602002602001015182610cf89190611503565b9150828181518110610d0c57610d0c61153b565b602002602001015160056000868481518110610d2a57610d2a61153b565b6020026020010151815260200190815260200160002081905550600654848281518110610d5957610d5961153b565b60200260200101511115610d8857838181518110610d7957610d7961153b565b60200260200101516006819055505b80610d9281611551565b915050610cca565b50610dc77f000000000000000000000000000000000000000000000000000000000000000033308461107b565b60408051600081526020810183905233917fc3991418cacd70a010fce559a44fcbb47534ca43bf7543964bdca2639f6e6e5a910160405180910390a292915050565b600060ff7f000000000000000000000000000000000000000000000000000000000000000016610e3b610258426114e1565b610e45919061156a565b33600090815260036020526040812054919250905b33600090815260036020526040902060010154811015610ef657828111610ef657610e86816001611503565b3360009081526003602052604081200155600081815260046020908152604080832054338452600283528184208585528352818420546005909352922054610ece91906115cd565b610ed891906114e1565b610ee29083611503565b915080610eee81611551565b915050610e5a565b50610f227f00000000000000000000000000000000000000000000000000000000000000003383611195565b60405181815233907fba8de60c3403ec381d1d484652ea1980e3c3e56359195c92525bff4ce47ad98e9060200160405180910390a25050565b60096020528160005260406000208181548110610f7757600080fd5b90600052602060002001600091509150505481565b60036020528160005260406000208160028110610fa857600080fd5b01549150829050565b6000610fde60017f00000000000000000000000000000000000000000000000000000000000000006115e4565b60ff1660017f000000000000000000000000000000000000000000000000000000000000000060ff1660018561101491906115e4565b60ff1661104260017f000000000000000000000000000000000000000000000000000000000000000061156a565b61104c91906115cd565b6110569190611503565b611060919061156a565b61106a90856115cd565b61107491906114e1565b9392505050565b604080516001600160a01b0385811660248301528481166044830152606480830185905283518084039091018152608490920183526020820180516001600160e01b03166323b872dd60e01b17905291516000928392908816916110df91906115fd565b6000604051808303816000865af19150503d806000811461111c576040519150601f19603f3d011682016040523d82523d6000602084013e611121565b606091505b509150915081801561114b57508051158061114b57508080602001905181019061114b919061162c565b61118d5760405162461bcd60e51b81526020600482015260136024820152721d1c985b9cd9995c919c9bdb4819985a5b1959606a1b6044820152606401610524565b505050505050565b604080516001600160a01b038481166024830152604480830185905283518084039091018152606490920183526020820180516001600160e01b031663a9059cbb60e01b17905291516000928392908716916111f191906115fd565b6000604051808303816000865af19150503d806000811461122e576040519150601f19603f3d011682016040523d82523d6000602084013e611233565b606091505b509150915081801561125d57508051158061125d57508080602001905181019061125d919061162c565b61129b5760405162461bcd60e51b815260206004820152600f60248201526e1514905394d1915497d19052531151608a1b6044820152606401610524565b5050505050565b6000602082840312156112b457600080fd5b5035919050565b600080604083850312156112ce57600080fd5b82359150602083013560ff811681146112e657600080fd5b809150509250929050565b80356001600160a01b038116811461130857600080fd5b919050565b60006020828403121561131f57600080fd5b611074826112f1565b6000806040838503121561133b57600080fd5b611344836112f1565b946020939093013593505050565b602080825282518282018190526000919060409081850190868401855b828110156113a95781518051855286810151878601528581015186860152606090810151908501526080909301929085019060010161136f565b5091979650505050505050565b634e487b7160e01b600052604160045260246000fd5b600082601f8301126113dd57600080fd5b8135602067ffffffffffffffff808311156113fa576113fa6113b6565b8260051b604051601f19603f8301168101818110848211171561141f5761141f6113b6565b60405293845285810183019383810192508785111561143d57600080fd5b83870191505b8482101561145c57813583529183019190830190611443565b979650505050505050565b6000806040838503121561147a57600080fd5b823567ffffffffffffffff8082111561149257600080fd5b61149e868387016113cc565b935060208501359150808211156114b457600080fd5b506114c1858286016113cc565b9150509250929050565b634e487b7160e01b600052601160045260246000fd5b6000826114fe57634e487b7160e01b600052601260045260246000fd5b500490565b80820180821115611516576115166114cb565b92915050565b600060ff821660ff8103611532576115326114cb565b60010192915050565b634e487b7160e01b600052603260045260246000fd5b600060018201611563576115636114cb565b5060010190565b81810381811115611516576115166114cb565b634e487b7160e01b600052603160045260246000fd5b6000816115a2576115a26114cb565b506000190190565b6020808252600990820152683337b93134b23232b760b91b604082015260600190565b8082028115828204841417611516576115166114cb565b60ff8281168282160390811115611516576115166114cb565b6000825160005b8181101561161e5760208186018101518583015201611604565b506000920191825250919050565b60006020828403121561163e57600080fd5b8151801515811461107457600080fdfea26469706673582212209145f1615eed89e0d9e8e064c3ba185a21a3ac54707f74e16acda40cbdac7dfb64736f6c63430008110033",
  "linkReferences": {},
  "deployedLinkReferences": {}
}