{
  "_format": "hh-sol-artifact-1",
  "contractName": "StakeERC20",
  "sourceName": "contracts/stakeERC20.sol",
  "abi": [
    {
      "inputs": [
        {
          "internalType": "uint8",
          "name": "maxWeeks",
          "type": "uint8"
        },
        {
          "internalType": "uint256",
          "name": "maxScale",
          "type": "uint256"
        },
        {
          "internalType": "uint8",
          "name": "lockWeeks",
          "type": "uint8"
        },
        {
          "internalType": "uint256",
          "name": "beginTime",
          "type": "uint256"
        },
        {
          "internalType": "uint256",
          "name": "endTime",
          "type": "uint256"
        },
        {
          "internalType": "address",
          "name": "_rewardToken",
          "type": "address"
        },
        {
          "internalType": "address",
          "name": "_lpToken",
          "type": "address"
        }
      ],
      "stateMutability": "nonpayable",
      "type": "constructor"
    },
    {
      "anonymous": false,
      "inputs": [
        {
          "indexed": true,
          "internalType": "address",
          "name": "user",
          "type": "address"
        },
        {
          "indexed": false,
          "internalType": "uint256",
          "name": "amount",
          "type": "uint256"
        }
      ],
      "name": "ClaimReward",
      "type": "event"
    },
    {
      "anonymous": false,
      "inputs": [
        {
          "indexed": true,
          "internalType": "address",
          "name": "user",
          "type": "address"
        },
        {
          "indexed": false,
          "internalType": "uint256",
          "name": "no",
          "type": "uint256"
        },
        {
          "indexed": false,
          "internalType": "uint256",
          "name": "amount",
          "type": "uint256"
        }
      ],
      "name": "SetReward",
      "type": "event"
    },
    {
      "anonymous": false,
      "inputs": [
        {
          "indexed": true,
          "internalType": "address",
          "name": "user",
          "type": "address"
        },
        {
          "indexed": false,
          "internalType": "uint256",
          "name": "id",
          "type": "uint256"
        },
        {
          "indexed": false,
          "internalType": "uint256",
          "name": "amount",
          "type": "uint256"
        },
        {
          "indexed": false,
          "internalType": "uint8",
          "name": "k",
          "type": "uint8"
        }
      ],
      "name": "Stake",
      "type": "event"
    },
    {
      "anonymous": false,
      "inputs": [
        {
          "indexed": true,
          "internalType": "address",
          "name": "user",
          "type": "address"
        },
        {
          "indexed": false,
          "internalType": "uint256",
          "name": "amount",
          "type": "uint256"
        }
      ],
      "name": "Withdraw",
      "type": "event"
    },
    {
      "inputs": [],
      "name": "BEGIN_TIME",
      "outputs": [
        {
          "internalType": "uint256",
          "name": "",
          "type": "uint256"
        }
      ],
      "stateMutability": "view",
      "type": "function"
    },
    {
      "inputs": [],
      "name": "END_TIME",
      "outputs": [
        {
          "internalType": "uint256",
          "name": "",
          "type": "uint256"
        }
      ],
      "stateMutability": "view",
      "type": "function"
    },
    {
      "inputs": [],
      "name": "LOCK_WEEKNUM",
      "outputs": [
        {
          "internalType": "uint8",
          "name": "",
          "type": "uint8"
        }
      ],
      "stateMutability": "view",
      "type": "function"
    },
    {
      "inputs": [],
      "name": "MAX_SCALE",
      "outputs": [
        {
          "internalType": "uint256",
          "name": "",
          "type": "uint256"
        }
      ],
      "stateMutability": "view",
      "type": "function"
    },
    {
      "inputs": [],
      "name": "MAX_WEEKS",
      "outputs": [
        {
          "internalType": "uint8",
          "name": "",
          "type": "uint8"
        }
      ],
      "stateMutability": "view",
      "type": "function"
    },
    {
      "inputs": [],
      "name": "WEEK_SECONDS",
      "outputs": [
        {
          "internalType": "uint24",
          "name": "",
          "type": "uint24"
        }
      ],
      "stateMutability": "view",
      "type": "function"
    },
    {
      "inputs": [],
      "name": "acceptSetter",
      "outputs": [],
      "stateMutability": "nonpayable",
      "type": "function"
    },
    {
      "inputs": [],
      "name": "canClaimAmount",
      "outputs": [
        {
          "internalType": "uint256",
          "name": "",
          "type": "uint256"
        }
      ],
      "stateMutability": "view",
      "type": "function"
    },
    {
      "inputs": [],
      "name": "claimReward",
      "outputs": [],
      "stateMutability": "nonpayable",
      "type": "function"
    },
    {
      "inputs": [
        {
          "internalType": "uint256",
          "name": "amount",
          "type": "uint256"
        },
        {
          "internalType": "uint8",
          "name": "k",
          "type": "uint8"
        }
      ],
      "name": "getScore",
      "outputs": [
        {
          "internalType": "uint256",
          "name": "score",
          "type": "uint256"
        }
      ],
      "stateMutability": "view",
      "type": "function"
    },
    {
      "inputs": [],
      "name": "getStaking",
      "outputs": [
        {
          "components": [
            {
              "internalType": "uint256",
              "name": "amount",
              "type": "uint256"
            },
            {
              "internalType": "uint256",
              "name": "score",
              "type": "uint256"
            },
            {
              "internalType": "uint256",
              "name": "beginNo",
              "type": "uint256"
            },
            {
              "internalType": "uint256",
              "name": "endNo",
              "type": "uint256"
            }
          ],
          "internalType": "struct StakeERC20.StakingERC20[]",
          "name": "",
          "type": "tuple[]"
        }
      ],
      "stateMutability": "view",
      "type": "function"
    },
    {
      "inputs": [],
      "name": "latestNo",
      "outputs": [
        {
          "internalType": "uint256",
          "name": "",
          "type": "uint256"
        }
      ],
      "stateMutability": "view",
      "type": "function"
    },
    {
      "inputs": [],
      "name": "lockedRewardAmount",
      "outputs": [
        {
          "internalType": "uint256",
          "name": "",
          "type": "uint256"
        },
        {
          "internalType": "uint256[]",
          "name": "",
          "type": "uint256[]"
        }
      ],
      "stateMutability": "view",
      "type": "function"
    },
    {
      "inputs": [],
      "name": "lpToken",
      "outputs": [
        {
          "internalType": "address",
          "name": "",
          "type": "address"
        }
      ],
      "stateMutability": "view",
      "type": "function"
    },
    {
      "inputs": [],
      "name": "nonce",
      "outputs": [
        {
          "internalType": "uint256",
          "name": "",
          "type": "uint256"
        }
      ],
      "stateMutability": "view",
      "type": "function"
    },
    {
      "inputs": [],
      "name": "owner",
      "outputs": [
        {
          "internalType": "address",
          "name": "",
          "type": "address"
        }
      ],
      "stateMutability": "view",
      "type": "function"
    },
    {
      "inputs": [],
      "name": "rewardToken",
      "outputs": [
        {
          "internalType": "address",
          "name": "",
          "type": "address"
        }
      ],
      "stateMutability": "view",
      "type": "function"
    },
    {
      "inputs": [
        {
          "internalType": "uint256",
          "name": "",
          "type": "uint256"
        }
      ],
      "name": "rewardsOf",
      "outputs": [
        {
          "internalType": "uint256",
          "name": "",
          "type": "uint256"
        }
      ],
      "stateMutability": "view",
      "type": "function"
    },
    {
      "inputs": [
        {
          "internalType": "uint256",
          "name": "no",
          "type": "uint256"
        },
        {
          "internalType": "uint256",
          "name": "amount",
          "type": "uint256"
        }
      ],
      "name": "setReward",
      "outputs": [],
      "stateMutability": "nonpayable",
      "type": "function"
    },
    {
      "inputs": [
        {
          "internalType": "uint256[]",
          "name": "nos",
          "type": "uint256[]"
        },
        {
          "internalType": "uint256[]",
          "name": "amounts",
          "type": "uint256[]"
        }
      ],
      "name": "setRewards",
      "outputs": [
        {
          "internalType": "uint256",
          "name": "total",
          "type": "uint256"
        }
      ],
      "stateMutability": "nonpayable",
      "type": "function"
    },
    {
      "inputs": [
        {
          "internalType": "uint256",
          "name": "amount",
          "type": "uint256"
        },
        {
          "internalType": "uint8",
          "name": "k",
          "type": "uint8"
        }
      ],
      "name": "stake",
      "outputs": [],
      "stateMutability": "nonpayable",
      "type": "function"
    },
    {
      "inputs": [
        {
          "internalType": "uint256",
          "name": "",
          "type": "uint256"
        }
      ],
      "name": "stakingERC20s",
      "outputs": [
        {
          "internalType": "uint256",
          "name": "amount",
          "type": "uint256"
        },
        {
          "internalType": "uint256",
          "name": "score",
          "type": "uint256"
        },
        {
          "internalType": "uint256",
          "name": "beginNo",
          "type": "uint256"
        },
        {
          "internalType": "uint256",
          "name": "endNo",
          "type": "uint256"
        }
      ],
      "stateMutability": "view",
      "type": "function"
    },
    {
      "inputs": [
        {
          "internalType": "uint256",
          "name": "",
          "type": "uint256"
        }
      ],
      "name": "totalScores",
      "outputs": [
        {
          "internalType": "uint256",
          "name": "",
          "type": "uint256"
        }
      ],
      "stateMutability": "view",
      "type": "function"
    },
    {
      "inputs": [
        {
          "internalType": "address",
          "name": "_owner",
          "type": "address"
        }
      ],
      "name": "transferOwner",
      "outputs": [],
      "stateMutability": "nonpayable",
      "type": "function"
    },
    {
      "inputs": [
        {
          "internalType": "address",
          "name": "",
          "type": "address"
        },
        {
          "internalType": "uint256",
          "name": "",
          "type": "uint256"
        }
      ],
      "name": "userCanClaimWeeks",
      "outputs": [
        {
          "internalType": "uint256",
          "name": "",
          "type": "uint256"
        }
      ],
      "stateMutability": "view",
      "type": "function"
    },
    {
      "inputs": [
        {
          "internalType": "address",
          "name": "",
          "type": "address"
        },
        {
          "internalType": "uint256",
          "name": "",
          "type": "uint256"
        }
      ],
      "name": "userERC20s",
      "outputs": [
        {
          "internalType": "uint256",
          "name": "",
          "type": "uint256"
        }
      ],
      "stateMutability": "view",
      "type": "function"
    },
    {
      "inputs": [
        {
          "internalType": "address",
          "name": "",
          "type": "address"
        },
        {
          "internalType": "uint256",
          "name": "",
          "type": "uint256"
        }
      ],
      "name": "userScores",
      "outputs": [
        {
          "internalType": "uint256",
          "name": "",
          "type": "uint256"
        }
      ],
      "stateMutability": "view",
      "type": "function"
    },
    {
      "inputs": [],
      "name": "withdraw",
      "outputs": [
        {
          "internalType": "uint256",
          "name": "total",
          "type": "uint256"
        }
      ],
      "stateMutability": "nonpayable",
      "type": "function"
    },
    {
      "inputs": [
        {
          "internalType": "uint256",
          "name": "amount",
          "type": "uint256"
        }
      ],
      "name": "withdrawRewards",
      "outputs": [],
      "stateMutability": "nonpayable",
      "type": "function"
    }
  ],
  "bytecode": "0x6101606040523480156200001257600080fd5b5060405162001ca138038062001ca18339810160408190526200003591620000ac565b6001600160a01b0391821660805260ff96871660a05260c0959095529490921660e0526101005261012052600080546001600160a01b03191633179055166101405262000126565b805160ff811681146200008f57600080fd5b919050565b80516001600160a01b03811681146200008f57600080fd5b600080600080600080600060e0888a031215620000c857600080fd5b620000d3886200007d565b965060208801519550620000ea604089016200007d565b945060608801519350608088015192506200010860a0890162000094565b91506200011860c0890162000094565b905092959891949750929550565b60805160a05160c05160e051610100516101205161014051611ab7620001ea600039600081816102f80152818161062c01526109c4015260008181610283015261057e01526000818161044201526105a901526000818161020c01528181610c0701528181610cf001526111b60152600081816104c001526113e1015260008181610486015281816105190152818161137d01526113a80152600081816104e701528181610f0e0152818161107f0152818161111701526112be0152611ab76000f3fe608060405234801561001057600080fd5b50600436106101cf5760003560e01c80638da5cb5b11610104578063ba086501116100a2578063e11400bb11610071578063e11400bb14610481578063ee3453ed146104a8578063f6def7cf146104bb578063f7c618c1146104e257600080fd5b8063ba08650114610417578063bb57852d1461042a578063c75363b61461043d578063cd671a581461046457600080fd5b8063a218de15116100de578063a218de151461039e578063a47bd496146103f3578063affed0e014610406578063b88a802f1461040f57600080fd5b80638da5cb5b146103655780639342c8f414610378578063979db1c41461038b57600080fd5b80634fb2e45d116101715780635fcbd2851161014b5780635fcbd285146102f35780637b1391a6146103325780638431165e146103475780638923de2b1461034f57600080fd5b80634fb2e45d146102ad5780635b680a45146102c05780635f8e422f146102eb57600080fd5b8063157775df116101ad578063157775df1461025557806329ed1cfd1461027557806337ba682d1461027e5780633ccfd60b146102a557600080fd5b80630bce1284146101d45780630d437d401461020757806310087fb114610240575b600080fd5b6101f46101e2366004611665565b60056020526000908152604090205481565b6040519081526020015b60405180910390f35b61022e7f000000000000000000000000000000000000000000000000000000000000000081565b60405160ff90911681526020016101fe565b61025361024e36600461167e565b610509565b005b6101f4610263366004611665565b60046020526000908152604090205481565b6101f460065481565b6101f47f000000000000000000000000000000000000000000000000000000000000000081565b6101f4610857565b6102536102bb3660046116d0565b610a24565b6101f46102ce3660046116eb565b600260209081526000928352604080842090915290825290205481565b610253610a70565b61031a7f000000000000000000000000000000000000000000000000000000000000000081565b6040516001600160a01b0390911681526020016101fe565b61033a610ac1565b6040516101fe9190611715565b6101f4610c00565b610357610ce7565b6040516101fe929190611779565b60005461031a906001600160a01b031681565b610253610386366004611665565b610edf565b6101f4610399366004611878565b610f37565b6103d36103ac366004611665565b60086020526000908152604090208054600182015460028301546003909301549192909184565b6040805194855260208501939093529183015260608201526080016101fe565b6102536104013660046118dc565b6110e8565b6101f460075481565b6102536111b0565b6101f46104253660046116eb565b61131e565b6101f46104383660046116eb565b61134f565b6101f47f000000000000000000000000000000000000000000000000000000000000000081565b61046d61025881565b60405162ffffff90911681526020016101fe565b61022e7f000000000000000000000000000000000000000000000000000000000000000081565b6101f46104b636600461167e565b611374565b6101f47f000000000000000000000000000000000000000000000000000000000000000081565b61031a7f000000000000000000000000000000000000000000000000000000000000000081565b60008160ff1611801561054257507f000000000000000000000000000000000000000000000000000000000000000060ff168160ff1611155b61057c5760405162461bcd60e51b8152602060048201526006602482015265359018bf1a9960d11b60448201526064015b60405180910390fd5b7f000000000000000000000000000000000000000000000000000000000000000042111580156105cc57507f00000000000000000000000000000000000000000000000000000000000000004210155b61060c5760405162461bcd60e51b81526020600482015260116024820152701b9bdd081a5b881d1a19481c195c9a5bd9607a1b6044820152606401610573565b600061061a61025842611914565b610625906001611936565b90506106537f000000000000000000000000000000000000000000000000000000000000000033308661143e565b600061065f8484611374565b905060005b8360ff168160ff1610156106f957816004600061068460ff851687611936565b815260200190815260200160002060008282546106a19190611936565b909155505033600090815260026020526040812083916106c460ff851687611936565b815260200190815260200160002060008282546106e19190611936565b909155508190506106f18161194f565b915050610664565b5060405180608001604052808581526020018281526020018381526020018460ff16846107269190611936565b905260075460009081526008602090815260408083208451815584830151600180830191909155858301516002830155606090950151600391820155338452909152902090810154905403610788573360009081526003602052604090208290555b61079560ff841683611936565b3360009081526003602052604090206001015410156107cf576107bb60ff841683611936565b336000908152600360205260409020600101555b33600081815260096020908152604080832060078054825460018101845592865294849020909101939093559154825190815290810187905260ff86168183015290517f6fa2f6021ee337436cdf2b2570285886da18bc06402ce284d296504a0fe8f8759181900360600190a26007805490600061084c83611984565b919050555050505050565b60008061086661025842611914565b336000908152600960205260409020549091505b33600090815260096020526040902054156109b957806108998161199d565b336000908152600960205260408120805492945090925090839081106108c1576108c161196e565b90600052602060002001549050826008600083815260200190815260200160002060030154116109a5576000818152600860205260409020546109049085611936565b336000908152600960205260409020805491955090610925906001906119b4565b815481106109355761093561196e565b6000918252602080832090910154338352600990915260409091208054849081106109625761096261196e565b600091825260208083209091019290925533815260099091526040902080548061098e5761098e6119c7565b600190038181906000526020600020016000905590555b816000036109b357506109b9565b5061087a565b82156109ea576109ea7f00000000000000000000000000000000000000000000000000000000000000003385611558565b60405183815233907f884edad9ce6fa2440d8a54cc123490eb96d2768479d49ff9c7366125a94243649060200160405180910390a2505090565b6000546001600160a01b03163314610a4e5760405162461bcd60e51b8152600401610573906119dd565b600180546001600160a01b0319166001600160a01b0392909216919091179055565b6001546001600160a01b03163314610a9a5760405162461bcd60e51b8152600401610573906119dd565b60018054600080546001600160a01b03199081166001600160a01b03841617909155169055565b336000908152600960205260408120546060918167ffffffffffffffff811115610aed57610aed6117c7565b604051908082528060200260200182016040528015610b4957816020015b610b366040518060800160405280600081526020016000815260200160008152602001600081525090565b815260200190600190039081610b0b5790505b50905060005b82811015610bf9573360009081526009602052604081208054600892919084908110610b7d57610b7d61196e565b90600052602060002001548152602001908152602001600020604051806080016040529081600082015481526020016001820154815260200160028201548152602001600382015481525050828281518110610bdb57610bdb61196e565b60200260200101819052508080610bf190611984565b915050610b4f565b5092915050565b60008060ff7f000000000000000000000000000000000000000000000000000000000000000016610c3361025842611914565b610c3d91906119b4565b33600090815260036020526040812054919250905b33600090815260036020526040902060010154811015610bf957828111610bf95760008181526004602052604090205415610cd557600081815260046020908152604080832054338452600283528184208585528352818420546005909352922054610cbe9190611a00565b610cc89190611914565b610cd29083611936565b91505b80610cdf81611984565b915050610c52565b600060608160ff7f000000000000000000000000000000000000000000000000000000000000000016610d1c61025842611914565b610d2691906119b4565b610d31906001611936565b33600090815260036020526040902090915081906001015411610d665760408051600081526020810190915290939092509050565b336000908152600360205260408120548210610d825781610d93565b336000908152600360205260409020545b3360009081526003602052604081206001015491925090610db59083906119b4565b67ffffffffffffffff811115610dcd57610dcd6117c7565b604051908082528060200260200182016040528015610df6578160200160208202803683370190505b509050815b33600090815260036020526040902060010154811015610ed3576000818152600460205260408120549003610e5857600082610e3785846119b4565b81518110610e4757610e4761196e565b602002602001018181525050610ec1565b600081815260046020908152604080832054338452600283528184208585528352818420546005909352922054610e8f9190611a00565b610e999190611914565b82610ea485846119b4565b81518110610eb457610eb461196e565b6020026020010181815250505b80610ecb81611984565b915050610dfb565b50919491935090915050565b6000546001600160a01b03163314610f095760405162461bcd60e51b8152600401610573906119dd565b610f347f00000000000000000000000000000000000000000000000000000000000000003383611558565b50565b600080546001600160a01b03163314610f625760405162461bcd60e51b8152600401610573906119dd565b8151835114610fa65760405162461bcd60e51b815260206004820152601060248201526f3830b930b6b2ba32b9399032b93937b960811b6044820152606401610573565b60005b835181101561107957828181518110610fc457610fc461196e565b602002602001015182610fd79190611936565b9150828181518110610feb57610feb61196e565b6020026020010151600560008684815181106110095761100961196e565b60200260200101518152602001908152602001600020819055506006548482815181106110385761103861196e565b60200260200101511115611067578381815181106110585761105861196e565b60200260200101516006819055505b8061107181611984565b915050610fa9565b506110a67f000000000000000000000000000000000000000000000000000000000000000033308461143e565b60408051600081526020810183905233917fc3991418cacd70a010fce559a44fcbb47534ca43bf7543964bdca2639f6e6e5a910160405180910390a292915050565b6000546001600160a01b031633146111125760405162461bcd60e51b8152600401610573906119dd565b61113e7f000000000000000000000000000000000000000000000000000000000000000033308461143e565b6000828152600560205260408120805483929061115c908490611936565b90915550506006548211156111715760068290555b604080518381526020810183905233917fc3991418cacd70a010fce559a44fcbb47534ca43bf7543964bdca2639f6e6e5a910160405180910390a25050565b600060ff7f0000000000000000000000000000000000000000000000000000000000000000166111e261025842611914565b6111ec91906119b4565b3360009081526003602052604081205491925090805b336000908152600360205260409020600101548110156112a5578381116112a55761122e816001611936565b600082815260046020526040902054909250156112935760008181526004602090815260408083205433845260028352818420858552835281842054600590935292205461127c9190611a00565b6112869190611914565b6112909084611936565b92505b8061129d81611984565b915050611202565b50336000908152600360205260408120829101556112e47f00000000000000000000000000000000000000000000000000000000000000003384611558565b60405182815233907fba8de60c3403ec381d1d484652ea1980e3c3e56359195c92525bff4ce47ad98e9060200160405180910390a2505050565b6009602052816000526040600020818154811061133a57600080fd5b90600052602060002001600091509150505481565b6003602052816000526040600020816002811061136b57600080fd5b01549150829050565b60006113a160017f0000000000000000000000000000000000000000000000000000000000000000611a17565b60ff1660017f000000000000000000000000000000000000000000000000000000000000000060ff166001856113d79190611a17565b60ff1661140560017f00000000000000000000000000000000000000000000000000000000000000006119b4565b61140f9190611a00565b6114199190611936565b61142391906119b4565b61142d9085611a00565b6114379190611914565b9392505050565b604080516001600160a01b0385811660248301528481166044830152606480830185905283518084039091018152608490920183526020820180516001600160e01b03166323b872dd60e01b17905291516000928392908816916114a29190611a30565b6000604051808303816000865af19150503d80600081146114df576040519150601f19603f3d011682016040523d82523d6000602084013e6114e4565b606091505b509150915081801561150e57508051158061150e57508080602001905181019061150e9190611a5f565b6115505760405162461bcd60e51b81526020600482015260136024820152721d1c985b9cd9995c919c9bdb4819985a5b1959606a1b6044820152606401610573565b505050505050565b604080516001600160a01b038481166024830152604480830185905283518084039091018152606490920183526020820180516001600160e01b031663a9059cbb60e01b17905291516000928392908716916115b49190611a30565b6000604051808303816000865af19150503d80600081146115f1576040519150601f19603f3d011682016040523d82523d6000602084013e6115f6565b606091505b50915091508180156116205750805115806116205750808060200190518101906116209190611a5f565b61165e5760405162461bcd60e51b815260206004820152600f60248201526e1514905394d1915497d19052531151608a1b6044820152606401610573565b5050505050565b60006020828403121561167757600080fd5b5035919050565b6000806040838503121561169157600080fd5b82359150602083013560ff811681146116a957600080fd5b809150509250929050565b80356001600160a01b03811681146116cb57600080fd5b919050565b6000602082840312156116e257600080fd5b611437826116b4565b600080604083850312156116fe57600080fd5b611707836116b4565b946020939093013593505050565b602080825282518282018190526000919060409081850190868401855b8281101561176c57815180518552868101518786015285810151868601526060908101519085015260809093019290850190600101611732565b5091979650505050505050565b6000604082018483526020604081850152818551808452606086019150828701935060005b818110156117ba5784518352938301939183019160010161179e565b5090979650505050505050565b634e487b7160e01b600052604160045260246000fd5b600082601f8301126117ee57600080fd5b8135602067ffffffffffffffff8083111561180b5761180b6117c7565b8260051b604051601f19603f83011681018181108482111715611830576118306117c7565b60405293845285810183019383810192508785111561184e57600080fd5b83870191505b8482101561186d57813583529183019190830190611854565b979650505050505050565b6000806040838503121561188b57600080fd5b823567ffffffffffffffff808211156118a357600080fd5b6118af868387016117dd565b935060208501359150808211156118c557600080fd5b506118d2858286016117dd565b9150509250929050565b600080604083850312156118ef57600080fd5b50508035926020909101359150565b634e487b7160e01b600052601160045260246000fd5b60008261193157634e487b7160e01b600052601260045260246000fd5b500490565b80820180821115611949576119496118fe565b92915050565b600060ff821660ff8103611965576119656118fe565b60010192915050565b634e487b7160e01b600052603260045260246000fd5b600060018201611996576119966118fe565b5060010190565b6000816119ac576119ac6118fe565b506000190190565b81810381811115611949576119496118fe565b634e487b7160e01b600052603160045260246000fd5b6020808252600990820152683337b93134b23232b760b91b604082015260600190565b8082028115828204841417611949576119496118fe565b60ff8281168282160390811115611949576119496118fe565b6000825160005b81811015611a515760208186018101518583015201611a37565b506000920191825250919050565b600060208284031215611a7157600080fd5b8151801515811461143757600080fdfea2646970667358221220e3e19b9e07c26db09d020c615ef2adbbf9c48361763cbc1ac2d271a9b18c917964736f6c63430008110033",
  "linkReferences": {},
  "deployedLinkReferences": {}
}