{
  "_format": "hh-sol-artifact-1",
  "contractName": "StakeERC20",
  "sourceName": "contracts/stakeERC20.sol",
  "abi": [
    {
      "inputs": [
        {
          "internalType": "uint8",
          "name": "maxWeeks",
          "type": "uint8"
        },
        {
          "internalType": "uint256",
          "name": "maxScale",
          "type": "uint256"
        },
        {
          "internalType": "address",
          "name": "_rewardToken",
          "type": "address"
        },
        {
          "internalType": "address",
          "name": "_lpToken",
          "type": "address"
        }
      ],
      "stateMutability": "nonpayable",
      "type": "constructor"
    },
    {
      "anonymous": false,
      "inputs": [
        {
          "indexed": true,
          "internalType": "address",
          "name": "user",
          "type": "address"
        },
        {
          "indexed": false,
          "internalType": "uint256",
          "name": "amount",
          "type": "uint256"
        }
      ],
      "name": "ClaimReward",
      "type": "event"
    },
    {
      "anonymous": false,
      "inputs": [
        {
          "indexed": true,
          "internalType": "address",
          "name": "user",
          "type": "address"
        },
        {
          "indexed": false,
          "internalType": "uint256",
          "name": "no",
          "type": "uint256"
        },
        {
          "indexed": false,
          "internalType": "uint256",
          "name": "amount",
          "type": "uint256"
        }
      ],
      "name": "SetReward",
      "type": "event"
    },
    {
      "anonymous": false,
      "inputs": [
        {
          "indexed": true,
          "internalType": "address",
          "name": "user",
          "type": "address"
        },
        {
          "indexed": false,
          "internalType": "uint256",
          "name": "id",
          "type": "uint256"
        },
        {
          "indexed": false,
          "internalType": "uint256",
          "name": "amount",
          "type": "uint256"
        },
        {
          "indexed": false,
          "internalType": "uint8",
          "name": "k",
          "type": "uint8"
        }
      ],
      "name": "Stake",
      "type": "event"
    },
    {
      "anonymous": false,
      "inputs": [
        {
          "indexed": true,
          "internalType": "address",
          "name": "user",
          "type": "address"
        },
        {
          "indexed": false,
          "internalType": "uint256",
          "name": "amount",
          "type": "uint256"
        }
      ],
      "name": "Withdraw",
      "type": "event"
    },
    {
      "inputs": [],
      "name": "MAX_SCALE",
      "outputs": [
        {
          "internalType": "uint256",
          "name": "",
          "type": "uint256"
        }
      ],
      "stateMutability": "view",
      "type": "function"
    },
    {
      "inputs": [],
      "name": "MAX_WEEKS",
      "outputs": [
        {
          "internalType": "uint8",
          "name": "",
          "type": "uint8"
        }
      ],
      "stateMutability": "view",
      "type": "function"
    },
    {
      "inputs": [],
      "name": "WEEK_SECONDS",
      "outputs": [
        {
          "internalType": "uint24",
          "name": "",
          "type": "uint24"
        }
      ],
      "stateMutability": "view",
      "type": "function"
    },
    {
      "inputs": [],
      "name": "acceptSetter",
      "outputs": [],
      "stateMutability": "nonpayable",
      "type": "function"
    },
    {
      "inputs": [
        {
          "internalType": "uint256",
          "name": "",
          "type": "uint256"
        },
        {
          "internalType": "uint256",
          "name": "",
          "type": "uint256"
        }
      ],
      "name": "bClaimReward",
      "outputs": [
        {
          "internalType": "bool",
          "name": "",
          "type": "bool"
        }
      ],
      "stateMutability": "view",
      "type": "function"
    },
    {
      "inputs": [],
      "name": "claimReward",
      "outputs": [],
      "stateMutability": "nonpayable",
      "type": "function"
    },
    {
      "inputs": [
        {
          "internalType": "uint256",
          "name": "amount",
          "type": "uint256"
        },
        {
          "internalType": "uint8",
          "name": "k",
          "type": "uint8"
        }
      ],
      "name": "getScore",
      "outputs": [
        {
          "internalType": "uint256",
          "name": "score",
          "type": "uint256"
        }
      ],
      "stateMutability": "view",
      "type": "function"
    },
    {
      "inputs": [],
      "name": "getStaking",
      "outputs": [
        {
          "internalType": "uint256",
          "name": "total",
          "type": "uint256"
        },
        {
          "internalType": "uint256",
          "name": "staking",
          "type": "uint256"
        }
      ],
      "stateMutability": "view",
      "type": "function"
    },
    {
      "inputs": [],
      "name": "latestNo",
      "outputs": [
        {
          "internalType": "uint256",
          "name": "",
          "type": "uint256"
        }
      ],
      "stateMutability": "view",
      "type": "function"
    },
    {
      "inputs": [],
      "name": "lpToken",
      "outputs": [
        {
          "internalType": "address",
          "name": "",
          "type": "address"
        }
      ],
      "stateMutability": "view",
      "type": "function"
    },
    {
      "inputs": [],
      "name": "nonce",
      "outputs": [
        {
          "internalType": "uint256",
          "name": "",
          "type": "uint256"
        }
      ],
      "stateMutability": "view",
      "type": "function"
    },
    {
      "inputs": [],
      "name": "owner",
      "outputs": [
        {
          "internalType": "address",
          "name": "",
          "type": "address"
        }
      ],
      "stateMutability": "view",
      "type": "function"
    },
    {
      "inputs": [],
      "name": "rewardToken",
      "outputs": [
        {
          "internalType": "address",
          "name": "",
          "type": "address"
        }
      ],
      "stateMutability": "view",
      "type": "function"
    },
    {
      "inputs": [
        {
          "internalType": "uint256",
          "name": "",
          "type": "uint256"
        }
      ],
      "name": "rewardsOf",
      "outputs": [
        {
          "internalType": "uint256",
          "name": "",
          "type": "uint256"
        }
      ],
      "stateMutability": "view",
      "type": "function"
    },
    {
      "inputs": [
        {
          "internalType": "uint256[]",
          "name": "nos",
          "type": "uint256[]"
        },
        {
          "internalType": "uint256[]",
          "name": "amounts",
          "type": "uint256[]"
        }
      ],
      "name": "setReward",
      "outputs": [
        {
          "internalType": "uint256",
          "name": "total",
          "type": "uint256"
        }
      ],
      "stateMutability": "nonpayable",
      "type": "function"
    },
    {
      "inputs": [
        {
          "internalType": "uint256",
          "name": "no",
          "type": "uint256"
        },
        {
          "internalType": "uint256",
          "name": "amount",
          "type": "uint256"
        }
      ],
      "name": "setReward",
      "outputs": [],
      "stateMutability": "nonpayable",
      "type": "function"
    },
    {
      "inputs": [
        {
          "internalType": "uint256",
          "name": "amount",
          "type": "uint256"
        },
        {
          "internalType": "uint8",
          "name": "k",
          "type": "uint8"
        }
      ],
      "name": "stake",
      "outputs": [],
      "stateMutability": "nonpayable",
      "type": "function"
    },
    {
      "inputs": [
        {
          "internalType": "uint256",
          "name": "",
          "type": "uint256"
        }
      ],
      "name": "stakingERC20s",
      "outputs": [
        {
          "internalType": "uint256",
          "name": "amount",
          "type": "uint256"
        },
        {
          "internalType": "uint256",
          "name": "score",
          "type": "uint256"
        },
        {
          "internalType": "uint256",
          "name": "beginNo",
          "type": "uint256"
        },
        {
          "internalType": "uint256",
          "name": "endNo",
          "type": "uint256"
        },
        {
          "internalType": "uint256",
          "name": "toClaimNo",
          "type": "uint256"
        }
      ],
      "stateMutability": "view",
      "type": "function"
    },
    {
      "inputs": [
        {
          "internalType": "address",
          "name": "_owner",
          "type": "address"
        }
      ],
      "name": "transferOwner",
      "outputs": [],
      "stateMutability": "nonpayable",
      "type": "function"
    },
    {
      "inputs": [
        {
          "internalType": "address",
          "name": "",
          "type": "address"
        },
        {
          "internalType": "uint256",
          "name": "",
          "type": "uint256"
        }
      ],
      "name": "userERC20s",
      "outputs": [
        {
          "internalType": "uint256",
          "name": "",
          "type": "uint256"
        }
      ],
      "stateMutability": "view",
      "type": "function"
    },
    {
      "inputs": [
        {
          "internalType": "uint256",
          "name": "amount",
          "type": "uint256"
        }
      ],
      "name": "withdraw",
      "outputs": [
        {
          "internalType": "uint256",
          "name": "total",
          "type": "uint256"
        }
      ],
      "stateMutability": "nonpayable",
      "type": "function"
    }
  ],
  "bytecode": "0x61010060405234801561001157600080fd5b506040516114e53803806114e583398101604081905261003091610083565b6001600160a01b0391821660805260ff90931660a05260c091909152600080546001600160a01b031916331790551660e0526100d9565b80516001600160a01b038116811461007e57600080fd5b919050565b6000806000806080858703121561009957600080fd5b845160ff811681146100aa57600080fd5b602086015190945092506100c060408601610067565b91506100ce60608601610067565b905092959194509250565b60805160a05160c05160e051611394610151600039600081816101d301528181610446015261076c0152600081816103850152610d70015260008181610339015281816103de01528181610d0c0152610d370152600081816103ac0152818161088e01528181610a720152610c7a01526113946000f3fe608060405234801561001057600080fd5b50600436106101375760003560e01c8063a218de15116100b8578063cd671a581161007c578063cd671a58146102d9578063ce6d3e3e146102f6578063e11400bb14610334578063ee3453ed1461036d578063f6def7cf14610380578063f7c618c1146103a757600080fd5b8063a218de151461023d578063a47bd496146102a2578063affed0e0146102b5578063b88a802f146102be578063ba086501146102c657600080fd5b80634fb2e45d116100ff5780634fb2e45d146101b35780635f8e422f146101c65780635fcbd285146101ce5780637b1391a61461020d5780638da5cb5b1461022a57600080fd5b80630bce12841461013c57806310087fb11461016f57806329ed1cfd146101845780632e1a7d4d1461018d5780634d10c55a146101a0575b600080fd5b61015c61014a366004610ff4565b60046020526000908152604090205481565b6040519081526020015b60405180910390f35b61018261017d36600461100d565b6103ce565b005b61015c60055481565b61015c61019b366004610ff4565b6105e9565b61015c6101ae3660046110f4565b6107cd565b6101826101c1366004611174565b6108f7565b610182610943565b6101f57f000000000000000000000000000000000000000000000000000000000000000081565b6040516001600160a01b039091168152602001610166565b610215610994565b60408051928352602083019190915201610166565b6000546101f5906001600160a01b031681565b61027a61024b366004610ff4565b600760205260009081526040902080546001820154600283015460038401546004909401549293919290919085565b604080519586526020860194909452928401919091526060830152608082015260a001610166565b6101826102b036600461118f565b610a43565b61015c60065481565b610182610afc565b61015c6102d43660046111b1565b610cd2565b6102e261025881565b60405162ffffff9091168152602001610166565b61032461030436600461118f565b600260209081526000928352604080842090915290825290205460ff1681565b6040519015158152602001610166565b61035b7f000000000000000000000000000000000000000000000000000000000000000081565b60405160ff9091168152602001610166565b61015c61037b36600461100d565b610d03565b61015c7f000000000000000000000000000000000000000000000000000000000000000081565b6101f57f000000000000000000000000000000000000000000000000000000000000000081565b60008160ff1611801561040757507f000000000000000000000000000000000000000000000000000000000000000060ff168160ff1611155b6104415760405162461bcd60e51b8152602060048201526006602482015265359018bf1a9960d11b60448201526064015b60405180910390fd5b61046d7f0000000000000000000000000000000000000000000000000000000000000000333085610dcd565b600061047b610258426111f1565b610486906001611213565b905060006104948484610d03565b905060005b8360ff168160ff1610156104ee5781600360006104b960ff851687611213565b815260200190815260200160002060008282546104d69190611213565b909155508190506104e68161122c565b915050610499565b506040518060a001604052808581526020018281526020018381526020018460ff168461051b9190611213565b8152602090810184905260068054600090815260078352604080822085518155858501516001808301919091558683015160028301556060808801516003840155608090970151600490920191909155338084526008865282842085548154938401825590855293869020909101929092559154825190815292830188905260ff871683830152905190927f6fa2f6021ee337436cdf2b2570285886da18bc06402ce284d296504a0fe8f875928290030190a2600680549060006105de8361124b565b919050555050505050565b6000806105f8610258426111f1565b336000908152600860205260408120549192509061061890600190611264565b90505b33600090815260086020526040812080548390811061063c5761063c611277565b90600052602060002001549050826007600083815260200190815260200160002060030154116107535760008181526007602052604090205461067f9085611213565b93508484116107295733600090815260086020526040902080546106a590600190611264565b815481106106b5576106b5611277565b6000918252602080832090910154338352600890915260409091208054849081106106e2576106e2611277565b600091825260208083209091019290925533815260089091526040902080548061070e5761070e61128d565b60019003818190600052602060002001600090559055610746565b6107338585611264565b6000828152600760205260409020558493505b8484036107535750610766565b508061075e816112a3565b91505061061b565b506107927f00000000000000000000000000000000000000000000000000000000000000003384610ee7565b60405182815233907f884edad9ce6fa2440d8a54cc123490eb96d2768479d49ff9c7366125a94243649060200160405180910390a250919050565b600080546001600160a01b031633146107f85760405162461bcd60e51b8152600401610438906112ba565b60005b83518110156108885782818151811061081657610816611277565b6020026020010151826108299190611213565b915082818151811061083d5761083d611277565b60200260200101516004600086848151811061085b5761085b611277565b602002602001015181526020019081526020016000208190555080806108809061124b565b9150506107fb565b506108b57f0000000000000000000000000000000000000000000000000000000000000000333084610dcd565b60408051600081526020810183905233917fc3991418cacd70a010fce559a44fcbb47534ca43bf7543964bdca2639f6e6e5a910160405180910390a292915050565b6000546001600160a01b031633146109215760405162461bcd60e51b8152600401610438906112ba565b600180546001600160a01b0319166001600160a01b0392909216919091179055565b6001546001600160a01b0316331461096d5760405162461bcd60e51b8152600401610438906112ba565b60018054600080546001600160a01b03199081166001600160a01b03841617909155169055565b600080806109a4610258426111f1565b905060005b33600090815260086020526040902054811015610a3d573360009081526008602052604081208054839081106109e1576109e1611277565b600091825260208083209091015480835260079091526040909120805460039091015491925090841015610a1c57610a198186611213565b94505b610a268187611213565b955050508080610a359061124b565b9150506109a9565b50509091565b6000546001600160a01b03163314610a6d5760405162461bcd60e51b8152600401610438906112ba565b610a997f0000000000000000000000000000000000000000000000000000000000000000333084610dcd565b60008281526004602052604081208054839290610ab7908490611213565b9091555050604080518381526020810183905233917fc3991418cacd70a010fce559a44fcbb47534ca43bf7543964bdca2639f6e6e5a91015b60405180910390a25050565b6000610b0a610258426111f1565b90506000805b33600090815260086020526040902054811015610c7457336000908152600860205260408120805483908110610b4857610b48611277565b600091825260208083209091015480835260079091526040909120600401549091505b600082815260076020526040902060030154811015610c5f57600082815260026020908152604080832084845290915290205460ff1680610bab57508481115b80610bc25750600081815260046020526040902054155b610c4d5760008281526002602090815260408083208484529091529020805460ff19166001908117909155610bf8908290611213565b6000838152600760209081526040808320600480820195909555858452600383528184205460019091015494909252909120549091610c36916112dd565b610c4091906111f1565b610c4a9085611213565b93505b80610c578161124b565b915050610b6b565b50508080610c6c9061124b565b915050610b10565b50610ca07f00000000000000000000000000000000000000000000000000000000000000003383610ee7565b60405181815233907fba8de60c3403ec381d1d484652ea1980e3c3e56359195c92525bff4ce47ad98e90602001610af0565b60086020528160005260406000208181548110610cee57600080fd5b90600052602060002001600091509150505481565b6000610d3060017f00000000000000000000000000000000000000000000000000000000000000006112f4565b60ff1660017f000000000000000000000000000000000000000000000000000000000000000060ff16600185610d6691906112f4565b60ff16610d9460017f0000000000000000000000000000000000000000000000000000000000000000611264565b610d9e91906112dd565b610da89190611213565b610db29190611264565b610dbc90856112dd565b610dc691906111f1565b9392505050565b604080516001600160a01b0385811660248301528481166044830152606480830185905283518084039091018152608490920183526020820180516001600160e01b03166323b872dd60e01b1790529151600092839290881691610e31919061130d565b6000604051808303816000865af19150503d8060008114610e6e576040519150601f19603f3d011682016040523d82523d6000602084013e610e73565b606091505b5091509150818015610e9d575080511580610e9d575080806020019051810190610e9d919061133c565b610edf5760405162461bcd60e51b81526020600482015260136024820152721d1c985b9cd9995c919c9bdb4819985a5b1959606a1b6044820152606401610438565b505050505050565b604080516001600160a01b038481166024830152604480830185905283518084039091018152606490920183526020820180516001600160e01b031663a9059cbb60e01b1790529151600092839290871691610f43919061130d565b6000604051808303816000865af19150503d8060008114610f80576040519150601f19603f3d011682016040523d82523d6000602084013e610f85565b606091505b5091509150818015610faf575080511580610faf575080806020019051810190610faf919061133c565b610fed5760405162461bcd60e51b815260206004820152600f60248201526e1514905394d1915497d19052531151608a1b6044820152606401610438565b5050505050565b60006020828403121561100657600080fd5b5035919050565b6000806040838503121561102057600080fd5b82359150602083013560ff8116811461103857600080fd5b809150509250929050565b634e487b7160e01b600052604160045260246000fd5b600082601f83011261106a57600080fd5b8135602067ffffffffffffffff8083111561108757611087611043565b8260051b604051601f19603f830116810181811084821117156110ac576110ac611043565b6040529384528581018301938381019250878511156110ca57600080fd5b83870191505b848210156110e9578135835291830191908301906110d0565b979650505050505050565b6000806040838503121561110757600080fd5b823567ffffffffffffffff8082111561111f57600080fd5b61112b86838701611059565b9350602085013591508082111561114157600080fd5b5061114e85828601611059565b9150509250929050565b80356001600160a01b038116811461116f57600080fd5b919050565b60006020828403121561118657600080fd5b610dc682611158565b600080604083850312156111a257600080fd5b50508035926020909101359150565b600080604083850312156111c457600080fd5b6111cd83611158565b946020939093013593505050565b634e487b7160e01b600052601160045260246000fd5b60008261120e57634e487b7160e01b600052601260045260246000fd5b500490565b80820180821115611226576112266111db565b92915050565b600060ff821660ff8103611242576112426111db565b60010192915050565b60006001820161125d5761125d6111db565b5060010190565b81810381811115611226576112266111db565b634e487b7160e01b600052603260045260246000fd5b634e487b7160e01b600052603160045260246000fd5b6000816112b2576112b26111db565b506000190190565b6020808252600990820152683337b93134b23232b760b91b604082015260600190565b8082028115828204841417611226576112266111db565b60ff8281168282160390811115611226576112266111db565b6000825160005b8181101561132e5760208186018101518583015201611314565b506000920191825250919050565b60006020828403121561134e57600080fd5b81518015158114610dc657600080fdfea26469706673582212207402d9f97304a9ed21fa55e66e01ddd7ffc81a7881420a0680057e994ddff22564736f6c63430008110033",
  "linkReferences": {},
  "deployedLinkReferences": {}
}