{
  "_format": "hh-sol-artifact-1",
  "contractName": "StakeERC20Liquidity",
  "sourceName": "contracts/stakeERC20.sol",
  "abi": [
    {
      "inputs": [
        {
          "internalType": "address",
          "name": "_lpToken",
          "type": "address"
        },
        {
          "internalType": "address",
          "name": "_rewardToken",
          "type": "address"
        }
      ],
      "stateMutability": "nonpayable",
      "type": "constructor"
    },
    {
      "anonymous": false,
      "inputs": [
        {
          "indexed": true,
          "internalType": "address",
          "name": "user",
          "type": "address"
        },
        {
          "indexed": false,
          "internalType": "uint256",
          "name": "amount",
          "type": "uint256"
        }
      ],
      "name": "ClaimReward",
      "type": "event"
    },
    {
      "anonymous": false,
      "inputs": [
        {
          "indexed": true,
          "internalType": "address",
          "name": "user",
          "type": "address"
        },
        {
          "indexed": false,
          "internalType": "uint256",
          "name": "no",
          "type": "uint256"
        },
        {
          "indexed": false,
          "internalType": "uint256",
          "name": "amount",
          "type": "uint256"
        }
      ],
      "name": "SetReward",
      "type": "event"
    },
    {
      "anonymous": false,
      "inputs": [
        {
          "indexed": true,
          "internalType": "address",
          "name": "user",
          "type": "address"
        },
        {
          "indexed": false,
          "internalType": "uint256",
          "name": "tokenId",
          "type": "uint256"
        },
        {
          "indexed": false,
          "internalType": "uint256",
          "name": "amount",
          "type": "uint256"
        },
        {
          "indexed": false,
          "internalType": "uint8",
          "name": "k",
          "type": "uint8"
        }
      ],
      "name": "Stake",
      "type": "event"
    },
    {
      "anonymous": false,
      "inputs": [
        {
          "indexed": true,
          "internalType": "address",
          "name": "user",
          "type": "address"
        },
        {
          "indexed": false,
          "internalType": "uint256",
          "name": "tokenId",
          "type": "uint256"
        }
      ],
      "name": "Withdraw",
      "type": "event"
    },
    {
      "inputs": [],
      "name": "MAX_SCALE",
      "outputs": [
        {
          "internalType": "uint256",
          "name": "",
          "type": "uint256"
        }
      ],
      "stateMutability": "view",
      "type": "function"
    },
    {
      "inputs": [],
      "name": "MAX_WEEKS",
      "outputs": [
        {
          "internalType": "uint8",
          "name": "",
          "type": "uint8"
        }
      ],
      "stateMutability": "view",
      "type": "function"
    },
    {
      "inputs": [],
      "name": "WEEK_SECONDS",
      "outputs": [
        {
          "internalType": "uint24",
          "name": "",
          "type": "uint24"
        }
      ],
      "stateMutability": "view",
      "type": "function"
    },
    {
      "inputs": [],
      "name": "acceptSetter",
      "outputs": [],
      "stateMutability": "nonpayable",
      "type": "function"
    },
    {
      "inputs": [
        {
          "internalType": "uint256",
          "name": "",
          "type": "uint256"
        },
        {
          "internalType": "uint256",
          "name": "",
          "type": "uint256"
        }
      ],
      "name": "bClaimReward",
      "outputs": [
        {
          "internalType": "bool",
          "name": "",
          "type": "bool"
        }
      ],
      "stateMutability": "view",
      "type": "function"
    },
    {
      "inputs": [],
      "name": "claimReward",
      "outputs": [],
      "stateMutability": "nonpayable",
      "type": "function"
    },
    {
      "inputs": [],
      "name": "divConst",
      "outputs": [
        {
          "internalType": "uint32",
          "name": "",
          "type": "uint32"
        }
      ],
      "stateMutability": "view",
      "type": "function"
    },
    {
      "inputs": [
        {
          "internalType": "uint256",
          "name": "amount",
          "type": "uint256"
        },
        {
          "internalType": "uint8",
          "name": "k",
          "type": "uint8"
        }
      ],
      "name": "getScore",
      "outputs": [
        {
          "internalType": "uint256",
          "name": "",
          "type": "uint256"
        }
      ],
      "stateMutability": "view",
      "type": "function"
    },
    {
      "inputs": [],
      "name": "getStaking",
      "outputs": [
        {
          "internalType": "uint256",
          "name": "",
          "type": "uint256"
        },
        {
          "internalType": "uint256",
          "name": "",
          "type": "uint256"
        }
      ],
      "stateMutability": "view",
      "type": "function"
    },
    {
      "inputs": [],
      "name": "latestNo",
      "outputs": [
        {
          "internalType": "uint256",
          "name": "",
          "type": "uint256"
        }
      ],
      "stateMutability": "view",
      "type": "function"
    },
    {
      "inputs": [],
      "name": "lpToken",
      "outputs": [
        {
          "internalType": "address",
          "name": "",
          "type": "address"
        }
      ],
      "stateMutability": "view",
      "type": "function"
    },
    {
      "inputs": [],
      "name": "nonce",
      "outputs": [
        {
          "internalType": "uint256",
          "name": "",
          "type": "uint256"
        }
      ],
      "stateMutability": "view",
      "type": "function"
    },
    {
      "inputs": [],
      "name": "owner",
      "outputs": [
        {
          "internalType": "address",
          "name": "",
          "type": "address"
        }
      ],
      "stateMutability": "view",
      "type": "function"
    },
    {
      "inputs": [],
      "name": "rewardToken",
      "outputs": [
        {
          "internalType": "address",
          "name": "",
          "type": "address"
        }
      ],
      "stateMutability": "view",
      "type": "function"
    },
    {
      "inputs": [
        {
          "internalType": "uint256",
          "name": "",
          "type": "uint256"
        }
      ],
      "name": "rewardsOf",
      "outputs": [
        {
          "internalType": "uint256",
          "name": "",
          "type": "uint256"
        }
      ],
      "stateMutability": "view",
      "type": "function"
    },
    {
      "inputs": [
        {
          "internalType": "uint256",
          "name": "no",
          "type": "uint256"
        },
        {
          "internalType": "uint256",
          "name": "amount",
          "type": "uint256"
        }
      ],
      "name": "setReward",
      "outputs": [],
      "stateMutability": "nonpayable",
      "type": "function"
    },
    {
      "inputs": [
        {
          "internalType": "uint8",
          "name": "maxWeeks",
          "type": "uint8"
        },
        {
          "internalType": "uint256",
          "name": "maxScale",
          "type": "uint256"
        }
      ],
      "name": "setScoreFormula",
      "outputs": [],
      "stateMutability": "nonpayable",
      "type": "function"
    },
    {
      "inputs": [
        {
          "internalType": "uint256",
          "name": "amount",
          "type": "uint256"
        },
        {
          "internalType": "uint8",
          "name": "k",
          "type": "uint8"
        }
      ],
      "name": "stake",
      "outputs": [],
      "stateMutability": "nonpayable",
      "type": "function"
    },
    {
      "inputs": [
        {
          "internalType": "uint256",
          "name": "",
          "type": "uint256"
        }
      ],
      "name": "stakingERC20s",
      "outputs": [
        {
          "internalType": "uint256",
          "name": "amount",
          "type": "uint256"
        },
        {
          "internalType": "uint256",
          "name": "score",
          "type": "uint256"
        },
        {
          "internalType": "uint256",
          "name": "beginNo",
          "type": "uint256"
        },
        {
          "internalType": "uint256",
          "name": "endNo",
          "type": "uint256"
        },
        {
          "internalType": "uint256",
          "name": "toClaimedNo",
          "type": "uint256"
        }
      ],
      "stateMutability": "view",
      "type": "function"
    },
    {
      "inputs": [
        {
          "internalType": "address",
          "name": "_owner",
          "type": "address"
        }
      ],
      "name": "transferOwner",
      "outputs": [],
      "stateMutability": "nonpayable",
      "type": "function"
    },
    {
      "inputs": [
        {
          "internalType": "address",
          "name": "",
          "type": "address"
        },
        {
          "internalType": "uint256",
          "name": "",
          "type": "uint256"
        }
      ],
      "name": "userERC20s",
      "outputs": [
        {
          "internalType": "uint256",
          "name": "",
          "type": "uint256"
        }
      ],
      "stateMutability": "view",
      "type": "function"
    },
    {
      "inputs": [
        {
          "internalType": "uint256",
          "name": "amount",
          "type": "uint256"
        }
      ],
      "name": "withdraw",
      "outputs": [],
      "stateMutability": "nonpayable",
      "type": "function"
    }
  ],
  "bytecode": "0x60c060405234801561001057600080fd5b5060405161122838038061122883398101604081905261002f91610086565b600080546001600160a01b031916331790556001600160a01b039182166080521660a0526009805460ff191660341790556002600a556100b9565b80516001600160a01b038116811461008157600080fd5b919050565b6000806040838503121561009957600080fd5b6100a28361006a565b91506100b06020840161006a565b90509250929050565b60805160a05161112e6100fa600039600081816103a00152818161098a0152610b930152600081816101cb0152818161041d015261071f015261112e6000f3fe608060405234801561001057600080fd5b50600436106101425760003560e01c8063a218de15116100b8578063cd671a581161007c578063cd671a5814610304578063ce6d3e3e14610322578063e11400bb14610360578063ee3453ed1461037f578063f6def7cf14610392578063f7c618c11461039b57600080fd5b8063a218de1514610267578063a47bd496146102cd578063affed0e0146102e0578063b88a802f146102e9578063ba086501146102f157600080fd5b80635f8e422f1161010a5780635f8e422f146101be5780635fcbd285146101c6578063721348e8146102055780637b1391a6146102185780637e4856c4146102355780638da5cb5b1461025457600080fd5b80630bce12841461014757806310087fb11461017a57806329ed1cfd1461018f5780632e1a7d4d146101985780634fb2e45d146101ab575b600080fd5b610167610155366004610e98565b60076020526000908152604090205481565b6040519081526020015b60405180910390f35b61018d610188366004610ec7565b6103c2565b005b61016760085481565b61018d6101a6366004610e98565b6105be565b61018d6101b9366004610f0a565b61077f565b61018d6107cb565b6101ed7f000000000000000000000000000000000000000000000000000000000000000081565b6040516001600160a01b039091168152602001610171565b61018d610213366004610f2c565b61081c565b6102206108a5565b60408051928352602083019190915201610171565b61023f620f424081565b60405163ffffffff9091168152602001610171565b6000546101ed906001600160a01b031681565b6102a5610275366004610e98565b60036020819052600091825260409091208054600182015460028301549383015460049093015491939092909185565b604080519586526020860194909452928401919091526060830152608082015260a001610171565b61018d6102db366004610f56565b61095b565b61016760025481565b61018d610a14565b6101676102ff366004610f78565b610beb565b61030e62093a8081565b60405162ffffff9091168152602001610171565b610350610330366004610f56565b600560209081526000928352604080842090915290825290205460ff1681565b6040519015158152602001610171565b60095461036d9060ff1681565b60405160ff9091168152602001610171565b61016761038d366004610ec7565b610c1c565b610167600a5481565b6101ed7f000000000000000000000000000000000000000000000000000000000000000081565b60008160ff161180156103de575060095460ff90811690821611155b6104185760405162461bcd60e51b8152602060048201526006602482015265359018bf1a9960d11b60448201526064015b60405180910390fd5b6104447f0000000000000000000000000000000000000000000000000000000000000000333085610c71565b600061045362093a8042610faa565b61045e906001610fcc565b9050600061046c8484610c1c565b905060005b8360ff168160ff1610156104c657816006600061049160ff851687610fcc565b815260200190815260200160002060008282546104ae9190610fcc565b909155508190506104be81610fdf565b915050610471565b506040518060a001604052808581526020018281526020018381526020018460ff16846104f39190610fcc565b815260209081018490526002805460009081526003808452604080832086518155868601516001808301919091558783015182870155606080890151948301949094556080909701516004918201553380855290865281842085548154988901825590855293869020909601929092559154815190815292830188905260ff8716908301527f6fa2f6021ee337436cdf2b2570285886da18bc06402ce284d296504a0fe8f875910160405180910390a2600280549060006105b383610ffe565b919050555050505050565b60006105cd62093a8042610faa565b33600090815260046020526040812054919250905b33600090815260046020526040812080548390811061060357610603611017565b9060005260206000200154905083600360008381526020019081526020016000206003015411610706576000818152600360205260409020546106469084610fcc565b92508483116106dc573360009081526004602052604090208054610668611017565b60009182526020808320909101543383526004909152604090912080548490811061069557610695611017565b60009182526020808320909101929092553381526004909152604090208054806106c1576106c161102d565b600190038181906000526020600020016000905590556106f9565b6106e68584611043565b6000828152600360205260409020558492505b8483036107065750610719565b508061071181611056565b9150506105e2565b506107457f00000000000000000000000000000000000000000000000000000000000000003383610d8b565b60405181815233907f884edad9ce6fa2440d8a54cc123490eb96d2768479d49ff9c7366125a94243649060200160405180910390a2505050565b6000546001600160a01b031633146107a95760405162461bcd60e51b815260040161040f9061106d565b600180546001600160a01b0319166001600160a01b0392909216919091179055565b6001546001600160a01b031633146107f55760405162461bcd60e51b815260040161040f9061106d565b60018054600080546001600160a01b03199081166001600160a01b03841617909155169055565b6000546001600160a01b031633146108465760405162461bcd60e51b815260040161040f9061106d565b6001811161088b5760405162461bcd60e51b81526020600482015260126024820152711b585e14d8d85b19481d1bdbc81cdb585b1b60721b604482015260640161040f565b6009805460ff191660ff9390931692909217909155600a55565b600080806108b662093a8042610faa565b905060008060005b33600090815260046020526040902054811015610950573360009081526004602052604081208054839081106108f6576108f6611017565b6000918252602080832090910154808352600391829052604090922080549101549192509086101561092f5761092c8185610fcc565b93505b6109398186610fcc565b94505050808061094890610ffe565b9150506108be565b509094909350915050565b6000546001600160a01b031633146109855760405162461bcd60e51b815260040161040f9061106d565b6109b17f0000000000000000000000000000000000000000000000000000000000000000333084610c71565b600082815260076020526040812080548392906109cf908490610fcc565b9091555050604080518381526020810183905233917fc3991418cacd70a010fce559a44fcbb47534ca43bf7543964bdca2639f6e6e5a91015b60405180910390a25050565b6000610a2362093a8042610faa565b90506000805b33600090815260046020526040902054811015610b8d57336000908152600460205260408120805483908110610a6157610a61611017565b600091825260208083209091015480835260039091526040909120600401549091505b60008281526003602081905260409091200154811015610b7857600082815260056020908152604080832084845290915290205460ff1680610ac557508481115b80610adc5750600081815260076020526040902054155b610b665760008281526005602090815260408083208484529091529020805460ff19166001908117909155610b12908290610fcc565b600083815260036020908152604080832060048101949094558483526006825280832054600190940154600790925290912054610b4f9190611090565b610b599190610faa565b610b639085610fcc565b93505b80610b7081610ffe565b915050610a84565b50508080610b8590610ffe565b915050610a29565b50610bb97f00000000000000000000000000000000000000000000000000000000000000003383610d8b565b60405181815233907fba8de60c3403ec381d1d484652ea1980e3c3e56359195c92525bff4ce47ad98e90602001610a08565b60046020528160005260406000208181548110610c0757600080fd5b90600052602060002001600091509150505481565b600954600a54600091829160ff91821691829190861690610c3f90600190611043565b610c499190611090565b610c539190610fcc565b610c5d9086611090565b610c679190610faa565b9150505b92915050565b604080516001600160a01b0385811660248301528481166044830152606480830185905283518084039091018152608490920183526020820180516001600160e01b03166323b872dd60e01b1790529151600092839290881691610cd591906110a7565b6000604051808303816000865af19150503d8060008114610d12576040519150601f19603f3d011682016040523d82523d6000602084013e610d17565b606091505b5091509150818015610d41575080511580610d41575080806020019051810190610d4191906110d6565b610d835760405162461bcd60e51b81526020600482015260136024820152721d1c985b9cd9995c919c9bdb4819985a5b1959606a1b604482015260640161040f565b505050505050565b604080516001600160a01b038481166024830152604480830185905283518084039091018152606490920183526020820180516001600160e01b031663a9059cbb60e01b1790529151600092839290871691610de791906110a7565b6000604051808303816000865af19150503d8060008114610e24576040519150601f19603f3d011682016040523d82523d6000602084013e610e29565b606091505b5091509150818015610e53575080511580610e53575080806020019051810190610e5391906110d6565b610e915760405162461bcd60e51b815260206004820152600f60248201526e1514905394d1915497d19052531151608a1b604482015260640161040f565b5050505050565b600060208284031215610eaa57600080fd5b5035919050565b803560ff81168114610ec257600080fd5b919050565b60008060408385031215610eda57600080fd5b82359150610eea60208401610eb1565b90509250929050565b80356001600160a01b0381168114610ec257600080fd5b600060208284031215610f1c57600080fd5b610f2582610ef3565b9392505050565b60008060408385031215610f3f57600080fd5b610f4883610eb1565b946020939093013593505050565b60008060408385031215610f6957600080fd5b50508035926020909101359150565b60008060408385031215610f8b57600080fd5b610f4883610ef3565b634e487b7160e01b600052601160045260246000fd5b600082610fc757634e487b7160e01b600052601260045260246000fd5b500490565b80820180821115610c6b57610c6b610f94565b600060ff821660ff8103610ff557610ff5610f94565b60010192915050565b60006001820161101057611010610f94565b5060010190565b634e487b7160e01b600052603260045260246000fd5b634e487b7160e01b600052603160045260246000fd5b81810381811115610c6b57610c6b610f94565b60008161106557611065610f94565b506000190190565b6020808252600990820152683337b93134b23232b760b91b604082015260600190565b8082028115828204841417610c6b57610c6b610f94565b6000825160005b818110156110c857602081860181015185830152016110ae565b506000920191825250919050565b6000602082840312156110e857600080fd5b81518015158114610f2557600080fdfea2646970667358221220f76cbf14c663b2688509ad0d37cb44dad9ba6d4a581109bea9266f13eb75cbb864736f6c63430008110033",
  "linkReferences": {},
  "deployedLinkReferences": {}
}