{
  "_format": "hh-sol-artifact-1",
  "contractName": "StakeERC20",
  "sourceName": "contracts/stakeERC20.sol",
  "abi": [
    {
      "inputs": [
        {
          "internalType": "uint8",
          "name": "maxWeeks",
          "type": "uint8"
        },
        {
          "internalType": "uint256",
          "name": "maxScale",
          "type": "uint256"
        },
        {
          "internalType": "uint8",
          "name": "lockWeeks",
          "type": "uint8"
        },
        {
          "internalType": "uint256",
          "name": "beginTime",
          "type": "uint256"
        },
        {
          "internalType": "uint256",
          "name": "endTime",
          "type": "uint256"
        },
        {
          "internalType": "address",
          "name": "_rewardToken",
          "type": "address"
        },
        {
          "internalType": "address",
          "name": "_lpToken",
          "type": "address"
        }
      ],
      "stateMutability": "nonpayable",
      "type": "constructor"
    },
    {
      "anonymous": false,
      "inputs": [
        {
          "indexed": true,
          "internalType": "address",
          "name": "user",
          "type": "address"
        },
        {
          "indexed": false,
          "internalType": "uint256",
          "name": "amount",
          "type": "uint256"
        }
      ],
      "name": "ClaimReward",
      "type": "event"
    },
    {
      "anonymous": false,
      "inputs": [
        {
          "indexed": true,
          "internalType": "address",
          "name": "user",
          "type": "address"
        },
        {
          "indexed": false,
          "internalType": "uint256",
          "name": "no",
          "type": "uint256"
        },
        {
          "indexed": false,
          "internalType": "uint256",
          "name": "amount",
          "type": "uint256"
        }
      ],
      "name": "SetReward",
      "type": "event"
    },
    {
      "anonymous": false,
      "inputs": [
        {
          "indexed": true,
          "internalType": "address",
          "name": "user",
          "type": "address"
        },
        {
          "indexed": false,
          "internalType": "uint256",
          "name": "id",
          "type": "uint256"
        },
        {
          "indexed": false,
          "internalType": "uint256",
          "name": "amount",
          "type": "uint256"
        },
        {
          "indexed": false,
          "internalType": "uint8",
          "name": "k",
          "type": "uint8"
        }
      ],
      "name": "Stake",
      "type": "event"
    },
    {
      "anonymous": false,
      "inputs": [
        {
          "indexed": true,
          "internalType": "address",
          "name": "user",
          "type": "address"
        },
        {
          "indexed": false,
          "internalType": "uint256",
          "name": "amount",
          "type": "uint256"
        }
      ],
      "name": "Withdraw",
      "type": "event"
    },
    {
      "inputs": [],
      "name": "BEGIN_TIME",
      "outputs": [
        {
          "internalType": "uint256",
          "name": "",
          "type": "uint256"
        }
      ],
      "stateMutability": "view",
      "type": "function"
    },
    {
      "inputs": [],
      "name": "END_TIME",
      "outputs": [
        {
          "internalType": "uint256",
          "name": "",
          "type": "uint256"
        }
      ],
      "stateMutability": "view",
      "type": "function"
    },
    {
      "inputs": [],
      "name": "LOCK_WEEKNUM",
      "outputs": [
        {
          "internalType": "uint8",
          "name": "",
          "type": "uint8"
        }
      ],
      "stateMutability": "view",
      "type": "function"
    },
    {
      "inputs": [],
      "name": "MAX_SCALE",
      "outputs": [
        {
          "internalType": "uint256",
          "name": "",
          "type": "uint256"
        }
      ],
      "stateMutability": "view",
      "type": "function"
    },
    {
      "inputs": [],
      "name": "MAX_WEEKS",
      "outputs": [
        {
          "internalType": "uint8",
          "name": "",
          "type": "uint8"
        }
      ],
      "stateMutability": "view",
      "type": "function"
    },
    {
      "inputs": [],
      "name": "WEEK_SECONDS",
      "outputs": [
        {
          "internalType": "uint24",
          "name": "",
          "type": "uint24"
        }
      ],
      "stateMutability": "view",
      "type": "function"
    },
    {
      "inputs": [],
      "name": "acceptSetter",
      "outputs": [],
      "stateMutability": "nonpayable",
      "type": "function"
    },
    {
      "inputs": [],
      "name": "calculateRewardAmount",
      "outputs": [
        {
          "internalType": "uint256",
          "name": "",
          "type": "uint256"
        },
        {
          "internalType": "uint256",
          "name": "",
          "type": "uint256"
        }
      ],
      "stateMutability": "view",
      "type": "function"
    },
    {
      "inputs": [],
      "name": "claimReward",
      "outputs": [],
      "stateMutability": "nonpayable",
      "type": "function"
    },
    {
      "inputs": [
        {
          "internalType": "uint256",
          "name": "amount",
          "type": "uint256"
        },
        {
          "internalType": "uint8",
          "name": "k",
          "type": "uint8"
        }
      ],
      "name": "getScore",
      "outputs": [
        {
          "internalType": "uint256",
          "name": "score",
          "type": "uint256"
        }
      ],
      "stateMutability": "view",
      "type": "function"
    },
    {
      "inputs": [],
      "name": "getStaking",
      "outputs": [
        {
          "components": [
            {
              "internalType": "uint256",
              "name": "amount",
              "type": "uint256"
            },
            {
              "internalType": "uint256",
              "name": "score",
              "type": "uint256"
            },
            {
              "internalType": "uint256",
              "name": "beginNo",
              "type": "uint256"
            },
            {
              "internalType": "uint256",
              "name": "endNo",
              "type": "uint256"
            }
          ],
          "internalType": "struct StakeERC20.StakingERC20[]",
          "name": "",
          "type": "tuple[]"
        }
      ],
      "stateMutability": "view",
      "type": "function"
    },
    {
      "inputs": [],
      "name": "latestNo",
      "outputs": [
        {
          "internalType": "uint256",
          "name": "",
          "type": "uint256"
        }
      ],
      "stateMutability": "view",
      "type": "function"
    },
    {
      "inputs": [],
      "name": "lpToken",
      "outputs": [
        {
          "internalType": "address",
          "name": "",
          "type": "address"
        }
      ],
      "stateMutability": "view",
      "type": "function"
    },
    {
      "inputs": [],
      "name": "nonce",
      "outputs": [
        {
          "internalType": "uint256",
          "name": "",
          "type": "uint256"
        }
      ],
      "stateMutability": "view",
      "type": "function"
    },
    {
      "inputs": [],
      "name": "owner",
      "outputs": [
        {
          "internalType": "address",
          "name": "",
          "type": "address"
        }
      ],
      "stateMutability": "view",
      "type": "function"
    },
    {
      "inputs": [],
      "name": "rewardToken",
      "outputs": [
        {
          "internalType": "address",
          "name": "",
          "type": "address"
        }
      ],
      "stateMutability": "view",
      "type": "function"
    },
    {
      "inputs": [
        {
          "internalType": "uint256",
          "name": "",
          "type": "uint256"
        }
      ],
      "name": "rewardsOf",
      "outputs": [
        {
          "internalType": "uint256",
          "name": "",
          "type": "uint256"
        }
      ],
      "stateMutability": "view",
      "type": "function"
    },
    {
      "inputs": [
        {
          "internalType": "uint256",
          "name": "no",
          "type": "uint256"
        },
        {
          "internalType": "uint256",
          "name": "amount",
          "type": "uint256"
        }
      ],
      "name": "setReward",
      "outputs": [],
      "stateMutability": "nonpayable",
      "type": "function"
    },
    {
      "inputs": [
        {
          "internalType": "uint256[]",
          "name": "nos",
          "type": "uint256[]"
        },
        {
          "internalType": "uint256[]",
          "name": "amounts",
          "type": "uint256[]"
        }
      ],
      "name": "setRewards",
      "outputs": [
        {
          "internalType": "uint256",
          "name": "total",
          "type": "uint256"
        }
      ],
      "stateMutability": "nonpayable",
      "type": "function"
    },
    {
      "inputs": [
        {
          "internalType": "uint256",
          "name": "amount",
          "type": "uint256"
        },
        {
          "internalType": "uint8",
          "name": "k",
          "type": "uint8"
        }
      ],
      "name": "stake",
      "outputs": [],
      "stateMutability": "nonpayable",
      "type": "function"
    },
    {
      "inputs": [
        {
          "internalType": "uint256",
          "name": "",
          "type": "uint256"
        }
      ],
      "name": "stakingERC20s",
      "outputs": [
        {
          "internalType": "uint256",
          "name": "amount",
          "type": "uint256"
        },
        {
          "internalType": "uint256",
          "name": "score",
          "type": "uint256"
        },
        {
          "internalType": "uint256",
          "name": "beginNo",
          "type": "uint256"
        },
        {
          "internalType": "uint256",
          "name": "endNo",
          "type": "uint256"
        }
      ],
      "stateMutability": "view",
      "type": "function"
    },
    {
      "inputs": [
        {
          "internalType": "uint256",
          "name": "",
          "type": "uint256"
        }
      ],
      "name": "totalScores",
      "outputs": [
        {
          "internalType": "uint256",
          "name": "",
          "type": "uint256"
        }
      ],
      "stateMutability": "view",
      "type": "function"
    },
    {
      "inputs": [
        {
          "internalType": "address",
          "name": "_owner",
          "type": "address"
        }
      ],
      "name": "transferOwner",
      "outputs": [],
      "stateMutability": "nonpayable",
      "type": "function"
    },
    {
      "inputs": [
        {
          "internalType": "address",
          "name": "",
          "type": "address"
        },
        {
          "internalType": "uint256",
          "name": "",
          "type": "uint256"
        }
      ],
      "name": "userCanClaimWeeks",
      "outputs": [
        {
          "internalType": "uint256",
          "name": "",
          "type": "uint256"
        }
      ],
      "stateMutability": "view",
      "type": "function"
    },
    {
      "inputs": [
        {
          "internalType": "address",
          "name": "",
          "type": "address"
        },
        {
          "internalType": "uint256",
          "name": "",
          "type": "uint256"
        }
      ],
      "name": "userERC20s",
      "outputs": [
        {
          "internalType": "uint256",
          "name": "",
          "type": "uint256"
        }
      ],
      "stateMutability": "view",
      "type": "function"
    },
    {
      "inputs": [
        {
          "internalType": "address",
          "name": "",
          "type": "address"
        },
        {
          "internalType": "uint256",
          "name": "",
          "type": "uint256"
        }
      ],
      "name": "userScores",
      "outputs": [
        {
          "internalType": "uint256",
          "name": "",
          "type": "uint256"
        }
      ],
      "stateMutability": "view",
      "type": "function"
    },
    {
      "inputs": [],
      "name": "withdraw",
      "outputs": [
        {
          "internalType": "uint256",
          "name": "total",
          "type": "uint256"
        }
      ],
      "stateMutability": "nonpayable",
      "type": "function"
    },
    {
      "inputs": [
        {
          "internalType": "uint256",
          "name": "amount",
          "type": "uint256"
        }
      ],
      "name": "withdrawRewards",
      "outputs": [],
      "stateMutability": "nonpayable",
      "type": "function"
    }
  ],
  "bytecode": "0x6101606040523480156200001257600080fd5b50604051620019a8380380620019a88339810160408190526200003591620000ac565b6001600160a01b0391821660805260ff96871660a05260c0959095529490921660e0526101005261012052600080546001600160a01b03191633179055166101405262000126565b805160ff811681146200008f57600080fd5b919050565b80516001600160a01b03811681146200008f57600080fd5b600080600080600080600060e0888a031215620000c857600080fd5b620000d3886200007d565b965060208801519550620000ea604089016200007d565b945060608801519350608088015192506200010860a0890162000094565b91506200011860c0890162000094565b905092959891949750929550565b60805160a05160c05160e0516101005161012051610140516117cc620001dc6000396000818161030a01526106200152600081816102950152610572015260008181610436015261059d015260008181610201015281816108530152610f3c0152600081816104b4015261114401526000818161047a0152818161050d015281816110e0015261110b0152600081816104db01528181610c9301528181610e0401528181610e9c015261102901526117cc6000f3fe608060405234801561001057600080fd5b50600436106101c45760003560e01c80639342c8f4116100f9578063bb57852d11610097578063e11400bb11610071578063e11400bb14610475578063ee3453ed1461049c578063f6def7cf146104af578063f7c618c1146104d657600080fd5b8063bb57852d1461041e578063c75363b614610431578063cd671a581461045857600080fd5b8063a47bd496116100d3578063a47bd496146103e7578063affed0e0146103fa578063b88a802f14610403578063ba0865011461040b57600080fd5b80639342c8f41461036c578063979db1c41461037f578063a218de151461039257600080fd5b80633ccfd60b116101665780635f8e422f116101405780635f8e422f146102fd5780635fcbd285146103055780637b1391a6146103445780638da5cb5b1461035957600080fd5b80633ccfd60b146102b75780634fb2e45d146102bf5780635b680a45146102d257600080fd5b8063157775df116101a2578063157775df1461024a578063195962821461026a57806329ed1cfd1461028757806337ba682d1461029057600080fd5b80630bce1284146101c95780630d437d40146101fc57806310087fb114610235575b600080fd5b6101e96101d73660046113c8565b60056020526000908152604090205481565b6040519081526020015b60405180910390f35b6102237f000000000000000000000000000000000000000000000000000000000000000081565b60405160ff90911681526020016101f3565b6102486102433660046113e1565b6104fd565b005b6101e96102583660046113c8565b60046020526000908152604090205481565b61027261084b565b604080519283526020830191909152016101f3565b6101e960065481565b6101e97f000000000000000000000000000000000000000000000000000000000000000081565b6101e961093e565b6102486102cd366004611433565b610a88565b6101e96102e036600461144e565b600260209081526000928352604080842090915290825290205481565b610248610ad4565b61032c7f000000000000000000000000000000000000000000000000000000000000000081565b6040516001600160a01b0390911681526020016101f3565b61034c610b25565b6040516101f39190611478565b60005461032c906001600160a01b031681565b61024861037a3660046113c8565b610c64565b6101e961038d36600461158d565b610cbc565b6103c76103a03660046113c8565b60086020526000908152604090208054600182015460028301546003909301549192909184565b6040805194855260208501939093529183015260608201526080016101f3565b6102486103f53660046115f1565b610e6d565b6101e960075481565b610248610f36565b6101e961041936600461144e565b611081565b6101e961042c36600461144e565b6110b2565b6101e97f000000000000000000000000000000000000000000000000000000000000000081565b61046161025881565b60405162ffffff90911681526020016101f3565b6102237f000000000000000000000000000000000000000000000000000000000000000081565b6101e96104aa3660046113e1565b6110d7565b6101e97f000000000000000000000000000000000000000000000000000000000000000081565b61032c7f000000000000000000000000000000000000000000000000000000000000000081565b60008160ff1611801561053657507f000000000000000000000000000000000000000000000000000000000000000060ff168160ff1611155b6105705760405162461bcd60e51b8152602060048201526006602482015265359018bf1a9960d11b60448201526064015b60405180910390fd5b7f000000000000000000000000000000000000000000000000000000000000000042111580156105c057507f00000000000000000000000000000000000000000000000000000000000000004210155b6106005760405162461bcd60e51b81526020600482015260116024820152701b9bdd081a5b881d1a19481c195c9a5bd9607a1b6044820152606401610567565b600061060e61025842611629565b61061990600161164b565b90506106477f00000000000000000000000000000000000000000000000000000000000000003330866111a1565b600061065384846110d7565b905060005b8360ff168160ff1610156106ed57816004600061067860ff85168761164b565b81526020019081526020016000206000828254610695919061164b565b909155505033600090815260026020526040812083916106b860ff85168761164b565b815260200190815260200160002060008282546106d5919061164b565b909155508190506106e581611664565b915050610658565b5060405180608001604052808581526020018281526020018381526020018460ff168461071a919061164b565b90526007546000908152600860209081526040808320845181558483015160018083019190915585830151600283015560609095015160039182015533845290915290209081015490540361077c573360009081526003602052604090208290555b61078960ff84168361164b565b3360009081526003602052604090206001015410156107c3576107af60ff84168361164b565b336000908152600360205260409020600101555b33600081815260096020908152604080832060078054825460018101845592865294849020909101939093559154825190815290810187905260ff86168183015290517f6fa2f6021ee337436cdf2b2570285886da18bc06402ce284d296504a0fe8f8759181900360600190a26007805490600061084083611699565b919050555050505050565b6000808060ff7f00000000000000000000000000000000000000000000000000000000000000001661087f61025842611629565b61088991906116b2565b336000908152600360205260408120549192509081905b33600090815260036020526040902060010154811015610933576000818152600460209081526040808320543384526002835281842085855283528184205460059093529083205490916108f3916116c5565b6108fd9190611629565b905084821161091357610910818461164b565b92505b61091d818561164b565b935050808061092b90611699565b9150506108a0565b509094909350915050565b60008061094d61025842611629565b336000908152600960205260408120549192509061096d906001906116b2565b90505b33600090815260096020526040812080548390811061099157610991611683565b9060005260206000200154905082600860008381526020019081526020016000206003015411610a75576000818152600860205260409020546109d4908561164b565b3360009081526009602052604090208054919550906109f5906001906116b2565b81548110610a0557610a05611683565b600091825260208083209091015433835260099091526040909120805484908110610a3257610a32611683565b6000918252602080832090910192909255338152600990915260409020805480610a5e57610a5e6116dc565b600190038181906000526020600020016000905590555b5080610a80816116f2565b915050610970565b6000546001600160a01b03163314610ab25760405162461bcd60e51b815260040161056790611709565b600180546001600160a01b0319166001600160a01b0392909216919091179055565b6001546001600160a01b03163314610afe5760405162461bcd60e51b815260040161056790611709565b60018054600080546001600160a01b03199081166001600160a01b03841617909155169055565b336000908152600960205260408120546060918167ffffffffffffffff811115610b5157610b516114dc565b604051908082528060200260200182016040528015610bad57816020015b610b9a6040518060800160405280600081526020016000815260200160008152602001600081525090565b815260200190600190039081610b6f5790505b50905060005b82811015610c5d573360009081526009602052604081208054600892919084908110610be157610be1611683565b90600052602060002001548152602001908152602001600020604051806080016040529081600082015481526020016001820154815260200160028201548152602001600382015481525050828281518110610c3f57610c3f611683565b60200260200101819052508080610c5590611699565b915050610bb3565b5092915050565b6000546001600160a01b03163314610c8e5760405162461bcd60e51b815260040161056790611709565b610cb97f000000000000000000000000000000000000000000000000000000000000000033836112bb565b50565b600080546001600160a01b03163314610ce75760405162461bcd60e51b815260040161056790611709565b8151835114610d2b5760405162461bcd60e51b815260206004820152601060248201526f3830b930b6b2ba32b9399032b93937b960811b6044820152606401610567565b60005b8351811015610dfe57828181518110610d4957610d49611683565b602002602001015182610d5c919061164b565b9150828181518110610d7057610d70611683565b602002602001015160056000868481518110610d8e57610d8e611683565b6020026020010151815260200190815260200160002081905550600654848281518110610dbd57610dbd611683565b60200260200101511115610dec57838181518110610ddd57610ddd611683565b60200260200101516006819055505b80610df681611699565b915050610d2e565b50610e2b7f00000000000000000000000000000000000000000000000000000000000000003330846111a1565b60408051600081526020810183905233917fc3991418cacd70a010fce559a44fcbb47534ca43bf7543964bdca2639f6e6e5a910160405180910390a292915050565b6000546001600160a01b03163314610e975760405162461bcd60e51b815260040161056790611709565b610ec37f00000000000000000000000000000000000000000000000000000000000000003330846111a1565b60008281526005602052604081208054839290610ee190849061164b565b9091555050600654821115610ef65760068290555b604080518381526020810183905233917fc3991418cacd70a010fce559a44fcbb47534ca43bf7543964bdca2639f6e6e5a91015b60405180910390a25050565b600060ff7f000000000000000000000000000000000000000000000000000000000000000016610f6861025842611629565b610f7291906116b2565b33600090815260036020526040812054919250905b336000908152600360205260409020600101548110156110235782811161102357610fb381600161164b565b3360009081526003602052604081200155600081815260046020908152604080832054338452600283528184208585528352818420546005909352922054610ffb91906116c5565b6110059190611629565b61100f908361164b565b91508061101b81611699565b915050610f87565b5061104f7f000000000000000000000000000000000000000000000000000000000000000033836112bb565b60405181815233907fba8de60c3403ec381d1d484652ea1980e3c3e56359195c92525bff4ce47ad98e90602001610f2a565b6009602052816000526040600020818154811061109d57600080fd5b90600052602060002001600091509150505481565b600360205281600052604060002081600281106110ce57600080fd5b01549150829050565b600061110460017f000000000000000000000000000000000000000000000000000000000000000061172c565b60ff1660017f000000000000000000000000000000000000000000000000000000000000000060ff1660018561113a919061172c565b60ff1661116860017f00000000000000000000000000000000000000000000000000000000000000006116b2565b61117291906116c5565b61117c919061164b565b61118691906116b2565b61119090856116c5565b61119a9190611629565b9392505050565b604080516001600160a01b0385811660248301528481166044830152606480830185905283518084039091018152608490920183526020820180516001600160e01b03166323b872dd60e01b17905291516000928392908816916112059190611745565b6000604051808303816000865af19150503d8060008114611242576040519150601f19603f3d011682016040523d82523d6000602084013e611247565b606091505b50915091508180156112715750805115806112715750808060200190518101906112719190611774565b6112b35760405162461bcd60e51b81526020600482015260136024820152721d1c985b9cd9995c919c9bdb4819985a5b1959606a1b6044820152606401610567565b505050505050565b604080516001600160a01b038481166024830152604480830185905283518084039091018152606490920183526020820180516001600160e01b031663a9059cbb60e01b17905291516000928392908716916113179190611745565b6000604051808303816000865af19150503d8060008114611354576040519150601f19603f3d011682016040523d82523d6000602084013e611359565b606091505b50915091508180156113835750805115806113835750808060200190518101906113839190611774565b6113c15760405162461bcd60e51b815260206004820152600f60248201526e1514905394d1915497d19052531151608a1b6044820152606401610567565b5050505050565b6000602082840312156113da57600080fd5b5035919050565b600080604083850312156113f457600080fd5b82359150602083013560ff8116811461140c57600080fd5b809150509250929050565b80356001600160a01b038116811461142e57600080fd5b919050565b60006020828403121561144557600080fd5b61119a82611417565b6000806040838503121561146157600080fd5b61146a83611417565b946020939093013593505050565b602080825282518282018190526000919060409081850190868401855b828110156114cf57815180518552868101518786015285810151868601526060908101519085015260809093019290850190600101611495565b5091979650505050505050565b634e487b7160e01b600052604160045260246000fd5b600082601f83011261150357600080fd5b8135602067ffffffffffffffff80831115611520576115206114dc565b8260051b604051601f19603f83011681018181108482111715611545576115456114dc565b60405293845285810183019383810192508785111561156357600080fd5b83870191505b8482101561158257813583529183019190830190611569565b979650505050505050565b600080604083850312156115a057600080fd5b823567ffffffffffffffff808211156115b857600080fd5b6115c4868387016114f2565b935060208501359150808211156115da57600080fd5b506115e7858286016114f2565b9150509250929050565b6000806040838503121561160457600080fd5b50508035926020909101359150565b634e487b7160e01b600052601160045260246000fd5b60008261164657634e487b7160e01b600052601260045260246000fd5b500490565b8082018082111561165e5761165e611613565b92915050565b600060ff821660ff810361167a5761167a611613565b60010192915050565b634e487b7160e01b600052603260045260246000fd5b6000600182016116ab576116ab611613565b5060010190565b8181038181111561165e5761165e611613565b808202811582820484141761165e5761165e611613565b634e487b7160e01b600052603160045260246000fd5b60008161170157611701611613565b506000190190565b6020808252600990820152683337b93134b23232b760b91b604082015260600190565b60ff828116828216039081111561165e5761165e611613565b6000825160005b81811015611766576020818601810151858301520161174c565b506000920191825250919050565b60006020828403121561178657600080fd5b8151801515811461119a57600080fdfea2646970667358221220857b6ba43bb8f48e63523c67b2a4d433afef3bf67a5cc55ee53be9528b8e1e1c64736f6c63430008110033",
  "linkReferences": {},
  "deployedLinkReferences": {}
}