{
  "_format": "hh-sol-artifact-1",
  "contractName": "StakeNFT721",
  "sourceName": "contracts/stakeNFT721.sol",
  "abi": [
    {
      "inputs": [
        {
          "internalType": "uint8",
          "name": "maxWeeks",
          "type": "uint8"
        },
        {
          "internalType": "uint256",
          "name": "maxScale",
          "type": "uint256"
        },
        {
          "internalType": "uint8",
          "name": "lockWeeks",
          "type": "uint8"
        },
        {
          "internalType": "uint256",
          "name": "beginTime",
          "type": "uint256"
        },
        {
          "internalType": "uint256",
          "name": "endTime",
          "type": "uint256"
        },
        {
          "internalType": "address",
          "name": "_rewardToken",
          "type": "address"
        },
        {
          "internalType": "address",
          "name": "tokenA",
          "type": "address"
        },
        {
          "internalType": "address",
          "name": "tokenB",
          "type": "address"
        },
        {
          "internalType": "address",
          "name": "nft",
          "type": "address"
        }
      ],
      "stateMutability": "nonpayable",
      "type": "constructor"
    },
    {
      "anonymous": false,
      "inputs": [
        {
          "indexed": true,
          "internalType": "address",
          "name": "user",
          "type": "address"
        },
        {
          "indexed": false,
          "internalType": "uint256",
          "name": "tokenId",
          "type": "uint256"
        },
        {
          "indexed": false,
          "internalType": "uint256",
          "name": "amount",
          "type": "uint256"
        }
      ],
      "name": "ClaimReward",
      "type": "event"
    },
    {
      "anonymous": false,
      "inputs": [
        {
          "indexed": true,
          "internalType": "address",
          "name": "user",
          "type": "address"
        },
        {
          "indexed": false,
          "internalType": "uint256",
          "name": "amount",
          "type": "uint256"
        }
      ],
      "name": "ClaimReward",
      "type": "event"
    },
    {
      "anonymous": false,
      "inputs": [
        {
          "indexed": true,
          "internalType": "address",
          "name": "user",
          "type": "address"
        },
        {
          "indexed": false,
          "internalType": "uint256",
          "name": "no",
          "type": "uint256"
        },
        {
          "indexed": false,
          "internalType": "uint256",
          "name": "amount",
          "type": "uint256"
        }
      ],
      "name": "SetReward",
      "type": "event"
    },
    {
      "anonymous": false,
      "inputs": [
        {
          "indexed": true,
          "internalType": "address",
          "name": "user",
          "type": "address"
        },
        {
          "indexed": false,
          "internalType": "uint256",
          "name": "tokenId",
          "type": "uint256"
        },
        {
          "indexed": false,
          "internalType": "uint256",
          "name": "amount",
          "type": "uint256"
        },
        {
          "indexed": false,
          "internalType": "uint8",
          "name": "k",
          "type": "uint8"
        }
      ],
      "name": "Stake",
      "type": "event"
    },
    {
      "anonymous": false,
      "inputs": [
        {
          "indexed": true,
          "internalType": "address",
          "name": "user",
          "type": "address"
        },
        {
          "indexed": false,
          "internalType": "uint256",
          "name": "tokenId",
          "type": "uint256"
        }
      ],
      "name": "Withdraw",
      "type": "event"
    },
    {
      "inputs": [],
      "name": "BEGIN_TIME",
      "outputs": [
        {
          "internalType": "uint256",
          "name": "",
          "type": "uint256"
        }
      ],
      "stateMutability": "view",
      "type": "function"
    },
    {
      "inputs": [],
      "name": "END_TIME",
      "outputs": [
        {
          "internalType": "uint256",
          "name": "",
          "type": "uint256"
        }
      ],
      "stateMutability": "view",
      "type": "function"
    },
    {
      "inputs": [],
      "name": "LOCK_WEEKNUM",
      "outputs": [
        {
          "internalType": "uint8",
          "name": "",
          "type": "uint8"
        }
      ],
      "stateMutability": "view",
      "type": "function"
    },
    {
      "inputs": [],
      "name": "MAX_SCALE",
      "outputs": [
        {
          "internalType": "uint256",
          "name": "",
          "type": "uint256"
        }
      ],
      "stateMutability": "view",
      "type": "function"
    },
    {
      "inputs": [],
      "name": "MAX_WEEKS",
      "outputs": [
        {
          "internalType": "uint8",
          "name": "",
          "type": "uint8"
        }
      ],
      "stateMutability": "view",
      "type": "function"
    },
    {
      "inputs": [],
      "name": "WEEK_SECONDS",
      "outputs": [
        {
          "internalType": "uint24",
          "name": "",
          "type": "uint24"
        }
      ],
      "stateMutability": "view",
      "type": "function"
    },
    {
      "inputs": [],
      "name": "acceptSetter",
      "outputs": [],
      "stateMutability": "nonpayable",
      "type": "function"
    },
    {
      "inputs": [],
      "name": "canClaimAmount",
      "outputs": [
        {
          "internalType": "uint256",
          "name": "",
          "type": "uint256"
        }
      ],
      "stateMutability": "view",
      "type": "function"
    },
    {
      "inputs": [],
      "name": "claimReward",
      "outputs": [],
      "stateMutability": "nonpayable",
      "type": "function"
    },
    {
      "inputs": [
        {
          "internalType": "uint256",
          "name": "amount",
          "type": "uint256"
        },
        {
          "internalType": "uint8",
          "name": "k",
          "type": "uint8"
        }
      ],
      "name": "getScore",
      "outputs": [
        {
          "internalType": "uint256",
          "name": "score",
          "type": "uint256"
        }
      ],
      "stateMutability": "view",
      "type": "function"
    },
    {
      "inputs": [],
      "name": "getUserNFTs",
      "outputs": [
        {
          "internalType": "uint256[]",
          "name": "",
          "type": "uint256[]"
        },
        {
          "internalType": "uint256",
          "name": "",
          "type": "uint256"
        }
      ],
      "stateMutability": "view",
      "type": "function"
    },
    {
      "inputs": [],
      "name": "latestNo",
      "outputs": [
        {
          "internalType": "uint256",
          "name": "",
          "type": "uint256"
        }
      ],
      "stateMutability": "view",
      "type": "function"
    },
    {
      "inputs": [],
      "name": "lockedRewardAmount",
      "outputs": [
        {
          "internalType": "uint256",
          "name": "",
          "type": "uint256"
        },
        {
          "internalType": "uint256[]",
          "name": "",
          "type": "uint256[]"
        }
      ],
      "stateMutability": "view",
      "type": "function"
    },
    {
      "inputs": [],
      "name": "nftToken",
      "outputs": [
        {
          "internalType": "contract IIotabeeSwapNFT",
          "name": "",
          "type": "address"
        }
      ],
      "stateMutability": "view",
      "type": "function"
    },
    {
      "inputs": [],
      "name": "owner",
      "outputs": [
        {
          "internalType": "address",
          "name": "",
          "type": "address"
        }
      ],
      "stateMutability": "view",
      "type": "function"
    },
    {
      "inputs": [],
      "name": "rewardToken",
      "outputs": [
        {
          "internalType": "address",
          "name": "",
          "type": "address"
        }
      ],
      "stateMutability": "view",
      "type": "function"
    },
    {
      "inputs": [
        {
          "internalType": "uint256",
          "name": "",
          "type": "uint256"
        }
      ],
      "name": "rewardsOf",
      "outputs": [
        {
          "internalType": "uint256",
          "name": "",
          "type": "uint256"
        }
      ],
      "stateMutability": "view",
      "type": "function"
    },
    {
      "inputs": [
        {
          "internalType": "uint256",
          "name": "no",
          "type": "uint256"
        },
        {
          "internalType": "uint256",
          "name": "amount",
          "type": "uint256"
        }
      ],
      "name": "setReward",
      "outputs": [],
      "stateMutability": "nonpayable",
      "type": "function"
    },
    {
      "inputs": [
        {
          "internalType": "uint256[]",
          "name": "nos",
          "type": "uint256[]"
        },
        {
          "internalType": "uint256[]",
          "name": "amounts",
          "type": "uint256[]"
        }
      ],
      "name": "setRewards",
      "outputs": [
        {
          "internalType": "uint256",
          "name": "total",
          "type": "uint256"
        }
      ],
      "stateMutability": "nonpayable",
      "type": "function"
    },
    {
      "inputs": [
        {
          "internalType": "uint256",
          "name": "tokenId",
          "type": "uint256"
        },
        {
          "internalType": "uint8",
          "name": "k",
          "type": "uint8"
        }
      ],
      "name": "stake",
      "outputs": [],
      "stateMutability": "nonpayable",
      "type": "function"
    },
    {
      "inputs": [
        {
          "internalType": "uint256",
          "name": "",
          "type": "uint256"
        }
      ],
      "name": "stakingNFTs",
      "outputs": [
        {
          "internalType": "address",
          "name": "owner",
          "type": "address"
        },
        {
          "internalType": "uint256",
          "name": "score",
          "type": "uint256"
        },
        {
          "internalType": "uint256",
          "name": "beginNo",
          "type": "uint256"
        },
        {
          "internalType": "uint256",
          "name": "endNo",
          "type": "uint256"
        }
      ],
      "stateMutability": "view",
      "type": "function"
    },
    {
      "inputs": [],
      "name": "token0",
      "outputs": [
        {
          "internalType": "address",
          "name": "",
          "type": "address"
        }
      ],
      "stateMutability": "view",
      "type": "function"
    },
    {
      "inputs": [],
      "name": "token1",
      "outputs": [
        {
          "internalType": "address",
          "name": "",
          "type": "address"
        }
      ],
      "stateMutability": "view",
      "type": "function"
    },
    {
      "inputs": [
        {
          "internalType": "uint256",
          "name": "",
          "type": "uint256"
        }
      ],
      "name": "totalScores",
      "outputs": [
        {
          "internalType": "uint256",
          "name": "",
          "type": "uint256"
        }
      ],
      "stateMutability": "view",
      "type": "function"
    },
    {
      "inputs": [
        {
          "internalType": "address",
          "name": "_owner",
          "type": "address"
        }
      ],
      "name": "transferOwner",
      "outputs": [],
      "stateMutability": "nonpayable",
      "type": "function"
    },
    {
      "inputs": [
        {
          "internalType": "address",
          "name": "",
          "type": "address"
        },
        {
          "internalType": "uint256",
          "name": "",
          "type": "uint256"
        }
      ],
      "name": "userCanClaimWeeks",
      "outputs": [
        {
          "internalType": "uint256",
          "name": "",
          "type": "uint256"
        }
      ],
      "stateMutability": "view",
      "type": "function"
    },
    {
      "inputs": [
        {
          "internalType": "address",
          "name": "",
          "type": "address"
        },
        {
          "internalType": "uint256",
          "name": "",
          "type": "uint256"
        }
      ],
      "name": "userNFTs",
      "outputs": [
        {
          "internalType": "uint256",
          "name": "",
          "type": "uint256"
        }
      ],
      "stateMutability": "view",
      "type": "function"
    },
    {
      "inputs": [
        {
          "internalType": "address",
          "name": "",
          "type": "address"
        },
        {
          "internalType": "uint256",
          "name": "",
          "type": "uint256"
        }
      ],
      "name": "userScores",
      "outputs": [
        {
          "internalType": "uint256",
          "name": "",
          "type": "uint256"
        }
      ],
      "stateMutability": "view",
      "type": "function"
    },
    {
      "inputs": [
        {
          "internalType": "uint256",
          "name": "tokenId",
          "type": "uint256"
        }
      ],
      "name": "withdraw",
      "outputs": [],
      "stateMutability": "nonpayable",
      "type": "function"
    },
    {
      "inputs": [
        {
          "internalType": "uint256[]",
          "name": "tokenIds",
          "type": "uint256[]"
        }
      ],
      "name": "withdraw",
      "outputs": [],
      "stateMutability": "nonpayable",
      "type": "function"
    },
    {
      "inputs": [
        {
          "internalType": "uint256",
          "name": "amount",
          "type": "uint256"
        }
      ],
      "name": "withdrawRewards",
      "outputs": [],
      "stateMutability": "nonpayable",
      "type": "function"
    }
  ],
  "bytecode": "0x6101a06040523480156200001257600080fd5b506040516200226e3803806200226e8339810160408190526200003591620000e3565b6001600160a01b0380851660805260ff808b1660a05260c08a9052881660e052610100879052610120869052600080546001600160a01b0319163317905582811690841610620000875781836200008a565b82825b6001600160a01b039081166101805290811661016052166101405250620001839650505050505050565b805160ff81168114620000c657600080fd5b919050565b80516001600160a01b0381168114620000c657600080fd5b60008060008060008060008060006101208a8c0312156200010357600080fd5b6200010e8a620000b4565b985060208a015197506200012560408b01620000b4565b965060608a0151955060808a015194506200014360a08b01620000cb565b93506200015360c08b01620000cb565b92506200016360e08b01620000cb565b9150620001746101008b01620000cb565b90509295985092959850929598565b60805160a05160c05160e05161010051610120516101405161016051610180516120036200026b600039600081816104d701526115df01526000818161025b01526115a30152600081816104b0015281816109fd01528181611502015281816116d601526117a7015260006103670152600061046c01526000818161022201528181610b5001528181610c40015261114a015260008181610538015261133c0152600081816104fe015281816105a7015281816112d8015261130301526000818161055f01528181610e5e01528181610fcf015281816110ab015261125201526120036000f3fe608060405234801561001057600080fd5b50600436106101e55760003560e01c80638da5cb5b1161010f578063cd671a58116100a2578063ee3453ed11610071578063ee3453ed14610520578063f6def7cf14610533578063f7c618c11461055a578063fdc5ab8e1461058157600080fd5b8063cd671a581461048e578063d06fcba8146104ab578063d21220a7146104d2578063e11400bb146104f957600080fd5b8063a47bd496116100de578063a47bd49614610439578063b88a802f1461044c578063bb57852d14610454578063c75363b61461046757600080fd5b80638da5cb5b146103ed5780639342c8f414610400578063979db1c414610413578063983d95ce1461042657600080fd5b806329ed1cfd116101875780635b680a45116101565780635b680a451461039c5780635f8e422f146103c75780638431165e146103cf5780638923de2b146103d757600080fd5b806329ed1cfd146103465780632e1a7d4d1461034f57806337ba682d146103625780634fb2e45d1461038957600080fd5b806310087fb1116101c357806310087fb11461029557806310c6c1c2146102aa578063157775df14610313578063291c73c31461033357600080fd5b80630bce1284146101ea5780630d437d401461021d5780630dfe168114610256575b600080fd5b61020a6101f8366004611a47565b60056020526000908152604090205481565b6040519081526020015b60405180910390f35b6102447f000000000000000000000000000000000000000000000000000000000000000081565b60405160ff9091168152602001610214565b61027d7f000000000000000000000000000000000000000000000000000000000000000081565b6040516001600160a01b039091168152602001610214565b6102a86102a3366004611a60565b610597565b005b6102e96102b8366004611a47565b60076020526000908152604090208054600182015460028301546003909301546001600160a01b0390921692909184565b604080516001600160a01b0390951685526020850193909352918301526060820152608001610214565b61020a610321366004611a47565b60046020526000908152604090205481565b61020a610341366004611aab565b61083a565b61020a60065481565b6102a861035d366004611a47565b61086b565b61020a7f000000000000000000000000000000000000000000000000000000000000000081565b6102a8610397366004611ad7565b610aac565b61020a6103aa366004611aab565b600260209081526000928352604080842090915290825290205481565b6102a8610af8565b61020a610b49565b6103df610c37565b604051610214929190611b2f565b60005461027d906001600160a01b031681565b6102a861040e366004611a47565b610e2f565b61020a610421366004611c01565b610e87565b6102a8610434366004611c65565b611038565b6102a8610447366004611c9a565b61107c565b6102a8611144565b61020a610462366004611aab565b6112aa565b61020a7f000000000000000000000000000000000000000000000000000000000000000081565b61049761025881565b60405162ffffff9091168152602001610214565b61027d7f000000000000000000000000000000000000000000000000000000000000000081565b61027d7f000000000000000000000000000000000000000000000000000000000000000081565b6102447f000000000000000000000000000000000000000000000000000000000000000081565b61020a61052e366004611a60565b6112cf565b61020a7f000000000000000000000000000000000000000000000000000000000000000081565b61027d7f000000000000000000000000000000000000000000000000000000000000000081565b610589611399565b604051610214929190611cbc565b60008160ff161180156105d057507f000000000000000000000000000000000000000000000000000000000000000060ff168160ff1611155b6106155760405162461bcd60e51b815260206004820152601160248201527039ba30b5b2903bb2b2b5b99032b93937b960791b60448201526064015b60405180910390fd5b6000610620836114f7565b9050600061063061025842611cf4565b61063b906001611d16565b9050600061064983856112cf565b905060005b8460ff168160ff1610156106e357816004600061066e60ff851687611d16565b8152602001908152602001600020600082825461068b9190611d16565b909155505033600090815260026020526040812083916106ae60ff851687611d16565b815260200190815260200160002060008282546106cb9190611d16565b909155508190506106db81611d2f565b91505061064e565b5060408051608081018252338152602081018390529081018390526060810161070f60ff871685611d16565b90526000868152600760209081526040808320845181546001600160a01b0319166001600160a01b0390911617815584830151600180830191909155858301516002830155606090950151600391820155338452909152902090810154905403610786573360009081526003602052604090208290555b61079360ff851683611d16565b3360009081526003602052604090206001015410156107cd576107b960ff851683611d16565b336000908152600360205260409020600101555b336000818152600860209081526040808320805460018101825590845292829020909201889055815188815290810186905260ff87168183015290517f6fa2f6021ee337436cdf2b2570285886da18bc06402ce284d296504a0fe8f8759181900360600190a25050505050565b6008602052816000526040600020818154811061085657600080fd5b90600052602060002001600091509150505481565b6000818152600760205260409020546001600160a01b031633146108c35760405162461bcd60e51b815260206004820152600f60248201526e37bbb732b9103337b93134b23232b760891b604482015260640161060c565b60006108d161025842611cf4565b6000838152600760205260409020600301549091508110156109235760405162461bcd60e51b815260206004820152600b60248201526a6c6f636b65642074696d6560a81b604482015260640161060c565b336000908152600860205260408120905b8154811015610a705781818154811061094f5761094f611d4e565b90600052602060002001548403610a5e578154829061097090600190611d64565b8154811061098057610980611d4e565b906000526020600020015482828154811061099d5761099d611d4e565b9060005260206000200181905550818054806109bb576109bb611d77565b600082815260208120820160001990810191909155019055604051632142170760e11b8152306004820152336024820152604481018590526001600160a01b037f000000000000000000000000000000000000000000000000000000000000000016906342842e0e90606401600060405180830381600087803b158015610a4157600080fd5b505af1158015610a55573d6000803e3d6000fd5b50505050610a70565b80610a6881611d8d565b915050610934565b5060405183815233907f884edad9ce6fa2440d8a54cc123490eb96d2768479d49ff9c7366125a9424364906020015b60405180910390a2505050565b6000546001600160a01b03163314610ad65760405162461bcd60e51b815260040161060c90611da6565b600180546001600160a01b0319166001600160a01b0392909216919091179055565b6001546001600160a01b03163314610b225760405162461bcd60e51b815260040161060c90611da6565b60018054600080546001600160a01b03199081166001600160a01b03841617909155169055565b60008060ff7f000000000000000000000000000000000000000000000000000000000000000016610b7c61025842611cf4565b610b869190611d64565b33600090815260036020526040812054919250905b33600090815260036020526040902060010154811015610c3057828111610c305760008181526004602052604090205415610c1e57600081815260046020908152604080832054338452600283528184208585528352818420546005909352922054610c079190611dc9565b610c119190611cf4565b610c1b9083611d16565b91505b80610c2881611d8d565b915050610b9b565b5092915050565b600060608160ff7f000000000000000000000000000000000000000000000000000000000000000016610c6c61025842611cf4565b610c769190611d64565b610c81906001611d16565b33600090815260036020526040902090915081906001015411610cb65760408051600081526020810190915290939092509050565b336000908152600360205260408120548210610cd25781610ce3565b336000908152600360205260409020545b3360009081526003602052604081206001015491925090610d05908390611d64565b67ffffffffffffffff811115610d1d57610d1d611b50565b604051908082528060200260200182016040528015610d46578160200160208202803683370190505b509050815b33600090815260036020526040902060010154811015610e23576000818152600460205260408120549003610da857600082610d878584611d64565b81518110610d9757610d97611d4e565b602002602001018181525050610e11565b600081815260046020908152604080832054338452600283528184208585528352818420546005909352922054610ddf9190611dc9565b610de99190611cf4565b82610df48584611d64565b81518110610e0457610e04611d4e565b6020026020010181815250505b80610e1b81611d8d565b915050610d4b565b50919491935090915050565b6000546001600160a01b03163314610e595760405162461bcd60e51b815260040161060c90611da6565b610e847f00000000000000000000000000000000000000000000000000000000000000003383611820565b50565b600080546001600160a01b03163314610eb25760405162461bcd60e51b815260040161060c90611da6565b8151835114610ef65760405162461bcd60e51b815260206004820152601060248201526f3830b930b6b2ba32b9399032b93937b960811b604482015260640161060c565b60005b8351811015610fc957828181518110610f1457610f14611d4e565b602002602001015182610f279190611d16565b9150828181518110610f3b57610f3b611d4e565b602002602001015160056000868481518110610f5957610f59611d4e565b6020026020010151815260200190815260200160002081905550600654848281518110610f8857610f88611d4e565b60200260200101511115610fb757838181518110610fa857610fa8611d4e565b60200260200101516006819055505b80610fc181611d8d565b915050610ef9565b50610ff67f000000000000000000000000000000000000000000000000000000000000000033308461192d565b60408051600081526020810183905233917fc3991418cacd70a010fce559a44fcbb47534ca43bf7543964bdca2639f6e6e5a910160405180910390a292915050565b60005b81518110156110785761106682828151811061105957611059611d4e565b602002602001015161086b565b8061107081611d8d565b91505061103b565b5050565b6000546001600160a01b031633146110a65760405162461bcd60e51b815260040161060c90611da6565b6110d27f000000000000000000000000000000000000000000000000000000000000000033308461192d565b600082815260056020526040812080548392906110f0908490611d16565b90915550506006548211156111055760068290555b604080518381526020810183905233917fc3991418cacd70a010fce559a44fcbb47534ca43bf7543964bdca2639f6e6e5a910160405180910390a25050565b600060ff7f00000000000000000000000000000000000000000000000000000000000000001661117661025842611cf4565b6111809190611d64565b3360009081526003602052604081205491925090805b3360009081526003602052604090206001015481101561123957838111611239576111c2816001611d16565b60008281526004602052604090205490925015611227576000818152600460209081526040808320543384526002835281842085855283528184205460059093529220546112109190611dc9565b61121a9190611cf4565b6112249084611d16565b92505b8061123181611d8d565b915050611196565b50336000908152600360205260408120829101556112787f00000000000000000000000000000000000000000000000000000000000000003384611820565b60405182815233907fba8de60c3403ec381d1d484652ea1980e3c3e56359195c92525bff4ce47ad98e90602001610a9f565b600360205281600052604060002081600281106112c657600080fd5b01549150829050565b60006112fc60017f0000000000000000000000000000000000000000000000000000000000000000611de0565b60ff1660017f000000000000000000000000000000000000000000000000000000000000000060ff166001856113329190611de0565b60ff1661136060017f0000000000000000000000000000000000000000000000000000000000000000611d64565b61136a9190611dc9565b6113749190611d16565b61137e9190611d64565b6113889085611dc9565b6113929190611cf4565b9392505050565b3360009081526008602052604081205460609190819067ffffffffffffffff8111156113c7576113c7611b50565b6040519080825280602002602001820160405280156113f0578160200160208202803683370190505b509050600061140161025842611cf4565b3360009081526008602052604081205491925090815b336000908152600860205260409020548110156114ea5733600090815260086020526040812080548390811061144f5761144f611d4e565b9060005260206000200154905084600760008381526020019081526020016000206003015411156114aa578086858151811061148d5761148d611d4e565b6020908102919091010152836114a281611d8d565b9450506114d7565b826114b481611df9565b935050808684815181106114ca576114ca611d4e565b6020026020010181815250505b50806114e281611d8d565b915050611417565b5092959294509192505050565b6000806000806000807f00000000000000000000000000000000000000000000000000000000000000006001600160a01b03166399fbab88886040518263ffffffff1660e01b815260040161154e91815260200190565b61018060405180830381865afa15801561156c573d6000803e3d6000fd5b505050506040513d601f19601f820116820180604052508101906115909190611e5c565b50505050975097509750509650965050507f00000000000000000000000000000000000000000000000000000000000000006001600160a01b0316856001600160a01b031614801561161357507f00000000000000000000000000000000000000000000000000000000000000006001600160a01b0316846001600160a01b0316145b61164f5760405162461bcd60e51b815260206004820152600d60248201526c3638103830b4b91032b93937b960991b604482015260640161060c565b600283900b620d89e719148015611677575061166e620d89e719611f3d565b60020b8260020b145b6116b65760405162461bcd60e51b815260206004820152601060248201526f3a34b1b5903930b733b29032b93937b960811b604482015260640161060c565b60405163020604bf60e21b81526004810188905230906001600160a01b037f0000000000000000000000000000000000000000000000000000000000000000169063081812fc90602401602060405180830381865afa15801561171d573d6000803e3d6000fd5b505050506040513d601f19601f820116820180604052508101906117419190611f5f565b6001600160a01b0316146117855760405162461bcd60e51b815260206004820152600b60248201526a6e6f7420617070726f766560a81b604482015260640161060c565b604051632142170760e11b8152336004820152306024820152604481018890527f00000000000000000000000000000000000000000000000000000000000000006001600160a01b0316906342842e0e90606401600060405180830381600087803b1580156117f357600080fd5b505af1158015611807573d6000803e3d6000fd5b50506001600160801b0390921698975050505050505050565b604080516001600160a01b038481166024830152604480830185905283518084039091018152606490920183526020820180516001600160e01b031663a9059cbb60e01b179052915160009283929087169161187c9190611f7c565b6000604051808303816000865af19150503d80600081146118b9576040519150601f19603f3d011682016040523d82523d6000602084013e6118be565b606091505b50915091508180156118e85750805115806118e85750808060200190518101906118e89190611fab565b6119265760405162461bcd60e51b815260206004820152600f60248201526e1514905394d1915497d19052531151608a1b604482015260640161060c565b5050505050565b604080516001600160a01b0385811660248301528481166044830152606480830185905283518084039091018152608490920183526020820180516001600160e01b03166323b872dd60e01b17905291516000928392908816916119919190611f7c565b6000604051808303816000865af19150503d80600081146119ce576040519150601f19603f3d011682016040523d82523d6000602084013e6119d3565b606091505b50915091508180156119fd5750805115806119fd5750808060200190518101906119fd9190611fab565b611a3f5760405162461bcd60e51b81526020600482015260136024820152721d1c985b9cd9995c919c9bdb4819985a5b1959606a1b604482015260640161060c565b505050505050565b600060208284031215611a5957600080fd5b5035919050565b60008060408385031215611a7357600080fd5b82359150602083013560ff81168114611a8b57600080fd5b809150509250929050565b6001600160a01b0381168114610e8457600080fd5b60008060408385031215611abe57600080fd5b8235611ac981611a96565b946020939093013593505050565b600060208284031215611ae957600080fd5b813561139281611a96565b600081518084526020808501945080840160005b83811015611b2457815187529582019590820190600101611b08565b509495945050505050565b828152604060208201526000611b486040830184611af4565b949350505050565b634e487b7160e01b600052604160045260246000fd5b600082601f830112611b7757600080fd5b8135602067ffffffffffffffff80831115611b9457611b94611b50565b8260051b604051601f19603f83011681018181108482111715611bb957611bb9611b50565b604052938452858101830193838101925087851115611bd757600080fd5b83870191505b84821015611bf657813583529183019190830190611bdd565b979650505050505050565b60008060408385031215611c1457600080fd5b823567ffffffffffffffff80821115611c2c57600080fd5b611c3886838701611b66565b93506020850135915080821115611c4e57600080fd5b50611c5b85828601611b66565b9150509250929050565b600060208284031215611c7757600080fd5b813567ffffffffffffffff811115611c8e57600080fd5b611b4884828501611b66565b60008060408385031215611cad57600080fd5b50508035926020909101359150565b604081526000611ccf6040830185611af4565b90508260208301529392505050565b634e487b7160e01b600052601160045260246000fd5b600082611d1157634e487b7160e01b600052601260045260246000fd5b500490565b80820180821115611d2957611d29611cde565b92915050565b600060ff821660ff8103611d4557611d45611cde565b60010192915050565b634e487b7160e01b600052603260045260246000fd5b81810381811115611d2957611d29611cde565b634e487b7160e01b600052603160045260246000fd5b600060018201611d9f57611d9f611cde565b5060010190565b6020808252600990820152683337b93134b23232b760b91b604082015260600190565b8082028115828204841417611d2957611d29611cde565b60ff8281168282160390811115611d2957611d29611cde565b600081611e0857611e08611cde565b506000190190565b8051611e1b81611a96565b919050565b805162ffffff81168114611e1b57600080fd5b8051600281900b8114611e1b57600080fd5b80516001600160801b0381168114611e1b57600080fd5b6000806000806000806000806000806000806101808d8f031215611e7f57600080fd5b8c516bffffffffffffffffffffffff81168114611e9b57600080fd5b9b50611ea960208e01611e10565b9a50611eb760408e01611e10565b9950611ec560608e01611e10565b9850611ed360808e01611e20565b9750611ee160a08e01611e33565b9650611eef60c08e01611e33565b9550611efd60e08e01611e45565b94506101008d015193506101208d01519250611f1c6101408e01611e45565b9150611f2b6101608e01611e45565b90509295989b509295989b509295989b565b60008160020b627fffff198103611f5657611f56611cde565b60000392915050565b600060208284031215611f7157600080fd5b815161139281611a96565b6000825160005b81811015611f9d5760208186018101518583015201611f83565b506000920191825250919050565b600060208284031215611fbd57600080fd5b8151801515811461139257600080fdfea264697066735822122098fbc52c3ceda3241dcd3d9bd6f97ed7fcddbbd7ec63e0217120b90a87c53c5764736f6c63430008110033",
  "linkReferences": {},
  "deployedLinkReferences": {}
}