{
  "_format": "hh-sol-artifact-1",
  "contractName": "StakeNFT721",
  "sourceName": "contracts/stakeNFT721.sol",
  "abi": [
    {
      "inputs": [
        {
          "internalType": "uint8",
          "name": "maxWeeks",
          "type": "uint8"
        },
        {
          "internalType": "uint256",
          "name": "maxScale",
          "type": "uint256"
        },
        {
          "internalType": "uint8",
          "name": "lockWeeks",
          "type": "uint8"
        },
        {
          "internalType": "address",
          "name": "_rewardToken",
          "type": "address"
        },
        {
          "internalType": "address",
          "name": "tokenA",
          "type": "address"
        },
        {
          "internalType": "address",
          "name": "tokenB",
          "type": "address"
        },
        {
          "internalType": "address",
          "name": "nft",
          "type": "address"
        }
      ],
      "stateMutability": "nonpayable",
      "type": "constructor"
    },
    {
      "anonymous": false,
      "inputs": [
        {
          "indexed": true,
          "internalType": "address",
          "name": "user",
          "type": "address"
        },
        {
          "indexed": false,
          "internalType": "uint256",
          "name": "tokenId",
          "type": "uint256"
        },
        {
          "indexed": false,
          "internalType": "uint256",
          "name": "amount",
          "type": "uint256"
        }
      ],
      "name": "ClaimReward",
      "type": "event"
    },
    {
      "anonymous": false,
      "inputs": [
        {
          "indexed": true,
          "internalType": "address",
          "name": "user",
          "type": "address"
        },
        {
          "indexed": false,
          "internalType": "uint256",
          "name": "no",
          "type": "uint256"
        },
        {
          "indexed": false,
          "internalType": "uint256",
          "name": "amount",
          "type": "uint256"
        }
      ],
      "name": "SetReward",
      "type": "event"
    },
    {
      "anonymous": false,
      "inputs": [
        {
          "indexed": true,
          "internalType": "address",
          "name": "user",
          "type": "address"
        },
        {
          "indexed": false,
          "internalType": "uint256",
          "name": "tokenId",
          "type": "uint256"
        },
        {
          "indexed": false,
          "internalType": "uint256",
          "name": "amount",
          "type": "uint256"
        },
        {
          "indexed": false,
          "internalType": "uint8",
          "name": "k",
          "type": "uint8"
        }
      ],
      "name": "Stake",
      "type": "event"
    },
    {
      "anonymous": false,
      "inputs": [
        {
          "indexed": true,
          "internalType": "address",
          "name": "user",
          "type": "address"
        },
        {
          "indexed": false,
          "internalType": "uint256",
          "name": "tokenId",
          "type": "uint256"
        }
      ],
      "name": "Withdraw",
      "type": "event"
    },
    {
      "inputs": [],
      "name": "LOCK_WEEKNUM",
      "outputs": [
        {
          "internalType": "uint8",
          "name": "",
          "type": "uint8"
        }
      ],
      "stateMutability": "view",
      "type": "function"
    },
    {
      "inputs": [],
      "name": "MAX_SCALE",
      "outputs": [
        {
          "internalType": "uint256",
          "name": "",
          "type": "uint256"
        }
      ],
      "stateMutability": "view",
      "type": "function"
    },
    {
      "inputs": [],
      "name": "MAX_WEEKS",
      "outputs": [
        {
          "internalType": "uint8",
          "name": "",
          "type": "uint8"
        }
      ],
      "stateMutability": "view",
      "type": "function"
    },
    {
      "inputs": [],
      "name": "WEEK_SECONDS",
      "outputs": [
        {
          "internalType": "uint24",
          "name": "",
          "type": "uint24"
        }
      ],
      "stateMutability": "view",
      "type": "function"
    },
    {
      "inputs": [],
      "name": "acceptSetter",
      "outputs": [],
      "stateMutability": "nonpayable",
      "type": "function"
    },
    {
      "inputs": [
        {
          "internalType": "uint256",
          "name": "",
          "type": "uint256"
        },
        {
          "internalType": "uint256",
          "name": "",
          "type": "uint256"
        }
      ],
      "name": "bClaimReward",
      "outputs": [
        {
          "internalType": "bool",
          "name": "",
          "type": "bool"
        }
      ],
      "stateMutability": "view",
      "type": "function"
    },
    {
      "inputs": [
        {
          "internalType": "uint256",
          "name": "tokenId",
          "type": "uint256"
        },
        {
          "internalType": "uint256[]",
          "name": "nos",
          "type": "uint256[]"
        }
      ],
      "name": "claimReward",
      "outputs": [],
      "stateMutability": "nonpayable",
      "type": "function"
    },
    {
      "inputs": [],
      "name": "claimReward",
      "outputs": [],
      "stateMutability": "nonpayable",
      "type": "function"
    },
    {
      "inputs": [
        {
          "internalType": "uint256",
          "name": "amount",
          "type": "uint256"
        },
        {
          "internalType": "uint8",
          "name": "k",
          "type": "uint8"
        }
      ],
      "name": "getScore",
      "outputs": [
        {
          "internalType": "uint256",
          "name": "score",
          "type": "uint256"
        }
      ],
      "stateMutability": "view",
      "type": "function"
    },
    {
      "inputs": [],
      "name": "getUserNFTs",
      "outputs": [
        {
          "internalType": "uint256[]",
          "name": "",
          "type": "uint256[]"
        },
        {
          "internalType": "uint256",
          "name": "",
          "type": "uint256"
        }
      ],
      "stateMutability": "view",
      "type": "function"
    },
    {
      "inputs": [],
      "name": "latestNo",
      "outputs": [
        {
          "internalType": "uint256",
          "name": "",
          "type": "uint256"
        }
      ],
      "stateMutability": "view",
      "type": "function"
    },
    {
      "inputs": [],
      "name": "nftToken",
      "outputs": [
        {
          "internalType": "contract IIotabeeSwapNFT",
          "name": "",
          "type": "address"
        }
      ],
      "stateMutability": "view",
      "type": "function"
    },
    {
      "inputs": [],
      "name": "owner",
      "outputs": [
        {
          "internalType": "address",
          "name": "",
          "type": "address"
        }
      ],
      "stateMutability": "view",
      "type": "function"
    },
    {
      "inputs": [],
      "name": "rewardToken",
      "outputs": [
        {
          "internalType": "address",
          "name": "",
          "type": "address"
        }
      ],
      "stateMutability": "view",
      "type": "function"
    },
    {
      "inputs": [
        {
          "internalType": "uint256",
          "name": "",
          "type": "uint256"
        }
      ],
      "name": "rewardsOf",
      "outputs": [
        {
          "internalType": "uint256",
          "name": "",
          "type": "uint256"
        }
      ],
      "stateMutability": "view",
      "type": "function"
    },
    {
      "inputs": [
        {
          "internalType": "uint256",
          "name": "no",
          "type": "uint256"
        },
        {
          "internalType": "uint256",
          "name": "amount",
          "type": "uint256"
        }
      ],
      "name": "setReward",
      "outputs": [],
      "stateMutability": "nonpayable",
      "type": "function"
    },
    {
      "inputs": [
        {
          "internalType": "uint256[]",
          "name": "nos",
          "type": "uint256[]"
        },
        {
          "internalType": "uint256[]",
          "name": "amounts",
          "type": "uint256[]"
        }
      ],
      "name": "setRewards",
      "outputs": [
        {
          "internalType": "uint256",
          "name": "total",
          "type": "uint256"
        }
      ],
      "stateMutability": "nonpayable",
      "type": "function"
    },
    {
      "inputs": [
        {
          "internalType": "uint256",
          "name": "tokenId",
          "type": "uint256"
        },
        {
          "internalType": "uint8",
          "name": "k",
          "type": "uint8"
        }
      ],
      "name": "stake",
      "outputs": [],
      "stateMutability": "nonpayable",
      "type": "function"
    },
    {
      "inputs": [
        {
          "internalType": "uint256",
          "name": "",
          "type": "uint256"
        }
      ],
      "name": "stakingNFTs",
      "outputs": [
        {
          "internalType": "address",
          "name": "owner",
          "type": "address"
        },
        {
          "internalType": "uint256",
          "name": "score",
          "type": "uint256"
        },
        {
          "internalType": "uint256",
          "name": "beginNo",
          "type": "uint256"
        },
        {
          "internalType": "uint256",
          "name": "endNo",
          "type": "uint256"
        },
        {
          "internalType": "uint256",
          "name": "toClaimNo",
          "type": "uint256"
        }
      ],
      "stateMutability": "view",
      "type": "function"
    },
    {
      "inputs": [],
      "name": "token0",
      "outputs": [
        {
          "internalType": "address",
          "name": "",
          "type": "address"
        }
      ],
      "stateMutability": "view",
      "type": "function"
    },
    {
      "inputs": [],
      "name": "token1",
      "outputs": [
        {
          "internalType": "address",
          "name": "",
          "type": "address"
        }
      ],
      "stateMutability": "view",
      "type": "function"
    },
    {
      "inputs": [
        {
          "internalType": "uint256",
          "name": "",
          "type": "uint256"
        }
      ],
      "name": "totalScores",
      "outputs": [
        {
          "internalType": "uint256",
          "name": "",
          "type": "uint256"
        }
      ],
      "stateMutability": "view",
      "type": "function"
    },
    {
      "inputs": [
        {
          "internalType": "address",
          "name": "_owner",
          "type": "address"
        }
      ],
      "name": "transferOwner",
      "outputs": [],
      "stateMutability": "nonpayable",
      "type": "function"
    },
    {
      "inputs": [
        {
          "internalType": "address",
          "name": "",
          "type": "address"
        },
        {
          "internalType": "uint256",
          "name": "",
          "type": "uint256"
        }
      ],
      "name": "userNFTs",
      "outputs": [
        {
          "internalType": "uint256",
          "name": "",
          "type": "uint256"
        }
      ],
      "stateMutability": "view",
      "type": "function"
    },
    {
      "inputs": [
        {
          "internalType": "uint256",
          "name": "tokenId",
          "type": "uint256"
        }
      ],
      "name": "withdraw",
      "outputs": [],
      "stateMutability": "nonpayable",
      "type": "function"
    },
    {
      "inputs": [
        {
          "internalType": "uint256[]",
          "name": "tokenIds",
          "type": "uint256[]"
        }
      ],
      "name": "withdraw",
      "outputs": [],
      "stateMutability": "nonpayable",
      "type": "function"
    }
  ],
  "bytecode": "0x6101606040523480156200001257600080fd5b5060405162001ffb38038062001ffb8339810160408190526200003591620000d5565b6001600160a01b0380851660805260ff80891660a05260c0889052861660e052600080546001600160a01b03191633179055828116908416106200007b5781836200007e565b82825b6001600160a01b03908116610140529081166101205216610100525062000161945050505050565b805160ff81168114620000b857600080fd5b919050565b80516001600160a01b0381168114620000b857600080fd5b600080600080600080600060e0888a031215620000f157600080fd5b620000fc88620000a6565b9650602088015195506200011360408901620000a6565b94506200012360608901620000bd565b93506200013360808901620000bd565b92506200014360a08901620000bd565b91506200015360c08901620000bd565b905092959891949750929550565b60805160a05160c05160e051610100516101205161014051611ddd6200021e6000396000818161042401526113a7015260008181610204015261136b0152600081816103fd015281816108a5015281816112ca0152818161149e015261156f015260006101cb015260008181610485015261110401526000818161044b015281816104f4015281816110a001526110cb0152600081816104ac01528181610b1c01528181610d8a01528181610e2001526110380152611ddd6000f3fe608060405234801561001057600080fd5b506004361061018e5760003560e01c8063983d95ce116100de578063d06fcba811610097578063ee3453ed11610071578063ee3453ed1461046d578063f6def7cf14610480578063f7c618c1146104a7578063fdc5ab8e146104ce57600080fd5b8063d06fcba8146103f8578063d21220a71461041f578063e11400bb1461044657600080fd5b8063983d95ce1461035c5780639b6e0d741461036f578063a47bd49614610382578063b88a802f14610395578063cd671a581461039d578063ce6d3e3e146103ba57600080fd5b8063291c73c31161014b5780634fb2e45d116101255780634fb2e45d1461031b5780635f8e422f1461032e5780638da5cb5b14610336578063979db1c41461034957600080fd5b8063291c73c3146102ec57806329ed1cfd146102ff5780632e1a7d4d1461030857600080fd5b80630bce1284146101935780630d437d40146101c65780630dfe1681146101ff57806310087fb11461023e57806310c6c1c214610253578063157775df146102cc575b600080fd5b6101b36101a136600461180f565b60046020526000908152604090205481565b6040519081526020015b60405180910390f35b6101ed7f000000000000000000000000000000000000000000000000000000000000000081565b60405160ff90911681526020016101bd565b6102267f000000000000000000000000000000000000000000000000000000000000000081565b6040516001600160a01b0390911681526020016101bd565b61025161024c366004611828565b6104e4565b005b61029a61026136600461180f565b600660205260009081526040902080546001820154600283015460038401546004909401546001600160a01b0390931693919290919085565b604080516001600160a01b0390961686526020860194909452928401919091526060830152608082015260a0016101bd565b6101b36102da36600461180f565b60036020526000908152604090205481565b6101b36102fa366004611876565b6106e2565b6101b360055481565b61025161031636600461180f565b610713565b6102516103293660046118a2565b610953565b61025161099f565b600054610226906001600160a01b031681565b6101b3610357366004611970565b6109f0565b61025161036a3660046119d4565b610b85565b61025161037d366004611a11565b610bc9565b610251610390366004611a4e565b610df1565b610251610eba565b6103a661025881565b60405162ffffff90911681526020016101bd565b6103e86103c8366004611a4e565b600260209081526000928352604080842090915290825290205460ff1681565b60405190151581526020016101bd565b6102267f000000000000000000000000000000000000000000000000000000000000000081565b6102267f000000000000000000000000000000000000000000000000000000000000000081565b6101ed7f000000000000000000000000000000000000000000000000000000000000000081565b6101b361047b366004611828565b611097565b6101b37f000000000000000000000000000000000000000000000000000000000000000081565b6102267f000000000000000000000000000000000000000000000000000000000000000081565b6104d6611161565b6040516101bd929190611a70565b60008160ff1611801561051d57507f000000000000000000000000000000000000000000000000000000000000000060ff168160ff1611155b6105625760405162461bcd60e51b815260206004820152601160248201527039ba30b5b2903bb2b2b5b99032b93937b960791b60448201526064015b60405180910390fd5b600061056d836112bf565b9050600061057d61025842611ace565b610588906001611af0565b905060006105968385611097565b905060005b8460ff168160ff1610156105f05781600360006105bb60ff851687611af0565b815260200190815260200160002060008282546105d89190611af0565b909155508190506105e881611b09565b91505061059b565b506040805160a081018252338152602081018390529081018390526060810161061c60ff871685611af0565b815260209081018490526000878152600682526040808220845181546001600160a01b0319166001600160a01b0390911617815584840151600180830191909155858301516002830155606080870151600384015560809096015160049092019190915533808452600785528284208054928301815584529284902001899055805189815292830187905260ff881690830152917f6fa2f6021ee337436cdf2b2570285886da18bc06402ce284d296504a0fe8f875910160405180910390a25050505050565b600760205281600052604060002081815481106106fe57600080fd5b90600052602060002001600091509150505481565b6000818152600660205260409020546001600160a01b0316331461076b5760405162461bcd60e51b815260206004820152600f60248201526e37bbb732b9103337b93134b23232b760891b6044820152606401610559565b600061077961025842611ace565b6000838152600660205260409020600301549091508110156107cb5760405162461bcd60e51b815260206004820152600b60248201526a6c6f636b65642074696d6560a81b6044820152606401610559565b336000908152600760205260408120905b8154811015610918578181815481106107f7576107f7611b28565b90600052602060002001548403610906578154829061081890600190611b3e565b8154811061082857610828611b28565b906000526020600020015482828154811061084557610845611b28565b90600052602060002001819055508180548061086357610863611b51565b600082815260208120820160001990810191909155019055604051632142170760e11b8152306004820152336024820152604481018590526001600160a01b037f000000000000000000000000000000000000000000000000000000000000000016906342842e0e90606401600060405180830381600087803b1580156108e957600080fd5b505af11580156108fd573d6000803e3d6000fd5b50505050610918565b8061091081611b67565b9150506107dc565b5060405183815233907f884edad9ce6fa2440d8a54cc123490eb96d2768479d49ff9c7366125a94243649060200160405180910390a2505050565b6000546001600160a01b0316331461097d5760405162461bcd60e51b815260040161055990611b80565b600180546001600160a01b0319166001600160a01b0392909216919091179055565b6001546001600160a01b031633146109c95760405162461bcd60e51b815260040161055990611b80565b60018054600080546001600160a01b03199081166001600160a01b03841617909155169055565b600080546001600160a01b03163314610a1b5760405162461bcd60e51b815260040161055990611b80565b60005b8351811015610aab57828181518110610a3957610a39611b28565b602002602001015182610a4c9190611af0565b9150828181518110610a6057610a60611b28565b602002602001015160046000868481518110610a7e57610a7e611b28565b60200260200101518152602001908152602001600020819055508080610aa390611b67565b915050610a1e565b5060008351118015610ae457506005548360018551610aca9190611b3e565b81518110610ada57610ada611b28565b6020026020010151115b15610b17578260018451610af89190611b3e565b81518110610b0857610b08611b28565b60200260200101516005819055505b610b437f00000000000000000000000000000000000000000000000000000000000000003330846115e8565b60408051600081526020810183905233917fc3991418cacd70a010fce559a44fcbb47534ca43bf7543964bdca2639f6e6e5a910160405180910390a292915050565b60005b8151811015610bc557610bb3828281518110610ba657610ba6611b28565b6020026020010151610713565b80610bbd81611b67565b915050610b88565b5050565b6000828152600660205260409020546001600160a01b03163314610c215760405162461bcd60e51b815260206004820152600f60248201526e37bbb732b9103337b93134b23232b760891b6044820152606401610559565b6000610c2f61025842611ace565b90506000805b8351811015610d84576000848281518110610c5257610c52611b28565b6020908102919091018101516000888152600283526040808220838352909352919091205490915060ff1615610c885750610d72565b600086815260026020908152604080832084845290915290205460ff1680610cc157506000868152600660205260409020600301548110155b80610cdc575060008681526006602052604090206002015481105b80610ce657508381115b80610cfd5750600081815260046020526040902054155b15610d085750610d72565b60008681526002602090815260408083208484528252808320805460ff1916600190811790915560038352818420548a855260068452828520909101548585526004909352922054610d5a9190611ba3565b610d649190611ace565b610d6e9084611af0565b9250505b80610d7c81611b67565b915050610c35565b50610db07f00000000000000000000000000000000000000000000000000000000000000003383611702565b604080518581526020810183905233917fe74e5c9d4ac1fc33412485f18c159a0a391efe287ab3fd271123f30e6bacf4e3910160405180910390a250505050565b6000546001600160a01b03163314610e1b5760405162461bcd60e51b815260040161055990611b80565b610e477f00000000000000000000000000000000000000000000000000000000000000003330846115e8565b60008281526004602052604081208054839290610e65908490611af0565b9091555050600554821115610e7a5760058290555b604080518381526020810183905233917fc3991418cacd70a010fce559a44fcbb47534ca43bf7543964bdca2639f6e6e5a91015b60405180910390a25050565b6000610ec861025842611ace565b90506000805b3360009081526007602052604090205481101561103257336000908152600760205260408120805483908110610f0657610f06611b28565b600091825260208083209091015480835260069091526040909120600401549091505b60008281526006602052604090206003015481101561101d57600082815260026020908152604080832084845290915290205460ff1680610f6957508481115b80610f805750600081815260046020526040902054155b61100b5760008281526002602090815260408083208484529091529020805460ff19166001908117909155610fb6908290611af0565b6000838152600660209081526040808320600480820195909555858452600383528184205460019091015494909252909120549091610ff491611ba3565b610ffe9190611ace565b6110089085611af0565b93505b8061101581611b67565b915050610f29565b5050808061102a90611b67565b915050610ece565b5061105e7f00000000000000000000000000000000000000000000000000000000000000003383611702565b60408051600081526020810183905233917fe74e5c9d4ac1fc33412485f18c159a0a391efe287ab3fd271123f30e6bacf4e39101610eae565b60006110c460017f0000000000000000000000000000000000000000000000000000000000000000611bba565b60ff1660017f000000000000000000000000000000000000000000000000000000000000000060ff166001856110fa9190611bba565b60ff1661112860017f0000000000000000000000000000000000000000000000000000000000000000611b3e565b6111329190611ba3565b61113c9190611af0565b6111469190611b3e565b6111509085611ba3565b61115a9190611ace565b9392505050565b3360009081526007602052604081205460609190819067ffffffffffffffff81111561118f5761118f6118bf565b6040519080825280602002602001820160405280156111b8578160200160208202803683370190505b50905060006111c961025842611ace565b3360009081526007602052604081205491925090815b336000908152600760205260409020548110156112b25733600090815260076020526040812080548390811061121757611217611b28565b906000526020600020015490508460066000838152602001908152602001600020600301541115611272578086858151811061125557611255611b28565b60209081029190910101528361126a81611b67565b94505061129f565b8261127c81611bd3565b9350508086848151811061129257611292611b28565b6020026020010181815250505b50806112aa81611b67565b9150506111df565b5092959294509192505050565b6000806000806000807f00000000000000000000000000000000000000000000000000000000000000006001600160a01b03166399fbab88886040518263ffffffff1660e01b815260040161131691815260200190565b61018060405180830381865afa158015611334573d6000803e3d6000fd5b505050506040513d601f19601f820116820180604052508101906113589190611c36565b50505050975097509750509650965050507f00000000000000000000000000000000000000000000000000000000000000006001600160a01b0316856001600160a01b03161480156113db57507f00000000000000000000000000000000000000000000000000000000000000006001600160a01b0316846001600160a01b0316145b6114175760405162461bcd60e51b815260206004820152600d60248201526c3638103830b4b91032b93937b960991b6044820152606401610559565b600283900b620d89e71914801561143f5750611436620d89e719611d17565b60020b8260020b145b61147e5760405162461bcd60e51b815260206004820152601060248201526f3a34b1b5903930b733b29032b93937b960811b6044820152606401610559565b60405163020604bf60e21b81526004810188905230906001600160a01b037f0000000000000000000000000000000000000000000000000000000000000000169063081812fc90602401602060405180830381865afa1580156114e5573d6000803e3d6000fd5b505050506040513d601f19601f820116820180604052508101906115099190611d39565b6001600160a01b03161461154d5760405162461bcd60e51b815260206004820152600b60248201526a6e6f7420617070726f766560a81b6044820152606401610559565b604051632142170760e11b8152336004820152306024820152604481018890527f00000000000000000000000000000000000000000000000000000000000000006001600160a01b0316906342842e0e90606401600060405180830381600087803b1580156115bb57600080fd5b505af11580156115cf573d6000803e3d6000fd5b50506001600160801b0390921698975050505050505050565b604080516001600160a01b0385811660248301528481166044830152606480830185905283518084039091018152608490920183526020820180516001600160e01b03166323b872dd60e01b179052915160009283929088169161164c9190611d56565b6000604051808303816000865af19150503d8060008114611689576040519150601f19603f3d011682016040523d82523d6000602084013e61168e565b606091505b50915091508180156116b85750805115806116b85750808060200190518101906116b89190611d85565b6116fa5760405162461bcd60e51b81526020600482015260136024820152721d1c985b9cd9995c919c9bdb4819985a5b1959606a1b6044820152606401610559565b505050505050565b604080516001600160a01b038481166024830152604480830185905283518084039091018152606490920183526020820180516001600160e01b031663a9059cbb60e01b179052915160009283929087169161175e9190611d56565b6000604051808303816000865af19150503d806000811461179b576040519150601f19603f3d011682016040523d82523d6000602084013e6117a0565b606091505b50915091508180156117ca5750805115806117ca5750808060200190518101906117ca9190611d85565b6118085760405162461bcd60e51b815260206004820152600f60248201526e1514905394d1915497d19052531151608a1b6044820152606401610559565b5050505050565b60006020828403121561182157600080fd5b5035919050565b6000806040838503121561183b57600080fd5b82359150602083013560ff8116811461185357600080fd5b809150509250929050565b6001600160a01b038116811461187357600080fd5b50565b6000806040838503121561188957600080fd5b82356118948161185e565b946020939093013593505050565b6000602082840312156118b457600080fd5b813561115a8161185e565b634e487b7160e01b600052604160045260246000fd5b600082601f8301126118e657600080fd5b8135602067ffffffffffffffff80831115611903576119036118bf565b8260051b604051601f19603f83011681018181108482111715611928576119286118bf565b60405293845285810183019383810192508785111561194657600080fd5b83870191505b848210156119655781358352918301919083019061194c565b979650505050505050565b6000806040838503121561198357600080fd5b823567ffffffffffffffff8082111561199b57600080fd5b6119a7868387016118d5565b935060208501359150808211156119bd57600080fd5b506119ca858286016118d5565b9150509250929050565b6000602082840312156119e657600080fd5b813567ffffffffffffffff8111156119fd57600080fd5b611a09848285016118d5565b949350505050565b60008060408385031215611a2457600080fd5b82359150602083013567ffffffffffffffff811115611a4257600080fd5b6119ca858286016118d5565b60008060408385031215611a6157600080fd5b50508035926020909101359150565b604080825283519082018190526000906020906060840190828701845b82811015611aa957815184529284019290840190600101611a8d565b50505092019290925292915050565b634e487b7160e01b600052601160045260246000fd5b600082611aeb57634e487b7160e01b600052601260045260246000fd5b500490565b80820180821115611b0357611b03611ab8565b92915050565b600060ff821660ff8103611b1f57611b1f611ab8565b60010192915050565b634e487b7160e01b600052603260045260246000fd5b81810381811115611b0357611b03611ab8565b634e487b7160e01b600052603160045260246000fd5b600060018201611b7957611b79611ab8565b5060010190565b6020808252600990820152683337b93134b23232b760b91b604082015260600190565b8082028115828204841417611b0357611b03611ab8565b60ff8281168282160390811115611b0357611b03611ab8565b600081611be257611be2611ab8565b506000190190565b8051611bf58161185e565b919050565b805162ffffff81168114611bf557600080fd5b8051600281900b8114611bf557600080fd5b80516001600160801b0381168114611bf557600080fd5b6000806000806000806000806000806000806101808d8f031215611c5957600080fd5b8c516bffffffffffffffffffffffff81168114611c7557600080fd5b9b50611c8360208e01611bea565b9a50611c9160408e01611bea565b9950611c9f60608e01611bea565b9850611cad60808e01611bfa565b9750611cbb60a08e01611c0d565b9650611cc960c08e01611c0d565b9550611cd760e08e01611c1f565b94506101008d015193506101208d01519250611cf66101408e01611c1f565b9150611d056101608e01611c1f565b90509295989b509295989b509295989b565b60008160020b627fffff198103611d3057611d30611ab8565b60000392915050565b600060208284031215611d4b57600080fd5b815161115a8161185e565b6000825160005b81811015611d775760208186018101518583015201611d5d565b506000920191825250919050565b600060208284031215611d9757600080fd5b8151801515811461115a57600080fdfea2646970667358221220950ffe034b8ffcb955d60b6c039624eeb8556b5f31db8f02a48a0a28369fff4164736f6c63430008110033",
  "linkReferences": {},
  "deployedLinkReferences": {}
}