{
  "_format": "hh-sol-artifact-1",
  "contractName": "StakeNFT721",
  "sourceName": "contracts/stakeNFT721.sol",
  "abi": [
    {
      "inputs": [
        {
          "internalType": "uint8",
          "name": "maxWeeks",
          "type": "uint8"
        },
        {
          "internalType": "uint256",
          "name": "maxScale",
          "type": "uint256"
        },
        {
          "internalType": "uint8",
          "name": "lockWeeks",
          "type": "uint8"
        },
        {
          "internalType": "uint256",
          "name": "beginTime",
          "type": "uint256"
        },
        {
          "internalType": "uint256",
          "name": "endTime",
          "type": "uint256"
        },
        {
          "internalType": "address",
          "name": "_rewardToken",
          "type": "address"
        },
        {
          "internalType": "address",
          "name": "tokenA",
          "type": "address"
        },
        {
          "internalType": "address",
          "name": "tokenB",
          "type": "address"
        },
        {
          "internalType": "uint24",
          "name": "_fee",
          "type": "uint24"
        },
        {
          "internalType": "address",
          "name": "nft",
          "type": "address"
        },
        {
          "internalType": "int24",
          "name": "tickMax",
          "type": "int24"
        }
      ],
      "stateMutability": "nonpayable",
      "type": "constructor"
    },
    {
      "anonymous": false,
      "inputs": [
        {
          "indexed": true,
          "internalType": "address",
          "name": "user",
          "type": "address"
        },
        {
          "indexed": false,
          "internalType": "uint256",
          "name": "amount",
          "type": "uint256"
        }
      ],
      "name": "ClaimReward",
      "type": "event"
    },
    {
      "anonymous": false,
      "inputs": [
        {
          "indexed": true,
          "internalType": "address",
          "name": "user",
          "type": "address"
        },
        {
          "indexed": false,
          "internalType": "uint256",
          "name": "no",
          "type": "uint256"
        },
        {
          "indexed": false,
          "internalType": "uint256",
          "name": "amount",
          "type": "uint256"
        }
      ],
      "name": "SetReward",
      "type": "event"
    },
    {
      "anonymous": false,
      "inputs": [
        {
          "indexed": true,
          "internalType": "address",
          "name": "user",
          "type": "address"
        },
        {
          "indexed": false,
          "internalType": "uint256",
          "name": "tokenId",
          "type": "uint256"
        },
        {
          "indexed": false,
          "internalType": "uint256",
          "name": "amount",
          "type": "uint256"
        },
        {
          "indexed": false,
          "internalType": "uint8",
          "name": "k",
          "type": "uint8"
        }
      ],
      "name": "Stake",
      "type": "event"
    },
    {
      "anonymous": false,
      "inputs": [
        {
          "indexed": true,
          "internalType": "address",
          "name": "user",
          "type": "address"
        },
        {
          "indexed": false,
          "internalType": "uint256",
          "name": "tokenId",
          "type": "uint256"
        }
      ],
      "name": "Withdraw",
      "type": "event"
    },
    {
      "inputs": [],
      "name": "BEGIN_TIME",
      "outputs": [
        {
          "internalType": "uint256",
          "name": "",
          "type": "uint256"
        }
      ],
      "stateMutability": "view",
      "type": "function"
    },
    {
      "inputs": [],
      "name": "END_TIME",
      "outputs": [
        {
          "internalType": "uint256",
          "name": "",
          "type": "uint256"
        }
      ],
      "stateMutability": "view",
      "type": "function"
    },
    {
      "inputs": [],
      "name": "LOCK_WEEKNUM",
      "outputs": [
        {
          "internalType": "uint8",
          "name": "",
          "type": "uint8"
        }
      ],
      "stateMutability": "view",
      "type": "function"
    },
    {
      "inputs": [],
      "name": "MAX_SCALE",
      "outputs": [
        {
          "internalType": "uint256",
          "name": "",
          "type": "uint256"
        }
      ],
      "stateMutability": "view",
      "type": "function"
    },
    {
      "inputs": [],
      "name": "MAX_TICK",
      "outputs": [
        {
          "internalType": "int24",
          "name": "",
          "type": "int24"
        }
      ],
      "stateMutability": "view",
      "type": "function"
    },
    {
      "inputs": [],
      "name": "MAX_WEEKS",
      "outputs": [
        {
          "internalType": "uint8",
          "name": "",
          "type": "uint8"
        }
      ],
      "stateMutability": "view",
      "type": "function"
    },
    {
      "inputs": [],
      "name": "MIN_TICK",
      "outputs": [
        {
          "internalType": "int24",
          "name": "",
          "type": "int24"
        }
      ],
      "stateMutability": "view",
      "type": "function"
    },
    {
      "inputs": [],
      "name": "WEEK_SECONDS",
      "outputs": [
        {
          "internalType": "uint24",
          "name": "",
          "type": "uint24"
        }
      ],
      "stateMutability": "view",
      "type": "function"
    },
    {
      "inputs": [],
      "name": "acceptSetter",
      "outputs": [],
      "stateMutability": "nonpayable",
      "type": "function"
    },
    {
      "inputs": [],
      "name": "canClaimAmount",
      "outputs": [
        {
          "internalType": "uint256",
          "name": "",
          "type": "uint256"
        }
      ],
      "stateMutability": "view",
      "type": "function"
    },
    {
      "inputs": [],
      "name": "claimReward",
      "outputs": [],
      "stateMutability": "nonpayable",
      "type": "function"
    },
    {
      "inputs": [],
      "name": "fee",
      "outputs": [
        {
          "internalType": "uint256",
          "name": "",
          "type": "uint256"
        }
      ],
      "stateMutability": "view",
      "type": "function"
    },
    {
      "inputs": [
        {
          "internalType": "uint256",
          "name": "amount",
          "type": "uint256"
        },
        {
          "internalType": "uint8",
          "name": "k",
          "type": "uint8"
        }
      ],
      "name": "getScore",
      "outputs": [
        {
          "internalType": "uint256",
          "name": "score",
          "type": "uint256"
        }
      ],
      "stateMutability": "view",
      "type": "function"
    },
    {
      "inputs": [],
      "name": "getUserNFTs",
      "outputs": [
        {
          "internalType": "uint256[]",
          "name": "",
          "type": "uint256[]"
        },
        {
          "internalType": "uint256",
          "name": "",
          "type": "uint256"
        }
      ],
      "stateMutability": "view",
      "type": "function"
    },
    {
      "inputs": [],
      "name": "latestNo",
      "outputs": [
        {
          "internalType": "uint256",
          "name": "",
          "type": "uint256"
        }
      ],
      "stateMutability": "view",
      "type": "function"
    },
    {
      "inputs": [],
      "name": "lockedRewardAmount",
      "outputs": [
        {
          "internalType": "uint256",
          "name": "",
          "type": "uint256"
        },
        {
          "internalType": "uint256[]",
          "name": "",
          "type": "uint256[]"
        }
      ],
      "stateMutability": "view",
      "type": "function"
    },
    {
      "inputs": [],
      "name": "nftToken",
      "outputs": [
        {
          "internalType": "contract IIotabeeSwapNFT",
          "name": "",
          "type": "address"
        }
      ],
      "stateMutability": "view",
      "type": "function"
    },
    {
      "inputs": [],
      "name": "owner",
      "outputs": [
        {
          "internalType": "address",
          "name": "",
          "type": "address"
        }
      ],
      "stateMutability": "view",
      "type": "function"
    },
    {
      "inputs": [],
      "name": "rewardToken",
      "outputs": [
        {
          "internalType": "address",
          "name": "",
          "type": "address"
        }
      ],
      "stateMutability": "view",
      "type": "function"
    },
    {
      "inputs": [
        {
          "internalType": "uint256",
          "name": "",
          "type": "uint256"
        }
      ],
      "name": "rewardsOf",
      "outputs": [
        {
          "internalType": "uint256",
          "name": "",
          "type": "uint256"
        }
      ],
      "stateMutability": "view",
      "type": "function"
    },
    {
      "inputs": [
        {
          "internalType": "uint256",
          "name": "no",
          "type": "uint256"
        },
        {
          "internalType": "uint256",
          "name": "amount",
          "type": "uint256"
        }
      ],
      "name": "setReward",
      "outputs": [],
      "stateMutability": "nonpayable",
      "type": "function"
    },
    {
      "inputs": [
        {
          "internalType": "uint256[]",
          "name": "nos",
          "type": "uint256[]"
        },
        {
          "internalType": "uint256[]",
          "name": "amounts",
          "type": "uint256[]"
        }
      ],
      "name": "setRewards",
      "outputs": [
        {
          "internalType": "uint256",
          "name": "total",
          "type": "uint256"
        }
      ],
      "stateMutability": "nonpayable",
      "type": "function"
    },
    {
      "inputs": [
        {
          "internalType": "uint256",
          "name": "tokenId",
          "type": "uint256"
        },
        {
          "internalType": "uint8",
          "name": "k",
          "type": "uint8"
        }
      ],
      "name": "stake",
      "outputs": [],
      "stateMutability": "nonpayable",
      "type": "function"
    },
    {
      "inputs": [
        {
          "internalType": "uint256",
          "name": "",
          "type": "uint256"
        }
      ],
      "name": "stakingNFTs",
      "outputs": [
        {
          "internalType": "address",
          "name": "owner",
          "type": "address"
        },
        {
          "internalType": "uint256",
          "name": "score",
          "type": "uint256"
        },
        {
          "internalType": "uint256",
          "name": "beginNo",
          "type": "uint256"
        },
        {
          "internalType": "uint256",
          "name": "endNo",
          "type": "uint256"
        }
      ],
      "stateMutability": "view",
      "type": "function"
    },
    {
      "inputs": [],
      "name": "token0",
      "outputs": [
        {
          "internalType": "address",
          "name": "",
          "type": "address"
        }
      ],
      "stateMutability": "view",
      "type": "function"
    },
    {
      "inputs": [],
      "name": "token1",
      "outputs": [
        {
          "internalType": "address",
          "name": "",
          "type": "address"
        }
      ],
      "stateMutability": "view",
      "type": "function"
    },
    {
      "inputs": [
        {
          "internalType": "uint256",
          "name": "",
          "type": "uint256"
        }
      ],
      "name": "totalScores",
      "outputs": [
        {
          "internalType": "uint256",
          "name": "",
          "type": "uint256"
        }
      ],
      "stateMutability": "view",
      "type": "function"
    },
    {
      "inputs": [
        {
          "internalType": "address",
          "name": "_owner",
          "type": "address"
        }
      ],
      "name": "transferOwner",
      "outputs": [],
      "stateMutability": "nonpayable",
      "type": "function"
    },
    {
      "inputs": [
        {
          "internalType": "address",
          "name": "",
          "type": "address"
        },
        {
          "internalType": "uint256",
          "name": "",
          "type": "uint256"
        }
      ],
      "name": "userCanClaimWeeks",
      "outputs": [
        {
          "internalType": "uint256",
          "name": "",
          "type": "uint256"
        }
      ],
      "stateMutability": "view",
      "type": "function"
    },
    {
      "inputs": [
        {
          "internalType": "address",
          "name": "",
          "type": "address"
        },
        {
          "internalType": "uint256",
          "name": "",
          "type": "uint256"
        }
      ],
      "name": "userNFTs",
      "outputs": [
        {
          "internalType": "uint256",
          "name": "",
          "type": "uint256"
        }
      ],
      "stateMutability": "view",
      "type": "function"
    },
    {
      "inputs": [
        {
          "internalType": "address",
          "name": "",
          "type": "address"
        },
        {
          "internalType": "uint256",
          "name": "",
          "type": "uint256"
        }
      ],
      "name": "userScores",
      "outputs": [
        {
          "internalType": "uint256",
          "name": "",
          "type": "uint256"
        }
      ],
      "stateMutability": "view",
      "type": "function"
    },
    {
      "inputs": [
        {
          "internalType": "uint256",
          "name": "tokenId",
          "type": "uint256"
        }
      ],
      "name": "withdraw",
      "outputs": [],
      "stateMutability": "nonpayable",
      "type": "function"
    },
    {
      "inputs": [
        {
          "internalType": "uint256[]",
          "name": "tokenIds",
          "type": "uint256[]"
        }
      ],
      "name": "withdraw",
      "outputs": [],
      "stateMutability": "nonpayable",
      "type": "function"
    },
    {
      "inputs": [
        {
          "internalType": "uint256",
          "name": "amount",
          "type": "uint256"
        }
      ],
      "name": "withdrawRewards",
      "outputs": [],
      "stateMutability": "nonpayable",
      "type": "function"
    }
  ],
  "bytecode": "0x6101e06040523480156200001257600080fd5b50604051620024f5380380620024f583398101604081905262000035916200010b565b6001600160a01b0380871660805260ff808d1660a05260c08c90528a1660e052610100899052610120889052600080546001600160a01b0319163317905584811690861610620000875783856200008a565b84845b6001600160a01b039081166101c0529081166101a05262ffffff8416600755821661018052600281900b61016052620000c381620001e5565b60020b6101405250620002169950505050505050505050565b805160ff81168114620000ee57600080fd5b919050565b80516001600160a01b0381168114620000ee57600080fd5b60008060008060008060008060008060006101608c8e0312156200012e57600080fd5b620001398c620000dc565b9a5060208c015199506200015060408d01620000dc565b985060608c0151975060808c015196506200016e60a08d01620000f3565b95506200017e60c08d01620000f3565b94506200018e60e08d01620000f3565b93506101008c015162ffffff81168114620001a857600080fd5b9250620001b96101208d01620000f3565b91506101408c01518060020b8114620001d157600080fd5b809150509295989b509295989b9093969950565b60008160020b627fffff1981036200020d57634e487b7160e01b600052601160045260246000fd5b60000392915050565b60805160a05160c05160e05161010051610120516101405161016051610180516101a0516101c0516121b06200034560003960008181610559015261176901526000818161027c015261172d01526000818161053201528181610a6f0152818161168b015281816118a401526119750152600081816103f5015261181d01526000818161049901526117ed01526000818161038801528181610f1a015261119f0152600081816104ee01528181610f4501526111ca01526000818161024301528181610bc201528181610cb201528181610e5801526112d10152600081816105c301526114c3015260008181610589015281816106320152818161145f015261148a0152600081816105ea01528181610ec4015281816110c50152818161123201526113d901526121b06000f3fe608060405234801561001057600080fd5b50600436106102065760003560e01c80639342c8f41161011a578063cd671a58116100ad578063e11400bb1161007c578063e11400bb14610584578063ee3453ed146105ab578063f6def7cf146105be578063f7c618c1146105e5578063fdc5ab8e1461060c57600080fd5b8063cd671a5814610510578063d06fcba81461052d578063d21220a714610554578063ddca3f431461057b57600080fd5b8063a47bd496116100e9578063a47bd496146104bb578063b88a802f146104ce578063bb57852d146104d6578063c75363b6146104e957600080fd5b80639342c8f41461045b578063979db1c41461046e578063983d95ce14610481578063a1634b141461049457600080fd5b80632e1a7d4d1161019d5780635f8e422f1161016c5780635f8e422f146103e85780636882a888146103f05780638431165e1461042a5780638923de2b146104325780638da5cb5b1461044857600080fd5b80632e1a7d4d1461037057806337ba682d146103835780634fb2e45d146103aa5780635b680a45146103bd57600080fd5b806310c6c1c2116101d957806310c6c1c2146102cb578063157775df14610334578063291c73c31461035457806329ed1cfd1461036757600080fd5b80630bce12841461020b5780630d437d401461023e5780630dfe16811461027757806310087fb1146102b6575b600080fd5b61022b610219366004611c16565b60056020526000908152604090205481565b6040519081526020015b60405180910390f35b6102657f000000000000000000000000000000000000000000000000000000000000000081565b60405160ff9091168152602001610235565b61029e7f000000000000000000000000000000000000000000000000000000000000000081565b6040516001600160a01b039091168152602001610235565b6102c96102c4366004611c2f565b610622565b005b61030a6102d9366004611c16565b60086020526000908152604090208054600182015460028301546003909301546001600160a01b0390921692909184565b604080516001600160a01b0390951685526020850193909352918301526060820152608001610235565b61022b610342366004611c16565b60046020526000908152604090205481565b61022b610362366004611c7a565b6108ac565b61022b60065481565b6102c961037e366004611c16565b6108dd565b61022b7f000000000000000000000000000000000000000000000000000000000000000081565b6102c96103b8366004611ca6565b610b1e565b61022b6103cb366004611c7a565b600260209081526000928352604080842090915290825290205481565b6102c9610b6a565b6104177f000000000000000000000000000000000000000000000000000000000000000081565b60405160029190910b8152602001610235565b61022b610bbb565b61043a610ca9565b604051610235929190611cfe565b60005461029e906001600160a01b031681565b6102c9610469366004611c16565b610e95565b61022b61047c366004611dd0565b610eed565b6102c961048f366004611e34565b61112f565b6104177f000000000000000000000000000000000000000000000000000000000000000081565b6102c96104c9366004611e69565b611173565b6102c96112cb565b61022b6104e4366004611c7a565b611431565b61022b7f000000000000000000000000000000000000000000000000000000000000000081565b61051961025881565b60405162ffffff9091168152602001610235565b61029e7f000000000000000000000000000000000000000000000000000000000000000081565b61029e7f000000000000000000000000000000000000000000000000000000000000000081565b61022b60075481565b6102657f000000000000000000000000000000000000000000000000000000000000000081565b61022b6105b9366004611c2f565b611456565b61022b7f000000000000000000000000000000000000000000000000000000000000000081565b61029e7f000000000000000000000000000000000000000000000000000000000000000081565b610614611520565b604051610235929190611e8b565b60008160ff1611801561065b57507f000000000000000000000000000000000000000000000000000000000000000060ff168160ff1611155b6106a05760405162461bcd60e51b815260206004820152601160248201527039ba30b5b2903bb2b2b5b99032b93937b960791b60448201526064015b60405180910390fd5b60006106ab8361167e565b905060006106bb61025842611ec3565b6106c6906001611ee5565b905060006106d48385611456565b905060005b8460ff168160ff16101561076e5781600460006106f960ff851687611ee5565b815260200190815260200160002060008282546107169190611ee5565b9091555050336000908152600260205260408120839161073960ff851687611ee5565b815260200190815260200160002060008282546107569190611ee5565b9091555081905061076681611efe565b9150506106d9565b50600061077e60ff861684611ee5565b604080516080810182523380825260208083018781528385018981526060850187815260008e815260088552878120965187546001600160a01b0319166001600160a01b0390911617875592516001808801919091559151600287015551600395860155928152929052919020908101549054919250900361080d573360009081526003602052604090208390555b336000908152600360205260409020819060010154101561083e573360009081526003602052604090208190600101555b336000818152600960209081526040808320805460018101825590845292829020909201899055815189815290810187905260ff88168183015290517f6fa2f6021ee337436cdf2b2570285886da18bc06402ce284d296504a0fe8f8759181900360600190a2505050505050565b600960205281600052604060002081815481106108c857600080fd5b90600052602060002001600091509150505481565b6000818152600860205260409020546001600160a01b031633146109355760405162461bcd60e51b815260206004820152600f60248201526e37bbb732b9103337b93134b23232b760891b6044820152606401610697565b600061094361025842611ec3565b6000838152600860205260409020600301549091508110156109955760405162461bcd60e51b815260206004820152600b60248201526a6c6f636b65642074696d6560a81b6044820152606401610697565b336000908152600960205260408120905b8154811015610ae2578181815481106109c1576109c1611f1d565b90600052602060002001548403610ad057815482906109e290600190611f33565b815481106109f2576109f2611f1d565b9060005260206000200154828281548110610a0f57610a0f611f1d565b906000526020600020018190555081805480610a2d57610a2d611f46565b600082815260208120820160001990810191909155019055604051632142170760e11b8152306004820152336024820152604481018590526001600160a01b037f000000000000000000000000000000000000000000000000000000000000000016906342842e0e90606401600060405180830381600087803b158015610ab357600080fd5b505af1158015610ac7573d6000803e3d6000fd5b50505050610ae2565b80610ada81611f5c565b9150506109a6565b5060405183815233907f884edad9ce6fa2440d8a54cc123490eb96d2768479d49ff9c7366125a9424364906020015b60405180910390a2505050565b6000546001600160a01b03163314610b485760405162461bcd60e51b815260040161069790611f75565b600180546001600160a01b0319166001600160a01b0392909216919091179055565b6001546001600160a01b03163314610b945760405162461bcd60e51b815260040161069790611f75565b60018054600080546001600160a01b03199081166001600160a01b03841617909155169055565b60008060ff7f000000000000000000000000000000000000000000000000000000000000000016610bee61025842611ec3565b610bf89190611f33565b33600090815260036020526040812054919250905b33600090815260036020526040902060010154811015610ca257828111610ca25760008181526004602052604090205415610c9057600081815260046020908152604080832054338452600283528184208585528352818420546005909352922054610c799190611f98565b610c839190611ec3565b610c8d9083611ee5565b91505b80610c9a81611f5c565b915050610c0d565b5092915050565b600060608160ff7f000000000000000000000000000000000000000000000000000000000000000016610cde61025842611ec3565b610ce89190611f33565b610cf3906001611ee5565b33600090815260036020526040902090915081906001015411610d285760408051600081526020810190915290939092509050565b33600090815260036020526040812080546001909101549091838311610d4e5783610d50565b825b90506000610d5e8284611f33565b67ffffffffffffffff811115610d7657610d76611d1f565b604051908082528060200260200182016040528015610d9f578160200160208202803683370190505b509050815b83811015610e415760008181526004602052604090205415610e0657600081815260046020908152604080832054338452600283528184208585528352818420546005909352922054610df79190611f98565b610e019190611ec3565b610e09565b60005b82610e148584611f33565b81518110610e2457610e24611f1d565b602090810291909101015280610e3981611f5c565b915050610da4565b506000610e5061025842611ec3565b610e7d8460ff7f000000000000000000000000000000000000000000000000000000000000000016611ee5565b610e879190611f33565b989197509095505050505050565b6000546001600160a01b03163314610ebf5760405162461bcd60e51b815260040161069790611f75565b610eea7f000000000000000000000000000000000000000000000000000000000000000033836119ef565b50565b600080546001600160a01b03163314610f185760405162461bcd60e51b815260040161069790611f75565b7f00000000000000000000000000000000000000000000000000000000000000004211158015610f6857507f00000000000000000000000000000000000000000000000000000000000000004210155b610fa85760405162461bcd60e51b81526020600482015260116024820152701b9bdd081a5b881d1a19481c195c9a5bd9607a1b6044820152606401610697565b8151835114610fec5760405162461bcd60e51b815260206004820152601060248201526f3830b930b6b2ba32b9399032b93937b960811b6044820152606401610697565b6000805b84518110156110ba5783818151811061100b5761100b611f1d565b60200260200101518361101e9190611ee5565b925083818151811061103257611032611f1d565b60200260200101516005600087848151811061105057611050611f1d565b60200260200101518152602001908152602001600020819055508185828151811061107d5761107d611f1d565b602002602001015111156110a85784818151811061109d5761109d611f1d565b602002602001015191505b806110b281611f5c565b915050610ff0565b5060068190556110ec7f0000000000000000000000000000000000000000000000000000000000000000333085611afc565b60408051600081526020810184905233917fc3991418cacd70a010fce559a44fcbb47534ca43bf7543964bdca2639f6e6e5a910160405180910390a25092915050565b60005b815181101561116f5761115d82828151811061115057611150611f1d565b60200260200101516108dd565b8061116781611f5c565b915050611132565b5050565b6000546001600160a01b0316331461119d5760405162461bcd60e51b815260040161069790611f75565b7f000000000000000000000000000000000000000000000000000000000000000042111580156111ed57507f00000000000000000000000000000000000000000000000000000000000000004210155b61122d5760405162461bcd60e51b81526020600482015260116024820152701b9bdd081a5b881d1a19481c195c9a5bd9607a1b6044820152606401610697565b6112597f0000000000000000000000000000000000000000000000000000000000000000333084611afc565b60008281526005602052604081208054839290611277908490611ee5565b909155505060065482111561128c5760068290555b604080518381526020810183905233917fc3991418cacd70a010fce559a44fcbb47534ca43bf7543964bdca2639f6e6e5a910160405180910390a25050565b600060ff7f0000000000000000000000000000000000000000000000000000000000000000166112fd61025842611ec3565b6113079190611f33565b3360009081526003602052604081205491925090805b336000908152600360205260409020600101548110156113c0578381116113c057611349816001611ee5565b600082815260046020526040902054909250156113ae576000818152600460209081526040808320543384526002835281842085855283528184205460059093529220546113979190611f98565b6113a19190611ec3565b6113ab9084611ee5565b92505b806113b881611f5c565b91505061131d565b50336000908152600360205260408120829101556113ff7f000000000000000000000000000000000000000000000000000000000000000033846119ef565b60405182815233907fba8de60c3403ec381d1d484652ea1980e3c3e56359195c92525bff4ce47ad98e90602001610b11565b6003602052816000526040600020816002811061144d57600080fd5b01549150829050565b600061148360017f0000000000000000000000000000000000000000000000000000000000000000611faf565b60ff1660017f000000000000000000000000000000000000000000000000000000000000000060ff166001856114b99190611faf565b60ff166114e760017f0000000000000000000000000000000000000000000000000000000000000000611f33565b6114f19190611f98565b6114fb9190611ee5565b6115059190611f33565b61150f9085611f98565b6115199190611ec3565b9392505050565b3360009081526009602052604081205460609190819067ffffffffffffffff81111561154e5761154e611d1f565b604051908082528060200260200182016040528015611577578160200160208202803683370190505b509050600061158861025842611ec3565b3360009081526009602052604081205491925090815b33600090815260096020526040902054811015611671573360009081526009602052604081208054839081106115d6576115d6611f1d565b906000526020600020015490508460086000838152602001908152602001600020600301541115611631578086858151811061161457611614611f1d565b60209081029190910101528361162981611f5c565b94505061165e565b8261163b81611fc8565b9350508086848151811061165157611651611f1d565b6020026020010181815250505b508061166981611f5c565b91505061159e565b5092959294509192505050565b60008060008060008060007f00000000000000000000000000000000000000000000000000000000000000006001600160a01b03166399fbab88896040518263ffffffff1660e01b81526004016116d791815260200190565b61018060405180830381865afa1580156116f5573d6000803e3d6000fd5b505050506040513d601f19601f82011682018060405250810190611719919061202b565b5050505097509750975097509750975050507f00000000000000000000000000000000000000000000000000000000000000006001600160a01b0316866001600160a01b031614801561179d57507f00000000000000000000000000000000000000000000000000000000000000006001600160a01b0316856001600160a01b0316145b80156117af57508362ffffff16600754145b6117eb5760405162461bcd60e51b815260206004820152600d60248201526c3638103830b4b91032b93937b960991b6044820152606401610697565b7f000000000000000000000000000000000000000000000000000000000000000060020b8360020b14801561184557507f000000000000000000000000000000000000000000000000000000000000000060020b8260020b145b6118845760405162461bcd60e51b815260206004820152601060248201526f3a34b1b5903930b733b29032b93937b960811b6044820152606401610697565b60405163020604bf60e21b81526004810189905230906001600160a01b037f0000000000000000000000000000000000000000000000000000000000000000169063081812fc90602401602060405180830381865afa1580156118eb573d6000803e3d6000fd5b505050506040513d601f19601f8201168201806040525081019061190f919061210c565b6001600160a01b0316146119535760405162461bcd60e51b815260206004820152600b60248201526a6e6f7420617070726f766560a81b6044820152606401610697565b604051632142170760e11b8152336004820152306024820152604481018990527f00000000000000000000000000000000000000000000000000000000000000006001600160a01b0316906342842e0e90606401600060405180830381600087803b1580156119c157600080fd5b505af11580156119d5573d6000803e3d6000fd5b50506001600160801b039092169998505050505050505050565b604080516001600160a01b038481166024830152604480830185905283518084039091018152606490920183526020820180516001600160e01b031663a9059cbb60e01b1790529151600092839290871691611a4b9190612129565b6000604051808303816000865af19150503d8060008114611a88576040519150601f19603f3d011682016040523d82523d6000602084013e611a8d565b606091505b5091509150818015611ab7575080511580611ab7575080806020019051810190611ab79190612158565b611af55760405162461bcd60e51b815260206004820152600f60248201526e1514905394d1915497d19052531151608a1b6044820152606401610697565b5050505050565b604080516001600160a01b0385811660248301528481166044830152606480830185905283518084039091018152608490920183526020820180516001600160e01b03166323b872dd60e01b1790529151600092839290881691611b609190612129565b6000604051808303816000865af19150503d8060008114611b9d576040519150601f19603f3d011682016040523d82523d6000602084013e611ba2565b606091505b5091509150818015611bcc575080511580611bcc575080806020019051810190611bcc9190612158565b611c0e5760405162461bcd60e51b81526020600482015260136024820152721d1c985b9cd9995c919c9bdb4819985a5b1959606a1b6044820152606401610697565b505050505050565b600060208284031215611c2857600080fd5b5035919050565b60008060408385031215611c4257600080fd5b82359150602083013560ff81168114611c5a57600080fd5b809150509250929050565b6001600160a01b0381168114610eea57600080fd5b60008060408385031215611c8d57600080fd5b8235611c9881611c65565b946020939093013593505050565b600060208284031215611cb857600080fd5b813561151981611c65565b600081518084526020808501945080840160005b83811015611cf357815187529582019590820190600101611cd7565b509495945050505050565b828152604060208201526000611d176040830184611cc3565b949350505050565b634e487b7160e01b600052604160045260246000fd5b600082601f830112611d4657600080fd5b8135602067ffffffffffffffff80831115611d6357611d63611d1f565b8260051b604051601f19603f83011681018181108482111715611d8857611d88611d1f565b604052938452858101830193838101925087851115611da657600080fd5b83870191505b84821015611dc557813583529183019190830190611dac565b979650505050505050565b60008060408385031215611de357600080fd5b823567ffffffffffffffff80821115611dfb57600080fd5b611e0786838701611d35565b93506020850135915080821115611e1d57600080fd5b50611e2a85828601611d35565b9150509250929050565b600060208284031215611e4657600080fd5b813567ffffffffffffffff811115611e5d57600080fd5b611d1784828501611d35565b60008060408385031215611e7c57600080fd5b50508035926020909101359150565b604081526000611e9e6040830185611cc3565b90508260208301529392505050565b634e487b7160e01b600052601160045260246000fd5b600082611ee057634e487b7160e01b600052601260045260246000fd5b500490565b80820180821115611ef857611ef8611ead565b92915050565b600060ff821660ff8103611f1457611f14611ead565b60010192915050565b634e487b7160e01b600052603260045260246000fd5b81810381811115611ef857611ef8611ead565b634e487b7160e01b600052603160045260246000fd5b600060018201611f6e57611f6e611ead565b5060010190565b6020808252600990820152683337b93134b23232b760b91b604082015260600190565b8082028115828204841417611ef857611ef8611ead565b60ff8281168282160390811115611ef857611ef8611ead565b600081611fd757611fd7611ead565b506000190190565b8051611fea81611c65565b919050565b805162ffffff81168114611fea57600080fd5b8051600281900b8114611fea57600080fd5b80516001600160801b0381168114611fea57600080fd5b6000806000806000806000806000806000806101808d8f03121561204e57600080fd5b8c516bffffffffffffffffffffffff8116811461206a57600080fd5b9b5061207860208e01611fdf565b9a5061208660408e01611fdf565b995061209460608e01611fdf565b98506120a260808e01611fef565b97506120b060a08e01612002565b96506120be60c08e01612002565b95506120cc60e08e01612014565b94506101008d015193506101208d015192506120eb6101408e01612014565b91506120fa6101608e01612014565b90509295989b509295989b509295989b565b60006020828403121561211e57600080fd5b815161151981611c65565b6000825160005b8181101561214a5760208186018101518583015201612130565b506000920191825250919050565b60006020828403121561216a57600080fd5b8151801515811461151957600080fdfea2646970667358221220fa2be56f9642e25923f6848f39cb61f01c2154df5429a75b23fa41508b8c55f764736f6c63430008110033",
  "linkReferences": {},
  "deployedLinkReferences": {}
}