{
  "_format": "hh-sol-artifact-1",
  "contractName": "StakeNFT721",
  "sourceName": "contracts/stakeNFT721.sol",
  "abi": [
    {
      "inputs": [
        {
          "internalType": "uint8",
          "name": "maxWeeks",
          "type": "uint8"
        },
        {
          "internalType": "uint256",
          "name": "maxScale",
          "type": "uint256"
        },
        {
          "internalType": "uint8",
          "name": "lockWeeks",
          "type": "uint8"
        },
        {
          "internalType": "address",
          "name": "_rewardToken",
          "type": "address"
        },
        {
          "internalType": "address",
          "name": "tokenA",
          "type": "address"
        },
        {
          "internalType": "address",
          "name": "tokenB",
          "type": "address"
        },
        {
          "internalType": "address",
          "name": "nft",
          "type": "address"
        }
      ],
      "stateMutability": "nonpayable",
      "type": "constructor"
    },
    {
      "anonymous": false,
      "inputs": [
        {
          "indexed": true,
          "internalType": "address",
          "name": "user",
          "type": "address"
        },
        {
          "indexed": false,
          "internalType": "uint256",
          "name": "tokenId",
          "type": "uint256"
        },
        {
          "indexed": false,
          "internalType": "uint256",
          "name": "amount",
          "type": "uint256"
        }
      ],
      "name": "ClaimReward",
      "type": "event"
    },
    {
      "anonymous": false,
      "inputs": [
        {
          "indexed": true,
          "internalType": "address",
          "name": "user",
          "type": "address"
        },
        {
          "indexed": false,
          "internalType": "uint256",
          "name": "amount",
          "type": "uint256"
        }
      ],
      "name": "ClaimReward",
      "type": "event"
    },
    {
      "anonymous": false,
      "inputs": [
        {
          "indexed": true,
          "internalType": "address",
          "name": "user",
          "type": "address"
        },
        {
          "indexed": false,
          "internalType": "uint256",
          "name": "no",
          "type": "uint256"
        },
        {
          "indexed": false,
          "internalType": "uint256",
          "name": "amount",
          "type": "uint256"
        }
      ],
      "name": "SetReward",
      "type": "event"
    },
    {
      "anonymous": false,
      "inputs": [
        {
          "indexed": true,
          "internalType": "address",
          "name": "user",
          "type": "address"
        },
        {
          "indexed": false,
          "internalType": "uint256",
          "name": "tokenId",
          "type": "uint256"
        },
        {
          "indexed": false,
          "internalType": "uint256",
          "name": "amount",
          "type": "uint256"
        },
        {
          "indexed": false,
          "internalType": "uint8",
          "name": "k",
          "type": "uint8"
        }
      ],
      "name": "Stake",
      "type": "event"
    },
    {
      "anonymous": false,
      "inputs": [
        {
          "indexed": true,
          "internalType": "address",
          "name": "user",
          "type": "address"
        },
        {
          "indexed": false,
          "internalType": "uint256",
          "name": "tokenId",
          "type": "uint256"
        }
      ],
      "name": "Withdraw",
      "type": "event"
    },
    {
      "inputs": [],
      "name": "LOCK_WEEKNUM",
      "outputs": [
        {
          "internalType": "uint8",
          "name": "",
          "type": "uint8"
        }
      ],
      "stateMutability": "view",
      "type": "function"
    },
    {
      "inputs": [],
      "name": "MAX_SCALE",
      "outputs": [
        {
          "internalType": "uint256",
          "name": "",
          "type": "uint256"
        }
      ],
      "stateMutability": "view",
      "type": "function"
    },
    {
      "inputs": [],
      "name": "MAX_WEEKS",
      "outputs": [
        {
          "internalType": "uint8",
          "name": "",
          "type": "uint8"
        }
      ],
      "stateMutability": "view",
      "type": "function"
    },
    {
      "inputs": [],
      "name": "WEEK_SECONDS",
      "outputs": [
        {
          "internalType": "uint24",
          "name": "",
          "type": "uint24"
        }
      ],
      "stateMutability": "view",
      "type": "function"
    },
    {
      "inputs": [],
      "name": "acceptSetter",
      "outputs": [],
      "stateMutability": "nonpayable",
      "type": "function"
    },
    {
      "inputs": [],
      "name": "canClaimAmount",
      "outputs": [
        {
          "internalType": "uint256",
          "name": "",
          "type": "uint256"
        }
      ],
      "stateMutability": "view",
      "type": "function"
    },
    {
      "inputs": [],
      "name": "claimReward",
      "outputs": [],
      "stateMutability": "nonpayable",
      "type": "function"
    },
    {
      "inputs": [
        {
          "internalType": "uint256",
          "name": "amount",
          "type": "uint256"
        },
        {
          "internalType": "uint8",
          "name": "k",
          "type": "uint8"
        }
      ],
      "name": "getScore",
      "outputs": [
        {
          "internalType": "uint256",
          "name": "score",
          "type": "uint256"
        }
      ],
      "stateMutability": "view",
      "type": "function"
    },
    {
      "inputs": [],
      "name": "getUserNFTs",
      "outputs": [
        {
          "internalType": "uint256[]",
          "name": "",
          "type": "uint256[]"
        },
        {
          "internalType": "uint256",
          "name": "",
          "type": "uint256"
        }
      ],
      "stateMutability": "view",
      "type": "function"
    },
    {
      "inputs": [],
      "name": "latestNo",
      "outputs": [
        {
          "internalType": "uint256",
          "name": "",
          "type": "uint256"
        }
      ],
      "stateMutability": "view",
      "type": "function"
    },
    {
      "inputs": [],
      "name": "nftToken",
      "outputs": [
        {
          "internalType": "contract IIotabeeSwapNFT",
          "name": "",
          "type": "address"
        }
      ],
      "stateMutability": "view",
      "type": "function"
    },
    {
      "inputs": [],
      "name": "owner",
      "outputs": [
        {
          "internalType": "address",
          "name": "",
          "type": "address"
        }
      ],
      "stateMutability": "view",
      "type": "function"
    },
    {
      "inputs": [],
      "name": "rewardToken",
      "outputs": [
        {
          "internalType": "address",
          "name": "",
          "type": "address"
        }
      ],
      "stateMutability": "view",
      "type": "function"
    },
    {
      "inputs": [
        {
          "internalType": "uint256",
          "name": "",
          "type": "uint256"
        }
      ],
      "name": "rewardsOf",
      "outputs": [
        {
          "internalType": "uint256",
          "name": "",
          "type": "uint256"
        }
      ],
      "stateMutability": "view",
      "type": "function"
    },
    {
      "inputs": [
        {
          "internalType": "uint256",
          "name": "no",
          "type": "uint256"
        },
        {
          "internalType": "uint256",
          "name": "amount",
          "type": "uint256"
        }
      ],
      "name": "setReward",
      "outputs": [],
      "stateMutability": "nonpayable",
      "type": "function"
    },
    {
      "inputs": [
        {
          "internalType": "uint256[]",
          "name": "nos",
          "type": "uint256[]"
        },
        {
          "internalType": "uint256[]",
          "name": "amounts",
          "type": "uint256[]"
        }
      ],
      "name": "setRewards",
      "outputs": [
        {
          "internalType": "uint256",
          "name": "total",
          "type": "uint256"
        }
      ],
      "stateMutability": "nonpayable",
      "type": "function"
    },
    {
      "inputs": [
        {
          "internalType": "uint256",
          "name": "tokenId",
          "type": "uint256"
        },
        {
          "internalType": "uint8",
          "name": "k",
          "type": "uint8"
        }
      ],
      "name": "stake",
      "outputs": [],
      "stateMutability": "nonpayable",
      "type": "function"
    },
    {
      "inputs": [
        {
          "internalType": "uint256",
          "name": "",
          "type": "uint256"
        }
      ],
      "name": "stakingNFTs",
      "outputs": [
        {
          "internalType": "address",
          "name": "owner",
          "type": "address"
        },
        {
          "internalType": "uint256",
          "name": "score",
          "type": "uint256"
        },
        {
          "internalType": "uint256",
          "name": "beginNo",
          "type": "uint256"
        },
        {
          "internalType": "uint256",
          "name": "endNo",
          "type": "uint256"
        }
      ],
      "stateMutability": "view",
      "type": "function"
    },
    {
      "inputs": [],
      "name": "token0",
      "outputs": [
        {
          "internalType": "address",
          "name": "",
          "type": "address"
        }
      ],
      "stateMutability": "view",
      "type": "function"
    },
    {
      "inputs": [],
      "name": "token1",
      "outputs": [
        {
          "internalType": "address",
          "name": "",
          "type": "address"
        }
      ],
      "stateMutability": "view",
      "type": "function"
    },
    {
      "inputs": [
        {
          "internalType": "uint256",
          "name": "",
          "type": "uint256"
        }
      ],
      "name": "totalScores",
      "outputs": [
        {
          "internalType": "uint256",
          "name": "",
          "type": "uint256"
        }
      ],
      "stateMutability": "view",
      "type": "function"
    },
    {
      "inputs": [
        {
          "internalType": "address",
          "name": "_owner",
          "type": "address"
        }
      ],
      "name": "transferOwner",
      "outputs": [],
      "stateMutability": "nonpayable",
      "type": "function"
    },
    {
      "inputs": [
        {
          "internalType": "address",
          "name": "",
          "type": "address"
        },
        {
          "internalType": "uint256",
          "name": "",
          "type": "uint256"
        }
      ],
      "name": "userCanClaimWeeks",
      "outputs": [
        {
          "internalType": "uint256",
          "name": "",
          "type": "uint256"
        }
      ],
      "stateMutability": "view",
      "type": "function"
    },
    {
      "inputs": [
        {
          "internalType": "address",
          "name": "",
          "type": "address"
        },
        {
          "internalType": "uint256",
          "name": "",
          "type": "uint256"
        }
      ],
      "name": "userNFTs",
      "outputs": [
        {
          "internalType": "uint256",
          "name": "",
          "type": "uint256"
        }
      ],
      "stateMutability": "view",
      "type": "function"
    },
    {
      "inputs": [
        {
          "internalType": "address",
          "name": "",
          "type": "address"
        },
        {
          "internalType": "uint256",
          "name": "",
          "type": "uint256"
        }
      ],
      "name": "userScores",
      "outputs": [
        {
          "internalType": "uint256",
          "name": "",
          "type": "uint256"
        }
      ],
      "stateMutability": "view",
      "type": "function"
    },
    {
      "inputs": [
        {
          "internalType": "uint256",
          "name": "tokenId",
          "type": "uint256"
        }
      ],
      "name": "withdraw",
      "outputs": [],
      "stateMutability": "nonpayable",
      "type": "function"
    },
    {
      "inputs": [
        {
          "internalType": "uint256[]",
          "name": "tokenIds",
          "type": "uint256[]"
        }
      ],
      "name": "withdraw",
      "outputs": [],
      "stateMutability": "nonpayable",
      "type": "function"
    }
  ],
  "bytecode": "0x6101606040523480156200001257600080fd5b5060405162001eae38038062001eae8339810160408190526200003591620000d5565b6001600160a01b0380851660805260ff80891660a05260c0889052861660e052600080546001600160a01b03191633179055828116908416106200007b5781836200007e565b82825b6001600160a01b03908116610140529081166101205216610100525062000161945050505050565b805160ff81168114620000b857600080fd5b919050565b80516001600160a01b0381168114620000b857600080fd5b600080600080600080600060e0888a031215620000f157600080fd5b620000fc88620000a6565b9650602088015195506200011360408901620000a6565b94506200012360608901620000bd565b93506200013360808901620000bd565b92506200014360a08901620000bd565b91506200015360c08901620000bd565b905092959891949750929550565b60805160a05160c05160e051610100516101205161014051611c896200022560003960008181610424015261129001526000818161021f01526112540152600081816103fd0152818161094a015281816111b30152818161138701526114580152600081816101e601528181610a9c0152610e160152600081816104850152610fed01526000818161044b015281816104f401528181610f890152610fb40152600081816104ac01528181610c9a01528181610d760152610f030152611c896000f3fe608060405234801561001057600080fd5b50600436106101a95760003560e01c80638da5cb5b116100f9578063d06fcba811610097578063ee3453ed11610071578063ee3453ed1461046d578063f6def7cf14610480578063f7c618c1146104a7578063fdc5ab8e146104ce57600080fd5b8063d06fcba8146103f8578063d21220a71461041f578063e11400bb1461044657600080fd5b8063a47bd496116100d3578063a47bd496146103ad578063b88a802f146103c0578063bb57852d146103c8578063cd671a58146103db57600080fd5b80638da5cb5b14610374578063979db1c414610387578063983d95ce1461039a57600080fd5b8063291c73c3116101665780634fb2e45d116101405780634fb2e45d146103265780635b680a45146103395780635f8e422f146103645780638431165e1461036c57600080fd5b8063291c73c3146102f757806329ed1cfd1461030a5780632e1a7d4d1461031357600080fd5b80630bce1284146101ae5780630d437d40146101e15780630dfe16811461021a57806310087fb11461025957806310c6c1c21461026e578063157775df146102d7575b600080fd5b6101ce6101bc3660046116f8565b60056020526000908152604090205481565b6040519081526020015b60405180910390f35b6102087f000000000000000000000000000000000000000000000000000000000000000081565b60405160ff90911681526020016101d8565b6102417f000000000000000000000000000000000000000000000000000000000000000081565b6040516001600160a01b0390911681526020016101d8565b61026c610267366004611711565b6104e4565b005b6102ad61027c3660046116f8565b60076020526000908152604090208054600182015460028301546003909301546001600160a01b0390921692909184565b604080516001600160a01b03909516855260208501939093529183015260608201526080016101d8565b6101ce6102e53660046116f8565b60046020526000908152604090205481565b6101ce61030536600461175f565b610787565b6101ce60065481565b61026c6103213660046116f8565b6107b8565b61026c61033436600461178b565b6109f8565b6101ce61034736600461175f565b600260209081526000928352604080842090915290825290205481565b61026c610a44565b6101ce610a95565b600054610241906001600160a01b031681565b6101ce610395366004611859565b610b6e565b61026c6103a83660046118bd565b610d03565b61026c6103bb3660046118fa565b610d47565b61026c610e10565b6101ce6103d636600461175f565b610f5b565b6103e461025881565b60405162ffffff90911681526020016101d8565b6102417f000000000000000000000000000000000000000000000000000000000000000081565b6102417f000000000000000000000000000000000000000000000000000000000000000081565b6102087f000000000000000000000000000000000000000000000000000000000000000081565b6101ce61047b366004611711565b610f80565b6101ce7f000000000000000000000000000000000000000000000000000000000000000081565b6102417f000000000000000000000000000000000000000000000000000000000000000081565b6104d661104a565b6040516101d892919061191c565b60008160ff1611801561051d57507f000000000000000000000000000000000000000000000000000000000000000060ff168160ff1611155b6105625760405162461bcd60e51b815260206004820152601160248201527039ba30b5b2903bb2b2b5b99032b93937b960791b60448201526064015b60405180910390fd5b600061056d836111a8565b9050600061057d6102584261197a565b61058890600161199c565b905060006105968385610f80565b905060005b8460ff168160ff1610156106305781600460006105bb60ff85168761199c565b815260200190815260200160002060008282546105d8919061199c565b909155505033600090815260026020526040812083916105fb60ff85168761199c565b81526020019081526020016000206000828254610618919061199c565b90915550819050610628816119b5565b91505061059b565b5060408051608081018252338152602081018390529081018390526060810161065c60ff87168561199c565b90526000868152600760209081526040808320845181546001600160a01b0319166001600160a01b03909116178155848301516001808301919091558583015160028301556060909501516003918201553384529091529020908101549054036106d3573360009081526003602052604090208290555b6106e060ff85168361199c565b33600090815260036020526040902060010154101561071a5761070660ff85168361199c565b336000908152600360205260409020600101555b336000818152600860209081526040808320805460018101825590845292829020909201889055815188815290810186905260ff87168183015290517f6fa2f6021ee337436cdf2b2570285886da18bc06402ce284d296504a0fe8f8759181900360600190a25050505050565b600860205281600052604060002081815481106107a357600080fd5b90600052602060002001600091509150505481565b6000818152600760205260409020546001600160a01b031633146108105760405162461bcd60e51b815260206004820152600f60248201526e37bbb732b9103337b93134b23232b760891b6044820152606401610559565b600061081e6102584261197a565b6000838152600760205260409020600301549091508110156108705760405162461bcd60e51b815260206004820152600b60248201526a6c6f636b65642074696d6560a81b6044820152606401610559565b336000908152600860205260408120905b81548110156109bd5781818154811061089c5761089c6119d4565b906000526020600020015484036109ab57815482906108bd906001906119ea565b815481106108cd576108cd6119d4565b90600052602060002001548282815481106108ea576108ea6119d4565b906000526020600020018190555081805480610908576109086119fd565b600082815260208120820160001990810191909155019055604051632142170760e11b8152306004820152336024820152604481018590526001600160a01b037f000000000000000000000000000000000000000000000000000000000000000016906342842e0e90606401600060405180830381600087803b15801561098e57600080fd5b505af11580156109a2573d6000803e3d6000fd5b505050506109bd565b806109b581611a13565b915050610881565b5060405183815233907f884edad9ce6fa2440d8a54cc123490eb96d2768479d49ff9c7366125a94243649060200160405180910390a2505050565b6000546001600160a01b03163314610a225760405162461bcd60e51b815260040161055990611a2c565b600180546001600160a01b0319166001600160a01b0392909216919091179055565b6001546001600160a01b03163314610a6e5760405162461bcd60e51b815260040161055990611a2c565b60018054600080546001600160a01b03199081166001600160a01b03841617909155169055565b60008060ff7f000000000000000000000000000000000000000000000000000000000000000016610ac86102584261197a565b610ad291906119ea565b33600090815260036020526040812054919250905b33600090815260036020526040902060010154811015610b6757828111610b6757600081815260046020908152604080832054338452600283528184208585528352818420546005909352922054610b3f9190611a4f565b610b49919061197a565b610b53908361199c565b915080610b5f81611a13565b915050610ae7565b5092915050565b600080546001600160a01b03163314610b995760405162461bcd60e51b815260040161055990611a2c565b60005b8351811015610c2957828181518110610bb757610bb76119d4565b602002602001015182610bca919061199c565b9150828181518110610bde57610bde6119d4565b602002602001015160056000868481518110610bfc57610bfc6119d4565b60200260200101518152602001908152602001600020819055508080610c2190611a13565b915050610b9c565b5060008351118015610c6257506006548360018551610c4891906119ea565b81518110610c5857610c586119d4565b6020026020010151115b15610c95578260018451610c7691906119ea565b81518110610c8657610c866119d4565b60200260200101516006819055505b610cc17f00000000000000000000000000000000000000000000000000000000000000003330846114d1565b60408051600081526020810183905233917fc3991418cacd70a010fce559a44fcbb47534ca43bf7543964bdca2639f6e6e5a910160405180910390a292915050565b60005b8151811015610d4357610d31828281518110610d2457610d246119d4565b60200260200101516107b8565b80610d3b81611a13565b915050610d06565b5050565b6000546001600160a01b03163314610d715760405162461bcd60e51b815260040161055990611a2c565b610d9d7f00000000000000000000000000000000000000000000000000000000000000003330846114d1565b60008281526005602052604081208054839290610dbb90849061199c565b9091555050600654821115610dd05760068290555b604080518381526020810183905233917fc3991418cacd70a010fce559a44fcbb47534ca43bf7543964bdca2639f6e6e5a91015b60405180910390a25050565b600060ff7f000000000000000000000000000000000000000000000000000000000000000016610e426102584261197a565b610e4c91906119ea565b33600090815260036020526040812054919250905b33600090815260036020526040902060010154811015610efd57828111610efd57610e8d81600161199c565b3360009081526003602052604081200155600081815260046020908152604080832054338452600283528184208585528352818420546005909352922054610ed59190611a4f565b610edf919061197a565b610ee9908361199c565b915080610ef581611a13565b915050610e61565b50610f297f000000000000000000000000000000000000000000000000000000000000000033836115eb565b60405181815233907fba8de60c3403ec381d1d484652ea1980e3c3e56359195c92525bff4ce47ad98e90602001610e04565b60036020528160005260406000208160028110610f7757600080fd5b01549150829050565b6000610fad60017f0000000000000000000000000000000000000000000000000000000000000000611a66565b60ff1660017f000000000000000000000000000000000000000000000000000000000000000060ff16600185610fe39190611a66565b60ff1661101160017f00000000000000000000000000000000000000000000000000000000000000006119ea565b61101b9190611a4f565b611025919061199c565b61102f91906119ea565b6110399085611a4f565b611043919061197a565b9392505050565b3360009081526008602052604081205460609190819067ffffffffffffffff811115611078576110786117a8565b6040519080825280602002602001820160405280156110a1578160200160208202803683370190505b50905060006110b26102584261197a565b3360009081526008602052604081205491925090815b3360009081526008602052604090205481101561119b57336000908152600860205260408120805483908110611100576111006119d4565b90600052602060002001549050846007600083815260200190815260200160002060030154111561115b578086858151811061113e5761113e6119d4565b60209081029190910101528361115381611a13565b945050611188565b8261116581611a7f565b9350508086848151811061117b5761117b6119d4565b6020026020010181815250505b508061119381611a13565b9150506110c8565b5092959294509192505050565b6000806000806000807f00000000000000000000000000000000000000000000000000000000000000006001600160a01b03166399fbab88886040518263ffffffff1660e01b81526004016111ff91815260200190565b61018060405180830381865afa15801561121d573d6000803e3d6000fd5b505050506040513d601f19601f820116820180604052508101906112419190611ae2565b50505050975097509750509650965050507f00000000000000000000000000000000000000000000000000000000000000006001600160a01b0316856001600160a01b03161480156112c457507f00000000000000000000000000000000000000000000000000000000000000006001600160a01b0316846001600160a01b0316145b6113005760405162461bcd60e51b815260206004820152600d60248201526c3638103830b4b91032b93937b960991b6044820152606401610559565b600283900b620d89e719148015611328575061131f620d89e719611bc3565b60020b8260020b145b6113675760405162461bcd60e51b815260206004820152601060248201526f3a34b1b5903930b733b29032b93937b960811b6044820152606401610559565b60405163020604bf60e21b81526004810188905230906001600160a01b037f0000000000000000000000000000000000000000000000000000000000000000169063081812fc90602401602060405180830381865afa1580156113ce573d6000803e3d6000fd5b505050506040513d601f19601f820116820180604052508101906113f29190611be5565b6001600160a01b0316146114365760405162461bcd60e51b815260206004820152600b60248201526a6e6f7420617070726f766560a81b6044820152606401610559565b604051632142170760e11b8152336004820152306024820152604481018890527f00000000000000000000000000000000000000000000000000000000000000006001600160a01b0316906342842e0e90606401600060405180830381600087803b1580156114a457600080fd5b505af11580156114b8573d6000803e3d6000fd5b50506001600160801b0390921698975050505050505050565b604080516001600160a01b0385811660248301528481166044830152606480830185905283518084039091018152608490920183526020820180516001600160e01b03166323b872dd60e01b17905291516000928392908816916115359190611c02565b6000604051808303816000865af19150503d8060008114611572576040519150601f19603f3d011682016040523d82523d6000602084013e611577565b606091505b50915091508180156115a15750805115806115a15750808060200190518101906115a19190611c31565b6115e35760405162461bcd60e51b81526020600482015260136024820152721d1c985b9cd9995c919c9bdb4819985a5b1959606a1b6044820152606401610559565b505050505050565b604080516001600160a01b038481166024830152604480830185905283518084039091018152606490920183526020820180516001600160e01b031663a9059cbb60e01b17905291516000928392908716916116479190611c02565b6000604051808303816000865af19150503d8060008114611684576040519150601f19603f3d011682016040523d82523d6000602084013e611689565b606091505b50915091508180156116b35750805115806116b35750808060200190518101906116b39190611c31565b6116f15760405162461bcd60e51b815260206004820152600f60248201526e1514905394d1915497d19052531151608a1b6044820152606401610559565b5050505050565b60006020828403121561170a57600080fd5b5035919050565b6000806040838503121561172457600080fd5b82359150602083013560ff8116811461173c57600080fd5b809150509250929050565b6001600160a01b038116811461175c57600080fd5b50565b6000806040838503121561177257600080fd5b823561177d81611747565b946020939093013593505050565b60006020828403121561179d57600080fd5b813561104381611747565b634e487b7160e01b600052604160045260246000fd5b600082601f8301126117cf57600080fd5b8135602067ffffffffffffffff808311156117ec576117ec6117a8565b8260051b604051601f19603f83011681018181108482111715611811576118116117a8565b60405293845285810183019383810192508785111561182f57600080fd5b83870191505b8482101561184e57813583529183019190830190611835565b979650505050505050565b6000806040838503121561186c57600080fd5b823567ffffffffffffffff8082111561188457600080fd5b611890868387016117be565b935060208501359150808211156118a657600080fd5b506118b3858286016117be565b9150509250929050565b6000602082840312156118cf57600080fd5b813567ffffffffffffffff8111156118e657600080fd5b6118f2848285016117be565b949350505050565b6000806040838503121561190d57600080fd5b50508035926020909101359150565b604080825283519082018190526000906020906060840190828701845b8281101561195557815184529284019290840190600101611939565b50505092019290925292915050565b634e487b7160e01b600052601160045260246000fd5b60008261199757634e487b7160e01b600052601260045260246000fd5b500490565b808201808211156119af576119af611964565b92915050565b600060ff821660ff81036119cb576119cb611964565b60010192915050565b634e487b7160e01b600052603260045260246000fd5b818103818111156119af576119af611964565b634e487b7160e01b600052603160045260246000fd5b600060018201611a2557611a25611964565b5060010190565b6020808252600990820152683337b93134b23232b760b91b604082015260600190565b80820281158282048414176119af576119af611964565b60ff82811682821603908111156119af576119af611964565b600081611a8e57611a8e611964565b506000190190565b8051611aa181611747565b919050565b805162ffffff81168114611aa157600080fd5b8051600281900b8114611aa157600080fd5b80516001600160801b0381168114611aa157600080fd5b6000806000806000806000806000806000806101808d8f031215611b0557600080fd5b8c516bffffffffffffffffffffffff81168114611b2157600080fd5b9b50611b2f60208e01611a96565b9a50611b3d60408e01611a96565b9950611b4b60608e01611a96565b9850611b5960808e01611aa6565b9750611b6760a08e01611ab9565b9650611b7560c08e01611ab9565b9550611b8360e08e01611acb565b94506101008d015193506101208d01519250611ba26101408e01611acb565b9150611bb16101608e01611acb565b90509295989b509295989b509295989b565b60008160020b627fffff198103611bdc57611bdc611964565b60000392915050565b600060208284031215611bf757600080fd5b815161104381611747565b6000825160005b81811015611c235760208186018101518583015201611c09565b506000920191825250919050565b600060208284031215611c4357600080fd5b8151801515811461104357600080fdfea26469706673582212207a516a70710cf96b5ee2248848f288cca63bf8e0fa0acae2a177a6ef9477782064736f6c63430008110033",
  "linkReferences": {},
  "deployedLinkReferences": {}
}