{
  "_format": "hh-sol-artifact-1",
  "contractName": "StakeNFT721",
  "sourceName": "contracts/stakeNFT721.sol",
  "abi": [
    {
      "inputs": [
        {
          "internalType": "uint8",
          "name": "maxWeeks",
          "type": "uint8"
        },
        {
          "internalType": "uint256",
          "name": "maxScale",
          "type": "uint256"
        },
        {
          "internalType": "uint8",
          "name": "lockWeeks",
          "type": "uint8"
        },
        {
          "internalType": "uint256",
          "name": "beginTime",
          "type": "uint256"
        },
        {
          "internalType": "uint256",
          "name": "endTime",
          "type": "uint256"
        },
        {
          "internalType": "address",
          "name": "_rewardToken",
          "type": "address"
        },
        {
          "internalType": "address",
          "name": "tokenA",
          "type": "address"
        },
        {
          "internalType": "address",
          "name": "tokenB",
          "type": "address"
        },
        {
          "internalType": "address",
          "name": "nft",
          "type": "address"
        }
      ],
      "stateMutability": "nonpayable",
      "type": "constructor"
    },
    {
      "anonymous": false,
      "inputs": [
        {
          "indexed": true,
          "internalType": "address",
          "name": "user",
          "type": "address"
        },
        {
          "indexed": false,
          "internalType": "uint256",
          "name": "tokenId",
          "type": "uint256"
        },
        {
          "indexed": false,
          "internalType": "uint256",
          "name": "amount",
          "type": "uint256"
        }
      ],
      "name": "ClaimReward",
      "type": "event"
    },
    {
      "anonymous": false,
      "inputs": [
        {
          "indexed": true,
          "internalType": "address",
          "name": "user",
          "type": "address"
        },
        {
          "indexed": false,
          "internalType": "uint256",
          "name": "amount",
          "type": "uint256"
        }
      ],
      "name": "ClaimReward",
      "type": "event"
    },
    {
      "anonymous": false,
      "inputs": [
        {
          "indexed": true,
          "internalType": "address",
          "name": "user",
          "type": "address"
        },
        {
          "indexed": false,
          "internalType": "uint256",
          "name": "no",
          "type": "uint256"
        },
        {
          "indexed": false,
          "internalType": "uint256",
          "name": "amount",
          "type": "uint256"
        }
      ],
      "name": "SetReward",
      "type": "event"
    },
    {
      "anonymous": false,
      "inputs": [
        {
          "indexed": true,
          "internalType": "address",
          "name": "user",
          "type": "address"
        },
        {
          "indexed": false,
          "internalType": "uint256",
          "name": "tokenId",
          "type": "uint256"
        },
        {
          "indexed": false,
          "internalType": "uint256",
          "name": "amount",
          "type": "uint256"
        },
        {
          "indexed": false,
          "internalType": "uint8",
          "name": "k",
          "type": "uint8"
        }
      ],
      "name": "Stake",
      "type": "event"
    },
    {
      "anonymous": false,
      "inputs": [
        {
          "indexed": true,
          "internalType": "address",
          "name": "user",
          "type": "address"
        },
        {
          "indexed": false,
          "internalType": "uint256",
          "name": "tokenId",
          "type": "uint256"
        }
      ],
      "name": "Withdraw",
      "type": "event"
    },
    {
      "inputs": [],
      "name": "BEGIN_TIME",
      "outputs": [
        {
          "internalType": "uint256",
          "name": "",
          "type": "uint256"
        }
      ],
      "stateMutability": "view",
      "type": "function"
    },
    {
      "inputs": [],
      "name": "END_TIME",
      "outputs": [
        {
          "internalType": "uint256",
          "name": "",
          "type": "uint256"
        }
      ],
      "stateMutability": "view",
      "type": "function"
    },
    {
      "inputs": [],
      "name": "LOCK_WEEKNUM",
      "outputs": [
        {
          "internalType": "uint8",
          "name": "",
          "type": "uint8"
        }
      ],
      "stateMutability": "view",
      "type": "function"
    },
    {
      "inputs": [],
      "name": "MAX_SCALE",
      "outputs": [
        {
          "internalType": "uint256",
          "name": "",
          "type": "uint256"
        }
      ],
      "stateMutability": "view",
      "type": "function"
    },
    {
      "inputs": [],
      "name": "MAX_WEEKS",
      "outputs": [
        {
          "internalType": "uint8",
          "name": "",
          "type": "uint8"
        }
      ],
      "stateMutability": "view",
      "type": "function"
    },
    {
      "inputs": [],
      "name": "WEEK_SECONDS",
      "outputs": [
        {
          "internalType": "uint24",
          "name": "",
          "type": "uint24"
        }
      ],
      "stateMutability": "view",
      "type": "function"
    },
    {
      "inputs": [],
      "name": "acceptSetter",
      "outputs": [],
      "stateMutability": "nonpayable",
      "type": "function"
    },
    {
      "inputs": [],
      "name": "canClaimAmount",
      "outputs": [
        {
          "internalType": "uint256",
          "name": "",
          "type": "uint256"
        }
      ],
      "stateMutability": "view",
      "type": "function"
    },
    {
      "inputs": [],
      "name": "claimReward",
      "outputs": [],
      "stateMutability": "nonpayable",
      "type": "function"
    },
    {
      "inputs": [
        {
          "internalType": "uint256",
          "name": "amount",
          "type": "uint256"
        },
        {
          "internalType": "uint8",
          "name": "k",
          "type": "uint8"
        }
      ],
      "name": "getScore",
      "outputs": [
        {
          "internalType": "uint256",
          "name": "score",
          "type": "uint256"
        }
      ],
      "stateMutability": "view",
      "type": "function"
    },
    {
      "inputs": [],
      "name": "getUserNFTs",
      "outputs": [
        {
          "internalType": "uint256[]",
          "name": "",
          "type": "uint256[]"
        },
        {
          "internalType": "uint256",
          "name": "",
          "type": "uint256"
        }
      ],
      "stateMutability": "view",
      "type": "function"
    },
    {
      "inputs": [],
      "name": "latestNo",
      "outputs": [
        {
          "internalType": "uint256",
          "name": "",
          "type": "uint256"
        }
      ],
      "stateMutability": "view",
      "type": "function"
    },
    {
      "inputs": [],
      "name": "nftToken",
      "outputs": [
        {
          "internalType": "contract IIotabeeSwapNFT",
          "name": "",
          "type": "address"
        }
      ],
      "stateMutability": "view",
      "type": "function"
    },
    {
      "inputs": [],
      "name": "owner",
      "outputs": [
        {
          "internalType": "address",
          "name": "",
          "type": "address"
        }
      ],
      "stateMutability": "view",
      "type": "function"
    },
    {
      "inputs": [],
      "name": "rewardToken",
      "outputs": [
        {
          "internalType": "address",
          "name": "",
          "type": "address"
        }
      ],
      "stateMutability": "view",
      "type": "function"
    },
    {
      "inputs": [
        {
          "internalType": "uint256",
          "name": "",
          "type": "uint256"
        }
      ],
      "name": "rewardsOf",
      "outputs": [
        {
          "internalType": "uint256",
          "name": "",
          "type": "uint256"
        }
      ],
      "stateMutability": "view",
      "type": "function"
    },
    {
      "inputs": [
        {
          "internalType": "uint256",
          "name": "no",
          "type": "uint256"
        },
        {
          "internalType": "uint256",
          "name": "amount",
          "type": "uint256"
        }
      ],
      "name": "setReward",
      "outputs": [],
      "stateMutability": "nonpayable",
      "type": "function"
    },
    {
      "inputs": [
        {
          "internalType": "uint256[]",
          "name": "nos",
          "type": "uint256[]"
        },
        {
          "internalType": "uint256[]",
          "name": "amounts",
          "type": "uint256[]"
        }
      ],
      "name": "setRewards",
      "outputs": [
        {
          "internalType": "uint256",
          "name": "total",
          "type": "uint256"
        }
      ],
      "stateMutability": "nonpayable",
      "type": "function"
    },
    {
      "inputs": [
        {
          "internalType": "uint256",
          "name": "tokenId",
          "type": "uint256"
        },
        {
          "internalType": "uint8",
          "name": "k",
          "type": "uint8"
        }
      ],
      "name": "stake",
      "outputs": [],
      "stateMutability": "nonpayable",
      "type": "function"
    },
    {
      "inputs": [
        {
          "internalType": "uint256",
          "name": "",
          "type": "uint256"
        }
      ],
      "name": "stakingNFTs",
      "outputs": [
        {
          "internalType": "address",
          "name": "owner",
          "type": "address"
        },
        {
          "internalType": "uint256",
          "name": "score",
          "type": "uint256"
        },
        {
          "internalType": "uint256",
          "name": "beginNo",
          "type": "uint256"
        },
        {
          "internalType": "uint256",
          "name": "endNo",
          "type": "uint256"
        }
      ],
      "stateMutability": "view",
      "type": "function"
    },
    {
      "inputs": [],
      "name": "token0",
      "outputs": [
        {
          "internalType": "address",
          "name": "",
          "type": "address"
        }
      ],
      "stateMutability": "view",
      "type": "function"
    },
    {
      "inputs": [],
      "name": "token1",
      "outputs": [
        {
          "internalType": "address",
          "name": "",
          "type": "address"
        }
      ],
      "stateMutability": "view",
      "type": "function"
    },
    {
      "inputs": [
        {
          "internalType": "uint256",
          "name": "",
          "type": "uint256"
        }
      ],
      "name": "totalScores",
      "outputs": [
        {
          "internalType": "uint256",
          "name": "",
          "type": "uint256"
        }
      ],
      "stateMutability": "view",
      "type": "function"
    },
    {
      "inputs": [
        {
          "internalType": "address",
          "name": "_owner",
          "type": "address"
        }
      ],
      "name": "transferOwner",
      "outputs": [],
      "stateMutability": "nonpayable",
      "type": "function"
    },
    {
      "inputs": [
        {
          "internalType": "address",
          "name": "",
          "type": "address"
        },
        {
          "internalType": "uint256",
          "name": "",
          "type": "uint256"
        }
      ],
      "name": "userCanClaimWeeks",
      "outputs": [
        {
          "internalType": "uint256",
          "name": "",
          "type": "uint256"
        }
      ],
      "stateMutability": "view",
      "type": "function"
    },
    {
      "inputs": [
        {
          "internalType": "address",
          "name": "",
          "type": "address"
        },
        {
          "internalType": "uint256",
          "name": "",
          "type": "uint256"
        }
      ],
      "name": "userNFTs",
      "outputs": [
        {
          "internalType": "uint256",
          "name": "",
          "type": "uint256"
        }
      ],
      "stateMutability": "view",
      "type": "function"
    },
    {
      "inputs": [
        {
          "internalType": "address",
          "name": "",
          "type": "address"
        },
        {
          "internalType": "uint256",
          "name": "",
          "type": "uint256"
        }
      ],
      "name": "userScores",
      "outputs": [
        {
          "internalType": "uint256",
          "name": "",
          "type": "uint256"
        }
      ],
      "stateMutability": "view",
      "type": "function"
    },
    {
      "inputs": [
        {
          "internalType": "uint256",
          "name": "tokenId",
          "type": "uint256"
        }
      ],
      "name": "withdraw",
      "outputs": [],
      "stateMutability": "nonpayable",
      "type": "function"
    },
    {
      "inputs": [
        {
          "internalType": "uint256[]",
          "name": "tokenIds",
          "type": "uint256[]"
        }
      ],
      "name": "withdraw",
      "outputs": [],
      "stateMutability": "nonpayable",
      "type": "function"
    },
    {
      "inputs": [
        {
          "internalType": "uint256",
          "name": "amount",
          "type": "uint256"
        }
      ],
      "name": "withdrawRewards",
      "outputs": [],
      "stateMutability": "nonpayable",
      "type": "function"
    }
  ],
  "bytecode": "0x6101a06040523480156200001257600080fd5b5060405162002018380380620020188339810160408190526200003591620000e3565b6001600160a01b0380851660805260ff808b1660a05260c08a9052881660e052610100879052610120869052600080546001600160a01b0319163317905582811690841610620000875781836200008a565b82825b6001600160a01b039081166101805290811661016052166101405250620001839650505050505050565b805160ff81168114620000c657600080fd5b919050565b80516001600160a01b0381168114620000c657600080fd5b60008060008060008060008060006101208a8c0312156200010357600080fd5b6200010e8a620000b4565b985060208a015197506200012560408b01620000b4565b965060608a0151955060808a015194506200014360a08b01620000cb565b93506200015360c08b01620000cb565b92506200016360e08b01620000cb565b9150620001746101008b01620000cb565b90509295985092959850929598565b60805160a05160c05160e0516101005161012051610140516101605161018051611db462000264600039600081816104b601526113be015260008181610250015261138201526000818161048f015281816109dc015281816112e1015281816114b501526115860152600061035c0152600061044b01526000818161021701528181610b2e0152610f44015260008181610517015261111b0152600081816104dd01528181610586015281816110b701526110e201526000818161053e01528181610c2f01528181610dc801528181610ea401526110310152611db46000f3fe608060405234801561001057600080fd5b50600436106101da5760003560e01c80639342c8f411610104578063cd671a58116100a2578063ee3453ed11610071578063ee3453ed146104ff578063f6def7cf14610512578063f7c618c114610539578063fdc5ab8e1461056057600080fd5b8063cd671a581461046d578063d06fcba81461048a578063d21220a7146104b1578063e11400bb146104d857600080fd5b8063a47bd496116100de578063a47bd49614610418578063b88a802f1461042b578063bb57852d14610433578063c75363b61461044657600080fd5b80639342c8f4146103df578063979db1c4146103f2578063983d95ce1461040557600080fd5b806329ed1cfd1161017c5780635b680a451161014b5780635b680a45146103915780635f8e422f146103bc5780638431165e146103c45780638da5cb5b146103cc57600080fd5b806329ed1cfd1461033b5780632e1a7d4d1461034457806337ba682d146103575780634fb2e45d1461037e57600080fd5b806310087fb1116101b857806310087fb11461028a57806310c6c1c21461029f578063157775df14610308578063291c73c31461032857600080fd5b80630bce1284146101df5780630d437d40146102125780630dfe16811461024b575b600080fd5b6101ff6101ed366004611826565b60056020526000908152604090205481565b6040519081526020015b60405180910390f35b6102397f000000000000000000000000000000000000000000000000000000000000000081565b60405160ff9091168152602001610209565b6102727f000000000000000000000000000000000000000000000000000000000000000081565b6040516001600160a01b039091168152602001610209565b61029d61029836600461183f565b610576565b005b6102de6102ad366004611826565b60076020526000908152604090208054600182015460028301546003909301546001600160a01b0390921692909184565b604080516001600160a01b0390951685526020850193909352918301526060820152608001610209565b6101ff610316366004611826565b60046020526000908152604090205481565b6101ff61033636600461188a565b610819565b6101ff60065481565b61029d610352366004611826565b61084a565b6101ff7f000000000000000000000000000000000000000000000000000000000000000081565b61029d61038c3660046118b6565b610a8a565b6101ff61039f36600461188a565b600260209081526000928352604080842090915290825290205481565b61029d610ad6565b6101ff610b27565b600054610272906001600160a01b031681565b61029d6103ed366004611826565b610c00565b6101ff610400366004611984565b610c58565b61029d6104133660046119e8565b610e31565b61029d610426366004611a25565b610e75565b61029d610f3e565b6101ff61044136600461188a565b611089565b6101ff7f000000000000000000000000000000000000000000000000000000000000000081565b61047661025881565b60405162ffffff9091168152602001610209565b6102727f000000000000000000000000000000000000000000000000000000000000000081565b6102727f000000000000000000000000000000000000000000000000000000000000000081565b6102397f000000000000000000000000000000000000000000000000000000000000000081565b6101ff61050d36600461183f565b6110ae565b6101ff7f000000000000000000000000000000000000000000000000000000000000000081565b6102727f000000000000000000000000000000000000000000000000000000000000000081565b610568611178565b604051610209929190611a47565b60008160ff161180156105af57507f000000000000000000000000000000000000000000000000000000000000000060ff168160ff1611155b6105f45760405162461bcd60e51b815260206004820152601160248201527039ba30b5b2903bb2b2b5b99032b93937b960791b60448201526064015b60405180910390fd5b60006105ff836112d6565b9050600061060f61025842611aa5565b61061a906001611ac7565b9050600061062883856110ae565b905060005b8460ff168160ff1610156106c257816004600061064d60ff851687611ac7565b8152602001908152602001600020600082825461066a9190611ac7565b9091555050336000908152600260205260408120839161068d60ff851687611ac7565b815260200190815260200160002060008282546106aa9190611ac7565b909155508190506106ba81611ae0565b91505061062d565b506040805160808101825233815260208101839052908101839052606081016106ee60ff871685611ac7565b90526000868152600760209081526040808320845181546001600160a01b0319166001600160a01b0390911617815584830151600180830191909155858301516002830155606090950151600391820155338452909152902090810154905403610765573360009081526003602052604090208290555b61077260ff851683611ac7565b3360009081526003602052604090206001015410156107ac5761079860ff851683611ac7565b336000908152600360205260409020600101555b336000818152600860209081526040808320805460018101825590845292829020909201889055815188815290810186905260ff87168183015290517f6fa2f6021ee337436cdf2b2570285886da18bc06402ce284d296504a0fe8f8759181900360600190a25050505050565b6008602052816000526040600020818154811061083557600080fd5b90600052602060002001600091509150505481565b6000818152600760205260409020546001600160a01b031633146108a25760405162461bcd60e51b815260206004820152600f60248201526e37bbb732b9103337b93134b23232b760891b60448201526064016105eb565b60006108b061025842611aa5565b6000838152600760205260409020600301549091508110156109025760405162461bcd60e51b815260206004820152600b60248201526a6c6f636b65642074696d6560a81b60448201526064016105eb565b336000908152600860205260408120905b8154811015610a4f5781818154811061092e5761092e611aff565b90600052602060002001548403610a3d578154829061094f90600190611b15565b8154811061095f5761095f611aff565b906000526020600020015482828154811061097c5761097c611aff565b90600052602060002001819055508180548061099a5761099a611b28565b600082815260208120820160001990810191909155019055604051632142170760e11b8152306004820152336024820152604481018590526001600160a01b037f000000000000000000000000000000000000000000000000000000000000000016906342842e0e90606401600060405180830381600087803b158015610a2057600080fd5b505af1158015610a34573d6000803e3d6000fd5b50505050610a4f565b80610a4781611b3e565b915050610913565b5060405183815233907f884edad9ce6fa2440d8a54cc123490eb96d2768479d49ff9c7366125a94243649060200160405180910390a2505050565b6000546001600160a01b03163314610ab45760405162461bcd60e51b81526004016105eb90611b57565b600180546001600160a01b0319166001600160a01b0392909216919091179055565b6001546001600160a01b03163314610b005760405162461bcd60e51b81526004016105eb90611b57565b60018054600080546001600160a01b03199081166001600160a01b03841617909155169055565b60008060ff7f000000000000000000000000000000000000000000000000000000000000000016610b5a61025842611aa5565b610b649190611b15565b33600090815260036020526040812054919250905b33600090815260036020526040902060010154811015610bf957828111610bf957600081815260046020908152604080832054338452600283528184208585528352818420546005909352922054610bd19190611b7a565b610bdb9190611aa5565b610be59083611ac7565b915080610bf181611b3e565b915050610b79565b5092915050565b6000546001600160a01b03163314610c2a5760405162461bcd60e51b81526004016105eb90611b57565b610c557f000000000000000000000000000000000000000000000000000000000000000033836115ff565b50565b600080546001600160a01b03163314610c835760405162461bcd60e51b81526004016105eb90611b57565b8151835114610cc75760405162461bcd60e51b815260206004820152601060248201526f3830b930b6b2ba32b9399032b93937b960811b60448201526064016105eb565b60005b8351811015610d5757828181518110610ce557610ce5611aff565b602002602001015182610cf89190611ac7565b9150828181518110610d0c57610d0c611aff565b602002602001015160056000868481518110610d2a57610d2a611aff565b60200260200101518152602001908152602001600020819055508080610d4f90611b3e565b915050610cca565b5060008351118015610d9057506006548360018551610d769190611b15565b81518110610d8657610d86611aff565b6020026020010151115b15610dc3578260018451610da49190611b15565b81518110610db457610db4611aff565b60200260200101516006819055505b610def7f000000000000000000000000000000000000000000000000000000000000000033308461170c565b60408051600081526020810183905233917fc3991418cacd70a010fce559a44fcbb47534ca43bf7543964bdca2639f6e6e5a910160405180910390a292915050565b60005b8151811015610e7157610e5f828281518110610e5257610e52611aff565b602002602001015161084a565b80610e6981611b3e565b915050610e34565b5050565b6000546001600160a01b03163314610e9f5760405162461bcd60e51b81526004016105eb90611b57565b610ecb7f000000000000000000000000000000000000000000000000000000000000000033308461170c565b60008281526005602052604081208054839290610ee9908490611ac7565b9091555050600654821115610efe5760068290555b604080518381526020810183905233917fc3991418cacd70a010fce559a44fcbb47534ca43bf7543964bdca2639f6e6e5a91015b60405180910390a25050565b600060ff7f000000000000000000000000000000000000000000000000000000000000000016610f7061025842611aa5565b610f7a9190611b15565b33600090815260036020526040812054919250905b3360009081526003602052604090206001015481101561102b5782811161102b57610fbb816001611ac7565b33600090815260036020526040812001556000818152600460209081526040808320543384526002835281842085855283528184205460059093529220546110039190611b7a565b61100d9190611aa5565b6110179083611ac7565b91508061102381611b3e565b915050610f8f565b506110577f000000000000000000000000000000000000000000000000000000000000000033836115ff565b60405181815233907fba8de60c3403ec381d1d484652ea1980e3c3e56359195c92525bff4ce47ad98e90602001610f32565b600360205281600052604060002081600281106110a557600080fd5b01549150829050565b60006110db60017f0000000000000000000000000000000000000000000000000000000000000000611b91565b60ff1660017f000000000000000000000000000000000000000000000000000000000000000060ff166001856111119190611b91565b60ff1661113f60017f0000000000000000000000000000000000000000000000000000000000000000611b15565b6111499190611b7a565b6111539190611ac7565b61115d9190611b15565b6111679085611b7a565b6111719190611aa5565b9392505050565b3360009081526008602052604081205460609190819067ffffffffffffffff8111156111a6576111a66118d3565b6040519080825280602002602001820160405280156111cf578160200160208202803683370190505b50905060006111e061025842611aa5565b3360009081526008602052604081205491925090815b336000908152600860205260409020548110156112c95733600090815260086020526040812080548390811061122e5761122e611aff565b906000526020600020015490508460076000838152602001908152602001600020600301541115611289578086858151811061126c5761126c611aff565b60209081029190910101528361128181611b3e565b9450506112b6565b8261129381611baa565b935050808684815181106112a9576112a9611aff565b6020026020010181815250505b50806112c181611b3e565b9150506111f6565b5092959294509192505050565b6000806000806000807f00000000000000000000000000000000000000000000000000000000000000006001600160a01b03166399fbab88886040518263ffffffff1660e01b815260040161132d91815260200190565b61018060405180830381865afa15801561134b573d6000803e3d6000fd5b505050506040513d601f19601f8201168201806040525081019061136f9190611c0d565b50505050975097509750509650965050507f00000000000000000000000000000000000000000000000000000000000000006001600160a01b0316856001600160a01b03161480156113f257507f00000000000000000000000000000000000000000000000000000000000000006001600160a01b0316846001600160a01b0316145b61142e5760405162461bcd60e51b815260206004820152600d60248201526c3638103830b4b91032b93937b960991b60448201526064016105eb565b600283900b620d89e719148015611456575061144d620d89e719611cee565b60020b8260020b145b6114955760405162461bcd60e51b815260206004820152601060248201526f3a34b1b5903930b733b29032b93937b960811b60448201526064016105eb565b60405163020604bf60e21b81526004810188905230906001600160a01b037f0000000000000000000000000000000000000000000000000000000000000000169063081812fc90602401602060405180830381865afa1580156114fc573d6000803e3d6000fd5b505050506040513d601f19601f820116820180604052508101906115209190611d10565b6001600160a01b0316146115645760405162461bcd60e51b815260206004820152600b60248201526a6e6f7420617070726f766560a81b60448201526064016105eb565b604051632142170760e11b8152336004820152306024820152604481018890527f00000000000000000000000000000000000000000000000000000000000000006001600160a01b0316906342842e0e90606401600060405180830381600087803b1580156115d257600080fd5b505af11580156115e6573d6000803e3d6000fd5b50506001600160801b0390921698975050505050505050565b604080516001600160a01b038481166024830152604480830185905283518084039091018152606490920183526020820180516001600160e01b031663a9059cbb60e01b179052915160009283929087169161165b9190611d2d565b6000604051808303816000865af19150503d8060008114611698576040519150601f19603f3d011682016040523d82523d6000602084013e61169d565b606091505b50915091508180156116c75750805115806116c75750808060200190518101906116c79190611d5c565b6117055760405162461bcd60e51b815260206004820152600f60248201526e1514905394d1915497d19052531151608a1b60448201526064016105eb565b5050505050565b604080516001600160a01b0385811660248301528481166044830152606480830185905283518084039091018152608490920183526020820180516001600160e01b03166323b872dd60e01b17905291516000928392908816916117709190611d2d565b6000604051808303816000865af19150503d80600081146117ad576040519150601f19603f3d011682016040523d82523d6000602084013e6117b2565b606091505b50915091508180156117dc5750805115806117dc5750808060200190518101906117dc9190611d5c565b61181e5760405162461bcd60e51b81526020600482015260136024820152721d1c985b9cd9995c919c9bdb4819985a5b1959606a1b60448201526064016105eb565b505050505050565b60006020828403121561183857600080fd5b5035919050565b6000806040838503121561185257600080fd5b82359150602083013560ff8116811461186a57600080fd5b809150509250929050565b6001600160a01b0381168114610c5557600080fd5b6000806040838503121561189d57600080fd5b82356118a881611875565b946020939093013593505050565b6000602082840312156118c857600080fd5b813561117181611875565b634e487b7160e01b600052604160045260246000fd5b600082601f8301126118fa57600080fd5b8135602067ffffffffffffffff80831115611917576119176118d3565b8260051b604051601f19603f8301168101818110848211171561193c5761193c6118d3565b60405293845285810183019383810192508785111561195a57600080fd5b83870191505b8482101561197957813583529183019190830190611960565b979650505050505050565b6000806040838503121561199757600080fd5b823567ffffffffffffffff808211156119af57600080fd5b6119bb868387016118e9565b935060208501359150808211156119d157600080fd5b506119de858286016118e9565b9150509250929050565b6000602082840312156119fa57600080fd5b813567ffffffffffffffff811115611a1157600080fd5b611a1d848285016118e9565b949350505050565b60008060408385031215611a3857600080fd5b50508035926020909101359150565b604080825283519082018190526000906020906060840190828701845b82811015611a8057815184529284019290840190600101611a64565b50505092019290925292915050565b634e487b7160e01b600052601160045260246000fd5b600082611ac257634e487b7160e01b600052601260045260246000fd5b500490565b80820180821115611ada57611ada611a8f565b92915050565b600060ff821660ff8103611af657611af6611a8f565b60010192915050565b634e487b7160e01b600052603260045260246000fd5b81810381811115611ada57611ada611a8f565b634e487b7160e01b600052603160045260246000fd5b600060018201611b5057611b50611a8f565b5060010190565b6020808252600990820152683337b93134b23232b760b91b604082015260600190565b8082028115828204841417611ada57611ada611a8f565b60ff8281168282160390811115611ada57611ada611a8f565b600081611bb957611bb9611a8f565b506000190190565b8051611bcc81611875565b919050565b805162ffffff81168114611bcc57600080fd5b8051600281900b8114611bcc57600080fd5b80516001600160801b0381168114611bcc57600080fd5b6000806000806000806000806000806000806101808d8f031215611c3057600080fd5b8c516bffffffffffffffffffffffff81168114611c4c57600080fd5b9b50611c5a60208e01611bc1565b9a50611c6860408e01611bc1565b9950611c7660608e01611bc1565b9850611c8460808e01611bd1565b9750611c9260a08e01611be4565b9650611ca060c08e01611be4565b9550611cae60e08e01611bf6565b94506101008d015193506101208d01519250611ccd6101408e01611bf6565b9150611cdc6101608e01611bf6565b90509295989b509295989b509295989b565b60008160020b627fffff198103611d0757611d07611a8f565b60000392915050565b600060208284031215611d2257600080fd5b815161117181611875565b6000825160005b81811015611d4e5760208186018101518583015201611d34565b506000920191825250919050565b600060208284031215611d6e57600080fd5b8151801515811461117157600080fdfea264697066735822122089921c228a620f6d134d5835321d76e803a2e6ec6428ee84c2a268099a141d4664736f6c63430008110033",
  "linkReferences": {},
  "deployedLinkReferences": {}
}