{
  "_format": "hh-sol-artifact-1",
  "contractName": "StakeNftLiquidity",
  "sourceName": "contracts/stakeNFT721.sol",
  "abi": [
    {
      "inputs": [
        {
          "internalType": "address",
          "name": "tokenA",
          "type": "address"
        },
        {
          "internalType": "address",
          "name": "tokenB",
          "type": "address"
        },
        {
          "internalType": "address",
          "name": "nft",
          "type": "address"
        },
        {
          "internalType": "address",
          "name": "_rewardToken",
          "type": "address"
        }
      ],
      "stateMutability": "nonpayable",
      "type": "constructor"
    },
    {
      "anonymous": false,
      "inputs": [
        {
          "indexed": true,
          "internalType": "address",
          "name": "user",
          "type": "address"
        },
        {
          "indexed": false,
          "internalType": "uint256",
          "name": "tokenId",
          "type": "uint256"
        },
        {
          "indexed": false,
          "internalType": "uint256",
          "name": "amount",
          "type": "uint256"
        }
      ],
      "name": "ClaimReward",
      "type": "event"
    },
    {
      "anonymous": false,
      "inputs": [
        {
          "indexed": true,
          "internalType": "address",
          "name": "user",
          "type": "address"
        },
        {
          "indexed": false,
          "internalType": "uint256",
          "name": "no",
          "type": "uint256"
        },
        {
          "indexed": false,
          "internalType": "uint256",
          "name": "amount",
          "type": "uint256"
        }
      ],
      "name": "SetReward",
      "type": "event"
    },
    {
      "anonymous": false,
      "inputs": [
        {
          "indexed": true,
          "internalType": "address",
          "name": "user",
          "type": "address"
        },
        {
          "indexed": false,
          "internalType": "uint256",
          "name": "tokenId",
          "type": "uint256"
        },
        {
          "indexed": false,
          "internalType": "uint256",
          "name": "amount",
          "type": "uint256"
        },
        {
          "indexed": false,
          "internalType": "uint8",
          "name": "k",
          "type": "uint8"
        }
      ],
      "name": "Stake",
      "type": "event"
    },
    {
      "anonymous": false,
      "inputs": [
        {
          "indexed": true,
          "internalType": "address",
          "name": "user",
          "type": "address"
        },
        {
          "indexed": false,
          "internalType": "uint256",
          "name": "tokenId",
          "type": "uint256"
        }
      ],
      "name": "Withdraw",
      "type": "event"
    },
    {
      "inputs": [],
      "name": "MAX_SCALE",
      "outputs": [
        {
          "internalType": "uint256",
          "name": "",
          "type": "uint256"
        }
      ],
      "stateMutability": "view",
      "type": "function"
    },
    {
      "inputs": [],
      "name": "MAX_WEEKS",
      "outputs": [
        {
          "internalType": "uint8",
          "name": "",
          "type": "uint8"
        }
      ],
      "stateMutability": "view",
      "type": "function"
    },
    {
      "inputs": [],
      "name": "WEEK_SECONDS",
      "outputs": [
        {
          "internalType": "uint24",
          "name": "",
          "type": "uint24"
        }
      ],
      "stateMutability": "view",
      "type": "function"
    },
    {
      "inputs": [],
      "name": "acceptSetter",
      "outputs": [],
      "stateMutability": "nonpayable",
      "type": "function"
    },
    {
      "inputs": [
        {
          "internalType": "uint256",
          "name": "",
          "type": "uint256"
        },
        {
          "internalType": "uint256",
          "name": "",
          "type": "uint256"
        }
      ],
      "name": "bClaimReward",
      "outputs": [
        {
          "internalType": "bool",
          "name": "",
          "type": "bool"
        }
      ],
      "stateMutability": "view",
      "type": "function"
    },
    {
      "inputs": [
        {
          "internalType": "uint256",
          "name": "tokenId",
          "type": "uint256"
        },
        {
          "internalType": "uint256[]",
          "name": "Nos",
          "type": "uint256[]"
        }
      ],
      "name": "claimReward",
      "outputs": [],
      "stateMutability": "nonpayable",
      "type": "function"
    },
    {
      "inputs": [],
      "name": "claimReward",
      "outputs": [],
      "stateMutability": "nonpayable",
      "type": "function"
    },
    {
      "inputs": [],
      "name": "divConst",
      "outputs": [
        {
          "internalType": "uint32",
          "name": "",
          "type": "uint32"
        }
      ],
      "stateMutability": "view",
      "type": "function"
    },
    {
      "inputs": [
        {
          "internalType": "uint256",
          "name": "amount",
          "type": "uint256"
        },
        {
          "internalType": "uint8",
          "name": "k",
          "type": "uint8"
        }
      ],
      "name": "getScore",
      "outputs": [
        {
          "internalType": "uint256",
          "name": "",
          "type": "uint256"
        }
      ],
      "stateMutability": "view",
      "type": "function"
    },
    {
      "inputs": [],
      "name": "getUserNFTs",
      "outputs": [
        {
          "internalType": "uint256[]",
          "name": "",
          "type": "uint256[]"
        },
        {
          "internalType": "uint256",
          "name": "",
          "type": "uint256"
        }
      ],
      "stateMutability": "view",
      "type": "function"
    },
    {
      "inputs": [],
      "name": "latestNo",
      "outputs": [
        {
          "internalType": "uint256",
          "name": "",
          "type": "uint256"
        }
      ],
      "stateMutability": "view",
      "type": "function"
    },
    {
      "inputs": [],
      "name": "nftToken",
      "outputs": [
        {
          "internalType": "contract IIotabeeSwapNFT",
          "name": "",
          "type": "address"
        }
      ],
      "stateMutability": "view",
      "type": "function"
    },
    {
      "inputs": [],
      "name": "owner",
      "outputs": [
        {
          "internalType": "address",
          "name": "",
          "type": "address"
        }
      ],
      "stateMutability": "view",
      "type": "function"
    },
    {
      "inputs": [],
      "name": "rewardToken",
      "outputs": [
        {
          "internalType": "address",
          "name": "",
          "type": "address"
        }
      ],
      "stateMutability": "view",
      "type": "function"
    },
    {
      "inputs": [
        {
          "internalType": "uint256",
          "name": "",
          "type": "uint256"
        }
      ],
      "name": "rewardsOf",
      "outputs": [
        {
          "internalType": "uint256",
          "name": "",
          "type": "uint256"
        }
      ],
      "stateMutability": "view",
      "type": "function"
    },
    {
      "inputs": [
        {
          "internalType": "uint256",
          "name": "no",
          "type": "uint256"
        },
        {
          "internalType": "uint256",
          "name": "amount",
          "type": "uint256"
        }
      ],
      "name": "setReward",
      "outputs": [],
      "stateMutability": "nonpayable",
      "type": "function"
    },
    {
      "inputs": [
        {
          "internalType": "uint8",
          "name": "maxWeeks",
          "type": "uint8"
        },
        {
          "internalType": "uint256",
          "name": "maxScale",
          "type": "uint256"
        }
      ],
      "name": "setScoreFormula",
      "outputs": [],
      "stateMutability": "nonpayable",
      "type": "function"
    },
    {
      "inputs": [
        {
          "internalType": "uint256",
          "name": "tokenId",
          "type": "uint256"
        },
        {
          "internalType": "uint8",
          "name": "k",
          "type": "uint8"
        }
      ],
      "name": "stake",
      "outputs": [],
      "stateMutability": "nonpayable",
      "type": "function"
    },
    {
      "inputs": [
        {
          "internalType": "uint256",
          "name": "",
          "type": "uint256"
        }
      ],
      "name": "stakingNFTs",
      "outputs": [
        {
          "internalType": "address",
          "name": "owner",
          "type": "address"
        },
        {
          "internalType": "uint256",
          "name": "score",
          "type": "uint256"
        },
        {
          "internalType": "uint256",
          "name": "beginNo",
          "type": "uint256"
        },
        {
          "internalType": "uint256",
          "name": "endNo",
          "type": "uint256"
        },
        {
          "internalType": "uint256",
          "name": "toClaimedNo",
          "type": "uint256"
        }
      ],
      "stateMutability": "view",
      "type": "function"
    },
    {
      "inputs": [],
      "name": "token0",
      "outputs": [
        {
          "internalType": "address",
          "name": "",
          "type": "address"
        }
      ],
      "stateMutability": "view",
      "type": "function"
    },
    {
      "inputs": [],
      "name": "token1",
      "outputs": [
        {
          "internalType": "address",
          "name": "",
          "type": "address"
        }
      ],
      "stateMutability": "view",
      "type": "function"
    },
    {
      "inputs": [
        {
          "internalType": "address",
          "name": "_owner",
          "type": "address"
        }
      ],
      "name": "transferOwner",
      "outputs": [],
      "stateMutability": "nonpayable",
      "type": "function"
    },
    {
      "inputs": [
        {
          "internalType": "address",
          "name": "",
          "type": "address"
        },
        {
          "internalType": "uint256",
          "name": "",
          "type": "uint256"
        }
      ],
      "name": "userNFTs",
      "outputs": [
        {
          "internalType": "uint256",
          "name": "",
          "type": "uint256"
        }
      ],
      "stateMutability": "view",
      "type": "function"
    },
    {
      "inputs": [
        {
          "internalType": "uint256",
          "name": "tokenId",
          "type": "uint256"
        }
      ],
      "name": "withdraw",
      "outputs": [],
      "stateMutability": "nonpayable",
      "type": "function"
    }
  ],
  "bytecode": "0x6101006040523480156200001257600080fd5b5060405162001c6438038062001c648339810160408190526200003591620000bb565b600080546001600160a01b031916331790556001600160a01b03838116908516106200006357828462000066565b83835b6001600160a01b0390811660c05290811660a0529182166080521660e05250506008805460ff19166034179055600260095562000118565b80516001600160a01b0381168114620000b657600080fd5b919050565b60008060008060808587031215620000d257600080fd5b620000dd856200009e565b9350620000ed602086016200009e565b9250620000fd604086016200009e565b91506200010d606086016200009e565b905092959194509250565b60805160a05160c05160e051611ad3620001916000396000818161040401528181610b6001528181610bf60152610e460152600081816103a20152611141015260008181610195015261110501526000818161037b015281816107e9015281816110640152818161123801526113090152611ad36000f3fe608060405234801561001057600080fd5b50600436106101585760003560e01c80639b6e0d74116100c3578063d21220a71161007c578063d21220a71461039d578063e11400bb146103c4578063ee3453ed146103e3578063f6def7cf146103f6578063f7c618c1146103ff578063fdc5ab8e1461042657600080fd5b80639b6e0d74146102ec578063a47bd496146102ff578063b88a802f14610312578063cd671a581461031a578063ce6d3e3e14610338578063d06fcba81461037657600080fd5b80632e1a7d4d116101155780632e1a7d4d146102795780634fb2e45d1461028c5780635f8e422f1461029f578063721348e8146102a75780637e4856c4146102ba5780638da5cb5b146102d957600080fd5b80630bce12841461015d5780630dfe16811461019057806310087fb1146101cf57806310c6c1c2146101e4578063291c73c31461025d57806329ed1cfd14610270575b600080fd5b61017d61016b3660046115a9565b60066020526000908152604090205481565b6040519081526020015b60405180910390f35b6101b77f000000000000000000000000000000000000000000000000000000000000000081565b6040516001600160a01b039091168152602001610187565b6101e26101dd3660046115d8565b61043c565b005b61022b6101f23660046115a9565b6002602081905260009182526040909120805460018201549282015460038301546004909301546001600160a01b039092169392909185565b604080516001600160a01b0390961686526020860194909452928401919091526060830152608082015260a001610187565b61017d61026b36600461161c565b610625565b61017d60075481565b6101e26102873660046115a9565b610656565b6101e261029a366004611648565b610897565b6101e26108e3565b6101e26102b536600461166c565b610934565b6102c4620f424081565b60405163ffffffff9091168152602001610187565b6000546101b7906001600160a01b031681565b6101e26102fa36600461169e565b6109bd565b6101e261030d366004611768565b610bc7565b6101e2610c90565b61032462093a8081565b60405162ffffff9091168152602001610187565b610366610346366004611768565b600460209081526000928352604080842090915290825290205460ff1681565b6040519015158152602001610187565b6101b77f000000000000000000000000000000000000000000000000000000000000000081565b6101b77f000000000000000000000000000000000000000000000000000000000000000081565b6008546103d19060ff1681565b60405160ff9091168152602001610187565b61017d6103f13660046115d8565b610ea5565b61017d60095481565b6101b77f000000000000000000000000000000000000000000000000000000000000000081565b61042e610efa565b60405161018792919061178a565b60008160ff16118015610458575060085460ff90811690821611155b61049d5760405162461bcd60e51b815260206004820152601160248201527039ba30b5b2903bb2b2b5b99032b93937b960791b60448201526064015b60405180910390fd5b60006104a883611059565b905060006104b962093a80426117e8565b6104c490600161180a565b905060006104d28385610ea5565b905060005b8460ff168160ff16101561052c5781600560006104f760ff85168761180a565b81526020019081526020016000206000828254610514919061180a565b909155508190506105248161181d565b9150506104d7565b506040805160a081018252338152602081018390529081018390526060810161055860ff87168561180a565b81526020908101849052600087815260028083526040808320855181546001600160a01b0319166001600160a01b039091161781558585015160018083019190915586830151938201939093556060808701516003808401919091556080909701516004909201919091553380855295855281842080549384018155845292849020909101899055805189815292830187905260ff8816908301527f6fa2f6021ee337436cdf2b2570285886da18bc06402ce284d296504a0fe8f875910160405180910390a25050505050565b6003602052816000526040600020818154811061064157600080fd5b90600052602060002001600091509150505481565b6000818152600260205260409020546001600160a01b031633146106ae5760405162461bcd60e51b815260206004820152600f60248201526e37bbb732b9103337b93134b23232b760891b6044820152606401610494565b60006106bd62093a80426117e8565b60008381526002602052604090206003015490915081101561070f5760405162461bcd60e51b815260206004820152600b60248201526a6c6f636b65642074696d6560a81b6044820152606401610494565b336000908152600360205260408120905b815481101561085c5781818154811061073b5761073b61183c565b9060005260206000200154840361084a578154829061075c90600190611852565b8154811061076c5761076c61183c565b90600052602060002001548282815481106107895761078961183c565b9060005260206000200181905550818054806107a7576107a7611865565b600082815260208120820160001990810191909155019055604051632142170760e11b8152306004820152336024820152604481018590526001600160a01b037f000000000000000000000000000000000000000000000000000000000000000016906342842e0e90606401600060405180830381600087803b15801561082d57600080fd5b505af1158015610841573d6000803e3d6000fd5b5050505061085c565b806108548161187b565b915050610720565b5060405183815233907f884edad9ce6fa2440d8a54cc123490eb96d2768479d49ff9c7366125a94243649060200160405180910390a2505050565b6000546001600160a01b031633146108c15760405162461bcd60e51b815260040161049490611894565b600180546001600160a01b0319166001600160a01b0392909216919091179055565b6001546001600160a01b0316331461090d5760405162461bcd60e51b815260040161049490611894565b60018054600080546001600160a01b03199081166001600160a01b03841617909155169055565b6000546001600160a01b0316331461095e5760405162461bcd60e51b815260040161049490611894565b600181116109a35760405162461bcd60e51b81526020600482015260126024820152711b585e14d8d85b19481d1bdbc81cdb585b1b60721b6044820152606401610494565b6008805460ff191660ff9390931692909217909155600955565b6000828152600260205260409020546001600160a01b03163314610a155760405162461bcd60e51b815260206004820152600f60248201526e37bbb732b9103337b93134b23232b760891b6044820152606401610494565b6000610a2462093a80426117e8565b90506000805b8351811015610b5a576000848281518110610a4757610a4761183c565b6020908102919091018101516000888152600483526040808220838352909352919091205490915060ff1615610a7d5750610b48565b60008681526002602052604090206003015481101580610aae57506000868152600260208190526040909120015481105b15610ab95750610b48565b83811180610ad35750600081815260066020526040902054155b15610ade5750610b48565b60008681526004602090815260408083208484528252808320805460ff1916600190811790915560058352818420548a855260028452828520909101548585526006909352922054610b3091906118b7565b610b3a91906117e8565b610b44908461180a565b9250505b80610b528161187b565b915050610a2a565b50610b867f00000000000000000000000000000000000000000000000000000000000000003383611382565b604080518581526020810183905233917fe74e5c9d4ac1fc33412485f18c159a0a391efe287ab3fd271123f30e6bacf4e3910160405180910390a250505050565b6000546001600160a01b03163314610bf15760405162461bcd60e51b815260040161049490611894565b610c1d7f000000000000000000000000000000000000000000000000000000000000000033308461148f565b60008281526006602052604081208054839290610c3b90849061180a565b9091555050600754821115610c505760078290555b604080518381526020810183905233917fc3991418cacd70a010fce559a44fcbb47534ca43bf7543964bdca2639f6e6e5a91015b60405180910390a25050565b6000610c9f62093a80426117e8565b90506000805b33600090815260036020526040902054811015610e4057336000908152600360205260408120805483908110610cdd57610cdd61183c565b600091825260208083209091015480835260029091526040909120600401549091505b600082815260026020526040902060030154811015610e2b57600082815260046020908152604080832084845290915290205460ff1680610d5257506000828152600260205260409020600301548110155b80610d6e57506000828152600260208190526040909120015481105b80610d7857508481115b80610d8f5750600081815260066020526040902054155b610e195760008281526004602090815260408083208484529091529020805460ff19166001908117909155610dc590829061180a565b600083815260026020908152604080832060048101949094558483526005825280832054600190940154600690925290912054610e0291906118b7565b610e0c91906117e8565b610e16908561180a565b93505b80610e238161187b565b915050610d00565b50508080610e389061187b565b915050610ca5565b50610e6c7f00000000000000000000000000000000000000000000000000000000000000003383611382565b60408051600081526020810183905233917fe74e5c9d4ac1fc33412485f18c159a0a391efe287ab3fd271123f30e6bacf4e39101610c84565b600854600954600091829160ff91821691829190861690610ec890600190611852565b610ed291906118b7565b610edc919061180a565b610ee690866118b7565b610ef091906117e8565b9150505b92915050565b3360009081526003602052604081205460609190819067ffffffffffffffff811115610f2857610f28611688565b604051908082528060200260200182016040528015610f51578160200160208202803683370190505b5090506000610f6362093a80426117e8565b3360009081526003602052604081205491925090815b3360009081526003602052604090205481101561104c57336000908152600360205260408120805483908110610fb157610fb161183c565b90600052602060002001549050846002600083815260200190815260200160002060030154111561100c5780868581518110610fef57610fef61183c565b6020908102919091010152836110048161187b565b945050611039565b82611016816118ce565b9350508086848151811061102c5761102c61183c565b6020026020010181815250505b50806110448161187b565b915050610f79565b5092959294509192505050565b6000806000806000807f00000000000000000000000000000000000000000000000000000000000000006001600160a01b03166399fbab88886040518263ffffffff1660e01b81526004016110b091815260200190565b61018060405180830381865afa1580156110ce573d6000803e3d6000fd5b505050506040513d601f19601f820116820180604052508101906110f2919061192c565b50505050975097509750509650965050507f00000000000000000000000000000000000000000000000000000000000000006001600160a01b0316856001600160a01b031614801561117557507f00000000000000000000000000000000000000000000000000000000000000006001600160a01b0316846001600160a01b0316145b6111b15760405162461bcd60e51b815260206004820152600d60248201526c3638103830b4b91032b93937b960991b6044820152606401610494565b600283900b620d89e7191480156111d957506111d0620d89e719611a0d565b60020b8260020b145b6112185760405162461bcd60e51b815260206004820152601060248201526f3a34b1b5903930b733b29032b93937b960811b6044820152606401610494565b60405163020604bf60e21b81526004810188905230906001600160a01b037f0000000000000000000000000000000000000000000000000000000000000000169063081812fc90602401602060405180830381865afa15801561127f573d6000803e3d6000fd5b505050506040513d601f19601f820116820180604052508101906112a39190611a2f565b6001600160a01b0316146112e75760405162461bcd60e51b815260206004820152600b60248201526a6e6f7420617070726f766560a81b6044820152606401610494565b604051632142170760e11b8152336004820152306024820152604481018890527f00000000000000000000000000000000000000000000000000000000000000006001600160a01b0316906342842e0e90606401600060405180830381600087803b15801561135557600080fd5b505af1158015611369573d6000803e3d6000fd5b50506001600160801b0390921698975050505050505050565b604080516001600160a01b038481166024830152604480830185905283518084039091018152606490920183526020820180516001600160e01b031663a9059cbb60e01b17905291516000928392908716916113de9190611a4c565b6000604051808303816000865af19150503d806000811461141b576040519150601f19603f3d011682016040523d82523d6000602084013e611420565b606091505b509150915081801561144a57508051158061144a57508080602001905181019061144a9190611a7b565b6114885760405162461bcd60e51b815260206004820152600f60248201526e1514905394d1915497d19052531151608a1b6044820152606401610494565b5050505050565b604080516001600160a01b0385811660248301528481166044830152606480830185905283518084039091018152608490920183526020820180516001600160e01b03166323b872dd60e01b17905291516000928392908816916114f39190611a4c565b6000604051808303816000865af19150503d8060008114611530576040519150601f19603f3d011682016040523d82523d6000602084013e611535565b606091505b509150915081801561155f57508051158061155f57508080602001905181019061155f9190611a7b565b6115a15760405162461bcd60e51b81526020600482015260136024820152721d1c985b9cd9995c919c9bdb4819985a5b1959606a1b6044820152606401610494565b505050505050565b6000602082840312156115bb57600080fd5b5035919050565b803560ff811681146115d357600080fd5b919050565b600080604083850312156115eb57600080fd5b823591506115fb602084016115c2565b90509250929050565b6001600160a01b038116811461161957600080fd5b50565b6000806040838503121561162f57600080fd5b823561163a81611604565b946020939093013593505050565b60006020828403121561165a57600080fd5b813561166581611604565b9392505050565b6000806040838503121561167f57600080fd5b61163a836115c2565b634e487b7160e01b600052604160045260246000fd5b600080604083850312156116b157600080fd5b8235915060208084013567ffffffffffffffff808211156116d157600080fd5b818601915086601f8301126116e557600080fd5b8135818111156116f7576116f7611688565b8060051b604051601f19603f8301168101818110858211171561171c5761171c611688565b60405291825284820192508381018501918983111561173a57600080fd5b938501935b828510156117585784358452938501939285019261173f565b8096505050505050509250929050565b6000806040838503121561177b57600080fd5b50508035926020909101359150565b604080825283519082018190526000906020906060840190828701845b828110156117c3578151845292840192908401906001016117a7565b50505092019290925292915050565b634e487b7160e01b600052601160045260246000fd5b60008261180557634e487b7160e01b600052601260045260246000fd5b500490565b80820180821115610ef457610ef46117d2565b600060ff821660ff8103611833576118336117d2565b60010192915050565b634e487b7160e01b600052603260045260246000fd5b81810381811115610ef457610ef46117d2565b634e487b7160e01b600052603160045260246000fd5b60006001820161188d5761188d6117d2565b5060010190565b6020808252600990820152683337b93134b23232b760b91b604082015260600190565b8082028115828204841417610ef457610ef46117d2565b6000816118dd576118dd6117d2565b506000190190565b80516115d381611604565b805162ffffff811681146115d357600080fd5b8051600281900b81146115d357600080fd5b80516001600160801b03811681146115d357600080fd5b6000806000806000806000806000806000806101808d8f03121561194f57600080fd5b8c516bffffffffffffffffffffffff8116811461196b57600080fd5b9b5061197960208e016118e5565b9a5061198760408e016118e5565b995061199560608e016118e5565b98506119a360808e016118f0565b97506119b160a08e01611903565b96506119bf60c08e01611903565b95506119cd60e08e01611915565b94506101008d015193506101208d015192506119ec6101408e01611915565b91506119fb6101608e01611915565b90509295989b509295989b509295989b565b60008160020b627fffff198103611a2657611a266117d2565b60000392915050565b600060208284031215611a4157600080fd5b815161166581611604565b6000825160005b81811015611a6d5760208186018101518583015201611a53565b506000920191825250919050565b600060208284031215611a8d57600080fd5b8151801515811461166557600080fdfea2646970667358221220b855798c35995534ea869ddb46d9e11a235b6e8435a19d48c64663a66f410e7264736f6c63430008110033",
  "linkReferences": {},
  "deployedLinkReferences": {}
}