{
  "_format": "hh-sol-artifact-1",
  "contractName": "StakeNFT721",
  "sourceName": "contracts/stakeNFT721.sol",
  "abi": [
    {
      "inputs": [
        {
          "internalType": "uint8",
          "name": "maxWeeks",
          "type": "uint8"
        },
        {
          "internalType": "uint256",
          "name": "maxScale",
          "type": "uint256"
        },
        {
          "internalType": "address",
          "name": "_rewardToken",
          "type": "address"
        },
        {
          "internalType": "address",
          "name": "tokenA",
          "type": "address"
        },
        {
          "internalType": "address",
          "name": "tokenB",
          "type": "address"
        },
        {
          "internalType": "address",
          "name": "nft",
          "type": "address"
        }
      ],
      "stateMutability": "nonpayable",
      "type": "constructor"
    },
    {
      "anonymous": false,
      "inputs": [
        {
          "indexed": true,
          "internalType": "address",
          "name": "user",
          "type": "address"
        },
        {
          "indexed": false,
          "internalType": "uint256",
          "name": "tokenId",
          "type": "uint256"
        },
        {
          "indexed": false,
          "internalType": "uint256",
          "name": "amount",
          "type": "uint256"
        }
      ],
      "name": "ClaimReward",
      "type": "event"
    },
    {
      "anonymous": false,
      "inputs": [
        {
          "indexed": true,
          "internalType": "address",
          "name": "user",
          "type": "address"
        },
        {
          "indexed": false,
          "internalType": "uint256",
          "name": "no",
          "type": "uint256"
        },
        {
          "indexed": false,
          "internalType": "uint256",
          "name": "amount",
          "type": "uint256"
        }
      ],
      "name": "SetReward",
      "type": "event"
    },
    {
      "anonymous": false,
      "inputs": [
        {
          "indexed": true,
          "internalType": "address",
          "name": "user",
          "type": "address"
        },
        {
          "indexed": false,
          "internalType": "uint256",
          "name": "tokenId",
          "type": "uint256"
        },
        {
          "indexed": false,
          "internalType": "uint256",
          "name": "amount",
          "type": "uint256"
        },
        {
          "indexed": false,
          "internalType": "uint8",
          "name": "k",
          "type": "uint8"
        }
      ],
      "name": "Stake",
      "type": "event"
    },
    {
      "anonymous": false,
      "inputs": [
        {
          "indexed": true,
          "internalType": "address",
          "name": "user",
          "type": "address"
        },
        {
          "indexed": false,
          "internalType": "uint256",
          "name": "tokenId",
          "type": "uint256"
        }
      ],
      "name": "Withdraw",
      "type": "event"
    },
    {
      "inputs": [],
      "name": "MAX_SCALE",
      "outputs": [
        {
          "internalType": "uint256",
          "name": "",
          "type": "uint256"
        }
      ],
      "stateMutability": "view",
      "type": "function"
    },
    {
      "inputs": [],
      "name": "MAX_WEEKS",
      "outputs": [
        {
          "internalType": "uint8",
          "name": "",
          "type": "uint8"
        }
      ],
      "stateMutability": "view",
      "type": "function"
    },
    {
      "inputs": [],
      "name": "WEEK_SECONDS",
      "outputs": [
        {
          "internalType": "uint24",
          "name": "",
          "type": "uint24"
        }
      ],
      "stateMutability": "view",
      "type": "function"
    },
    {
      "inputs": [],
      "name": "acceptSetter",
      "outputs": [],
      "stateMutability": "nonpayable",
      "type": "function"
    },
    {
      "inputs": [
        {
          "internalType": "uint256",
          "name": "",
          "type": "uint256"
        },
        {
          "internalType": "uint256",
          "name": "",
          "type": "uint256"
        }
      ],
      "name": "bClaimReward",
      "outputs": [
        {
          "internalType": "bool",
          "name": "",
          "type": "bool"
        }
      ],
      "stateMutability": "view",
      "type": "function"
    },
    {
      "inputs": [
        {
          "internalType": "uint256",
          "name": "tokenId",
          "type": "uint256"
        },
        {
          "internalType": "uint256[]",
          "name": "nos",
          "type": "uint256[]"
        }
      ],
      "name": "claimReward",
      "outputs": [],
      "stateMutability": "nonpayable",
      "type": "function"
    },
    {
      "inputs": [],
      "name": "claimReward",
      "outputs": [],
      "stateMutability": "nonpayable",
      "type": "function"
    },
    {
      "inputs": [
        {
          "internalType": "uint256",
          "name": "amount",
          "type": "uint256"
        },
        {
          "internalType": "uint8",
          "name": "k",
          "type": "uint8"
        }
      ],
      "name": "getScore",
      "outputs": [
        {
          "internalType": "uint256",
          "name": "score",
          "type": "uint256"
        }
      ],
      "stateMutability": "view",
      "type": "function"
    },
    {
      "inputs": [],
      "name": "getUserNFTs",
      "outputs": [
        {
          "internalType": "uint256[]",
          "name": "",
          "type": "uint256[]"
        },
        {
          "internalType": "uint256",
          "name": "",
          "type": "uint256"
        }
      ],
      "stateMutability": "view",
      "type": "function"
    },
    {
      "inputs": [],
      "name": "latestNo",
      "outputs": [
        {
          "internalType": "uint256",
          "name": "",
          "type": "uint256"
        }
      ],
      "stateMutability": "view",
      "type": "function"
    },
    {
      "inputs": [],
      "name": "nftToken",
      "outputs": [
        {
          "internalType": "contract IIotabeeSwapNFT",
          "name": "",
          "type": "address"
        }
      ],
      "stateMutability": "view",
      "type": "function"
    },
    {
      "inputs": [],
      "name": "owner",
      "outputs": [
        {
          "internalType": "address",
          "name": "",
          "type": "address"
        }
      ],
      "stateMutability": "view",
      "type": "function"
    },
    {
      "inputs": [],
      "name": "rewardToken",
      "outputs": [
        {
          "internalType": "address",
          "name": "",
          "type": "address"
        }
      ],
      "stateMutability": "view",
      "type": "function"
    },
    {
      "inputs": [
        {
          "internalType": "uint256",
          "name": "",
          "type": "uint256"
        }
      ],
      "name": "rewardsOf",
      "outputs": [
        {
          "internalType": "uint256",
          "name": "",
          "type": "uint256"
        }
      ],
      "stateMutability": "view",
      "type": "function"
    },
    {
      "inputs": [
        {
          "internalType": "uint256[]",
          "name": "nos",
          "type": "uint256[]"
        },
        {
          "internalType": "uint256[]",
          "name": "amounts",
          "type": "uint256[]"
        }
      ],
      "name": "setReward",
      "outputs": [
        {
          "internalType": "uint256",
          "name": "total",
          "type": "uint256"
        }
      ],
      "stateMutability": "nonpayable",
      "type": "function"
    },
    {
      "inputs": [
        {
          "internalType": "uint256",
          "name": "no",
          "type": "uint256"
        },
        {
          "internalType": "uint256",
          "name": "amount",
          "type": "uint256"
        }
      ],
      "name": "setReward",
      "outputs": [],
      "stateMutability": "nonpayable",
      "type": "function"
    },
    {
      "inputs": [
        {
          "internalType": "uint256",
          "name": "tokenId",
          "type": "uint256"
        },
        {
          "internalType": "uint8",
          "name": "k",
          "type": "uint8"
        }
      ],
      "name": "stake",
      "outputs": [],
      "stateMutability": "nonpayable",
      "type": "function"
    },
    {
      "inputs": [
        {
          "internalType": "uint256",
          "name": "",
          "type": "uint256"
        }
      ],
      "name": "stakingNFTs",
      "outputs": [
        {
          "internalType": "address",
          "name": "owner",
          "type": "address"
        },
        {
          "internalType": "uint256",
          "name": "score",
          "type": "uint256"
        },
        {
          "internalType": "uint256",
          "name": "beginNo",
          "type": "uint256"
        },
        {
          "internalType": "uint256",
          "name": "endNo",
          "type": "uint256"
        },
        {
          "internalType": "uint256",
          "name": "toClaimNo",
          "type": "uint256"
        }
      ],
      "stateMutability": "view",
      "type": "function"
    },
    {
      "inputs": [],
      "name": "token0",
      "outputs": [
        {
          "internalType": "address",
          "name": "",
          "type": "address"
        }
      ],
      "stateMutability": "view",
      "type": "function"
    },
    {
      "inputs": [],
      "name": "token1",
      "outputs": [
        {
          "internalType": "address",
          "name": "",
          "type": "address"
        }
      ],
      "stateMutability": "view",
      "type": "function"
    },
    {
      "inputs": [
        {
          "internalType": "uint256",
          "name": "",
          "type": "uint256"
        }
      ],
      "name": "totalScores",
      "outputs": [
        {
          "internalType": "uint256",
          "name": "",
          "type": "uint256"
        }
      ],
      "stateMutability": "view",
      "type": "function"
    },
    {
      "inputs": [
        {
          "internalType": "address",
          "name": "_owner",
          "type": "address"
        }
      ],
      "name": "transferOwner",
      "outputs": [],
      "stateMutability": "nonpayable",
      "type": "function"
    },
    {
      "inputs": [
        {
          "internalType": "address",
          "name": "",
          "type": "address"
        },
        {
          "internalType": "uint256",
          "name": "",
          "type": "uint256"
        }
      ],
      "name": "userNFTs",
      "outputs": [
        {
          "internalType": "uint256",
          "name": "",
          "type": "uint256"
        }
      ],
      "stateMutability": "view",
      "type": "function"
    },
    {
      "inputs": [
        {
          "internalType": "uint256",
          "name": "tokenId",
          "type": "uint256"
        }
      ],
      "name": "withdraw",
      "outputs": [],
      "stateMutability": "nonpayable",
      "type": "function"
    },
    {
      "inputs": [
        {
          "internalType": "uint256[]",
          "name": "tokenIds",
          "type": "uint256[]"
        }
      ],
      "name": "withdraw",
      "outputs": [],
      "stateMutability": "nonpayable",
      "type": "function"
    }
  ],
  "bytecode": "0x6101406040523480156200001257600080fd5b5060405162001f0d38038062001f0d8339810160408190526200003591620000bb565b6001600160a01b0380851660805260ff871660a05260c0869052600080546001600160a01b03191633179055828116908416106200007557818362000078565b82825b6001600160a01b0390811661012052908116610100521660e052506200013b9350505050565b80516001600160a01b0381168114620000b657600080fd5b919050565b60008060008060008060c08789031215620000d557600080fd5b865160ff81168114620000e757600080fd5b60208801519096509450620000ff604088016200009e565b93506200010f606088016200009e565b92506200011f608088016200009e565b91506200012f60a088016200009e565b90509295509295509295565b60805160a05160c05160e0516101005161012051611d20620001ed600039600081816103d001526112ea0152600081816101b001526112ae0152600081816103a9015281816108630152818161120d015281816113e101526114b201526000818161044301526110470152600081816103f7015281816104b201528181610fe3015261100e01526000818161046a015281816109d201528181610cdd01528181610d730152610f7b0152611d206000f3fe608060405234801561001057600080fd5b50600436106101735760003560e01c8063983d95ce116100de578063d06fcba811610097578063ee3453ed11610071578063ee3453ed1461042b578063f6def7cf1461043e578063f7c618c114610465578063fdc5ab8e1461048c57600080fd5b8063d06fcba8146103a4578063d21220a7146103cb578063e11400bb146103f257600080fd5b8063983d95ce146103085780639b6e0d741461031b578063a47bd4961461032e578063b88a802f14610341578063cd671a5814610349578063ce6d3e3e1461036657600080fd5b806329ed1cfd1161013057806329ed1cfd146102ab5780632e1a7d4d146102b45780634d10c55a146102c75780634fb2e45d146102da5780635f8e422f146102ed5780638da5cb5b146102f557600080fd5b80630bce1284146101785780630dfe1681146101ab57806310087fb1146101ea57806310c6c1c2146101ff578063157775df14610278578063291c73c314610298575b600080fd5b610198610186366004611752565b60046020526000908152604090205481565b6040519081526020015b60405180910390f35b6101d27f000000000000000000000000000000000000000000000000000000000000000081565b6040516001600160a01b0390911681526020016101a2565b6101fd6101f836600461176b565b6104a2565b005b61024661020d366004611752565b600660205260009081526040902080546001820154600283015460038401546004909401546001600160a01b0390931693919290919085565b604080516001600160a01b0390961686526020860194909452928401919091526060830152608082015260a0016101a2565b610198610286366004611752565b60036020526000908152604090205481565b6101986102a63660046117b9565b6106a0565b61019860055481565b6101fd6102c2366004611752565b6106d1565b6101986102d5366004611896565b610911565b6101fd6102e83660046118fa565b610a3b565b6101fd610a87565b6000546101d2906001600160a01b031681565b6101fd610316366004611917565b610ad8565b6101fd610329366004611954565b610b1c565b6101fd61033c366004611991565b610d44565b6101fd610dfd565b61035261025881565b60405162ffffff90911681526020016101a2565b610394610374366004611991565b600260209081526000928352604080842090915290825290205460ff1681565b60405190151581526020016101a2565b6101d27f000000000000000000000000000000000000000000000000000000000000000081565b6101d27f000000000000000000000000000000000000000000000000000000000000000081565b6104197f000000000000000000000000000000000000000000000000000000000000000081565b60405160ff90911681526020016101a2565b61019861043936600461176b565b610fda565b6101987f000000000000000000000000000000000000000000000000000000000000000081565b6101d27f000000000000000000000000000000000000000000000000000000000000000081565b6104946110a4565b6040516101a29291906119b3565b60008160ff161180156104db57507f000000000000000000000000000000000000000000000000000000000000000060ff168160ff1611155b6105205760405162461bcd60e51b815260206004820152601160248201527039ba30b5b2903bb2b2b5b99032b93937b960791b60448201526064015b60405180910390fd5b600061052b83611202565b9050600061053b61025842611a11565b610546906001611a33565b905060006105548385610fda565b905060005b8460ff168160ff1610156105ae57816003600061057960ff851687611a33565b815260200190815260200160002060008282546105969190611a33565b909155508190506105a681611a4c565b915050610559565b506040805160a08101825233815260208101839052908101839052606081016105da60ff871685611a33565b815260209081018490526000878152600682526040808220845181546001600160a01b0319166001600160a01b0390911617815584840151600180830191909155858301516002830155606080870151600384015560809096015160049092019190915533808452600785528284208054928301815584529284902001899055805189815292830187905260ff881690830152917f6fa2f6021ee337436cdf2b2570285886da18bc06402ce284d296504a0fe8f875910160405180910390a25050505050565b600760205281600052604060002081815481106106bc57600080fd5b90600052602060002001600091509150505481565b6000818152600660205260409020546001600160a01b031633146107295760405162461bcd60e51b815260206004820152600f60248201526e37bbb732b9103337b93134b23232b760891b6044820152606401610517565b600061073761025842611a11565b6000838152600660205260409020600301549091508110156107895760405162461bcd60e51b815260206004820152600b60248201526a6c6f636b65642074696d6560a81b6044820152606401610517565b336000908152600760205260408120905b81548110156108d6578181815481106107b5576107b5611a6b565b906000526020600020015484036108c457815482906107d690600190611a81565b815481106107e6576107e6611a6b565b906000526020600020015482828154811061080357610803611a6b565b90600052602060002001819055508180548061082157610821611a94565b600082815260208120820160001990810191909155019055604051632142170760e11b8152306004820152336024820152604481018590526001600160a01b037f000000000000000000000000000000000000000000000000000000000000000016906342842e0e90606401600060405180830381600087803b1580156108a757600080fd5b505af11580156108bb573d6000803e3d6000fd5b505050506108d6565b806108ce81611aaa565b91505061079a565b5060405183815233907f884edad9ce6fa2440d8a54cc123490eb96d2768479d49ff9c7366125a94243649060200160405180910390a2505050565b600080546001600160a01b0316331461093c5760405162461bcd60e51b815260040161051790611ac3565b60005b83518110156109cc5782818151811061095a5761095a611a6b565b60200260200101518261096d9190611a33565b915082818151811061098157610981611a6b565b60200260200101516004600086848151811061099f5761099f611a6b565b602002602001015181526020019081526020016000208190555080806109c490611aaa565b91505061093f565b506109f97f000000000000000000000000000000000000000000000000000000000000000033308461152b565b60408051600081526020810183905233917fc3991418cacd70a010fce559a44fcbb47534ca43bf7543964bdca2639f6e6e5a910160405180910390a292915050565b6000546001600160a01b03163314610a655760405162461bcd60e51b815260040161051790611ac3565b600180546001600160a01b0319166001600160a01b0392909216919091179055565b6001546001600160a01b03163314610ab15760405162461bcd60e51b815260040161051790611ac3565b60018054600080546001600160a01b03199081166001600160a01b03841617909155169055565b60005b8151811015610b1857610b06828281518110610af957610af9611a6b565b60200260200101516106d1565b80610b1081611aaa565b915050610adb565b5050565b6000828152600660205260409020546001600160a01b03163314610b745760405162461bcd60e51b815260206004820152600f60248201526e37bbb732b9103337b93134b23232b760891b6044820152606401610517565b6000610b8261025842611a11565b90506000805b8351811015610cd7576000848281518110610ba557610ba5611a6b565b6020908102919091018101516000888152600283526040808220838352909352919091205490915060ff1615610bdb5750610cc5565b600086815260026020908152604080832084845290915290205460ff1680610c1457506000868152600660205260409020600301548110155b80610c2f575060008681526006602052604090206002015481105b80610c3957508381115b80610c505750600081815260046020526040902054155b15610c5b5750610cc5565b60008681526002602090815260408083208484528252808320805460ff1916600190811790915560038352818420548a855260068452828520909101548585526004909352922054610cad9190611ae6565b610cb79190611a11565b610cc19084611a33565b9250505b80610ccf81611aaa565b915050610b88565b50610d037f00000000000000000000000000000000000000000000000000000000000000003383611645565b604080518581526020810183905233917fe74e5c9d4ac1fc33412485f18c159a0a391efe287ab3fd271123f30e6bacf4e3910160405180910390a250505050565b6000546001600160a01b03163314610d6e5760405162461bcd60e51b815260040161051790611ac3565b610d9a7f000000000000000000000000000000000000000000000000000000000000000033308461152b565b60008281526004602052604081208054839290610db8908490611a33565b9091555050604080518381526020810183905233917fc3991418cacd70a010fce559a44fcbb47534ca43bf7543964bdca2639f6e6e5a91015b60405180910390a25050565b6000610e0b61025842611a11565b90506000805b33600090815260076020526040902054811015610f7557336000908152600760205260408120805483908110610e4957610e49611a6b565b600091825260208083209091015480835260069091526040909120600401549091505b600082815260066020526040902060030154811015610f6057600082815260026020908152604080832084845290915290205460ff1680610eac57508481115b80610ec35750600081815260046020526040902054155b610f4e5760008281526002602090815260408083208484529091529020805460ff19166001908117909155610ef9908290611a33565b6000838152600660209081526040808320600480820195909555858452600383528184205460019091015494909252909120549091610f3791611ae6565b610f419190611a11565b610f4b9085611a33565b93505b80610f5881611aaa565b915050610e6c565b50508080610f6d90611aaa565b915050610e11565b50610fa17f00000000000000000000000000000000000000000000000000000000000000003383611645565b60408051600081526020810183905233917fe74e5c9d4ac1fc33412485f18c159a0a391efe287ab3fd271123f30e6bacf4e39101610df1565b600061100760017f0000000000000000000000000000000000000000000000000000000000000000611afd565b60ff1660017f000000000000000000000000000000000000000000000000000000000000000060ff1660018561103d9190611afd565b60ff1661106b60017f0000000000000000000000000000000000000000000000000000000000000000611a81565b6110759190611ae6565b61107f9190611a33565b6110899190611a81565b6110939085611ae6565b61109d9190611a11565b9392505050565b3360009081526007602052604081205460609190819067ffffffffffffffff8111156110d2576110d26117e5565b6040519080825280602002602001820160405280156110fb578160200160208202803683370190505b509050600061110c61025842611a11565b3360009081526007602052604081205491925090815b336000908152600760205260409020548110156111f55733600090815260076020526040812080548390811061115a5761115a611a6b565b9060005260206000200154905084600660008381526020019081526020016000206003015411156111b5578086858151811061119857611198611a6b565b6020908102919091010152836111ad81611aaa565b9450506111e2565b826111bf81611b16565b935050808684815181106111d5576111d5611a6b565b6020026020010181815250505b50806111ed81611aaa565b915050611122565b5092959294509192505050565b6000806000806000807f00000000000000000000000000000000000000000000000000000000000000006001600160a01b03166399fbab88886040518263ffffffff1660e01b815260040161125991815260200190565b61018060405180830381865afa158015611277573d6000803e3d6000fd5b505050506040513d601f19601f8201168201806040525081019061129b9190611b79565b50505050975097509750509650965050507f00000000000000000000000000000000000000000000000000000000000000006001600160a01b0316856001600160a01b031614801561131e57507f00000000000000000000000000000000000000000000000000000000000000006001600160a01b0316846001600160a01b0316145b61135a5760405162461bcd60e51b815260206004820152600d60248201526c3638103830b4b91032b93937b960991b6044820152606401610517565b600283900b620d89e7191480156113825750611379620d89e719611c5a565b60020b8260020b145b6113c15760405162461bcd60e51b815260206004820152601060248201526f3a34b1b5903930b733b29032b93937b960811b6044820152606401610517565b60405163020604bf60e21b81526004810188905230906001600160a01b037f0000000000000000000000000000000000000000000000000000000000000000169063081812fc90602401602060405180830381865afa158015611428573d6000803e3d6000fd5b505050506040513d601f19601f8201168201806040525081019061144c9190611c7c565b6001600160a01b0316146114905760405162461bcd60e51b815260206004820152600b60248201526a6e6f7420617070726f766560a81b6044820152606401610517565b604051632142170760e11b8152336004820152306024820152604481018890527f00000000000000000000000000000000000000000000000000000000000000006001600160a01b0316906342842e0e90606401600060405180830381600087803b1580156114fe57600080fd5b505af1158015611512573d6000803e3d6000fd5b50506001600160801b0390921698975050505050505050565b604080516001600160a01b0385811660248301528481166044830152606480830185905283518084039091018152608490920183526020820180516001600160e01b03166323b872dd60e01b179052915160009283929088169161158f9190611c99565b6000604051808303816000865af19150503d80600081146115cc576040519150601f19603f3d011682016040523d82523d6000602084013e6115d1565b606091505b50915091508180156115fb5750805115806115fb5750808060200190518101906115fb9190611cc8565b61163d5760405162461bcd60e51b81526020600482015260136024820152721d1c985b9cd9995c919c9bdb4819985a5b1959606a1b6044820152606401610517565b505050505050565b604080516001600160a01b038481166024830152604480830185905283518084039091018152606490920183526020820180516001600160e01b031663a9059cbb60e01b17905291516000928392908716916116a19190611c99565b6000604051808303816000865af19150503d80600081146116de576040519150601f19603f3d011682016040523d82523d6000602084013e6116e3565b606091505b509150915081801561170d57508051158061170d57508080602001905181019061170d9190611cc8565b61174b5760405162461bcd60e51b815260206004820152600f60248201526e1514905394d1915497d19052531151608a1b6044820152606401610517565b5050505050565b60006020828403121561176457600080fd5b5035919050565b6000806040838503121561177e57600080fd5b82359150602083013560ff8116811461179657600080fd5b809150509250929050565b6001600160a01b03811681146117b657600080fd5b50565b600080604083850312156117cc57600080fd5b82356117d7816117a1565b946020939093013593505050565b634e487b7160e01b600052604160045260246000fd5b600082601f83011261180c57600080fd5b8135602067ffffffffffffffff80831115611829576118296117e5565b8260051b604051601f19603f8301168101818110848211171561184e5761184e6117e5565b60405293845285810183019383810192508785111561186c57600080fd5b83870191505b8482101561188b57813583529183019190830190611872565b979650505050505050565b600080604083850312156118a957600080fd5b823567ffffffffffffffff808211156118c157600080fd5b6118cd868387016117fb565b935060208501359150808211156118e357600080fd5b506118f0858286016117fb565b9150509250929050565b60006020828403121561190c57600080fd5b813561109d816117a1565b60006020828403121561192957600080fd5b813567ffffffffffffffff81111561194057600080fd5b61194c848285016117fb565b949350505050565b6000806040838503121561196757600080fd5b82359150602083013567ffffffffffffffff81111561198557600080fd5b6118f0858286016117fb565b600080604083850312156119a457600080fd5b50508035926020909101359150565b604080825283519082018190526000906020906060840190828701845b828110156119ec578151845292840192908401906001016119d0565b50505092019290925292915050565b634e487b7160e01b600052601160045260246000fd5b600082611a2e57634e487b7160e01b600052601260045260246000fd5b500490565b80820180821115611a4657611a466119fb565b92915050565b600060ff821660ff8103611a6257611a626119fb565b60010192915050565b634e487b7160e01b600052603260045260246000fd5b81810381811115611a4657611a466119fb565b634e487b7160e01b600052603160045260246000fd5b600060018201611abc57611abc6119fb565b5060010190565b6020808252600990820152683337b93134b23232b760b91b604082015260600190565b8082028115828204841417611a4657611a466119fb565b60ff8281168282160390811115611a4657611a466119fb565b600081611b2557611b256119fb565b506000190190565b8051611b38816117a1565b919050565b805162ffffff81168114611b3857600080fd5b8051600281900b8114611b3857600080fd5b80516001600160801b0381168114611b3857600080fd5b6000806000806000806000806000806000806101808d8f031215611b9c57600080fd5b8c516bffffffffffffffffffffffff81168114611bb857600080fd5b9b50611bc660208e01611b2d565b9a50611bd460408e01611b2d565b9950611be260608e01611b2d565b9850611bf060808e01611b3d565b9750611bfe60a08e01611b50565b9650611c0c60c08e01611b50565b9550611c1a60e08e01611b62565b94506101008d015193506101208d01519250611c396101408e01611b62565b9150611c486101608e01611b62565b90509295989b509295989b509295989b565b60008160020b627fffff198103611c7357611c736119fb565b60000392915050565b600060208284031215611c8e57600080fd5b815161109d816117a1565b6000825160005b81811015611cba5760208186018101518583015201611ca0565b506000920191825250919050565b600060208284031215611cda57600080fd5b8151801515811461109d57600080fdfea26469706673582212205a401bda1e5cfed08f4cf332bd546900fe40d9be6e0c2df54c4ec9dda92957b864736f6c63430008110033",
  "linkReferences": {},
  "deployedLinkReferences": {}
}