{
  "_format": "hh-sol-artifact-1",
  "contractName": "StakeNFT721",
  "sourceName": "contracts/stakeNFT721.sol",
  "abi": [
    {
      "inputs": [
        {
          "internalType": "uint8",
          "name": "maxWeeks",
          "type": "uint8"
        },
        {
          "internalType": "uint256",
          "name": "maxScale",
          "type": "uint256"
        },
        {
          "internalType": "uint8",
          "name": "lockWeeks",
          "type": "uint8"
        },
        {
          "internalType": "address",
          "name": "_rewardToken",
          "type": "address"
        },
        {
          "internalType": "address",
          "name": "tokenA",
          "type": "address"
        },
        {
          "internalType": "address",
          "name": "tokenB",
          "type": "address"
        },
        {
          "internalType": "address",
          "name": "nft",
          "type": "address"
        }
      ],
      "stateMutability": "nonpayable",
      "type": "constructor"
    },
    {
      "anonymous": false,
      "inputs": [
        {
          "indexed": true,
          "internalType": "address",
          "name": "user",
          "type": "address"
        },
        {
          "indexed": false,
          "internalType": "uint256",
          "name": "tokenId",
          "type": "uint256"
        },
        {
          "indexed": false,
          "internalType": "uint256",
          "name": "amount",
          "type": "uint256"
        }
      ],
      "name": "ClaimReward",
      "type": "event"
    },
    {
      "anonymous": false,
      "inputs": [
        {
          "indexed": true,
          "internalType": "address",
          "name": "user",
          "type": "address"
        },
        {
          "indexed": false,
          "internalType": "uint256",
          "name": "no",
          "type": "uint256"
        },
        {
          "indexed": false,
          "internalType": "uint256",
          "name": "amount",
          "type": "uint256"
        }
      ],
      "name": "SetReward",
      "type": "event"
    },
    {
      "anonymous": false,
      "inputs": [
        {
          "indexed": true,
          "internalType": "address",
          "name": "user",
          "type": "address"
        },
        {
          "indexed": false,
          "internalType": "uint256",
          "name": "tokenId",
          "type": "uint256"
        },
        {
          "indexed": false,
          "internalType": "uint256",
          "name": "amount",
          "type": "uint256"
        },
        {
          "indexed": false,
          "internalType": "uint8",
          "name": "k",
          "type": "uint8"
        }
      ],
      "name": "Stake",
      "type": "event"
    },
    {
      "anonymous": false,
      "inputs": [
        {
          "indexed": true,
          "internalType": "address",
          "name": "user",
          "type": "address"
        },
        {
          "indexed": false,
          "internalType": "uint256",
          "name": "tokenId",
          "type": "uint256"
        }
      ],
      "name": "Withdraw",
      "type": "event"
    },
    {
      "inputs": [],
      "name": "LOCK_WEEKNUM",
      "outputs": [
        {
          "internalType": "uint8",
          "name": "",
          "type": "uint8"
        }
      ],
      "stateMutability": "view",
      "type": "function"
    },
    {
      "inputs": [],
      "name": "MAX_SCALE",
      "outputs": [
        {
          "internalType": "uint256",
          "name": "",
          "type": "uint256"
        }
      ],
      "stateMutability": "view",
      "type": "function"
    },
    {
      "inputs": [],
      "name": "MAX_WEEKS",
      "outputs": [
        {
          "internalType": "uint8",
          "name": "",
          "type": "uint8"
        }
      ],
      "stateMutability": "view",
      "type": "function"
    },
    {
      "inputs": [],
      "name": "WEEK_SECONDS",
      "outputs": [
        {
          "internalType": "uint24",
          "name": "",
          "type": "uint24"
        }
      ],
      "stateMutability": "view",
      "type": "function"
    },
    {
      "inputs": [],
      "name": "acceptSetter",
      "outputs": [],
      "stateMutability": "nonpayable",
      "type": "function"
    },
    {
      "inputs": [
        {
          "internalType": "uint256",
          "name": "",
          "type": "uint256"
        },
        {
          "internalType": "uint256",
          "name": "",
          "type": "uint256"
        }
      ],
      "name": "bClaimReward",
      "outputs": [
        {
          "internalType": "bool",
          "name": "",
          "type": "bool"
        }
      ],
      "stateMutability": "view",
      "type": "function"
    },
    {
      "inputs": [],
      "name": "canClaimAmount",
      "outputs": [
        {
          "internalType": "uint256",
          "name": "",
          "type": "uint256"
        }
      ],
      "stateMutability": "view",
      "type": "function"
    },
    {
      "inputs": [
        {
          "internalType": "uint256",
          "name": "tokenId",
          "type": "uint256"
        },
        {
          "internalType": "uint256[]",
          "name": "nos",
          "type": "uint256[]"
        }
      ],
      "name": "claimReward",
      "outputs": [],
      "stateMutability": "nonpayable",
      "type": "function"
    },
    {
      "inputs": [],
      "name": "claimReward",
      "outputs": [],
      "stateMutability": "nonpayable",
      "type": "function"
    },
    {
      "inputs": [
        {
          "internalType": "uint256",
          "name": "amount",
          "type": "uint256"
        },
        {
          "internalType": "uint8",
          "name": "k",
          "type": "uint8"
        }
      ],
      "name": "getScore",
      "outputs": [
        {
          "internalType": "uint256",
          "name": "score",
          "type": "uint256"
        }
      ],
      "stateMutability": "view",
      "type": "function"
    },
    {
      "inputs": [],
      "name": "getUserNFTs",
      "outputs": [
        {
          "internalType": "uint256[]",
          "name": "",
          "type": "uint256[]"
        },
        {
          "internalType": "uint256",
          "name": "",
          "type": "uint256"
        }
      ],
      "stateMutability": "view",
      "type": "function"
    },
    {
      "inputs": [],
      "name": "latestNo",
      "outputs": [
        {
          "internalType": "uint256",
          "name": "",
          "type": "uint256"
        }
      ],
      "stateMutability": "view",
      "type": "function"
    },
    {
      "inputs": [],
      "name": "nftToken",
      "outputs": [
        {
          "internalType": "contract IIotabeeSwapNFT",
          "name": "",
          "type": "address"
        }
      ],
      "stateMutability": "view",
      "type": "function"
    },
    {
      "inputs": [],
      "name": "owner",
      "outputs": [
        {
          "internalType": "address",
          "name": "",
          "type": "address"
        }
      ],
      "stateMutability": "view",
      "type": "function"
    },
    {
      "inputs": [],
      "name": "rewardToken",
      "outputs": [
        {
          "internalType": "address",
          "name": "",
          "type": "address"
        }
      ],
      "stateMutability": "view",
      "type": "function"
    },
    {
      "inputs": [
        {
          "internalType": "uint256",
          "name": "",
          "type": "uint256"
        }
      ],
      "name": "rewardsOf",
      "outputs": [
        {
          "internalType": "uint256",
          "name": "",
          "type": "uint256"
        }
      ],
      "stateMutability": "view",
      "type": "function"
    },
    {
      "inputs": [
        {
          "internalType": "uint256",
          "name": "no",
          "type": "uint256"
        },
        {
          "internalType": "uint256",
          "name": "amount",
          "type": "uint256"
        }
      ],
      "name": "setReward",
      "outputs": [],
      "stateMutability": "nonpayable",
      "type": "function"
    },
    {
      "inputs": [
        {
          "internalType": "uint256[]",
          "name": "nos",
          "type": "uint256[]"
        },
        {
          "internalType": "uint256[]",
          "name": "amounts",
          "type": "uint256[]"
        }
      ],
      "name": "setRewards",
      "outputs": [
        {
          "internalType": "uint256",
          "name": "total",
          "type": "uint256"
        }
      ],
      "stateMutability": "nonpayable",
      "type": "function"
    },
    {
      "inputs": [
        {
          "internalType": "uint256",
          "name": "tokenId",
          "type": "uint256"
        },
        {
          "internalType": "uint8",
          "name": "k",
          "type": "uint8"
        }
      ],
      "name": "stake",
      "outputs": [],
      "stateMutability": "nonpayable",
      "type": "function"
    },
    {
      "inputs": [
        {
          "internalType": "uint256",
          "name": "",
          "type": "uint256"
        }
      ],
      "name": "stakingNFTs",
      "outputs": [
        {
          "internalType": "address",
          "name": "owner",
          "type": "address"
        },
        {
          "internalType": "uint256",
          "name": "score",
          "type": "uint256"
        },
        {
          "internalType": "uint256",
          "name": "beginNo",
          "type": "uint256"
        },
        {
          "internalType": "uint256",
          "name": "endNo",
          "type": "uint256"
        },
        {
          "internalType": "uint256",
          "name": "toClaimNo",
          "type": "uint256"
        }
      ],
      "stateMutability": "view",
      "type": "function"
    },
    {
      "inputs": [],
      "name": "token0",
      "outputs": [
        {
          "internalType": "address",
          "name": "",
          "type": "address"
        }
      ],
      "stateMutability": "view",
      "type": "function"
    },
    {
      "inputs": [],
      "name": "token1",
      "outputs": [
        {
          "internalType": "address",
          "name": "",
          "type": "address"
        }
      ],
      "stateMutability": "view",
      "type": "function"
    },
    {
      "inputs": [
        {
          "internalType": "uint256",
          "name": "",
          "type": "uint256"
        }
      ],
      "name": "totalScores",
      "outputs": [
        {
          "internalType": "uint256",
          "name": "",
          "type": "uint256"
        }
      ],
      "stateMutability": "view",
      "type": "function"
    },
    {
      "inputs": [
        {
          "internalType": "address",
          "name": "_owner",
          "type": "address"
        }
      ],
      "name": "transferOwner",
      "outputs": [],
      "stateMutability": "nonpayable",
      "type": "function"
    },
    {
      "inputs": [
        {
          "internalType": "address",
          "name": "",
          "type": "address"
        },
        {
          "internalType": "uint256",
          "name": "",
          "type": "uint256"
        }
      ],
      "name": "userNFTs",
      "outputs": [
        {
          "internalType": "uint256",
          "name": "",
          "type": "uint256"
        }
      ],
      "stateMutability": "view",
      "type": "function"
    },
    {
      "inputs": [
        {
          "internalType": "uint256",
          "name": "tokenId",
          "type": "uint256"
        }
      ],
      "name": "withdraw",
      "outputs": [],
      "stateMutability": "nonpayable",
      "type": "function"
    },
    {
      "inputs": [
        {
          "internalType": "uint256[]",
          "name": "tokenIds",
          "type": "uint256[]"
        }
      ],
      "name": "withdraw",
      "outputs": [],
      "stateMutability": "nonpayable",
      "type": "function"
    }
  ],
  "bytecode": "0x6101606040523480156200001257600080fd5b50604051620021cd380380620021cd8339810160408190526200003591620000d5565b6001600160a01b0380851660805260ff80891660a05260c0889052861660e052600080546001600160a01b03191633179055828116908416106200007b5781836200007e565b82825b6001600160a01b03908116610140529081166101205216610100525062000161945050505050565b805160ff81168114620000b857600080fd5b919050565b80516001600160a01b0381168114620000b857600080fd5b600080600080600080600060e0888a031215620000f157600080fd5b620000fc88620000a6565b9650602088015195506200011360408901620000a6565b94506200012360608901620000bd565b93506200013360808901620000bd565b92506200014360a08901620000bd565b91506200015360c08901620000bd565b905092959891949750929550565b60805160a05160c05160e051610100516101205161014051611fa16200022c60003960008181610447015261156b01526000818161021f015261152f015260008181610420015281816108c80152818161148e0152818161166201526117330152600081816101e601528181610a1a01526110560152600081816104a801526112c801526000818161046e0152818161051701528181611264015261128f0152600081816104cf01528181610cb201528181610f2001528181610fb601526111fc0152611fa16000f3fe608060405234801561001057600080fd5b50600436106101a95760003560e01c8063979db1c4116100f9578063d06fcba811610097578063ee3453ed11610071578063ee3453ed14610490578063f6def7cf146104a3578063f7c618c1146104ca578063fdc5ab8e146104f157600080fd5b8063d06fcba81461041b578063d21220a714610442578063e11400bb1461046957600080fd5b8063a47bd496116100d3578063a47bd496146103a5578063b88a802f146103b8578063cd671a58146103c0578063ce6d3e3e146103dd57600080fd5b8063979db1c41461036c578063983d95ce1461037f5780639b6e0d741461039257600080fd5b8063291c73c3116101665780634fb2e45d116101405780634fb2e45d146103365780635f8e422f146103495780638431165e146103515780638da5cb5b1461035957600080fd5b8063291c73c31461030757806329ed1cfd1461031a5780632e1a7d4d1461032357600080fd5b80630bce1284146101ae5780630d437d40146101e15780630dfe16811461021a57806310087fb11461025957806310c6c1c21461026e578063157775df146102e7575b600080fd5b6101ce6101bc3660046119d3565b60046020526000908152604090205481565b6040519081526020015b60405180910390f35b6102087f000000000000000000000000000000000000000000000000000000000000000081565b60405160ff90911681526020016101d8565b6102417f000000000000000000000000000000000000000000000000000000000000000081565b6040516001600160a01b0390911681526020016101d8565b61026c6102673660046119ec565b610507565b005b6102b561027c3660046119d3565b600660205260009081526040902080546001820154600283015460038401546004909401546001600160a01b0390931693919290919085565b604080516001600160a01b0390961686526020860194909452928401919091526060830152608082015260a0016101d8565b6101ce6102f53660046119d3565b60036020526000908152604090205481565b6101ce610315366004611a3a565b610705565b6101ce60055481565b61026c6103313660046119d3565b610736565b61026c610344366004611a66565b610976565b61026c6109c2565b6101ce610a13565b600054610241906001600160a01b031681565b6101ce61037a366004611b34565b610b86565b61026c61038d366004611b98565b610d1b565b61026c6103a0366004611bd5565b610d5f565b61026c6103b3366004611c12565b610f87565b61026c611050565b6103c961025881565b60405162ffffff90911681526020016101d8565b61040b6103eb366004611c12565b600260209081526000928352604080842090915290825290205460ff1681565b60405190151581526020016101d8565b6102417f000000000000000000000000000000000000000000000000000000000000000081565b6102417f000000000000000000000000000000000000000000000000000000000000000081565b6102087f000000000000000000000000000000000000000000000000000000000000000081565b6101ce61049e3660046119ec565b61125b565b6101ce7f000000000000000000000000000000000000000000000000000000000000000081565b6102417f000000000000000000000000000000000000000000000000000000000000000081565b6104f9611325565b6040516101d8929190611c34565b60008160ff1611801561054057507f000000000000000000000000000000000000000000000000000000000000000060ff168160ff1611155b6105855760405162461bcd60e51b815260206004820152601160248201527039ba30b5b2903bb2b2b5b99032b93937b960791b60448201526064015b60405180910390fd5b600061059083611483565b905060006105a061025842611c92565b6105ab906001611cb4565b905060006105b9838561125b565b905060005b8460ff168160ff1610156106135781600360006105de60ff851687611cb4565b815260200190815260200160002060008282546105fb9190611cb4565b9091555081905061060b81611ccd565b9150506105be565b506040805160a081018252338152602081018390529081018390526060810161063f60ff871685611cb4565b815260209081018490526000878152600682526040808220845181546001600160a01b0319166001600160a01b0390911617815584840151600180830191909155858301516002830155606080870151600384015560809096015160049092019190915533808452600785528284208054928301815584529284902001899055805189815292830187905260ff881690830152917f6fa2f6021ee337436cdf2b2570285886da18bc06402ce284d296504a0fe8f875910160405180910390a25050505050565b6007602052816000526040600020818154811061072157600080fd5b90600052602060002001600091509150505481565b6000818152600660205260409020546001600160a01b0316331461078e5760405162461bcd60e51b815260206004820152600f60248201526e37bbb732b9103337b93134b23232b760891b604482015260640161057c565b600061079c61025842611c92565b6000838152600660205260409020600301549091508110156107ee5760405162461bcd60e51b815260206004820152600b60248201526a6c6f636b65642074696d6560a81b604482015260640161057c565b336000908152600760205260408120905b815481101561093b5781818154811061081a5761081a611cec565b90600052602060002001548403610929578154829061083b90600190611d02565b8154811061084b5761084b611cec565b906000526020600020015482828154811061086857610868611cec565b90600052602060002001819055508180548061088657610886611d15565b600082815260208120820160001990810191909155019055604051632142170760e11b8152306004820152336024820152604481018590526001600160a01b037f000000000000000000000000000000000000000000000000000000000000000016906342842e0e90606401600060405180830381600087803b15801561090c57600080fd5b505af1158015610920573d6000803e3d6000fd5b5050505061093b565b8061093381611d2b565b9150506107ff565b5060405183815233907f884edad9ce6fa2440d8a54cc123490eb96d2768479d49ff9c7366125a94243649060200160405180910390a2505050565b6000546001600160a01b031633146109a05760405162461bcd60e51b815260040161057c90611d44565b600180546001600160a01b0319166001600160a01b0392909216919091179055565b6001546001600160a01b031633146109ec5760405162461bcd60e51b815260040161057c90611d44565b60018054600080546001600160a01b03199081166001600160a01b03841617909155169055565b60008060ff7f000000000000000000000000000000000000000000000000000000000000000016610a4661025842611c92565b610a509190611d02565b90506000805b33600090815260076020526040902054811015610b7f57336000908152600760205260408120805483908110610a8e57610a8e611cec565b600091825260208083209091015480835260069091526040909120600401549091505b600082815260066020526040902060030154811015610b6a57600082815260026020908152604080832084845290915290205460ff1680610af157508481115b80610b085750600081815260046020526040902054155b610b585760008181526003602090815260408083205485845260068352818420600101548585526004909352922054610b419190611d67565b610b4b9190611c92565b610b559085611cb4565b93505b80610b6281611d2b565b915050610ab1565b50508080610b7790611d2b565b915050610a56565b5092915050565b600080546001600160a01b03163314610bb15760405162461bcd60e51b815260040161057c90611d44565b60005b8351811015610c4157828181518110610bcf57610bcf611cec565b602002602001015182610be29190611cb4565b9150828181518110610bf657610bf6611cec565b602002602001015160046000868481518110610c1457610c14611cec565b60200260200101518152602001908152602001600020819055508080610c3990611d2b565b915050610bb4565b5060008351118015610c7a57506005548360018551610c609190611d02565b81518110610c7057610c70611cec565b6020026020010151115b15610cad578260018451610c8e9190611d02565b81518110610c9e57610c9e611cec565b60200260200101516005819055505b610cd97f00000000000000000000000000000000000000000000000000000000000000003330846117ac565b60408051600081526020810183905233917fc3991418cacd70a010fce559a44fcbb47534ca43bf7543964bdca2639f6e6e5a910160405180910390a292915050565b60005b8151811015610d5b57610d49828281518110610d3c57610d3c611cec565b6020026020010151610736565b80610d5381611d2b565b915050610d1e565b5050565b6000828152600660205260409020546001600160a01b03163314610db75760405162461bcd60e51b815260206004820152600f60248201526e37bbb732b9103337b93134b23232b760891b604482015260640161057c565b6000610dc561025842611c92565b90506000805b8351811015610f1a576000848281518110610de857610de8611cec565b6020908102919091018101516000888152600283526040808220838352909352919091205490915060ff1615610e1e5750610f08565b600086815260026020908152604080832084845290915290205460ff1680610e5757506000868152600660205260409020600301548110155b80610e72575060008681526006602052604090206002015481105b80610e7c57508381115b80610e935750600081815260046020526040902054155b15610e9e5750610f08565b60008681526002602090815260408083208484528252808320805460ff1916600190811790915560038352818420548a855260068452828520909101548585526004909352922054610ef09190611d67565b610efa9190611c92565b610f049084611cb4565b9250505b80610f1281611d2b565b915050610dcb565b50610f467f000000000000000000000000000000000000000000000000000000000000000033836118c6565b604080518581526020810183905233917fe74e5c9d4ac1fc33412485f18c159a0a391efe287ab3fd271123f30e6bacf4e3910160405180910390a250505050565b6000546001600160a01b03163314610fb15760405162461bcd60e51b815260040161057c90611d44565b610fdd7f00000000000000000000000000000000000000000000000000000000000000003330846117ac565b60008281526004602052604081208054839290610ffb908490611cb4565b90915550506005548211156110105760058290555b604080518381526020810183905233917fc3991418cacd70a010fce559a44fcbb47534ca43bf7543964bdca2639f6e6e5a91015b60405180910390a25050565b600060ff7f00000000000000000000000000000000000000000000000000000000000000001661108261025842611c92565b61108c9190611d02565b90506000805b336000908152600760205260409020548110156111f6573360009081526007602052604081208054839081106110ca576110ca611cec565b600091825260208083209091015480835260069091526040909120600401549091505b6000828152600660205260409020600301548110156111e157600082815260026020908152604080832084845290915290205460ff168061112d57508481115b806111445750600081815260046020526040902054155b6111cf5760008281526002602090815260408083208484529091529020805460ff1916600190811790915561117a908290611cb4565b60008381526006602090815260408083206004808201959095558584526003835281842054600190910154949092529091205490916111b891611d67565b6111c29190611c92565b6111cc9085611cb4565b93505b806111d981611d2b565b9150506110ed565b505080806111ee90611d2b565b915050611092565b506112227f000000000000000000000000000000000000000000000000000000000000000033836118c6565b60408051600081526020810183905233917fe74e5c9d4ac1fc33412485f18c159a0a391efe287ab3fd271123f30e6bacf4e39101611044565b600061128860017f0000000000000000000000000000000000000000000000000000000000000000611d7e565b60ff1660017f000000000000000000000000000000000000000000000000000000000000000060ff166001856112be9190611d7e565b60ff166112ec60017f0000000000000000000000000000000000000000000000000000000000000000611d02565b6112f69190611d67565b6113009190611cb4565b61130a9190611d02565b6113149085611d67565b61131e9190611c92565b9392505050565b3360009081526007602052604081205460609190819067ffffffffffffffff81111561135357611353611a83565b60405190808252806020026020018201604052801561137c578160200160208202803683370190505b509050600061138d61025842611c92565b3360009081526007602052604081205491925090815b33600090815260076020526040902054811015611476573360009081526007602052604081208054839081106113db576113db611cec565b906000526020600020015490508460066000838152602001908152602001600020600301541115611436578086858151811061141957611419611cec565b60209081029190910101528361142e81611d2b565b945050611463565b8261144081611d97565b9350508086848151811061145657611456611cec565b6020026020010181815250505b508061146e81611d2b565b9150506113a3565b5092959294509192505050565b6000806000806000807f00000000000000000000000000000000000000000000000000000000000000006001600160a01b03166399fbab88886040518263ffffffff1660e01b81526004016114da91815260200190565b61018060405180830381865afa1580156114f8573d6000803e3d6000fd5b505050506040513d601f19601f8201168201806040525081019061151c9190611dfa565b50505050975097509750509650965050507f00000000000000000000000000000000000000000000000000000000000000006001600160a01b0316856001600160a01b031614801561159f57507f00000000000000000000000000000000000000000000000000000000000000006001600160a01b0316846001600160a01b0316145b6115db5760405162461bcd60e51b815260206004820152600d60248201526c3638103830b4b91032b93937b960991b604482015260640161057c565b600283900b620d89e71914801561160357506115fa620d89e719611edb565b60020b8260020b145b6116425760405162461bcd60e51b815260206004820152601060248201526f3a34b1b5903930b733b29032b93937b960811b604482015260640161057c565b60405163020604bf60e21b81526004810188905230906001600160a01b037f0000000000000000000000000000000000000000000000000000000000000000169063081812fc90602401602060405180830381865afa1580156116a9573d6000803e3d6000fd5b505050506040513d601f19601f820116820180604052508101906116cd9190611efd565b6001600160a01b0316146117115760405162461bcd60e51b815260206004820152600b60248201526a6e6f7420617070726f766560a81b604482015260640161057c565b604051632142170760e11b8152336004820152306024820152604481018890527f00000000000000000000000000000000000000000000000000000000000000006001600160a01b0316906342842e0e90606401600060405180830381600087803b15801561177f57600080fd5b505af1158015611793573d6000803e3d6000fd5b50506001600160801b0390921698975050505050505050565b604080516001600160a01b0385811660248301528481166044830152606480830185905283518084039091018152608490920183526020820180516001600160e01b03166323b872dd60e01b17905291516000928392908816916118109190611f1a565b6000604051808303816000865af19150503d806000811461184d576040519150601f19603f3d011682016040523d82523d6000602084013e611852565b606091505b509150915081801561187c57508051158061187c57508080602001905181019061187c9190611f49565b6118be5760405162461bcd60e51b81526020600482015260136024820152721d1c985b9cd9995c919c9bdb4819985a5b1959606a1b604482015260640161057c565b505050505050565b604080516001600160a01b038481166024830152604480830185905283518084039091018152606490920183526020820180516001600160e01b031663a9059cbb60e01b17905291516000928392908716916119229190611f1a565b6000604051808303816000865af19150503d806000811461195f576040519150601f19603f3d011682016040523d82523d6000602084013e611964565b606091505b509150915081801561198e57508051158061198e57508080602001905181019061198e9190611f49565b6119cc5760405162461bcd60e51b815260206004820152600f60248201526e1514905394d1915497d19052531151608a1b604482015260640161057c565b5050505050565b6000602082840312156119e557600080fd5b5035919050565b600080604083850312156119ff57600080fd5b82359150602083013560ff81168114611a1757600080fd5b809150509250929050565b6001600160a01b0381168114611a3757600080fd5b50565b60008060408385031215611a4d57600080fd5b8235611a5881611a22565b946020939093013593505050565b600060208284031215611a7857600080fd5b813561131e81611a22565b634e487b7160e01b600052604160045260246000fd5b600082601f830112611aaa57600080fd5b8135602067ffffffffffffffff80831115611ac757611ac7611a83565b8260051b604051601f19603f83011681018181108482111715611aec57611aec611a83565b604052938452858101830193838101925087851115611b0a57600080fd5b83870191505b84821015611b2957813583529183019190830190611b10565b979650505050505050565b60008060408385031215611b4757600080fd5b823567ffffffffffffffff80821115611b5f57600080fd5b611b6b86838701611a99565b93506020850135915080821115611b8157600080fd5b50611b8e85828601611a99565b9150509250929050565b600060208284031215611baa57600080fd5b813567ffffffffffffffff811115611bc157600080fd5b611bcd84828501611a99565b949350505050565b60008060408385031215611be857600080fd5b82359150602083013567ffffffffffffffff811115611c0657600080fd5b611b8e85828601611a99565b60008060408385031215611c2557600080fd5b50508035926020909101359150565b604080825283519082018190526000906020906060840190828701845b82811015611c6d57815184529284019290840190600101611c51565b50505092019290925292915050565b634e487b7160e01b600052601160045260246000fd5b600082611caf57634e487b7160e01b600052601260045260246000fd5b500490565b80820180821115611cc757611cc7611c7c565b92915050565b600060ff821660ff8103611ce357611ce3611c7c565b60010192915050565b634e487b7160e01b600052603260045260246000fd5b81810381811115611cc757611cc7611c7c565b634e487b7160e01b600052603160045260246000fd5b600060018201611d3d57611d3d611c7c565b5060010190565b6020808252600990820152683337b93134b23232b760b91b604082015260600190565b8082028115828204841417611cc757611cc7611c7c565b60ff8281168282160390811115611cc757611cc7611c7c565b600081611da657611da6611c7c565b506000190190565b8051611db981611a22565b919050565b805162ffffff81168114611db957600080fd5b8051600281900b8114611db957600080fd5b80516001600160801b0381168114611db957600080fd5b6000806000806000806000806000806000806101808d8f031215611e1d57600080fd5b8c516bffffffffffffffffffffffff81168114611e3957600080fd5b9b50611e4760208e01611dae565b9a50611e5560408e01611dae565b9950611e6360608e01611dae565b9850611e7160808e01611dbe565b9750611e7f60a08e01611dd1565b9650611e8d60c08e01611dd1565b9550611e9b60e08e01611de3565b94506101008d015193506101208d01519250611eba6101408e01611de3565b9150611ec96101608e01611de3565b90509295989b509295989b509295989b565b60008160020b627fffff198103611ef457611ef4611c7c565b60000392915050565b600060208284031215611f0f57600080fd5b815161131e81611a22565b6000825160005b81811015611f3b5760208186018101518583015201611f21565b506000920191825250919050565b600060208284031215611f5b57600080fd5b8151801515811461131e57600080fdfea2646970667358221220e7e6d0e3faf4e3940b1a2fc67845727207d17cb5369f9361998d428a12595a3c64736f6c63430008110033",
  "linkReferences": {},
  "deployedLinkReferences": {}
}