{
  "_format": "hh-sol-artifact-1",
  "contractName": "StakeNftLiquidity",
  "sourceName": "contracts/stakeNFT721.sol",
  "abi": [
    {
      "inputs": [
        {
          "internalType": "address",
          "name": "tokenA",
          "type": "address"
        },
        {
          "internalType": "address",
          "name": "tokenB",
          "type": "address"
        },
        {
          "internalType": "address",
          "name": "nft",
          "type": "address"
        },
        {
          "internalType": "address",
          "name": "_rewardToken",
          "type": "address"
        }
      ],
      "stateMutability": "nonpayable",
      "type": "constructor"
    },
    {
      "anonymous": false,
      "inputs": [
        {
          "indexed": true,
          "internalType": "address",
          "name": "user",
          "type": "address"
        },
        {
          "indexed": false,
          "internalType": "uint256",
          "name": "tokenId",
          "type": "uint256"
        },
        {
          "indexed": false,
          "internalType": "uint256",
          "name": "amount",
          "type": "uint256"
        }
      ],
      "name": "ClaimReward",
      "type": "event"
    },
    {
      "anonymous": false,
      "inputs": [
        {
          "indexed": true,
          "internalType": "address",
          "name": "user",
          "type": "address"
        },
        {
          "indexed": false,
          "internalType": "uint256",
          "name": "no",
          "type": "uint256"
        },
        {
          "indexed": false,
          "internalType": "uint256",
          "name": "amount",
          "type": "uint256"
        }
      ],
      "name": "SetReward",
      "type": "event"
    },
    {
      "anonymous": false,
      "inputs": [
        {
          "indexed": true,
          "internalType": "address",
          "name": "user",
          "type": "address"
        },
        {
          "indexed": false,
          "internalType": "uint256",
          "name": "tokenId",
          "type": "uint256"
        },
        {
          "indexed": false,
          "internalType": "uint256",
          "name": "amount",
          "type": "uint256"
        },
        {
          "indexed": false,
          "internalType": "uint8",
          "name": "k",
          "type": "uint8"
        }
      ],
      "name": "Stake",
      "type": "event"
    },
    {
      "anonymous": false,
      "inputs": [
        {
          "indexed": true,
          "internalType": "address",
          "name": "user",
          "type": "address"
        },
        {
          "indexed": false,
          "internalType": "uint256",
          "name": "tokenId",
          "type": "uint256"
        }
      ],
      "name": "Withdraw",
      "type": "event"
    },
    {
      "inputs": [],
      "name": "MAX_SCALE",
      "outputs": [
        {
          "internalType": "uint256",
          "name": "",
          "type": "uint256"
        }
      ],
      "stateMutability": "view",
      "type": "function"
    },
    {
      "inputs": [],
      "name": "MAX_WEEKS",
      "outputs": [
        {
          "internalType": "uint8",
          "name": "",
          "type": "uint8"
        }
      ],
      "stateMutability": "view",
      "type": "function"
    },
    {
      "inputs": [],
      "name": "acceptSetter",
      "outputs": [],
      "stateMutability": "nonpayable",
      "type": "function"
    },
    {
      "inputs": [
        {
          "internalType": "uint256",
          "name": "",
          "type": "uint256"
        },
        {
          "internalType": "uint256",
          "name": "",
          "type": "uint256"
        }
      ],
      "name": "bClaimReward",
      "outputs": [
        {
          "internalType": "bool",
          "name": "",
          "type": "bool"
        }
      ],
      "stateMutability": "view",
      "type": "function"
    },
    {
      "inputs": [
        {
          "internalType": "uint256",
          "name": "tokenId",
          "type": "uint256"
        },
        {
          "internalType": "uint256[]",
          "name": "Nos",
          "type": "uint256[]"
        }
      ],
      "name": "claimReward",
      "outputs": [],
      "stateMutability": "nonpayable",
      "type": "function"
    },
    {
      "inputs": [],
      "name": "claimReward",
      "outputs": [],
      "stateMutability": "nonpayable",
      "type": "function"
    },
    {
      "inputs": [],
      "name": "divConst",
      "outputs": [
        {
          "internalType": "uint32",
          "name": "",
          "type": "uint32"
        }
      ],
      "stateMutability": "view",
      "type": "function"
    },
    {
      "inputs": [
        {
          "internalType": "uint256",
          "name": "amount",
          "type": "uint256"
        },
        {
          "internalType": "uint8",
          "name": "k",
          "type": "uint8"
        }
      ],
      "name": "getScore",
      "outputs": [
        {
          "internalType": "uint256",
          "name": "",
          "type": "uint256"
        }
      ],
      "stateMutability": "view",
      "type": "function"
    },
    {
      "inputs": [],
      "name": "getUserNFTs",
      "outputs": [
        {
          "internalType": "uint256[]",
          "name": "",
          "type": "uint256[]"
        },
        {
          "internalType": "uint256",
          "name": "",
          "type": "uint256"
        }
      ],
      "stateMutability": "view",
      "type": "function"
    },
    {
      "inputs": [],
      "name": "latestNo",
      "outputs": [
        {
          "internalType": "uint256",
          "name": "",
          "type": "uint256"
        }
      ],
      "stateMutability": "view",
      "type": "function"
    },
    {
      "inputs": [],
      "name": "nftToken",
      "outputs": [
        {
          "internalType": "contract IIotabeeSwapNFT",
          "name": "",
          "type": "address"
        }
      ],
      "stateMutability": "view",
      "type": "function"
    },
    {
      "inputs": [],
      "name": "owner",
      "outputs": [
        {
          "internalType": "address",
          "name": "",
          "type": "address"
        }
      ],
      "stateMutability": "view",
      "type": "function"
    },
    {
      "inputs": [],
      "name": "rewardToken",
      "outputs": [
        {
          "internalType": "address",
          "name": "",
          "type": "address"
        }
      ],
      "stateMutability": "view",
      "type": "function"
    },
    {
      "inputs": [
        {
          "internalType": "uint256",
          "name": "",
          "type": "uint256"
        }
      ],
      "name": "rewardsOf",
      "outputs": [
        {
          "internalType": "uint256",
          "name": "",
          "type": "uint256"
        }
      ],
      "stateMutability": "view",
      "type": "function"
    },
    {
      "inputs": [
        {
          "internalType": "uint256",
          "name": "no",
          "type": "uint256"
        },
        {
          "internalType": "uint256",
          "name": "amount",
          "type": "uint256"
        }
      ],
      "name": "setReward",
      "outputs": [],
      "stateMutability": "nonpayable",
      "type": "function"
    },
    {
      "inputs": [
        {
          "internalType": "uint8",
          "name": "maxWeeks",
          "type": "uint8"
        },
        {
          "internalType": "uint256",
          "name": "maxScale",
          "type": "uint256"
        }
      ],
      "name": "setScoreFormula",
      "outputs": [],
      "stateMutability": "nonpayable",
      "type": "function"
    },
    {
      "inputs": [
        {
          "internalType": "uint256",
          "name": "tokenId",
          "type": "uint256"
        },
        {
          "internalType": "uint8",
          "name": "k",
          "type": "uint8"
        }
      ],
      "name": "stake",
      "outputs": [],
      "stateMutability": "nonpayable",
      "type": "function"
    },
    {
      "inputs": [
        {
          "internalType": "uint256",
          "name": "",
          "type": "uint256"
        }
      ],
      "name": "stakingNFTs",
      "outputs": [
        {
          "internalType": "address",
          "name": "owner",
          "type": "address"
        },
        {
          "internalType": "uint256",
          "name": "score",
          "type": "uint256"
        },
        {
          "internalType": "uint256",
          "name": "beginNo",
          "type": "uint256"
        },
        {
          "internalType": "uint256",
          "name": "endNo",
          "type": "uint256"
        },
        {
          "internalType": "uint256",
          "name": "toClaimedNo",
          "type": "uint256"
        }
      ],
      "stateMutability": "view",
      "type": "function"
    },
    {
      "inputs": [],
      "name": "token0",
      "outputs": [
        {
          "internalType": "address",
          "name": "",
          "type": "address"
        }
      ],
      "stateMutability": "view",
      "type": "function"
    },
    {
      "inputs": [],
      "name": "token1",
      "outputs": [
        {
          "internalType": "address",
          "name": "",
          "type": "address"
        }
      ],
      "stateMutability": "view",
      "type": "function"
    },
    {
      "inputs": [
        {
          "internalType": "address",
          "name": "_owner",
          "type": "address"
        }
      ],
      "name": "transferOwner",
      "outputs": [],
      "stateMutability": "nonpayable",
      "type": "function"
    },
    {
      "inputs": [
        {
          "internalType": "address",
          "name": "",
          "type": "address"
        },
        {
          "internalType": "uint256",
          "name": "",
          "type": "uint256"
        }
      ],
      "name": "userNFTs",
      "outputs": [
        {
          "internalType": "uint256",
          "name": "",
          "type": "uint256"
        }
      ],
      "stateMutability": "view",
      "type": "function"
    },
    {
      "inputs": [
        {
          "internalType": "uint256",
          "name": "tokenId",
          "type": "uint256"
        }
      ],
      "name": "withdraw",
      "outputs": [],
      "stateMutability": "nonpayable",
      "type": "function"
    }
  ],
  "bytecode": "0x6101006040523480156200001257600080fd5b5060405162001c3538038062001c358339810160408190526200003591620000bb565b600080546001600160a01b031916331790556001600160a01b03838116908516106200006357828462000066565b83835b6001600160a01b0390811660c05290811660a0529182166080521660e05250506008805460ff19166034179055600260095562000118565b80516001600160a01b0381168114620000b657600080fd5b919050565b60008060008060808587031215620000d257600080fd5b620000dd856200009e565b9350620000ed602086016200009e565b9250620000fd604086016200009e565b91506200010d606086016200009e565b905092959194509250565b60805160a05160c05160e051611aa462000191600039600081816103db01528181610b3701528181610bcd0152610e17015260008181610379015261111201526000818161018a01526110d6015260008181610352015281816107c0015281816110350152818161120901526112da0152611aa46000f3fe608060405234801561001057600080fd5b506004361061014d5760003560e01c80638da5cb5b116100c3578063d21220a71161007c578063d21220a714610374578063e11400bb1461039b578063ee3453ed146103ba578063f6def7cf146103cd578063f7c618c1146103d6578063fdc5ab8e146103fd57600080fd5b80638da5cb5b146102ce5780639b6e0d74146102e1578063a47bd496146102f4578063b88a802f14610307578063ce6d3e3e1461030f578063d06fcba81461034d57600080fd5b806329ed1cfd1161011557806329ed1cfd146102655780632e1a7d4d1461026e5780634fb2e45d146102815780635f8e422f14610294578063721348e81461029c5780637e4856c4146102af57600080fd5b80630bce1284146101525780630dfe16811461018557806310087fb1146101c457806310c6c1c2146101d9578063291c73c314610252575b600080fd5b61017261016036600461157a565b60066020526000908152604090205481565b6040519081526020015b60405180910390f35b6101ac7f000000000000000000000000000000000000000000000000000000000000000081565b6040516001600160a01b03909116815260200161017c565b6101d76101d23660046115a9565b610413565b005b6102206101e736600461157a565b6002602081905260009182526040909120805460018201549282015460038301546004909301546001600160a01b039092169392909185565b604080516001600160a01b0390961686526020860194909452928401919091526060830152608082015260a00161017c565b6101726102603660046115ed565b6105fc565b61017260075481565b6101d761027c36600461157a565b61062d565b6101d761028f366004611619565b61086e565b6101d76108ba565b6101d76102aa36600461163d565b61090b565b6102b9620f424081565b60405163ffffffff909116815260200161017c565b6000546101ac906001600160a01b031681565b6101d76102ef36600461166f565b610994565b6101d7610302366004611739565b610b9e565b6101d7610c67565b61033d61031d366004611739565b600460209081526000928352604080842090915290825290205460ff1681565b604051901515815260200161017c565b6101ac7f000000000000000000000000000000000000000000000000000000000000000081565b6101ac7f000000000000000000000000000000000000000000000000000000000000000081565b6008546103a89060ff1681565b60405160ff909116815260200161017c565b6101726103c83660046115a9565b610e76565b61017260095481565b6101ac7f000000000000000000000000000000000000000000000000000000000000000081565b610405610ecb565b60405161017c92919061175b565b60008160ff1611801561042f575060085460ff90811690821611155b6104745760405162461bcd60e51b815260206004820152601160248201527039ba30b5b2903bb2b2b5b99032b93937b960791b60448201526064015b60405180910390fd5b600061047f8361102a565b9050600061049062093a80426117b9565b61049b9060016117db565b905060006104a98385610e76565b905060005b8460ff168160ff1610156105035781600560006104ce60ff8516876117db565b815260200190815260200160002060008282546104eb91906117db565b909155508190506104fb816117ee565b9150506104ae565b506040805160a081018252338152602081018390529081018390526060810161052f60ff8716856117db565b81526020908101849052600087815260028083526040808320855181546001600160a01b0319166001600160a01b039091161781558585015160018083019190915586830151938201939093556060808701516003808401919091556080909701516004909201919091553380855295855281842080549384018155845292849020909101899055805189815292830187905260ff8816908301527f6fa2f6021ee337436cdf2b2570285886da18bc06402ce284d296504a0fe8f875910160405180910390a25050505050565b6003602052816000526040600020818154811061061857600080fd5b90600052602060002001600091509150505481565b6000818152600260205260409020546001600160a01b031633146106855760405162461bcd60e51b815260206004820152600f60248201526e37bbb732b9103337b93134b23232b760891b604482015260640161046b565b600061069462093a80426117b9565b6000838152600260205260409020600301549091508110156106e65760405162461bcd60e51b815260206004820152600b60248201526a6c6f636b65642074696d6560a81b604482015260640161046b565b336000908152600360205260408120905b8154811015610833578181815481106107125761071261180d565b90600052602060002001548403610821578154829061073390600190611823565b815481106107435761074361180d565b90600052602060002001548282815481106107605761076061180d565b90600052602060002001819055508180548061077e5761077e611836565b600082815260208120820160001990810191909155019055604051632142170760e11b8152306004820152336024820152604481018590526001600160a01b037f000000000000000000000000000000000000000000000000000000000000000016906342842e0e90606401600060405180830381600087803b15801561080457600080fd5b505af1158015610818573d6000803e3d6000fd5b50505050610833565b8061082b8161184c565b9150506106f7565b5060405183815233907f884edad9ce6fa2440d8a54cc123490eb96d2768479d49ff9c7366125a94243649060200160405180910390a2505050565b6000546001600160a01b031633146108985760405162461bcd60e51b815260040161046b90611865565b600180546001600160a01b0319166001600160a01b0392909216919091179055565b6001546001600160a01b031633146108e45760405162461bcd60e51b815260040161046b90611865565b60018054600080546001600160a01b03199081166001600160a01b03841617909155169055565b6000546001600160a01b031633146109355760405162461bcd60e51b815260040161046b90611865565b6001811161097a5760405162461bcd60e51b81526020600482015260126024820152711b585e14d8d85b19481d1bdbc81cdb585b1b60721b604482015260640161046b565b6008805460ff191660ff9390931692909217909155600955565b6000828152600260205260409020546001600160a01b031633146109ec5760405162461bcd60e51b815260206004820152600f60248201526e37bbb732b9103337b93134b23232b760891b604482015260640161046b565b60006109fb62093a80426117b9565b90506000805b8351811015610b31576000848281518110610a1e57610a1e61180d565b6020908102919091018101516000888152600483526040808220838352909352919091205490915060ff1615610a545750610b1f565b60008681526002602052604090206003015481101580610a8557506000868152600260208190526040909120015481105b15610a905750610b1f565b83811180610aaa5750600081815260066020526040902054155b15610ab55750610b1f565b60008681526004602090815260408083208484528252808320805460ff1916600190811790915560058352818420548a855260028452828520909101548585526006909352922054610b079190611888565b610b1191906117b9565b610b1b90846117db565b9250505b80610b298161184c565b915050610a01565b50610b5d7f00000000000000000000000000000000000000000000000000000000000000003383611353565b604080518581526020810183905233917fe74e5c9d4ac1fc33412485f18c159a0a391efe287ab3fd271123f30e6bacf4e3910160405180910390a250505050565b6000546001600160a01b03163314610bc85760405162461bcd60e51b815260040161046b90611865565b610bf47f0000000000000000000000000000000000000000000000000000000000000000333084611460565b60008281526006602052604081208054839290610c129084906117db565b9091555050600754821115610c275760078290555b604080518381526020810183905233917fc3991418cacd70a010fce559a44fcbb47534ca43bf7543964bdca2639f6e6e5a91015b60405180910390a25050565b6000610c7662093a80426117b9565b90506000805b33600090815260036020526040902054811015610e1157336000908152600360205260408120805483908110610cb457610cb461180d565b600091825260208083209091015480835260029091526040909120600401549091505b600082815260026020526040902060030154811015610dfc57600082815260046020908152604080832084845290915290205460ff16610dea5760008281526002602052604090206003015481101580610d4257506000828152600260208190526040909120015481105b610dea5784811180610d605750600081815260066020526040902054155b610dea5760008281526004602090815260408083208484529091529020805460ff19166001908117909155610d969082906117db565b600083815260026020908152604080832060048101949094558483526005825280832054600190940154600690925290912054610dd39190611888565b610ddd91906117b9565b610de790856117db565b93505b80610df48161184c565b915050610cd7565b50508080610e099061184c565b915050610c7c565b50610e3d7f00000000000000000000000000000000000000000000000000000000000000003383611353565b60408051600081526020810183905233917fe74e5c9d4ac1fc33412485f18c159a0a391efe287ab3fd271123f30e6bacf4e39101610c5b565b600854600954600091829160ff91821691829190861690610e9990600190611823565b610ea39190611888565b610ead91906117db565b610eb79086611888565b610ec191906117b9565b9150505b92915050565b3360009081526003602052604081205460609190819067ffffffffffffffff811115610ef957610ef9611659565b604051908082528060200260200182016040528015610f22578160200160208202803683370190505b5090506000610f3462093a80426117b9565b3360009081526003602052604081205491925090815b3360009081526003602052604090205481101561101d57336000908152600360205260408120805483908110610f8257610f8261180d565b906000526020600020015490508460026000838152602001908152602001600020600301541115610fdd5780868581518110610fc057610fc061180d565b602090810291909101015283610fd58161184c565b94505061100a565b82610fe78161189f565b93505080868481518110610ffd57610ffd61180d565b6020026020010181815250505b50806110158161184c565b915050610f4a565b5092959294509192505050565b6000806000806000807f00000000000000000000000000000000000000000000000000000000000000006001600160a01b03166399fbab88886040518263ffffffff1660e01b815260040161108191815260200190565b61018060405180830381865afa15801561109f573d6000803e3d6000fd5b505050506040513d601f19601f820116820180604052508101906110c391906118fd565b50505050975097509750509650965050507f00000000000000000000000000000000000000000000000000000000000000006001600160a01b0316856001600160a01b031614801561114657507f00000000000000000000000000000000000000000000000000000000000000006001600160a01b0316846001600160a01b0316145b6111825760405162461bcd60e51b815260206004820152600d60248201526c3638103830b4b91032b93937b960991b604482015260640161046b565b600283900b620d89e7191480156111aa57506111a1620d89e7196119de565b60020b8260020b145b6111e95760405162461bcd60e51b815260206004820152601060248201526f3a34b1b5903930b733b29032b93937b960811b604482015260640161046b565b60405163020604bf60e21b81526004810188905230906001600160a01b037f0000000000000000000000000000000000000000000000000000000000000000169063081812fc90602401602060405180830381865afa158015611250573d6000803e3d6000fd5b505050506040513d601f19601f820116820180604052508101906112749190611a00565b6001600160a01b0316146112b85760405162461bcd60e51b815260206004820152600b60248201526a6e6f7420617070726f766560a81b604482015260640161046b565b604051632142170760e11b8152336004820152306024820152604481018890527f00000000000000000000000000000000000000000000000000000000000000006001600160a01b0316906342842e0e90606401600060405180830381600087803b15801561132657600080fd5b505af115801561133a573d6000803e3d6000fd5b50506001600160801b0390921698975050505050505050565b604080516001600160a01b038481166024830152604480830185905283518084039091018152606490920183526020820180516001600160e01b031663a9059cbb60e01b17905291516000928392908716916113af9190611a1d565b6000604051808303816000865af19150503d80600081146113ec576040519150601f19603f3d011682016040523d82523d6000602084013e6113f1565b606091505b509150915081801561141b57508051158061141b57508080602001905181019061141b9190611a4c565b6114595760405162461bcd60e51b815260206004820152600f60248201526e1514905394d1915497d19052531151608a1b604482015260640161046b565b5050505050565b604080516001600160a01b0385811660248301528481166044830152606480830185905283518084039091018152608490920183526020820180516001600160e01b03166323b872dd60e01b17905291516000928392908816916114c49190611a1d565b6000604051808303816000865af19150503d8060008114611501576040519150601f19603f3d011682016040523d82523d6000602084013e611506565b606091505b50915091508180156115305750805115806115305750808060200190518101906115309190611a4c565b6115725760405162461bcd60e51b81526020600482015260136024820152721d1c985b9cd9995c919c9bdb4819985a5b1959606a1b604482015260640161046b565b505050505050565b60006020828403121561158c57600080fd5b5035919050565b803560ff811681146115a457600080fd5b919050565b600080604083850312156115bc57600080fd5b823591506115cc60208401611593565b90509250929050565b6001600160a01b03811681146115ea57600080fd5b50565b6000806040838503121561160057600080fd5b823561160b816115d5565b946020939093013593505050565b60006020828403121561162b57600080fd5b8135611636816115d5565b9392505050565b6000806040838503121561165057600080fd5b61160b83611593565b634e487b7160e01b600052604160045260246000fd5b6000806040838503121561168257600080fd5b8235915060208084013567ffffffffffffffff808211156116a257600080fd5b818601915086601f8301126116b657600080fd5b8135818111156116c8576116c8611659565b8060051b604051601f19603f830116810181811085821117156116ed576116ed611659565b60405291825284820192508381018501918983111561170b57600080fd5b938501935b8285101561172957843584529385019392850192611710565b8096505050505050509250929050565b6000806040838503121561174c57600080fd5b50508035926020909101359150565b604080825283519082018190526000906020906060840190828701845b8281101561179457815184529284019290840190600101611778565b50505092019290925292915050565b634e487b7160e01b600052601160045260246000fd5b6000826117d657634e487b7160e01b600052601260045260246000fd5b500490565b80820180821115610ec557610ec56117a3565b600060ff821660ff8103611804576118046117a3565b60010192915050565b634e487b7160e01b600052603260045260246000fd5b81810381811115610ec557610ec56117a3565b634e487b7160e01b600052603160045260246000fd5b60006001820161185e5761185e6117a3565b5060010190565b6020808252600990820152683337b93134b23232b760b91b604082015260600190565b8082028115828204841417610ec557610ec56117a3565b6000816118ae576118ae6117a3565b506000190190565b80516115a4816115d5565b805162ffffff811681146115a457600080fd5b8051600281900b81146115a457600080fd5b80516001600160801b03811681146115a457600080fd5b6000806000806000806000806000806000806101808d8f03121561192057600080fd5b8c516bffffffffffffffffffffffff8116811461193c57600080fd5b9b5061194a60208e016118b6565b9a5061195860408e016118b6565b995061196660608e016118b6565b985061197460808e016118c1565b975061198260a08e016118d4565b965061199060c08e016118d4565b955061199e60e08e016118e6565b94506101008d015193506101208d015192506119bd6101408e016118e6565b91506119cc6101608e016118e6565b90509295989b509295989b509295989b565b60008160020b627fffff1981036119f7576119f76117a3565b60000392915050565b600060208284031215611a1257600080fd5b8151611636816115d5565b6000825160005b81811015611a3e5760208186018101518583015201611a24565b506000920191825250919050565b600060208284031215611a5e57600080fd5b8151801515811461163657600080fdfea26469706673582212204bbbcefac20912dcd722f7bd302080db516ec7ed9c2bb8b5990a85689d74c45f64736f6c63430008110033",
  "linkReferences": {},
  "deployedLinkReferences": {}
}