{
  "_format": "hh-sol-artifact-1",
  "contractName": "StakeNFT721",
  "sourceName": "contracts/stakeNFT721.sol",
  "abi": [
    {
      "inputs": [
        {
          "internalType": "uint8",
          "name": "maxWeeks",
          "type": "uint8"
        },
        {
          "internalType": "uint256",
          "name": "maxScale",
          "type": "uint256"
        },
        {
          "internalType": "uint8",
          "name": "lockWeeks",
          "type": "uint8"
        },
        {
          "internalType": "uint256",
          "name": "beginTime",
          "type": "uint256"
        },
        {
          "internalType": "uint256",
          "name": "endTime",
          "type": "uint256"
        },
        {
          "internalType": "address",
          "name": "_rewardToken",
          "type": "address"
        },
        {
          "internalType": "address",
          "name": "tokenA",
          "type": "address"
        },
        {
          "internalType": "address",
          "name": "tokenB",
          "type": "address"
        },
        {
          "internalType": "address",
          "name": "nft",
          "type": "address"
        }
      ],
      "stateMutability": "nonpayable",
      "type": "constructor"
    },
    {
      "anonymous": false,
      "inputs": [
        {
          "indexed": true,
          "internalType": "address",
          "name": "user",
          "type": "address"
        },
        {
          "indexed": false,
          "internalType": "uint256",
          "name": "tokenId",
          "type": "uint256"
        },
        {
          "indexed": false,
          "internalType": "uint256",
          "name": "amount",
          "type": "uint256"
        }
      ],
      "name": "ClaimReward",
      "type": "event"
    },
    {
      "anonymous": false,
      "inputs": [
        {
          "indexed": true,
          "internalType": "address",
          "name": "user",
          "type": "address"
        },
        {
          "indexed": false,
          "internalType": "uint256",
          "name": "amount",
          "type": "uint256"
        }
      ],
      "name": "ClaimReward",
      "type": "event"
    },
    {
      "anonymous": false,
      "inputs": [
        {
          "indexed": true,
          "internalType": "address",
          "name": "user",
          "type": "address"
        },
        {
          "indexed": false,
          "internalType": "uint256",
          "name": "no",
          "type": "uint256"
        },
        {
          "indexed": false,
          "internalType": "uint256",
          "name": "amount",
          "type": "uint256"
        }
      ],
      "name": "SetReward",
      "type": "event"
    },
    {
      "anonymous": false,
      "inputs": [
        {
          "indexed": true,
          "internalType": "address",
          "name": "user",
          "type": "address"
        },
        {
          "indexed": false,
          "internalType": "uint256",
          "name": "tokenId",
          "type": "uint256"
        },
        {
          "indexed": false,
          "internalType": "uint256",
          "name": "amount",
          "type": "uint256"
        },
        {
          "indexed": false,
          "internalType": "uint8",
          "name": "k",
          "type": "uint8"
        }
      ],
      "name": "Stake",
      "type": "event"
    },
    {
      "anonymous": false,
      "inputs": [
        {
          "indexed": true,
          "internalType": "address",
          "name": "user",
          "type": "address"
        },
        {
          "indexed": false,
          "internalType": "uint256",
          "name": "tokenId",
          "type": "uint256"
        }
      ],
      "name": "Withdraw",
      "type": "event"
    },
    {
      "inputs": [],
      "name": "BEGIN_TIME",
      "outputs": [
        {
          "internalType": "uint256",
          "name": "",
          "type": "uint256"
        }
      ],
      "stateMutability": "view",
      "type": "function"
    },
    {
      "inputs": [],
      "name": "END_TIME",
      "outputs": [
        {
          "internalType": "uint256",
          "name": "",
          "type": "uint256"
        }
      ],
      "stateMutability": "view",
      "type": "function"
    },
    {
      "inputs": [],
      "name": "LOCK_WEEKNUM",
      "outputs": [
        {
          "internalType": "uint8",
          "name": "",
          "type": "uint8"
        }
      ],
      "stateMutability": "view",
      "type": "function"
    },
    {
      "inputs": [],
      "name": "MAX_SCALE",
      "outputs": [
        {
          "internalType": "uint256",
          "name": "",
          "type": "uint256"
        }
      ],
      "stateMutability": "view",
      "type": "function"
    },
    {
      "inputs": [],
      "name": "MAX_WEEKS",
      "outputs": [
        {
          "internalType": "uint8",
          "name": "",
          "type": "uint8"
        }
      ],
      "stateMutability": "view",
      "type": "function"
    },
    {
      "inputs": [],
      "name": "WEEK_SECONDS",
      "outputs": [
        {
          "internalType": "uint24",
          "name": "",
          "type": "uint24"
        }
      ],
      "stateMutability": "view",
      "type": "function"
    },
    {
      "inputs": [],
      "name": "acceptSetter",
      "outputs": [],
      "stateMutability": "nonpayable",
      "type": "function"
    },
    {
      "inputs": [],
      "name": "calculateRewardAmount",
      "outputs": [
        {
          "internalType": "uint256",
          "name": "",
          "type": "uint256"
        },
        {
          "internalType": "uint256",
          "name": "",
          "type": "uint256"
        }
      ],
      "stateMutability": "view",
      "type": "function"
    },
    {
      "inputs": [],
      "name": "claimReward",
      "outputs": [],
      "stateMutability": "nonpayable",
      "type": "function"
    },
    {
      "inputs": [
        {
          "internalType": "uint256",
          "name": "amount",
          "type": "uint256"
        },
        {
          "internalType": "uint8",
          "name": "k",
          "type": "uint8"
        }
      ],
      "name": "getScore",
      "outputs": [
        {
          "internalType": "uint256",
          "name": "score",
          "type": "uint256"
        }
      ],
      "stateMutability": "view",
      "type": "function"
    },
    {
      "inputs": [],
      "name": "getUserNFTs",
      "outputs": [
        {
          "internalType": "uint256[]",
          "name": "",
          "type": "uint256[]"
        },
        {
          "internalType": "uint256",
          "name": "",
          "type": "uint256"
        }
      ],
      "stateMutability": "view",
      "type": "function"
    },
    {
      "inputs": [],
      "name": "latestNo",
      "outputs": [
        {
          "internalType": "uint256",
          "name": "",
          "type": "uint256"
        }
      ],
      "stateMutability": "view",
      "type": "function"
    },
    {
      "inputs": [],
      "name": "nftToken",
      "outputs": [
        {
          "internalType": "contract IIotabeeSwapNFT",
          "name": "",
          "type": "address"
        }
      ],
      "stateMutability": "view",
      "type": "function"
    },
    {
      "inputs": [],
      "name": "owner",
      "outputs": [
        {
          "internalType": "address",
          "name": "",
          "type": "address"
        }
      ],
      "stateMutability": "view",
      "type": "function"
    },
    {
      "inputs": [],
      "name": "rewardToken",
      "outputs": [
        {
          "internalType": "address",
          "name": "",
          "type": "address"
        }
      ],
      "stateMutability": "view",
      "type": "function"
    },
    {
      "inputs": [
        {
          "internalType": "uint256",
          "name": "",
          "type": "uint256"
        }
      ],
      "name": "rewardsOf",
      "outputs": [
        {
          "internalType": "uint256",
          "name": "",
          "type": "uint256"
        }
      ],
      "stateMutability": "view",
      "type": "function"
    },
    {
      "inputs": [
        {
          "internalType": "uint256",
          "name": "no",
          "type": "uint256"
        },
        {
          "internalType": "uint256",
          "name": "amount",
          "type": "uint256"
        }
      ],
      "name": "setReward",
      "outputs": [],
      "stateMutability": "nonpayable",
      "type": "function"
    },
    {
      "inputs": [
        {
          "internalType": "uint256[]",
          "name": "nos",
          "type": "uint256[]"
        },
        {
          "internalType": "uint256[]",
          "name": "amounts",
          "type": "uint256[]"
        }
      ],
      "name": "setRewards",
      "outputs": [
        {
          "internalType": "uint256",
          "name": "total",
          "type": "uint256"
        }
      ],
      "stateMutability": "nonpayable",
      "type": "function"
    },
    {
      "inputs": [
        {
          "internalType": "uint256",
          "name": "tokenId",
          "type": "uint256"
        },
        {
          "internalType": "uint8",
          "name": "k",
          "type": "uint8"
        }
      ],
      "name": "stake",
      "outputs": [],
      "stateMutability": "nonpayable",
      "type": "function"
    },
    {
      "inputs": [
        {
          "internalType": "uint256",
          "name": "",
          "type": "uint256"
        }
      ],
      "name": "stakingNFTs",
      "outputs": [
        {
          "internalType": "address",
          "name": "owner",
          "type": "address"
        },
        {
          "internalType": "uint256",
          "name": "score",
          "type": "uint256"
        },
        {
          "internalType": "uint256",
          "name": "beginNo",
          "type": "uint256"
        },
        {
          "internalType": "uint256",
          "name": "endNo",
          "type": "uint256"
        }
      ],
      "stateMutability": "view",
      "type": "function"
    },
    {
      "inputs": [],
      "name": "token0",
      "outputs": [
        {
          "internalType": "address",
          "name": "",
          "type": "address"
        }
      ],
      "stateMutability": "view",
      "type": "function"
    },
    {
      "inputs": [],
      "name": "token1",
      "outputs": [
        {
          "internalType": "address",
          "name": "",
          "type": "address"
        }
      ],
      "stateMutability": "view",
      "type": "function"
    },
    {
      "inputs": [
        {
          "internalType": "uint256",
          "name": "",
          "type": "uint256"
        }
      ],
      "name": "totalScores",
      "outputs": [
        {
          "internalType": "uint256",
          "name": "",
          "type": "uint256"
        }
      ],
      "stateMutability": "view",
      "type": "function"
    },
    {
      "inputs": [
        {
          "internalType": "address",
          "name": "_owner",
          "type": "address"
        }
      ],
      "name": "transferOwner",
      "outputs": [],
      "stateMutability": "nonpayable",
      "type": "function"
    },
    {
      "inputs": [
        {
          "internalType": "address",
          "name": "",
          "type": "address"
        },
        {
          "internalType": "uint256",
          "name": "",
          "type": "uint256"
        }
      ],
      "name": "userCanClaimWeeks",
      "outputs": [
        {
          "internalType": "uint256",
          "name": "",
          "type": "uint256"
        }
      ],
      "stateMutability": "view",
      "type": "function"
    },
    {
      "inputs": [
        {
          "internalType": "address",
          "name": "",
          "type": "address"
        },
        {
          "internalType": "uint256",
          "name": "",
          "type": "uint256"
        }
      ],
      "name": "userNFTs",
      "outputs": [
        {
          "internalType": "uint256",
          "name": "",
          "type": "uint256"
        }
      ],
      "stateMutability": "view",
      "type": "function"
    },
    {
      "inputs": [
        {
          "internalType": "address",
          "name": "",
          "type": "address"
        },
        {
          "internalType": "uint256",
          "name": "",
          "type": "uint256"
        }
      ],
      "name": "userScores",
      "outputs": [
        {
          "internalType": "uint256",
          "name": "",
          "type": "uint256"
        }
      ],
      "stateMutability": "view",
      "type": "function"
    },
    {
      "inputs": [
        {
          "internalType": "uint256",
          "name": "tokenId",
          "type": "uint256"
        }
      ],
      "name": "withdraw",
      "outputs": [],
      "stateMutability": "nonpayable",
      "type": "function"
    },
    {
      "inputs": [
        {
          "internalType": "uint256[]",
          "name": "tokenIds",
          "type": "uint256[]"
        }
      ],
      "name": "withdraw",
      "outputs": [],
      "stateMutability": "nonpayable",
      "type": "function"
    },
    {
      "inputs": [
        {
          "internalType": "uint256",
          "name": "amount",
          "type": "uint256"
        }
      ],
      "name": "withdrawRewards",
      "outputs": [],
      "stateMutability": "nonpayable",
      "type": "function"
    }
  ],
  "bytecode": "0x6101a06040523480156200001257600080fd5b506040516200201f3803806200201f8339810160408190526200003591620000e3565b6001600160a01b0380851660805260ff808b1660a05260c08a9052881660e052610100879052610120869052600080546001600160a01b0319163317905582811690841610620000875781836200008a565b82825b6001600160a01b039081166101805290811661016052166101405250620001839650505050505050565b805160ff81168114620000c657600080fd5b919050565b80516001600160a01b0381168114620000c657600080fd5b60008060008060008060008060006101208a8c0312156200010357600080fd5b6200010e8a620000b4565b985060208a015197506200012560408b01620000b4565b965060608a0151955060808a015194506200014360a08b01620000cb565b93506200015360c08b01620000cb565b92506200016360e08b01620000cb565b9150620001746101008b01620000cb565b90509295985092959850929598565b60805160a05160c05160e0516101005161012051610140516101605161018051611dbb62000264600039600081816104cb01526113c501526000818161025001526113890152600081816104a401528181610ae4015281816112e8015281816114bc015261158d0152600061037901526000610460015260008181610217015281816108360152610f4b01526000818161052c01526111220152600081816104f20152818161059b015281816110be01526110e901526000818161055301528181610c5e01528181610dcf01528181610eab01526110380152611dbb6000f3fe608060405234801561001057600080fd5b50600436106101da5760003560e01c80639342c8f411610104578063cd671a58116100a2578063ee3453ed11610071578063ee3453ed14610514578063f6def7cf14610527578063f7c618c11461054e578063fdc5ab8e1461057557600080fd5b8063cd671a5814610482578063d06fcba81461049f578063d21220a7146104c6578063e11400bb146104ed57600080fd5b8063a47bd496116100de578063a47bd4961461042d578063b88a802f14610440578063bb57852d14610448578063c75363b61461045b57600080fd5b80639342c8f4146103f4578063979db1c414610407578063983d95ce1461041a57600080fd5b8063291c73c31161017c5780634fb2e45d1161014b5780634fb2e45d1461039b5780635b680a45146103ae5780635f8e422f146103d95780638da5cb5b146103e157600080fd5b8063291c73c31461034557806329ed1cfd146103585780632e1a7d4d1461036157806337ba682d1461037457600080fd5b806310087fb1116101b857806310087fb11461028a57806310c6c1c21461029f578063157775df14610308578063195962821461032857600080fd5b80630bce1284146101df5780630d437d40146102125780630dfe16811461024b575b600080fd5b6101ff6101ed36600461182d565b60056020526000908152604090205481565b6040519081526020015b60405180910390f35b6102397f000000000000000000000000000000000000000000000000000000000000000081565b60405160ff9091168152602001610209565b6102727f000000000000000000000000000000000000000000000000000000000000000081565b6040516001600160a01b039091168152602001610209565b61029d610298366004611846565b61058b565b005b6102de6102ad36600461182d565b60076020526000908152604090208054600182015460028301546003909301546001600160a01b0390921692909184565b604080516001600160a01b0390951685526020850193909352918301526060820152608001610209565b6101ff61031636600461182d565b60046020526000908152604090205481565b61033061082e565b60408051928352602083019190915201610209565b6101ff610353366004611891565b610921565b6101ff60065481565b61029d61036f36600461182d565b610952565b6101ff7f000000000000000000000000000000000000000000000000000000000000000081565b61029d6103a93660046118bd565b610b92565b6101ff6103bc366004611891565b600260209081526000928352604080842090915290825290205481565b61029d610bde565b600054610272906001600160a01b031681565b61029d61040236600461182d565b610c2f565b6101ff61041536600461198b565b610c87565b61029d6104283660046119ef565b610e38565b61029d61043b366004611a2c565b610e7c565b61029d610f45565b6101ff610456366004611891565b611090565b6101ff7f000000000000000000000000000000000000000000000000000000000000000081565b61048b61025881565b60405162ffffff9091168152602001610209565b6102727f000000000000000000000000000000000000000000000000000000000000000081565b6102727f000000000000000000000000000000000000000000000000000000000000000081565b6102397f000000000000000000000000000000000000000000000000000000000000000081565b6101ff610522366004611846565b6110b5565b6101ff7f000000000000000000000000000000000000000000000000000000000000000081565b6102727f000000000000000000000000000000000000000000000000000000000000000081565b61057d61117f565b604051610209929190611a4e565b60008160ff161180156105c457507f000000000000000000000000000000000000000000000000000000000000000060ff168160ff1611155b6106095760405162461bcd60e51b815260206004820152601160248201527039ba30b5b2903bb2b2b5b99032b93937b960791b60448201526064015b60405180910390fd5b6000610614836112dd565b9050600061062461025842611aac565b61062f906001611ace565b9050600061063d83856110b5565b905060005b8460ff168160ff1610156106d757816004600061066260ff851687611ace565b8152602001908152602001600020600082825461067f9190611ace565b909155505033600090815260026020526040812083916106a260ff851687611ace565b815260200190815260200160002060008282546106bf9190611ace565b909155508190506106cf81611ae7565b915050610642565b5060408051608081018252338152602081018390529081018390526060810161070360ff871685611ace565b90526000868152600760209081526040808320845181546001600160a01b0319166001600160a01b039091161781558483015160018083019190915585830151600283015560609095015160039182015533845290915290209081015490540361077a573360009081526003602052604090208290555b61078760ff851683611ace565b3360009081526003602052604090206001015410156107c1576107ad60ff851683611ace565b336000908152600360205260409020600101555b336000818152600860209081526040808320805460018101825590845292829020909201889055815188815290810186905260ff87168183015290517f6fa2f6021ee337436cdf2b2570285886da18bc06402ce284d296504a0fe8f8759181900360600190a25050505050565b6000808060ff7f00000000000000000000000000000000000000000000000000000000000000001661086261025842611aac565b61086c9190611b1c565b336000908152600360205260408120549192509081905b33600090815260036020526040902060010154811015610916576000818152600460209081526040808320543384526002835281842085855283528184205460059093529083205490916108d691611b2f565b6108e09190611aac565b90508482116108f6576108f38184611ace565b92505b6109008185611ace565b935050808061090e90611b46565b915050610883565b509094909350915050565b6008602052816000526040600020818154811061093d57600080fd5b90600052602060002001600091509150505481565b6000818152600760205260409020546001600160a01b031633146109aa5760405162461bcd60e51b815260206004820152600f60248201526e37bbb732b9103337b93134b23232b760891b6044820152606401610600565b60006109b861025842611aac565b600083815260076020526040902060030154909150811015610a0a5760405162461bcd60e51b815260206004820152600b60248201526a6c6f636b65642074696d6560a81b6044820152606401610600565b336000908152600860205260408120905b8154811015610b5757818181548110610a3657610a36611b06565b90600052602060002001548403610b455781548290610a5790600190611b1c565b81548110610a6757610a67611b06565b9060005260206000200154828281548110610a8457610a84611b06565b906000526020600020018190555081805480610aa257610aa2611b5f565b600082815260208120820160001990810191909155019055604051632142170760e11b8152306004820152336024820152604481018590526001600160a01b037f000000000000000000000000000000000000000000000000000000000000000016906342842e0e90606401600060405180830381600087803b158015610b2857600080fd5b505af1158015610b3c573d6000803e3d6000fd5b50505050610b57565b80610b4f81611b46565b915050610a1b565b5060405183815233907f884edad9ce6fa2440d8a54cc123490eb96d2768479d49ff9c7366125a94243649060200160405180910390a2505050565b6000546001600160a01b03163314610bbc5760405162461bcd60e51b815260040161060090611b75565b600180546001600160a01b0319166001600160a01b0392909216919091179055565b6001546001600160a01b03163314610c085760405162461bcd60e51b815260040161060090611b75565b60018054600080546001600160a01b03199081166001600160a01b03841617909155169055565b6000546001600160a01b03163314610c595760405162461bcd60e51b815260040161060090611b75565b610c847f00000000000000000000000000000000000000000000000000000000000000003383611606565b50565b600080546001600160a01b03163314610cb25760405162461bcd60e51b815260040161060090611b75565b8151835114610cf65760405162461bcd60e51b815260206004820152601060248201526f3830b930b6b2ba32b9399032b93937b960811b6044820152606401610600565b60005b8351811015610dc957828181518110610d1457610d14611b06565b602002602001015182610d279190611ace565b9150828181518110610d3b57610d3b611b06565b602002602001015160056000868481518110610d5957610d59611b06565b6020026020010151815260200190815260200160002081905550600654848281518110610d8857610d88611b06565b60200260200101511115610db757838181518110610da857610da8611b06565b60200260200101516006819055505b80610dc181611b46565b915050610cf9565b50610df67f0000000000000000000000000000000000000000000000000000000000000000333084611713565b60408051600081526020810183905233917fc3991418cacd70a010fce559a44fcbb47534ca43bf7543964bdca2639f6e6e5a910160405180910390a292915050565b60005b8151811015610e7857610e66828281518110610e5957610e59611b06565b6020026020010151610952565b80610e7081611b46565b915050610e3b565b5050565b6000546001600160a01b03163314610ea65760405162461bcd60e51b815260040161060090611b75565b610ed27f0000000000000000000000000000000000000000000000000000000000000000333084611713565b60008281526005602052604081208054839290610ef0908490611ace565b9091555050600654821115610f055760068290555b604080518381526020810183905233917fc3991418cacd70a010fce559a44fcbb47534ca43bf7543964bdca2639f6e6e5a91015b60405180910390a25050565b600060ff7f000000000000000000000000000000000000000000000000000000000000000016610f7761025842611aac565b610f819190611b1c565b33600090815260036020526040812054919250905b336000908152600360205260409020600101548110156110325782811161103257610fc2816001611ace565b336000908152600360205260408120015560008181526004602090815260408083205433845260028352818420858552835281842054600590935292205461100a9190611b2f565b6110149190611aac565b61101e9083611ace565b91508061102a81611b46565b915050610f96565b5061105e7f00000000000000000000000000000000000000000000000000000000000000003383611606565b60405181815233907fba8de60c3403ec381d1d484652ea1980e3c3e56359195c92525bff4ce47ad98e90602001610f39565b600360205281600052604060002081600281106110ac57600080fd5b01549150829050565b60006110e260017f0000000000000000000000000000000000000000000000000000000000000000611b98565b60ff1660017f000000000000000000000000000000000000000000000000000000000000000060ff166001856111189190611b98565b60ff1661114660017f0000000000000000000000000000000000000000000000000000000000000000611b1c565b6111509190611b2f565b61115a9190611ace565b6111649190611b1c565b61116e9085611b2f565b6111789190611aac565b9392505050565b3360009081526008602052604081205460609190819067ffffffffffffffff8111156111ad576111ad6118da565b6040519080825280602002602001820160405280156111d6578160200160208202803683370190505b50905060006111e761025842611aac565b3360009081526008602052604081205491925090815b336000908152600860205260409020548110156112d05733600090815260086020526040812080548390811061123557611235611b06565b906000526020600020015490508460076000838152602001908152602001600020600301541115611290578086858151811061127357611273611b06565b60209081029190910101528361128881611b46565b9450506112bd565b8261129a81611bb1565b935050808684815181106112b0576112b0611b06565b6020026020010181815250505b50806112c881611b46565b9150506111fd565b5092959294509192505050565b6000806000806000807f00000000000000000000000000000000000000000000000000000000000000006001600160a01b03166399fbab88886040518263ffffffff1660e01b815260040161133491815260200190565b61018060405180830381865afa158015611352573d6000803e3d6000fd5b505050506040513d601f19601f820116820180604052508101906113769190611c14565b50505050975097509750509650965050507f00000000000000000000000000000000000000000000000000000000000000006001600160a01b0316856001600160a01b03161480156113f957507f00000000000000000000000000000000000000000000000000000000000000006001600160a01b0316846001600160a01b0316145b6114355760405162461bcd60e51b815260206004820152600d60248201526c3638103830b4b91032b93937b960991b6044820152606401610600565b600283900b620d89e71914801561145d5750611454620d89e719611cf5565b60020b8260020b145b61149c5760405162461bcd60e51b815260206004820152601060248201526f3a34b1b5903930b733b29032b93937b960811b6044820152606401610600565b60405163020604bf60e21b81526004810188905230906001600160a01b037f0000000000000000000000000000000000000000000000000000000000000000169063081812fc90602401602060405180830381865afa158015611503573d6000803e3d6000fd5b505050506040513d601f19601f820116820180604052508101906115279190611d17565b6001600160a01b03161461156b5760405162461bcd60e51b815260206004820152600b60248201526a6e6f7420617070726f766560a81b6044820152606401610600565b604051632142170760e11b8152336004820152306024820152604481018890527f00000000000000000000000000000000000000000000000000000000000000006001600160a01b0316906342842e0e90606401600060405180830381600087803b1580156115d957600080fd5b505af11580156115ed573d6000803e3d6000fd5b50506001600160801b0390921698975050505050505050565b604080516001600160a01b038481166024830152604480830185905283518084039091018152606490920183526020820180516001600160e01b031663a9059cbb60e01b17905291516000928392908716916116629190611d34565b6000604051808303816000865af19150503d806000811461169f576040519150601f19603f3d011682016040523d82523d6000602084013e6116a4565b606091505b50915091508180156116ce5750805115806116ce5750808060200190518101906116ce9190611d63565b61170c5760405162461bcd60e51b815260206004820152600f60248201526e1514905394d1915497d19052531151608a1b6044820152606401610600565b5050505050565b604080516001600160a01b0385811660248301528481166044830152606480830185905283518084039091018152608490920183526020820180516001600160e01b03166323b872dd60e01b17905291516000928392908816916117779190611d34565b6000604051808303816000865af19150503d80600081146117b4576040519150601f19603f3d011682016040523d82523d6000602084013e6117b9565b606091505b50915091508180156117e35750805115806117e35750808060200190518101906117e39190611d63565b6118255760405162461bcd60e51b81526020600482015260136024820152721d1c985b9cd9995c919c9bdb4819985a5b1959606a1b6044820152606401610600565b505050505050565b60006020828403121561183f57600080fd5b5035919050565b6000806040838503121561185957600080fd5b82359150602083013560ff8116811461187157600080fd5b809150509250929050565b6001600160a01b0381168114610c8457600080fd5b600080604083850312156118a457600080fd5b82356118af8161187c565b946020939093013593505050565b6000602082840312156118cf57600080fd5b81356111788161187c565b634e487b7160e01b600052604160045260246000fd5b600082601f83011261190157600080fd5b8135602067ffffffffffffffff8083111561191e5761191e6118da565b8260051b604051601f19603f83011681018181108482111715611943576119436118da565b60405293845285810183019383810192508785111561196157600080fd5b83870191505b8482101561198057813583529183019190830190611967565b979650505050505050565b6000806040838503121561199e57600080fd5b823567ffffffffffffffff808211156119b657600080fd5b6119c2868387016118f0565b935060208501359150808211156119d857600080fd5b506119e5858286016118f0565b9150509250929050565b600060208284031215611a0157600080fd5b813567ffffffffffffffff811115611a1857600080fd5b611a24848285016118f0565b949350505050565b60008060408385031215611a3f57600080fd5b50508035926020909101359150565b604080825283519082018190526000906020906060840190828701845b82811015611a8757815184529284019290840190600101611a6b565b50505092019290925292915050565b634e487b7160e01b600052601160045260246000fd5b600082611ac957634e487b7160e01b600052601260045260246000fd5b500490565b80820180821115611ae157611ae1611a96565b92915050565b600060ff821660ff8103611afd57611afd611a96565b60010192915050565b634e487b7160e01b600052603260045260246000fd5b81810381811115611ae157611ae1611a96565b8082028115828204841417611ae157611ae1611a96565b600060018201611b5857611b58611a96565b5060010190565b634e487b7160e01b600052603160045260246000fd5b6020808252600990820152683337b93134b23232b760b91b604082015260600190565b60ff8281168282160390811115611ae157611ae1611a96565b600081611bc057611bc0611a96565b506000190190565b8051611bd38161187c565b919050565b805162ffffff81168114611bd357600080fd5b8051600281900b8114611bd357600080fd5b80516001600160801b0381168114611bd357600080fd5b6000806000806000806000806000806000806101808d8f031215611c3757600080fd5b8c516bffffffffffffffffffffffff81168114611c5357600080fd5b9b50611c6160208e01611bc8565b9a50611c6f60408e01611bc8565b9950611c7d60608e01611bc8565b9850611c8b60808e01611bd8565b9750611c9960a08e01611beb565b9650611ca760c08e01611beb565b9550611cb560e08e01611bfd565b94506101008d015193506101208d01519250611cd46101408e01611bfd565b9150611ce36101608e01611bfd565b90509295989b509295989b509295989b565b60008160020b627fffff198103611d0e57611d0e611a96565b60000392915050565b600060208284031215611d2957600080fd5b81516111788161187c565b6000825160005b81811015611d555760208186018101518583015201611d3b565b506000920191825250919050565b600060208284031215611d7557600080fd5b8151801515811461117857600080fdfea2646970667358221220b1aca6a8031b45d52d3e88d1e0e3da9dfb3421f949c8dffd1eb7d4f750df16d164736f6c63430008110033",
  "linkReferences": {},
  "deployedLinkReferences": {}
}