{
  "_format": "hh-sol-artifact-1",
  "contractName": "StakeNFT721",
  "sourceName": "contracts/stakeNFT721.sol",
  "abi": [
    {
      "inputs": [
        {
          "internalType": "uint8",
          "name": "maxWeeks",
          "type": "uint8"
        },
        {
          "internalType": "uint256",
          "name": "maxScale",
          "type": "uint256"
        },
        {
          "internalType": "address",
          "name": "_rewardToken",
          "type": "address"
        },
        {
          "internalType": "address",
          "name": "tokenA",
          "type": "address"
        },
        {
          "internalType": "address",
          "name": "tokenB",
          "type": "address"
        },
        {
          "internalType": "address",
          "name": "nft",
          "type": "address"
        }
      ],
      "stateMutability": "nonpayable",
      "type": "constructor"
    },
    {
      "anonymous": false,
      "inputs": [
        {
          "indexed": true,
          "internalType": "address",
          "name": "user",
          "type": "address"
        },
        {
          "indexed": false,
          "internalType": "uint256",
          "name": "tokenId",
          "type": "uint256"
        },
        {
          "indexed": false,
          "internalType": "uint256",
          "name": "amount",
          "type": "uint256"
        }
      ],
      "name": "ClaimReward",
      "type": "event"
    },
    {
      "anonymous": false,
      "inputs": [
        {
          "indexed": true,
          "internalType": "address",
          "name": "user",
          "type": "address"
        },
        {
          "indexed": false,
          "internalType": "uint256",
          "name": "no",
          "type": "uint256"
        },
        {
          "indexed": false,
          "internalType": "uint256",
          "name": "amount",
          "type": "uint256"
        }
      ],
      "name": "SetReward",
      "type": "event"
    },
    {
      "anonymous": false,
      "inputs": [
        {
          "indexed": true,
          "internalType": "address",
          "name": "user",
          "type": "address"
        },
        {
          "indexed": false,
          "internalType": "uint256",
          "name": "tokenId",
          "type": "uint256"
        },
        {
          "indexed": false,
          "internalType": "uint256",
          "name": "amount",
          "type": "uint256"
        },
        {
          "indexed": false,
          "internalType": "uint8",
          "name": "k",
          "type": "uint8"
        }
      ],
      "name": "Stake",
      "type": "event"
    },
    {
      "anonymous": false,
      "inputs": [
        {
          "indexed": true,
          "internalType": "address",
          "name": "user",
          "type": "address"
        },
        {
          "indexed": false,
          "internalType": "uint256",
          "name": "tokenId",
          "type": "uint256"
        }
      ],
      "name": "Withdraw",
      "type": "event"
    },
    {
      "inputs": [],
      "name": "MAX_SCALE",
      "outputs": [
        {
          "internalType": "uint256",
          "name": "",
          "type": "uint256"
        }
      ],
      "stateMutability": "view",
      "type": "function"
    },
    {
      "inputs": [],
      "name": "MAX_WEEKS",
      "outputs": [
        {
          "internalType": "uint8",
          "name": "",
          "type": "uint8"
        }
      ],
      "stateMutability": "view",
      "type": "function"
    },
    {
      "inputs": [],
      "name": "WEEK_SECONDS",
      "outputs": [
        {
          "internalType": "uint24",
          "name": "",
          "type": "uint24"
        }
      ],
      "stateMutability": "view",
      "type": "function"
    },
    {
      "inputs": [],
      "name": "acceptSetter",
      "outputs": [],
      "stateMutability": "nonpayable",
      "type": "function"
    },
    {
      "inputs": [
        {
          "internalType": "uint256",
          "name": "",
          "type": "uint256"
        },
        {
          "internalType": "uint256",
          "name": "",
          "type": "uint256"
        }
      ],
      "name": "bClaimReward",
      "outputs": [
        {
          "internalType": "bool",
          "name": "",
          "type": "bool"
        }
      ],
      "stateMutability": "view",
      "type": "function"
    },
    {
      "inputs": [
        {
          "internalType": "uint256",
          "name": "tokenId",
          "type": "uint256"
        },
        {
          "internalType": "uint256[]",
          "name": "nos",
          "type": "uint256[]"
        }
      ],
      "name": "claimReward",
      "outputs": [],
      "stateMutability": "nonpayable",
      "type": "function"
    },
    {
      "inputs": [],
      "name": "claimReward",
      "outputs": [],
      "stateMutability": "nonpayable",
      "type": "function"
    },
    {
      "inputs": [
        {
          "internalType": "uint256",
          "name": "amount",
          "type": "uint256"
        },
        {
          "internalType": "uint8",
          "name": "k",
          "type": "uint8"
        }
      ],
      "name": "getScore",
      "outputs": [
        {
          "internalType": "uint256",
          "name": "score",
          "type": "uint256"
        }
      ],
      "stateMutability": "view",
      "type": "function"
    },
    {
      "inputs": [],
      "name": "getUserNFTs",
      "outputs": [
        {
          "internalType": "uint256[]",
          "name": "",
          "type": "uint256[]"
        },
        {
          "internalType": "uint256",
          "name": "",
          "type": "uint256"
        }
      ],
      "stateMutability": "view",
      "type": "function"
    },
    {
      "inputs": [],
      "name": "latestNo",
      "outputs": [
        {
          "internalType": "uint256",
          "name": "",
          "type": "uint256"
        }
      ],
      "stateMutability": "view",
      "type": "function"
    },
    {
      "inputs": [],
      "name": "nftToken",
      "outputs": [
        {
          "internalType": "contract IIotabeeSwapNFT",
          "name": "",
          "type": "address"
        }
      ],
      "stateMutability": "view",
      "type": "function"
    },
    {
      "inputs": [],
      "name": "owner",
      "outputs": [
        {
          "internalType": "address",
          "name": "",
          "type": "address"
        }
      ],
      "stateMutability": "view",
      "type": "function"
    },
    {
      "inputs": [],
      "name": "rewardToken",
      "outputs": [
        {
          "internalType": "address",
          "name": "",
          "type": "address"
        }
      ],
      "stateMutability": "view",
      "type": "function"
    },
    {
      "inputs": [
        {
          "internalType": "uint256",
          "name": "",
          "type": "uint256"
        }
      ],
      "name": "rewardsOf",
      "outputs": [
        {
          "internalType": "uint256",
          "name": "",
          "type": "uint256"
        }
      ],
      "stateMutability": "view",
      "type": "function"
    },
    {
      "inputs": [
        {
          "internalType": "uint256",
          "name": "no",
          "type": "uint256"
        },
        {
          "internalType": "uint256",
          "name": "amount",
          "type": "uint256"
        }
      ],
      "name": "setReward",
      "outputs": [],
      "stateMutability": "nonpayable",
      "type": "function"
    },
    {
      "inputs": [
        {
          "internalType": "uint256[]",
          "name": "nos",
          "type": "uint256[]"
        },
        {
          "internalType": "uint256[]",
          "name": "amounts",
          "type": "uint256[]"
        }
      ],
      "name": "setRewards",
      "outputs": [
        {
          "internalType": "uint256",
          "name": "total",
          "type": "uint256"
        }
      ],
      "stateMutability": "nonpayable",
      "type": "function"
    },
    {
      "inputs": [
        {
          "internalType": "uint256",
          "name": "tokenId",
          "type": "uint256"
        },
        {
          "internalType": "uint8",
          "name": "k",
          "type": "uint8"
        }
      ],
      "name": "stake",
      "outputs": [],
      "stateMutability": "nonpayable",
      "type": "function"
    },
    {
      "inputs": [
        {
          "internalType": "uint256",
          "name": "",
          "type": "uint256"
        }
      ],
      "name": "stakingNFTs",
      "outputs": [
        {
          "internalType": "address",
          "name": "owner",
          "type": "address"
        },
        {
          "internalType": "uint256",
          "name": "score",
          "type": "uint256"
        },
        {
          "internalType": "uint256",
          "name": "beginNo",
          "type": "uint256"
        },
        {
          "internalType": "uint256",
          "name": "endNo",
          "type": "uint256"
        },
        {
          "internalType": "uint256",
          "name": "toClaimNo",
          "type": "uint256"
        }
      ],
      "stateMutability": "view",
      "type": "function"
    },
    {
      "inputs": [],
      "name": "token0",
      "outputs": [
        {
          "internalType": "address",
          "name": "",
          "type": "address"
        }
      ],
      "stateMutability": "view",
      "type": "function"
    },
    {
      "inputs": [],
      "name": "token1",
      "outputs": [
        {
          "internalType": "address",
          "name": "",
          "type": "address"
        }
      ],
      "stateMutability": "view",
      "type": "function"
    },
    {
      "inputs": [
        {
          "internalType": "uint256",
          "name": "",
          "type": "uint256"
        }
      ],
      "name": "totalScores",
      "outputs": [
        {
          "internalType": "uint256",
          "name": "",
          "type": "uint256"
        }
      ],
      "stateMutability": "view",
      "type": "function"
    },
    {
      "inputs": [
        {
          "internalType": "address",
          "name": "_owner",
          "type": "address"
        }
      ],
      "name": "transferOwner",
      "outputs": [],
      "stateMutability": "nonpayable",
      "type": "function"
    },
    {
      "inputs": [
        {
          "internalType": "address",
          "name": "",
          "type": "address"
        },
        {
          "internalType": "uint256",
          "name": "",
          "type": "uint256"
        }
      ],
      "name": "userNFTs",
      "outputs": [
        {
          "internalType": "uint256",
          "name": "",
          "type": "uint256"
        }
      ],
      "stateMutability": "view",
      "type": "function"
    },
    {
      "inputs": [
        {
          "internalType": "uint256",
          "name": "tokenId",
          "type": "uint256"
        }
      ],
      "name": "withdraw",
      "outputs": [],
      "stateMutability": "nonpayable",
      "type": "function"
    },
    {
      "inputs": [
        {
          "internalType": "uint256[]",
          "name": "tokenIds",
          "type": "uint256[]"
        }
      ],
      "name": "withdraw",
      "outputs": [],
      "stateMutability": "nonpayable",
      "type": "function"
    }
  ],
  "bytecode": "0x6101406040523480156200001257600080fd5b5060405162001f8838038062001f888339810160408190526200003591620000bb565b6001600160a01b0380851660805260ff871660a05260c0869052600080546001600160a01b03191633179055828116908416106200007557818362000078565b82825b6001600160a01b0390811661012052908116610100521660e052506200013b9350505050565b80516001600160a01b0381168114620000b657600080fd5b919050565b60008060008060008060c08789031215620000d557600080fd5b865160ff81168114620000e757600080fd5b60208801519096509450620000ff604088016200009e565b93506200010f606088016200009e565b92506200011f608088016200009e565b91506200012f60a088016200009e565b90509295509295509295565b60805160a05160c05160e0516101005161012051611d9b620001ed600039600081816103d001526113650152600081816101b001526113290152600081816103a901528181610863015281816112880152818161145c015261152d01526000818161044301526110c20152600081816103f7015281816104b20152818161105e015261108901526000818161046a01528181610ada01528181610d4801528181610dde0152610ff60152611d9b6000f3fe608060405234801561001057600080fd5b50600436106101735760003560e01c8063983d95ce116100de578063d06fcba811610097578063ee3453ed11610071578063ee3453ed1461042b578063f6def7cf1461043e578063f7c618c114610465578063fdc5ab8e1461048c57600080fd5b8063d06fcba8146103a4578063d21220a7146103cb578063e11400bb146103f257600080fd5b8063983d95ce146103085780639b6e0d741461031b578063a47bd4961461032e578063b88a802f14610341578063cd671a5814610349578063ce6d3e3e1461036657600080fd5b806329ed1cfd1161013057806329ed1cfd146102ab5780632e1a7d4d146102b45780634fb2e45d146102c75780635f8e422f146102da5780638da5cb5b146102e2578063979db1c4146102f557600080fd5b80630bce1284146101785780630dfe1681146101ab57806310087fb1146101ea57806310c6c1c2146101ff578063157775df14610278578063291c73c314610298575b600080fd5b6101986101863660046117cd565b60046020526000908152604090205481565b6040519081526020015b60405180910390f35b6101d27f000000000000000000000000000000000000000000000000000000000000000081565b6040516001600160a01b0390911681526020016101a2565b6101fd6101f83660046117e6565b6104a2565b005b61024661020d3660046117cd565b600660205260009081526040902080546001820154600283015460038401546004909401546001600160a01b0390931693919290919085565b604080516001600160a01b0390961686526020860194909452928401919091526060830152608082015260a0016101a2565b6101986102863660046117cd565b60036020526000908152604090205481565b6101986102a6366004611834565b6106a0565b61019860055481565b6101fd6102c23660046117cd565b6106d1565b6101fd6102d5366004611860565b610911565b6101fd61095d565b6000546101d2906001600160a01b031681565b61019861030336600461192e565b6109ae565b6101fd610316366004611992565b610b43565b6101fd6103293660046119cf565b610b87565b6101fd61033c366004611a0c565b610daf565b6101fd610e78565b61035261025881565b60405162ffffff90911681526020016101a2565b610394610374366004611a0c565b600260209081526000928352604080842090915290825290205460ff1681565b60405190151581526020016101a2565b6101d27f000000000000000000000000000000000000000000000000000000000000000081565b6101d27f000000000000000000000000000000000000000000000000000000000000000081565b6104197f000000000000000000000000000000000000000000000000000000000000000081565b60405160ff90911681526020016101a2565b6101986104393660046117e6565b611055565b6101987f000000000000000000000000000000000000000000000000000000000000000081565b6101d27f000000000000000000000000000000000000000000000000000000000000000081565b61049461111f565b6040516101a2929190611a2e565b60008160ff161180156104db57507f000000000000000000000000000000000000000000000000000000000000000060ff168160ff1611155b6105205760405162461bcd60e51b815260206004820152601160248201527039ba30b5b2903bb2b2b5b99032b93937b960791b60448201526064015b60405180910390fd5b600061052b8361127d565b9050600061053b61025842611a8c565b610546906001611aae565b905060006105548385611055565b905060005b8460ff168160ff1610156105ae57816003600061057960ff851687611aae565b815260200190815260200160002060008282546105969190611aae565b909155508190506105a681611ac7565b915050610559565b506040805160a08101825233815260208101839052908101839052606081016105da60ff871685611aae565b815260209081018490526000878152600682526040808220845181546001600160a01b0319166001600160a01b0390911617815584840151600180830191909155858301516002830155606080870151600384015560809096015160049092019190915533808452600785528284208054928301815584529284902001899055805189815292830187905260ff881690830152917f6fa2f6021ee337436cdf2b2570285886da18bc06402ce284d296504a0fe8f875910160405180910390a25050505050565b600760205281600052604060002081815481106106bc57600080fd5b90600052602060002001600091509150505481565b6000818152600660205260409020546001600160a01b031633146107295760405162461bcd60e51b815260206004820152600f60248201526e37bbb732b9103337b93134b23232b760891b6044820152606401610517565b600061073761025842611a8c565b6000838152600660205260409020600301549091508110156107895760405162461bcd60e51b815260206004820152600b60248201526a6c6f636b65642074696d6560a81b6044820152606401610517565b336000908152600760205260408120905b81548110156108d6578181815481106107b5576107b5611ae6565b906000526020600020015484036108c457815482906107d690600190611afc565b815481106107e6576107e6611ae6565b906000526020600020015482828154811061080357610803611ae6565b90600052602060002001819055508180548061082157610821611b0f565b600082815260208120820160001990810191909155019055604051632142170760e11b8152306004820152336024820152604481018590526001600160a01b037f000000000000000000000000000000000000000000000000000000000000000016906342842e0e90606401600060405180830381600087803b1580156108a757600080fd5b505af11580156108bb573d6000803e3d6000fd5b505050506108d6565b806108ce81611b25565b91505061079a565b5060405183815233907f884edad9ce6fa2440d8a54cc123490eb96d2768479d49ff9c7366125a94243649060200160405180910390a2505050565b6000546001600160a01b0316331461093b5760405162461bcd60e51b815260040161051790611b3e565b600180546001600160a01b0319166001600160a01b0392909216919091179055565b6001546001600160a01b031633146109875760405162461bcd60e51b815260040161051790611b3e565b60018054600080546001600160a01b03199081166001600160a01b03841617909155169055565b600080546001600160a01b031633146109d95760405162461bcd60e51b815260040161051790611b3e565b60005b8351811015610a69578281815181106109f7576109f7611ae6565b602002602001015182610a0a9190611aae565b9150828181518110610a1e57610a1e611ae6565b602002602001015160046000868481518110610a3c57610a3c611ae6565b60200260200101518152602001908152602001600020819055508080610a6190611b25565b9150506109dc565b5060008351118015610aa257506005548360018551610a889190611afc565b81518110610a9857610a98611ae6565b6020026020010151115b15610ad5578260018451610ab69190611afc565b81518110610ac657610ac6611ae6565b60200260200101516005819055505b610b017f00000000000000000000000000000000000000000000000000000000000000003330846115a6565b60408051600081526020810183905233917fc3991418cacd70a010fce559a44fcbb47534ca43bf7543964bdca2639f6e6e5a910160405180910390a292915050565b60005b8151811015610b8357610b71828281518110610b6457610b64611ae6565b60200260200101516106d1565b80610b7b81611b25565b915050610b46565b5050565b6000828152600660205260409020546001600160a01b03163314610bdf5760405162461bcd60e51b815260206004820152600f60248201526e37bbb732b9103337b93134b23232b760891b6044820152606401610517565b6000610bed61025842611a8c565b90506000805b8351811015610d42576000848281518110610c1057610c10611ae6565b6020908102919091018101516000888152600283526040808220838352909352919091205490915060ff1615610c465750610d30565b600086815260026020908152604080832084845290915290205460ff1680610c7f57506000868152600660205260409020600301548110155b80610c9a575060008681526006602052604090206002015481105b80610ca457508381115b80610cbb5750600081815260046020526040902054155b15610cc65750610d30565b60008681526002602090815260408083208484528252808320805460ff1916600190811790915560038352818420548a855260068452828520909101548585526004909352922054610d189190611b61565b610d229190611a8c565b610d2c9084611aae565b9250505b80610d3a81611b25565b915050610bf3565b50610d6e7f000000000000000000000000000000000000000000000000000000000000000033836116c0565b604080518581526020810183905233917fe74e5c9d4ac1fc33412485f18c159a0a391efe287ab3fd271123f30e6bacf4e3910160405180910390a250505050565b6000546001600160a01b03163314610dd95760405162461bcd60e51b815260040161051790611b3e565b610e057f00000000000000000000000000000000000000000000000000000000000000003330846115a6565b60008281526004602052604081208054839290610e23908490611aae565b9091555050600554821115610e385760058290555b604080518381526020810183905233917fc3991418cacd70a010fce559a44fcbb47534ca43bf7543964bdca2639f6e6e5a91015b60405180910390a25050565b6000610e8661025842611a8c565b90506000805b33600090815260076020526040902054811015610ff057336000908152600760205260408120805483908110610ec457610ec4611ae6565b600091825260208083209091015480835260069091526040909120600401549091505b600082815260066020526040902060030154811015610fdb57600082815260026020908152604080832084845290915290205460ff1680610f2757508481115b80610f3e5750600081815260046020526040902054155b610fc95760008281526002602090815260408083208484529091529020805460ff19166001908117909155610f74908290611aae565b6000838152600660209081526040808320600480820195909555858452600383528184205460019091015494909252909120549091610fb291611b61565b610fbc9190611a8c565b610fc69085611aae565b93505b80610fd381611b25565b915050610ee7565b50508080610fe890611b25565b915050610e8c565b5061101c7f000000000000000000000000000000000000000000000000000000000000000033836116c0565b60408051600081526020810183905233917fe74e5c9d4ac1fc33412485f18c159a0a391efe287ab3fd271123f30e6bacf4e39101610e6c565b600061108260017f0000000000000000000000000000000000000000000000000000000000000000611b78565b60ff1660017f000000000000000000000000000000000000000000000000000000000000000060ff166001856110b89190611b78565b60ff166110e660017f0000000000000000000000000000000000000000000000000000000000000000611afc565b6110f09190611b61565b6110fa9190611aae565b6111049190611afc565b61110e9085611b61565b6111189190611a8c565b9392505050565b3360009081526007602052604081205460609190819067ffffffffffffffff81111561114d5761114d61187d565b604051908082528060200260200182016040528015611176578160200160208202803683370190505b509050600061118761025842611a8c565b3360009081526007602052604081205491925090815b33600090815260076020526040902054811015611270573360009081526007602052604081208054839081106111d5576111d5611ae6565b906000526020600020015490508460066000838152602001908152602001600020600301541115611230578086858151811061121357611213611ae6565b60209081029190910101528361122881611b25565b94505061125d565b8261123a81611b91565b9350508086848151811061125057611250611ae6565b6020026020010181815250505b508061126881611b25565b91505061119d565b5092959294509192505050565b6000806000806000807f00000000000000000000000000000000000000000000000000000000000000006001600160a01b03166399fbab88886040518263ffffffff1660e01b81526004016112d491815260200190565b61018060405180830381865afa1580156112f2573d6000803e3d6000fd5b505050506040513d601f19601f820116820180604052508101906113169190611bf4565b50505050975097509750509650965050507f00000000000000000000000000000000000000000000000000000000000000006001600160a01b0316856001600160a01b031614801561139957507f00000000000000000000000000000000000000000000000000000000000000006001600160a01b0316846001600160a01b0316145b6113d55760405162461bcd60e51b815260206004820152600d60248201526c3638103830b4b91032b93937b960991b6044820152606401610517565b600283900b620d89e7191480156113fd57506113f4620d89e719611cd5565b60020b8260020b145b61143c5760405162461bcd60e51b815260206004820152601060248201526f3a34b1b5903930b733b29032b93937b960811b6044820152606401610517565b60405163020604bf60e21b81526004810188905230906001600160a01b037f0000000000000000000000000000000000000000000000000000000000000000169063081812fc90602401602060405180830381865afa1580156114a3573d6000803e3d6000fd5b505050506040513d601f19601f820116820180604052508101906114c79190611cf7565b6001600160a01b03161461150b5760405162461bcd60e51b815260206004820152600b60248201526a6e6f7420617070726f766560a81b6044820152606401610517565b604051632142170760e11b8152336004820152306024820152604481018890527f00000000000000000000000000000000000000000000000000000000000000006001600160a01b0316906342842e0e90606401600060405180830381600087803b15801561157957600080fd5b505af115801561158d573d6000803e3d6000fd5b50506001600160801b0390921698975050505050505050565b604080516001600160a01b0385811660248301528481166044830152606480830185905283518084039091018152608490920183526020820180516001600160e01b03166323b872dd60e01b179052915160009283929088169161160a9190611d14565b6000604051808303816000865af19150503d8060008114611647576040519150601f19603f3d011682016040523d82523d6000602084013e61164c565b606091505b50915091508180156116765750805115806116765750808060200190518101906116769190611d43565b6116b85760405162461bcd60e51b81526020600482015260136024820152721d1c985b9cd9995c919c9bdb4819985a5b1959606a1b6044820152606401610517565b505050505050565b604080516001600160a01b038481166024830152604480830185905283518084039091018152606490920183526020820180516001600160e01b031663a9059cbb60e01b179052915160009283929087169161171c9190611d14565b6000604051808303816000865af19150503d8060008114611759576040519150601f19603f3d011682016040523d82523d6000602084013e61175e565b606091505b50915091508180156117885750805115806117885750808060200190518101906117889190611d43565b6117c65760405162461bcd60e51b815260206004820152600f60248201526e1514905394d1915497d19052531151608a1b6044820152606401610517565b5050505050565b6000602082840312156117df57600080fd5b5035919050565b600080604083850312156117f957600080fd5b82359150602083013560ff8116811461181157600080fd5b809150509250929050565b6001600160a01b038116811461183157600080fd5b50565b6000806040838503121561184757600080fd5b82356118528161181c565b946020939093013593505050565b60006020828403121561187257600080fd5b81356111188161181c565b634e487b7160e01b600052604160045260246000fd5b600082601f8301126118a457600080fd5b8135602067ffffffffffffffff808311156118c1576118c161187d565b8260051b604051601f19603f830116810181811084821117156118e6576118e661187d565b60405293845285810183019383810192508785111561190457600080fd5b83870191505b848210156119235781358352918301919083019061190a565b979650505050505050565b6000806040838503121561194157600080fd5b823567ffffffffffffffff8082111561195957600080fd5b61196586838701611893565b9350602085013591508082111561197b57600080fd5b5061198885828601611893565b9150509250929050565b6000602082840312156119a457600080fd5b813567ffffffffffffffff8111156119bb57600080fd5b6119c784828501611893565b949350505050565b600080604083850312156119e257600080fd5b82359150602083013567ffffffffffffffff811115611a0057600080fd5b61198885828601611893565b60008060408385031215611a1f57600080fd5b50508035926020909101359150565b604080825283519082018190526000906020906060840190828701845b82811015611a6757815184529284019290840190600101611a4b565b50505092019290925292915050565b634e487b7160e01b600052601160045260246000fd5b600082611aa957634e487b7160e01b600052601260045260246000fd5b500490565b80820180821115611ac157611ac1611a76565b92915050565b600060ff821660ff8103611add57611add611a76565b60010192915050565b634e487b7160e01b600052603260045260246000fd5b81810381811115611ac157611ac1611a76565b634e487b7160e01b600052603160045260246000fd5b600060018201611b3757611b37611a76565b5060010190565b6020808252600990820152683337b93134b23232b760b91b604082015260600190565b8082028115828204841417611ac157611ac1611a76565b60ff8281168282160390811115611ac157611ac1611a76565b600081611ba057611ba0611a76565b506000190190565b8051611bb38161181c565b919050565b805162ffffff81168114611bb357600080fd5b8051600281900b8114611bb357600080fd5b80516001600160801b0381168114611bb357600080fd5b6000806000806000806000806000806000806101808d8f031215611c1757600080fd5b8c516bffffffffffffffffffffffff81168114611c3357600080fd5b9b50611c4160208e01611ba8565b9a50611c4f60408e01611ba8565b9950611c5d60608e01611ba8565b9850611c6b60808e01611bb8565b9750611c7960a08e01611bcb565b9650611c8760c08e01611bcb565b9550611c9560e08e01611bdd565b94506101008d015193506101208d01519250611cb46101408e01611bdd565b9150611cc36101608e01611bdd565b90509295989b509295989b509295989b565b60008160020b627fffff198103611cee57611cee611a76565b60000392915050565b600060208284031215611d0957600080fd5b81516111188161181c565b6000825160005b81811015611d355760208186018101518583015201611d1b565b506000920191825250919050565b600060208284031215611d5557600080fd5b8151801515811461111857600080fdfea26469706673582212208c625bb9f14560496a9de6cc25d88e92abbca88bd943ec711aa90126d1d8029264736f6c63430008110033",
  "linkReferences": {},
  "deployedLinkReferences": {}
}