{
  "_format": "hh-sol-artifact-1",
  "contractName": "StakeNFT721",
  "sourceName": "contracts/stakeNFT721.sol",
  "abi": [
    {
      "inputs": [
        {
          "internalType": "uint8",
          "name": "maxWeeks",
          "type": "uint8"
        },
        {
          "internalType": "uint256",
          "name": "maxScale",
          "type": "uint256"
        },
        {
          "internalType": "address",
          "name": "_rewardToken",
          "type": "address"
        },
        {
          "internalType": "address",
          "name": "tokenA",
          "type": "address"
        },
        {
          "internalType": "address",
          "name": "tokenB",
          "type": "address"
        },
        {
          "internalType": "address",
          "name": "nft",
          "type": "address"
        }
      ],
      "stateMutability": "nonpayable",
      "type": "constructor"
    },
    {
      "anonymous": false,
      "inputs": [
        {
          "indexed": true,
          "internalType": "address",
          "name": "user",
          "type": "address"
        },
        {
          "indexed": false,
          "internalType": "uint256",
          "name": "tokenId",
          "type": "uint256"
        },
        {
          "indexed": false,
          "internalType": "uint256",
          "name": "amount",
          "type": "uint256"
        }
      ],
      "name": "ClaimReward",
      "type": "event"
    },
    {
      "anonymous": false,
      "inputs": [
        {
          "indexed": true,
          "internalType": "address",
          "name": "user",
          "type": "address"
        },
        {
          "indexed": false,
          "internalType": "uint256",
          "name": "no",
          "type": "uint256"
        },
        {
          "indexed": false,
          "internalType": "uint256",
          "name": "amount",
          "type": "uint256"
        }
      ],
      "name": "SetReward",
      "type": "event"
    },
    {
      "anonymous": false,
      "inputs": [
        {
          "indexed": true,
          "internalType": "address",
          "name": "user",
          "type": "address"
        },
        {
          "indexed": false,
          "internalType": "uint256",
          "name": "tokenId",
          "type": "uint256"
        },
        {
          "indexed": false,
          "internalType": "uint256",
          "name": "amount",
          "type": "uint256"
        },
        {
          "indexed": false,
          "internalType": "uint8",
          "name": "k",
          "type": "uint8"
        }
      ],
      "name": "Stake",
      "type": "event"
    },
    {
      "anonymous": false,
      "inputs": [
        {
          "indexed": true,
          "internalType": "address",
          "name": "user",
          "type": "address"
        },
        {
          "indexed": false,
          "internalType": "uint256",
          "name": "tokenId",
          "type": "uint256"
        }
      ],
      "name": "Withdraw",
      "type": "event"
    },
    {
      "inputs": [],
      "name": "MAX_SCALE",
      "outputs": [
        {
          "internalType": "uint256",
          "name": "",
          "type": "uint256"
        }
      ],
      "stateMutability": "view",
      "type": "function"
    },
    {
      "inputs": [],
      "name": "MAX_WEEKS",
      "outputs": [
        {
          "internalType": "uint8",
          "name": "",
          "type": "uint8"
        }
      ],
      "stateMutability": "view",
      "type": "function"
    },
    {
      "inputs": [],
      "name": "WEEK_SECONDS",
      "outputs": [
        {
          "internalType": "uint24",
          "name": "",
          "type": "uint24"
        }
      ],
      "stateMutability": "view",
      "type": "function"
    },
    {
      "inputs": [],
      "name": "acceptSetter",
      "outputs": [],
      "stateMutability": "nonpayable",
      "type": "function"
    },
    {
      "inputs": [
        {
          "internalType": "uint256",
          "name": "",
          "type": "uint256"
        },
        {
          "internalType": "uint256",
          "name": "",
          "type": "uint256"
        }
      ],
      "name": "bClaimReward",
      "outputs": [
        {
          "internalType": "bool",
          "name": "",
          "type": "bool"
        }
      ],
      "stateMutability": "view",
      "type": "function"
    },
    {
      "inputs": [
        {
          "internalType": "uint256",
          "name": "tokenId",
          "type": "uint256"
        },
        {
          "internalType": "uint256[]",
          "name": "nos",
          "type": "uint256[]"
        }
      ],
      "name": "claimReward",
      "outputs": [],
      "stateMutability": "nonpayable",
      "type": "function"
    },
    {
      "inputs": [],
      "name": "claimReward",
      "outputs": [],
      "stateMutability": "nonpayable",
      "type": "function"
    },
    {
      "inputs": [
        {
          "internalType": "uint256",
          "name": "amount",
          "type": "uint256"
        },
        {
          "internalType": "uint8",
          "name": "k",
          "type": "uint8"
        }
      ],
      "name": "getScore",
      "outputs": [
        {
          "internalType": "uint256",
          "name": "score",
          "type": "uint256"
        }
      ],
      "stateMutability": "view",
      "type": "function"
    },
    {
      "inputs": [],
      "name": "getUserNFTs",
      "outputs": [
        {
          "internalType": "uint256[]",
          "name": "",
          "type": "uint256[]"
        },
        {
          "internalType": "uint256",
          "name": "",
          "type": "uint256"
        }
      ],
      "stateMutability": "view",
      "type": "function"
    },
    {
      "inputs": [],
      "name": "latestNo",
      "outputs": [
        {
          "internalType": "uint256",
          "name": "",
          "type": "uint256"
        }
      ],
      "stateMutability": "view",
      "type": "function"
    },
    {
      "inputs": [],
      "name": "nftToken",
      "outputs": [
        {
          "internalType": "contract IIotabeeSwapNFT",
          "name": "",
          "type": "address"
        }
      ],
      "stateMutability": "view",
      "type": "function"
    },
    {
      "inputs": [],
      "name": "owner",
      "outputs": [
        {
          "internalType": "address",
          "name": "",
          "type": "address"
        }
      ],
      "stateMutability": "view",
      "type": "function"
    },
    {
      "inputs": [],
      "name": "rewardToken",
      "outputs": [
        {
          "internalType": "address",
          "name": "",
          "type": "address"
        }
      ],
      "stateMutability": "view",
      "type": "function"
    },
    {
      "inputs": [
        {
          "internalType": "uint256",
          "name": "",
          "type": "uint256"
        }
      ],
      "name": "rewardsOf",
      "outputs": [
        {
          "internalType": "uint256",
          "name": "",
          "type": "uint256"
        }
      ],
      "stateMutability": "view",
      "type": "function"
    },
    {
      "inputs": [
        {
          "internalType": "uint256[]",
          "name": "nos",
          "type": "uint256[]"
        },
        {
          "internalType": "uint256[]",
          "name": "amounts",
          "type": "uint256[]"
        }
      ],
      "name": "setReward",
      "outputs": [
        {
          "internalType": "uint256",
          "name": "total",
          "type": "uint256"
        }
      ],
      "stateMutability": "nonpayable",
      "type": "function"
    },
    {
      "inputs": [
        {
          "internalType": "uint256",
          "name": "no",
          "type": "uint256"
        },
        {
          "internalType": "uint256",
          "name": "amount",
          "type": "uint256"
        }
      ],
      "name": "setReward",
      "outputs": [],
      "stateMutability": "nonpayable",
      "type": "function"
    },
    {
      "inputs": [
        {
          "internalType": "uint256",
          "name": "tokenId",
          "type": "uint256"
        },
        {
          "internalType": "uint8",
          "name": "k",
          "type": "uint8"
        }
      ],
      "name": "stake",
      "outputs": [],
      "stateMutability": "nonpayable",
      "type": "function"
    },
    {
      "inputs": [
        {
          "internalType": "uint256",
          "name": "",
          "type": "uint256"
        }
      ],
      "name": "stakingNFTs",
      "outputs": [
        {
          "internalType": "address",
          "name": "owner",
          "type": "address"
        },
        {
          "internalType": "uint256",
          "name": "score",
          "type": "uint256"
        },
        {
          "internalType": "uint256",
          "name": "beginNo",
          "type": "uint256"
        },
        {
          "internalType": "uint256",
          "name": "endNo",
          "type": "uint256"
        },
        {
          "internalType": "uint256",
          "name": "toClaimNo",
          "type": "uint256"
        }
      ],
      "stateMutability": "view",
      "type": "function"
    },
    {
      "inputs": [],
      "name": "token0",
      "outputs": [
        {
          "internalType": "address",
          "name": "",
          "type": "address"
        }
      ],
      "stateMutability": "view",
      "type": "function"
    },
    {
      "inputs": [],
      "name": "token1",
      "outputs": [
        {
          "internalType": "address",
          "name": "",
          "type": "address"
        }
      ],
      "stateMutability": "view",
      "type": "function"
    },
    {
      "inputs": [
        {
          "internalType": "address",
          "name": "_owner",
          "type": "address"
        }
      ],
      "name": "transferOwner",
      "outputs": [],
      "stateMutability": "nonpayable",
      "type": "function"
    },
    {
      "inputs": [
        {
          "internalType": "address",
          "name": "",
          "type": "address"
        },
        {
          "internalType": "uint256",
          "name": "",
          "type": "uint256"
        }
      ],
      "name": "userNFTs",
      "outputs": [
        {
          "internalType": "uint256",
          "name": "",
          "type": "uint256"
        }
      ],
      "stateMutability": "view",
      "type": "function"
    },
    {
      "inputs": [
        {
          "internalType": "uint256",
          "name": "tokenId",
          "type": "uint256"
        }
      ],
      "name": "withdraw",
      "outputs": [],
      "stateMutability": "nonpayable",
      "type": "function"
    },
    {
      "inputs": [
        {
          "internalType": "uint256[]",
          "name": "tokenIds",
          "type": "uint256[]"
        }
      ],
      "name": "withdraw",
      "outputs": [],
      "stateMutability": "nonpayable",
      "type": "function"
    }
  ],
  "bytecode": "0x6101406040523480156200001257600080fd5b5060405162001ed238038062001ed28339810160408190526200003591620000bb565b6001600160a01b0380851660805260ff871660a05260c0869052600080546001600160a01b03191633179055828116908416106200007557818362000078565b82825b6001600160a01b0390811661012052908116610100521660e052506200013b9350505050565b80516001600160a01b0381168114620000b657600080fd5b919050565b60008060008060008060c08789031215620000d557600080fd5b865160ff81168114620000e757600080fd5b60208801519096509450620000ff604088016200009e565b93506200010f606088016200009e565b92506200011f608088016200009e565b91506200012f60a088016200009e565b90509295509295509295565b60805160a05160c05160e0516101005161012051611ce5620001ed6000396000818161039501526112af015260008181610195015261127301526000818161036e01528181610828015281816111d2015281816113a60152611477015260008181610408015261100c0152600081816103bc0152818161047701528181610fa80152610fd301526000818161042f0152818161099701528181610ca201528181610d380152610f400152611ce56000f3fe608060405234801561001057600080fd5b50600436106101585760003560e01c80639b6e0d74116100c3578063d21220a71161007c578063d21220a714610390578063e11400bb146103b7578063ee3453ed146103f0578063f6def7cf14610403578063f7c618c11461042a578063fdc5ab8e1461045157600080fd5b80639b6e0d74146102e0578063a47bd496146102f3578063b88a802f14610306578063cd671a581461030e578063ce6d3e3e1461032b578063d06fcba81461036957600080fd5b80632e1a7d4d116101155780632e1a7d4d146102795780634d10c55a1461028c5780634fb2e45d1461029f5780635f8e422f146102b25780638da5cb5b146102ba578063983d95ce146102cd57600080fd5b80630bce12841461015d5780630dfe16811461019057806310087fb1146101cf57806310c6c1c2146101e4578063291c73c31461025d57806329ed1cfd14610270575b600080fd5b61017d61016b366004611717565b60046020526000908152604090205481565b6040519081526020015b60405180910390f35b6101b77f000000000000000000000000000000000000000000000000000000000000000081565b6040516001600160a01b039091168152602001610187565b6101e26101dd366004611730565b610467565b005b61022b6101f2366004611717565b600660205260009081526040902080546001820154600283015460038401546004909401546001600160a01b0390931693919290919085565b604080516001600160a01b0390961686526020860194909452928401919091526060830152608082015260a001610187565b61017d61026b36600461177e565b610665565b61017d60055481565b6101e2610287366004611717565b610696565b61017d61029a36600461185b565b6108d6565b6101e26102ad3660046118bf565b610a00565b6101e2610a4c565b6000546101b7906001600160a01b031681565b6101e26102db3660046118dc565b610a9d565b6101e26102ee366004611919565b610ae1565b6101e2610301366004611956565b610d09565b6101e2610dc2565b61031761025881565b60405162ffffff9091168152602001610187565b610359610339366004611956565b600260209081526000928352604080842090915290825290205460ff1681565b6040519015158152602001610187565b6101b77f000000000000000000000000000000000000000000000000000000000000000081565b6101b77f000000000000000000000000000000000000000000000000000000000000000081565b6103de7f000000000000000000000000000000000000000000000000000000000000000081565b60405160ff9091168152602001610187565b61017d6103fe366004611730565b610f9f565b61017d7f000000000000000000000000000000000000000000000000000000000000000081565b6101b77f000000000000000000000000000000000000000000000000000000000000000081565b610459611069565b604051610187929190611978565b60008160ff161180156104a057507f000000000000000000000000000000000000000000000000000000000000000060ff168160ff1611155b6104e55760405162461bcd60e51b815260206004820152601160248201527039ba30b5b2903bb2b2b5b99032b93937b960791b60448201526064015b60405180910390fd5b60006104f0836111c7565b90506000610500610258426119d6565b61050b9060016119f8565b905060006105198385610f9f565b905060005b8460ff168160ff16101561057357816003600061053e60ff8516876119f8565b8152602001908152602001600020600082825461055b91906119f8565b9091555081905061056b81611a11565b91505061051e565b506040805160a081018252338152602081018390529081018390526060810161059f60ff8716856119f8565b815260209081018490526000878152600682526040808220845181546001600160a01b0319166001600160a01b0390911617815584840151600180830191909155858301516002830155606080870151600384015560809096015160049092019190915533808452600785528284208054928301815584529284902001899055805189815292830187905260ff881690830152917f6fa2f6021ee337436cdf2b2570285886da18bc06402ce284d296504a0fe8f875910160405180910390a25050505050565b6007602052816000526040600020818154811061068157600080fd5b90600052602060002001600091509150505481565b6000818152600660205260409020546001600160a01b031633146106ee5760405162461bcd60e51b815260206004820152600f60248201526e37bbb732b9103337b93134b23232b760891b60448201526064016104dc565b60006106fc610258426119d6565b60008381526006602052604090206003015490915081101561074e5760405162461bcd60e51b815260206004820152600b60248201526a6c6f636b65642074696d6560a81b60448201526064016104dc565b336000908152600760205260408120905b815481101561089b5781818154811061077a5761077a611a30565b90600052602060002001548403610889578154829061079b90600190611a46565b815481106107ab576107ab611a30565b90600052602060002001548282815481106107c8576107c8611a30565b9060005260206000200181905550818054806107e6576107e6611a59565b600082815260208120820160001990810191909155019055604051632142170760e11b8152306004820152336024820152604481018590526001600160a01b037f000000000000000000000000000000000000000000000000000000000000000016906342842e0e90606401600060405180830381600087803b15801561086c57600080fd5b505af1158015610880573d6000803e3d6000fd5b5050505061089b565b8061089381611a6f565b91505061075f565b5060405183815233907f884edad9ce6fa2440d8a54cc123490eb96d2768479d49ff9c7366125a94243649060200160405180910390a2505050565b600080546001600160a01b031633146109015760405162461bcd60e51b81526004016104dc90611a88565b60005b83518110156109915782818151811061091f5761091f611a30565b60200260200101518261093291906119f8565b915082818151811061094657610946611a30565b60200260200101516004600086848151811061096457610964611a30565b6020026020010151815260200190815260200160002081905550808061098990611a6f565b915050610904565b506109be7f00000000000000000000000000000000000000000000000000000000000000003330846114f0565b60408051600081526020810183905233917fc3991418cacd70a010fce559a44fcbb47534ca43bf7543964bdca2639f6e6e5a910160405180910390a292915050565b6000546001600160a01b03163314610a2a5760405162461bcd60e51b81526004016104dc90611a88565b600180546001600160a01b0319166001600160a01b0392909216919091179055565b6001546001600160a01b03163314610a765760405162461bcd60e51b81526004016104dc90611a88565b60018054600080546001600160a01b03199081166001600160a01b03841617909155169055565b60005b8151811015610add57610acb828281518110610abe57610abe611a30565b6020026020010151610696565b80610ad581611a6f565b915050610aa0565b5050565b6000828152600660205260409020546001600160a01b03163314610b395760405162461bcd60e51b815260206004820152600f60248201526e37bbb732b9103337b93134b23232b760891b60448201526064016104dc565b6000610b47610258426119d6565b90506000805b8351811015610c9c576000848281518110610b6a57610b6a611a30565b6020908102919091018101516000888152600283526040808220838352909352919091205490915060ff1615610ba05750610c8a565b600086815260026020908152604080832084845290915290205460ff1680610bd957506000868152600660205260409020600301548110155b80610bf4575060008681526006602052604090206002015481105b80610bfe57508381115b80610c155750600081815260046020526040902054155b15610c205750610c8a565b60008681526002602090815260408083208484528252808320805460ff1916600190811790915560038352818420548a855260068452828520909101548585526004909352922054610c729190611aab565b610c7c91906119d6565b610c8690846119f8565b9250505b80610c9481611a6f565b915050610b4d565b50610cc87f0000000000000000000000000000000000000000000000000000000000000000338361160a565b604080518581526020810183905233917fe74e5c9d4ac1fc33412485f18c159a0a391efe287ab3fd271123f30e6bacf4e3910160405180910390a250505050565b6000546001600160a01b03163314610d335760405162461bcd60e51b81526004016104dc90611a88565b610d5f7f00000000000000000000000000000000000000000000000000000000000000003330846114f0565b60008281526004602052604081208054839290610d7d9084906119f8565b9091555050604080518381526020810183905233917fc3991418cacd70a010fce559a44fcbb47534ca43bf7543964bdca2639f6e6e5a91015b60405180910390a25050565b6000610dd0610258426119d6565b90506000805b33600090815260076020526040902054811015610f3a57336000908152600760205260408120805483908110610e0e57610e0e611a30565b600091825260208083209091015480835260069091526040909120600401549091505b600082815260066020526040902060030154811015610f2557600082815260026020908152604080832084845290915290205460ff1680610e7157508481115b80610e885750600081815260046020526040902054155b610f135760008281526002602090815260408083208484529091529020805460ff19166001908117909155610ebe9082906119f8565b6000838152600660209081526040808320600480820195909555858452600383528184205460019091015494909252909120549091610efc91611aab565b610f0691906119d6565b610f1090856119f8565b93505b80610f1d81611a6f565b915050610e31565b50508080610f3290611a6f565b915050610dd6565b50610f667f0000000000000000000000000000000000000000000000000000000000000000338361160a565b60408051600081526020810183905233917fe74e5c9d4ac1fc33412485f18c159a0a391efe287ab3fd271123f30e6bacf4e39101610db6565b6000610fcc60017f0000000000000000000000000000000000000000000000000000000000000000611ac2565b60ff1660017f000000000000000000000000000000000000000000000000000000000000000060ff166001856110029190611ac2565b60ff1661103060017f0000000000000000000000000000000000000000000000000000000000000000611a46565b61103a9190611aab565b61104491906119f8565b61104e9190611a46565b6110589085611aab565b61106291906119d6565b9392505050565b3360009081526007602052604081205460609190819067ffffffffffffffff811115611097576110976117aa565b6040519080825280602002602001820160405280156110c0578160200160208202803683370190505b50905060006110d1610258426119d6565b3360009081526007602052604081205491925090815b336000908152600760205260409020548110156111ba5733600090815260076020526040812080548390811061111f5761111f611a30565b90600052602060002001549050846006600083815260200190815260200160002060030154111561117a578086858151811061115d5761115d611a30565b60209081029190910101528361117281611a6f565b9450506111a7565b8261118481611adb565b9350508086848151811061119a5761119a611a30565b6020026020010181815250505b50806111b281611a6f565b9150506110e7565b5092959294509192505050565b6000806000806000807f00000000000000000000000000000000000000000000000000000000000000006001600160a01b03166399fbab88886040518263ffffffff1660e01b815260040161121e91815260200190565b61018060405180830381865afa15801561123c573d6000803e3d6000fd5b505050506040513d601f19601f820116820180604052508101906112609190611b3e565b50505050975097509750509650965050507f00000000000000000000000000000000000000000000000000000000000000006001600160a01b0316856001600160a01b03161480156112e357507f00000000000000000000000000000000000000000000000000000000000000006001600160a01b0316846001600160a01b0316145b61131f5760405162461bcd60e51b815260206004820152600d60248201526c3638103830b4b91032b93937b960991b60448201526064016104dc565b600283900b620d89e719148015611347575061133e620d89e719611c1f565b60020b8260020b145b6113865760405162461bcd60e51b815260206004820152601060248201526f3a34b1b5903930b733b29032b93937b960811b60448201526064016104dc565b60405163020604bf60e21b81526004810188905230906001600160a01b037f0000000000000000000000000000000000000000000000000000000000000000169063081812fc90602401602060405180830381865afa1580156113ed573d6000803e3d6000fd5b505050506040513d601f19601f820116820180604052508101906114119190611c41565b6001600160a01b0316146114555760405162461bcd60e51b815260206004820152600b60248201526a6e6f7420617070726f766560a81b60448201526064016104dc565b604051632142170760e11b8152336004820152306024820152604481018890527f00000000000000000000000000000000000000000000000000000000000000006001600160a01b0316906342842e0e90606401600060405180830381600087803b1580156114c357600080fd5b505af11580156114d7573d6000803e3d6000fd5b50506001600160801b0390921698975050505050505050565b604080516001600160a01b0385811660248301528481166044830152606480830185905283518084039091018152608490920183526020820180516001600160e01b03166323b872dd60e01b17905291516000928392908816916115549190611c5e565b6000604051808303816000865af19150503d8060008114611591576040519150601f19603f3d011682016040523d82523d6000602084013e611596565b606091505b50915091508180156115c05750805115806115c05750808060200190518101906115c09190611c8d565b6116025760405162461bcd60e51b81526020600482015260136024820152721d1c985b9cd9995c919c9bdb4819985a5b1959606a1b60448201526064016104dc565b505050505050565b604080516001600160a01b038481166024830152604480830185905283518084039091018152606490920183526020820180516001600160e01b031663a9059cbb60e01b17905291516000928392908716916116669190611c5e565b6000604051808303816000865af19150503d80600081146116a3576040519150601f19603f3d011682016040523d82523d6000602084013e6116a8565b606091505b50915091508180156116d25750805115806116d25750808060200190518101906116d29190611c8d565b6117105760405162461bcd60e51b815260206004820152600f60248201526e1514905394d1915497d19052531151608a1b60448201526064016104dc565b5050505050565b60006020828403121561172957600080fd5b5035919050565b6000806040838503121561174357600080fd5b82359150602083013560ff8116811461175b57600080fd5b809150509250929050565b6001600160a01b038116811461177b57600080fd5b50565b6000806040838503121561179157600080fd5b823561179c81611766565b946020939093013593505050565b634e487b7160e01b600052604160045260246000fd5b600082601f8301126117d157600080fd5b8135602067ffffffffffffffff808311156117ee576117ee6117aa565b8260051b604051601f19603f83011681018181108482111715611813576118136117aa565b60405293845285810183019383810192508785111561183157600080fd5b83870191505b8482101561185057813583529183019190830190611837565b979650505050505050565b6000806040838503121561186e57600080fd5b823567ffffffffffffffff8082111561188657600080fd5b611892868387016117c0565b935060208501359150808211156118a857600080fd5b506118b5858286016117c0565b9150509250929050565b6000602082840312156118d157600080fd5b813561106281611766565b6000602082840312156118ee57600080fd5b813567ffffffffffffffff81111561190557600080fd5b611911848285016117c0565b949350505050565b6000806040838503121561192c57600080fd5b82359150602083013567ffffffffffffffff81111561194a57600080fd5b6118b5858286016117c0565b6000806040838503121561196957600080fd5b50508035926020909101359150565b604080825283519082018190526000906020906060840190828701845b828110156119b157815184529284019290840190600101611995565b50505092019290925292915050565b634e487b7160e01b600052601160045260246000fd5b6000826119f357634e487b7160e01b600052601260045260246000fd5b500490565b80820180821115611a0b57611a0b6119c0565b92915050565b600060ff821660ff8103611a2757611a276119c0565b60010192915050565b634e487b7160e01b600052603260045260246000fd5b81810381811115611a0b57611a0b6119c0565b634e487b7160e01b600052603160045260246000fd5b600060018201611a8157611a816119c0565b5060010190565b6020808252600990820152683337b93134b23232b760b91b604082015260600190565b8082028115828204841417611a0b57611a0b6119c0565b60ff8281168282160390811115611a0b57611a0b6119c0565b600081611aea57611aea6119c0565b506000190190565b8051611afd81611766565b919050565b805162ffffff81168114611afd57600080fd5b8051600281900b8114611afd57600080fd5b80516001600160801b0381168114611afd57600080fd5b6000806000806000806000806000806000806101808d8f031215611b6157600080fd5b8c516bffffffffffffffffffffffff81168114611b7d57600080fd5b9b50611b8b60208e01611af2565b9a50611b9960408e01611af2565b9950611ba760608e01611af2565b9850611bb560808e01611b02565b9750611bc360a08e01611b15565b9650611bd160c08e01611b15565b9550611bdf60e08e01611b27565b94506101008d015193506101208d01519250611bfe6101408e01611b27565b9150611c0d6101608e01611b27565b90509295989b509295989b509295989b565b60008160020b627fffff198103611c3857611c386119c0565b60000392915050565b600060208284031215611c5357600080fd5b815161106281611766565b6000825160005b81811015611c7f5760208186018101518583015201611c65565b506000920191825250919050565b600060208284031215611c9f57600080fd5b8151801515811461106257600080fdfea26469706673582212208d21db7373eb877ceba2debd028e3fe7ba26726bf3b36a0e9214ca704a3e4a6064736f6c63430008110033",
  "linkReferences": {},
  "deployedLinkReferences": {}
}