{
  "_format": "hh-sol-artifact-1",
  "contractName": "StakeNFT721",
  "sourceName": "contracts/stakeNFT721.sol",
  "abi": [
    {
      "inputs": [
        {
          "internalType": "uint8",
          "name": "maxWeeks",
          "type": "uint8"
        },
        {
          "internalType": "uint256",
          "name": "maxScale",
          "type": "uint256"
        },
        {
          "internalType": "uint8",
          "name": "lockWeeks",
          "type": "uint8"
        },
        {
          "internalType": "uint256",
          "name": "beginTime",
          "type": "uint256"
        },
        {
          "internalType": "uint256",
          "name": "endTime",
          "type": "uint256"
        },
        {
          "internalType": "address",
          "name": "_rewardToken",
          "type": "address"
        },
        {
          "internalType": "address",
          "name": "tokenA",
          "type": "address"
        },
        {
          "internalType": "address",
          "name": "tokenB",
          "type": "address"
        },
        {
          "internalType": "address",
          "name": "nft",
          "type": "address"
        }
      ],
      "stateMutability": "nonpayable",
      "type": "constructor"
    },
    {
      "anonymous": false,
      "inputs": [
        {
          "indexed": true,
          "internalType": "address",
          "name": "user",
          "type": "address"
        },
        {
          "indexed": false,
          "internalType": "uint256",
          "name": "tokenId",
          "type": "uint256"
        },
        {
          "indexed": false,
          "internalType": "uint256",
          "name": "amount",
          "type": "uint256"
        }
      ],
      "name": "ClaimReward",
      "type": "event"
    },
    {
      "anonymous": false,
      "inputs": [
        {
          "indexed": true,
          "internalType": "address",
          "name": "user",
          "type": "address"
        },
        {
          "indexed": false,
          "internalType": "uint256",
          "name": "amount",
          "type": "uint256"
        }
      ],
      "name": "ClaimReward",
      "type": "event"
    },
    {
      "anonymous": false,
      "inputs": [
        {
          "indexed": true,
          "internalType": "address",
          "name": "user",
          "type": "address"
        },
        {
          "indexed": false,
          "internalType": "uint256",
          "name": "no",
          "type": "uint256"
        },
        {
          "indexed": false,
          "internalType": "uint256",
          "name": "amount",
          "type": "uint256"
        }
      ],
      "name": "SetReward",
      "type": "event"
    },
    {
      "anonymous": false,
      "inputs": [
        {
          "indexed": true,
          "internalType": "address",
          "name": "user",
          "type": "address"
        },
        {
          "indexed": false,
          "internalType": "uint256",
          "name": "tokenId",
          "type": "uint256"
        },
        {
          "indexed": false,
          "internalType": "uint256",
          "name": "amount",
          "type": "uint256"
        },
        {
          "indexed": false,
          "internalType": "uint8",
          "name": "k",
          "type": "uint8"
        }
      ],
      "name": "Stake",
      "type": "event"
    },
    {
      "anonymous": false,
      "inputs": [
        {
          "indexed": true,
          "internalType": "address",
          "name": "user",
          "type": "address"
        },
        {
          "indexed": false,
          "internalType": "uint256",
          "name": "tokenId",
          "type": "uint256"
        }
      ],
      "name": "Withdraw",
      "type": "event"
    },
    {
      "inputs": [],
      "name": "BEGIN_TIME",
      "outputs": [
        {
          "internalType": "uint256",
          "name": "",
          "type": "uint256"
        }
      ],
      "stateMutability": "view",
      "type": "function"
    },
    {
      "inputs": [],
      "name": "END_TIME",
      "outputs": [
        {
          "internalType": "uint256",
          "name": "",
          "type": "uint256"
        }
      ],
      "stateMutability": "view",
      "type": "function"
    },
    {
      "inputs": [],
      "name": "LOCK_WEEKNUM",
      "outputs": [
        {
          "internalType": "uint8",
          "name": "",
          "type": "uint8"
        }
      ],
      "stateMutability": "view",
      "type": "function"
    },
    {
      "inputs": [],
      "name": "MAX_SCALE",
      "outputs": [
        {
          "internalType": "uint256",
          "name": "",
          "type": "uint256"
        }
      ],
      "stateMutability": "view",
      "type": "function"
    },
    {
      "inputs": [],
      "name": "MAX_WEEKS",
      "outputs": [
        {
          "internalType": "uint8",
          "name": "",
          "type": "uint8"
        }
      ],
      "stateMutability": "view",
      "type": "function"
    },
    {
      "inputs": [],
      "name": "WEEK_SECONDS",
      "outputs": [
        {
          "internalType": "uint24",
          "name": "",
          "type": "uint24"
        }
      ],
      "stateMutability": "view",
      "type": "function"
    },
    {
      "inputs": [],
      "name": "acceptSetter",
      "outputs": [],
      "stateMutability": "nonpayable",
      "type": "function"
    },
    {
      "inputs": [],
      "name": "canClaimAmount",
      "outputs": [
        {
          "internalType": "uint256",
          "name": "",
          "type": "uint256"
        }
      ],
      "stateMutability": "view",
      "type": "function"
    },
    {
      "inputs": [],
      "name": "claimReward",
      "outputs": [],
      "stateMutability": "nonpayable",
      "type": "function"
    },
    {
      "inputs": [
        {
          "internalType": "uint256",
          "name": "amount",
          "type": "uint256"
        },
        {
          "internalType": "uint8",
          "name": "k",
          "type": "uint8"
        }
      ],
      "name": "getScore",
      "outputs": [
        {
          "internalType": "uint256",
          "name": "score",
          "type": "uint256"
        }
      ],
      "stateMutability": "view",
      "type": "function"
    },
    {
      "inputs": [],
      "name": "getUserNFTs",
      "outputs": [
        {
          "internalType": "uint256[]",
          "name": "",
          "type": "uint256[]"
        },
        {
          "internalType": "uint256",
          "name": "",
          "type": "uint256"
        }
      ],
      "stateMutability": "view",
      "type": "function"
    },
    {
      "inputs": [],
      "name": "latestNo",
      "outputs": [
        {
          "internalType": "uint256",
          "name": "",
          "type": "uint256"
        }
      ],
      "stateMutability": "view",
      "type": "function"
    },
    {
      "inputs": [],
      "name": "lockedRewardAmount",
      "outputs": [
        {
          "internalType": "uint256",
          "name": "",
          "type": "uint256"
        },
        {
          "internalType": "uint256[]",
          "name": "",
          "type": "uint256[]"
        }
      ],
      "stateMutability": "view",
      "type": "function"
    },
    {
      "inputs": [],
      "name": "nftToken",
      "outputs": [
        {
          "internalType": "contract IIotabeeSwapNFT",
          "name": "",
          "type": "address"
        }
      ],
      "stateMutability": "view",
      "type": "function"
    },
    {
      "inputs": [],
      "name": "owner",
      "outputs": [
        {
          "internalType": "address",
          "name": "",
          "type": "address"
        }
      ],
      "stateMutability": "view",
      "type": "function"
    },
    {
      "inputs": [],
      "name": "rewardToken",
      "outputs": [
        {
          "internalType": "address",
          "name": "",
          "type": "address"
        }
      ],
      "stateMutability": "view",
      "type": "function"
    },
    {
      "inputs": [
        {
          "internalType": "uint256",
          "name": "",
          "type": "uint256"
        }
      ],
      "name": "rewardsOf",
      "outputs": [
        {
          "internalType": "uint256",
          "name": "",
          "type": "uint256"
        }
      ],
      "stateMutability": "view",
      "type": "function"
    },
    {
      "inputs": [
        {
          "internalType": "uint256",
          "name": "no",
          "type": "uint256"
        },
        {
          "internalType": "uint256",
          "name": "amount",
          "type": "uint256"
        }
      ],
      "name": "setReward",
      "outputs": [],
      "stateMutability": "nonpayable",
      "type": "function"
    },
    {
      "inputs": [
        {
          "internalType": "uint256[]",
          "name": "nos",
          "type": "uint256[]"
        },
        {
          "internalType": "uint256[]",
          "name": "amounts",
          "type": "uint256[]"
        }
      ],
      "name": "setRewards",
      "outputs": [
        {
          "internalType": "uint256",
          "name": "total",
          "type": "uint256"
        }
      ],
      "stateMutability": "nonpayable",
      "type": "function"
    },
    {
      "inputs": [
        {
          "internalType": "uint256",
          "name": "tokenId",
          "type": "uint256"
        },
        {
          "internalType": "uint8",
          "name": "k",
          "type": "uint8"
        }
      ],
      "name": "stake",
      "outputs": [],
      "stateMutability": "nonpayable",
      "type": "function"
    },
    {
      "inputs": [
        {
          "internalType": "uint256",
          "name": "",
          "type": "uint256"
        }
      ],
      "name": "stakingNFTs",
      "outputs": [
        {
          "internalType": "address",
          "name": "owner",
          "type": "address"
        },
        {
          "internalType": "uint256",
          "name": "score",
          "type": "uint256"
        },
        {
          "internalType": "uint256",
          "name": "beginNo",
          "type": "uint256"
        },
        {
          "internalType": "uint256",
          "name": "endNo",
          "type": "uint256"
        }
      ],
      "stateMutability": "view",
      "type": "function"
    },
    {
      "inputs": [],
      "name": "token0",
      "outputs": [
        {
          "internalType": "address",
          "name": "",
          "type": "address"
        }
      ],
      "stateMutability": "view",
      "type": "function"
    },
    {
      "inputs": [],
      "name": "token1",
      "outputs": [
        {
          "internalType": "address",
          "name": "",
          "type": "address"
        }
      ],
      "stateMutability": "view",
      "type": "function"
    },
    {
      "inputs": [
        {
          "internalType": "uint256",
          "name": "",
          "type": "uint256"
        }
      ],
      "name": "totalScores",
      "outputs": [
        {
          "internalType": "uint256",
          "name": "",
          "type": "uint256"
        }
      ],
      "stateMutability": "view",
      "type": "function"
    },
    {
      "inputs": [
        {
          "internalType": "address",
          "name": "_owner",
          "type": "address"
        }
      ],
      "name": "transferOwner",
      "outputs": [],
      "stateMutability": "nonpayable",
      "type": "function"
    },
    {
      "inputs": [
        {
          "internalType": "address",
          "name": "",
          "type": "address"
        },
        {
          "internalType": "uint256",
          "name": "",
          "type": "uint256"
        }
      ],
      "name": "userCanClaimWeeks",
      "outputs": [
        {
          "internalType": "uint256",
          "name": "",
          "type": "uint256"
        }
      ],
      "stateMutability": "view",
      "type": "function"
    },
    {
      "inputs": [
        {
          "internalType": "address",
          "name": "",
          "type": "address"
        },
        {
          "internalType": "uint256",
          "name": "",
          "type": "uint256"
        }
      ],
      "name": "userNFTs",
      "outputs": [
        {
          "internalType": "uint256",
          "name": "",
          "type": "uint256"
        }
      ],
      "stateMutability": "view",
      "type": "function"
    },
    {
      "inputs": [
        {
          "internalType": "address",
          "name": "",
          "type": "address"
        },
        {
          "internalType": "uint256",
          "name": "",
          "type": "uint256"
        }
      ],
      "name": "userScores",
      "outputs": [
        {
          "internalType": "uint256",
          "name": "",
          "type": "uint256"
        }
      ],
      "stateMutability": "view",
      "type": "function"
    },
    {
      "inputs": [
        {
          "internalType": "uint256",
          "name": "tokenId",
          "type": "uint256"
        }
      ],
      "name": "withdraw",
      "outputs": [],
      "stateMutability": "nonpayable",
      "type": "function"
    },
    {
      "inputs": [
        {
          "internalType": "uint256[]",
          "name": "tokenIds",
          "type": "uint256[]"
        }
      ],
      "name": "withdraw",
      "outputs": [],
      "stateMutability": "nonpayable",
      "type": "function"
    },
    {
      "inputs": [
        {
          "internalType": "uint256",
          "name": "amount",
          "type": "uint256"
        }
      ],
      "name": "withdrawRewards",
      "outputs": [],
      "stateMutability": "nonpayable",
      "type": "function"
    }
  ],
  "bytecode": "0x6101a06040523480156200001257600080fd5b506040516200225a3803806200225a8339810160408190526200003591620000e3565b6001600160a01b0380851660805260ff808b1660a05260c08a9052881660e052610100879052610120869052600080546001600160a01b0319163317905582811690841610620000875781836200008a565b82825b6001600160a01b039081166101805290811661016052166101405250620001839650505050505050565b805160ff81168114620000c657600080fd5b919050565b80516001600160a01b0381168114620000c657600080fd5b60008060008060008060008060006101208a8c0312156200010357600080fd5b6200010e8a620000b4565b985060208a015197506200012560408b01620000b4565b965060608a0151955060808a015194506200014360a08b01620000cb565b93506200015360c08b01620000cb565b92506200016360e08b01620000cb565b9150620001746101008b01620000cb565b90509295985092959850929598565b60805160a05160c05160e0516101005161012051610140516101605161018051611fef6200026b600039600081816104d701526115cb01526000818161025b015261158f0152600081816104b0015281816109fd015281816114ee015281816116c20152611793015260006103670152600061046c01526000818161022201528181610b4f01528181610c3f015261113c01526000818161053801526113280152600081816104fe015281816105a7015281816112c401526112ef01526000818161055f01528181610e4f01528181610fc00152818161109c015261123e0152611fef6000f3fe608060405234801561001057600080fd5b50600436106101e55760003560e01c80638da5cb5b1161010f578063cd671a58116100a2578063ee3453ed11610071578063ee3453ed14610520578063f6def7cf14610533578063f7c618c11461055a578063fdc5ab8e1461058157600080fd5b8063cd671a581461048e578063d06fcba8146104ab578063d21220a7146104d2578063e11400bb146104f957600080fd5b8063a47bd496116100de578063a47bd49614610439578063b88a802f1461044c578063bb57852d14610454578063c75363b61461046757600080fd5b80638da5cb5b146103ed5780639342c8f414610400578063979db1c414610413578063983d95ce1461042657600080fd5b806329ed1cfd116101875780635b680a45116101565780635b680a451461039c5780635f8e422f146103c75780638431165e146103cf5780638923de2b146103d757600080fd5b806329ed1cfd146103465780632e1a7d4d1461034f57806337ba682d146103625780634fb2e45d1461038957600080fd5b806310087fb1116101c357806310087fb11461029557806310c6c1c2146102aa578063157775df14610313578063291c73c31461033357600080fd5b80630bce1284146101ea5780630d437d401461021d5780630dfe168114610256575b600080fd5b61020a6101f8366004611a33565b60056020526000908152604090205481565b6040519081526020015b60405180910390f35b6102447f000000000000000000000000000000000000000000000000000000000000000081565b60405160ff9091168152602001610214565b61027d7f000000000000000000000000000000000000000000000000000000000000000081565b6040516001600160a01b039091168152602001610214565b6102a86102a3366004611a4c565b610597565b005b6102e96102b8366004611a33565b60076020526000908152604090208054600182015460028301546003909301546001600160a01b0390921692909184565b604080516001600160a01b0390951685526020850193909352918301526060820152608001610214565b61020a610321366004611a33565b60046020526000908152604090205481565b61020a610341366004611a97565b61083a565b61020a60065481565b6102a861035d366004611a33565b61086b565b61020a7f000000000000000000000000000000000000000000000000000000000000000081565b6102a8610397366004611ac3565b610aab565b61020a6103aa366004611a97565b600260209081526000928352604080842090915290825290205481565b6102a8610af7565b61020a610b48565b6103df610c36565b604051610214929190611b1b565b60005461027d906001600160a01b031681565b6102a861040e366004611a33565b610e20565b61020a610421366004611bed565b610e78565b6102a8610434366004611c51565b611029565b6102a8610447366004611c86565b61106d565b6102a8611136565b61020a610462366004611a97565b611296565b61020a7f000000000000000000000000000000000000000000000000000000000000000081565b61049761025881565b60405162ffffff9091168152602001610214565b61027d7f000000000000000000000000000000000000000000000000000000000000000081565b61027d7f000000000000000000000000000000000000000000000000000000000000000081565b6102447f000000000000000000000000000000000000000000000000000000000000000081565b61020a61052e366004611a4c565b6112bb565b61020a7f000000000000000000000000000000000000000000000000000000000000000081565b61027d7f000000000000000000000000000000000000000000000000000000000000000081565b610589611385565b604051610214929190611ca8565b60008160ff161180156105d057507f000000000000000000000000000000000000000000000000000000000000000060ff168160ff1611155b6106155760405162461bcd60e51b815260206004820152601160248201527039ba30b5b2903bb2b2b5b99032b93937b960791b60448201526064015b60405180910390fd5b6000610620836114e3565b9050600061063061025842611ce0565b61063b906001611d02565b9050600061064983856112bb565b905060005b8460ff168160ff1610156106e357816004600061066e60ff851687611d02565b8152602001908152602001600020600082825461068b9190611d02565b909155505033600090815260026020526040812083916106ae60ff851687611d02565b815260200190815260200160002060008282546106cb9190611d02565b909155508190506106db81611d1b565b91505061064e565b5060408051608081018252338152602081018390529081018390526060810161070f60ff871685611d02565b90526000868152600760209081526040808320845181546001600160a01b0319166001600160a01b0390911617815584830151600180830191909155858301516002830155606090950151600391820155338452909152902090810154905403610786573360009081526003602052604090208290555b61079360ff851683611d02565b3360009081526003602052604090206001015410156107cd576107b960ff851683611d02565b336000908152600360205260409020600101555b336000818152600860209081526040808320805460018101825590845292829020909201889055815188815290810186905260ff87168183015290517f6fa2f6021ee337436cdf2b2570285886da18bc06402ce284d296504a0fe8f8759181900360600190a25050505050565b6008602052816000526040600020818154811061085657600080fd5b90600052602060002001600091509150505481565b6000818152600760205260409020546001600160a01b031633146108c35760405162461bcd60e51b815260206004820152600f60248201526e37bbb732b9103337b93134b23232b760891b604482015260640161060c565b60006108d161025842611ce0565b6000838152600760205260409020600301549091508110156109235760405162461bcd60e51b815260206004820152600b60248201526a6c6f636b65642074696d6560a81b604482015260640161060c565b336000908152600860205260408120905b8154811015610a705781818154811061094f5761094f611d3a565b90600052602060002001548403610a5e578154829061097090600190611d50565b8154811061098057610980611d3a565b906000526020600020015482828154811061099d5761099d611d3a565b9060005260206000200181905550818054806109bb576109bb611d63565b600082815260208120820160001990810191909155019055604051632142170760e11b8152306004820152336024820152604481018590526001600160a01b037f000000000000000000000000000000000000000000000000000000000000000016906342842e0e90606401600060405180830381600087803b158015610a4157600080fd5b505af1158015610a55573d6000803e3d6000fd5b50505050610a70565b80610a6881611d79565b915050610934565b5060405183815233907f884edad9ce6fa2440d8a54cc123490eb96d2768479d49ff9c7366125a94243649060200160405180910390a2505050565b6000546001600160a01b03163314610ad55760405162461bcd60e51b815260040161060c90611d92565b600180546001600160a01b0319166001600160a01b0392909216919091179055565b6001546001600160a01b03163314610b215760405162461bcd60e51b815260040161060c90611d92565b60018054600080546001600160a01b03199081166001600160a01b03841617909155169055565b60008060ff7f000000000000000000000000000000000000000000000000000000000000000016610b7b61025842611ce0565b610b859190611d50565b33600090815260036020526040812054919250905b33600090815260036020526040902060010154811015610c2f57828111610c2f5760008181526004602052604090205415610c1d57600081815260046020908152604080832054338452600283528184208585528352818420546005909352922054610c069190611db5565b610c109190611ce0565b610c1a9083611d02565b91505b80610c2781611d79565b915050610b9a565b5092915050565b600060608160ff7f000000000000000000000000000000000000000000000000000000000000000016610c6b61025842611ce0565b610c759190611d50565b610c80906001611d02565b33600090815260036020526040902090915081906001015411610cb55760408051600081526020810190915290939092509050565b33600090815260036020526040812060010154610cd3908390611d50565b336000908152600360205260409020549091508111610d015733600090815260036020526040902054610d03565b805b3360009081526003602052604081206001015491925090610d25908390611d50565b67ffffffffffffffff811115610d3d57610d3d611b3c565b604051908082528060200260200182016040528015610d66578160200160208202803683370190505b509050815b33600090815260036020526040902060010154811015610e145760008181526004602052604090205415610e0257600081815260046020908152604080832054338452600283528184208585528352818420546005909352922054610dd09190611db5565b610dda9190611ce0565b82610de58684611d50565b81518110610df557610df5611d3a565b6020026020010181815250505b80610e0c81611d79565b915050610d6b565b50919491935090915050565b6000546001600160a01b03163314610e4a5760405162461bcd60e51b815260040161060c90611d92565b610e757f0000000000000000000000000000000000000000000000000000000000000000338361180c565b50565b600080546001600160a01b03163314610ea35760405162461bcd60e51b815260040161060c90611d92565b8151835114610ee75760405162461bcd60e51b815260206004820152601060248201526f3830b930b6b2ba32b9399032b93937b960811b604482015260640161060c565b60005b8351811015610fba57828181518110610f0557610f05611d3a565b602002602001015182610f189190611d02565b9150828181518110610f2c57610f2c611d3a565b602002602001015160056000868481518110610f4a57610f4a611d3a565b6020026020010151815260200190815260200160002081905550600654848281518110610f7957610f79611d3a565b60200260200101511115610fa857838181518110610f9957610f99611d3a565b60200260200101516006819055505b80610fb281611d79565b915050610eea565b50610fe77f0000000000000000000000000000000000000000000000000000000000000000333084611919565b60408051600081526020810183905233917fc3991418cacd70a010fce559a44fcbb47534ca43bf7543964bdca2639f6e6e5a910160405180910390a292915050565b60005b81518110156110695761105782828151811061104a5761104a611d3a565b602002602001015161086b565b8061106181611d79565b91505061102c565b5050565b6000546001600160a01b031633146110975760405162461bcd60e51b815260040161060c90611d92565b6110c37f0000000000000000000000000000000000000000000000000000000000000000333084611919565b600082815260056020526040812080548392906110e1908490611d02565b90915550506006548211156110f65760068290555b604080518381526020810183905233917fc3991418cacd70a010fce559a44fcbb47534ca43bf7543964bdca2639f6e6e5a91015b60405180910390a25050565b600060ff7f00000000000000000000000000000000000000000000000000000000000000001661116861025842611ce0565b6111729190611d50565b33600090815260036020526040812054919250905b33600090815260036020526040902060010154811015611238578281116112385760008181526004602052604090205415611226576111c7816001611d02565b336000908152600360205260408120015560008181526004602090815260408083205433845260028352818420858552835281842054600590935292205461120f9190611db5565b6112199190611ce0565b6112239083611d02565b91505b8061123081611d79565b915050611187565b506112647f0000000000000000000000000000000000000000000000000000000000000000338361180c565b60405181815233907fba8de60c3403ec381d1d484652ea1980e3c3e56359195c92525bff4ce47ad98e9060200161112a565b600360205281600052604060002081600281106112b257600080fd5b01549150829050565b60006112e860017f0000000000000000000000000000000000000000000000000000000000000000611dcc565b60ff1660017f000000000000000000000000000000000000000000000000000000000000000060ff1660018561131e9190611dcc565b60ff1661134c60017f0000000000000000000000000000000000000000000000000000000000000000611d50565b6113569190611db5565b6113609190611d02565b61136a9190611d50565b6113749085611db5565b61137e9190611ce0565b9392505050565b3360009081526008602052604081205460609190819067ffffffffffffffff8111156113b3576113b3611b3c565b6040519080825280602002602001820160405280156113dc578160200160208202803683370190505b50905060006113ed61025842611ce0565b3360009081526008602052604081205491925090815b336000908152600860205260409020548110156114d65733600090815260086020526040812080548390811061143b5761143b611d3a565b906000526020600020015490508460076000838152602001908152602001600020600301541115611496578086858151811061147957611479611d3a565b60209081029190910101528361148e81611d79565b9450506114c3565b826114a081611de5565b935050808684815181106114b6576114b6611d3a565b6020026020010181815250505b50806114ce81611d79565b915050611403565b5092959294509192505050565b6000806000806000807f00000000000000000000000000000000000000000000000000000000000000006001600160a01b03166399fbab88886040518263ffffffff1660e01b815260040161153a91815260200190565b61018060405180830381865afa158015611558573d6000803e3d6000fd5b505050506040513d601f19601f8201168201806040525081019061157c9190611e48565b50505050975097509750509650965050507f00000000000000000000000000000000000000000000000000000000000000006001600160a01b0316856001600160a01b03161480156115ff57507f00000000000000000000000000000000000000000000000000000000000000006001600160a01b0316846001600160a01b0316145b61163b5760405162461bcd60e51b815260206004820152600d60248201526c3638103830b4b91032b93937b960991b604482015260640161060c565b600283900b620d89e719148015611663575061165a620d89e719611f29565b60020b8260020b145b6116a25760405162461bcd60e51b815260206004820152601060248201526f3a34b1b5903930b733b29032b93937b960811b604482015260640161060c565b60405163020604bf60e21b81526004810188905230906001600160a01b037f0000000000000000000000000000000000000000000000000000000000000000169063081812fc90602401602060405180830381865afa158015611709573d6000803e3d6000fd5b505050506040513d601f19601f8201168201806040525081019061172d9190611f4b565b6001600160a01b0316146117715760405162461bcd60e51b815260206004820152600b60248201526a6e6f7420617070726f766560a81b604482015260640161060c565b604051632142170760e11b8152336004820152306024820152604481018890527f00000000000000000000000000000000000000000000000000000000000000006001600160a01b0316906342842e0e90606401600060405180830381600087803b1580156117df57600080fd5b505af11580156117f3573d6000803e3d6000fd5b50506001600160801b0390921698975050505050505050565b604080516001600160a01b038481166024830152604480830185905283518084039091018152606490920183526020820180516001600160e01b031663a9059cbb60e01b17905291516000928392908716916118689190611f68565b6000604051808303816000865af19150503d80600081146118a5576040519150601f19603f3d011682016040523d82523d6000602084013e6118aa565b606091505b50915091508180156118d45750805115806118d45750808060200190518101906118d49190611f97565b6119125760405162461bcd60e51b815260206004820152600f60248201526e1514905394d1915497d19052531151608a1b604482015260640161060c565b5050505050565b604080516001600160a01b0385811660248301528481166044830152606480830185905283518084039091018152608490920183526020820180516001600160e01b03166323b872dd60e01b179052915160009283929088169161197d9190611f68565b6000604051808303816000865af19150503d80600081146119ba576040519150601f19603f3d011682016040523d82523d6000602084013e6119bf565b606091505b50915091508180156119e95750805115806119e95750808060200190518101906119e99190611f97565b611a2b5760405162461bcd60e51b81526020600482015260136024820152721d1c985b9cd9995c919c9bdb4819985a5b1959606a1b604482015260640161060c565b505050505050565b600060208284031215611a4557600080fd5b5035919050565b60008060408385031215611a5f57600080fd5b82359150602083013560ff81168114611a7757600080fd5b809150509250929050565b6001600160a01b0381168114610e7557600080fd5b60008060408385031215611aaa57600080fd5b8235611ab581611a82565b946020939093013593505050565b600060208284031215611ad557600080fd5b813561137e81611a82565b600081518084526020808501945080840160005b83811015611b1057815187529582019590820190600101611af4565b509495945050505050565b828152604060208201526000611b346040830184611ae0565b949350505050565b634e487b7160e01b600052604160045260246000fd5b600082601f830112611b6357600080fd5b8135602067ffffffffffffffff80831115611b8057611b80611b3c565b8260051b604051601f19603f83011681018181108482111715611ba557611ba5611b3c565b604052938452858101830193838101925087851115611bc357600080fd5b83870191505b84821015611be257813583529183019190830190611bc9565b979650505050505050565b60008060408385031215611c0057600080fd5b823567ffffffffffffffff80821115611c1857600080fd5b611c2486838701611b52565b93506020850135915080821115611c3a57600080fd5b50611c4785828601611b52565b9150509250929050565b600060208284031215611c6357600080fd5b813567ffffffffffffffff811115611c7a57600080fd5b611b3484828501611b52565b60008060408385031215611c9957600080fd5b50508035926020909101359150565b604081526000611cbb6040830185611ae0565b90508260208301529392505050565b634e487b7160e01b600052601160045260246000fd5b600082611cfd57634e487b7160e01b600052601260045260246000fd5b500490565b80820180821115611d1557611d15611cca565b92915050565b600060ff821660ff8103611d3157611d31611cca565b60010192915050565b634e487b7160e01b600052603260045260246000fd5b81810381811115611d1557611d15611cca565b634e487b7160e01b600052603160045260246000fd5b600060018201611d8b57611d8b611cca565b5060010190565b6020808252600990820152683337b93134b23232b760b91b604082015260600190565b8082028115828204841417611d1557611d15611cca565b60ff8281168282160390811115611d1557611d15611cca565b600081611df457611df4611cca565b506000190190565b8051611e0781611a82565b919050565b805162ffffff81168114611e0757600080fd5b8051600281900b8114611e0757600080fd5b80516001600160801b0381168114611e0757600080fd5b6000806000806000806000806000806000806101808d8f031215611e6b57600080fd5b8c516bffffffffffffffffffffffff81168114611e8757600080fd5b9b50611e9560208e01611dfc565b9a50611ea360408e01611dfc565b9950611eb160608e01611dfc565b9850611ebf60808e01611e0c565b9750611ecd60a08e01611e1f565b9650611edb60c08e01611e1f565b9550611ee960e08e01611e31565b94506101008d015193506101208d01519250611f086101408e01611e31565b9150611f176101608e01611e31565b90509295989b509295989b509295989b565b60008160020b627fffff198103611f4257611f42611cca565b60000392915050565b600060208284031215611f5d57600080fd5b815161137e81611a82565b6000825160005b81811015611f895760208186018101518583015201611f6f565b506000920191825250919050565b600060208284031215611fa957600080fd5b8151801515811461137e57600080fdfea2646970667358221220e068fbe1856cd583965a600958c7235069acd7ada98179db4f8760bf7ade13c464736f6c63430008110033",
  "linkReferences": {},
  "deployedLinkReferences": {}
}