{
  "_format": "hh-sol-artifact-1",
  "contractName": "StakeNFT721",
  "sourceName": "contracts/stakeNFT721.sol",
  "abi": [
    {
      "inputs": [
        {
          "internalType": "uint8",
          "name": "maxWeeks",
          "type": "uint8"
        },
        {
          "internalType": "uint256",
          "name": "maxScale",
          "type": "uint256"
        },
        {
          "internalType": "uint8",
          "name": "lockWeeks",
          "type": "uint8"
        },
        {
          "internalType": "uint256",
          "name": "beginTime",
          "type": "uint256"
        },
        {
          "internalType": "uint256",
          "name": "endTime",
          "type": "uint256"
        },
        {
          "internalType": "address",
          "name": "_rewardToken",
          "type": "address"
        },
        {
          "internalType": "address",
          "name": "tokenA",
          "type": "address"
        },
        {
          "internalType": "address",
          "name": "tokenB",
          "type": "address"
        },
        {
          "internalType": "uint24",
          "name": "_fee",
          "type": "uint24"
        },
        {
          "internalType": "address",
          "name": "nft",
          "type": "address"
        },
        {
          "internalType": "int24",
          "name": "tickMin",
          "type": "int24"
        }
      ],
      "stateMutability": "nonpayable",
      "type": "constructor"
    },
    {
      "anonymous": false,
      "inputs": [
        {
          "indexed": true,
          "internalType": "address",
          "name": "user",
          "type": "address"
        },
        {
          "indexed": false,
          "internalType": "uint256",
          "name": "amount",
          "type": "uint256"
        }
      ],
      "name": "ClaimReward",
      "type": "event"
    },
    {
      "anonymous": false,
      "inputs": [
        {
          "indexed": true,
          "internalType": "address",
          "name": "user",
          "type": "address"
        },
        {
          "indexed": false,
          "internalType": "uint256",
          "name": "no",
          "type": "uint256"
        },
        {
          "indexed": false,
          "internalType": "uint256",
          "name": "amount",
          "type": "uint256"
        }
      ],
      "name": "SetReward",
      "type": "event"
    },
    {
      "anonymous": false,
      "inputs": [
        {
          "indexed": true,
          "internalType": "address",
          "name": "user",
          "type": "address"
        },
        {
          "indexed": false,
          "internalType": "uint256",
          "name": "tokenId",
          "type": "uint256"
        },
        {
          "indexed": false,
          "internalType": "uint256",
          "name": "amount",
          "type": "uint256"
        },
        {
          "indexed": false,
          "internalType": "uint8",
          "name": "k",
          "type": "uint8"
        }
      ],
      "name": "Stake",
      "type": "event"
    },
    {
      "anonymous": false,
      "inputs": [
        {
          "indexed": true,
          "internalType": "address",
          "name": "user",
          "type": "address"
        },
        {
          "indexed": false,
          "internalType": "uint256",
          "name": "tokenId",
          "type": "uint256"
        }
      ],
      "name": "Withdraw",
      "type": "event"
    },
    {
      "inputs": [],
      "name": "BEGIN_TIME",
      "outputs": [
        {
          "internalType": "uint256",
          "name": "",
          "type": "uint256"
        }
      ],
      "stateMutability": "view",
      "type": "function"
    },
    {
      "inputs": [],
      "name": "END_TIME",
      "outputs": [
        {
          "internalType": "uint256",
          "name": "",
          "type": "uint256"
        }
      ],
      "stateMutability": "view",
      "type": "function"
    },
    {
      "inputs": [],
      "name": "LOCK_WEEKNUM",
      "outputs": [
        {
          "internalType": "uint8",
          "name": "",
          "type": "uint8"
        }
      ],
      "stateMutability": "view",
      "type": "function"
    },
    {
      "inputs": [],
      "name": "MAX_SCALE",
      "outputs": [
        {
          "internalType": "uint256",
          "name": "",
          "type": "uint256"
        }
      ],
      "stateMutability": "view",
      "type": "function"
    },
    {
      "inputs": [],
      "name": "MAX_WEEKS",
      "outputs": [
        {
          "internalType": "uint8",
          "name": "",
          "type": "uint8"
        }
      ],
      "stateMutability": "view",
      "type": "function"
    },
    {
      "inputs": [],
      "name": "WEEK_SECONDS",
      "outputs": [
        {
          "internalType": "uint24",
          "name": "",
          "type": "uint24"
        }
      ],
      "stateMutability": "view",
      "type": "function"
    },
    {
      "inputs": [],
      "name": "acceptSetter",
      "outputs": [],
      "stateMutability": "nonpayable",
      "type": "function"
    },
    {
      "inputs": [],
      "name": "canClaimAmount",
      "outputs": [
        {
          "internalType": "uint256",
          "name": "",
          "type": "uint256"
        }
      ],
      "stateMutability": "view",
      "type": "function"
    },
    {
      "inputs": [],
      "name": "claimReward",
      "outputs": [],
      "stateMutability": "nonpayable",
      "type": "function"
    },
    {
      "inputs": [],
      "name": "fee",
      "outputs": [
        {
          "internalType": "uint256",
          "name": "",
          "type": "uint256"
        }
      ],
      "stateMutability": "view",
      "type": "function"
    },
    {
      "inputs": [
        {
          "internalType": "uint256",
          "name": "amount",
          "type": "uint256"
        },
        {
          "internalType": "uint8",
          "name": "k",
          "type": "uint8"
        }
      ],
      "name": "getScore",
      "outputs": [
        {
          "internalType": "uint256",
          "name": "score",
          "type": "uint256"
        }
      ],
      "stateMutability": "view",
      "type": "function"
    },
    {
      "inputs": [],
      "name": "getUserNFTs",
      "outputs": [
        {
          "internalType": "uint256[]",
          "name": "",
          "type": "uint256[]"
        },
        {
          "internalType": "uint256",
          "name": "",
          "type": "uint256"
        }
      ],
      "stateMutability": "view",
      "type": "function"
    },
    {
      "inputs": [],
      "name": "latestNo",
      "outputs": [
        {
          "internalType": "uint256",
          "name": "",
          "type": "uint256"
        }
      ],
      "stateMutability": "view",
      "type": "function"
    },
    {
      "inputs": [],
      "name": "lockedRewardAmount",
      "outputs": [
        {
          "internalType": "uint256",
          "name": "",
          "type": "uint256"
        },
        {
          "internalType": "uint256[]",
          "name": "",
          "type": "uint256[]"
        }
      ],
      "stateMutability": "view",
      "type": "function"
    },
    {
      "inputs": [],
      "name": "nftToken",
      "outputs": [
        {
          "internalType": "contract IIotabeeSwapNFT",
          "name": "",
          "type": "address"
        }
      ],
      "stateMutability": "view",
      "type": "function"
    },
    {
      "inputs": [],
      "name": "owner",
      "outputs": [
        {
          "internalType": "address",
          "name": "",
          "type": "address"
        }
      ],
      "stateMutability": "view",
      "type": "function"
    },
    {
      "inputs": [],
      "name": "rewardToken",
      "outputs": [
        {
          "internalType": "address",
          "name": "",
          "type": "address"
        }
      ],
      "stateMutability": "view",
      "type": "function"
    },
    {
      "inputs": [
        {
          "internalType": "uint256",
          "name": "",
          "type": "uint256"
        }
      ],
      "name": "rewardsOf",
      "outputs": [
        {
          "internalType": "uint256",
          "name": "",
          "type": "uint256"
        }
      ],
      "stateMutability": "view",
      "type": "function"
    },
    {
      "inputs": [
        {
          "internalType": "uint256",
          "name": "no",
          "type": "uint256"
        },
        {
          "internalType": "uint256",
          "name": "amount",
          "type": "uint256"
        }
      ],
      "name": "setReward",
      "outputs": [],
      "stateMutability": "nonpayable",
      "type": "function"
    },
    {
      "inputs": [
        {
          "internalType": "uint256[]",
          "name": "nos",
          "type": "uint256[]"
        },
        {
          "internalType": "uint256[]",
          "name": "amounts",
          "type": "uint256[]"
        }
      ],
      "name": "setRewards",
      "outputs": [
        {
          "internalType": "uint256",
          "name": "total",
          "type": "uint256"
        }
      ],
      "stateMutability": "nonpayable",
      "type": "function"
    },
    {
      "inputs": [
        {
          "internalType": "uint256",
          "name": "tokenId",
          "type": "uint256"
        },
        {
          "internalType": "uint8",
          "name": "k",
          "type": "uint8"
        }
      ],
      "name": "stake",
      "outputs": [],
      "stateMutability": "nonpayable",
      "type": "function"
    },
    {
      "inputs": [
        {
          "internalType": "uint256",
          "name": "",
          "type": "uint256"
        }
      ],
      "name": "stakingNFTs",
      "outputs": [
        {
          "internalType": "address",
          "name": "owner",
          "type": "address"
        },
        {
          "internalType": "uint256",
          "name": "score",
          "type": "uint256"
        },
        {
          "internalType": "uint256",
          "name": "beginNo",
          "type": "uint256"
        },
        {
          "internalType": "uint256",
          "name": "endNo",
          "type": "uint256"
        }
      ],
      "stateMutability": "view",
      "type": "function"
    },
    {
      "inputs": [],
      "name": "token0",
      "outputs": [
        {
          "internalType": "address",
          "name": "",
          "type": "address"
        }
      ],
      "stateMutability": "view",
      "type": "function"
    },
    {
      "inputs": [],
      "name": "token1",
      "outputs": [
        {
          "internalType": "address",
          "name": "",
          "type": "address"
        }
      ],
      "stateMutability": "view",
      "type": "function"
    },
    {
      "inputs": [
        {
          "internalType": "uint256",
          "name": "",
          "type": "uint256"
        }
      ],
      "name": "totalScores",
      "outputs": [
        {
          "internalType": "uint256",
          "name": "",
          "type": "uint256"
        }
      ],
      "stateMutability": "view",
      "type": "function"
    },
    {
      "inputs": [
        {
          "internalType": "address",
          "name": "_owner",
          "type": "address"
        }
      ],
      "name": "transferOwner",
      "outputs": [],
      "stateMutability": "nonpayable",
      "type": "function"
    },
    {
      "inputs": [
        {
          "internalType": "address",
          "name": "",
          "type": "address"
        },
        {
          "internalType": "uint256",
          "name": "",
          "type": "uint256"
        }
      ],
      "name": "userCanClaimWeeks",
      "outputs": [
        {
          "internalType": "uint256",
          "name": "",
          "type": "uint256"
        }
      ],
      "stateMutability": "view",
      "type": "function"
    },
    {
      "inputs": [
        {
          "internalType": "address",
          "name": "",
          "type": "address"
        },
        {
          "internalType": "uint256",
          "name": "",
          "type": "uint256"
        }
      ],
      "name": "userNFTs",
      "outputs": [
        {
          "internalType": "uint256",
          "name": "",
          "type": "uint256"
        }
      ],
      "stateMutability": "view",
      "type": "function"
    },
    {
      "inputs": [
        {
          "internalType": "address",
          "name": "",
          "type": "address"
        },
        {
          "internalType": "uint256",
          "name": "",
          "type": "uint256"
        }
      ],
      "name": "userScores",
      "outputs": [
        {
          "internalType": "uint256",
          "name": "",
          "type": "uint256"
        }
      ],
      "stateMutability": "view",
      "type": "function"
    },
    {
      "inputs": [
        {
          "internalType": "uint256",
          "name": "tokenId",
          "type": "uint256"
        }
      ],
      "name": "withdraw",
      "outputs": [],
      "stateMutability": "nonpayable",
      "type": "function"
    },
    {
      "inputs": [
        {
          "internalType": "uint256[]",
          "name": "tokenIds",
          "type": "uint256[]"
        }
      ],
      "name": "withdraw",
      "outputs": [],
      "stateMutability": "nonpayable",
      "type": "function"
    },
    {
      "inputs": [
        {
          "internalType": "uint256",
          "name": "amount",
          "type": "uint256"
        }
      ],
      "name": "withdrawRewards",
      "outputs": [],
      "stateMutability": "nonpayable",
      "type": "function"
    }
  ],
  "bytecode": "0x6101e06040523480156200001257600080fd5b50604051620024723803806200247283398101604081905262000035916200010d565b6001600160a01b0380871660805260ff808d1660a05260c08c90528a1660e052610100899052610120889052600080546001600160a01b0319163317905584811690861610620000875783856200008a565b84845b6001600160a01b039081166101c0529081166101a05262ffffff8416600755821661018052600281900b610140819052620000c590620001e7565b60020b6101605250620002189950505050505050505050565b805160ff81168114620000f057600080fd5b919050565b80516001600160a01b0381168114620000f057600080fd5b60008060008060008060008060008060006101608c8e0312156200013057600080fd5b6200013b8c620000de565b9a5060208c015199506200015260408d01620000de565b985060608c0151975060808c015196506200017060a08d01620000f5565b95506200018060c08d01620000f5565b94506200019060e08d01620000f5565b93506101008c015162ffffff81168114620001aa57600080fd5b9250620001bb6101208d01620000f5565b91506101408c01518060020b8114620001d357600080fd5b809150509295989b509295989b9093969950565b60008160020b627fffff1981036200020f57634e487b7160e01b600052601160045260246000fd5b60000392915050565b60805160a05160c05160e05161010051610120516101405161016051610180516101a0516101c05161213962000339600039600081816104e201526116f201526000818161026601526116b60152600081816104bb015281816109f8015281816116140152818161182d01526118fe015260006117a60152600061177601526000818161037201528181610ea3015261112801526000818161047701528181610ece015261115301526000818161022d01528181610b4b01528181610c3b01528181610de1015261125a01526000818161054c015261144c015260008181610512015281816105bb015281816113e8015261141301526000818161057301528181610e4d0152818161104e015281816111bb015261136201526121396000f3fe608060405234801561001057600080fd5b50600436106101f05760003560e01c80639342c8f41161010f578063d06fcba8116100a2578063ee3453ed11610071578063ee3453ed14610534578063f6def7cf14610547578063f7c618c11461056e578063fdc5ab8e1461059557600080fd5b8063d06fcba8146104b6578063d21220a7146104dd578063ddca3f4314610504578063e11400bb1461050d57600080fd5b8063b88a802f116100de578063b88a802f14610457578063bb57852d1461045f578063c75363b614610472578063cd671a581461049957600080fd5b80639342c8f41461040b578063979db1c41461041e578063983d95ce14610431578063a47bd4961461044457600080fd5b80632e1a7d4d116101875780635f8e422f116101565780635f8e422f146103d25780638431165e146103da5780638923de2b146103e25780638da5cb5b146103f857600080fd5b80632e1a7d4d1461035a57806337ba682d1461036d5780634fb2e45d146103945780635b680a45146103a757600080fd5b806310c6c1c2116101c357806310c6c1c2146102b5578063157775df1461031e578063291c73c31461033e57806329ed1cfd1461035157600080fd5b80630bce1284146101f55780630d437d40146102285780630dfe16811461026157806310087fb1146102a0575b600080fd5b610215610203366004611b9f565b60056020526000908152604090205481565b6040519081526020015b60405180910390f35b61024f7f000000000000000000000000000000000000000000000000000000000000000081565b60405160ff909116815260200161021f565b6102887f000000000000000000000000000000000000000000000000000000000000000081565b6040516001600160a01b03909116815260200161021f565b6102b36102ae366004611bb8565b6105ab565b005b6102f46102c3366004611b9f565b60086020526000908152604090208054600182015460028301546003909301546001600160a01b0390921692909184565b604080516001600160a01b039095168552602085019390935291830152606082015260800161021f565b61021561032c366004611b9f565b60046020526000908152604090205481565b61021561034c366004611c03565b610835565b61021560065481565b6102b3610368366004611b9f565b610866565b6102157f000000000000000000000000000000000000000000000000000000000000000081565b6102b36103a2366004611c2f565b610aa7565b6102156103b5366004611c03565b600260209081526000928352604080842090915290825290205481565b6102b3610af3565b610215610b44565b6103ea610c32565b60405161021f929190611c87565b600054610288906001600160a01b031681565b6102b3610419366004611b9f565b610e1e565b61021561042c366004611d59565b610e76565b6102b361043f366004611dbd565b6110b8565b6102b3610452366004611df2565b6110fc565b6102b3611254565b61021561046d366004611c03565b6113ba565b6102157f000000000000000000000000000000000000000000000000000000000000000081565b6104a261025881565b60405162ffffff909116815260200161021f565b6102887f000000000000000000000000000000000000000000000000000000000000000081565b6102887f000000000000000000000000000000000000000000000000000000000000000081565b61021560075481565b61024f7f000000000000000000000000000000000000000000000000000000000000000081565b610215610542366004611bb8565b6113df565b6102157f000000000000000000000000000000000000000000000000000000000000000081565b6102887f000000000000000000000000000000000000000000000000000000000000000081565b61059d6114a9565b60405161021f929190611e14565b60008160ff161180156105e457507f000000000000000000000000000000000000000000000000000000000000000060ff168160ff1611155b6106295760405162461bcd60e51b815260206004820152601160248201527039ba30b5b2903bb2b2b5b99032b93937b960791b60448201526064015b60405180910390fd5b600061063483611607565b9050600061064461025842611e4c565b61064f906001611e6e565b9050600061065d83856113df565b905060005b8460ff168160ff1610156106f757816004600061068260ff851687611e6e565b8152602001908152602001600020600082825461069f9190611e6e565b909155505033600090815260026020526040812083916106c260ff851687611e6e565b815260200190815260200160002060008282546106df9190611e6e565b909155508190506106ef81611e87565b915050610662565b50600061070760ff861684611e6e565b604080516080810182523380825260208083018781528385018981526060850187815260008e815260088552878120965187546001600160a01b0319166001600160a01b03909116178755925160018088019190915591516002870155516003958601559281529290529190209081015490549192509003610796573360009081526003602052604090208390555b33600090815260036020526040902081906001015410156107c7573360009081526003602052604090208190600101555b336000818152600960209081526040808320805460018101825590845292829020909201899055815189815290810187905260ff88168183015290517f6fa2f6021ee337436cdf2b2570285886da18bc06402ce284d296504a0fe8f8759181900360600190a2505050505050565b6009602052816000526040600020818154811061085157600080fd5b90600052602060002001600091509150505481565b6000818152600860205260409020546001600160a01b031633146108be5760405162461bcd60e51b815260206004820152600f60248201526e37bbb732b9103337b93134b23232b760891b6044820152606401610620565b60006108cc61025842611e4c565b60008381526008602052604090206003015490915081101561091e5760405162461bcd60e51b815260206004820152600b60248201526a6c6f636b65642074696d6560a81b6044820152606401610620565b336000908152600960205260408120905b8154811015610a6b5781818154811061094a5761094a611ea6565b90600052602060002001548403610a59578154829061096b90600190611ebc565b8154811061097b5761097b611ea6565b906000526020600020015482828154811061099857610998611ea6565b9060005260206000200181905550818054806109b6576109b6611ecf565b600082815260208120820160001990810191909155019055604051632142170760e11b8152306004820152336024820152604481018590526001600160a01b037f000000000000000000000000000000000000000000000000000000000000000016906342842e0e90606401600060405180830381600087803b158015610a3c57600080fd5b505af1158015610a50573d6000803e3d6000fd5b50505050610a6b565b80610a6381611ee5565b91505061092f565b5060405183815233907f884edad9ce6fa2440d8a54cc123490eb96d2768479d49ff9c7366125a9424364906020015b60405180910390a2505050565b6000546001600160a01b03163314610ad15760405162461bcd60e51b815260040161062090611efe565b600180546001600160a01b0319166001600160a01b0392909216919091179055565b6001546001600160a01b03163314610b1d5760405162461bcd60e51b815260040161062090611efe565b60018054600080546001600160a01b03199081166001600160a01b03841617909155169055565b60008060ff7f000000000000000000000000000000000000000000000000000000000000000016610b7761025842611e4c565b610b819190611ebc565b33600090815260036020526040812054919250905b33600090815260036020526040902060010154811015610c2b57828111610c2b5760008181526004602052604090205415610c1957600081815260046020908152604080832054338452600283528184208585528352818420546005909352922054610c029190611f21565b610c0c9190611e4c565b610c169083611e6e565b91505b80610c2381611ee5565b915050610b96565b5092915050565b600060608160ff7f000000000000000000000000000000000000000000000000000000000000000016610c6761025842611e4c565b610c719190611ebc565b610c7c906001611e6e565b33600090815260036020526040902090915081906001015411610cb15760408051600081526020810190915290939092509050565b33600090815260036020526040812080546001909101549091838311610cd75783610cd9565b825b90506000610ce78284611ebc565b67ffffffffffffffff811115610cff57610cff611ca8565b604051908082528060200260200182016040528015610d28578160200160208202803683370190505b509050815b83811015610dca5760008181526004602052604090205415610d8f57600081815260046020908152604080832054338452600283528184208585528352818420546005909352922054610d809190611f21565b610d8a9190611e4c565b610d92565b60005b82610d9d8584611ebc565b81518110610dad57610dad611ea6565b602090810291909101015280610dc281611ee5565b915050610d2d565b506000610dd961025842611e4c565b610e068460ff7f000000000000000000000000000000000000000000000000000000000000000016611e6e565b610e109190611ebc565b989197509095505050505050565b6000546001600160a01b03163314610e485760405162461bcd60e51b815260040161062090611efe565b610e737f00000000000000000000000000000000000000000000000000000000000000003383611978565b50565b600080546001600160a01b03163314610ea15760405162461bcd60e51b815260040161062090611efe565b7f00000000000000000000000000000000000000000000000000000000000000004211158015610ef157507f00000000000000000000000000000000000000000000000000000000000000004210155b610f315760405162461bcd60e51b81526020600482015260116024820152701b9bdd081a5b881d1a19481c195c9a5bd9607a1b6044820152606401610620565b8151835114610f755760405162461bcd60e51b815260206004820152601060248201526f3830b930b6b2ba32b9399032b93937b960811b6044820152606401610620565b6000805b845181101561104357838181518110610f9457610f94611ea6565b602002602001015183610fa79190611e6e565b9250838181518110610fbb57610fbb611ea6565b602002602001015160056000878481518110610fd957610fd9611ea6565b60200260200101518152602001908152602001600020819055508185828151811061100657611006611ea6565b602002602001015111156110315784818151811061102657611026611ea6565b602002602001015191505b8061103b81611ee5565b915050610f79565b5060068190556110757f0000000000000000000000000000000000000000000000000000000000000000333085611a85565b60408051600081526020810184905233917fc3991418cacd70a010fce559a44fcbb47534ca43bf7543964bdca2639f6e6e5a910160405180910390a25092915050565b60005b81518110156110f8576110e68282815181106110d9576110d9611ea6565b6020026020010151610866565b806110f081611ee5565b9150506110bb565b5050565b6000546001600160a01b031633146111265760405162461bcd60e51b815260040161062090611efe565b7f0000000000000000000000000000000000000000000000000000000000000000421115801561117657507f00000000000000000000000000000000000000000000000000000000000000004210155b6111b65760405162461bcd60e51b81526020600482015260116024820152701b9bdd081a5b881d1a19481c195c9a5bd9607a1b6044820152606401610620565b6111e27f0000000000000000000000000000000000000000000000000000000000000000333084611a85565b60008281526005602052604081208054839290611200908490611e6e565b90915550506006548211156112155760068290555b604080518381526020810183905233917fc3991418cacd70a010fce559a44fcbb47534ca43bf7543964bdca2639f6e6e5a910160405180910390a25050565b600060ff7f00000000000000000000000000000000000000000000000000000000000000001661128661025842611e4c565b6112909190611ebc565b3360009081526003602052604081205491925090805b3360009081526003602052604090206001015481101561134957838111611349576112d2816001611e6e565b60008281526004602052604090205490925015611337576000818152600460209081526040808320543384526002835281842085855283528184205460059093529220546113209190611f21565b61132a9190611e4c565b6113349084611e6e565b92505b8061134181611ee5565b9150506112a6565b50336000908152600360205260408120829101556113887f00000000000000000000000000000000000000000000000000000000000000003384611978565b60405182815233907fba8de60c3403ec381d1d484652ea1980e3c3e56359195c92525bff4ce47ad98e90602001610a9a565b600360205281600052604060002081600281106113d657600080fd5b01549150829050565b600061140c60017f0000000000000000000000000000000000000000000000000000000000000000611f38565b60ff1660017f000000000000000000000000000000000000000000000000000000000000000060ff166001856114429190611f38565b60ff1661147060017f0000000000000000000000000000000000000000000000000000000000000000611ebc565b61147a9190611f21565b6114849190611e6e565b61148e9190611ebc565b6114989085611f21565b6114a29190611e4c565b9392505050565b3360009081526009602052604081205460609190819067ffffffffffffffff8111156114d7576114d7611ca8565b604051908082528060200260200182016040528015611500578160200160208202803683370190505b509050600061151161025842611e4c565b3360009081526009602052604081205491925090815b336000908152600960205260409020548110156115fa5733600090815260096020526040812080548390811061155f5761155f611ea6565b9060005260206000200154905084600860008381526020019081526020016000206003015411156115ba578086858151811061159d5761159d611ea6565b6020908102919091010152836115b281611ee5565b9450506115e7565b826115c481611f51565b935050808684815181106115da576115da611ea6565b6020026020010181815250505b50806115f281611ee5565b915050611527565b5092959294509192505050565b60008060008060008060007f00000000000000000000000000000000000000000000000000000000000000006001600160a01b03166399fbab88896040518263ffffffff1660e01b815260040161166091815260200190565b61018060405180830381865afa15801561167e573d6000803e3d6000fd5b505050506040513d601f19601f820116820180604052508101906116a29190611fb4565b5050505097509750975097509750975050507f00000000000000000000000000000000000000000000000000000000000000006001600160a01b0316866001600160a01b031614801561172657507f00000000000000000000000000000000000000000000000000000000000000006001600160a01b0316856001600160a01b0316145b801561173857508362ffffff16600754145b6117745760405162461bcd60e51b815260206004820152600d60248201526c3638103830b4b91032b93937b960991b6044820152606401610620565b7f000000000000000000000000000000000000000000000000000000000000000060020b8360020b1480156117ce57507f000000000000000000000000000000000000000000000000000000000000000060020b8260020b145b61180d5760405162461bcd60e51b815260206004820152601060248201526f3a34b1b5903930b733b29032b93937b960811b6044820152606401610620565b60405163020604bf60e21b81526004810189905230906001600160a01b037f0000000000000000000000000000000000000000000000000000000000000000169063081812fc90602401602060405180830381865afa158015611874573d6000803e3d6000fd5b505050506040513d601f19601f820116820180604052508101906118989190612095565b6001600160a01b0316146118dc5760405162461bcd60e51b815260206004820152600b60248201526a6e6f7420617070726f766560a81b6044820152606401610620565b604051632142170760e11b8152336004820152306024820152604481018990527f00000000000000000000000000000000000000000000000000000000000000006001600160a01b0316906342842e0e90606401600060405180830381600087803b15801561194a57600080fd5b505af115801561195e573d6000803e3d6000fd5b50506001600160801b039092169998505050505050505050565b604080516001600160a01b038481166024830152604480830185905283518084039091018152606490920183526020820180516001600160e01b031663a9059cbb60e01b17905291516000928392908716916119d491906120b2565b6000604051808303816000865af19150503d8060008114611a11576040519150601f19603f3d011682016040523d82523d6000602084013e611a16565b606091505b5091509150818015611a40575080511580611a40575080806020019051810190611a4091906120e1565b611a7e5760405162461bcd60e51b815260206004820152600f60248201526e1514905394d1915497d19052531151608a1b6044820152606401610620565b5050505050565b604080516001600160a01b0385811660248301528481166044830152606480830185905283518084039091018152608490920183526020820180516001600160e01b03166323b872dd60e01b1790529151600092839290881691611ae991906120b2565b6000604051808303816000865af19150503d8060008114611b26576040519150601f19603f3d011682016040523d82523d6000602084013e611b2b565b606091505b5091509150818015611b55575080511580611b55575080806020019051810190611b5591906120e1565b611b975760405162461bcd60e51b81526020600482015260136024820152721d1c985b9cd9995c919c9bdb4819985a5b1959606a1b6044820152606401610620565b505050505050565b600060208284031215611bb157600080fd5b5035919050565b60008060408385031215611bcb57600080fd5b82359150602083013560ff81168114611be357600080fd5b809150509250929050565b6001600160a01b0381168114610e7357600080fd5b60008060408385031215611c1657600080fd5b8235611c2181611bee565b946020939093013593505050565b600060208284031215611c4157600080fd5b81356114a281611bee565b600081518084526020808501945080840160005b83811015611c7c57815187529582019590820190600101611c60565b509495945050505050565b828152604060208201526000611ca06040830184611c4c565b949350505050565b634e487b7160e01b600052604160045260246000fd5b600082601f830112611ccf57600080fd5b8135602067ffffffffffffffff80831115611cec57611cec611ca8565b8260051b604051601f19603f83011681018181108482111715611d1157611d11611ca8565b604052938452858101830193838101925087851115611d2f57600080fd5b83870191505b84821015611d4e57813583529183019190830190611d35565b979650505050505050565b60008060408385031215611d6c57600080fd5b823567ffffffffffffffff80821115611d8457600080fd5b611d9086838701611cbe565b93506020850135915080821115611da657600080fd5b50611db385828601611cbe565b9150509250929050565b600060208284031215611dcf57600080fd5b813567ffffffffffffffff811115611de657600080fd5b611ca084828501611cbe565b60008060408385031215611e0557600080fd5b50508035926020909101359150565b604081526000611e276040830185611c4c565b90508260208301529392505050565b634e487b7160e01b600052601160045260246000fd5b600082611e6957634e487b7160e01b600052601260045260246000fd5b500490565b80820180821115611e8157611e81611e36565b92915050565b600060ff821660ff8103611e9d57611e9d611e36565b60010192915050565b634e487b7160e01b600052603260045260246000fd5b81810381811115611e8157611e81611e36565b634e487b7160e01b600052603160045260246000fd5b600060018201611ef757611ef7611e36565b5060010190565b6020808252600990820152683337b93134b23232b760b91b604082015260600190565b8082028115828204841417611e8157611e81611e36565b60ff8281168282160390811115611e8157611e81611e36565b600081611f6057611f60611e36565b506000190190565b8051611f7381611bee565b919050565b805162ffffff81168114611f7357600080fd5b8051600281900b8114611f7357600080fd5b80516001600160801b0381168114611f7357600080fd5b6000806000806000806000806000806000806101808d8f031215611fd757600080fd5b8c516bffffffffffffffffffffffff81168114611ff357600080fd5b9b5061200160208e01611f68565b9a5061200f60408e01611f68565b995061201d60608e01611f68565b985061202b60808e01611f78565b975061203960a08e01611f8b565b965061204760c08e01611f8b565b955061205560e08e01611f9d565b94506101008d015193506101208d015192506120746101408e01611f9d565b91506120836101608e01611f9d565b90509295989b509295989b509295989b565b6000602082840312156120a757600080fd5b81516114a281611bee565b6000825160005b818110156120d357602081860181015185830152016120b9565b506000920191825250919050565b6000602082840312156120f357600080fd5b815180151581146114a257600080fdfea2646970667358221220f94849c04990079755b36198f28dbecbdd8968f19d293cedbbe088089574aac964736f6c63430008110033",
  "linkReferences": {},
  "deployedLinkReferences": {}
}