{
  "_format": "hh-sol-artifact-1",
  "contractName": "StakeNFT721",
  "sourceName": "contracts/stakeNFT721.sol",
  "abi": [
    {
      "inputs": [
        {
          "internalType": "uint8",
          "name": "maxWeeks",
          "type": "uint8"
        },
        {
          "internalType": "uint256",
          "name": "maxScale",
          "type": "uint256"
        },
        {
          "internalType": "uint8",
          "name": "lockWeeks",
          "type": "uint8"
        },
        {
          "internalType": "address",
          "name": "_rewardToken",
          "type": "address"
        },
        {
          "internalType": "address",
          "name": "tokenA",
          "type": "address"
        },
        {
          "internalType": "address",
          "name": "tokenB",
          "type": "address"
        },
        {
          "internalType": "address",
          "name": "nft",
          "type": "address"
        }
      ],
      "stateMutability": "nonpayable",
      "type": "constructor"
    },
    {
      "anonymous": false,
      "inputs": [
        {
          "indexed": true,
          "internalType": "address",
          "name": "user",
          "type": "address"
        },
        {
          "indexed": false,
          "internalType": "uint256",
          "name": "tokenId",
          "type": "uint256"
        },
        {
          "indexed": false,
          "internalType": "uint256",
          "name": "amount",
          "type": "uint256"
        }
      ],
      "name": "ClaimReward",
      "type": "event"
    },
    {
      "anonymous": false,
      "inputs": [
        {
          "indexed": true,
          "internalType": "address",
          "name": "user",
          "type": "address"
        },
        {
          "indexed": false,
          "internalType": "uint256",
          "name": "amount",
          "type": "uint256"
        }
      ],
      "name": "ClaimReward",
      "type": "event"
    },
    {
      "anonymous": false,
      "inputs": [
        {
          "indexed": true,
          "internalType": "address",
          "name": "user",
          "type": "address"
        },
        {
          "indexed": false,
          "internalType": "uint256",
          "name": "no",
          "type": "uint256"
        },
        {
          "indexed": false,
          "internalType": "uint256",
          "name": "amount",
          "type": "uint256"
        }
      ],
      "name": "SetReward",
      "type": "event"
    },
    {
      "anonymous": false,
      "inputs": [
        {
          "indexed": true,
          "internalType": "address",
          "name": "user",
          "type": "address"
        },
        {
          "indexed": false,
          "internalType": "uint256",
          "name": "tokenId",
          "type": "uint256"
        },
        {
          "indexed": false,
          "internalType": "uint256",
          "name": "amount",
          "type": "uint256"
        },
        {
          "indexed": false,
          "internalType": "uint8",
          "name": "k",
          "type": "uint8"
        }
      ],
      "name": "Stake",
      "type": "event"
    },
    {
      "anonymous": false,
      "inputs": [
        {
          "indexed": true,
          "internalType": "address",
          "name": "user",
          "type": "address"
        },
        {
          "indexed": false,
          "internalType": "uint256",
          "name": "tokenId",
          "type": "uint256"
        }
      ],
      "name": "Withdraw",
      "type": "event"
    },
    {
      "inputs": [],
      "name": "LOCK_WEEKNUM",
      "outputs": [
        {
          "internalType": "uint8",
          "name": "",
          "type": "uint8"
        }
      ],
      "stateMutability": "view",
      "type": "function"
    },
    {
      "inputs": [],
      "name": "MAX_SCALE",
      "outputs": [
        {
          "internalType": "uint256",
          "name": "",
          "type": "uint256"
        }
      ],
      "stateMutability": "view",
      "type": "function"
    },
    {
      "inputs": [],
      "name": "MAX_WEEKS",
      "outputs": [
        {
          "internalType": "uint8",
          "name": "",
          "type": "uint8"
        }
      ],
      "stateMutability": "view",
      "type": "function"
    },
    {
      "inputs": [],
      "name": "WEEK_SECONDS",
      "outputs": [
        {
          "internalType": "uint24",
          "name": "",
          "type": "uint24"
        }
      ],
      "stateMutability": "view",
      "type": "function"
    },
    {
      "inputs": [],
      "name": "acceptSetter",
      "outputs": [],
      "stateMutability": "nonpayable",
      "type": "function"
    },
    {
      "inputs": [],
      "name": "canClaimAmount",
      "outputs": [
        {
          "internalType": "uint256",
          "name": "",
          "type": "uint256"
        }
      ],
      "stateMutability": "view",
      "type": "function"
    },
    {
      "inputs": [],
      "name": "claim",
      "outputs": [],
      "stateMutability": "nonpayable",
      "type": "function"
    },
    {
      "inputs": [
        {
          "internalType": "uint256",
          "name": "amount",
          "type": "uint256"
        },
        {
          "internalType": "uint8",
          "name": "k",
          "type": "uint8"
        }
      ],
      "name": "getScore",
      "outputs": [
        {
          "internalType": "uint256",
          "name": "score",
          "type": "uint256"
        }
      ],
      "stateMutability": "view",
      "type": "function"
    },
    {
      "inputs": [],
      "name": "getUserNFTs",
      "outputs": [
        {
          "internalType": "uint256[]",
          "name": "",
          "type": "uint256[]"
        },
        {
          "internalType": "uint256",
          "name": "",
          "type": "uint256"
        }
      ],
      "stateMutability": "view",
      "type": "function"
    },
    {
      "inputs": [],
      "name": "latestNo",
      "outputs": [
        {
          "internalType": "uint256",
          "name": "",
          "type": "uint256"
        }
      ],
      "stateMutability": "view",
      "type": "function"
    },
    {
      "inputs": [],
      "name": "nftToken",
      "outputs": [
        {
          "internalType": "contract IIotabeeSwapNFT",
          "name": "",
          "type": "address"
        }
      ],
      "stateMutability": "view",
      "type": "function"
    },
    {
      "inputs": [],
      "name": "owner",
      "outputs": [
        {
          "internalType": "address",
          "name": "",
          "type": "address"
        }
      ],
      "stateMutability": "view",
      "type": "function"
    },
    {
      "inputs": [],
      "name": "rewardToken",
      "outputs": [
        {
          "internalType": "address",
          "name": "",
          "type": "address"
        }
      ],
      "stateMutability": "view",
      "type": "function"
    },
    {
      "inputs": [
        {
          "internalType": "uint256",
          "name": "",
          "type": "uint256"
        }
      ],
      "name": "rewardsOf",
      "outputs": [
        {
          "internalType": "uint256",
          "name": "",
          "type": "uint256"
        }
      ],
      "stateMutability": "view",
      "type": "function"
    },
    {
      "inputs": [
        {
          "internalType": "uint256",
          "name": "no",
          "type": "uint256"
        },
        {
          "internalType": "uint256",
          "name": "amount",
          "type": "uint256"
        }
      ],
      "name": "setReward",
      "outputs": [],
      "stateMutability": "nonpayable",
      "type": "function"
    },
    {
      "inputs": [
        {
          "internalType": "uint256[]",
          "name": "nos",
          "type": "uint256[]"
        },
        {
          "internalType": "uint256[]",
          "name": "amounts",
          "type": "uint256[]"
        }
      ],
      "name": "setRewards",
      "outputs": [
        {
          "internalType": "uint256",
          "name": "total",
          "type": "uint256"
        }
      ],
      "stateMutability": "nonpayable",
      "type": "function"
    },
    {
      "inputs": [
        {
          "internalType": "uint256",
          "name": "tokenId",
          "type": "uint256"
        },
        {
          "internalType": "uint8",
          "name": "k",
          "type": "uint8"
        }
      ],
      "name": "stake",
      "outputs": [],
      "stateMutability": "nonpayable",
      "type": "function"
    },
    {
      "inputs": [
        {
          "internalType": "uint256",
          "name": "",
          "type": "uint256"
        }
      ],
      "name": "stakingNFTs",
      "outputs": [
        {
          "internalType": "address",
          "name": "owner",
          "type": "address"
        },
        {
          "internalType": "uint256",
          "name": "score",
          "type": "uint256"
        },
        {
          "internalType": "uint256",
          "name": "beginNo",
          "type": "uint256"
        },
        {
          "internalType": "uint256",
          "name": "endNo",
          "type": "uint256"
        }
      ],
      "stateMutability": "view",
      "type": "function"
    },
    {
      "inputs": [],
      "name": "token0",
      "outputs": [
        {
          "internalType": "address",
          "name": "",
          "type": "address"
        }
      ],
      "stateMutability": "view",
      "type": "function"
    },
    {
      "inputs": [],
      "name": "token1",
      "outputs": [
        {
          "internalType": "address",
          "name": "",
          "type": "address"
        }
      ],
      "stateMutability": "view",
      "type": "function"
    },
    {
      "inputs": [
        {
          "internalType": "uint256",
          "name": "",
          "type": "uint256"
        }
      ],
      "name": "totalScores",
      "outputs": [
        {
          "internalType": "uint256",
          "name": "",
          "type": "uint256"
        }
      ],
      "stateMutability": "view",
      "type": "function"
    },
    {
      "inputs": [
        {
          "internalType": "address",
          "name": "_owner",
          "type": "address"
        }
      ],
      "name": "transferOwner",
      "outputs": [],
      "stateMutability": "nonpayable",
      "type": "function"
    },
    {
      "inputs": [
        {
          "internalType": "address",
          "name": "",
          "type": "address"
        },
        {
          "internalType": "uint256",
          "name": "",
          "type": "uint256"
        }
      ],
      "name": "userCanClaimWeeks",
      "outputs": [
        {
          "internalType": "uint256",
          "name": "",
          "type": "uint256"
        }
      ],
      "stateMutability": "view",
      "type": "function"
    },
    {
      "inputs": [
        {
          "internalType": "address",
          "name": "",
          "type": "address"
        },
        {
          "internalType": "uint256",
          "name": "",
          "type": "uint256"
        }
      ],
      "name": "userNFTs",
      "outputs": [
        {
          "internalType": "uint256",
          "name": "",
          "type": "uint256"
        }
      ],
      "stateMutability": "view",
      "type": "function"
    },
    {
      "inputs": [
        {
          "internalType": "address",
          "name": "",
          "type": "address"
        },
        {
          "internalType": "uint256",
          "name": "",
          "type": "uint256"
        }
      ],
      "name": "userScores",
      "outputs": [
        {
          "internalType": "uint256",
          "name": "",
          "type": "uint256"
        }
      ],
      "stateMutability": "view",
      "type": "function"
    },
    {
      "inputs": [
        {
          "internalType": "uint256",
          "name": "tokenId",
          "type": "uint256"
        }
      ],
      "name": "withdraw",
      "outputs": [],
      "stateMutability": "nonpayable",
      "type": "function"
    },
    {
      "inputs": [
        {
          "internalType": "uint256[]",
          "name": "tokenIds",
          "type": "uint256[]"
        }
      ],
      "name": "withdraw",
      "outputs": [],
      "stateMutability": "nonpayable",
      "type": "function"
    }
  ],
  "bytecode": "0x6101606040523480156200001257600080fd5b5060405162001dfa38038062001dfa8339810160408190526200003591620000d5565b6001600160a01b0380851660805260ff80891660a05260c0889052861660e052600080546001600160a01b03191633179055828116908416106200007b5781836200007e565b82825b6001600160a01b03908116610140529081166101205216610100525062000161945050505050565b805160ff81168114620000b857600080fd5b919050565b80516001600160a01b0381168114620000b857600080fd5b600080600080600080600060e0888a031215620000f157600080fd5b620000fc88620000a6565b9650602088015195506200011360408901620000a6565b94506200012360608901620000bd565b93506200013360808901620000bd565b92506200014360a08901620000bd565b91506200015360c08901620000bd565b905092959891949750929550565b60805160a05160c05160e051610100516101205161014051611bd5620002256000396000818161042401526111dc01526000818161021f01526111a00152600081816103fd01528181610896015281816110ff015281816112d301526113a40152600081816101e60152818161094a0152610b3b0152600081816104850152610f3901526000818161044b015281816104f401528181610ed50152610f000152600081816104ac01528181610a3701528181610d390152610e150152611bd56000f3fe608060405234801561001057600080fd5b50600436106101a95760003560e01c80638431165e116100f9578063d06fcba811610097578063ee3453ed11610071578063ee3453ed1461046d578063f6def7cf14610480578063f7c618c1146104a7578063fdc5ab8e146104ce57600080fd5b8063d06fcba8146103f8578063d21220a71461041f578063e11400bb1461044657600080fd5b8063983d95ce116100d3578063983d95ce146103a2578063a47bd496146103b5578063bb57852d146103c8578063cd671a58146103db57600080fd5b80638431165e146103745780638da5cb5b1461037c578063979db1c41461038f57600080fd5b8063291c73c3116101665780634e71d92d116101405780634e71d92d146103265780634fb2e45d1461032e5780635b680a45146103415780635f8e422f1461036c57600080fd5b8063291c73c3146102f757806329ed1cfd1461030a5780632e1a7d4d1461031357600080fd5b80630bce1284146101ae5780630d437d40146101e15780630dfe16811461021a57806310087fb11461025957806310c6c1c21461026e578063157775df146102d7575b600080fd5b6101ce6101bc366004611644565b60056020526000908152604090205481565b6040519081526020015b60405180910390f35b6102087f000000000000000000000000000000000000000000000000000000000000000081565b60405160ff90911681526020016101d8565b6102417f000000000000000000000000000000000000000000000000000000000000000081565b6040516001600160a01b0390911681526020016101d8565b61026c61026736600461165d565b6104e4565b005b6102ad61027c366004611644565b60076020526000908152604090208054600182015460028301546003909301546001600160a01b0390921692909184565b604080516001600160a01b03909516855260208501939093529183015260608201526080016101d8565b6101ce6102e5366004611644565b60046020526000908152604090205481565b6101ce6103053660046116ab565b6106d3565b6101ce60065481565b61026c610321366004611644565b610704565b61026c610944565b61026c61033c3660046116d7565b610a97565b6101ce61034f3660046116ab565b600260209081526000928352604080842090915290825290205481565b61026c610ae3565b6101ce610b34565b600054610241906001600160a01b031681565b6101ce61039d3660046117a5565b610c0d565b61026c6103b0366004611809565b610da2565b61026c6103c3366004611846565b610de6565b6101ce6103d63660046116ab565b610ea7565b6103e461025881565b60405162ffffff90911681526020016101d8565b6102417f000000000000000000000000000000000000000000000000000000000000000081565b6102417f000000000000000000000000000000000000000000000000000000000000000081565b6102087f000000000000000000000000000000000000000000000000000000000000000081565b6101ce61047b36600461165d565b610ecc565b6101ce7f000000000000000000000000000000000000000000000000000000000000000081565b6102417f000000000000000000000000000000000000000000000000000000000000000081565b6104d6610f96565b6040516101d8929190611868565b60008160ff1611801561051d57507f000000000000000000000000000000000000000000000000000000000000000060ff168160ff1611155b6105625760405162461bcd60e51b815260206004820152601160248201527039ba30b5b2903bb2b2b5b99032b93937b960791b60448201526064015b60405180910390fd5b600061056d836110f4565b9050600061057d610258426118c6565b6105889060016118e8565b905060006105968385610ecc565b905060005b8460ff168160ff1610156105f05781600460006105bb60ff8516876118e8565b815260200190815260200160002060008282546105d891906118e8565b909155508190506105e881611901565b91505061059b565b5060408051608081018252338152602081018390529081018390526060810161061c60ff8716856118e8565b90526000868152600760209081526040808320845181546001600160a01b0319166001600160a01b039091161781558483015160018083019190915585830151600283015560609586015160039092019190915533808552600884528285208054928301815585529383902001899055805189815291820187905260ff88169082015290917f6fa2f6021ee337436cdf2b2570285886da18bc06402ce284d296504a0fe8f875910160405180910390a25050505050565b600860205281600052604060002081815481106106ef57600080fd5b90600052602060002001600091509150505481565b6000818152600760205260409020546001600160a01b0316331461075c5760405162461bcd60e51b815260206004820152600f60248201526e37bbb732b9103337b93134b23232b760891b6044820152606401610559565b600061076a610258426118c6565b6000838152600760205260409020600301549091508110156107bc5760405162461bcd60e51b815260206004820152600b60248201526a6c6f636b65642074696d6560a81b6044820152606401610559565b336000908152600860205260408120905b8154811015610909578181815481106107e8576107e8611920565b906000526020600020015484036108f7578154829061080990600190611936565b8154811061081957610819611920565b906000526020600020015482828154811061083657610836611920565b90600052602060002001819055508180548061085457610854611949565b600082815260208120820160001990810191909155019055604051632142170760e11b8152306004820152336024820152604481018590526001600160a01b037f000000000000000000000000000000000000000000000000000000000000000016906342842e0e90606401600060405180830381600087803b1580156108da57600080fd5b505af11580156108ee573d6000803e3d6000fd5b50505050610909565b806109018161195f565b9150506107cd565b5060405183815233907f884edad9ce6fa2440d8a54cc123490eb96d2768479d49ff9c7366125a94243649060200160405180910390a2505050565b600060ff7f000000000000000000000000000000000000000000000000000000000000000016610976610258426118c6565b6109809190611936565b33600090815260036020526040812054919250905b33600090815260036020526040902060010154811015610a3157828111610a31576109c18160016118e8565b3360009081526003602052604081200155600081815260046020908152604080832054338452600283528184208585528352818420546005909352922054610a099190611978565b610a1391906118c6565b610a1d90836118e8565b915080610a298161195f565b915050610995565b50610a5d7f0000000000000000000000000000000000000000000000000000000000000000338361141d565b60405181815233907fba8de60c3403ec381d1d484652ea1980e3c3e56359195c92525bff4ce47ad98e906020015b60405180910390a25050565b6000546001600160a01b03163314610ac15760405162461bcd60e51b81526004016105599061198f565b600180546001600160a01b0319166001600160a01b0392909216919091179055565b6001546001600160a01b03163314610b0d5760405162461bcd60e51b81526004016105599061198f565b60018054600080546001600160a01b03199081166001600160a01b03841617909155169055565b60008060ff7f000000000000000000000000000000000000000000000000000000000000000016610b67610258426118c6565b610b719190611936565b33600090815260036020526040812054919250905b33600090815260036020526040902060010154811015610c0657828111610c0657600081815260046020908152604080832054338452600283528184208585528352818420546005909352922054610bde9190611978565b610be891906118c6565b610bf290836118e8565b915080610bfe8161195f565b915050610b86565b5092915050565b600080546001600160a01b03163314610c385760405162461bcd60e51b81526004016105599061198f565b60005b8351811015610cc857828181518110610c5657610c56611920565b602002602001015182610c6991906118e8565b9150828181518110610c7d57610c7d611920565b602002602001015160056000868481518110610c9b57610c9b611920565b60200260200101518152602001908152602001600020819055508080610cc09061195f565b915050610c3b565b5060008351118015610d0157506006548360018551610ce79190611936565b81518110610cf757610cf7611920565b6020026020010151115b15610d34578260018451610d159190611936565b81518110610d2557610d25611920565b60200260200101516006819055505b610d607f000000000000000000000000000000000000000000000000000000000000000033308461152a565b60408051600081526020810183905233917fc3991418cacd70a010fce559a44fcbb47534ca43bf7543964bdca2639f6e6e5a910160405180910390a292915050565b60005b8151811015610de257610dd0828281518110610dc357610dc3611920565b6020026020010151610704565b80610dda8161195f565b915050610da5565b5050565b6000546001600160a01b03163314610e105760405162461bcd60e51b81526004016105599061198f565b610e3c7f000000000000000000000000000000000000000000000000000000000000000033308461152a565b60008281526005602052604081208054839290610e5a9084906118e8565b9091555050600654821115610e6f5760068290555b604080518381526020810183905233917fc3991418cacd70a010fce559a44fcbb47534ca43bf7543964bdca2639f6e6e5a9101610a8b565b60036020528160005260406000208160028110610ec357600080fd5b01549150829050565b6000610ef960017f00000000000000000000000000000000000000000000000000000000000000006119b2565b60ff1660017f000000000000000000000000000000000000000000000000000000000000000060ff16600185610f2f91906119b2565b60ff16610f5d60017f0000000000000000000000000000000000000000000000000000000000000000611936565b610f679190611978565b610f7191906118e8565b610f7b9190611936565b610f859085611978565b610f8f91906118c6565b9392505050565b3360009081526008602052604081205460609190819067ffffffffffffffff811115610fc457610fc46116f4565b604051908082528060200260200182016040528015610fed578160200160208202803683370190505b5090506000610ffe610258426118c6565b3360009081526008602052604081205491925090815b336000908152600860205260409020548110156110e75733600090815260086020526040812080548390811061104c5761104c611920565b9060005260206000200154905084600760008381526020019081526020016000206003015411156110a7578086858151811061108a5761108a611920565b60209081029190910101528361109f8161195f565b9450506110d4565b826110b1816119cb565b935050808684815181106110c7576110c7611920565b6020026020010181815250505b50806110df8161195f565b915050611014565b5092959294509192505050565b6000806000806000807f00000000000000000000000000000000000000000000000000000000000000006001600160a01b03166399fbab88886040518263ffffffff1660e01b815260040161114b91815260200190565b61018060405180830381865afa158015611169573d6000803e3d6000fd5b505050506040513d601f19601f8201168201806040525081019061118d9190611a2e565b50505050975097509750509650965050507f00000000000000000000000000000000000000000000000000000000000000006001600160a01b0316856001600160a01b031614801561121057507f00000000000000000000000000000000000000000000000000000000000000006001600160a01b0316846001600160a01b0316145b61124c5760405162461bcd60e51b815260206004820152600d60248201526c3638103830b4b91032b93937b960991b6044820152606401610559565b600283900b620d89e719148015611274575061126b620d89e719611b0f565b60020b8260020b145b6112b35760405162461bcd60e51b815260206004820152601060248201526f3a34b1b5903930b733b29032b93937b960811b6044820152606401610559565b60405163020604bf60e21b81526004810188905230906001600160a01b037f0000000000000000000000000000000000000000000000000000000000000000169063081812fc90602401602060405180830381865afa15801561131a573d6000803e3d6000fd5b505050506040513d601f19601f8201168201806040525081019061133e9190611b31565b6001600160a01b0316146113825760405162461bcd60e51b815260206004820152600b60248201526a6e6f7420617070726f766560a81b6044820152606401610559565b604051632142170760e11b8152336004820152306024820152604481018890527f00000000000000000000000000000000000000000000000000000000000000006001600160a01b0316906342842e0e90606401600060405180830381600087803b1580156113f057600080fd5b505af1158015611404573d6000803e3d6000fd5b50506001600160801b0390921698975050505050505050565b604080516001600160a01b038481166024830152604480830185905283518084039091018152606490920183526020820180516001600160e01b031663a9059cbb60e01b17905291516000928392908716916114799190611b4e565b6000604051808303816000865af19150503d80600081146114b6576040519150601f19603f3d011682016040523d82523d6000602084013e6114bb565b606091505b50915091508180156114e55750805115806114e55750808060200190518101906114e59190611b7d565b6115235760405162461bcd60e51b815260206004820152600f60248201526e1514905394d1915497d19052531151608a1b6044820152606401610559565b5050505050565b604080516001600160a01b0385811660248301528481166044830152606480830185905283518084039091018152608490920183526020820180516001600160e01b03166323b872dd60e01b179052915160009283929088169161158e9190611b4e565b6000604051808303816000865af19150503d80600081146115cb576040519150601f19603f3d011682016040523d82523d6000602084013e6115d0565b606091505b50915091508180156115fa5750805115806115fa5750808060200190518101906115fa9190611b7d565b61163c5760405162461bcd60e51b81526020600482015260136024820152721d1c985b9cd9995c919c9bdb4819985a5b1959606a1b6044820152606401610559565b505050505050565b60006020828403121561165657600080fd5b5035919050565b6000806040838503121561167057600080fd5b82359150602083013560ff8116811461168857600080fd5b809150509250929050565b6001600160a01b03811681146116a857600080fd5b50565b600080604083850312156116be57600080fd5b82356116c981611693565b946020939093013593505050565b6000602082840312156116e957600080fd5b8135610f8f81611693565b634e487b7160e01b600052604160045260246000fd5b600082601f83011261171b57600080fd5b8135602067ffffffffffffffff80831115611738576117386116f4565b8260051b604051601f19603f8301168101818110848211171561175d5761175d6116f4565b60405293845285810183019383810192508785111561177b57600080fd5b83870191505b8482101561179a57813583529183019190830190611781565b979650505050505050565b600080604083850312156117b857600080fd5b823567ffffffffffffffff808211156117d057600080fd5b6117dc8683870161170a565b935060208501359150808211156117f257600080fd5b506117ff8582860161170a565b9150509250929050565b60006020828403121561181b57600080fd5b813567ffffffffffffffff81111561183257600080fd5b61183e8482850161170a565b949350505050565b6000806040838503121561185957600080fd5b50508035926020909101359150565b604080825283519082018190526000906020906060840190828701845b828110156118a157815184529284019290840190600101611885565b50505092019290925292915050565b634e487b7160e01b600052601160045260246000fd5b6000826118e357634e487b7160e01b600052601260045260246000fd5b500490565b808201808211156118fb576118fb6118b0565b92915050565b600060ff821660ff8103611917576119176118b0565b60010192915050565b634e487b7160e01b600052603260045260246000fd5b818103818111156118fb576118fb6118b0565b634e487b7160e01b600052603160045260246000fd5b600060018201611971576119716118b0565b5060010190565b80820281158282048414176118fb576118fb6118b0565b6020808252600990820152683337b93134b23232b760b91b604082015260600190565b60ff82811682821603908111156118fb576118fb6118b0565b6000816119da576119da6118b0565b506000190190565b80516119ed81611693565b919050565b805162ffffff811681146119ed57600080fd5b8051600281900b81146119ed57600080fd5b80516001600160801b03811681146119ed57600080fd5b6000806000806000806000806000806000806101808d8f031215611a5157600080fd5b8c516bffffffffffffffffffffffff81168114611a6d57600080fd5b9b50611a7b60208e016119e2565b9a50611a8960408e016119e2565b9950611a9760608e016119e2565b9850611aa560808e016119f2565b9750611ab360a08e01611a05565b9650611ac160c08e01611a05565b9550611acf60e08e01611a17565b94506101008d015193506101208d01519250611aee6101408e01611a17565b9150611afd6101608e01611a17565b90509295989b509295989b509295989b565b60008160020b627fffff198103611b2857611b286118b0565b60000392915050565b600060208284031215611b4357600080fd5b8151610f8f81611693565b6000825160005b81811015611b6f5760208186018101518583015201611b55565b506000920191825250919050565b600060208284031215611b8f57600080fd5b81518015158114610f8f57600080fdfea26469706673582212200b0fcfb2372bb21d8468394092363b1c03c5bdcf8d47208d15fc21c52a61886364736f6c63430008110033",
  "linkReferences": {},
  "deployedLinkReferences": {}
}