{
  "_format": "hh-sol-artifact-1",
  "contractName": "StakeNFT721",
  "sourceName": "contracts/stakeNFT721.sol",
  "abi": [
    {
      "inputs": [
        {
          "internalType": "uint8",
          "name": "maxWeeks",
          "type": "uint8"
        },
        {
          "internalType": "uint256",
          "name": "maxScale",
          "type": "uint256"
        },
        {
          "internalType": "uint8",
          "name": "lockWeeks",
          "type": "uint8"
        },
        {
          "internalType": "uint256",
          "name": "beginTime",
          "type": "uint256"
        },
        {
          "internalType": "uint256",
          "name": "endTime",
          "type": "uint256"
        },
        {
          "internalType": "address",
          "name": "_rewardToken",
          "type": "address"
        },
        {
          "internalType": "address",
          "name": "tokenA",
          "type": "address"
        },
        {
          "internalType": "address",
          "name": "tokenB",
          "type": "address"
        },
        {
          "internalType": "uint24",
          "name": "_fee",
          "type": "uint24"
        },
        {
          "internalType": "address",
          "name": "nft",
          "type": "address"
        },
        {
          "internalType": "int24",
          "name": "tickMax",
          "type": "int24"
        }
      ],
      "stateMutability": "nonpayable",
      "type": "constructor"
    },
    {
      "anonymous": false,
      "inputs": [
        {
          "indexed": true,
          "internalType": "address",
          "name": "user",
          "type": "address"
        },
        {
          "indexed": false,
          "internalType": "uint256",
          "name": "amount",
          "type": "uint256"
        }
      ],
      "name": "ClaimReward",
      "type": "event"
    },
    {
      "anonymous": false,
      "inputs": [
        {
          "indexed": true,
          "internalType": "address",
          "name": "user",
          "type": "address"
        },
        {
          "indexed": false,
          "internalType": "uint256",
          "name": "no",
          "type": "uint256"
        },
        {
          "indexed": false,
          "internalType": "uint256",
          "name": "amount",
          "type": "uint256"
        }
      ],
      "name": "SetReward",
      "type": "event"
    },
    {
      "anonymous": false,
      "inputs": [
        {
          "indexed": true,
          "internalType": "address",
          "name": "user",
          "type": "address"
        },
        {
          "indexed": false,
          "internalType": "uint256",
          "name": "tokenId",
          "type": "uint256"
        },
        {
          "indexed": false,
          "internalType": "uint256",
          "name": "amount",
          "type": "uint256"
        },
        {
          "indexed": false,
          "internalType": "uint8",
          "name": "k",
          "type": "uint8"
        }
      ],
      "name": "Stake",
      "type": "event"
    },
    {
      "anonymous": false,
      "inputs": [
        {
          "indexed": true,
          "internalType": "address",
          "name": "user",
          "type": "address"
        },
        {
          "indexed": false,
          "internalType": "uint256",
          "name": "tokenId",
          "type": "uint256"
        }
      ],
      "name": "Withdraw",
      "type": "event"
    },
    {
      "inputs": [],
      "name": "BEGIN_TIME",
      "outputs": [
        {
          "internalType": "uint256",
          "name": "",
          "type": "uint256"
        }
      ],
      "stateMutability": "view",
      "type": "function"
    },
    {
      "inputs": [],
      "name": "END_TIME",
      "outputs": [
        {
          "internalType": "uint256",
          "name": "",
          "type": "uint256"
        }
      ],
      "stateMutability": "view",
      "type": "function"
    },
    {
      "inputs": [],
      "name": "LOCK_WEEKNUM",
      "outputs": [
        {
          "internalType": "uint8",
          "name": "",
          "type": "uint8"
        }
      ],
      "stateMutability": "view",
      "type": "function"
    },
    {
      "inputs": [],
      "name": "MAX_SCALE",
      "outputs": [
        {
          "internalType": "uint256",
          "name": "",
          "type": "uint256"
        }
      ],
      "stateMutability": "view",
      "type": "function"
    },
    {
      "inputs": [],
      "name": "MAX_TICK",
      "outputs": [
        {
          "internalType": "int24",
          "name": "",
          "type": "int24"
        }
      ],
      "stateMutability": "view",
      "type": "function"
    },
    {
      "inputs": [],
      "name": "MAX_WEEKS",
      "outputs": [
        {
          "internalType": "uint8",
          "name": "",
          "type": "uint8"
        }
      ],
      "stateMutability": "view",
      "type": "function"
    },
    {
      "inputs": [],
      "name": "MIN_TICK",
      "outputs": [
        {
          "internalType": "int24",
          "name": "",
          "type": "int24"
        }
      ],
      "stateMutability": "view",
      "type": "function"
    },
    {
      "inputs": [],
      "name": "WEEK_SECONDS",
      "outputs": [
        {
          "internalType": "uint24",
          "name": "",
          "type": "uint24"
        }
      ],
      "stateMutability": "view",
      "type": "function"
    },
    {
      "inputs": [],
      "name": "acceptSetter",
      "outputs": [],
      "stateMutability": "nonpayable",
      "type": "function"
    },
    {
      "inputs": [],
      "name": "canClaimAmount",
      "outputs": [
        {
          "internalType": "uint256",
          "name": "",
          "type": "uint256"
        }
      ],
      "stateMutability": "view",
      "type": "function"
    },
    {
      "inputs": [],
      "name": "claimReward",
      "outputs": [],
      "stateMutability": "nonpayable",
      "type": "function"
    },
    {
      "inputs": [],
      "name": "fee",
      "outputs": [
        {
          "internalType": "uint24",
          "name": "",
          "type": "uint24"
        }
      ],
      "stateMutability": "view",
      "type": "function"
    },
    {
      "inputs": [
        {
          "internalType": "uint256",
          "name": "amount",
          "type": "uint256"
        },
        {
          "internalType": "uint8",
          "name": "k",
          "type": "uint8"
        }
      ],
      "name": "getScore",
      "outputs": [
        {
          "internalType": "uint256",
          "name": "score",
          "type": "uint256"
        }
      ],
      "stateMutability": "view",
      "type": "function"
    },
    {
      "inputs": [],
      "name": "getUserNFTs",
      "outputs": [
        {
          "internalType": "uint256[]",
          "name": "",
          "type": "uint256[]"
        },
        {
          "internalType": "uint256",
          "name": "",
          "type": "uint256"
        }
      ],
      "stateMutability": "view",
      "type": "function"
    },
    {
      "inputs": [],
      "name": "latestNo",
      "outputs": [
        {
          "internalType": "uint256",
          "name": "",
          "type": "uint256"
        }
      ],
      "stateMutability": "view",
      "type": "function"
    },
    {
      "inputs": [],
      "name": "lockedRewardAmount",
      "outputs": [
        {
          "internalType": "uint256",
          "name": "",
          "type": "uint256"
        },
        {
          "internalType": "uint256[]",
          "name": "",
          "type": "uint256[]"
        }
      ],
      "stateMutability": "view",
      "type": "function"
    },
    {
      "inputs": [],
      "name": "nftToken",
      "outputs": [
        {
          "internalType": "contract IIotabeeSwapNFT",
          "name": "",
          "type": "address"
        }
      ],
      "stateMutability": "view",
      "type": "function"
    },
    {
      "inputs": [
        {
          "internalType": "address",
          "name": "",
          "type": "address"
        },
        {
          "internalType": "address",
          "name": "",
          "type": "address"
        },
        {
          "internalType": "uint256",
          "name": "",
          "type": "uint256"
        },
        {
          "internalType": "bytes",
          "name": "",
          "type": "bytes"
        }
      ],
      "name": "onERC721Received",
      "outputs": [
        {
          "internalType": "bytes4",
          "name": "",
          "type": "bytes4"
        }
      ],
      "stateMutability": "pure",
      "type": "function"
    },
    {
      "inputs": [],
      "name": "owner",
      "outputs": [
        {
          "internalType": "address",
          "name": "",
          "type": "address"
        }
      ],
      "stateMutability": "view",
      "type": "function"
    },
    {
      "inputs": [],
      "name": "rewardToken",
      "outputs": [
        {
          "internalType": "address",
          "name": "",
          "type": "address"
        }
      ],
      "stateMutability": "view",
      "type": "function"
    },
    {
      "inputs": [
        {
          "internalType": "uint256",
          "name": "",
          "type": "uint256"
        }
      ],
      "name": "rewardsOf",
      "outputs": [
        {
          "internalType": "uint256",
          "name": "",
          "type": "uint256"
        }
      ],
      "stateMutability": "view",
      "type": "function"
    },
    {
      "inputs": [
        {
          "internalType": "uint256",
          "name": "no",
          "type": "uint256"
        },
        {
          "internalType": "uint256",
          "name": "amount",
          "type": "uint256"
        }
      ],
      "name": "setReward",
      "outputs": [],
      "stateMutability": "nonpayable",
      "type": "function"
    },
    {
      "inputs": [
        {
          "internalType": "uint256[]",
          "name": "nos",
          "type": "uint256[]"
        },
        {
          "internalType": "uint256[]",
          "name": "amounts",
          "type": "uint256[]"
        }
      ],
      "name": "setRewards",
      "outputs": [
        {
          "internalType": "uint256",
          "name": "total",
          "type": "uint256"
        }
      ],
      "stateMutability": "nonpayable",
      "type": "function"
    },
    {
      "inputs": [
        {
          "internalType": "uint256",
          "name": "tokenId",
          "type": "uint256"
        },
        {
          "internalType": "uint8",
          "name": "k",
          "type": "uint8"
        }
      ],
      "name": "stake",
      "outputs": [],
      "stateMutability": "nonpayable",
      "type": "function"
    },
    {
      "inputs": [
        {
          "internalType": "uint256",
          "name": "",
          "type": "uint256"
        }
      ],
      "name": "stakingNFTs",
      "outputs": [
        {
          "internalType": "address",
          "name": "owner",
          "type": "address"
        },
        {
          "internalType": "uint256",
          "name": "score",
          "type": "uint256"
        },
        {
          "internalType": "uint256",
          "name": "beginNo",
          "type": "uint256"
        },
        {
          "internalType": "uint256",
          "name": "endNo",
          "type": "uint256"
        }
      ],
      "stateMutability": "view",
      "type": "function"
    },
    {
      "inputs": [],
      "name": "token0",
      "outputs": [
        {
          "internalType": "address",
          "name": "",
          "type": "address"
        }
      ],
      "stateMutability": "view",
      "type": "function"
    },
    {
      "inputs": [],
      "name": "token1",
      "outputs": [
        {
          "internalType": "address",
          "name": "",
          "type": "address"
        }
      ],
      "stateMutability": "view",
      "type": "function"
    },
    {
      "inputs": [
        {
          "internalType": "uint256",
          "name": "",
          "type": "uint256"
        }
      ],
      "name": "totalScores",
      "outputs": [
        {
          "internalType": "uint256",
          "name": "",
          "type": "uint256"
        }
      ],
      "stateMutability": "view",
      "type": "function"
    },
    {
      "inputs": [
        {
          "internalType": "address",
          "name": "_owner",
          "type": "address"
        }
      ],
      "name": "transferOwner",
      "outputs": [],
      "stateMutability": "nonpayable",
      "type": "function"
    },
    {
      "inputs": [
        {
          "internalType": "address",
          "name": "",
          "type": "address"
        },
        {
          "internalType": "uint256",
          "name": "",
          "type": "uint256"
        }
      ],
      "name": "userCanClaimWeeks",
      "outputs": [
        {
          "internalType": "uint256",
          "name": "",
          "type": "uint256"
        }
      ],
      "stateMutability": "view",
      "type": "function"
    },
    {
      "inputs": [
        {
          "internalType": "address",
          "name": "",
          "type": "address"
        },
        {
          "internalType": "uint256",
          "name": "",
          "type": "uint256"
        }
      ],
      "name": "userNFTs",
      "outputs": [
        {
          "internalType": "uint256",
          "name": "",
          "type": "uint256"
        }
      ],
      "stateMutability": "view",
      "type": "function"
    },
    {
      "inputs": [
        {
          "internalType": "address",
          "name": "",
          "type": "address"
        },
        {
          "internalType": "uint256",
          "name": "",
          "type": "uint256"
        }
      ],
      "name": "userScores",
      "outputs": [
        {
          "internalType": "uint256",
          "name": "",
          "type": "uint256"
        }
      ],
      "stateMutability": "view",
      "type": "function"
    },
    {
      "inputs": [
        {
          "internalType": "uint256",
          "name": "tokenId",
          "type": "uint256"
        }
      ],
      "name": "withdraw",
      "outputs": [],
      "stateMutability": "nonpayable",
      "type": "function"
    },
    {
      "inputs": [
        {
          "internalType": "uint256[]",
          "name": "tokenIds",
          "type": "uint256[]"
        }
      ],
      "name": "withdraw",
      "outputs": [],
      "stateMutability": "nonpayable",
      "type": "function"
    },
    {
      "inputs": [
        {
          "internalType": "uint256",
          "name": "amount",
          "type": "uint256"
        }
      ],
      "name": "withdrawRewards",
      "outputs": [],
      "stateMutability": "nonpayable",
      "type": "function"
    }
  ],
  "bytecode": "0x6102006040523480156200001257600080fd5b50604051620026653803806200266583398101604081905262000035916200010c565b6001600160a01b0380871660805260ff808d1660a05260c08c90528a1660e052610100899052610120889052600080546001600160a01b0319163317905584811690861610620000875783856200008a565b84845b6001600160a01b039081166101c0529081166101a05262ffffff84166101e052821661018052600281900b61016052620000c481620001e6565b60020b6101405250620002179950505050505050505050565b805160ff81168114620000ef57600080fd5b919050565b80516001600160a01b0381168114620000ef57600080fd5b60008060008060008060008060008060006101608c8e0312156200012f57600080fd5b6200013a8c620000dd565b9a5060208c015199506200015160408d01620000dd565b985060608c0151975060808c015196506200016f60a08d01620000f4565b95506200017f60c08d01620000f4565b94506200018f60e08d01620000f4565b93506101008c015162ffffff81168114620001a957600080fd5b9250620001ba6101208d01620000f4565b91506101408c01518060020b8114620001d257600080fd5b809150509295989b509295989b9093969950565b60008160020b627fffff1981036200020e57634e487b7160e01b600052601160045260246000fd5b60000392915050565b60805160a05160c05160e05161010051610120516101405161016051610180516101a0516101c0516101e05161230d62000358600039600081816105c2015261180c01526000818161059b01526117c9015260008181610287015261178d01526000818161057401528181610acf015281816116eb0152818161192701526119f801526000818161043701526118a00152600081816104db01526118700152600081816103ca01528181610f7a01526111ff01526000818161053001528181610fa5015261122a01526000818161024e01528181610c2201528181610d1201528181610eb8015261133101526000818161062301526115230152600081816105e901528181610692015281816114bf01526114ea01526000818161064a01528181610f2401528181611125015281816112920152611439015261230d6000f3fe608060405234801561001057600080fd5b50600436106102115760003560e01c80638da5cb5b11610125578063cd671a58116100ad578063e11400bb1161007c578063e11400bb146105e4578063ee3453ed1461060b578063f6def7cf1461061e578063f7c618c114610645578063fdc5ab8e1461066c57600080fd5b8063cd671a5814610552578063d06fcba81461056f578063d21220a714610596578063ddca3f43146105bd57600080fd5b8063a1634b14116100f4578063a1634b14146104d6578063a47bd496146104fd578063b88a802f14610510578063bb57852d14610518578063c75363b61461052b57600080fd5b80638da5cb5b1461048a5780639342c8f41461049d578063979db1c4146104b0578063983d95ce146104c357600080fd5b806329ed1cfd116101a85780635b680a45116101775780635b680a45146103ff5780635f8e422f1461042a5780636882a888146104325780638431165e1461046c5780638923de2b1461047457600080fd5b806329ed1cfd146103a95780632e1a7d4d146103b257806337ba682d146103c55780634fb2e45d146103ec57600080fd5b806310c6c1c2116101e457806310c6c1c2146102d6578063150b7a021461033f578063157775df14610376578063291c73c31461039657600080fd5b80630bce1284146102165780630d437d40146102495780630dfe16811461028257806310087fb1146102c1575b600080fd5b610236610224366004611c99565b60056020526000908152604090205481565b6040519081526020015b60405180910390f35b6102707f000000000000000000000000000000000000000000000000000000000000000081565b60405160ff9091168152602001610240565b6102a97f000000000000000000000000000000000000000000000000000000000000000081565b6040516001600160a01b039091168152602001610240565b6102d46102cf366004611cb2565b610682565b005b6103156102e4366004611c99565b60076020526000908152604090208054600182015460028301546003909301546001600160a01b0390921692909184565b604080516001600160a01b0390951685526020850193909352918301526060820152608001610240565b61035d61034d366004611d44565b630a85bd0160e11b949350505050565b6040516001600160e01b03199091168152602001610240565b610236610384366004611c99565b60046020526000908152604090205481565b6102366103a4366004611e08565b61090c565b61023660065481565b6102d46103c0366004611c99565b61093d565b6102367f000000000000000000000000000000000000000000000000000000000000000081565b6102d46103fa366004611e34565b610b7e565b61023661040d366004611e08565b600260209081526000928352604080842090915290825290205481565b6102d4610bca565b6104597f000000000000000000000000000000000000000000000000000000000000000081565b60405160029190910b8152602001610240565b610236610c1b565b61047c610d09565b604051610240929190611e8c565b6000546102a9906001600160a01b031681565b6102d46104ab366004611c99565b610ef5565b6102366104be366004611f2d565b610f4d565b6102d46104d1366004611f91565b61118f565b6104597f000000000000000000000000000000000000000000000000000000000000000081565b6102d461050b366004611fc6565b6111d3565b6102d461132b565b610236610526366004611e08565b611491565b6102367f000000000000000000000000000000000000000000000000000000000000000081565b61055b61025881565b60405162ffffff9091168152602001610240565b6102a97f000000000000000000000000000000000000000000000000000000000000000081565b6102a97f000000000000000000000000000000000000000000000000000000000000000081565b61055b7f000000000000000000000000000000000000000000000000000000000000000081565b6102707f000000000000000000000000000000000000000000000000000000000000000081565b610236610619366004611cb2565b6114b6565b6102367f000000000000000000000000000000000000000000000000000000000000000081565b6102a97f000000000000000000000000000000000000000000000000000000000000000081565b610674611580565b604051610240929190611fe8565b60008160ff161180156106bb57507f000000000000000000000000000000000000000000000000000000000000000060ff168160ff1611155b6107005760405162461bcd60e51b815260206004820152601160248201527039ba30b5b2903bb2b2b5b99032b93937b960791b60448201526064015b60405180910390fd5b600061070b836116de565b9050600061071b61025842612020565b610726906001612042565b9050600061073483856114b6565b905060005b8460ff168160ff1610156107ce57816004600061075960ff851687612042565b815260200190815260200160002060008282546107769190612042565b9091555050336000908152600260205260408120839161079960ff851687612042565b815260200190815260200160002060008282546107b69190612042565b909155508190506107c68161205b565b915050610739565b5060006107de60ff861684612042565b604080516080810182523380825260208083018781528385018981526060850187815260008e815260078552878120965187546001600160a01b0319166001600160a01b0390911617875592516001808801919091559151600287015551600395860155928152929052919020908101549054919250900361086d573360009081526003602052604090208390555b336000908152600360205260409020819060010154101561089e573360009081526003602052604090208190600101555b336000818152600860209081526040808320805460018101825590845292829020909201899055815189815290810187905260ff88168183015290517f6fa2f6021ee337436cdf2b2570285886da18bc06402ce284d296504a0fe8f8759181900360600190a2505050505050565b6008602052816000526040600020818154811061092857600080fd5b90600052602060002001600091509150505481565b6000818152600760205260409020546001600160a01b031633146109955760405162461bcd60e51b815260206004820152600f60248201526e37bbb732b9103337b93134b23232b760891b60448201526064016106f7565b60006109a361025842612020565b6000838152600760205260409020600301549091508110156109f55760405162461bcd60e51b815260206004820152600b60248201526a6c6f636b65642074696d6560a81b60448201526064016106f7565b336000908152600860205260408120905b8154811015610b4257818181548110610a2157610a2161207a565b90600052602060002001548403610b305781548290610a4290600190612090565b81548110610a5257610a5261207a565b9060005260206000200154828281548110610a6f57610a6f61207a565b906000526020600020018190555081805480610a8d57610a8d6120a3565b600082815260208120820160001990810191909155019055604051632142170760e11b8152306004820152336024820152604481018590526001600160a01b037f000000000000000000000000000000000000000000000000000000000000000016906342842e0e90606401600060405180830381600087803b158015610b1357600080fd5b505af1158015610b27573d6000803e3d6000fd5b50505050610b42565b80610b3a816120b9565b915050610a06565b5060405183815233907f884edad9ce6fa2440d8a54cc123490eb96d2768479d49ff9c7366125a9424364906020015b60405180910390a2505050565b6000546001600160a01b03163314610ba85760405162461bcd60e51b81526004016106f7906120d2565b600180546001600160a01b0319166001600160a01b0392909216919091179055565b6001546001600160a01b03163314610bf45760405162461bcd60e51b81526004016106f7906120d2565b60018054600080546001600160a01b03199081166001600160a01b03841617909155169055565b60008060ff7f000000000000000000000000000000000000000000000000000000000000000016610c4e61025842612020565b610c589190612090565b33600090815260036020526040812054919250905b33600090815260036020526040902060010154811015610d0257828111610d025760008181526004602052604090205415610cf057600081815260046020908152604080832054338452600283528184208585528352818420546005909352922054610cd991906120f5565b610ce39190612020565b610ced9083612042565b91505b80610cfa816120b9565b915050610c6d565b5092915050565b600060608160ff7f000000000000000000000000000000000000000000000000000000000000000016610d3e61025842612020565b610d489190612090565b610d53906001612042565b33600090815260036020526040902090915081906001015411610d885760408051600081526020810190915290939092509050565b33600090815260036020526040812080546001909101549091838311610dae5783610db0565b825b90506000610dbe8284612090565b67ffffffffffffffff811115610dd657610dd6611cfd565b604051908082528060200260200182016040528015610dff578160200160208202803683370190505b509050815b83811015610ea15760008181526004602052604090205415610e6657600081815260046020908152604080832054338452600283528184208585528352818420546005909352922054610e5791906120f5565b610e619190612020565b610e69565b60005b82610e748584612090565b81518110610e8457610e8461207a565b602090810291909101015280610e99816120b9565b915050610e04565b506000610eb061025842612020565b610edd8460ff7f000000000000000000000000000000000000000000000000000000000000000016612042565b610ee79190612090565b989197509095505050505050565b6000546001600160a01b03163314610f1f5760405162461bcd60e51b81526004016106f7906120d2565b610f4a7f00000000000000000000000000000000000000000000000000000000000000003383611a72565b50565b600080546001600160a01b03163314610f785760405162461bcd60e51b81526004016106f7906120d2565b7f00000000000000000000000000000000000000000000000000000000000000004211158015610fc857507f00000000000000000000000000000000000000000000000000000000000000004210155b6110085760405162461bcd60e51b81526020600482015260116024820152701b9bdd081a5b881d1a19481c195c9a5bd9607a1b60448201526064016106f7565b815183511461104c5760405162461bcd60e51b815260206004820152601060248201526f3830b930b6b2ba32b9399032b93937b960811b60448201526064016106f7565b6000805b845181101561111a5783818151811061106b5761106b61207a565b60200260200101518361107e9190612042565b92508381815181106110925761109261207a565b6020026020010151600560008784815181106110b0576110b061207a565b6020026020010151815260200190815260200160002081905550818582815181106110dd576110dd61207a565b60200260200101511115611108578481815181106110fd576110fd61207a565b602002602001015191505b80611112816120b9565b915050611050565b50600681905561114c7f0000000000000000000000000000000000000000000000000000000000000000333085611b7f565b60408051600081526020810184905233917fc3991418cacd70a010fce559a44fcbb47534ca43bf7543964bdca2639f6e6e5a910160405180910390a25092915050565b60005b81518110156111cf576111bd8282815181106111b0576111b061207a565b602002602001015161093d565b806111c7816120b9565b915050611192565b5050565b6000546001600160a01b031633146111fd5760405162461bcd60e51b81526004016106f7906120d2565b7f0000000000000000000000000000000000000000000000000000000000000000421115801561124d57507f00000000000000000000000000000000000000000000000000000000000000004210155b61128d5760405162461bcd60e51b81526020600482015260116024820152701b9bdd081a5b881d1a19481c195c9a5bd9607a1b60448201526064016106f7565b6112b97f0000000000000000000000000000000000000000000000000000000000000000333084611b7f565b600082815260056020526040812080548392906112d7908490612042565b90915550506006548211156112ec5760068290555b604080518381526020810183905233917fc3991418cacd70a010fce559a44fcbb47534ca43bf7543964bdca2639f6e6e5a910160405180910390a25050565b600060ff7f00000000000000000000000000000000000000000000000000000000000000001661135d61025842612020565b6113679190612090565b3360009081526003602052604081205491925090805b3360009081526003602052604090206001015481101561142057838111611420576113a9816001612042565b6000828152600460205260409020549092501561140e576000818152600460209081526040808320543384526002835281842085855283528184205460059093529220546113f791906120f5565b6114019190612020565b61140b9084612042565b92505b80611418816120b9565b91505061137d565b503360009081526003602052604081208291015561145f7f00000000000000000000000000000000000000000000000000000000000000003384611a72565b60405182815233907fba8de60c3403ec381d1d484652ea1980e3c3e56359195c92525bff4ce47ad98e90602001610b71565b600360205281600052604060002081600281106114ad57600080fd5b01549150829050565b60006114e360017f000000000000000000000000000000000000000000000000000000000000000061210c565b60ff1660017f000000000000000000000000000000000000000000000000000000000000000060ff16600185611519919061210c565b60ff1661154760017f0000000000000000000000000000000000000000000000000000000000000000612090565b61155191906120f5565b61155b9190612042565b6115659190612090565b61156f90856120f5565b6115799190612020565b9392505050565b3360009081526008602052604081205460609190819067ffffffffffffffff8111156115ae576115ae611cfd565b6040519080825280602002602001820160405280156115d7578160200160208202803683370190505b50905060006115e861025842612020565b3360009081526008602052604081205491925090815b336000908152600860205260409020548110156116d1573360009081526008602052604081208054839081106116365761163661207a565b90600052602060002001549050846007600083815260200190815260200160002060030154111561169157808685815181106116745761167461207a565b602090810291909101015283611689816120b9565b9450506116be565b8261169b81612125565b935050808684815181106116b1576116b161207a565b6020026020010181815250505b50806116c9816120b9565b9150506115fe565b5092959294509192505050565b60008060008060008060007f00000000000000000000000000000000000000000000000000000000000000006001600160a01b03166399fbab88896040518263ffffffff1660e01b815260040161173791815260200190565b61018060405180830381865afa158015611755573d6000803e3d6000fd5b505050506040513d601f19601f820116820180604052508101906117799190612188565b5050505097509750975097509750975050507f00000000000000000000000000000000000000000000000000000000000000006001600160a01b0316866001600160a01b03161480156117fd57507f00000000000000000000000000000000000000000000000000000000000000006001600160a01b0316856001600160a01b0316145b801561183257508362ffffff167f000000000000000000000000000000000000000000000000000000000000000062ffffff16145b61186e5760405162461bcd60e51b815260206004820152600d60248201526c3638103830b4b91032b93937b960991b60448201526064016106f7565b7f000000000000000000000000000000000000000000000000000000000000000060020b8360020b1480156118c857507f000000000000000000000000000000000000000000000000000000000000000060020b8260020b145b6119075760405162461bcd60e51b815260206004820152601060248201526f3a34b1b5903930b733b29032b93937b960811b60448201526064016106f7565b60405163020604bf60e21b81526004810189905230906001600160a01b037f0000000000000000000000000000000000000000000000000000000000000000169063081812fc90602401602060405180830381865afa15801561196e573d6000803e3d6000fd5b505050506040513d601f19601f820116820180604052508101906119929190612269565b6001600160a01b0316146119d65760405162461bcd60e51b815260206004820152600b60248201526a6e6f7420617070726f766560a81b60448201526064016106f7565b604051632142170760e11b8152336004820152306024820152604481018990527f00000000000000000000000000000000000000000000000000000000000000006001600160a01b0316906342842e0e90606401600060405180830381600087803b158015611a4457600080fd5b505af1158015611a58573d6000803e3d6000fd5b50506001600160801b039092169998505050505050505050565b604080516001600160a01b038481166024830152604480830185905283518084039091018152606490920183526020820180516001600160e01b031663a9059cbb60e01b1790529151600092839290871691611ace9190612286565b6000604051808303816000865af19150503d8060008114611b0b576040519150601f19603f3d011682016040523d82523d6000602084013e611b10565b606091505b5091509150818015611b3a575080511580611b3a575080806020019051810190611b3a91906122b5565b611b785760405162461bcd60e51b815260206004820152600f60248201526e1514905394d1915497d19052531151608a1b60448201526064016106f7565b5050505050565b604080516001600160a01b0385811660248301528481166044830152606480830185905283518084039091018152608490920183526020820180516001600160e01b03166323b872dd60e01b1790529151600092839290881691611be39190612286565b6000604051808303816000865af19150503d8060008114611c20576040519150601f19603f3d011682016040523d82523d6000602084013e611c25565b606091505b5091509150818015611c4f575080511580611c4f575080806020019051810190611c4f91906122b5565b611c915760405162461bcd60e51b81526020600482015260136024820152721d1c985b9cd9995c919c9bdb4819985a5b1959606a1b60448201526064016106f7565b505050505050565b600060208284031215611cab57600080fd5b5035919050565b60008060408385031215611cc557600080fd5b82359150602083013560ff81168114611cdd57600080fd5b809150509250929050565b6001600160a01b0381168114610f4a57600080fd5b634e487b7160e01b600052604160045260246000fd5b604051601f8201601f1916810167ffffffffffffffff81118282101715611d3c57611d3c611cfd565b604052919050565b60008060008060808587031215611d5a57600080fd5b8435611d6581611ce8565b9350602085810135611d7681611ce8565b935060408601359250606086013567ffffffffffffffff80821115611d9a57600080fd5b818801915088601f830112611dae57600080fd5b813581811115611dc057611dc0611cfd565b611dd2601f8201601f19168501611d13565b91508082528984828501011115611de857600080fd5b808484018584013760008482840101525080935050505092959194509250565b60008060408385031215611e1b57600080fd5b8235611e2681611ce8565b946020939093013593505050565b600060208284031215611e4657600080fd5b813561157981611ce8565b600081518084526020808501945080840160005b83811015611e8157815187529582019590820190600101611e65565b509495945050505050565b828152604060208201526000611ea56040830184611e51565b949350505050565b600082601f830112611ebe57600080fd5b8135602067ffffffffffffffff821115611eda57611eda611cfd565b8160051b611ee9828201611d13565b9283528481018201928281019087851115611f0357600080fd5b83870192505b84831015611f2257823582529183019190830190611f09565b979650505050505050565b60008060408385031215611f4057600080fd5b823567ffffffffffffffff80821115611f5857600080fd5b611f6486838701611ead565b93506020850135915080821115611f7a57600080fd5b50611f8785828601611ead565b9150509250929050565b600060208284031215611fa357600080fd5b813567ffffffffffffffff811115611fba57600080fd5b611ea584828501611ead565b60008060408385031215611fd957600080fd5b50508035926020909101359150565b604081526000611ffb6040830185611e51565b90508260208301529392505050565b634e487b7160e01b600052601160045260246000fd5b60008261203d57634e487b7160e01b600052601260045260246000fd5b500490565b808201808211156120555761205561200a565b92915050565b600060ff821660ff81036120715761207161200a565b60010192915050565b634e487b7160e01b600052603260045260246000fd5b818103818111156120555761205561200a565b634e487b7160e01b600052603160045260246000fd5b6000600182016120cb576120cb61200a565b5060010190565b6020808252600990820152683337b93134b23232b760b91b604082015260600190565b80820281158282048414176120555761205561200a565b60ff82811682821603908111156120555761205561200a565b6000816121345761213461200a565b506000190190565b805161214781611ce8565b919050565b805162ffffff8116811461214757600080fd5b8051600281900b811461214757600080fd5b80516001600160801b038116811461214757600080fd5b6000806000806000806000806000806000806101808d8f0312156121ab57600080fd5b8c516bffffffffffffffffffffffff811681146121c757600080fd5b9b506121d560208e0161213c565b9a506121e360408e0161213c565b99506121f160608e0161213c565b98506121ff60808e0161214c565b975061220d60a08e0161215f565b965061221b60c08e0161215f565b955061222960e08e01612171565b94506101008d015193506101208d015192506122486101408e01612171565b91506122576101608e01612171565b90509295989b509295989b509295989b565b60006020828403121561227b57600080fd5b815161157981611ce8565b6000825160005b818110156122a7576020818601810151858301520161228d565b506000920191825250919050565b6000602082840312156122c757600080fd5b8151801515811461157957600080fdfea264697066735822122054e173ec7fdbe14b5b91aaf114cecb463adf111f92313da457ecf530e18058b664736f6c63430008110033",
  "linkReferences": {},
  "deployedLinkReferences": {}
}