{
  "_format": "hh-sol-artifact-1",
  "contractName": "StakeNFT721",
  "sourceName": "contracts/stakeNFT721.sol",
  "abi": [
    {
      "inputs": [
        {
          "internalType": "uint8",
          "name": "maxWeeks",
          "type": "uint8"
        },
        {
          "internalType": "uint256",
          "name": "maxScale",
          "type": "uint256"
        },
        {
          "internalType": "uint8",
          "name": "lockWeeks",
          "type": "uint8"
        },
        {
          "internalType": "uint256",
          "name": "beginTime",
          "type": "uint256"
        },
        {
          "internalType": "uint256",
          "name": "endTime",
          "type": "uint256"
        },
        {
          "internalType": "address",
          "name": "_rewardToken",
          "type": "address"
        },
        {
          "internalType": "address",
          "name": "tokenA",
          "type": "address"
        },
        {
          "internalType": "address",
          "name": "tokenB",
          "type": "address"
        },
        {
          "internalType": "address",
          "name": "nft",
          "type": "address"
        }
      ],
      "stateMutability": "nonpayable",
      "type": "constructor"
    },
    {
      "anonymous": false,
      "inputs": [
        {
          "indexed": true,
          "internalType": "address",
          "name": "user",
          "type": "address"
        },
        {
          "indexed": false,
          "internalType": "uint256",
          "name": "tokenId",
          "type": "uint256"
        },
        {
          "indexed": false,
          "internalType": "uint256",
          "name": "amount",
          "type": "uint256"
        }
      ],
      "name": "ClaimReward",
      "type": "event"
    },
    {
      "anonymous": false,
      "inputs": [
        {
          "indexed": true,
          "internalType": "address",
          "name": "user",
          "type": "address"
        },
        {
          "indexed": false,
          "internalType": "uint256",
          "name": "amount",
          "type": "uint256"
        }
      ],
      "name": "ClaimReward",
      "type": "event"
    },
    {
      "anonymous": false,
      "inputs": [
        {
          "indexed": true,
          "internalType": "address",
          "name": "user",
          "type": "address"
        },
        {
          "indexed": false,
          "internalType": "uint256",
          "name": "no",
          "type": "uint256"
        },
        {
          "indexed": false,
          "internalType": "uint256",
          "name": "amount",
          "type": "uint256"
        }
      ],
      "name": "SetReward",
      "type": "event"
    },
    {
      "anonymous": false,
      "inputs": [
        {
          "indexed": true,
          "internalType": "address",
          "name": "user",
          "type": "address"
        },
        {
          "indexed": false,
          "internalType": "uint256",
          "name": "tokenId",
          "type": "uint256"
        },
        {
          "indexed": false,
          "internalType": "uint256",
          "name": "amount",
          "type": "uint256"
        },
        {
          "indexed": false,
          "internalType": "uint8",
          "name": "k",
          "type": "uint8"
        }
      ],
      "name": "Stake",
      "type": "event"
    },
    {
      "anonymous": false,
      "inputs": [
        {
          "indexed": true,
          "internalType": "address",
          "name": "user",
          "type": "address"
        },
        {
          "indexed": false,
          "internalType": "uint256",
          "name": "tokenId",
          "type": "uint256"
        }
      ],
      "name": "Withdraw",
      "type": "event"
    },
    {
      "inputs": [],
      "name": "BEGIN_TIME",
      "outputs": [
        {
          "internalType": "uint256",
          "name": "",
          "type": "uint256"
        }
      ],
      "stateMutability": "view",
      "type": "function"
    },
    {
      "inputs": [],
      "name": "END_TIME",
      "outputs": [
        {
          "internalType": "uint256",
          "name": "",
          "type": "uint256"
        }
      ],
      "stateMutability": "view",
      "type": "function"
    },
    {
      "inputs": [],
      "name": "LOCK_WEEKNUM",
      "outputs": [
        {
          "internalType": "uint8",
          "name": "",
          "type": "uint8"
        }
      ],
      "stateMutability": "view",
      "type": "function"
    },
    {
      "inputs": [],
      "name": "MAX_SCALE",
      "outputs": [
        {
          "internalType": "uint256",
          "name": "",
          "type": "uint256"
        }
      ],
      "stateMutability": "view",
      "type": "function"
    },
    {
      "inputs": [],
      "name": "MAX_WEEKS",
      "outputs": [
        {
          "internalType": "uint8",
          "name": "",
          "type": "uint8"
        }
      ],
      "stateMutability": "view",
      "type": "function"
    },
    {
      "inputs": [],
      "name": "WEEK_SECONDS",
      "outputs": [
        {
          "internalType": "uint24",
          "name": "",
          "type": "uint24"
        }
      ],
      "stateMutability": "view",
      "type": "function"
    },
    {
      "inputs": [],
      "name": "acceptSetter",
      "outputs": [],
      "stateMutability": "nonpayable",
      "type": "function"
    },
    {
      "inputs": [],
      "name": "canClaimAmount",
      "outputs": [
        {
          "internalType": "uint256",
          "name": "",
          "type": "uint256"
        }
      ],
      "stateMutability": "view",
      "type": "function"
    },
    {
      "inputs": [],
      "name": "claimReward",
      "outputs": [],
      "stateMutability": "nonpayable",
      "type": "function"
    },
    {
      "inputs": [
        {
          "internalType": "uint256",
          "name": "amount",
          "type": "uint256"
        },
        {
          "internalType": "uint8",
          "name": "k",
          "type": "uint8"
        }
      ],
      "name": "getScore",
      "outputs": [
        {
          "internalType": "uint256",
          "name": "score",
          "type": "uint256"
        }
      ],
      "stateMutability": "view",
      "type": "function"
    },
    {
      "inputs": [],
      "name": "getUserNFTs",
      "outputs": [
        {
          "internalType": "uint256[]",
          "name": "",
          "type": "uint256[]"
        },
        {
          "internalType": "uint256",
          "name": "",
          "type": "uint256"
        }
      ],
      "stateMutability": "view",
      "type": "function"
    },
    {
      "inputs": [],
      "name": "latestNo",
      "outputs": [
        {
          "internalType": "uint256",
          "name": "",
          "type": "uint256"
        }
      ],
      "stateMutability": "view",
      "type": "function"
    },
    {
      "inputs": [],
      "name": "nftToken",
      "outputs": [
        {
          "internalType": "contract IIotabeeSwapNFT",
          "name": "",
          "type": "address"
        }
      ],
      "stateMutability": "view",
      "type": "function"
    },
    {
      "inputs": [],
      "name": "owner",
      "outputs": [
        {
          "internalType": "address",
          "name": "",
          "type": "address"
        }
      ],
      "stateMutability": "view",
      "type": "function"
    },
    {
      "inputs": [],
      "name": "rewardToken",
      "outputs": [
        {
          "internalType": "address",
          "name": "",
          "type": "address"
        }
      ],
      "stateMutability": "view",
      "type": "function"
    },
    {
      "inputs": [
        {
          "internalType": "uint256",
          "name": "",
          "type": "uint256"
        }
      ],
      "name": "rewardsOf",
      "outputs": [
        {
          "internalType": "uint256",
          "name": "",
          "type": "uint256"
        }
      ],
      "stateMutability": "view",
      "type": "function"
    },
    {
      "inputs": [
        {
          "internalType": "uint256[]",
          "name": "nos",
          "type": "uint256[]"
        },
        {
          "internalType": "uint256[]",
          "name": "amounts",
          "type": "uint256[]"
        }
      ],
      "name": "setRewards",
      "outputs": [
        {
          "internalType": "uint256",
          "name": "total",
          "type": "uint256"
        }
      ],
      "stateMutability": "nonpayable",
      "type": "function"
    },
    {
      "inputs": [
        {
          "internalType": "uint256",
          "name": "tokenId",
          "type": "uint256"
        },
        {
          "internalType": "uint8",
          "name": "k",
          "type": "uint8"
        }
      ],
      "name": "stake",
      "outputs": [],
      "stateMutability": "nonpayable",
      "type": "function"
    },
    {
      "inputs": [
        {
          "internalType": "uint256",
          "name": "",
          "type": "uint256"
        }
      ],
      "name": "stakingNFTs",
      "outputs": [
        {
          "internalType": "address",
          "name": "owner",
          "type": "address"
        },
        {
          "internalType": "uint256",
          "name": "score",
          "type": "uint256"
        },
        {
          "internalType": "uint256",
          "name": "beginNo",
          "type": "uint256"
        },
        {
          "internalType": "uint256",
          "name": "endNo",
          "type": "uint256"
        }
      ],
      "stateMutability": "view",
      "type": "function"
    },
    {
      "inputs": [],
      "name": "token0",
      "outputs": [
        {
          "internalType": "address",
          "name": "",
          "type": "address"
        }
      ],
      "stateMutability": "view",
      "type": "function"
    },
    {
      "inputs": [],
      "name": "token1",
      "outputs": [
        {
          "internalType": "address",
          "name": "",
          "type": "address"
        }
      ],
      "stateMutability": "view",
      "type": "function"
    },
    {
      "inputs": [
        {
          "internalType": "uint256",
          "name": "",
          "type": "uint256"
        }
      ],
      "name": "totalScores",
      "outputs": [
        {
          "internalType": "uint256",
          "name": "",
          "type": "uint256"
        }
      ],
      "stateMutability": "view",
      "type": "function"
    },
    {
      "inputs": [
        {
          "internalType": "address",
          "name": "_owner",
          "type": "address"
        }
      ],
      "name": "transferOwner",
      "outputs": [],
      "stateMutability": "nonpayable",
      "type": "function"
    },
    {
      "inputs": [
        {
          "internalType": "address",
          "name": "",
          "type": "address"
        },
        {
          "internalType": "uint256",
          "name": "",
          "type": "uint256"
        }
      ],
      "name": "userCanClaimWeeks",
      "outputs": [
        {
          "internalType": "uint256",
          "name": "",
          "type": "uint256"
        }
      ],
      "stateMutability": "view",
      "type": "function"
    },
    {
      "inputs": [
        {
          "internalType": "address",
          "name": "",
          "type": "address"
        },
        {
          "internalType": "uint256",
          "name": "",
          "type": "uint256"
        }
      ],
      "name": "userNFTs",
      "outputs": [
        {
          "internalType": "uint256",
          "name": "",
          "type": "uint256"
        }
      ],
      "stateMutability": "view",
      "type": "function"
    },
    {
      "inputs": [
        {
          "internalType": "address",
          "name": "",
          "type": "address"
        },
        {
          "internalType": "uint256",
          "name": "",
          "type": "uint256"
        }
      ],
      "name": "userScores",
      "outputs": [
        {
          "internalType": "uint256",
          "name": "",
          "type": "uint256"
        }
      ],
      "stateMutability": "view",
      "type": "function"
    },
    {
      "inputs": [
        {
          "internalType": "uint256",
          "name": "tokenId",
          "type": "uint256"
        }
      ],
      "name": "withdraw",
      "outputs": [],
      "stateMutability": "nonpayable",
      "type": "function"
    },
    {
      "inputs": [
        {
          "internalType": "uint256[]",
          "name": "tokenIds",
          "type": "uint256[]"
        }
      ],
      "name": "withdraw",
      "outputs": [],
      "stateMutability": "nonpayable",
      "type": "function"
    },
    {
      "inputs": [
        {
          "internalType": "uint256",
          "name": "amount",
          "type": "uint256"
        }
      ],
      "name": "withdrawRewards",
      "outputs": [],
      "stateMutability": "nonpayable",
      "type": "function"
    }
  ],
  "bytecode": "0x6101a06040523480156200001257600080fd5b5060405162001ee738038062001ee78339810160408190526200003591620000e3565b6001600160a01b0380851660805260ff808b1660a05260c08a9052881660e052610100879052610120869052600080546001600160a01b0319163317905582811690841610620000875781836200008a565b82825b6001600160a01b039081166101805290811661016052166101405250620001839650505050505050565b805160ff81168114620000c657600080fd5b919050565b80516001600160a01b0381168114620000c657600080fd5b60008060008060008060008060006101208a8c0312156200010357600080fd5b6200010e8a620000b4565b985060208a015197506200012560408b01620000b4565b965060608a0151955060808a015194506200014360a08b01620000cb565b93506200015360c08b01620000cb565b92506200016360e08b01620000cb565b9150620001746101008b01620000cb565b90509295985092959850929598565b60805160a05160c05160e0516101005161012051610140516101605161018051611c8a6200025d6000396000818161049801526112b6015260008181610245015261127a015260008181610471015281816109be015281816111d9015281816113ad015261147e015260006103510152600061042d01526000818161020c01528181610b100152610e350152600081816104f901526110130152600081816104bf0152818161056801528181610faf0152610fda01526000818161052001528181610c1101528181610d820152610f220152611c8a6000f3fe608060405234801561001057600080fd5b50600436106101cf5760003560e01c80638da5cb5b11610104578063cd671a58116100a2578063ee3453ed11610071578063ee3453ed146104e1578063f6def7cf146104f4578063f7c618c11461051b578063fdc5ab8e1461054257600080fd5b8063cd671a581461044f578063d06fcba81461046c578063d21220a714610493578063e11400bb146104ba57600080fd5b8063983d95ce116100de578063983d95ce146103fa578063b88a802f1461040d578063bb57852d14610415578063c75363b61461042857600080fd5b80638da5cb5b146103c15780639342c8f4146103d4578063979db1c4146103e757600080fd5b806329ed1cfd116101715780634fb2e45d1161014b5780634fb2e45d146103735780635b680a45146103865780635f8e422f146103b15780638431165e146103b957600080fd5b806329ed1cfd146103305780632e1a7d4d1461033957806337ba682d1461034c57600080fd5b806310087fb1116101ad57806310087fb11461027f57806310c6c1c214610294578063157775df146102fd578063291c73c31461031d57600080fd5b80630bce1284146101d45780630d437d40146102075780630dfe168114610240575b600080fd5b6101f46101e236600461171e565b60056020526000908152604090205481565b6040519081526020015b60405180910390f35b61022e7f000000000000000000000000000000000000000000000000000000000000000081565b60405160ff90911681526020016101fe565b6102677f000000000000000000000000000000000000000000000000000000000000000081565b6040516001600160a01b0390911681526020016101fe565b61029261028d366004611737565b610558565b005b6102d36102a236600461171e565b60076020526000908152604090208054600182015460028301546003909301546001600160a01b0390921692909184565b604080516001600160a01b03909516855260208501939093529183015260608201526080016101fe565b6101f461030b36600461171e565b60046020526000908152604090205481565b6101f461032b366004611782565b6107fb565b6101f460065481565b61029261034736600461171e565b61082c565b6101f47f000000000000000000000000000000000000000000000000000000000000000081565b6102926103813660046117ae565b610a6c565b6101f4610394366004611782565b600260209081526000928352604080842090915290825290205481565b610292610ab8565b6101f4610b09565b600054610267906001600160a01b031681565b6102926103e236600461171e565b610be2565b6101f46103f536600461187c565b610c3a565b6102926104083660046118e0565b610deb565b610292610e2f565b6101f4610423366004611782565b610f81565b6101f47f000000000000000000000000000000000000000000000000000000000000000081565b61045861025881565b60405162ffffff90911681526020016101fe565b6102677f000000000000000000000000000000000000000000000000000000000000000081565b6102677f000000000000000000000000000000000000000000000000000000000000000081565b61022e7f000000000000000000000000000000000000000000000000000000000000000081565b6101f46104ef366004611737565b610fa6565b6101f47f000000000000000000000000000000000000000000000000000000000000000081565b6102677f000000000000000000000000000000000000000000000000000000000000000081565b61054a611070565b6040516101fe92919061191d565b60008160ff1611801561059157507f000000000000000000000000000000000000000000000000000000000000000060ff168160ff1611155b6105d65760405162461bcd60e51b815260206004820152601160248201527039ba30b5b2903bb2b2b5b99032b93937b960791b60448201526064015b60405180910390fd5b60006105e1836111ce565b905060006105f16102584261197b565b6105fc90600161199d565b9050600061060a8385610fa6565b905060005b8460ff168160ff1610156106a457816004600061062f60ff85168761199d565b8152602001908152602001600020600082825461064c919061199d565b9091555050336000908152600260205260408120839161066f60ff85168761199d565b8152602001908152602001600020600082825461068c919061199d565b9091555081905061069c816119b6565b91505061060f565b506040805160808101825233815260208101839052908101839052606081016106d060ff87168561199d565b90526000868152600760209081526040808320845181546001600160a01b0319166001600160a01b0390911617815584830151600180830191909155858301516002830155606090950151600391820155338452909152902090810154905403610747573360009081526003602052604090208290555b61075460ff85168361199d565b33600090815260036020526040902060010154101561078e5761077a60ff85168361199d565b336000908152600360205260409020600101555b336000818152600860209081526040808320805460018101825590845292829020909201889055815188815290810186905260ff87168183015290517f6fa2f6021ee337436cdf2b2570285886da18bc06402ce284d296504a0fe8f8759181900360600190a25050505050565b6008602052816000526040600020818154811061081757600080fd5b90600052602060002001600091509150505481565b6000818152600760205260409020546001600160a01b031633146108845760405162461bcd60e51b815260206004820152600f60248201526e37bbb732b9103337b93134b23232b760891b60448201526064016105cd565b60006108926102584261197b565b6000838152600760205260409020600301549091508110156108e45760405162461bcd60e51b815260206004820152600b60248201526a6c6f636b65642074696d6560a81b60448201526064016105cd565b336000908152600860205260408120905b8154811015610a3157818181548110610910576109106119d5565b90600052602060002001548403610a1f5781548290610931906001906119eb565b81548110610941576109416119d5565b906000526020600020015482828154811061095e5761095e6119d5565b90600052602060002001819055508180548061097c5761097c6119fe565b600082815260208120820160001990810191909155019055604051632142170760e11b8152306004820152336024820152604481018590526001600160a01b037f000000000000000000000000000000000000000000000000000000000000000016906342842e0e90606401600060405180830381600087803b158015610a0257600080fd5b505af1158015610a16573d6000803e3d6000fd5b50505050610a31565b80610a2981611a14565b9150506108f5565b5060405183815233907f884edad9ce6fa2440d8a54cc123490eb96d2768479d49ff9c7366125a94243649060200160405180910390a2505050565b6000546001600160a01b03163314610a965760405162461bcd60e51b81526004016105cd90611a2d565b600180546001600160a01b0319166001600160a01b0392909216919091179055565b6001546001600160a01b03163314610ae25760405162461bcd60e51b81526004016105cd90611a2d565b60018054600080546001600160a01b03199081166001600160a01b03841617909155169055565b60008060ff7f000000000000000000000000000000000000000000000000000000000000000016610b3c6102584261197b565b610b4691906119eb565b33600090815260036020526040812054919250905b33600090815260036020526040902060010154811015610bdb57828111610bdb57600081815260046020908152604080832054338452600283528184208585528352818420546005909352922054610bb39190611a50565b610bbd919061197b565b610bc7908361199d565b915080610bd381611a14565b915050610b5b565b5092915050565b6000546001600160a01b03163314610c0c5760405162461bcd60e51b81526004016105cd90611a2d565b610c377f000000000000000000000000000000000000000000000000000000000000000033836114f7565b50565b600080546001600160a01b03163314610c655760405162461bcd60e51b81526004016105cd90611a2d565b8151835114610ca95760405162461bcd60e51b815260206004820152601060248201526f3830b930b6b2ba32b9399032b93937b960811b60448201526064016105cd565b60005b8351811015610d7c57828181518110610cc757610cc76119d5565b602002602001015182610cda919061199d565b9150828181518110610cee57610cee6119d5565b602002602001015160056000868481518110610d0c57610d0c6119d5565b6020026020010151815260200190815260200160002081905550600654848281518110610d3b57610d3b6119d5565b60200260200101511115610d6a57838181518110610d5b57610d5b6119d5565b60200260200101516006819055505b80610d7481611a14565b915050610cac565b50610da97f0000000000000000000000000000000000000000000000000000000000000000333084611604565b60408051600081526020810183905233917fc3991418cacd70a010fce559a44fcbb47534ca43bf7543964bdca2639f6e6e5a910160405180910390a292915050565b60005b8151811015610e2b57610e19828281518110610e0c57610e0c6119d5565b602002602001015161082c565b80610e2381611a14565b915050610dee565b5050565b600060ff7f000000000000000000000000000000000000000000000000000000000000000016610e616102584261197b565b610e6b91906119eb565b33600090815260036020526040812054919250905b33600090815260036020526040902060010154811015610f1c57828111610f1c57610eac81600161199d565b3360009081526003602052604081200155600081815260046020908152604080832054338452600283528184208585528352818420546005909352922054610ef49190611a50565b610efe919061197b565b610f08908361199d565b915080610f1481611a14565b915050610e80565b50610f487f000000000000000000000000000000000000000000000000000000000000000033836114f7565b60405181815233907fba8de60c3403ec381d1d484652ea1980e3c3e56359195c92525bff4ce47ad98e9060200160405180910390a25050565b60036020528160005260406000208160028110610f9d57600080fd5b01549150829050565b6000610fd360017f0000000000000000000000000000000000000000000000000000000000000000611a67565b60ff1660017f000000000000000000000000000000000000000000000000000000000000000060ff166001856110099190611a67565b60ff1661103760017f00000000000000000000000000000000000000000000000000000000000000006119eb565b6110419190611a50565b61104b919061199d565b61105591906119eb565b61105f9085611a50565b611069919061197b565b9392505050565b3360009081526008602052604081205460609190819067ffffffffffffffff81111561109e5761109e6117cb565b6040519080825280602002602001820160405280156110c7578160200160208202803683370190505b50905060006110d86102584261197b565b3360009081526008602052604081205491925090815b336000908152600860205260409020548110156111c157336000908152600860205260408120805483908110611126576111266119d5565b9060005260206000200154905084600760008381526020019081526020016000206003015411156111815780868581518110611164576111646119d5565b60209081029190910101528361117981611a14565b9450506111ae565b8261118b81611a80565b935050808684815181106111a1576111a16119d5565b6020026020010181815250505b50806111b981611a14565b9150506110ee565b5092959294509192505050565b6000806000806000807f00000000000000000000000000000000000000000000000000000000000000006001600160a01b03166399fbab88886040518263ffffffff1660e01b815260040161122591815260200190565b61018060405180830381865afa158015611243573d6000803e3d6000fd5b505050506040513d601f19601f820116820180604052508101906112679190611ae3565b50505050975097509750509650965050507f00000000000000000000000000000000000000000000000000000000000000006001600160a01b0316856001600160a01b03161480156112ea57507f00000000000000000000000000000000000000000000000000000000000000006001600160a01b0316846001600160a01b0316145b6113265760405162461bcd60e51b815260206004820152600d60248201526c3638103830b4b91032b93937b960991b60448201526064016105cd565b600283900b620d89e71914801561134e5750611345620d89e719611bc4565b60020b8260020b145b61138d5760405162461bcd60e51b815260206004820152601060248201526f3a34b1b5903930b733b29032b93937b960811b60448201526064016105cd565b60405163020604bf60e21b81526004810188905230906001600160a01b037f0000000000000000000000000000000000000000000000000000000000000000169063081812fc90602401602060405180830381865afa1580156113f4573d6000803e3d6000fd5b505050506040513d601f19601f820116820180604052508101906114189190611be6565b6001600160a01b03161461145c5760405162461bcd60e51b815260206004820152600b60248201526a6e6f7420617070726f766560a81b60448201526064016105cd565b604051632142170760e11b8152336004820152306024820152604481018890527f00000000000000000000000000000000000000000000000000000000000000006001600160a01b0316906342842e0e90606401600060405180830381600087803b1580156114ca57600080fd5b505af11580156114de573d6000803e3d6000fd5b50506001600160801b0390921698975050505050505050565b604080516001600160a01b038481166024830152604480830185905283518084039091018152606490920183526020820180516001600160e01b031663a9059cbb60e01b17905291516000928392908716916115539190611c03565b6000604051808303816000865af19150503d8060008114611590576040519150601f19603f3d011682016040523d82523d6000602084013e611595565b606091505b50915091508180156115bf5750805115806115bf5750808060200190518101906115bf9190611c32565b6115fd5760405162461bcd60e51b815260206004820152600f60248201526e1514905394d1915497d19052531151608a1b60448201526064016105cd565b5050505050565b604080516001600160a01b0385811660248301528481166044830152606480830185905283518084039091018152608490920183526020820180516001600160e01b03166323b872dd60e01b17905291516000928392908816916116689190611c03565b6000604051808303816000865af19150503d80600081146116a5576040519150601f19603f3d011682016040523d82523d6000602084013e6116aa565b606091505b50915091508180156116d45750805115806116d45750808060200190518101906116d49190611c32565b6117165760405162461bcd60e51b81526020600482015260136024820152721d1c985b9cd9995c919c9bdb4819985a5b1959606a1b60448201526064016105cd565b505050505050565b60006020828403121561173057600080fd5b5035919050565b6000806040838503121561174a57600080fd5b82359150602083013560ff8116811461176257600080fd5b809150509250929050565b6001600160a01b0381168114610c3757600080fd5b6000806040838503121561179557600080fd5b82356117a08161176d565b946020939093013593505050565b6000602082840312156117c057600080fd5b81356110698161176d565b634e487b7160e01b600052604160045260246000fd5b600082601f8301126117f257600080fd5b8135602067ffffffffffffffff8083111561180f5761180f6117cb565b8260051b604051601f19603f83011681018181108482111715611834576118346117cb565b60405293845285810183019383810192508785111561185257600080fd5b83870191505b8482101561187157813583529183019190830190611858565b979650505050505050565b6000806040838503121561188f57600080fd5b823567ffffffffffffffff808211156118a757600080fd5b6118b3868387016117e1565b935060208501359150808211156118c957600080fd5b506118d6858286016117e1565b9150509250929050565b6000602082840312156118f257600080fd5b813567ffffffffffffffff81111561190957600080fd5b611915848285016117e1565b949350505050565b604080825283519082018190526000906020906060840190828701845b828110156119565781518452928401929084019060010161193a565b50505092019290925292915050565b634e487b7160e01b600052601160045260246000fd5b60008261199857634e487b7160e01b600052601260045260246000fd5b500490565b808201808211156119b0576119b0611965565b92915050565b600060ff821660ff81036119cc576119cc611965565b60010192915050565b634e487b7160e01b600052603260045260246000fd5b818103818111156119b0576119b0611965565b634e487b7160e01b600052603160045260246000fd5b600060018201611a2657611a26611965565b5060010190565b6020808252600990820152683337b93134b23232b760b91b604082015260600190565b80820281158282048414176119b0576119b0611965565b60ff82811682821603908111156119b0576119b0611965565b600081611a8f57611a8f611965565b506000190190565b8051611aa28161176d565b919050565b805162ffffff81168114611aa257600080fd5b8051600281900b8114611aa257600080fd5b80516001600160801b0381168114611aa257600080fd5b6000806000806000806000806000806000806101808d8f031215611b0657600080fd5b8c516bffffffffffffffffffffffff81168114611b2257600080fd5b9b50611b3060208e01611a97565b9a50611b3e60408e01611a97565b9950611b4c60608e01611a97565b9850611b5a60808e01611aa7565b9750611b6860a08e01611aba565b9650611b7660c08e01611aba565b9550611b8460e08e01611acc565b94506101008d015193506101208d01519250611ba36101408e01611acc565b9150611bb26101608e01611acc565b90509295989b509295989b509295989b565b60008160020b627fffff198103611bdd57611bdd611965565b60000392915050565b600060208284031215611bf857600080fd5b81516110698161176d565b6000825160005b81811015611c245760208186018101518583015201611c0a565b506000920191825250919050565b600060208284031215611c4457600080fd5b8151801515811461106957600080fdfea2646970667358221220dcea59a63f94d470d17698b62f6807014a2cc9811cde3cb9e8b9dee0fb9b447f64736f6c63430008110033",
  "linkReferences": {},
  "deployedLinkReferences": {}
}