{
  "_format": "hh-sol-artifact-1",
  "contractName": "StakeNFT721",
  "sourceName": "contracts/stakeNFT721.sol",
  "abi": [
    {
      "inputs": [
        {
          "internalType": "uint8",
          "name": "maxWeeks",
          "type": "uint8"
        },
        {
          "internalType": "uint256",
          "name": "maxScale",
          "type": "uint256"
        },
        {
          "internalType": "uint8",
          "name": "lockWeeks",
          "type": "uint8"
        },
        {
          "internalType": "uint256",
          "name": "beginTime",
          "type": "uint256"
        },
        {
          "internalType": "uint256",
          "name": "endTime",
          "type": "uint256"
        },
        {
          "internalType": "address",
          "name": "_rewardToken",
          "type": "address"
        },
        {
          "internalType": "address",
          "name": "tokenA",
          "type": "address"
        },
        {
          "internalType": "address",
          "name": "tokenB",
          "type": "address"
        },
        {
          "internalType": "address",
          "name": "nft",
          "type": "address"
        }
      ],
      "stateMutability": "nonpayable",
      "type": "constructor"
    },
    {
      "anonymous": false,
      "inputs": [
        {
          "indexed": true,
          "internalType": "address",
          "name": "user",
          "type": "address"
        },
        {
          "indexed": false,
          "internalType": "uint256",
          "name": "tokenId",
          "type": "uint256"
        },
        {
          "indexed": false,
          "internalType": "uint256",
          "name": "amount",
          "type": "uint256"
        }
      ],
      "name": "ClaimReward",
      "type": "event"
    },
    {
      "anonymous": false,
      "inputs": [
        {
          "indexed": true,
          "internalType": "address",
          "name": "user",
          "type": "address"
        },
        {
          "indexed": false,
          "internalType": "uint256",
          "name": "amount",
          "type": "uint256"
        }
      ],
      "name": "ClaimReward",
      "type": "event"
    },
    {
      "anonymous": false,
      "inputs": [
        {
          "indexed": true,
          "internalType": "address",
          "name": "user",
          "type": "address"
        },
        {
          "indexed": false,
          "internalType": "uint256",
          "name": "no",
          "type": "uint256"
        },
        {
          "indexed": false,
          "internalType": "uint256",
          "name": "amount",
          "type": "uint256"
        }
      ],
      "name": "SetReward",
      "type": "event"
    },
    {
      "anonymous": false,
      "inputs": [
        {
          "indexed": true,
          "internalType": "address",
          "name": "user",
          "type": "address"
        },
        {
          "indexed": false,
          "internalType": "uint256",
          "name": "tokenId",
          "type": "uint256"
        },
        {
          "indexed": false,
          "internalType": "uint256",
          "name": "amount",
          "type": "uint256"
        },
        {
          "indexed": false,
          "internalType": "uint8",
          "name": "k",
          "type": "uint8"
        }
      ],
      "name": "Stake",
      "type": "event"
    },
    {
      "anonymous": false,
      "inputs": [
        {
          "indexed": true,
          "internalType": "address",
          "name": "user",
          "type": "address"
        },
        {
          "indexed": false,
          "internalType": "uint256",
          "name": "tokenId",
          "type": "uint256"
        }
      ],
      "name": "Withdraw",
      "type": "event"
    },
    {
      "inputs": [],
      "name": "BEGIN_TIME",
      "outputs": [
        {
          "internalType": "uint256",
          "name": "",
          "type": "uint256"
        }
      ],
      "stateMutability": "view",
      "type": "function"
    },
    {
      "inputs": [],
      "name": "END_TIME",
      "outputs": [
        {
          "internalType": "uint256",
          "name": "",
          "type": "uint256"
        }
      ],
      "stateMutability": "view",
      "type": "function"
    },
    {
      "inputs": [],
      "name": "LOCK_WEEKNUM",
      "outputs": [
        {
          "internalType": "uint8",
          "name": "",
          "type": "uint8"
        }
      ],
      "stateMutability": "view",
      "type": "function"
    },
    {
      "inputs": [],
      "name": "MAX_SCALE",
      "outputs": [
        {
          "internalType": "uint256",
          "name": "",
          "type": "uint256"
        }
      ],
      "stateMutability": "view",
      "type": "function"
    },
    {
      "inputs": [],
      "name": "MAX_WEEKS",
      "outputs": [
        {
          "internalType": "uint8",
          "name": "",
          "type": "uint8"
        }
      ],
      "stateMutability": "view",
      "type": "function"
    },
    {
      "inputs": [],
      "name": "WEEK_SECONDS",
      "outputs": [
        {
          "internalType": "uint24",
          "name": "",
          "type": "uint24"
        }
      ],
      "stateMutability": "view",
      "type": "function"
    },
    {
      "inputs": [],
      "name": "acceptSetter",
      "outputs": [],
      "stateMutability": "nonpayable",
      "type": "function"
    },
    {
      "inputs": [],
      "name": "canClaimAmount",
      "outputs": [
        {
          "internalType": "uint256",
          "name": "",
          "type": "uint256"
        }
      ],
      "stateMutability": "view",
      "type": "function"
    },
    {
      "inputs": [],
      "name": "claimReward",
      "outputs": [],
      "stateMutability": "nonpayable",
      "type": "function"
    },
    {
      "inputs": [
        {
          "internalType": "uint256",
          "name": "amount",
          "type": "uint256"
        },
        {
          "internalType": "uint8",
          "name": "k",
          "type": "uint8"
        }
      ],
      "name": "getScore",
      "outputs": [
        {
          "internalType": "uint256",
          "name": "score",
          "type": "uint256"
        }
      ],
      "stateMutability": "view",
      "type": "function"
    },
    {
      "inputs": [],
      "name": "getUserNFTs",
      "outputs": [
        {
          "internalType": "uint256[]",
          "name": "",
          "type": "uint256[]"
        },
        {
          "internalType": "uint256",
          "name": "",
          "type": "uint256"
        }
      ],
      "stateMutability": "view",
      "type": "function"
    },
    {
      "inputs": [],
      "name": "latestNo",
      "outputs": [
        {
          "internalType": "uint256",
          "name": "",
          "type": "uint256"
        }
      ],
      "stateMutability": "view",
      "type": "function"
    },
    {
      "inputs": [],
      "name": "nftToken",
      "outputs": [
        {
          "internalType": "contract IIotabeeSwapNFT",
          "name": "",
          "type": "address"
        }
      ],
      "stateMutability": "view",
      "type": "function"
    },
    {
      "inputs": [],
      "name": "owner",
      "outputs": [
        {
          "internalType": "address",
          "name": "",
          "type": "address"
        }
      ],
      "stateMutability": "view",
      "type": "function"
    },
    {
      "inputs": [],
      "name": "rewardToken",
      "outputs": [
        {
          "internalType": "address",
          "name": "",
          "type": "address"
        }
      ],
      "stateMutability": "view",
      "type": "function"
    },
    {
      "inputs": [
        {
          "internalType": "uint256",
          "name": "",
          "type": "uint256"
        }
      ],
      "name": "rewardsOf",
      "outputs": [
        {
          "internalType": "uint256",
          "name": "",
          "type": "uint256"
        }
      ],
      "stateMutability": "view",
      "type": "function"
    },
    {
      "inputs": [
        {
          "internalType": "uint256",
          "name": "no",
          "type": "uint256"
        },
        {
          "internalType": "uint256",
          "name": "amount",
          "type": "uint256"
        }
      ],
      "name": "setReward",
      "outputs": [],
      "stateMutability": "nonpayable",
      "type": "function"
    },
    {
      "inputs": [
        {
          "internalType": "uint256[]",
          "name": "nos",
          "type": "uint256[]"
        },
        {
          "internalType": "uint256[]",
          "name": "amounts",
          "type": "uint256[]"
        }
      ],
      "name": "setRewards",
      "outputs": [
        {
          "internalType": "uint256",
          "name": "total",
          "type": "uint256"
        }
      ],
      "stateMutability": "nonpayable",
      "type": "function"
    },
    {
      "inputs": [
        {
          "internalType": "uint256",
          "name": "tokenId",
          "type": "uint256"
        },
        {
          "internalType": "uint8",
          "name": "k",
          "type": "uint8"
        }
      ],
      "name": "stake",
      "outputs": [],
      "stateMutability": "nonpayable",
      "type": "function"
    },
    {
      "inputs": [
        {
          "internalType": "uint256",
          "name": "",
          "type": "uint256"
        }
      ],
      "name": "stakingNFTs",
      "outputs": [
        {
          "internalType": "address",
          "name": "owner",
          "type": "address"
        },
        {
          "internalType": "uint256",
          "name": "score",
          "type": "uint256"
        },
        {
          "internalType": "uint256",
          "name": "beginNo",
          "type": "uint256"
        },
        {
          "internalType": "uint256",
          "name": "endNo",
          "type": "uint256"
        }
      ],
      "stateMutability": "view",
      "type": "function"
    },
    {
      "inputs": [],
      "name": "token0",
      "outputs": [
        {
          "internalType": "address",
          "name": "",
          "type": "address"
        }
      ],
      "stateMutability": "view",
      "type": "function"
    },
    {
      "inputs": [],
      "name": "token1",
      "outputs": [
        {
          "internalType": "address",
          "name": "",
          "type": "address"
        }
      ],
      "stateMutability": "view",
      "type": "function"
    },
    {
      "inputs": [
        {
          "internalType": "uint256",
          "name": "",
          "type": "uint256"
        }
      ],
      "name": "totalScores",
      "outputs": [
        {
          "internalType": "uint256",
          "name": "",
          "type": "uint256"
        }
      ],
      "stateMutability": "view",
      "type": "function"
    },
    {
      "inputs": [
        {
          "internalType": "address",
          "name": "_owner",
          "type": "address"
        }
      ],
      "name": "transferOwner",
      "outputs": [],
      "stateMutability": "nonpayable",
      "type": "function"
    },
    {
      "inputs": [
        {
          "internalType": "address",
          "name": "",
          "type": "address"
        },
        {
          "internalType": "uint256",
          "name": "",
          "type": "uint256"
        }
      ],
      "name": "userCanClaimWeeks",
      "outputs": [
        {
          "internalType": "uint256",
          "name": "",
          "type": "uint256"
        }
      ],
      "stateMutability": "view",
      "type": "function"
    },
    {
      "inputs": [
        {
          "internalType": "address",
          "name": "",
          "type": "address"
        },
        {
          "internalType": "uint256",
          "name": "",
          "type": "uint256"
        }
      ],
      "name": "userNFTs",
      "outputs": [
        {
          "internalType": "uint256",
          "name": "",
          "type": "uint256"
        }
      ],
      "stateMutability": "view",
      "type": "function"
    },
    {
      "inputs": [
        {
          "internalType": "address",
          "name": "",
          "type": "address"
        },
        {
          "internalType": "uint256",
          "name": "",
          "type": "uint256"
        }
      ],
      "name": "userScores",
      "outputs": [
        {
          "internalType": "uint256",
          "name": "",
          "type": "uint256"
        }
      ],
      "stateMutability": "view",
      "type": "function"
    },
    {
      "inputs": [
        {
          "internalType": "uint256",
          "name": "tokenId",
          "type": "uint256"
        }
      ],
      "name": "withdraw",
      "outputs": [],
      "stateMutability": "nonpayable",
      "type": "function"
    },
    {
      "inputs": [
        {
          "internalType": "uint256[]",
          "name": "tokenIds",
          "type": "uint256[]"
        }
      ],
      "name": "withdraw",
      "outputs": [],
      "stateMutability": "nonpayable",
      "type": "function"
    },
    {
      "inputs": [
        {
          "internalType": "uint256",
          "name": "amount",
          "type": "uint256"
        }
      ],
      "name": "withdrawRewards",
      "outputs": [],
      "stateMutability": "nonpayable",
      "type": "function"
    }
  ],
  "bytecode": "0x6101a06040523480156200001257600080fd5b5060405162001ff038038062001ff08339810160408190526200003591620000e3565b6001600160a01b0380851660805260ff808b1660a05260c08a9052881660e052610100879052610120869052600080546001600160a01b0319163317905582811690841610620000875781836200008a565b82825b6001600160a01b039081166101805290811661016052166101405250620001839650505050505050565b805160ff81168114620000c657600080fd5b919050565b80516001600160a01b0381168114620000c657600080fd5b60008060008060008060008060006101208a8c0312156200010357600080fd5b6200010e8a620000b4565b985060208a015197506200012560408b01620000b4565b965060608a0151955060808a015194506200014360a08b01620000cb565b93506200015360c08b01620000cb565b92506200016360e08b01620000cb565b9150620001746101008b01620000cb565b90509295985092959850929598565b60805160a05160c05160e0516101005161012051610140516101605161018051611d8c62000264600039600081816104b60152611396015260008181610250015261135a01526000818161048f015281816109dc015281816112b90152818161148d015261155e0152600061035c0152600061044b01526000818161021701528181610b2e0152610f1c01526000818161051701526110f30152600081816104dd015281816105860152818161108f01526110ba01526000818161053e01528181610c2f01528181610da001528181610e7c01526110090152611d8c6000f3fe608060405234801561001057600080fd5b50600436106101da5760003560e01c80639342c8f411610104578063cd671a58116100a2578063ee3453ed11610071578063ee3453ed146104ff578063f6def7cf14610512578063f7c618c114610539578063fdc5ab8e1461056057600080fd5b8063cd671a581461046d578063d06fcba81461048a578063d21220a7146104b1578063e11400bb146104d857600080fd5b8063a47bd496116100de578063a47bd49614610418578063b88a802f1461042b578063bb57852d14610433578063c75363b61461044657600080fd5b80639342c8f4146103df578063979db1c4146103f2578063983d95ce1461040557600080fd5b806329ed1cfd1161017c5780635b680a451161014b5780635b680a45146103915780635f8e422f146103bc5780638431165e146103c45780638da5cb5b146103cc57600080fd5b806329ed1cfd1461033b5780632e1a7d4d1461034457806337ba682d146103575780634fb2e45d1461037e57600080fd5b806310087fb1116101b857806310087fb11461028a57806310c6c1c21461029f578063157775df14610308578063291c73c31461032857600080fd5b80630bce1284146101df5780630d437d40146102125780630dfe16811461024b575b600080fd5b6101ff6101ed3660046117fe565b60056020526000908152604090205481565b6040519081526020015b60405180910390f35b6102397f000000000000000000000000000000000000000000000000000000000000000081565b60405160ff9091168152602001610209565b6102727f000000000000000000000000000000000000000000000000000000000000000081565b6040516001600160a01b039091168152602001610209565b61029d610298366004611817565b610576565b005b6102de6102ad3660046117fe565b60076020526000908152604090208054600182015460028301546003909301546001600160a01b0390921692909184565b604080516001600160a01b0390951685526020850193909352918301526060820152608001610209565b6101ff6103163660046117fe565b60046020526000908152604090205481565b6101ff610336366004611862565b610819565b6101ff60065481565b61029d6103523660046117fe565b61084a565b6101ff7f000000000000000000000000000000000000000000000000000000000000000081565b61029d61038c36600461188e565b610a8a565b6101ff61039f366004611862565b600260209081526000928352604080842090915290825290205481565b61029d610ad6565b6101ff610b27565b600054610272906001600160a01b031681565b61029d6103ed3660046117fe565b610c00565b6101ff61040036600461195c565b610c58565b61029d6104133660046119c0565b610e09565b61029d6104263660046119fd565b610e4d565b61029d610f16565b6101ff610441366004611862565b611061565b6101ff7f000000000000000000000000000000000000000000000000000000000000000081565b61047661025881565b60405162ffffff9091168152602001610209565b6102727f000000000000000000000000000000000000000000000000000000000000000081565b6102727f000000000000000000000000000000000000000000000000000000000000000081565b6102397f000000000000000000000000000000000000000000000000000000000000000081565b6101ff61050d366004611817565b611086565b6101ff7f000000000000000000000000000000000000000000000000000000000000000081565b6102727f000000000000000000000000000000000000000000000000000000000000000081565b610568611150565b604051610209929190611a1f565b60008160ff161180156105af57507f000000000000000000000000000000000000000000000000000000000000000060ff168160ff1611155b6105f45760405162461bcd60e51b815260206004820152601160248201527039ba30b5b2903bb2b2b5b99032b93937b960791b60448201526064015b60405180910390fd5b60006105ff836112ae565b9050600061060f61025842611a7d565b61061a906001611a9f565b905060006106288385611086565b905060005b8460ff168160ff1610156106c257816004600061064d60ff851687611a9f565b8152602001908152602001600020600082825461066a9190611a9f565b9091555050336000908152600260205260408120839161068d60ff851687611a9f565b815260200190815260200160002060008282546106aa9190611a9f565b909155508190506106ba81611ab8565b91505061062d565b506040805160808101825233815260208101839052908101839052606081016106ee60ff871685611a9f565b90526000868152600760209081526040808320845181546001600160a01b0319166001600160a01b0390911617815584830151600180830191909155858301516002830155606090950151600391820155338452909152902090810154905403610765573360009081526003602052604090208290555b61077260ff851683611a9f565b3360009081526003602052604090206001015410156107ac5761079860ff851683611a9f565b336000908152600360205260409020600101555b336000818152600860209081526040808320805460018101825590845292829020909201889055815188815290810186905260ff87168183015290517f6fa2f6021ee337436cdf2b2570285886da18bc06402ce284d296504a0fe8f8759181900360600190a25050505050565b6008602052816000526040600020818154811061083557600080fd5b90600052602060002001600091509150505481565b6000818152600760205260409020546001600160a01b031633146108a25760405162461bcd60e51b815260206004820152600f60248201526e37bbb732b9103337b93134b23232b760891b60448201526064016105eb565b60006108b061025842611a7d565b6000838152600760205260409020600301549091508110156109025760405162461bcd60e51b815260206004820152600b60248201526a6c6f636b65642074696d6560a81b60448201526064016105eb565b336000908152600860205260408120905b8154811015610a4f5781818154811061092e5761092e611ad7565b90600052602060002001548403610a3d578154829061094f90600190611aed565b8154811061095f5761095f611ad7565b906000526020600020015482828154811061097c5761097c611ad7565b90600052602060002001819055508180548061099a5761099a611b00565b600082815260208120820160001990810191909155019055604051632142170760e11b8152306004820152336024820152604481018590526001600160a01b037f000000000000000000000000000000000000000000000000000000000000000016906342842e0e90606401600060405180830381600087803b158015610a2057600080fd5b505af1158015610a34573d6000803e3d6000fd5b50505050610a4f565b80610a4781611b16565b915050610913565b5060405183815233907f884edad9ce6fa2440d8a54cc123490eb96d2768479d49ff9c7366125a94243649060200160405180910390a2505050565b6000546001600160a01b03163314610ab45760405162461bcd60e51b81526004016105eb90611b2f565b600180546001600160a01b0319166001600160a01b0392909216919091179055565b6001546001600160a01b03163314610b005760405162461bcd60e51b81526004016105eb90611b2f565b60018054600080546001600160a01b03199081166001600160a01b03841617909155169055565b60008060ff7f000000000000000000000000000000000000000000000000000000000000000016610b5a61025842611a7d565b610b649190611aed565b33600090815260036020526040812054919250905b33600090815260036020526040902060010154811015610bf957828111610bf957600081815260046020908152604080832054338452600283528184208585528352818420546005909352922054610bd19190611b52565b610bdb9190611a7d565b610be59083611a9f565b915080610bf181611b16565b915050610b79565b5092915050565b6000546001600160a01b03163314610c2a5760405162461bcd60e51b81526004016105eb90611b2f565b610c557f000000000000000000000000000000000000000000000000000000000000000033836115d7565b50565b600080546001600160a01b03163314610c835760405162461bcd60e51b81526004016105eb90611b2f565b8151835114610cc75760405162461bcd60e51b815260206004820152601060248201526f3830b930b6b2ba32b9399032b93937b960811b60448201526064016105eb565b60005b8351811015610d9a57828181518110610ce557610ce5611ad7565b602002602001015182610cf89190611a9f565b9150828181518110610d0c57610d0c611ad7565b602002602001015160056000868481518110610d2a57610d2a611ad7565b6020026020010151815260200190815260200160002081905550600654848281518110610d5957610d59611ad7565b60200260200101511115610d8857838181518110610d7957610d79611ad7565b60200260200101516006819055505b80610d9281611b16565b915050610cca565b50610dc77f00000000000000000000000000000000000000000000000000000000000000003330846116e4565b60408051600081526020810183905233917fc3991418cacd70a010fce559a44fcbb47534ca43bf7543964bdca2639f6e6e5a910160405180910390a292915050565b60005b8151811015610e4957610e37828281518110610e2a57610e2a611ad7565b602002602001015161084a565b80610e4181611b16565b915050610e0c565b5050565b6000546001600160a01b03163314610e775760405162461bcd60e51b81526004016105eb90611b2f565b610ea37f00000000000000000000000000000000000000000000000000000000000000003330846116e4565b60008281526005602052604081208054839290610ec1908490611a9f565b9091555050600654821115610ed65760068290555b604080518381526020810183905233917fc3991418cacd70a010fce559a44fcbb47534ca43bf7543964bdca2639f6e6e5a91015b60405180910390a25050565b600060ff7f000000000000000000000000000000000000000000000000000000000000000016610f4861025842611a7d565b610f529190611aed565b33600090815260036020526040812054919250905b336000908152600360205260409020600101548110156110035782811161100357610f93816001611a9f565b3360009081526003602052604081200155600081815260046020908152604080832054338452600283528184208585528352818420546005909352922054610fdb9190611b52565b610fe59190611a7d565b610fef9083611a9f565b915080610ffb81611b16565b915050610f67565b5061102f7f000000000000000000000000000000000000000000000000000000000000000033836115d7565b60405181815233907fba8de60c3403ec381d1d484652ea1980e3c3e56359195c92525bff4ce47ad98e90602001610f0a565b6003602052816000526040600020816002811061107d57600080fd5b01549150829050565b60006110b360017f0000000000000000000000000000000000000000000000000000000000000000611b69565b60ff1660017f000000000000000000000000000000000000000000000000000000000000000060ff166001856110e99190611b69565b60ff1661111760017f0000000000000000000000000000000000000000000000000000000000000000611aed565b6111219190611b52565b61112b9190611a9f565b6111359190611aed565b61113f9085611b52565b6111499190611a7d565b9392505050565b3360009081526008602052604081205460609190819067ffffffffffffffff81111561117e5761117e6118ab565b6040519080825280602002602001820160405280156111a7578160200160208202803683370190505b50905060006111b861025842611a7d565b3360009081526008602052604081205491925090815b336000908152600860205260409020548110156112a15733600090815260086020526040812080548390811061120657611206611ad7565b906000526020600020015490508460076000838152602001908152602001600020600301541115611261578086858151811061124457611244611ad7565b60209081029190910101528361125981611b16565b94505061128e565b8261126b81611b82565b9350508086848151811061128157611281611ad7565b6020026020010181815250505b508061129981611b16565b9150506111ce565b5092959294509192505050565b6000806000806000807f00000000000000000000000000000000000000000000000000000000000000006001600160a01b03166399fbab88886040518263ffffffff1660e01b815260040161130591815260200190565b61018060405180830381865afa158015611323573d6000803e3d6000fd5b505050506040513d601f19601f820116820180604052508101906113479190611be5565b50505050975097509750509650965050507f00000000000000000000000000000000000000000000000000000000000000006001600160a01b0316856001600160a01b03161480156113ca57507f00000000000000000000000000000000000000000000000000000000000000006001600160a01b0316846001600160a01b0316145b6114065760405162461bcd60e51b815260206004820152600d60248201526c3638103830b4b91032b93937b960991b60448201526064016105eb565b600283900b620d89e71914801561142e5750611425620d89e719611cc6565b60020b8260020b145b61146d5760405162461bcd60e51b815260206004820152601060248201526f3a34b1b5903930b733b29032b93937b960811b60448201526064016105eb565b60405163020604bf60e21b81526004810188905230906001600160a01b037f0000000000000000000000000000000000000000000000000000000000000000169063081812fc90602401602060405180830381865afa1580156114d4573d6000803e3d6000fd5b505050506040513d601f19601f820116820180604052508101906114f89190611ce8565b6001600160a01b03161461153c5760405162461bcd60e51b815260206004820152600b60248201526a6e6f7420617070726f766560a81b60448201526064016105eb565b604051632142170760e11b8152336004820152306024820152604481018890527f00000000000000000000000000000000000000000000000000000000000000006001600160a01b0316906342842e0e90606401600060405180830381600087803b1580156115aa57600080fd5b505af11580156115be573d6000803e3d6000fd5b50506001600160801b0390921698975050505050505050565b604080516001600160a01b038481166024830152604480830185905283518084039091018152606490920183526020820180516001600160e01b031663a9059cbb60e01b17905291516000928392908716916116339190611d05565b6000604051808303816000865af19150503d8060008114611670576040519150601f19603f3d011682016040523d82523d6000602084013e611675565b606091505b509150915081801561169f57508051158061169f57508080602001905181019061169f9190611d34565b6116dd5760405162461bcd60e51b815260206004820152600f60248201526e1514905394d1915497d19052531151608a1b60448201526064016105eb565b5050505050565b604080516001600160a01b0385811660248301528481166044830152606480830185905283518084039091018152608490920183526020820180516001600160e01b03166323b872dd60e01b17905291516000928392908816916117489190611d05565b6000604051808303816000865af19150503d8060008114611785576040519150601f19603f3d011682016040523d82523d6000602084013e61178a565b606091505b50915091508180156117b45750805115806117b45750808060200190518101906117b49190611d34565b6117f65760405162461bcd60e51b81526020600482015260136024820152721d1c985b9cd9995c919c9bdb4819985a5b1959606a1b60448201526064016105eb565b505050505050565b60006020828403121561181057600080fd5b5035919050565b6000806040838503121561182a57600080fd5b82359150602083013560ff8116811461184257600080fd5b809150509250929050565b6001600160a01b0381168114610c5557600080fd5b6000806040838503121561187557600080fd5b82356118808161184d565b946020939093013593505050565b6000602082840312156118a057600080fd5b81356111498161184d565b634e487b7160e01b600052604160045260246000fd5b600082601f8301126118d257600080fd5b8135602067ffffffffffffffff808311156118ef576118ef6118ab565b8260051b604051601f19603f83011681018181108482111715611914576119146118ab565b60405293845285810183019383810192508785111561193257600080fd5b83870191505b8482101561195157813583529183019190830190611938565b979650505050505050565b6000806040838503121561196f57600080fd5b823567ffffffffffffffff8082111561198757600080fd5b611993868387016118c1565b935060208501359150808211156119a957600080fd5b506119b6858286016118c1565b9150509250929050565b6000602082840312156119d257600080fd5b813567ffffffffffffffff8111156119e957600080fd5b6119f5848285016118c1565b949350505050565b60008060408385031215611a1057600080fd5b50508035926020909101359150565b604080825283519082018190526000906020906060840190828701845b82811015611a5857815184529284019290840190600101611a3c565b50505092019290925292915050565b634e487b7160e01b600052601160045260246000fd5b600082611a9a57634e487b7160e01b600052601260045260246000fd5b500490565b80820180821115611ab257611ab2611a67565b92915050565b600060ff821660ff8103611ace57611ace611a67565b60010192915050565b634e487b7160e01b600052603260045260246000fd5b81810381811115611ab257611ab2611a67565b634e487b7160e01b600052603160045260246000fd5b600060018201611b2857611b28611a67565b5060010190565b6020808252600990820152683337b93134b23232b760b91b604082015260600190565b8082028115828204841417611ab257611ab2611a67565b60ff8281168282160390811115611ab257611ab2611a67565b600081611b9157611b91611a67565b506000190190565b8051611ba48161184d565b919050565b805162ffffff81168114611ba457600080fd5b8051600281900b8114611ba457600080fd5b80516001600160801b0381168114611ba457600080fd5b6000806000806000806000806000806000806101808d8f031215611c0857600080fd5b8c516bffffffffffffffffffffffff81168114611c2457600080fd5b9b50611c3260208e01611b99565b9a50611c4060408e01611b99565b9950611c4e60608e01611b99565b9850611c5c60808e01611ba9565b9750611c6a60a08e01611bbc565b9650611c7860c08e01611bbc565b9550611c8660e08e01611bce565b94506101008d015193506101208d01519250611ca56101408e01611bce565b9150611cb46101608e01611bce565b90509295989b509295989b509295989b565b60008160020b627fffff198103611cdf57611cdf611a67565b60000392915050565b600060208284031215611cfa57600080fd5b81516111498161184d565b6000825160005b81811015611d265760208186018101518583015201611d0c565b506000920191825250919050565b600060208284031215611d4657600080fd5b8151801515811461114957600080fdfea2646970667358221220b297ce4c60935a3d0dba175424d542ca7e897b00de6c6afaa0715f2d3b70bebb64736f6c63430008110033",
  "linkReferences": {},
  "deployedLinkReferences": {}
}