{
  "_format": "hh-sol-artifact-1",
  "contractName": "StakeNFT721",
  "sourceName": "contracts/stakeNFT721.sol",
  "abi": [
    {
      "inputs": [
        {
          "internalType": "uint8",
          "name": "maxWeeks",
          "type": "uint8"
        },
        {
          "internalType": "uint256",
          "name": "maxScale",
          "type": "uint256"
        },
        {
          "internalType": "uint8",
          "name": "lockWeeks",
          "type": "uint8"
        },
        {
          "internalType": "uint256",
          "name": "beginTime",
          "type": "uint256"
        },
        {
          "internalType": "uint256",
          "name": "endTime",
          "type": "uint256"
        },
        {
          "internalType": "address",
          "name": "_rewardToken",
          "type": "address"
        },
        {
          "internalType": "address",
          "name": "tokenA",
          "type": "address"
        },
        {
          "internalType": "address",
          "name": "tokenB",
          "type": "address"
        },
        {
          "internalType": "address",
          "name": "nft",
          "type": "address"
        },
        {
          "internalType": "int24",
          "name": "tickMin",
          "type": "int24"
        }
      ],
      "stateMutability": "nonpayable",
      "type": "constructor"
    },
    {
      "anonymous": false,
      "inputs": [
        {
          "indexed": true,
          "internalType": "address",
          "name": "user",
          "type": "address"
        },
        {
          "indexed": false,
          "internalType": "uint256",
          "name": "tokenId",
          "type": "uint256"
        },
        {
          "indexed": false,
          "internalType": "uint256",
          "name": "amount",
          "type": "uint256"
        }
      ],
      "name": "ClaimReward",
      "type": "event"
    },
    {
      "anonymous": false,
      "inputs": [
        {
          "indexed": true,
          "internalType": "address",
          "name": "user",
          "type": "address"
        },
        {
          "indexed": false,
          "internalType": "uint256",
          "name": "amount",
          "type": "uint256"
        }
      ],
      "name": "ClaimReward",
      "type": "event"
    },
    {
      "anonymous": false,
      "inputs": [
        {
          "indexed": true,
          "internalType": "address",
          "name": "user",
          "type": "address"
        },
        {
          "indexed": false,
          "internalType": "uint256",
          "name": "no",
          "type": "uint256"
        },
        {
          "indexed": false,
          "internalType": "uint256",
          "name": "amount",
          "type": "uint256"
        }
      ],
      "name": "SetReward",
      "type": "event"
    },
    {
      "anonymous": false,
      "inputs": [
        {
          "indexed": true,
          "internalType": "address",
          "name": "user",
          "type": "address"
        },
        {
          "indexed": false,
          "internalType": "uint256",
          "name": "tokenId",
          "type": "uint256"
        },
        {
          "indexed": false,
          "internalType": "uint256",
          "name": "amount",
          "type": "uint256"
        },
        {
          "indexed": false,
          "internalType": "uint8",
          "name": "k",
          "type": "uint8"
        }
      ],
      "name": "Stake",
      "type": "event"
    },
    {
      "anonymous": false,
      "inputs": [
        {
          "indexed": true,
          "internalType": "address",
          "name": "user",
          "type": "address"
        },
        {
          "indexed": false,
          "internalType": "uint256",
          "name": "tokenId",
          "type": "uint256"
        }
      ],
      "name": "Withdraw",
      "type": "event"
    },
    {
      "inputs": [],
      "name": "BEGIN_TIME",
      "outputs": [
        {
          "internalType": "uint256",
          "name": "",
          "type": "uint256"
        }
      ],
      "stateMutability": "view",
      "type": "function"
    },
    {
      "inputs": [],
      "name": "END_TIME",
      "outputs": [
        {
          "internalType": "uint256",
          "name": "",
          "type": "uint256"
        }
      ],
      "stateMutability": "view",
      "type": "function"
    },
    {
      "inputs": [],
      "name": "LOCK_WEEKNUM",
      "outputs": [
        {
          "internalType": "uint8",
          "name": "",
          "type": "uint8"
        }
      ],
      "stateMutability": "view",
      "type": "function"
    },
    {
      "inputs": [],
      "name": "MAX_SCALE",
      "outputs": [
        {
          "internalType": "uint256",
          "name": "",
          "type": "uint256"
        }
      ],
      "stateMutability": "view",
      "type": "function"
    },
    {
      "inputs": [],
      "name": "MAX_WEEKS",
      "outputs": [
        {
          "internalType": "uint8",
          "name": "",
          "type": "uint8"
        }
      ],
      "stateMutability": "view",
      "type": "function"
    },
    {
      "inputs": [],
      "name": "WEEK_SECONDS",
      "outputs": [
        {
          "internalType": "uint24",
          "name": "",
          "type": "uint24"
        }
      ],
      "stateMutability": "view",
      "type": "function"
    },
    {
      "inputs": [],
      "name": "acceptSetter",
      "outputs": [],
      "stateMutability": "nonpayable",
      "type": "function"
    },
    {
      "inputs": [],
      "name": "canClaimAmount",
      "outputs": [
        {
          "internalType": "uint256",
          "name": "",
          "type": "uint256"
        }
      ],
      "stateMutability": "view",
      "type": "function"
    },
    {
      "inputs": [],
      "name": "claimReward",
      "outputs": [],
      "stateMutability": "nonpayable",
      "type": "function"
    },
    {
      "inputs": [
        {
          "internalType": "uint256",
          "name": "amount",
          "type": "uint256"
        },
        {
          "internalType": "uint8",
          "name": "k",
          "type": "uint8"
        }
      ],
      "name": "getScore",
      "outputs": [
        {
          "internalType": "uint256",
          "name": "score",
          "type": "uint256"
        }
      ],
      "stateMutability": "view",
      "type": "function"
    },
    {
      "inputs": [],
      "name": "getUserNFTs",
      "outputs": [
        {
          "internalType": "uint256[]",
          "name": "",
          "type": "uint256[]"
        },
        {
          "internalType": "uint256",
          "name": "",
          "type": "uint256"
        }
      ],
      "stateMutability": "view",
      "type": "function"
    },
    {
      "inputs": [],
      "name": "latestNo",
      "outputs": [
        {
          "internalType": "uint256",
          "name": "",
          "type": "uint256"
        }
      ],
      "stateMutability": "view",
      "type": "function"
    },
    {
      "inputs": [],
      "name": "lockedRewardAmount",
      "outputs": [
        {
          "internalType": "uint256",
          "name": "",
          "type": "uint256"
        },
        {
          "internalType": "uint256[]",
          "name": "",
          "type": "uint256[]"
        }
      ],
      "stateMutability": "view",
      "type": "function"
    },
    {
      "inputs": [],
      "name": "nftToken",
      "outputs": [
        {
          "internalType": "contract IIotabeeSwapNFT",
          "name": "",
          "type": "address"
        }
      ],
      "stateMutability": "view",
      "type": "function"
    },
    {
      "inputs": [],
      "name": "owner",
      "outputs": [
        {
          "internalType": "address",
          "name": "",
          "type": "address"
        }
      ],
      "stateMutability": "view",
      "type": "function"
    },
    {
      "inputs": [],
      "name": "rewardToken",
      "outputs": [
        {
          "internalType": "address",
          "name": "",
          "type": "address"
        }
      ],
      "stateMutability": "view",
      "type": "function"
    },
    {
      "inputs": [
        {
          "internalType": "uint256",
          "name": "",
          "type": "uint256"
        }
      ],
      "name": "rewardsOf",
      "outputs": [
        {
          "internalType": "uint256",
          "name": "",
          "type": "uint256"
        }
      ],
      "stateMutability": "view",
      "type": "function"
    },
    {
      "inputs": [
        {
          "internalType": "uint256",
          "name": "no",
          "type": "uint256"
        },
        {
          "internalType": "uint256",
          "name": "amount",
          "type": "uint256"
        }
      ],
      "name": "setReward",
      "outputs": [],
      "stateMutability": "nonpayable",
      "type": "function"
    },
    {
      "inputs": [
        {
          "internalType": "uint256[]",
          "name": "nos",
          "type": "uint256[]"
        },
        {
          "internalType": "uint256[]",
          "name": "amounts",
          "type": "uint256[]"
        }
      ],
      "name": "setRewards",
      "outputs": [
        {
          "internalType": "uint256",
          "name": "total",
          "type": "uint256"
        }
      ],
      "stateMutability": "nonpayable",
      "type": "function"
    },
    {
      "inputs": [
        {
          "internalType": "uint256",
          "name": "tokenId",
          "type": "uint256"
        },
        {
          "internalType": "uint8",
          "name": "k",
          "type": "uint8"
        }
      ],
      "name": "stake",
      "outputs": [],
      "stateMutability": "nonpayable",
      "type": "function"
    },
    {
      "inputs": [
        {
          "internalType": "uint256",
          "name": "",
          "type": "uint256"
        }
      ],
      "name": "stakingNFTs",
      "outputs": [
        {
          "internalType": "address",
          "name": "owner",
          "type": "address"
        },
        {
          "internalType": "uint256",
          "name": "score",
          "type": "uint256"
        },
        {
          "internalType": "uint256",
          "name": "beginNo",
          "type": "uint256"
        },
        {
          "internalType": "uint256",
          "name": "endNo",
          "type": "uint256"
        }
      ],
      "stateMutability": "view",
      "type": "function"
    },
    {
      "inputs": [],
      "name": "token0",
      "outputs": [
        {
          "internalType": "address",
          "name": "",
          "type": "address"
        }
      ],
      "stateMutability": "view",
      "type": "function"
    },
    {
      "inputs": [],
      "name": "token1",
      "outputs": [
        {
          "internalType": "address",
          "name": "",
          "type": "address"
        }
      ],
      "stateMutability": "view",
      "type": "function"
    },
    {
      "inputs": [
        {
          "internalType": "uint256",
          "name": "",
          "type": "uint256"
        }
      ],
      "name": "totalScores",
      "outputs": [
        {
          "internalType": "uint256",
          "name": "",
          "type": "uint256"
        }
      ],
      "stateMutability": "view",
      "type": "function"
    },
    {
      "inputs": [
        {
          "internalType": "address",
          "name": "_owner",
          "type": "address"
        }
      ],
      "name": "transferOwner",
      "outputs": [],
      "stateMutability": "nonpayable",
      "type": "function"
    },
    {
      "inputs": [
        {
          "internalType": "address",
          "name": "",
          "type": "address"
        },
        {
          "internalType": "uint256",
          "name": "",
          "type": "uint256"
        }
      ],
      "name": "userCanClaimWeeks",
      "outputs": [
        {
          "internalType": "uint256",
          "name": "",
          "type": "uint256"
        }
      ],
      "stateMutability": "view",
      "type": "function"
    },
    {
      "inputs": [
        {
          "internalType": "address",
          "name": "",
          "type": "address"
        },
        {
          "internalType": "uint256",
          "name": "",
          "type": "uint256"
        }
      ],
      "name": "userNFTs",
      "outputs": [
        {
          "internalType": "uint256",
          "name": "",
          "type": "uint256"
        }
      ],
      "stateMutability": "view",
      "type": "function"
    },
    {
      "inputs": [
        {
          "internalType": "address",
          "name": "",
          "type": "address"
        },
        {
          "internalType": "uint256",
          "name": "",
          "type": "uint256"
        }
      ],
      "name": "userScores",
      "outputs": [
        {
          "internalType": "uint256",
          "name": "",
          "type": "uint256"
        }
      ],
      "stateMutability": "view",
      "type": "function"
    },
    {
      "inputs": [
        {
          "internalType": "uint256",
          "name": "tokenId",
          "type": "uint256"
        }
      ],
      "name": "withdraw",
      "outputs": [],
      "stateMutability": "nonpayable",
      "type": "function"
    },
    {
      "inputs": [
        {
          "internalType": "uint256[]",
          "name": "tokenIds",
          "type": "uint256[]"
        }
      ],
      "name": "withdraw",
      "outputs": [],
      "stateMutability": "nonpayable",
      "type": "function"
    },
    {
      "inputs": [
        {
          "internalType": "uint256",
          "name": "amount",
          "type": "uint256"
        }
      ],
      "name": "withdrawRewards",
      "outputs": [],
      "stateMutability": "nonpayable",
      "type": "function"
    }
  ],
  "bytecode": "0x6101e06040523480156200001257600080fd5b506040516200242138038062002421833981016040819052620000359162000103565b6001600160a01b0380861660805260ff808c1660a05260c08b9052891660e052610100889052610120879052600080546001600160a01b0319163317905583811690851610620000875782846200008a565b83835b6001600160a01b039081166101c0529081166101a052821661018052600281900b610140819052620000bc90620001c0565b60020b6101605250620001f198505050505050505050565b805160ff81168114620000e657600080fd5b919050565b80516001600160a01b0381168114620000e657600080fd5b6000806000806000806000806000806101408b8d0312156200012457600080fd5b6200012f8b620000d4565b995060208b015198506200014660408c01620000d4565b975060608b0151965060808b015195506200016460a08c01620000eb565b94506200017460c08c01620000eb565b93506200018460e08c01620000eb565b9250620001956101008c01620000eb565b91506101208b01518060020b8114620001ad57600080fd5b809150509295989b9194979a5092959850565b60008160020b627fffff198103620001e857634e487b7160e01b600052601160045260246000fd5b60000392915050565b60805160a05160c05160e05161010051610120516101405161016051610180516101a0516101c05161210f62000312600039600081816104d701526116db01526000818161025b015261169f0152600081816104b0015281816109e4015281816115fe0152818161180401526118d50152600061177d0152600061174d01526000818161036701528181610e8f015261111401526000818161046c01528181610eba015261113f01526000818161022201528181610b3701528181610c2701528181610dcd015261124601526000818161053801526114380152600081816104fe015281816105a7015281816113d401526113ff01526000818161055f01528181610e390152818161103a015281816111a7015261134e015261210f6000f3fe608060405234801561001057600080fd5b50600436106101e55760003560e01c80638da5cb5b1161010f578063cd671a58116100a2578063ee3453ed11610071578063ee3453ed14610520578063f6def7cf14610533578063f7c618c11461055a578063fdc5ab8e1461058157600080fd5b8063cd671a581461048e578063d06fcba8146104ab578063d21220a7146104d2578063e11400bb146104f957600080fd5b8063a47bd496116100de578063a47bd49614610439578063b88a802f1461044c578063bb57852d14610454578063c75363b61461046757600080fd5b80638da5cb5b146103ed5780639342c8f414610400578063979db1c414610413578063983d95ce1461042657600080fd5b806329ed1cfd116101875780635b680a45116101565780635b680a451461039c5780635f8e422f146103c75780638431165e146103cf5780638923de2b146103d757600080fd5b806329ed1cfd146103465780632e1a7d4d1461034f57806337ba682d146103625780634fb2e45d1461038957600080fd5b806310087fb1116101c357806310087fb11461029557806310c6c1c2146102aa578063157775df14610313578063291c73c31461033357600080fd5b80630bce1284146101ea5780630d437d401461021d5780630dfe168114610256575b600080fd5b61020a6101f8366004611b75565b60056020526000908152604090205481565b6040519081526020015b60405180910390f35b6102447f000000000000000000000000000000000000000000000000000000000000000081565b60405160ff9091168152602001610214565b61027d7f000000000000000000000000000000000000000000000000000000000000000081565b6040516001600160a01b039091168152602001610214565b6102a86102a3366004611b8e565b610597565b005b6102e96102b8366004611b75565b60076020526000908152604090208054600182015460028301546003909301546001600160a01b0390921692909184565b604080516001600160a01b0390951685526020850193909352918301526060820152608001610214565b61020a610321366004611b75565b60046020526000908152604090205481565b61020a610341366004611bd9565b610821565b61020a60065481565b6102a861035d366004611b75565b610852565b61020a7f000000000000000000000000000000000000000000000000000000000000000081565b6102a8610397366004611c05565b610a93565b61020a6103aa366004611bd9565b600260209081526000928352604080842090915290825290205481565b6102a8610adf565b61020a610b30565b6103df610c1e565b604051610214929190611c5d565b60005461027d906001600160a01b031681565b6102a861040e366004611b75565b610e0a565b61020a610421366004611d2f565b610e62565b6102a8610434366004611d93565b6110a4565b6102a8610447366004611dc8565b6110e8565b6102a8611240565b61020a610462366004611bd9565b6113a6565b61020a7f000000000000000000000000000000000000000000000000000000000000000081565b61049761025881565b60405162ffffff9091168152602001610214565b61027d7f000000000000000000000000000000000000000000000000000000000000000081565b61027d7f000000000000000000000000000000000000000000000000000000000000000081565b6102447f000000000000000000000000000000000000000000000000000000000000000081565b61020a61052e366004611b8e565b6113cb565b61020a7f000000000000000000000000000000000000000000000000000000000000000081565b61027d7f000000000000000000000000000000000000000000000000000000000000000081565b610589611495565b604051610214929190611dea565b60008160ff161180156105d057507f000000000000000000000000000000000000000000000000000000000000000060ff168160ff1611155b6106155760405162461bcd60e51b815260206004820152601160248201527039ba30b5b2903bb2b2b5b99032b93937b960791b60448201526064015b60405180910390fd5b6000610620836115f3565b9050600061063061025842611e22565b61063b906001611e44565b9050600061064983856113cb565b905060005b8460ff168160ff1610156106e357816004600061066e60ff851687611e44565b8152602001908152602001600020600082825461068b9190611e44565b909155505033600090815260026020526040812083916106ae60ff851687611e44565b815260200190815260200160002060008282546106cb9190611e44565b909155508190506106db81611e5d565b91505061064e565b5060006106f360ff861684611e44565b604080516080810182523380825260208083018781528385018981526060850187815260008e815260078552878120965187546001600160a01b0319166001600160a01b03909116178755925160018088019190915591516002870155516003958601559281529290529190209081015490549192509003610782573360009081526003602052604090208390555b33600090815260036020526040902081906001015410156107b3573360009081526003602052604090208190600101555b336000818152600860209081526040808320805460018101825590845292829020909201899055815189815290810187905260ff88168183015290517f6fa2f6021ee337436cdf2b2570285886da18bc06402ce284d296504a0fe8f8759181900360600190a2505050505050565b6008602052816000526040600020818154811061083d57600080fd5b90600052602060002001600091509150505481565b6000818152600760205260409020546001600160a01b031633146108aa5760405162461bcd60e51b815260206004820152600f60248201526e37bbb732b9103337b93134b23232b760891b604482015260640161060c565b60006108b861025842611e22565b60008381526007602052604090206003015490915081101561090a5760405162461bcd60e51b815260206004820152600b60248201526a6c6f636b65642074696d6560a81b604482015260640161060c565b336000908152600860205260408120905b8154811015610a575781818154811061093657610936611e7c565b90600052602060002001548403610a45578154829061095790600190611e92565b8154811061096757610967611e7c565b906000526020600020015482828154811061098457610984611e7c565b9060005260206000200181905550818054806109a2576109a2611ea5565b600082815260208120820160001990810191909155019055604051632142170760e11b8152306004820152336024820152604481018590526001600160a01b037f000000000000000000000000000000000000000000000000000000000000000016906342842e0e90606401600060405180830381600087803b158015610a2857600080fd5b505af1158015610a3c573d6000803e3d6000fd5b50505050610a57565b80610a4f81611ebb565b91505061091b565b5060405183815233907f884edad9ce6fa2440d8a54cc123490eb96d2768479d49ff9c7366125a9424364906020015b60405180910390a2505050565b6000546001600160a01b03163314610abd5760405162461bcd60e51b815260040161060c90611ed4565b600180546001600160a01b0319166001600160a01b0392909216919091179055565b6001546001600160a01b03163314610b095760405162461bcd60e51b815260040161060c90611ed4565b60018054600080546001600160a01b03199081166001600160a01b03841617909155169055565b60008060ff7f000000000000000000000000000000000000000000000000000000000000000016610b6361025842611e22565b610b6d9190611e92565b33600090815260036020526040812054919250905b33600090815260036020526040902060010154811015610c1757828111610c175760008181526004602052604090205415610c0557600081815260046020908152604080832054338452600283528184208585528352818420546005909352922054610bee9190611ef7565b610bf89190611e22565b610c029083611e44565b91505b80610c0f81611ebb565b915050610b82565b5092915050565b600060608160ff7f000000000000000000000000000000000000000000000000000000000000000016610c5361025842611e22565b610c5d9190611e92565b610c68906001611e44565b33600090815260036020526040902090915081906001015411610c9d5760408051600081526020810190915290939092509050565b33600090815260036020526040812080546001909101549091838311610cc35783610cc5565b825b90506000610cd38284611e92565b67ffffffffffffffff811115610ceb57610ceb611c7e565b604051908082528060200260200182016040528015610d14578160200160208202803683370190505b509050815b83811015610db65760008181526004602052604090205415610d7b57600081815260046020908152604080832054338452600283528184208585528352818420546005909352922054610d6c9190611ef7565b610d769190611e22565b610d7e565b60005b82610d898584611e92565b81518110610d9957610d99611e7c565b602090810291909101015280610dae81611ebb565b915050610d19565b506000610dc561025842611e22565b610df28460ff7f000000000000000000000000000000000000000000000000000000000000000016611e44565b610dfc9190611e92565b989197509095505050505050565b6000546001600160a01b03163314610e345760405162461bcd60e51b815260040161060c90611ed4565b610e5f7f0000000000000000000000000000000000000000000000000000000000000000338361194e565b50565b600080546001600160a01b03163314610e8d5760405162461bcd60e51b815260040161060c90611ed4565b7f00000000000000000000000000000000000000000000000000000000000000004211158015610edd57507f00000000000000000000000000000000000000000000000000000000000000004210155b610f1d5760405162461bcd60e51b81526020600482015260116024820152701b9bdd081a5b881d1a19481c195c9a5bd9607a1b604482015260640161060c565b8151835114610f615760405162461bcd60e51b815260206004820152601060248201526f3830b930b6b2ba32b9399032b93937b960811b604482015260640161060c565b6000805b845181101561102f57838181518110610f8057610f80611e7c565b602002602001015183610f939190611e44565b9250838181518110610fa757610fa7611e7c565b602002602001015160056000878481518110610fc557610fc5611e7c565b602002602001015181526020019081526020016000208190555081858281518110610ff257610ff2611e7c565b6020026020010151111561101d5784818151811061101257611012611e7c565b602002602001015191505b8061102781611ebb565b915050610f65565b5060068190556110617f0000000000000000000000000000000000000000000000000000000000000000333085611a5b565b60408051600081526020810184905233917fc3991418cacd70a010fce559a44fcbb47534ca43bf7543964bdca2639f6e6e5a910160405180910390a25092915050565b60005b81518110156110e4576110d28282815181106110c5576110c5611e7c565b6020026020010151610852565b806110dc81611ebb565b9150506110a7565b5050565b6000546001600160a01b031633146111125760405162461bcd60e51b815260040161060c90611ed4565b7f0000000000000000000000000000000000000000000000000000000000000000421115801561116257507f00000000000000000000000000000000000000000000000000000000000000004210155b6111a25760405162461bcd60e51b81526020600482015260116024820152701b9bdd081a5b881d1a19481c195c9a5bd9607a1b604482015260640161060c565b6111ce7f0000000000000000000000000000000000000000000000000000000000000000333084611a5b565b600082815260056020526040812080548392906111ec908490611e44565b90915550506006548211156112015760068290555b604080518381526020810183905233917fc3991418cacd70a010fce559a44fcbb47534ca43bf7543964bdca2639f6e6e5a910160405180910390a25050565b600060ff7f00000000000000000000000000000000000000000000000000000000000000001661127261025842611e22565b61127c9190611e92565b3360009081526003602052604081205491925090805b3360009081526003602052604090206001015481101561133557838111611335576112be816001611e44565b600082815260046020526040902054909250156113235760008181526004602090815260408083205433845260028352818420858552835281842054600590935292205461130c9190611ef7565b6113169190611e22565b6113209084611e44565b92505b8061132d81611ebb565b915050611292565b50336000908152600360205260408120829101556113747f0000000000000000000000000000000000000000000000000000000000000000338461194e565b60405182815233907fba8de60c3403ec381d1d484652ea1980e3c3e56359195c92525bff4ce47ad98e90602001610a86565b600360205281600052604060002081600281106113c257600080fd5b01549150829050565b60006113f860017f0000000000000000000000000000000000000000000000000000000000000000611f0e565b60ff1660017f000000000000000000000000000000000000000000000000000000000000000060ff1660018561142e9190611f0e565b60ff1661145c60017f0000000000000000000000000000000000000000000000000000000000000000611e92565b6114669190611ef7565b6114709190611e44565b61147a9190611e92565b6114849085611ef7565b61148e9190611e22565b9392505050565b3360009081526008602052604081205460609190819067ffffffffffffffff8111156114c3576114c3611c7e565b6040519080825280602002602001820160405280156114ec578160200160208202803683370190505b50905060006114fd61025842611e22565b3360009081526008602052604081205491925090815b336000908152600860205260409020548110156115e65733600090815260086020526040812080548390811061154b5761154b611e7c565b9060005260206000200154905084600760008381526020019081526020016000206003015411156115a6578086858151811061158957611589611e7c565b60209081029190910101528361159e81611ebb565b9450506115d3565b826115b081611f27565b935050808684815181106115c6576115c6611e7c565b6020026020010181815250505b50806115de81611ebb565b915050611513565b5092959294509192505050565b6000806000806000807f00000000000000000000000000000000000000000000000000000000000000006001600160a01b03166399fbab88886040518263ffffffff1660e01b815260040161164a91815260200190565b61018060405180830381865afa158015611668573d6000803e3d6000fd5b505050506040513d601f19601f8201168201806040525081019061168c9190611f8a565b50505050975097509750509650965050507f00000000000000000000000000000000000000000000000000000000000000006001600160a01b0316856001600160a01b031614801561170f57507f00000000000000000000000000000000000000000000000000000000000000006001600160a01b0316846001600160a01b0316145b61174b5760405162461bcd60e51b815260206004820152600d60248201526c3638103830b4b91032b93937b960991b604482015260640161060c565b7f000000000000000000000000000000000000000000000000000000000000000060020b8360020b1480156117a557507f000000000000000000000000000000000000000000000000000000000000000060020b8260020b145b6117e45760405162461bcd60e51b815260206004820152601060248201526f3a34b1b5903930b733b29032b93937b960811b604482015260640161060c565b60405163020604bf60e21b81526004810188905230906001600160a01b037f0000000000000000000000000000000000000000000000000000000000000000169063081812fc90602401602060405180830381865afa15801561184b573d6000803e3d6000fd5b505050506040513d601f19601f8201168201806040525081019061186f919061206b565b6001600160a01b0316146118b35760405162461bcd60e51b815260206004820152600b60248201526a6e6f7420617070726f766560a81b604482015260640161060c565b604051632142170760e11b8152336004820152306024820152604481018890527f00000000000000000000000000000000000000000000000000000000000000006001600160a01b0316906342842e0e90606401600060405180830381600087803b15801561192157600080fd5b505af1158015611935573d6000803e3d6000fd5b50506001600160801b0390921698975050505050505050565b604080516001600160a01b038481166024830152604480830185905283518084039091018152606490920183526020820180516001600160e01b031663a9059cbb60e01b17905291516000928392908716916119aa9190612088565b6000604051808303816000865af19150503d80600081146119e7576040519150601f19603f3d011682016040523d82523d6000602084013e6119ec565b606091505b5091509150818015611a16575080511580611a16575080806020019051810190611a1691906120b7565b611a545760405162461bcd60e51b815260206004820152600f60248201526e1514905394d1915497d19052531151608a1b604482015260640161060c565b5050505050565b604080516001600160a01b0385811660248301528481166044830152606480830185905283518084039091018152608490920183526020820180516001600160e01b03166323b872dd60e01b1790529151600092839290881691611abf9190612088565b6000604051808303816000865af19150503d8060008114611afc576040519150601f19603f3d011682016040523d82523d6000602084013e611b01565b606091505b5091509150818015611b2b575080511580611b2b575080806020019051810190611b2b91906120b7565b611b6d5760405162461bcd60e51b81526020600482015260136024820152721d1c985b9cd9995c919c9bdb4819985a5b1959606a1b604482015260640161060c565b505050505050565b600060208284031215611b8757600080fd5b5035919050565b60008060408385031215611ba157600080fd5b82359150602083013560ff81168114611bb957600080fd5b809150509250929050565b6001600160a01b0381168114610e5f57600080fd5b60008060408385031215611bec57600080fd5b8235611bf781611bc4565b946020939093013593505050565b600060208284031215611c1757600080fd5b813561148e81611bc4565b600081518084526020808501945080840160005b83811015611c5257815187529582019590820190600101611c36565b509495945050505050565b828152604060208201526000611c766040830184611c22565b949350505050565b634e487b7160e01b600052604160045260246000fd5b600082601f830112611ca557600080fd5b8135602067ffffffffffffffff80831115611cc257611cc2611c7e565b8260051b604051601f19603f83011681018181108482111715611ce757611ce7611c7e565b604052938452858101830193838101925087851115611d0557600080fd5b83870191505b84821015611d2457813583529183019190830190611d0b565b979650505050505050565b60008060408385031215611d4257600080fd5b823567ffffffffffffffff80821115611d5a57600080fd5b611d6686838701611c94565b93506020850135915080821115611d7c57600080fd5b50611d8985828601611c94565b9150509250929050565b600060208284031215611da557600080fd5b813567ffffffffffffffff811115611dbc57600080fd5b611c7684828501611c94565b60008060408385031215611ddb57600080fd5b50508035926020909101359150565b604081526000611dfd6040830185611c22565b90508260208301529392505050565b634e487b7160e01b600052601160045260246000fd5b600082611e3f57634e487b7160e01b600052601260045260246000fd5b500490565b80820180821115611e5757611e57611e0c565b92915050565b600060ff821660ff8103611e7357611e73611e0c565b60010192915050565b634e487b7160e01b600052603260045260246000fd5b81810381811115611e5757611e57611e0c565b634e487b7160e01b600052603160045260246000fd5b600060018201611ecd57611ecd611e0c565b5060010190565b6020808252600990820152683337b93134b23232b760b91b604082015260600190565b8082028115828204841417611e5757611e57611e0c565b60ff8281168282160390811115611e5757611e57611e0c565b600081611f3657611f36611e0c565b506000190190565b8051611f4981611bc4565b919050565b805162ffffff81168114611f4957600080fd5b8051600281900b8114611f4957600080fd5b80516001600160801b0381168114611f4957600080fd5b6000806000806000806000806000806000806101808d8f031215611fad57600080fd5b8c516bffffffffffffffffffffffff81168114611fc957600080fd5b9b50611fd760208e01611f3e565b9a50611fe560408e01611f3e565b9950611ff360608e01611f3e565b985061200160808e01611f4e565b975061200f60a08e01611f61565b965061201d60c08e01611f61565b955061202b60e08e01611f73565b94506101008d015193506101208d0151925061204a6101408e01611f73565b91506120596101608e01611f73565b90509295989b509295989b509295989b565b60006020828403121561207d57600080fd5b815161148e81611bc4565b6000825160005b818110156120a9576020818601810151858301520161208f565b506000920191825250919050565b6000602082840312156120c957600080fd5b8151801515811461148e57600080fdfea2646970667358221220b2a666f71414d3bf7f75a74edd946e394c43b7b6f83d077e56ece9c20a83337964736f6c63430008110033",
  "linkReferences": {},
  "deployedLinkReferences": {}
}