{
  "_format": "hh-sol-artifact-1",
  "contractName": "StakeNftLiquidity",
  "sourceName": "contracts/stakeNFT721.sol",
  "abi": [
    {
      "inputs": [
        {
          "internalType": "address",
          "name": "tokenA",
          "type": "address"
        },
        {
          "internalType": "address",
          "name": "tokenB",
          "type": "address"
        },
        {
          "internalType": "address",
          "name": "nft",
          "type": "address"
        },
        {
          "internalType": "address",
          "name": "_rewardToken",
          "type": "address"
        }
      ],
      "stateMutability": "nonpayable",
      "type": "constructor"
    },
    {
      "anonymous": false,
      "inputs": [
        {
          "indexed": true,
          "internalType": "address",
          "name": "user",
          "type": "address"
        },
        {
          "indexed": false,
          "internalType": "uint256",
          "name": "tokenId",
          "type": "uint256"
        },
        {
          "indexed": false,
          "internalType": "uint256",
          "name": "amount",
          "type": "uint256"
        }
      ],
      "name": "ClaimReward",
      "type": "event"
    },
    {
      "anonymous": false,
      "inputs": [
        {
          "indexed": true,
          "internalType": "address",
          "name": "user",
          "type": "address"
        },
        {
          "indexed": false,
          "internalType": "uint256",
          "name": "no",
          "type": "uint256"
        },
        {
          "indexed": false,
          "internalType": "uint256",
          "name": "amount",
          "type": "uint256"
        }
      ],
      "name": "SetReward",
      "type": "event"
    },
    {
      "anonymous": false,
      "inputs": [
        {
          "indexed": true,
          "internalType": "address",
          "name": "user",
          "type": "address"
        },
        {
          "indexed": false,
          "internalType": "uint256",
          "name": "tokenId",
          "type": "uint256"
        },
        {
          "indexed": false,
          "internalType": "uint256",
          "name": "amount",
          "type": "uint256"
        },
        {
          "indexed": false,
          "internalType": "uint8",
          "name": "k",
          "type": "uint8"
        }
      ],
      "name": "Stake",
      "type": "event"
    },
    {
      "anonymous": false,
      "inputs": [
        {
          "indexed": true,
          "internalType": "address",
          "name": "user",
          "type": "address"
        },
        {
          "indexed": false,
          "internalType": "uint256",
          "name": "tokenId",
          "type": "uint256"
        }
      ],
      "name": "Withdraw",
      "type": "event"
    },
    {
      "inputs": [],
      "name": "MAX_SCALE",
      "outputs": [
        {
          "internalType": "uint256",
          "name": "",
          "type": "uint256"
        }
      ],
      "stateMutability": "view",
      "type": "function"
    },
    {
      "inputs": [],
      "name": "MAX_WEEKS",
      "outputs": [
        {
          "internalType": "uint8",
          "name": "",
          "type": "uint8"
        }
      ],
      "stateMutability": "view",
      "type": "function"
    },
    {
      "inputs": [],
      "name": "WEEK_SECONDS",
      "outputs": [
        {
          "internalType": "uint24",
          "name": "",
          "type": "uint24"
        }
      ],
      "stateMutability": "view",
      "type": "function"
    },
    {
      "inputs": [],
      "name": "acceptSetter",
      "outputs": [],
      "stateMutability": "nonpayable",
      "type": "function"
    },
    {
      "inputs": [
        {
          "internalType": "uint256",
          "name": "",
          "type": "uint256"
        },
        {
          "internalType": "uint256",
          "name": "",
          "type": "uint256"
        }
      ],
      "name": "bClaimReward",
      "outputs": [
        {
          "internalType": "bool",
          "name": "",
          "type": "bool"
        }
      ],
      "stateMutability": "view",
      "type": "function"
    },
    {
      "inputs": [
        {
          "internalType": "uint256",
          "name": "tokenId",
          "type": "uint256"
        },
        {
          "internalType": "uint256[]",
          "name": "Nos",
          "type": "uint256[]"
        }
      ],
      "name": "claimReward",
      "outputs": [],
      "stateMutability": "nonpayable",
      "type": "function"
    },
    {
      "inputs": [],
      "name": "claimReward",
      "outputs": [],
      "stateMutability": "nonpayable",
      "type": "function"
    },
    {
      "inputs": [],
      "name": "divConst",
      "outputs": [
        {
          "internalType": "uint32",
          "name": "",
          "type": "uint32"
        }
      ],
      "stateMutability": "view",
      "type": "function"
    },
    {
      "inputs": [
        {
          "internalType": "uint256",
          "name": "amount",
          "type": "uint256"
        },
        {
          "internalType": "uint8",
          "name": "k",
          "type": "uint8"
        }
      ],
      "name": "getScore",
      "outputs": [
        {
          "internalType": "uint256",
          "name": "",
          "type": "uint256"
        }
      ],
      "stateMutability": "view",
      "type": "function"
    },
    {
      "inputs": [],
      "name": "getUserNFTs",
      "outputs": [
        {
          "internalType": "uint256[]",
          "name": "",
          "type": "uint256[]"
        },
        {
          "internalType": "uint256",
          "name": "",
          "type": "uint256"
        }
      ],
      "stateMutability": "view",
      "type": "function"
    },
    {
      "inputs": [],
      "name": "latestNo",
      "outputs": [
        {
          "internalType": "uint256",
          "name": "",
          "type": "uint256"
        }
      ],
      "stateMutability": "view",
      "type": "function"
    },
    {
      "inputs": [],
      "name": "nftToken",
      "outputs": [
        {
          "internalType": "contract IIotabeeSwapNFT",
          "name": "",
          "type": "address"
        }
      ],
      "stateMutability": "view",
      "type": "function"
    },
    {
      "inputs": [],
      "name": "owner",
      "outputs": [
        {
          "internalType": "address",
          "name": "",
          "type": "address"
        }
      ],
      "stateMutability": "view",
      "type": "function"
    },
    {
      "inputs": [],
      "name": "rewardToken",
      "outputs": [
        {
          "internalType": "address",
          "name": "",
          "type": "address"
        }
      ],
      "stateMutability": "view",
      "type": "function"
    },
    {
      "inputs": [
        {
          "internalType": "uint256",
          "name": "",
          "type": "uint256"
        }
      ],
      "name": "rewardsOf",
      "outputs": [
        {
          "internalType": "uint256",
          "name": "",
          "type": "uint256"
        }
      ],
      "stateMutability": "view",
      "type": "function"
    },
    {
      "inputs": [
        {
          "internalType": "uint256",
          "name": "no",
          "type": "uint256"
        },
        {
          "internalType": "uint256",
          "name": "amount",
          "type": "uint256"
        }
      ],
      "name": "setReward",
      "outputs": [],
      "stateMutability": "nonpayable",
      "type": "function"
    },
    {
      "inputs": [
        {
          "internalType": "uint8",
          "name": "maxWeeks",
          "type": "uint8"
        },
        {
          "internalType": "uint256",
          "name": "maxScale",
          "type": "uint256"
        }
      ],
      "name": "setScoreFormula",
      "outputs": [],
      "stateMutability": "nonpayable",
      "type": "function"
    },
    {
      "inputs": [
        {
          "internalType": "uint256",
          "name": "tokenId",
          "type": "uint256"
        },
        {
          "internalType": "uint8",
          "name": "k",
          "type": "uint8"
        }
      ],
      "name": "stake",
      "outputs": [],
      "stateMutability": "nonpayable",
      "type": "function"
    },
    {
      "inputs": [
        {
          "internalType": "uint256",
          "name": "",
          "type": "uint256"
        }
      ],
      "name": "stakingNFTs",
      "outputs": [
        {
          "internalType": "address",
          "name": "owner",
          "type": "address"
        },
        {
          "internalType": "uint256",
          "name": "score",
          "type": "uint256"
        },
        {
          "internalType": "uint256",
          "name": "beginNo",
          "type": "uint256"
        },
        {
          "internalType": "uint256",
          "name": "endNo",
          "type": "uint256"
        },
        {
          "internalType": "uint256",
          "name": "toClaimedNo",
          "type": "uint256"
        }
      ],
      "stateMutability": "view",
      "type": "function"
    },
    {
      "inputs": [],
      "name": "token0",
      "outputs": [
        {
          "internalType": "address",
          "name": "",
          "type": "address"
        }
      ],
      "stateMutability": "view",
      "type": "function"
    },
    {
      "inputs": [],
      "name": "token1",
      "outputs": [
        {
          "internalType": "address",
          "name": "",
          "type": "address"
        }
      ],
      "stateMutability": "view",
      "type": "function"
    },
    {
      "inputs": [
        {
          "internalType": "address",
          "name": "_owner",
          "type": "address"
        }
      ],
      "name": "transferOwner",
      "outputs": [],
      "stateMutability": "nonpayable",
      "type": "function"
    },
    {
      "inputs": [
        {
          "internalType": "address",
          "name": "",
          "type": "address"
        },
        {
          "internalType": "uint256",
          "name": "",
          "type": "uint256"
        }
      ],
      "name": "userNFTs",
      "outputs": [
        {
          "internalType": "uint256",
          "name": "",
          "type": "uint256"
        }
      ],
      "stateMutability": "view",
      "type": "function"
    },
    {
      "inputs": [
        {
          "internalType": "uint256[]",
          "name": "tokenIds",
          "type": "uint256[]"
        }
      ],
      "name": "withdraw",
      "outputs": [],
      "stateMutability": "nonpayable",
      "type": "function"
    }
  ],
  "bytecode": "0x6101006040523480156200001257600080fd5b5060405162001ce538038062001ce58339810160408190526200003591620000bb565b600080546001600160a01b031916331790556001600160a01b03838116908516106200006357828462000066565b83835b6001600160a01b0390811660c05290811660a0529182166080521660e05250506008805460ff19166034179055600260095562000118565b80516001600160a01b0381168114620000b657600080fd5b919050565b60008060008060808587031215620000d257600080fd5b620000dd856200009e565b9350620000ed602086016200009e565b9250620000fd604086016200009e565b91506200010d606086016200009e565b905092959194509250565b60805160a05160c05160e051611b5462000191600039600081816104040152818161098301528181610a190152610c310152600081816103a20152610f2c0152600081816101950152610ef001526000818161037b01528181610e4f01528181611023015281816110f401526113000152611b546000f3fe608060405234801561001057600080fd5b50600436106101585760003560e01c80639b6e0d74116100c3578063d21220a71161007c578063d21220a71461039d578063e11400bb146103c4578063ee3453ed146103e3578063f6def7cf146103f6578063f7c618c1146103ff578063fdc5ab8e1461042657600080fd5b80639b6e0d74146102ec578063a47bd496146102ff578063b88a802f14610312578063cd671a581461031a578063ce6d3e3e14610338578063d06fcba81461037657600080fd5b80634fb2e45d116101155780634fb2e45d146102795780635f8e422f1461028c578063721348e8146102945780637e4856c4146102a75780638da5cb5b146102c6578063983d95ce146102d957600080fd5b80630bce12841461015d5780630dfe16811461019057806310087fb1146101cf57806310c6c1c2146101e4578063291c73c31461025d57806329ed1cfd14610270575b600080fd5b61017d61016b3660046115d5565b60066020526000908152604090205481565b6040519081526020015b60405180910390f35b6101b77f000000000000000000000000000000000000000000000000000000000000000081565b6040516001600160a01b039091168152602001610187565b6101e26101dd366004611604565b61043c565b005b61022b6101f23660046115d5565b6002602081905260009182526040909120805460018201549282015460038301546004909301546001600160a01b039092169392909185565b604080516001600160a01b0390961686526020860194909452928401919091526060830152608082015260a001610187565b61017d61026b366004611648565b610625565b61017d60075481565b6101e2610287366004611674565b610656565b6101e26106a2565b6101e26102a2366004611698565b6106f3565b6102b1620f424081565b60405163ffffffff9091168152602001610187565b6000546101b7906001600160a01b031681565b6101e26102e7366004611765565b61077c565b6101e26102fa3660046117a2565b6107c0565b6101e261030d3660046117e9565b6109ea565b6101e2610ab3565b61032462093a8081565b60405162ffffff9091168152602001610187565b6103666103463660046117e9565b600460209081526000928352604080842090915290825290205460ff1681565b6040519015158152602001610187565b6101b77f000000000000000000000000000000000000000000000000000000000000000081565b6101b77f000000000000000000000000000000000000000000000000000000000000000081565b6008546103d19060ff1681565b60405160ff9091168152602001610187565b61017d6103f1366004611604565b610c90565b61017d60095481565b6101b77f000000000000000000000000000000000000000000000000000000000000000081565b61042e610ce5565b60405161018792919061180b565b60008160ff16118015610458575060085460ff90811690821611155b61049d5760405162461bcd60e51b815260206004820152601160248201527039ba30b5b2903bb2b2b5b99032b93937b960791b60448201526064015b60405180910390fd5b60006104a883610e44565b905060006104b962093a8042611869565b6104c490600161188b565b905060006104d28385610c90565b905060005b8460ff168160ff16101561052c5781600560006104f760ff85168761188b565b81526020019081526020016000206000828254610514919061188b565b909155508190506105248161189e565b9150506104d7565b506040805160a081018252338152602081018390529081018390526060810161055860ff87168561188b565b81526020908101849052600087815260028083526040808320855181546001600160a01b0319166001600160a01b039091161781558585015160018083019190915586830151938201939093556060808701516003808401919091556080909701516004909201919091553380855295855281842080549384018155845292849020909101899055805189815292830187905260ff8816908301527f6fa2f6021ee337436cdf2b2570285886da18bc06402ce284d296504a0fe8f875910160405180910390a25050505050565b6003602052816000526040600020818154811061064157600080fd5b90600052602060002001600091509150505481565b6000546001600160a01b031633146106805760405162461bcd60e51b8152600401610494906118bd565b600180546001600160a01b0319166001600160a01b0392909216919091179055565b6001546001600160a01b031633146106cc5760405162461bcd60e51b8152600401610494906118bd565b60018054600080546001600160a01b03199081166001600160a01b03841617909155169055565b6000546001600160a01b0316331461071d5760405162461bcd60e51b8152600401610494906118bd565b600181116107625760405162461bcd60e51b81526020600482015260126024820152711b585e14d8d85b19481d1bdbc81cdb585b1b60721b6044820152606401610494565b6008805460ff191660ff9390931692909217909155600955565b60005b81518110156107bc576107aa82828151811061079d5761079d6118e0565b602002602001015161116d565b806107b4816118f6565b91505061077f565b5050565b6000828152600260205260409020546001600160a01b031633146108185760405162461bcd60e51b815260206004820152600f60248201526e37bbb732b9103337b93134b23232b760891b6044820152606401610494565b600061082762093a8042611869565b90506000805b835181101561097d57600084828151811061084a5761084a6118e0565b6020908102919091018101516000888152600483526040808220838352909352919091205490915060ff1615610880575061096b565b600086815260046020908152604080832084845290915290205460ff16806108b957506000868152600260205260409020600301548110155b806108d557506000868152600260208190526040909120015481105b806108df57508381115b806108f65750600081815260066020526040902054155b15610901575061096b565b60008681526004602090815260408083208484528252808320805460ff1916600190811790915560058352818420548a855260028452828520909101548585526006909352922054610953919061190f565b61095d9190611869565b610967908461188b565b9250505b80610975816118f6565b91505061082d565b506109a97f000000000000000000000000000000000000000000000000000000000000000033836113ae565b604080518581526020810183905233917fe74e5c9d4ac1fc33412485f18c159a0a391efe287ab3fd271123f30e6bacf4e3910160405180910390a250505050565b6000546001600160a01b03163314610a145760405162461bcd60e51b8152600401610494906118bd565b610a407f00000000000000000000000000000000000000000000000000000000000000003330846114bb565b60008281526006602052604081208054839290610a5e90849061188b565b9091555050600754821115610a735760078290555b604080518381526020810183905233917fc3991418cacd70a010fce559a44fcbb47534ca43bf7543964bdca2639f6e6e5a91015b60405180910390a25050565b6000610ac262093a8042611869565b90506000805b33600090815260036020526040902054811015610c2b57336000908152600360205260408120805483908110610b0057610b006118e0565b600091825260208083209091015480835260029091526040909120600401549091505b600082815260026020526040902060030154811015610c1657600082815260046020908152604080832084845290915290205460ff1680610b6357508481115b80610b7a5750600081815260066020526040902054155b610c045760008281526004602090815260408083208484529091529020805460ff19166001908117909155610bb090829061188b565b600083815260026020908152604080832060048101949094558483526005825280832054600190940154600690925290912054610bed919061190f565b610bf79190611869565b610c01908561188b565b93505b80610c0e816118f6565b915050610b23565b50508080610c23906118f6565b915050610ac8565b50610c577f000000000000000000000000000000000000000000000000000000000000000033836113ae565b60408051600081526020810183905233917fe74e5c9d4ac1fc33412485f18c159a0a391efe287ab3fd271123f30e6bacf4e39101610aa7565b600854600954600091829160ff91821691829190861690610cb390600190611926565b610cbd919061190f565b610cc7919061188b565b610cd1908661190f565b610cdb9190611869565b9150505b92915050565b3360009081526003602052604081205460609190819067ffffffffffffffff811115610d1357610d136116b4565b604051908082528060200260200182016040528015610d3c578160200160208202803683370190505b5090506000610d4e62093a8042611869565b3360009081526003602052604081205491925090815b33600090815260036020526040902054811015610e3757336000908152600360205260408120805483908110610d9c57610d9c6118e0565b906000526020600020015490508460026000838152602001908152602001600020600301541115610df75780868581518110610dda57610dda6118e0565b602090810291909101015283610def816118f6565b945050610e24565b82610e0181611939565b93505080868481518110610e1757610e176118e0565b6020026020010181815250505b5080610e2f816118f6565b915050610d64565b5092959294509192505050565b6000806000806000807f00000000000000000000000000000000000000000000000000000000000000006001600160a01b03166399fbab88886040518263ffffffff1660e01b8152600401610e9b91815260200190565b61018060405180830381865afa158015610eb9573d6000803e3d6000fd5b505050506040513d601f19601f82011682018060405250810190610edd9190611997565b50505050975097509750509650965050507f00000000000000000000000000000000000000000000000000000000000000006001600160a01b0316856001600160a01b0316148015610f6057507f00000000000000000000000000000000000000000000000000000000000000006001600160a01b0316846001600160a01b0316145b610f9c5760405162461bcd60e51b815260206004820152600d60248201526c3638103830b4b91032b93937b960991b6044820152606401610494565b600283900b620d89e719148015610fc45750610fbb620d89e719611a78565b60020b8260020b145b6110035760405162461bcd60e51b815260206004820152601060248201526f3a34b1b5903930b733b29032b93937b960811b6044820152606401610494565b60405163020604bf60e21b81526004810188905230906001600160a01b037f0000000000000000000000000000000000000000000000000000000000000000169063081812fc90602401602060405180830381865afa15801561106a573d6000803e3d6000fd5b505050506040513d601f19601f8201168201806040525081019061108e9190611a9a565b6001600160a01b0316146110d25760405162461bcd60e51b815260206004820152600b60248201526a6e6f7420617070726f766560a81b6044820152606401610494565b604051632142170760e11b8152336004820152306024820152604481018890527f00000000000000000000000000000000000000000000000000000000000000006001600160a01b0316906342842e0e90606401600060405180830381600087803b15801561114057600080fd5b505af1158015611154573d6000803e3d6000fd5b50506001600160801b0390921698975050505050505050565b6000818152600260205260409020546001600160a01b031633146111c55760405162461bcd60e51b815260206004820152600f60248201526e37bbb732b9103337b93134b23232b760891b6044820152606401610494565b60006111d462093a8042611869565b6000838152600260205260409020600301549091508110156112265760405162461bcd60e51b815260206004820152600b60248201526a6c6f636b65642074696d6560a81b6044820152606401610494565b336000908152600360205260408120905b815481101561137357818181548110611252576112526118e0565b90600052602060002001548403611361578154829061127390600190611926565b81548110611283576112836118e0565b90600052602060002001548282815481106112a0576112a06118e0565b9060005260206000200181905550818054806112be576112be611ab7565b600082815260208120820160001990810191909155019055604051632142170760e11b8152306004820152336024820152604481018590526001600160a01b037f000000000000000000000000000000000000000000000000000000000000000016906342842e0e90606401600060405180830381600087803b15801561134457600080fd5b505af1158015611358573d6000803e3d6000fd5b50505050611373565b8061136b816118f6565b915050611237565b5060405183815233907f884edad9ce6fa2440d8a54cc123490eb96d2768479d49ff9c7366125a94243649060200160405180910390a2505050565b604080516001600160a01b038481166024830152604480830185905283518084039091018152606490920183526020820180516001600160e01b031663a9059cbb60e01b179052915160009283929087169161140a9190611acd565b6000604051808303816000865af19150503d8060008114611447576040519150601f19603f3d011682016040523d82523d6000602084013e61144c565b606091505b50915091508180156114765750805115806114765750808060200190518101906114769190611afc565b6114b45760405162461bcd60e51b815260206004820152600f60248201526e1514905394d1915497d19052531151608a1b6044820152606401610494565b5050505050565b604080516001600160a01b0385811660248301528481166044830152606480830185905283518084039091018152608490920183526020820180516001600160e01b03166323b872dd60e01b179052915160009283929088169161151f9190611acd565b6000604051808303816000865af19150503d806000811461155c576040519150601f19603f3d011682016040523d82523d6000602084013e611561565b606091505b509150915081801561158b57508051158061158b57508080602001905181019061158b9190611afc565b6115cd5760405162461bcd60e51b81526020600482015260136024820152721d1c985b9cd9995c919c9bdb4819985a5b1959606a1b6044820152606401610494565b505050505050565b6000602082840312156115e757600080fd5b5035919050565b803560ff811681146115ff57600080fd5b919050565b6000806040838503121561161757600080fd5b82359150611627602084016115ee565b90509250929050565b6001600160a01b038116811461164557600080fd5b50565b6000806040838503121561165b57600080fd5b823561166681611630565b946020939093013593505050565b60006020828403121561168657600080fd5b813561169181611630565b9392505050565b600080604083850312156116ab57600080fd5b611666836115ee565b634e487b7160e01b600052604160045260246000fd5b600082601f8301126116db57600080fd5b8135602067ffffffffffffffff808311156116f8576116f86116b4565b8260051b604051601f19603f8301168101818110848211171561171d5761171d6116b4565b60405293845285810183019383810192508785111561173b57600080fd5b83870191505b8482101561175a57813583529183019190830190611741565b979650505050505050565b60006020828403121561177757600080fd5b813567ffffffffffffffff81111561178e57600080fd5b61179a848285016116ca565b949350505050565b600080604083850312156117b557600080fd5b82359150602083013567ffffffffffffffff8111156117d357600080fd5b6117df858286016116ca565b9150509250929050565b600080604083850312156117fc57600080fd5b50508035926020909101359150565b604080825283519082018190526000906020906060840190828701845b8281101561184457815184529284019290840190600101611828565b50505092019290925292915050565b634e487b7160e01b600052601160045260246000fd5b60008261188657634e487b7160e01b600052601260045260246000fd5b500490565b80820180821115610cdf57610cdf611853565b600060ff821660ff81036118b4576118b4611853565b60010192915050565b6020808252600990820152683337b93134b23232b760b91b604082015260600190565b634e487b7160e01b600052603260045260246000fd5b60006001820161190857611908611853565b5060010190565b8082028115828204841417610cdf57610cdf611853565b81810381811115610cdf57610cdf611853565b60008161194857611948611853565b506000190190565b80516115ff81611630565b805162ffffff811681146115ff57600080fd5b8051600281900b81146115ff57600080fd5b80516001600160801b03811681146115ff57600080fd5b6000806000806000806000806000806000806101808d8f0312156119ba57600080fd5b8c516bffffffffffffffffffffffff811681146119d657600080fd5b9b506119e460208e01611950565b9a506119f260408e01611950565b9950611a0060608e01611950565b9850611a0e60808e0161195b565b9750611a1c60a08e0161196e565b9650611a2a60c08e0161196e565b9550611a3860e08e01611980565b94506101008d015193506101208d01519250611a576101408e01611980565b9150611a666101608e01611980565b90509295989b509295989b509295989b565b60008160020b627fffff198103611a9157611a91611853565b60000392915050565b600060208284031215611aac57600080fd5b815161169181611630565b634e487b7160e01b600052603160045260246000fd5b6000825160005b81811015611aee5760208186018101518583015201611ad4565b506000920191825250919050565b600060208284031215611b0e57600080fd5b8151801515811461169157600080fdfea2646970667358221220e2c0665f5e72606bdaeb67bc4402553cb619ee664f6166f29d3a7428f367e3cc64736f6c63430008110033",
  "linkReferences": {},
  "deployedLinkReferences": {}
}