{
  "_format": "hh-sol-artifact-1",
  "contractName": "StakeLiquidity",
  "sourceName": "contracts/stake_nft.sol",
  "abi": [
    {
      "inputs": [
        {
          "internalType": "address",
          "name": "tokenA",
          "type": "address"
        },
        {
          "internalType": "address",
          "name": "tokenB",
          "type": "address"
        },
        {
          "internalType": "address",
          "name": "nft",
          "type": "address"
        },
        {
          "internalType": "address",
          "name": "_rewardToken",
          "type": "address"
        }
      ],
      "stateMutability": "nonpayable",
      "type": "constructor"
    },
    {
      "anonymous": false,
      "inputs": [
        {
          "indexed": true,
          "internalType": "address",
          "name": "user",
          "type": "address"
        },
        {
          "indexed": false,
          "internalType": "uint256",
          "name": "tokenId",
          "type": "uint256"
        },
        {
          "indexed": false,
          "internalType": "uint256",
          "name": "amount",
          "type": "uint256"
        }
      ],
      "name": "ClaimReward",
      "type": "event"
    },
    {
      "anonymous": false,
      "inputs": [
        {
          "indexed": true,
          "internalType": "address",
          "name": "user",
          "type": "address"
        },
        {
          "indexed": false,
          "internalType": "uint256",
          "name": "no",
          "type": "uint256"
        },
        {
          "indexed": false,
          "internalType": "uint256",
          "name": "amount",
          "type": "uint256"
        }
      ],
      "name": "SetReward",
      "type": "event"
    },
    {
      "anonymous": false,
      "inputs": [
        {
          "indexed": true,
          "internalType": "address",
          "name": "user",
          "type": "address"
        },
        {
          "indexed": false,
          "internalType": "uint256",
          "name": "tokenId",
          "type": "uint256"
        },
        {
          "indexed": false,
          "internalType": "uint256",
          "name": "amount",
          "type": "uint256"
        },
        {
          "indexed": false,
          "internalType": "uint8",
          "name": "k",
          "type": "uint8"
        }
      ],
      "name": "Stake",
      "type": "event"
    },
    {
      "anonymous": false,
      "inputs": [
        {
          "indexed": true,
          "internalType": "address",
          "name": "user",
          "type": "address"
        },
        {
          "indexed": false,
          "internalType": "uint256",
          "name": "tokenId",
          "type": "uint256"
        }
      ],
      "name": "Withdraw",
      "type": "event"
    },
    {
      "inputs": [],
      "name": "MAX_SCALE",
      "outputs": [
        {
          "internalType": "uint256",
          "name": "",
          "type": "uint256"
        }
      ],
      "stateMutability": "view",
      "type": "function"
    },
    {
      "inputs": [],
      "name": "MAX_WEEKS",
      "outputs": [
        {
          "internalType": "uint8",
          "name": "",
          "type": "uint8"
        }
      ],
      "stateMutability": "view",
      "type": "function"
    },
    {
      "inputs": [],
      "name": "acceptSetter",
      "outputs": [],
      "stateMutability": "nonpayable",
      "type": "function"
    },
    {
      "inputs": [
        {
          "internalType": "uint256",
          "name": "",
          "type": "uint256"
        },
        {
          "internalType": "uint256",
          "name": "",
          "type": "uint256"
        }
      ],
      "name": "bClaimReward",
      "outputs": [
        {
          "internalType": "bool",
          "name": "",
          "type": "bool"
        }
      ],
      "stateMutability": "view",
      "type": "function"
    },
    {
      "inputs": [
        {
          "internalType": "uint256",
          "name": "tokenId",
          "type": "uint256"
        },
        {
          "internalType": "uint256[]",
          "name": "Nos",
          "type": "uint256[]"
        }
      ],
      "name": "claimReward",
      "outputs": [],
      "stateMutability": "nonpayable",
      "type": "function"
    },
    {
      "inputs": [],
      "name": "divConst",
      "outputs": [
        {
          "internalType": "uint32",
          "name": "",
          "type": "uint32"
        }
      ],
      "stateMutability": "view",
      "type": "function"
    },
    {
      "inputs": [
        {
          "internalType": "uint256",
          "name": "amount",
          "type": "uint256"
        },
        {
          "internalType": "uint8",
          "name": "k",
          "type": "uint8"
        }
      ],
      "name": "getScore",
      "outputs": [
        {
          "internalType": "uint256",
          "name": "",
          "type": "uint256"
        }
      ],
      "stateMutability": "view",
      "type": "function"
    },
    {
      "inputs": [
        {
          "internalType": "uint256",
          "name": "tokenId",
          "type": "uint256"
        }
      ],
      "name": "getUnclaimed",
      "outputs": [
        {
          "internalType": "uint256",
          "name": "begin",
          "type": "uint256"
        },
        {
          "internalType": "uint256",
          "name": "end",
          "type": "uint256"
        },
        {
          "internalType": "uint256",
          "name": "unclaimed",
          "type": "uint256"
        }
      ],
      "stateMutability": "view",
      "type": "function"
    },
    {
      "inputs": [],
      "name": "getUserNFTs",
      "outputs": [
        {
          "internalType": "uint256[]",
          "name": "",
          "type": "uint256[]"
        },
        {
          "internalType": "uint256",
          "name": "",
          "type": "uint256"
        }
      ],
      "stateMutability": "view",
      "type": "function"
    },
    {
      "inputs": [],
      "name": "nftToken",
      "outputs": [
        {
          "internalType": "contract IIotabeeSwapNFT",
          "name": "",
          "type": "address"
        }
      ],
      "stateMutability": "view",
      "type": "function"
    },
    {
      "inputs": [],
      "name": "owner",
      "outputs": [
        {
          "internalType": "address",
          "name": "",
          "type": "address"
        }
      ],
      "stateMutability": "view",
      "type": "function"
    },
    {
      "inputs": [],
      "name": "rewardToken",
      "outputs": [
        {
          "internalType": "address",
          "name": "",
          "type": "address"
        }
      ],
      "stateMutability": "view",
      "type": "function"
    },
    {
      "inputs": [
        {
          "internalType": "uint256",
          "name": "",
          "type": "uint256"
        }
      ],
      "name": "rewardsOf",
      "outputs": [
        {
          "internalType": "uint256",
          "name": "",
          "type": "uint256"
        }
      ],
      "stateMutability": "view",
      "type": "function"
    },
    {
      "inputs": [
        {
          "internalType": "uint256",
          "name": "no",
          "type": "uint256"
        },
        {
          "internalType": "uint256",
          "name": "amount",
          "type": "uint256"
        }
      ],
      "name": "setReward",
      "outputs": [],
      "stateMutability": "nonpayable",
      "type": "function"
    },
    {
      "inputs": [
        {
          "internalType": "uint8",
          "name": "maxWeeks",
          "type": "uint8"
        },
        {
          "internalType": "uint256",
          "name": "maxScale",
          "type": "uint256"
        }
      ],
      "name": "setScoreFormula",
      "outputs": [],
      "stateMutability": "nonpayable",
      "type": "function"
    },
    {
      "inputs": [
        {
          "internalType": "uint256",
          "name": "tokenId",
          "type": "uint256"
        },
        {
          "internalType": "uint8",
          "name": "k",
          "type": "uint8"
        }
      ],
      "name": "stake",
      "outputs": [],
      "stateMutability": "nonpayable",
      "type": "function"
    },
    {
      "inputs": [
        {
          "internalType": "uint256",
          "name": "",
          "type": "uint256"
        }
      ],
      "name": "stakingNFTs",
      "outputs": [
        {
          "internalType": "address",
          "name": "owner",
          "type": "address"
        },
        {
          "internalType": "uint256",
          "name": "score",
          "type": "uint256"
        },
        {
          "internalType": "uint256",
          "name": "beginNo",
          "type": "uint256"
        },
        {
          "internalType": "uint256",
          "name": "endNo",
          "type": "uint256"
        }
      ],
      "stateMutability": "view",
      "type": "function"
    },
    {
      "inputs": [],
      "name": "token0",
      "outputs": [
        {
          "internalType": "address",
          "name": "",
          "type": "address"
        }
      ],
      "stateMutability": "view",
      "type": "function"
    },
    {
      "inputs": [],
      "name": "token1",
      "outputs": [
        {
          "internalType": "address",
          "name": "",
          "type": "address"
        }
      ],
      "stateMutability": "view",
      "type": "function"
    },
    {
      "inputs": [
        {
          "internalType": "address",
          "name": "_owner",
          "type": "address"
        }
      ],
      "name": "transferOwner",
      "outputs": [],
      "stateMutability": "nonpayable",
      "type": "function"
    },
    {
      "inputs": [
        {
          "internalType": "address",
          "name": "",
          "type": "address"
        },
        {
          "internalType": "uint256",
          "name": "",
          "type": "uint256"
        }
      ],
      "name": "userNFTs",
      "outputs": [
        {
          "internalType": "uint256",
          "name": "",
          "type": "uint256"
        }
      ],
      "stateMutability": "view",
      "type": "function"
    },
    {
      "inputs": [
        {
          "internalType": "uint256",
          "name": "tokenId",
          "type": "uint256"
        }
      ],
      "name": "withdraw",
      "outputs": [],
      "stateMutability": "nonpayable",
      "type": "function"
    }
  ],
  "bytecode": "0x6101006040523480156200001257600080fd5b5060405162001a2638038062001a268339810160408190526200003591620000bb565b600080546001600160a01b031916331790556001600160a01b03838116908516106200006357828462000066565b83835b6001600160a01b0390811660c05290811660a0529182166080521660e05250506007805460ff19166034179055600260085562000118565b80516001600160a01b0381168114620000b657600080fd5b919050565b60008060008060808587031215620000d257600080fd5b620000dd856200009e565b9350620000ed602086016200009e565b9250620000fd604086016200009e565b91506200010d606086016200009e565b905092959194509250565b60805160a05160c05160e05161189c6200018a600039600081816103df01528181610af30152610b8001526000818161037d0152610f0a01526000818161017f0152610ece015260008181610356015281816107b101528181610e2d0152818161100101526110d2015261189c6000f3fe608060405234801561001057600080fd5b50600436106101425760003560e01c80639b6e0d74116100b8578063d21220a71161007c578063d21220a714610378578063e11400bb1461039f578063ee3453ed146103be578063f6def7cf146103d1578063f7c618c1146103da578063fdc5ab8e1461040157600080fd5b80639b6e0d74146102bf578063a47bd496146102d2578063c25fef0d146102e5578063ce6d3e3e14610313578063d06fcba81461035157600080fd5b80632e1a7d4d1161010a5780632e1a7d4d1461024c5780634fb2e45d1461025f5780635f8e422f14610272578063721348e81461027a5780637e4856c41461028d5780638da5cb5b146102ac57600080fd5b80630bce1284146101475780630dfe16811461017a57806310087fb1146101b957806310c6c1c2146101ce578063291c73c314610239575b600080fd5b610167610155366004611372565b60066020526000908152604090205481565b6040519081526020015b60405180910390f35b6101a17f000000000000000000000000000000000000000000000000000000000000000081565b6040516001600160a01b039091168152602001610171565b6101cc6101c73660046113a1565b610417565b005b61020f6101dc366004611372565b600260208190526000918252604090912080546001820154928201546003909201546001600160a01b0390911692919084565b604080516001600160a01b0390951685526020850193909352918301526060820152608001610171565b6101676102473660046113e5565b6105ed565b6101cc61025a366004611372565b61061e565b6101cc61026d366004611411565b610860565b6101cc6108ac565b6101cc610288366004611435565b6108fd565b610297620f424081565b60405163ffffffff9091168152602001610171565b6000546101a1906001600160a01b031681565b6101cc6102cd366004611467565b610986565b6101cc6102e0366004611531565b610b51565b6102f86102f3366004611372565b610c09565b60408051938452602084019290925290820152606001610171565b610341610321366004611531565b600460209081526000928352604080842090915290825290205460ff1681565b6040519015158152602001610171565b6101a17f000000000000000000000000000000000000000000000000000000000000000081565b6101a17f000000000000000000000000000000000000000000000000000000000000000081565b6007546103ac9060ff1681565b60405160ff9091168152602001610171565b6101676103cc3660046113a1565b610c6e565b61016760085481565b6101a17f000000000000000000000000000000000000000000000000000000000000000081565b610409610cc3565b604051610171929190611553565b60008160ff16118015610433575060075460ff90811690821611155b6104785760405162461bcd60e51b815260206004820152601160248201527039ba30b5b2903bb2b2b5b99032b93937b960791b60448201526064015b60405180910390fd5b600061048383610e22565b9050600061049462093a80426115b1565b61049f9060016115d3565b905060006104ad8385610c6e565b905060005b8460ff168160ff1610156105075781600560006104d260ff8516876115d3565b815260200190815260200160002060008282546104ef91906115d3565b909155508190506104ff816115e6565b9150506104b2565b5060408051608081018252338152602081018390529081018390526060810161053360ff8716856115d3565b90526000868152600260208181526040808420855181546001600160a01b0319166001600160a01b039091161781558583015160018083019190915586830151948201949094556060958601516003918201553380865290835281852080549485018155855293829020909201899055815189815290810187905260ff88169181019190915290917f6fa2f6021ee337436cdf2b2570285886da18bc06402ce284d296504a0fe8f875910160405180910390a25050505050565b6003602052816000526040600020818154811061060957600080fd5b90600052602060002001600091509150505481565b6000818152600260205260409020546001600160a01b031633146106765760405162461bcd60e51b815260206004820152600f60248201526e37bbb732b9103337b93134b23232b760891b604482015260640161046f565b600061068562093a80426115b1565b6000838152600260205260409020600301549091508110156106d75760405162461bcd60e51b815260206004820152600b60248201526a6c6f636b65642074696d6560a81b604482015260640161046f565b336000908152600360205260408120905b81548110156108245781818154811061070357610703611605565b9060005260206000200154840361081257815482906107249060019061161b565b8154811061073457610734611605565b906000526020600020015482828154811061075157610751611605565b90600052602060002001819055508180548061076f5761076f61162e565b600082815260208120820160001990810191909155019055604051632142170760e11b8152306004820152336024820152604481018590526001600160a01b037f000000000000000000000000000000000000000000000000000000000000000016906342842e0e90606401600060405180830381600087803b1580156107f557600080fd5b505af1158015610809573d6000803e3d6000fd5b50505050610824565b8061081c81611644565b9150506106e8565b5060405183815233907f884edad9ce6fa2440d8a54cc123490eb96d2768479d49ff9c7366125a9424364906020015b60405180910390a2505050565b6000546001600160a01b0316331461088a5760405162461bcd60e51b815260040161046f9061165d565b600180546001600160a01b0319166001600160a01b0392909216919091179055565b6001546001600160a01b031633146108d65760405162461bcd60e51b815260040161046f9061165d565b60018054600080546001600160a01b03199081166001600160a01b03841617909155169055565b6000546001600160a01b031633146109275760405162461bcd60e51b815260040161046f9061165d565b6001811161096c5760405162461bcd60e51b81526020600482015260126024820152711b585e14d8d85b19481d1bdbc81cdb585b1b60721b604482015260640161046f565b6007805460ff191660ff9390931692909217909155600855565b6000828152600260205260409020546001600160a01b031633146109de5760405162461bcd60e51b815260206004820152600f60248201526e37bbb732b9103337b93134b23232b760891b604482015260640161046f565b6000805b8251811015610aed5760008382815181106109ff576109ff611605565b6020908102919091018101516000878152600483526040808220838352909352919091205490915060ff1615610a355750610adb565b60008581526002602052604090206003015481101580610a6657506000858152600260208190526040909120015481105b15610a715750610adb565b60008581526004602090815260408083208484528252808320805460ff19166001908117909155600583528184205489855260028452828520909101548585526006909352922054610ac39190611680565b610acd91906115b1565b610ad790846115d3565b9250505b80610ae581611644565b9150506109e2565b50610b197f0000000000000000000000000000000000000000000000000000000000000000338361114b565b604080518481526020810183905233917fe74e5c9d4ac1fc33412485f18c159a0a391efe287ab3fd271123f30e6bacf4e39101610853565b6000546001600160a01b03163314610b7b5760405162461bcd60e51b815260040161046f9061165d565b610ba77f0000000000000000000000000000000000000000000000000000000000000000333084611258565b60008281526006602052604081208054839290610bc59084906115d3565b9091555050604080518381526020810183905233917fc3991418cacd70a010fce559a44fcbb47534ca43bf7543964bdca2639f6e6e5a910160405180910390a25050565b60008181526002602081905260408220908101546003909101549091825b82811015610c6657600085815260046020908152604080832084845290915290205460ff16610c54578091505b80610c5e81611644565b915050610c27565b509193909250565b600754600854600091829160ff91821691829190861690610c919060019061161b565b610c9b9190611680565b610ca591906115d3565b610caf9086611680565b610cb991906115b1565b9150505b92915050565b3360009081526003602052604081205460609190819067ffffffffffffffff811115610cf157610cf1611451565b604051908082528060200260200182016040528015610d1a578160200160208202803683370190505b5090506000610d2c62093a80426115b1565b3360009081526003602052604081205491925090815b33600090815260036020526040902054811015610e1557336000908152600360205260408120805483908110610d7a57610d7a611605565b906000526020600020015490508460026000838152602001908152602001600020600301541115610dd55780868581518110610db857610db8611605565b602090810291909101015283610dcd81611644565b945050610e02565b82610ddf81611697565b93505080868481518110610df557610df5611605565b6020026020010181815250505b5080610e0d81611644565b915050610d42565b5092959294509192505050565b6000806000806000807f00000000000000000000000000000000000000000000000000000000000000006001600160a01b03166399fbab88886040518263ffffffff1660e01b8152600401610e7991815260200190565b61018060405180830381865afa158015610e97573d6000803e3d6000fd5b505050506040513d601f19601f82011682018060405250810190610ebb91906116f5565b50505050975097509750509650965050507f00000000000000000000000000000000000000000000000000000000000000006001600160a01b0316856001600160a01b0316148015610f3e57507f00000000000000000000000000000000000000000000000000000000000000006001600160a01b0316846001600160a01b0316145b610f7a5760405162461bcd60e51b815260206004820152600d60248201526c3638103830b4b91032b93937b960991b604482015260640161046f565b600283900b620d89e719148015610fa25750610f99620d89e7196117d6565b60020b8260020b145b610fe15760405162461bcd60e51b815260206004820152601060248201526f3a34b1b5903930b733b29032b93937b960811b604482015260640161046f565b60405163020604bf60e21b81526004810188905230906001600160a01b037f0000000000000000000000000000000000000000000000000000000000000000169063081812fc90602401602060405180830381865afa158015611048573d6000803e3d6000fd5b505050506040513d601f19601f8201168201806040525081019061106c91906117f8565b6001600160a01b0316146110b05760405162461bcd60e51b815260206004820152600b60248201526a6e6f7420617070726f766560a81b604482015260640161046f565b604051632142170760e11b8152336004820152306024820152604481018890527f00000000000000000000000000000000000000000000000000000000000000006001600160a01b0316906342842e0e90606401600060405180830381600087803b15801561111e57600080fd5b505af1158015611132573d6000803e3d6000fd5b50506001600160801b0390921698975050505050505050565b604080516001600160a01b038481166024830152604480830185905283518084039091018152606490920183526020820180516001600160e01b031663a9059cbb60e01b17905291516000928392908716916111a79190611815565b6000604051808303816000865af19150503d80600081146111e4576040519150601f19603f3d011682016040523d82523d6000602084013e6111e9565b606091505b50915091508180156112135750805115806112135750808060200190518101906112139190611844565b6112515760405162461bcd60e51b815260206004820152600f60248201526e1514905394d1915497d19052531151608a1b604482015260640161046f565b5050505050565b604080516001600160a01b0385811660248301528481166044830152606480830185905283518084039091018152608490920183526020820180516001600160e01b03166323b872dd60e01b17905291516000928392908816916112bc9190611815565b6000604051808303816000865af19150503d80600081146112f9576040519150601f19603f3d011682016040523d82523d6000602084013e6112fe565b606091505b50915091508180156113285750805115806113285750808060200190518101906113289190611844565b61136a5760405162461bcd60e51b81526020600482015260136024820152721d1c985b9cd9995c919c9bdb4819985a5b1959606a1b604482015260640161046f565b505050505050565b60006020828403121561138457600080fd5b5035919050565b803560ff8116811461139c57600080fd5b919050565b600080604083850312156113b457600080fd5b823591506113c46020840161138b565b90509250929050565b6001600160a01b03811681146113e257600080fd5b50565b600080604083850312156113f857600080fd5b8235611403816113cd565b946020939093013593505050565b60006020828403121561142357600080fd5b813561142e816113cd565b9392505050565b6000806040838503121561144857600080fd5b6114038361138b565b634e487b7160e01b600052604160045260246000fd5b6000806040838503121561147a57600080fd5b8235915060208084013567ffffffffffffffff8082111561149a57600080fd5b818601915086601f8301126114ae57600080fd5b8135818111156114c0576114c0611451565b8060051b604051601f19603f830116810181811085821117156114e5576114e5611451565b60405291825284820192508381018501918983111561150357600080fd5b938501935b8285101561152157843584529385019392850192611508565b8096505050505050509250929050565b6000806040838503121561154457600080fd5b50508035926020909101359150565b604080825283519082018190526000906020906060840190828701845b8281101561158c57815184529284019290840190600101611570565b50505092019290925292915050565b634e487b7160e01b600052601160045260246000fd5b6000826115ce57634e487b7160e01b600052601260045260246000fd5b500490565b80820180821115610cbd57610cbd61159b565b600060ff821660ff81036115fc576115fc61159b565b60010192915050565b634e487b7160e01b600052603260045260246000fd5b81810381811115610cbd57610cbd61159b565b634e487b7160e01b600052603160045260246000fd5b6000600182016116565761165661159b565b5060010190565b6020808252600990820152683337b93134b23232b760b91b604082015260600190565b8082028115828204841417610cbd57610cbd61159b565b6000816116a6576116a661159b565b506000190190565b805161139c816113cd565b805162ffffff8116811461139c57600080fd5b8051600281900b811461139c57600080fd5b80516001600160801b038116811461139c57600080fd5b6000806000806000806000806000806000806101808d8f03121561171857600080fd5b8c516bffffffffffffffffffffffff8116811461173457600080fd5b9b5061174260208e016116ae565b9a5061175060408e016116ae565b995061175e60608e016116ae565b985061176c60808e016116b9565b975061177a60a08e016116cc565b965061178860c08e016116cc565b955061179660e08e016116de565b94506101008d015193506101208d015192506117b56101408e016116de565b91506117c46101608e016116de565b90509295989b509295989b509295989b565b60008160020b627fffff1981036117ef576117ef61159b565b60000392915050565b60006020828403121561180a57600080fd5b815161142e816113cd565b6000825160005b81811015611836576020818601810151858301520161181c565b506000920191825250919050565b60006020828403121561185657600080fd5b8151801515811461142e57600080fdfea2646970667358221220c61f7a87e2287733dfcdac323e13875875c3728987b382f4d1c044f305f693ac64736f6c63430008110033",
  "linkReferences": {},
  "deployedLinkReferences": {}
}