{
  "_format": "hh-sol-artifact-1",
  "contractName": "Staking",
  "sourceName": "contracts/Staking.sol",
  "abi": [
    {
      "anonymous": false,
      "inputs": [
        {
          "indexed": false,
          "internalType": "address",
          "name": "previousAdmin",
          "type": "address"
        },
        {
          "indexed": false,
          "internalType": "address",
          "name": "newAdmin",
          "type": "address"
        }
      ],
      "name": "AdminChanged",
      "type": "event"
    },
    {
      "anonymous": false,
      "inputs": [
        {
          "indexed": true,
          "internalType": "address",
          "name": "beacon",
          "type": "address"
        }
      ],
      "name": "BeaconUpgraded",
      "type": "event"
    },
    {
      "anonymous": false,
      "inputs": [
        {
          "indexed": false,
          "internalType": "uint8",
          "name": "version",
          "type": "uint8"
        }
      ],
      "name": "Initialized",
      "type": "event"
    },
    {
      "anonymous": false,
      "inputs": [
        {
          "indexed": true,
          "internalType": "address",
          "name": "implementation",
          "type": "address"
        }
      ],
      "name": "Upgraded",
      "type": "event"
    },
    {
      "inputs": [
        {
          "internalType": "uint256",
          "name": "amount",
          "type": "uint256"
        }
      ],
      "name": "claimReward",
      "outputs": [],
      "stateMutability": "nonpayable",
      "type": "function"
    },
    {
      "inputs": [],
      "name": "endDate",
      "outputs": [
        {
          "internalType": "uint256",
          "name": "",
          "type": "uint256"
        }
      ],
      "stateMutability": "view",
      "type": "function"
    },
    {
      "inputs": [
        {
          "internalType": "address",
          "name": "user",
          "type": "address"
        }
      ],
      "name": "getAvailableReward",
      "outputs": [
        {
          "internalType": "uint256",
          "name": "availableReward",
          "type": "uint256"
        }
      ],
      "stateMutability": "view",
      "type": "function"
    },
    {
      "inputs": [],
      "name": "getCurrentPeriod",
      "outputs": [
        {
          "internalType": "uint256",
          "name": "",
          "type": "uint256"
        }
      ],
      "stateMutability": "view",
      "type": "function"
    },
    {
      "inputs": [
        {
          "internalType": "address",
          "name": "user",
          "type": "address"
        },
        {
          "internalType": "uint256",
          "name": "period",
          "type": "uint256"
        }
      ],
      "name": "getRewardByPeriod",
      "outputs": [
        {
          "internalType": "uint256",
          "name": "reward",
          "type": "uint256"
        }
      ],
      "stateMutability": "view",
      "type": "function"
    },
    {
      "inputs": [
        {
          "internalType": "uint256",
          "name": "amount",
          "type": "uint256"
        },
        {
          "internalType": "uint256",
          "name": "numPeriods",
          "type": "uint256"
        }
      ],
      "name": "getScore",
      "outputs": [
        {
          "internalType": "uint256",
          "name": "",
          "type": "uint256"
        }
      ],
      "stateMutability": "pure",
      "type": "function"
    },
    {
      "inputs": [
        {
          "internalType": "address",
          "name": "user",
          "type": "address"
        }
      ],
      "name": "getUnlockedLiquidityForWithdraw",
      "outputs": [
        {
          "internalType": "uint256",
          "name": "availableTokens",
          "type": "uint256"
        }
      ],
      "stateMutability": "view",
      "type": "function"
    },
    {
      "inputs": [
        {
          "internalType": "address",
          "name": "_liquidityToken",
          "type": "address"
        },
        {
          "internalType": "address",
          "name": "_rewardToken",
          "type": "address"
        },
        {
          "internalType": "uint256",
          "name": "_startDate",
          "type": "uint256"
        },
        {
          "internalType": "uint256",
          "name": "_rewardPeriods",
          "type": "uint256"
        },
        {
          "internalType": "uint256[]",
          "name": "_rewardPerPeriod",
          "type": "uint256[]"
        },
        {
          "internalType": "uint256",
          "name": "_periodLength",
          "type": "uint256"
        }
      ],
      "name": "initialize",
      "outputs": [],
      "stateMutability": "nonpayable",
      "type": "function"
    },
    {
      "inputs": [],
      "name": "liquidityToken",
      "outputs": [
        {
          "internalType": "address",
          "name": "",
          "type": "address"
        }
      ],
      "stateMutability": "view",
      "type": "function"
    },
    {
      "inputs": [],
      "name": "lockTime",
      "outputs": [
        {
          "internalType": "uint256",
          "name": "",
          "type": "uint256"
        }
      ],
      "stateMutability": "view",
      "type": "function"
    },
    {
      "inputs": [],
      "name": "owner",
      "outputs": [
        {
          "internalType": "address",
          "name": "",
          "type": "address"
        }
      ],
      "stateMutability": "view",
      "type": "function"
    },
    {
      "inputs": [],
      "name": "periodLength",
      "outputs": [
        {
          "internalType": "uint256",
          "name": "",
          "type": "uint256"
        }
      ],
      "stateMutability": "view",
      "type": "function"
    },
    {
      "inputs": [],
      "name": "proxiableUUID",
      "outputs": [
        {
          "internalType": "bytes32",
          "name": "",
          "type": "bytes32"
        }
      ],
      "stateMutability": "view",
      "type": "function"
    },
    {
      "inputs": [
        {
          "internalType": "uint256",
          "name": "",
          "type": "uint256"
        }
      ],
      "name": "rewardPerPeriod",
      "outputs": [
        {
          "internalType": "uint256",
          "name": "",
          "type": "uint256"
        }
      ],
      "stateMutability": "view",
      "type": "function"
    },
    {
      "inputs": [],
      "name": "rewardPeriods",
      "outputs": [
        {
          "internalType": "uint256",
          "name": "",
          "type": "uint256"
        }
      ],
      "stateMutability": "view",
      "type": "function"
    },
    {
      "inputs": [],
      "name": "rewardToken",
      "outputs": [
        {
          "internalType": "address",
          "name": "",
          "type": "address"
        }
      ],
      "stateMutability": "view",
      "type": "function"
    },
    {
      "inputs": [
        {
          "internalType": "uint256",
          "name": "amount",
          "type": "uint256"
        },
        {
          "internalType": "uint256",
          "name": "numPeriods",
          "type": "uint256"
        }
      ],
      "name": "stake",
      "outputs": [],
      "stateMutability": "nonpayable",
      "type": "function"
    },
    {
      "inputs": [],
      "name": "startDate",
      "outputs": [
        {
          "internalType": "uint256",
          "name": "",
          "type": "uint256"
        }
      ],
      "stateMutability": "view",
      "type": "function"
    },
    {
      "inputs": [
        {
          "internalType": "uint256",
          "name": "",
          "type": "uint256"
        }
      ],
      "name": "totalScores",
      "outputs": [
        {
          "internalType": "uint256",
          "name": "",
          "type": "uint256"
        }
      ],
      "stateMutability": "view",
      "type": "function"
    },
    {
      "inputs": [
        {
          "internalType": "address",
          "name": "newImplementation",
          "type": "address"
        }
      ],
      "name": "upgradeTo",
      "outputs": [],
      "stateMutability": "nonpayable",
      "type": "function"
    },
    {
      "inputs": [
        {
          "internalType": "address",
          "name": "newImplementation",
          "type": "address"
        },
        {
          "internalType": "bytes",
          "name": "data",
          "type": "bytes"
        }
      ],
      "name": "upgradeToAndCall",
      "outputs": [],
      "stateMutability": "payable",
      "type": "function"
    },
    {
      "inputs": [
        {
          "internalType": "address",
          "name": "",
          "type": "address"
        },
        {
          "internalType": "uint256",
          "name": "",
          "type": "uint256"
        }
      ],
      "name": "userAvailableTokens",
      "outputs": [
        {
          "internalType": "uint256",
          "name": "",
          "type": "uint256"
        }
      ],
      "stateMutability": "view",
      "type": "function"
    },
    {
      "inputs": [
        {
          "internalType": "address",
          "name": "",
          "type": "address"
        },
        {
          "internalType": "uint256",
          "name": "",
          "type": "uint256"
        }
      ],
      "name": "userScoresPerPeriod",
      "outputs": [
        {
          "internalType": "uint256",
          "name": "",
          "type": "uint256"
        }
      ],
      "stateMutability": "view",
      "type": "function"
    },
    {
      "inputs": [
        {
          "internalType": "uint256",
          "name": "amount",
          "type": "uint256"
        }
      ],
      "name": "withdraw",
      "outputs": [],
      "stateMutability": "nonpayable",
      "type": "function"
    },
    {
      "inputs": [
        {
          "internalType": "address",
          "name": "",
          "type": "address"
        }
      ],
      "name": "withdrawnLiquidityToken",
      "outputs": [
        {
          "internalType": "uint256",
          "name": "",
          "type": "uint256"
        }
      ],
      "stateMutability": "view",
      "type": "function"
    },
    {
      "inputs": [
        {
          "internalType": "address",
          "name": "",
          "type": "address"
        }
      ],
      "name": "withdrawnRewardToken",
      "outputs": [
        {
          "internalType": "uint256",
          "name": "",
          "type": "uint256"
        }
      ],
      "stateMutability": "view",
      "type": "function"
    }
  ],
  "bytecode": "0x60a06040523060805234801561001457600080fd5b50608051611da161004c600039600081816106db0152818161071b015281816108fd0152818161093d01526109d00152611da16000f3fe6080604052600436106101815760003560e01c80636aa1719e116100d1578063adc6ba731161008a578063bcd58f2b11610064578063bcd58f2b14610471578063c24a0f8b1461049e578063d2ca2115146104b4578063f7c618c1146104ca57600080fd5b8063adc6ba7314610411578063ae169a5014610431578063bb94560d1461045157600080fd5b80636aa1719e1461034357806372359269146103635780637b0472f0146103835780638336cd65146103a35780638da5cb5b146103b95780639e2c7f93146103d957600080fd5b80633659cfe61161013e57806347a7f8841161011857806347a7f884146102c35780634f1ef286146102e357806352d1902d146102f65780635a2ba3c81461030b57600080fd5b80633659cfe61461024b57806343cd8f7e1461026b57806346a1cd08146102a357600080fd5b8063086146d2146101865780630b97bc86146101ae5780630d668087146101c4578063157775df146101dc57806320c5d3fb146101fc5780632e1a7d4d14610229575b600080fd5b34801561019257600080fd5b5061019b6104ea565b6040519081526020015b60405180910390f35b3480156101ba57600080fd5b5061019b609a5481565b3480156101d057600080fd5b5061019b6301dfe20081565b3480156101e857600080fd5b5061019b6101f7366004611855565b610568565b34801561020857600080fd5b5061019b61021736600461188a565b60a06020526000908152604090205481565b34801561023557600080fd5b50610249610244366004611855565b610589565b005b34801561025757600080fd5b5061024961026636600461188a565b6106d1565b34801561027757600080fd5b5060985461028b906001600160a01b031681565b6040516001600160a01b0390911681526020016101a5565b3480156102af57600080fd5b5061019b6102be36600461188a565b6107ad565b3480156102cf57600080fd5b5061019b6102de36600461188a565b610852565b6102496102f13660046118ec565b6108f3565b34801561030257600080fd5b5061019b6109c3565b34801561031757600080fd5b5061019b610326366004611992565b60a260209081526000928352604080842090915290825290205481565b34801561034f57600080fd5b5061019b61035e366004611992565b610a76565b34801561036f57600080fd5b5061019b61037e366004611855565b610b06565b34801561038f57600080fd5b5061024961039e3660046119bc565b610b16565b3480156103af57600080fd5b5061019b609c5481565b3480156103c557600080fd5b5060975461028b906001600160a01b031681565b3480156103e557600080fd5b5061019b6103f4366004611992565b60a360209081526000928352604080842090915290825290205481565b34801561041d57600080fd5b5061019b61042c3660046119bc565b610ca3565b34801561043d57600080fd5b5061024961044c366004611855565b610d14565b34801561045d57600080fd5b5061024961046c3660046119de565b610e1d565b34801561047d57600080fd5b5061019b61048c36600461188a565b60a16020526000908152604090205481565b3480156104aa57600080fd5b5061019b609b5481565b3480156104c057600080fd5b5061019b609f5481565b3480156104d657600080fd5b5060995461028b906001600160a01b031681565b6000609a544210156105395760405162461bcd60e51b815260206004820152601360248201527214dd185ada5b99c81b9bdd081cdd185c9d1959606a1b60448201526064015b60405180910390fd5b609b5442106105495750609c5490565b609f54609a546105599042611ad9565b6105639190611aec565b905090565b609d818154811061057857600080fd5b600091825260209091200154905081565b6105916111be565b600081116105b15760405162461bcd60e51b815260040161053090611b0e565b60006105bc33610852565b33600090815260a060205260409020549091506105d99082611ad9565b8211156106285760405162461bcd60e51b815260206004820152601f60248201527f616d6f756e74206578636565647320617661696c61626c6520746f6b656e73006044820152606401610530565b33600090815260a0602052604081208054849290610647908490611b3a565b909155505060985460405163a9059cbb60e01b8152336004820152602481018490526001600160a01b039091169063a9059cbb906044015b6020604051808303816000875af115801561069e573d6000803e3d6000fd5b505050506040513d601f19601f820116820180604052508101906106c29190611b4d565b50506106ce6001606555565b50565b6001600160a01b037f00000000000000000000000000000000000000000000000000000000000000001630036107195760405162461bcd60e51b815260040161053090611b6f565b7f00000000000000000000000000000000000000000000000000000000000000006001600160a01b0316610762600080516020611d25833981519152546001600160a01b031690565b6001600160a01b0316146107885760405162461bcd60e51b815260040161053090611bbb565b6107918161121e565b604080516000808252602082019092526106ce91839190611278565b6000609f54609a546107bf9190611b3a565b6107cd6301dfe20042611ad9565b10156107db57506000919050565b6000609f54609a546301dfe200426107f39190611ad9565b6107fd9190611ad9565b6108079190611aec565b9050609c548111156108185750609c545b60005b8181101561084b5761082d8482610a76565b6108379084611b3a565b92508061084381611c07565b91505061081b565b5050919050565b6000609a5442101561086657506000919050565b60006108706104ea565b905060005b610880826001611b3a565b81101561084b576001600160a01b038416600090815260a360209081526040808320848452909152902054156108e1576001600160a01b038416600090815260a3602090815260408083208484529091529020546108de9084611b3a565b92505b806108eb81611c07565b915050610875565b6001600160a01b037f000000000000000000000000000000000000000000000000000000000000000016300361093b5760405162461bcd60e51b815260040161053090611b6f565b7f00000000000000000000000000000000000000000000000000000000000000006001600160a01b0316610984600080516020611d25833981519152546001600160a01b031690565b6001600160a01b0316146109aa5760405162461bcd60e51b815260040161053090611bbb565b6109b38261121e565b6109bf82826001611278565b5050565b6000306001600160a01b037f00000000000000000000000000000000000000000000000000000000000000001614610a635760405162461bcd60e51b815260206004820152603860248201527f555550535570677261646561626c653a206d757374206e6f742062652063616c60448201527f6c6564207468726f7567682064656c656761746563616c6c00000000000000006064820152608401610530565b50600080516020611d2583398151915290565b6001600160a01b038216600090815260a260209081526040808320848452909152812054808203610aab576000915050610b00565b609d8381548110610abe57610abe611c20565b9060005260206000200154609e8481548110610adc57610adc611c20565b906000526020600020015482610af29190611c36565b610afc9190611aec565b9150505b92915050565b609e818154811061057857600080fd5b3382610b345760405162461bcd60e51b815260040161053090611b0e565b6098546040516323b872dd60e01b81526001600160a01b03838116600483015230602483015260448201869052909116906323b872dd906064016020604051808303816000875af1158015610b8d573d6000803e3d6000fd5b505050506040513d601f19601f82011682018060405250810190610bb19190611b4d565b610bfd5760405162461bcd60e51b815260206004820152601960248201527f7472616e73666572206c6971756964697479206661696c6564000000000000006044820152606401610530565b60008211610c465760405162461bcd60e51b815260206004820152601660248201527506e756d506572696f6473206d757374206265203e20360541b6044820152606401610530565b6000610c538285856113e8565b6001600160a01b038316600090815260a360205260408120919250859190610c7b8685611b3a565b81526020019081526020016000206000828254610c989190611b3a565b909155505050505050565b6000678ac7230489e8000081610cba603383611aec565b90506000610cc9826034611c36565b610cd4846002611c36565b610cde9190611ad9565b90508281610cec8785611c36565b610cf69190611b3a565b610d009088611c36565b610d0a9190611aec565b9695505050505050565b610d1c6111be565b60008111610d3c5760405162461bcd60e51b815260040161053090611b0e565b6000610d47336107ad565b33600090815260a16020526040902054909150610d649082611ad9565b821115610dc25760405162461bcd60e51b815260206004820152602660248201527f616d6f756e74206578636565647320617661696c61626c652072657761726420604482015265746f6b656e7360d01b6064820152608401610530565b33600090815260a1602052604081208054849290610de1908490611b3a565b909155505060995460405163a9059cbb60e01b8152336004820152602481018490526001600160a01b039091169063a9059cbb9060440161067f565b600054610100900460ff1615808015610e3d5750600054600160ff909116105b80610e575750303b158015610e57575060005460ff166001145b610eba5760405162461bcd60e51b815260206004820152602e60248201527f496e697469616c697a61626c653a20636f6e747261637420697320616c72656160448201526d191e481a5b9a5d1a585b1a5e995960921b6064820152608401610530565b6000805460ff191660011790558015610edd576000805461ff0019166101001790555b610ee5611558565b609780546001600160a01b031916331790556001600160a01b038716610f3f5760405162461bcd60e51b815260206004820152600f60248201526e696e76616c6964206164647265737360881b6044820152606401610530565b6001600160a01b038616610f875760405162461bcd60e51b815260206004820152600f60248201526e696e76616c6964206164647265737360881b6044820152606401610530565b60008411610fcf5760405162461bcd60e51b8152602060048201526015602482015274696e76616c696420726577617264506572696f647360581b6044820152606401610530565b428510156110135760405162461bcd60e51b8152602060048201526011602482015270696e76616c69642073746172744461746560781b6044820152606401610530565b838351146110635760405162461bcd60e51b815260206004820152601d60248201527f696e76616c696420726577617264506572506572696f644c656e6774680000006044820152606401610530565b600082116110aa5760405162461bcd60e51b81526020600482015260146024820152730d2dcecc2d8d2c840e0cae4d2dec898cadccee8d60631b6044820152606401610530565b609880546001600160a01b03808a166001600160a01b0319928316179092556099805492891692909116919091179055609a859055609c8490556110ee8285611c36565b609a546110fb9190611b3a565b609b558367ffffffffffffffff811115611117576111176118a5565b604051908082528060200260200182016040528015611140578160200160208202803683370190505b50805161115591609d916020909101906117f5565b50825161116990609e9060208601906117f5565b50609f82905580156111b5576000805461ff0019169055604051600181527f7f26b83ff96e1f2b6a682f133852f6798a09c465da95921460cefb38474024989060200160405180910390a15b50505050505050565b6002606554036112105760405162461bcd60e51b815260206004820152601f60248201527f5265656e7472616e637947756172643a207265656e7472616e742063616c6c006044820152606401610530565b6002606555565b6001606555565b6097546001600160a01b031633146106ce5760405162461bcd60e51b815260206004820181905260248201527f4f776e61626c653a2063616c6c6572206973206e6f7420746865206f776e65726044820152606401610530565b7f4910fdfa16fed3260ed0e7147f7cc6da11a60208b5b9406d12a635614ffd91435460ff16156112b0576112ab83611589565b505050565b826001600160a01b03166352d1902d6040518163ffffffff1660e01b8152600401602060405180830381865afa92505050801561130a575060408051601f3d908101601f1916820190925261130791810190611c4d565b60015b61136d5760405162461bcd60e51b815260206004820152602e60248201527f45524331393637557067726164653a206e657720696d706c656d656e7461746960448201526d6f6e206973206e6f74205555505360901b6064820152608401610530565b600080516020611d2583398151915281146113dc5760405162461bcd60e51b815260206004820152602960248201527f45524331393637557067726164653a20756e737570706f727465642070726f786044820152681a58589b195555525160ba1b6064820152608401610530565b506112ab838383611625565b6000609b544211156114305760405162461bcd60e51b815260206004820152601160248201527014dd185ada5b99c81a185cc8195b991959607a1b6044820152606401610530565b6114386104ea565b609c549091506114488383611b3a565b11156114a25760405162461bcd60e51b8152602060048201526024808201527f5374616b696e6720706572696f642065786365656473207265776172642070656044820152631c9a5bd960e21b6064820152608401610530565b60006114ae8484610ca3565b905060005b8381101561154f5781609d6114c88386611b3a565b815481106114d8576114d8611c20565b9060005260206000200160008282546114f19190611b3a565b90915550506001600160a01b038616600090815260a260205260408120839161151a8487611b3a565b815260200190815260200160002060008282546115379190611b3a565b9091555081905061154781611c07565b9150506114b3565b50509392505050565b600054610100900460ff1661157f5760405162461bcd60e51b815260040161053090611c66565b611587611650565b565b6001600160a01b0381163b6115f65760405162461bcd60e51b815260206004820152602d60248201527f455243313936373a206e657720696d706c656d656e746174696f6e206973206e60448201526c1bdd08184818dbdb9d1c9858dd609a1b6064820152608401610530565b600080516020611d2583398151915280546001600160a01b0319166001600160a01b0392909216919091179055565b61162e83611677565b60008251118061163b5750805b156112ab5761164a83836116b7565b50505050565b600054610100900460ff166112175760405162461bcd60e51b815260040161053090611c66565b61168081611589565b6040516001600160a01b038216907fbc7cd75a20ee27fd9adebab32041f755214dbc6bffa90cc0225b39da2e5c2d3b90600090a250565b60606001600160a01b0383163b61171f5760405162461bcd60e51b815260206004820152602660248201527f416464726573733a2064656c65676174652063616c6c20746f206e6f6e2d636f6044820152651b9d1c9858dd60d21b6064820152608401610530565b600080846001600160a01b03168460405161173a9190611cd5565b600060405180830381855af49150503d8060008114611775576040519150601f19603f3d011682016040523d82523d6000602084013e61177a565b606091505b50915091506117a28282604051806060016040528060278152602001611d45602791396117ab565b95945050505050565b606083156117ba5750816117c4565b6117c483836117cb565b9392505050565b8151156117db5781518083602001fd5b8060405162461bcd60e51b81526004016105309190611cf1565b828054828255906000526020600020908101928215611830579160200282015b82811115611830578251825591602001919060010190611815565b5061183c929150611840565b5090565b5b8082111561183c5760008155600101611841565b60006020828403121561186757600080fd5b5035919050565b80356001600160a01b038116811461188557600080fd5b919050565b60006020828403121561189c57600080fd5b6117c48261186e565b634e487b7160e01b600052604160045260246000fd5b604051601f8201601f1916810167ffffffffffffffff811182821017156118e4576118e46118a5565b604052919050565b600080604083850312156118ff57600080fd5b6119088361186e565b915060208084013567ffffffffffffffff8082111561192657600080fd5b818601915086601f83011261193a57600080fd5b81358181111561194c5761194c6118a5565b61195e601f8201601f191685016118bb565b9150808252878482850101111561197457600080fd5b80848401858401376000848284010152508093505050509250929050565b600080604083850312156119a557600080fd5b6119ae8361186e565b946020939093013593505050565b600080604083850312156119cf57600080fd5b50508035926020909101359150565b60008060008060008060c087890312156119f757600080fd5b611a008761186e565b95506020611a0f81890161186e565b95506040880135945060608801359350608088013567ffffffffffffffff80821115611a3a57600080fd5b818a0191508a601f830112611a4e57600080fd5b813581811115611a6057611a606118a5565b8060051b9150611a718483016118bb565b818152918301840191848101908d841115611a8b57600080fd5b938501935b83851015611aa957843582529385019390850190611a90565b80975050505050505060a087013590509295509295509295565b634e487b7160e01b600052601160045260246000fd5b81810381811115610b0057610b00611ac3565b600082611b0957634e487b7160e01b600052601260045260246000fd5b500490565b6020808252601290820152710616d6f756e74206d757374206265203e20360741b604082015260600190565b80820180821115610b0057610b00611ac3565b600060208284031215611b5f57600080fd5b815180151581146117c457600080fd5b6020808252602c908201527f46756e6374696f6e206d7573742062652063616c6c6564207468726f7567682060408201526b19195b1959d85d1958d85b1b60a21b606082015260800190565b6020808252602c908201527f46756e6374696f6e206d7573742062652063616c6c6564207468726f7567682060408201526b6163746976652070726f787960a01b606082015260800190565b600060018201611c1957611c19611ac3565b5060010190565b634e487b7160e01b600052603260045260246000fd5b8082028115828204841417610b0057610b00611ac3565b600060208284031215611c5f57600080fd5b5051919050565b6020808252602b908201527f496e697469616c697a61626c653a20636f6e7472616374206973206e6f74206960408201526a6e697469616c697a696e6760a81b606082015260800190565b60005b83811015611ccc578181015183820152602001611cb4565b50506000910152565b60008251611ce7818460208701611cb1565b9190910192915050565b6020815260008251806020840152611d10816040850160208701611cb1565b601f01601f1916919091016040019291505056fe360894a13ba1a3210667c828492db98dca3e2076cc3735a920a3ca505d382bbc416464726573733a206c6f772d6c6576656c2064656c65676174652063616c6c206661696c6564a2646970667358221220d2aea603e00f6ae11cbeb318ee30501b6d813a28000b2c0cd62d2b7c459fa73e64736f6c63430008110033",
  "linkReferences": {},
  "deployedLinkReferences": {}
}