{
  "_format": "hh-sol-artifact-1",
  "contractName": "StakingMockV2",
  "sourceName": "contracts/mocks/StakingMockV2.sol",
  "abi": [
    {
      "anonymous": false,
      "inputs": [
        {
          "indexed": false,
          "internalType": "address",
          "name": "previousAdmin",
          "type": "address"
        },
        {
          "indexed": false,
          "internalType": "address",
          "name": "newAdmin",
          "type": "address"
        }
      ],
      "name": "AdminChanged",
      "type": "event"
    },
    {
      "anonymous": false,
      "inputs": [
        {
          "indexed": true,
          "internalType": "address",
          "name": "beacon",
          "type": "address"
        }
      ],
      "name": "BeaconUpgraded",
      "type": "event"
    },
    {
      "anonymous": false,
      "inputs": [
        {
          "indexed": false,
          "internalType": "uint8",
          "name": "version",
          "type": "uint8"
        }
      ],
      "name": "Initialized",
      "type": "event"
    },
    {
      "anonymous": false,
      "inputs": [
        {
          "indexed": true,
          "internalType": "address",
          "name": "implementation",
          "type": "address"
        }
      ],
      "name": "Upgraded",
      "type": "event"
    },
    {
      "inputs": [
        {
          "internalType": "uint256",
          "name": "amount",
          "type": "uint256"
        }
      ],
      "name": "claimReward",
      "outputs": [],
      "stateMutability": "nonpayable",
      "type": "function"
    },
    {
      "inputs": [],
      "name": "endDate",
      "outputs": [
        {
          "internalType": "uint256",
          "name": "",
          "type": "uint256"
        }
      ],
      "stateMutability": "view",
      "type": "function"
    },
    {
      "inputs": [
        {
          "internalType": "address",
          "name": "user",
          "type": "address"
        }
      ],
      "name": "getAvailableReward",
      "outputs": [
        {
          "internalType": "uint256",
          "name": "availableReward",
          "type": "uint256"
        }
      ],
      "stateMutability": "view",
      "type": "function"
    },
    {
      "inputs": [],
      "name": "getCurrentPeriod",
      "outputs": [
        {
          "internalType": "uint256",
          "name": "",
          "type": "uint256"
        }
      ],
      "stateMutability": "view",
      "type": "function"
    },
    {
      "inputs": [
        {
          "internalType": "address",
          "name": "user",
          "type": "address"
        },
        {
          "internalType": "uint256",
          "name": "period",
          "type": "uint256"
        }
      ],
      "name": "getRewardByPeriod",
      "outputs": [
        {
          "internalType": "uint256",
          "name": "reward",
          "type": "uint256"
        }
      ],
      "stateMutability": "view",
      "type": "function"
    },
    {
      "inputs": [
        {
          "internalType": "uint256",
          "name": "amount",
          "type": "uint256"
        },
        {
          "internalType": "uint256",
          "name": "numPeriods",
          "type": "uint256"
        }
      ],
      "name": "getScore",
      "outputs": [
        {
          "internalType": "uint256",
          "name": "",
          "type": "uint256"
        }
      ],
      "stateMutability": "pure",
      "type": "function"
    },
    {
      "inputs": [
        {
          "internalType": "address",
          "name": "user",
          "type": "address"
        }
      ],
      "name": "getUnlockedLiquidityForWithdraw",
      "outputs": [
        {
          "internalType": "uint256",
          "name": "availableTokens",
          "type": "uint256"
        }
      ],
      "stateMutability": "view",
      "type": "function"
    },
    {
      "inputs": [
        {
          "internalType": "address",
          "name": "_liquidityToken",
          "type": "address"
        },
        {
          "internalType": "address",
          "name": "_rewardToken",
          "type": "address"
        },
        {
          "internalType": "uint256",
          "name": "_startDate",
          "type": "uint256"
        },
        {
          "internalType": "uint256",
          "name": "_rewardPeriods",
          "type": "uint256"
        },
        {
          "internalType": "uint256[]",
          "name": "_rewardPerPeriod",
          "type": "uint256[]"
        },
        {
          "internalType": "uint256",
          "name": "_periodLength",
          "type": "uint256"
        }
      ],
      "name": "initialize",
      "outputs": [],
      "stateMutability": "nonpayable",
      "type": "function"
    },
    {
      "inputs": [],
      "name": "liquidityToken",
      "outputs": [
        {
          "internalType": "address",
          "name": "",
          "type": "address"
        }
      ],
      "stateMutability": "view",
      "type": "function"
    },
    {
      "inputs": [],
      "name": "lockTime",
      "outputs": [
        {
          "internalType": "uint256",
          "name": "",
          "type": "uint256"
        }
      ],
      "stateMutability": "view",
      "type": "function"
    },
    {
      "inputs": [],
      "name": "newVariable",
      "outputs": [
        {
          "internalType": "uint256",
          "name": "",
          "type": "uint256"
        }
      ],
      "stateMutability": "view",
      "type": "function"
    },
    {
      "inputs": [],
      "name": "owner",
      "outputs": [
        {
          "internalType": "address",
          "name": "",
          "type": "address"
        }
      ],
      "stateMutability": "view",
      "type": "function"
    },
    {
      "inputs": [],
      "name": "periodLength",
      "outputs": [
        {
          "internalType": "uint256",
          "name": "",
          "type": "uint256"
        }
      ],
      "stateMutability": "view",
      "type": "function"
    },
    {
      "inputs": [],
      "name": "proxiableUUID",
      "outputs": [
        {
          "internalType": "bytes32",
          "name": "",
          "type": "bytes32"
        }
      ],
      "stateMutability": "view",
      "type": "function"
    },
    {
      "inputs": [
        {
          "internalType": "uint256",
          "name": "",
          "type": "uint256"
        }
      ],
      "name": "rewardPerPeriod",
      "outputs": [
        {
          "internalType": "uint256",
          "name": "",
          "type": "uint256"
        }
      ],
      "stateMutability": "view",
      "type": "function"
    },
    {
      "inputs": [],
      "name": "rewardPeriods",
      "outputs": [
        {
          "internalType": "uint256",
          "name": "",
          "type": "uint256"
        }
      ],
      "stateMutability": "view",
      "type": "function"
    },
    {
      "inputs": [],
      "name": "rewardToken",
      "outputs": [
        {
          "internalType": "address",
          "name": "",
          "type": "address"
        }
      ],
      "stateMutability": "view",
      "type": "function"
    },
    {
      "inputs": [
        {
          "internalType": "uint256",
          "name": "_newVariable",
          "type": "uint256"
        }
      ],
      "name": "setNewVariable",
      "outputs": [],
      "stateMutability": "nonpayable",
      "type": "function"
    },
    {
      "inputs": [
        {
          "internalType": "uint256",
          "name": "amount",
          "type": "uint256"
        },
        {
          "internalType": "uint256",
          "name": "numPeriods",
          "type": "uint256"
        }
      ],
      "name": "stake",
      "outputs": [],
      "stateMutability": "nonpayable",
      "type": "function"
    },
    {
      "inputs": [],
      "name": "startDate",
      "outputs": [
        {
          "internalType": "uint256",
          "name": "",
          "type": "uint256"
        }
      ],
      "stateMutability": "view",
      "type": "function"
    },
    {
      "inputs": [
        {
          "internalType": "uint256",
          "name": "",
          "type": "uint256"
        }
      ],
      "name": "totalScores",
      "outputs": [
        {
          "internalType": "uint256",
          "name": "",
          "type": "uint256"
        }
      ],
      "stateMutability": "view",
      "type": "function"
    },
    {
      "inputs": [
        {
          "internalType": "address",
          "name": "newImplementation",
          "type": "address"
        }
      ],
      "name": "upgradeTo",
      "outputs": [],
      "stateMutability": "nonpayable",
      "type": "function"
    },
    {
      "inputs": [
        {
          "internalType": "address",
          "name": "newImplementation",
          "type": "address"
        },
        {
          "internalType": "bytes",
          "name": "data",
          "type": "bytes"
        }
      ],
      "name": "upgradeToAndCall",
      "outputs": [],
      "stateMutability": "payable",
      "type": "function"
    },
    {
      "inputs": [
        {
          "internalType": "address",
          "name": "",
          "type": "address"
        },
        {
          "internalType": "uint256",
          "name": "",
          "type": "uint256"
        }
      ],
      "name": "userAvailableTokens",
      "outputs": [
        {
          "internalType": "uint256",
          "name": "",
          "type": "uint256"
        }
      ],
      "stateMutability": "view",
      "type": "function"
    },
    {
      "inputs": [
        {
          "internalType": "address",
          "name": "",
          "type": "address"
        },
        {
          "internalType": "uint256",
          "name": "",
          "type": "uint256"
        }
      ],
      "name": "userScoresPerPeriod",
      "outputs": [
        {
          "internalType": "uint256",
          "name": "",
          "type": "uint256"
        }
      ],
      "stateMutability": "view",
      "type": "function"
    },
    {
      "inputs": [
        {
          "internalType": "uint256",
          "name": "amount",
          "type": "uint256"
        }
      ],
      "name": "withdraw",
      "outputs": [],
      "stateMutability": "nonpayable",
      "type": "function"
    },
    {
      "inputs": [
        {
          "internalType": "address",
          "name": "",
          "type": "address"
        }
      ],
      "name": "withdrawnLiquidityToken",
      "outputs": [
        {
          "internalType": "uint256",
          "name": "",
          "type": "uint256"
        }
      ],
      "stateMutability": "view",
      "type": "function"
    },
    {
      "inputs": [
        {
          "internalType": "address",
          "name": "",
          "type": "address"
        }
      ],
      "name": "withdrawnRewardToken",
      "outputs": [
        {
          "internalType": "uint256",
          "name": "",
          "type": "uint256"
        }
      ],
      "stateMutability": "view",
      "type": "function"
    }
  ],
  "bytecode": "0x60a06040523060805234801561001457600080fd5b50608051611e0d61004c600039600081816107470152818161078701528181610969015281816109a90152610a3c0152611e0d6000f3fe6080604052600436106101b75760003560e01c80636aa1719e116100ec578063adc6ba731161008a578063bcd58f2b11610064578063bcd58f2b146104dd578063c24a0f8b1461050a578063d2ca211514610520578063f7c618c11461053657600080fd5b8063adc6ba731461047d578063ae169a501461049d578063bb94560d146104bd57600080fd5b80638336cd65116100c65780638336cd65146103f95780638d7a72f31461040f5780638da5cb5b146104255780639e2c7f931461044557600080fd5b80636aa1719e1461039957806372359269146103b95780637b0472f0146103d957600080fd5b80633659cfe61161015957806347a7f8841161013357806347a7f884146103195780634f1ef2861461033957806352d1902d1461034c5780635a2ba3c81461036157600080fd5b80633659cfe6146102a157806343cd8f7e146102c157806346a1cd08146102f957600080fd5b8063157775df11610195578063157775df146102125780631c02ea0e1461023257806320c5d3fb146102545780632e1a7d4d1461028157600080fd5b8063086146d2146101bc5780630b97bc86146101e45780630d668087146101fa575b600080fd5b3480156101c857600080fd5b506101d1610556565b6040519081526020015b60405180910390f35b3480156101f057600080fd5b506101d1609a5481565b34801561020657600080fd5b506101d16301dfe20081565b34801561021e57600080fd5b506101d161022d3660046118c1565b6105d4565b34801561023e57600080fd5b5061025261024d3660046118c1565b60a455565b005b34801561026057600080fd5b506101d161026f3660046118f6565b60a06020526000908152604090205481565b34801561028d57600080fd5b5061025261029c3660046118c1565b6105f5565b3480156102ad57600080fd5b506102526102bc3660046118f6565b61073d565b3480156102cd57600080fd5b506098546102e1906001600160a01b031681565b6040516001600160a01b0390911681526020016101db565b34801561030557600080fd5b506101d16103143660046118f6565b610819565b34801561032557600080fd5b506101d16103343660046118f6565b6108be565b610252610347366004611958565b61095f565b34801561035857600080fd5b506101d1610a2f565b34801561036d57600080fd5b506101d161037c3660046119fe565b60a260209081526000928352604080842090915290825290205481565b3480156103a557600080fd5b506101d16103b43660046119fe565b610ae2565b3480156103c557600080fd5b506101d16103d43660046118c1565b610b72565b3480156103e557600080fd5b506102526103f4366004611a28565b610b82565b34801561040557600080fd5b506101d1609c5481565b34801561041b57600080fd5b506101d160a45481565b34801561043157600080fd5b506097546102e1906001600160a01b031681565b34801561045157600080fd5b506101d16104603660046119fe565b60a360209081526000928352604080842090915290825290205481565b34801561048957600080fd5b506101d1610498366004611a28565b610d0f565b3480156104a957600080fd5b506102526104b83660046118c1565b610d80565b3480156104c957600080fd5b506102526104d8366004611a4a565b610e89565b3480156104e957600080fd5b506101d16104f83660046118f6565b60a16020526000908152604090205481565b34801561051657600080fd5b506101d1609b5481565b34801561052c57600080fd5b506101d1609f5481565b34801561054257600080fd5b506099546102e1906001600160a01b031681565b6000609a544210156105a55760405162461bcd60e51b815260206004820152601360248201527214dd185ada5b99c81b9bdd081cdd185c9d1959606a1b60448201526064015b60405180910390fd5b609b5442106105b55750609c5490565b609f54609a546105c59042611b45565b6105cf9190611b58565b905090565b609d81815481106105e457600080fd5b600091825260209091200154905081565b6105fd61122a565b6000811161061d5760405162461bcd60e51b815260040161059c90611b7a565b6000610628336108be565b33600090815260a060205260409020549091506106459082611b45565b8211156106945760405162461bcd60e51b815260206004820152601f60248201527f616d6f756e74206578636565647320617661696c61626c6520746f6b656e7300604482015260640161059c565b33600090815260a06020526040812080548492906106b3908490611ba6565b909155505060985460405163a9059cbb60e01b8152336004820152602481018490526001600160a01b039091169063a9059cbb906044015b6020604051808303816000875af115801561070a573d6000803e3d6000fd5b505050506040513d601f19601f8201168201806040525081019061072e9190611bb9565b505061073a6001606555565b50565b6001600160a01b037f00000000000000000000000000000000000000000000000000000000000000001630036107855760405162461bcd60e51b815260040161059c90611bdb565b7f00000000000000000000000000000000000000000000000000000000000000006001600160a01b03166107ce600080516020611d91833981519152546001600160a01b031690565b6001600160a01b0316146107f45760405162461bcd60e51b815260040161059c90611c27565b6107fd8161128a565b6040805160008082526020820190925261073a918391906112e4565b6000609f54609a5461082b9190611ba6565b6108396301dfe20042611b45565b101561084757506000919050565b6000609f54609a546301dfe2004261085f9190611b45565b6108699190611b45565b6108739190611b58565b9050609c548111156108845750609c545b60005b818110156108b7576108998482610ae2565b6108a39084611ba6565b9250806108af81611c73565b915050610887565b5050919050565b6000609a544210156108d257506000919050565b60006108dc610556565b905060005b6108ec826001611ba6565b8110156108b7576001600160a01b038416600090815260a3602090815260408083208484529091529020541561094d576001600160a01b038416600090815260a36020908152604080832084845290915290205461094a9084611ba6565b92505b8061095781611c73565b9150506108e1565b6001600160a01b037f00000000000000000000000000000000000000000000000000000000000000001630036109a75760405162461bcd60e51b815260040161059c90611bdb565b7f00000000000000000000000000000000000000000000000000000000000000006001600160a01b03166109f0600080516020611d91833981519152546001600160a01b031690565b6001600160a01b031614610a165760405162461bcd60e51b815260040161059c90611c27565b610a1f8261128a565b610a2b828260016112e4565b5050565b6000306001600160a01b037f00000000000000000000000000000000000000000000000000000000000000001614610acf5760405162461bcd60e51b815260206004820152603860248201527f555550535570677261646561626c653a206d757374206e6f742062652063616c60448201527f6c6564207468726f7567682064656c656761746563616c6c0000000000000000606482015260840161059c565b50600080516020611d9183398151915290565b6001600160a01b038216600090815260a260209081526040808320848452909152812054808203610b17576000915050610b6c565b609d8381548110610b2a57610b2a611c8c565b9060005260206000200154609e8481548110610b4857610b48611c8c565b906000526020600020015482610b5e9190611ca2565b610b689190611b58565b9150505b92915050565b609e81815481106105e457600080fd5b3382610ba05760405162461bcd60e51b815260040161059c90611b7a565b6098546040516323b872dd60e01b81526001600160a01b03838116600483015230602483015260448201869052909116906323b872dd906064016020604051808303816000875af1158015610bf9573d6000803e3d6000fd5b505050506040513d601f19601f82011682018060405250810190610c1d9190611bb9565b610c695760405162461bcd60e51b815260206004820152601960248201527f7472616e73666572206c6971756964697479206661696c656400000000000000604482015260640161059c565b60008211610cb25760405162461bcd60e51b815260206004820152601660248201527506e756d506572696f6473206d757374206265203e20360541b604482015260640161059c565b6000610cbf828585611454565b6001600160a01b038316600090815260a360205260408120919250859190610ce78685611ba6565b81526020019081526020016000206000828254610d049190611ba6565b909155505050505050565b6000678ac7230489e8000081610d26603383611b58565b90506000610d35826034611ca2565b610d40846002611ca2565b610d4a9190611b45565b90508281610d588785611ca2565b610d629190611ba6565b610d6c9088611ca2565b610d769190611b58565b9695505050505050565b610d8861122a565b60008111610da85760405162461bcd60e51b815260040161059c90611b7a565b6000610db333610819565b33600090815260a16020526040902054909150610dd09082611b45565b821115610e2e5760405162461bcd60e51b815260206004820152602660248201527f616d6f756e74206578636565647320617661696c61626c652072657761726420604482015265746f6b656e7360d01b606482015260840161059c565b33600090815260a1602052604081208054849290610e4d908490611ba6565b909155505060995460405163a9059cbb60e01b8152336004820152602481018490526001600160a01b039091169063a9059cbb906044016106eb565b600054610100900460ff1615808015610ea95750600054600160ff909116105b80610ec35750303b158015610ec3575060005460ff166001145b610f265760405162461bcd60e51b815260206004820152602e60248201527f496e697469616c697a61626c653a20636f6e747261637420697320616c72656160448201526d191e481a5b9a5d1a585b1a5e995960921b606482015260840161059c565b6000805460ff191660011790558015610f49576000805461ff0019166101001790555b610f516115c4565b609780546001600160a01b031916331790556001600160a01b038716610fab5760405162461bcd60e51b815260206004820152600f60248201526e696e76616c6964206164647265737360881b604482015260640161059c565b6001600160a01b038616610ff35760405162461bcd60e51b815260206004820152600f60248201526e696e76616c6964206164647265737360881b604482015260640161059c565b6000841161103b5760405162461bcd60e51b8152602060048201526015602482015274696e76616c696420726577617264506572696f647360581b604482015260640161059c565b4285101561107f5760405162461bcd60e51b8152602060048201526011602482015270696e76616c69642073746172744461746560781b604482015260640161059c565b838351146110cf5760405162461bcd60e51b815260206004820152601d60248201527f696e76616c696420726577617264506572506572696f644c656e677468000000604482015260640161059c565b600082116111165760405162461bcd60e51b81526020600482015260146024820152730d2dcecc2d8d2c840e0cae4d2dec898cadccee8d60631b604482015260640161059c565b609880546001600160a01b03808a166001600160a01b0319928316179092556099805492891692909116919091179055609a859055609c84905561115a8285611ca2565b609a546111679190611ba6565b609b558367ffffffffffffffff81111561118357611183611911565b6040519080825280602002602001820160405280156111ac578160200160208202803683370190505b5080516111c191609d91602090910190611861565b5082516111d590609e906020860190611861565b50609f8290558015611221576000805461ff0019169055604051600181527f7f26b83ff96e1f2b6a682f133852f6798a09c465da95921460cefb38474024989060200160405180910390a15b50505050505050565b60026065540361127c5760405162461bcd60e51b815260206004820152601f60248201527f5265656e7472616e637947756172643a207265656e7472616e742063616c6c00604482015260640161059c565b6002606555565b6001606555565b6097546001600160a01b0316331461073a5760405162461bcd60e51b815260206004820181905260248201527f4f776e61626c653a2063616c6c6572206973206e6f7420746865206f776e6572604482015260640161059c565b7f4910fdfa16fed3260ed0e7147f7cc6da11a60208b5b9406d12a635614ffd91435460ff161561131c57611317836115f5565b505050565b826001600160a01b03166352d1902d6040518163ffffffff1660e01b8152600401602060405180830381865afa925050508015611376575060408051601f3d908101601f1916820190925261137391810190611cb9565b60015b6113d95760405162461bcd60e51b815260206004820152602e60248201527f45524331393637557067726164653a206e657720696d706c656d656e7461746960448201526d6f6e206973206e6f74205555505360901b606482015260840161059c565b600080516020611d9183398151915281146114485760405162461bcd60e51b815260206004820152602960248201527f45524331393637557067726164653a20756e737570706f727465642070726f786044820152681a58589b195555525160ba1b606482015260840161059c565b50611317838383611691565b6000609b5442111561149c5760405162461bcd60e51b815260206004820152601160248201527014dd185ada5b99c81a185cc8195b991959607a1b604482015260640161059c565b6114a4610556565b609c549091506114b48383611ba6565b111561150e5760405162461bcd60e51b8152602060048201526024808201527f5374616b696e6720706572696f642065786365656473207265776172642070656044820152631c9a5bd960e21b606482015260840161059c565b600061151a8484610d0f565b905060005b838110156115bb5781609d6115348386611ba6565b8154811061154457611544611c8c565b90600052602060002001600082825461155d9190611ba6565b90915550506001600160a01b038616600090815260a26020526040812083916115868487611ba6565b815260200190815260200160002060008282546115a39190611ba6565b909155508190506115b381611c73565b91505061151f565b50509392505050565b600054610100900460ff166115eb5760405162461bcd60e51b815260040161059c90611cd2565b6115f36116bc565b565b6001600160a01b0381163b6116625760405162461bcd60e51b815260206004820152602d60248201527f455243313936373a206e657720696d706c656d656e746174696f6e206973206e60448201526c1bdd08184818dbdb9d1c9858dd609a1b606482015260840161059c565b600080516020611d9183398151915280546001600160a01b0319166001600160a01b0392909216919091179055565b61169a836116e3565b6000825111806116a75750805b15611317576116b68383611723565b50505050565b600054610100900460ff166112835760405162461bcd60e51b815260040161059c90611cd2565b6116ec816115f5565b6040516001600160a01b038216907fbc7cd75a20ee27fd9adebab32041f755214dbc6bffa90cc0225b39da2e5c2d3b90600090a250565b60606001600160a01b0383163b61178b5760405162461bcd60e51b815260206004820152602660248201527f416464726573733a2064656c65676174652063616c6c20746f206e6f6e2d636f6044820152651b9d1c9858dd60d21b606482015260840161059c565b600080846001600160a01b0316846040516117a69190611d41565b600060405180830381855af49150503d80600081146117e1576040519150601f19603f3d011682016040523d82523d6000602084013e6117e6565b606091505b509150915061180e8282604051806060016040528060278152602001611db160279139611817565b95945050505050565b60608315611826575081611830565b6118308383611837565b9392505050565b8151156118475781518083602001fd5b8060405162461bcd60e51b815260040161059c9190611d5d565b82805482825590600052602060002090810192821561189c579160200282015b8281111561189c578251825591602001919060010190611881565b506118a89291506118ac565b5090565b5b808211156118a857600081556001016118ad565b6000602082840312156118d357600080fd5b5035919050565b80356001600160a01b03811681146118f157600080fd5b919050565b60006020828403121561190857600080fd5b611830826118da565b634e487b7160e01b600052604160045260246000fd5b604051601f8201601f1916810167ffffffffffffffff8111828210171561195057611950611911565b604052919050565b6000806040838503121561196b57600080fd5b611974836118da565b915060208084013567ffffffffffffffff8082111561199257600080fd5b818601915086601f8301126119a657600080fd5b8135818111156119b8576119b8611911565b6119ca601f8201601f19168501611927565b915080825287848285010111156119e057600080fd5b80848401858401376000848284010152508093505050509250929050565b60008060408385031215611a1157600080fd5b611a1a836118da565b946020939093013593505050565b60008060408385031215611a3b57600080fd5b50508035926020909101359150565b60008060008060008060c08789031215611a6357600080fd5b611a6c876118da565b95506020611a7b8189016118da565b95506040880135945060608801359350608088013567ffffffffffffffff80821115611aa657600080fd5b818a0191508a601f830112611aba57600080fd5b813581811115611acc57611acc611911565b8060051b9150611add848301611927565b818152918301840191848101908d841115611af757600080fd5b938501935b83851015611b1557843582529385019390850190611afc565b80975050505050505060a087013590509295509295509295565b634e487b7160e01b600052601160045260246000fd5b81810381811115610b6c57610b6c611b2f565b600082611b7557634e487b7160e01b600052601260045260246000fd5b500490565b6020808252601290820152710616d6f756e74206d757374206265203e20360741b604082015260600190565b80820180821115610b6c57610b6c611b2f565b600060208284031215611bcb57600080fd5b8151801515811461183057600080fd5b6020808252602c908201527f46756e6374696f6e206d7573742062652063616c6c6564207468726f7567682060408201526b19195b1959d85d1958d85b1b60a21b606082015260800190565b6020808252602c908201527f46756e6374696f6e206d7573742062652063616c6c6564207468726f7567682060408201526b6163746976652070726f787960a01b606082015260800190565b600060018201611c8557611c85611b2f565b5060010190565b634e487b7160e01b600052603260045260246000fd5b8082028115828204841417610b6c57610b6c611b2f565b600060208284031215611ccb57600080fd5b5051919050565b6020808252602b908201527f496e697469616c697a61626c653a20636f6e7472616374206973206e6f74206960408201526a6e697469616c697a696e6760a81b606082015260800190565b60005b83811015611d38578181015183820152602001611d20565b50506000910152565b60008251611d53818460208701611d1d565b9190910192915050565b6020815260008251806020840152611d7c816040850160208701611d1d565b601f01601f1916919091016040019291505056fe360894a13ba1a3210667c828492db98dca3e2076cc3735a920a3ca505d382bbc416464726573733a206c6f772d6c6576656c2064656c65676174652063616c6c206661696c6564a2646970667358221220ed4b0642e02a250d5a7cd79fd10c3bf31908a19d51b6967433a1c07737890fd264736f6c63430008110033",
  "linkReferences": {},
  "deployedLinkReferences": {}
}